:100000000C94D6400C94F5400C94F5400C94F540BB
:100010000C94F5400C94CE440C9432450C949645C7
:100020000C94A9450C94F5400C9400440C94F540B4
:100030000C94F5400C94F5400C94F5400C94F5406C
:100040000C94F5400C94F5400C94F5400C94F5405C
:100050000C94F5400C94F5400C94F5400C94F5404C
:100060000C94F5400C94F5400C94F5400C94F5403C
:100070000C94F5400C94F5400C94F5400C94F5402C
:100080000C94F5400C94F5400C94F5407F7F7F7FF5
:100090007F7F7F7F7F7F7F7F7F7F7F7F7F7F7F7F70
:1000A0007F7F7F7F7F7F070007047F7F7F7F7F7F4A
:1000B000077F7F7F7F7F057F047F7F7F7F7F7F7FBD
:1000C0000F7F0E7F067F0D7F0C7F7F7F7F7F1F7FDF
:1000D000177F167F157F1C7F147F7F7F7F7F007FB8
:1000E000277F1E7F257F1D7F247F7F7F7F7F187F57
:1000F000207F217F267F227F237F7F7F7F7F7F7FDF
:10010000107F197F1A7F1B7F137F7F7F7F7F0818E7
:10011000117F127F0A7F037F0B7F7F7F7F7F081015
:10012000081F097F080F027F08197F7F7F7F7F7F6D
:1001300008027F7F081308117F7F7F7F070C087FED
:10014000017F080B7F7F08077F7F7F7F7F7F080706
:100150007F7F7F7F7F7F7F7F07037F7F7F7F047F1E
:100160007F7F1C7F1B7F7F7F7F7F7F7F037F0810C8
:100170000C7F247F237F137F7A7F7F7F7F7F08110F
:10018000147F081908200B7F7F7F7F7F7F7F7F7F11
:100190007F7F7F7F7F7F7F7F7F7F7F7F7F7F7F7F6F
:1001A0007F7F7F7F7F7F7F7F7F7F7F7F7F7F7F7F5F
:1001B0007F7F7F7F7F7F7F7F7F7F7F7F7F7F7F7F4F
:1001C0007F7F7F7F7F7F7F7F7F7F7F7F7F7F7F7F3F
:1001D0007F7F7F7F7F7F7F7F7F7F7F7F7F7F7F7F2F
:1001E0007F7F7F7F7F7F7F7F7F7F7F7F7F7F7F7F1F
:1001F0007F7F7F7F7F7F7F7F7F7F7F7F7F7F7F7F0F
:100200007F7F7F7F7F7F7F7F7F7F7F7F7F7F7F7FFE
:100210007F7F7F7F7F7F7F7F7F7F7F7F7F7F7F7FEE
:1002200008277F7F7F7F7F7F7F7F7F7F7F7F7F7FAD
:100230007F7F7F7F7F7F7F7F7F7F7F7F7F7F7F7FCE
:10024000017F7F7F7F7F7F7F7F7F7F7F7F7F7F7F3C
:100250007F7F7F7F7F7F7F7F7F7F7F7F7F7F08158F
:100260007F7F072408057F7F7F7F7F7F080D070B37
:1002700007237F7F0713071B7A7F7F7F7F7F7F7F27
:10028000071C7F7F7F7F07147F7F7F7FFF1F627F39
:10029000C23C006088FFFFA0089001324006C8C63B
:1002A0000019FF03050A4414812241CF068AF32076
:1002B0000365FBA00C94290034FF7FED0133500649
:1002C000CA54DC1928E0D398A9C6880004F3D36483
:1002D000800CB908FFF80015E0025C800BE17001AA
:1002E0002EE10468F92AA002F4F39E50F3C005A899
:1002F00061E6A0B393B312E054E1800AD0ED2A4046
:1003000017E05427D374D3B8009917B960B360903D
:10031000FFD898FFBAE510060240333DEA400208D4
:10032000060120360480D1E0086533E4D8F9FC20CA
:1003300003048246E5C9C782D8005A020BCB01D913
:100340002404E4B3D348B802EE71AB812004DE9FED
:100350007A9E2873FBF902C6101DEBB40173D0C559
:100360007ECC19E6266EE0B30F681028800EA073CD
:10037000F38404A942708044528F80587119C94D8A
:1003800042A18F080D94A0D820444495EC8CA10183
:10039000F16775E506C216E01B86BA204802203DCB
:1003A000F37778B6F939EBC70C2D90CF6531F3317F
:1003B000FF186AF701A9D6B32CC0FE7AF330E4E641
:1003C00018B4C034DC58DD0EA3B3080236D606FFDD
:1003D000744DB118801FF5FD8EF8FCE49EDCFB50D7
:1003E0000A49210C43DBD93D410DB3D9B040CAB510
:1003F000286C7AC1148F81C1D0E08210495E608977
:100400002FA97B19C6C02098D1B904F230025244FA
:100410005D29E0CE3046857FBED02280C042189351
:10042000BA147C85C93001D3DC1E23115277F7DA68
:10043000E8FA306607F0BF1EC482581003E160403E
:100440003C97BC819AC00362B33C90B4E02F0D226C
:10045000D3E053F301D3F020F21EC00379C685E345
:10046000F4C0193306C0E310BF81E9D5B6C0BC4063
:100470003BE3F37F32E57E8D44D3A218462FF3BCD5
:100480009566407CDC0C02E2B5FE4CB398404063BC
:10049000F688B630FDCC027EF8B00339B305FB0117
:1004A0002024C40897B31492B3CE5819B3BF10FBDD
:1004B0001FD0F9C990C4401DB79EEB71D908413FC8
:1004C000346FDFE221111486C02012C50109CB4828
:1004D00011F277D360400D73F9ECFF6479988C1FAB
:1004E000FFE7CC8B3DB855D740AF9E13C6BC61DF4C
:1004F0005F75F47F7BDB18840BDDEC3072F35862A0
:100500008E4326068A4097D6207998AFAD3C701A64
:10051000D328F83DEF0F41D90A014219F0C4FD4D2F
:1005200050EF3009244498202FFD575B246D0C6850
:100530003BFCB379192F96486EB78021EDEA44C091
:10054000ECEC0C4FB9B5320A6ED20259661075D375
:100550001132E0983A180513E36E9BB291FDFC98B6
:1005600075F516D0D505E7C579D1A7A8980F80C431
:100570003D983C30D3F4261EB638D7C598097B98F1
:10058000182015FD17DEFD04666BD707AD9FC03E32
:1005900059C49B668040BCA515181F66E69884EA7E
:1005A000B67A0E4BD3C9987608B2A28BB3ECEC4D59
:1005B000B311FDB00886C004182DE04450B32236B4
:1005C0000503BF89BF08F732467A9803FFA5372491
:1005D000D0FC59B1142FFE7FA00824A1105860F858
:1005E000425B0972858896CE6A9F7FDE90FD66BB6E
:1005F00001AC74B5C96018FC9165112F1DC78C99A9
:10060000406DD368FFFF7FB2024BBDAF4431F61F90
:10061000A38026BA644DFD8661AF2130E01664CA1E
:10062000B3B0F97FDD11B6F711A0447ECC04E3B37B
:10063000137F198009010A14C2083BE512606E7627
:1006400030021840CDB308FBCAC6260BC70872D3C8
:1006500049E5B322CDB3208C8920B341404233B366
:1006600058CB62BB02923012D3B787235DFA797FF1
:10067000E419B4CB0648B12BD6987827EE98E4015C
:100680001CB930405EA58678EF2E987C5A201EC497
:100690000319315E665DB15FB171C8E7F0F9E5A796
:1006A000ECCC0CADB79FFACCD365F930610DAF023D
:1006B000307FEF450CD5FCF9B7F66B0203CBF6C0E3
:1006C000FF7541625E98FD8441300246C17F05237B
:1006D0006001A9B3120CC62CF366F930104BB44874
:1006E00066B426D4D39D308D8430BABB12D5F801C0
:1006F000AF88606B104479400B08203B168415408E
:10070000C0E6FB60440D9B44E4FF6DB7AA51FF06B1
:1007100066EBB18011EB18FE3CF3CD628416EB3929
:100720008DEC68FDBF114453FB26B50757B303D9C1
:1007300072DFCC5EA535D441EB4B81DDF330A001F7
:10074000AF2E300C6FB298FD38DC1533CD95DB66DB
:10075000418111FD3224FE0029FCAC44CD2C30D166
:1007600081B71F30EDB8C3F9AE4B20B3816653514A
:100770007A04447B734042B301FFCC81D611315CD3
:10078000A8E2C02411CE82015A26C092A703A1FF7D
:10079000ED7F89FE7D980E2FA0E3306E4AA73819B1
:1007A000FB9D10F7983C900795F240E1983F0FE0D1
:1007B000413CA007CF3240368318207FB66BB8FF8C
:1007C0005EDB1AF17D6A8F04333FEECC3F96EBF986
:1007D000BA64100C6FD30806CB515D5F8E53F2CC18
:1007E000265AE91B19F84B4E022C82CF3D67B324E1
:1007F000D2C44408606EE0840DA622DC1809B372EE
:10080000C7B0FED7B1141E5E19EFA00104E09EBA76
:100810000348F1D1D46767F8A285F4348110C4E0AD
:10082000E7230C229090B44578B1F61FB4597FB5F8
:10083000FCE130EA6E195A3A5FCF2CF0474F156D44
:100840003AC080BC3DD501026B9DC8E8FAEB870237
:10085000BE6CDB3791E07EEC408C8E43F47F827A75
:10086000DD06E4F229798D860EB4EBB1DBC348FCDA
:10087000978B446EBD90F465A48DDF2873664101AB
:10088000B1804DED9524D090F4852B0AC498EE2CC0
:100890000142677F3272FD6DD1B15FF87F051009AB
:1008A0006EA0F833F9142C66468AA619BE3F9A0941
:1008B00085063B60F460140E4E01C0821865F3613A
:1008C00087CB3A70F2C89BB80650FDEF805E824A33
:1008D0005DC0F6980F22C41A19E081CCC834ACF878
:1008E000BBD5D26B3DFBBF2FC82FF3D172B3B8F885
:1008F000845B887E7F410D201F66F97A0C667EDE60
:100900002FF2B502681B8130D8FFB9ACEA306AEA31
:10091000B460ED02E1E91912F58054D019BD094027
:100920006B96C823FCCC0809DCE046C8374A14079C
:10093000D34FF640040B6015EBD498F3C8045D9ACE
:1009400068BD6EC9E568020D3DBFDBCCEB250486B2
:10095000D280066450FCA29F70412F1ADA400873BF
:100960003C2CF865786C16A6CD86192795C7E780CC
:100970000DC7C220B9520BD376F3DCFE6EB3DA0397
:1009800002E5C8FFCC5FF9623FCC5F8F446DD0DADF
:10099000031AE5C8766484D0C98D503FCC01648DBC
:1009A0006CEC28AEC1D967F6B10504215A10F9ECF8
:1009B000CEB608DF8C2418414766F6641BF5661432
:1009C000AF4D04C011B86605C630EBBA106266F1CF
:1009D0002D4F0E1874E66104D37681AFE019092318
:1009E000EE42806FDF69FBF198E6DF1E50E2B89AB5
:1009F000BC98FCD9C810FC307F97788A98BDC9D5BF
:100A0000E049D33C604DF3C0837123FEDDB6FEEBBD
:100A1000646E37303B66CD9838F2CB720E1006C24A
:100A200039DB8F70FDCC08B66EC89B17665AE5C8D7
:100A3000BF1ECAB3AE101B30F00837B866103117AE
:100A40002467881304B50A4FB3220C0360217EFB90
:100A500049B0FE20CB884D8C3830068006D7EB0F8E
:100A6000CB98ACC7C266FF8CC206988122499360BE
:100A7000CFD3097FA6980282680C299DF6D390F8FF
:100A8000BF9BD1251906CDB70B738639FF816FEB5C
:100A90003B20C53DF7A99BCED3E0FE60D9D8036CBF
:100AA000B3B6A0C9DB396AD42D7EBEC402F7E88193
:100AB00020067FB69880409B9E017B360A024DB38C
:100AC00098FEB7BA6910200251E849B37998E956FF
:100AD00080E067EF960980A21015F698680AEDA5E8
:100AE0008B0124DBF2449CD3EBC0FC84F7D346118A
:100AF000B366ED2710A4A6906266B3C6491AC20871
:100B00005D69FB1811106014B8CAB2C8BF260B2B60
:100B1000CCA7D5E5B8FB7662D507167099C87136B3
:100B20007998FE3BEC24010CFE1330EDD372FB40B0
:100B30001EC003199EF33C880731B830BC9802FFF1
:100B40009C1050FCBF88AD488D36FC98BFAC44B1BA
:100B5000013E9616894FAF9806F198397FB298E01A
:100B6000F8EDFFDF738CFD7F4050B78098231CB1F8
:100B70002CF8C8120224C41219260D142EDD31CD12
:100B8000C8806FD604847A98FD33BD75115C30B986
:100B90000A6B3171CE13EF57250236F342736904A5
:100BA00016BB91B9585063CF7FCA75FB62C6134814
:100BB000400D775B0CF9987D6EBE59C89CCA677C66
:100BC0007BBFE78C5D945020BF9BB7FEFD1D2BC5FE
:100BD00016D608AAC0A027437B074001B708EB6FD1
:100BE00027DADD062468B001786E5EF1830B815050
:100BF000DC200CB2BD281942772F8651D3CF6E1C52
:100C000030D48982B3CBDEB388804024EE81BE0825
:100C1000DB11017030F78868028C37E2CBF87B2B50
:100C200046C130F6831FA7F2A96618F421C2844298
:100C3000B6B0E23834EFEE9D08307CBDC0881805B0
:100C40002F02082C800AB093C6445AA0DF4012DB62
:100C500017D14F7898F04006C00FCBE88005491EA9
:100C60003190F50B60013CE7C0B6FF9003BA9906DE
:100C70001D65D3F4E0D9C8EB0FE441CD9838235C6F
:100C8000F38AD040FD09AE51175DF8E5C8A166FFB3
:100C90009732663083D1BBD8B5023B66A8DDD3B5A9
:100CA000CF10B60CF7980403617711EA23FE985B26
:100CB00083DC9810F878C337B0B3084851D3C7091C
:100CC0001AF3A0B384E531113C22E0125A02B3B307
:100CD0002298F560BF1258FC10F86C58FFBE46CC45
:100CE000CBC81F6EFF70FBF186AC7FCB177528F366
:100CF000FD338256B4212CD37FF02588FD18243B88
:100D0000FF98FF281A3393FA1AC6DBD390FF71D7E6
:100D1000EB6AD169E75C9917E783F5D499BBCF10EB
:100D200076F338F8BE9BDFEDEAF88C8C935934806B
:100D300079E09EE97FE2CCFE3BCF9836DE32B10C03
:100D4000F359AF1079B1A117B92C7F32FC20608F15
:100D5000F5CCF67F28386E11B4103C770922357B2C
:100D60005C1C04E96ED1B510EDD8F982179AECB687
:100D70001998FBCB340209D6C5042CD1B5F85B66B3
:100D800001F9E51898D1B6DB716419B39EC2D93068
:100D9000FABF9F678BDEC155F1028A2C3F209FD896
:100DA00099FED799FC39FBB609F766200201B1829A
:100DB0006F5ECEFDCE0620C9589704D119654394C5
:100DC000F371FCBB36D0FA6FD7E869C16C0926A471
:100DD000ABDF622AA840498620CEE80991DBDC44DB
:100DE0006604C4FC8BCED78D40F7BE8029070C204B
:100DF00037AE021F2DFB792810FC7F900A12233694
:100E0000FDF6F1E58F5037EE6801F998C54AD3AD8C
:100E1000E8A039BC1C826E2DF43B820823F7D9442C
:100E2000EFB4397006D0C7C1109B2AAC08B436277E
:100E300006106022C4D18A77FBE30601DFAB6D4C5C
:100E400036AF31B16DDA8022AECF2032F8FBCFFB66
:100E5000657E100485D346A78D90F88488F81579AF
:100E600010B28941041D0BF5CA65C680AFACF029EC
:100E7000EEB8B10FCE3FEFCD56CCB0D3A125EC18D4
:100E8000B1FBAF239E363C088DAABA08CEE4E450ED
:100E9000B0B3FCFFD8A8B649CC59F002062113F52F
:100EA00008BB3F68FCB3023B714061796ABEBDFB81
:100EB00080C0FF02B9658F9BCAAD8D048C42B740DC
:100EC0008018F861471939FB7667675DD0FDB10876
:100ED00073421EE1B559A00CA74BAD875B9688FC09
:100EE00034D8C2830B3C5BCFD5AF01854B5C01711D
:100EF00057F67A66FDC6375F2062C61B2DFDAFB878
:100F0000F8859AB3B280566E40724AD0F3B30AD6CF
:100F1000B4022FFBFD08311920618E6DCD20DB243A
:100F2000F8FD37EC6B29EBB13D7B39B3FFCFC63011
:100F300035A1B80264361330FF16992ADF3A65FAF4
:100F400098FBC30ED22A60F981C4BC84C22ED96436
:100F500008267A37CBA4500B1C198040A08C6DC595
:100F6000B95991B6F9308993B4BD01E7B320BD52A8
:100F7000046BFB3FD8FC98C29ED6FA48589CB7B683
:100F80006958FE676CD60277769084AB6D0A133091
:100F900097B3A8B12D858F948A675FF8FB4453946B
:100FA00079DD99FBCF015539081BDF655EC0E41A76
:100FB000F8591904E76AD5BC12D272F4FB20DDCBD4
:100FC000EDC00816D4764E1210E1BBEC80A59BA0B4
:100FD0000D9CE58036E801414A6A829AFCF4FEDB0A
:100FE000839BDCD04ACFD501D306C7100ACD40433E
:100FF000A20DFE75DB04C06A80189FF9B001028063
:1010000052013093032CA6096120E4A651D3D52EBA
:10101000E570F871C4CB9705DAB521204C3130F179
:10102000880E0C4101CCD962215E05D361207C344D
:1010300030032205E208A8039FC692204015F8025B
:101040003225100D7305DF08B3F8FA9AF1C3D262A6
:101050001D2E1E40FFDBF304E90FBFF00240201CF1
:1010600086DE90FD3F6F927DE95BD16EBD08CEEAD2
:10107000C344124144BF261082F3FD485C04F7F6D6
:10108000019E483B0EF8103F6CB47F36C201B98315
:101090009680B75B2DD4FB617F9999FD9F6E80DAB6
:1010A00018FAACF74230E62A8004CDE6A958FDC60E
:1010B0008D88CCFF24CE0AC8FAC5733D407F9812B4
:1010C000872738482808102C6B4DAFD8B0FA8B4CC6
:1010D000D1ECD97F018B3B0156DEB8FBC29D59761E
:1010E00080DA9179BC903DD888FCD7D8F25B9DAC72
:1010F00098FC8B1825EA5E50C4739A48B7F9FB3602
:1011000033CB508C956BCF952E93DEA008EE6BFB06
:10111000424CBCE5C2BCD64480D948668B25A61596
:10112000C69A13E8060668B3EE54E0FCFB7A2587FE
:1011300030AE09B148866821B0D0C1D58680A506F9
:10114000F36173CD0924A520ECF99AD1B130C269BD
:10115000D3152BE15ED9065F96ADF05A620CECE731
:1011600017670638806323673701B53CE45058277A
:1011700038861006C0371E6C174A606CC918FEDC32
:10118000D8CC344DDB6F02DE6206808298FD53C9F5
:10119000814B38FA4DA00203BFA3BE896C101664C0
:1011A000B8B5F20437FB442E3C11D0F01E86C008BF
:1011B0005853B3C7400148B7FF07AFA004640D39C7
:1011C000E7078CFE2FA0053D7DE5E7193FFB3C8836
:1011D00007F02006ADD081D3240DFAAF5F8C6EC12D
:1011E0005FCF2C4664666880301B138566F811C695
:1011F00054694D34270C48C6D0F8FEEDB100A6B3B3
:101200000830DB29AEE02047F3A18460B91920C083
:1012100040C28D595337F68C7F2BE8FC676E080966
:10122000CF407246DDFF31FF8E91801038CD200413
:10123000FB18BFA3E380F022128220617B28082CD8
:1012400020BC9858B3F3FF4EEE02FEFCC07277BD8F
:10125000EE4AC06E385A5D68A97952FF320591E4B2
:10126000980367BDB31E6691FFA3B3C82E9D661B8E
:10127000A005F9C07316810CD78807839816781DCE
:101280000F7898EE3CFC08313EA766126667D3DE05
:101290000BF8C276EB347285FB9F20C07EA762F309
:1012A00001449841A46580126900E619FE98779977
:1012B0008BEF666750FF0B732257A8E706C510C077
:1012C00026C1B5404E1A41B40540BEBD1452D3B23A
:1012D000506659FE65694CC6087EE6EA9C351EFFDD
:1012E000CA778435F198196DD341F10C30C6B03509
:1012F00006C8A99A0F5D4BC4F982B731AEC017106A
:10130000BF41D5E40AE54DEA9820EB716166D32E22
:1013100066F498500B0CBBFE9AB3F87B6430637A8A
:101320005A8A887B7646C14251B3A6FF1202C04258
:1013300018052321EE002C88CEC8FE10CC31190EE2
:101340006030FE676E4406DFB82220EE1929B31024
:10135000CE425E3EA70D2EA120C2E5080360F3A792
:10136000B698A8FB3E66C0BCEED26714F85297B39D
:10137000012F0AC2E627200CCFD5E6789DEB983CDA
:101380003F9E30BEEE14DD53EC72662CD7BB642951
:101390003007C6C0F90259200F0886E68005F04ED6
:1013A00088BB0A0FA768DDD8FC0C63CF6696FE8267
:1013B000DD7392036EEB70BB81934706A902416017
:1013C0002E2C7C7A22012410400105C9208054442F
:1013D000DCFC04D8652CC3C6D7B3B6FF14DC75217A
:1013E0008EF5562CEFD0C330B3443CC68360103426
:1013F0000D9C209A4898DAF9517A98B8EF96CC5318
:101400004F36DC10076BB3860ADF0116DFD90720E1
:101410000EA9033D800634BDA5024326792C8880A1
:101420006D191EFD98A0B3F94C19FE377DF17BDBD9
:10143000BF20983006025018D166FE7DD905C03E07
:101440009816F8F3D01A3BB3AD868BF68230CE16E1
:10145000D11A01BCF056C4B1AF02C066189A216E11
:10146000B381DD78FF9CC667FB98AEBAEEC13B093D
:10147000437963FDEB24200402807D83FEE343A4D3
:10148000A3122EF3F398F3C8ECB1FAFE7B30B4BB91
:1014900041A3BFCC548766EE7EDB90E53219667BB4
:1014A000A6D958F8ABC50C3FDE9858BA53EBE77590
:1014B000417618F9FE69013008FDC340166AD3AFC2
:1014C00088BFCCCF98CEC8D0FBC7DF66BABF4CAFC1
:1014D000124FF80D7604FEA28A26FB9DD07240576B
:1014E000BA6B228182F49820D3FD88090BFE66BB7B
:1014F000C530064635EEB8EEFA53AB7FF813461802
:10150000EEC0109021BBF7441804F40988D37E661E
:101510002898046350D336C8A977ECCC38CCA7C838
:10152000209A1A41BB0BD8BA4207980FA63E2DA0AD
:10153000013203F258BD983C7FBB98C003484CEC85
:10154000C8E0FAE3662FD7E580F0388C3BD7C67346
:1015500080103A3DE0660C686636F310DE98D8736A
:10156000F9F1B3EBB590FCF3626082FE30812602A4
:101570004258F3E4FBE9C00B19019D030E4C88C6E9
:10158000EEBF329684FDC5F7E6985B196C26DD4008
:1015900076DF43441A2023337534CD107AE9089E50
:1015A000D924A2200204430BA35F6C98A8F9436CD2
:1015B0005AD6661AA669B345C64CF75920BB0271C4
:1015C000AA8BB6CEF0FE772C87A0BF279835AEA7A2
:1015D00044B866D0171138BB77164A6ED51C65BE65
:1015E0000C0808FC30D7C0039098E6C1F1F9669961
:1015F00098FA15FAAEA60A67157DF8451104BB8561
:101600000C5326246909C27B6C2122A7C1099020B2
:10161000401DDC30B47AF64BC044C8E2DBF3212035
:10162000199EA5AA960497B4607C6610D87BC04327
:10163000B4160F1898A5088B4CA7FE3204080210A8
:1016400054D3DB9828FB431223A5B1399BFDCC8EE4
:10165000DE7983CF19144007A0030D80C301F17711
:10166000BBE2200F02FC985BA3FB9898FFBC0466CA
:10167000C5B97D0446A1AAAB0414FA80E05EA55961
:101680007E35E802D3176620BF08943044E6C0D9FF
:10169000F86636B3104070B35A01F04D8D32C84031
:1016A0001BFCA146C2141A111D6821DE4B27131919
:1016B0005808C01321B98C91D0B3FE73983081893A
:1016C00008663E19A8EFC0FE41E7F32A20BB185F69
:1016D000048010D86DED980434DC300261D32DC83D
:1016E000F6E3C57462FCFB61A26E40EF9EF45057B6
:1016F00020DF0330E2CC163D7662B360053C9FEFFD
:101700006C7AE654EF2975E404C42899AD016B8224
:10171000F240D198706003BB30C8C0BA1E0803D530
:10172000A262D96067F464B3537D4B3EEEEFC1EE25
:101730007D870B1034D980C280EBEF569824E206E7
:1017400030F922010298A9EF204080CDC8FA9847CD
:101750003BDA22103B78E3EED4CE7BF8532128BD50
:10176000BD9806AD011F6258212088115E98FB408C
:10177000101803135E5930309B96F1E0010980592F
:101780005DFCAF03634B0EC03DF50AD7A00B9798E5
:101790005FBEE298F07DD33D8004B07AD583B3C8B4
:1017A000287799988219B6BEB58CB3C3166F5DE5DC
:1017B000A094C8666BEA9880C9BB665C236DCD3087
:1017C00071FE9EB3B3207D980646E9DD4B59C84CA7
:1017D000F0421ACEF4689CA401EF4C9842A68BE923
:1017E000CD8C90E2B0A3FACF1CCFC8CEFF83D3FA42
:1017F00041B643ACD7012280987E6EC840F198F381
:101800005E98F94402600A08A68E218C7920D7627E
:1018100088BE01D3FE81B3033712BBFFB733CBC8F9
:10182000753A01A24350E5B3108C65C83B4AC6BA6D
:1018300092FF3223F533097B60F9CC0723EB16883E
:1018400003D398C8D690769FFCE298E6B71FFC4079
:10185000D118DB6616ABDC28EEDEFB4B6634E68087
:10186000F9304206401F092421117FD822014A0A7B
:10187000A2F598842BBAF08CCABDFBF0B0401604D8
:1018800031B3E8EEAA13FE7EB34387092EC0103FA2
:10189000412604C54498CF0B60AE814520BB10C5DE
:1018A00098F37E3242EF5298F82610CCCBC83B70AA
:1018B000963A2F3EF4982AC08AA0AF2D13EF5323F7
:1018C0001A2BF0CEE2F5981E79981FF3CB3008174B
:1018D000D3157E5A2082EE3001D3D098C497AE4EF5
:1018E00061F9A2EF2E66FACC536648B3C8FE4BC02E
:1018F000221B5DB302D7F9EE9501BFCFB0161617C4
:10190000045844C50B6807A4091610EF75980183A5
:1019100020B7BE7A5EFE31E4667D419DEF98603B64
:1019200080FA43ED7BD10FFF20DA210465C87A9855
:101930000D71C32490B41218F45C307FE5A2F95302
:101940008EFB9856AABF83DFE585DD01FF806675B3
:10195000DF7941AF9E8B6EEC48FDE0D5B3909CA340
:10196000EF78BBA5F1E5B3DA58FF7B98401CBB804C
:10197000DA98C001CAC8F598107A980EF5D5FC9C83
:101980007767BE57689BCBDE10F7B345FF887FA310
:1019900098045749BE9840219030223F0104817736
:1019A0002E3041765DEBFDC072C026CDCC6DEED7FA
:1019B00066EFCEB8B3CD1806C81067FF26EB5808FF
:1019C000FF2361018081053109174084D708028116
:1019D00098739131FCE220010CB2BBB108B207BF91
:1019E0006F075F7FFA1B820C9003FF7F08010FBB1C
:1019F000E8DB983440B4121D036C1CC319B0BF1649
:101A00008F30EC3AF8D16830AA8AE4C8B4D3ECE05D
:101A1000D0369F9D82C8DBD49860C42EC6F3984C04
:101A2000BBC8FC7A8BFB80B2E04B19CC8BFC95C811
:101A3000DEB60A8AAB84F49806FFF29A60136C4211
:101A40002CA09E217904C040570CAE984C58D398D6
:101A5000EF297D04BFDFE983DC09B622EEAA4177D6
:101A60000862FF58ED408FFA54F8FD203C85E2965D
:101A7000500171F3FFF6F4DF81DC11F8C3C2AADE76
:101A8000FF28B56DF60973D3A8FC6106FDE3DDC739
:101A9000FC01CEB36B295FC712D62893C7DD66DD84
:101AA000A1DECFB346C71475638A3978F8CC160225
:101AB00056761702446B9098DFDEC7DD66EC8F29FF
:101AC000777166C0B4FCDB4953A0D6F31263669C01
:101AD0007FDC801DF8F7220AC00779D2B0D3B37B30
:101AE000BF542889F901656860B1BE1FED2F8201DE
:101AF000B83058FDC01715F47FC2650BE2FF28D53A
:101B0000CE31A7CFEBCC90FB4CABA1D1F3B188DFAA
:101B1000B322330F10657ECCF9030472FFD3FC1E91
:101B20005EDE80FC669B40E67904CA595418EB6679
:101B30002008CD21FCB4CA769958FD0814AD3810A0
:101B40008FBBF8278C8FBFC9EB3AACFE7CBF8C856E
:101B5000B54F10B818BC1BE3DD4B18B3FA4D26FC8B
:101B6000F2C7CE9E35B1E1BAB30DEBEAFE23EBEE40
:101B7000379D80984FCFF1724010E802DDDBE0E442
:101B80002F0A0D68B721E697A3F02D6615D1B32073
:101B90006B0C5660022EB339B805A87F0B08183AB3
:101BA000BC30287C72B014840106C6590B459EA631
:101BB000546FF4CC34049BB61B33C5FE267F7C20C7
:101BC00004D0C014504165B18015B8220496112884
:101BD000B50640B538FE710588FBC30F3264949D8D
:101BE00001F2B610F5E2BC98B378EA46CDD2800493
:101BF00088FCCCC46C4147E8FC7FDFF302C9D921E3
:101C0000B0A5829B78867DB17A7710CBF34EF444F1
:101C1000CF1619E969F3EAD10833FDBA24DDF205DC
:101C20006AF5D8C8FE5E69B380BEC2DD81B0B0FB84
:101C30006BE3CA3DFF08677D6CBAF518C2F166C454
:101C4000B4025915014707FB0B48FE6798D3F76CA0
:101C500061045F9B5298F90E3E7FCF6C9DD0FFF3DD
:101C6000D409F824CF6C3DD0FEE31A0C3AABDDFF6B
:101C7000D8B0FDB7B6690872B4408CFECD30FCAD6B
:101C800071C065ACED0186F530FAC6BAB359FF4BA9
:101C900076101EDE7020FBC73EF7CF5681085F5CD2
:101CA000963BA4D3F66EDFB1D8E519029E722C5E86
:101CB00059D4C9B1FDC3DF7D30E18BBBA080F9CC25
:101CC000F2F3E53D1A08610FB67D08FE77EC7F80E0
:101CD0005FCCB07F3B19F0F9097D64106718448B25
:101CE00056A0FD611759C6DF2BA3203FD769840199
:101CF000936CA2B64030199D33046AED6C5C6AA8FF
:101D00007FAC4BF933EB1814CE5938FFCE312DF59B
:101D1000B701E473D8B36076DC06F0FCC3DDD90804
:101D2000102D5AA8FF656E89721602FD3322F81332
:101D3000B388017F833F466CA4D5D868EFDA90FB67
:101D4000ADEF020C9FECB1067DE8972010C919C9D0
:101D5000884165C781F3ECE9B8FEF4AE1826A0B35C
:101D60006AC80705A278A2CEB503FB0920E39972E1
:101D7000A37F8105A895A320145038F65841970CED
:101D80007EC4162AEC0A1A5D282030B218FA197E91
:101D90001A9B303A051AFFDD61F104E83B0A809E88
:101DA00072940509C847B29D12F4C2401303BCB037
:101DB000FA616E9717D98FDCBA6E29D9A8FCA4D323
:101DC00031634EB3412008D0C1F1FC6F5FD029AA26
:101DD000FC084013FB68F8103B96CB0114E91F2C5C
:101DE000C5108FEC466CFA2AF51580DF3A6C212B72
:101DF0007AEED838EC713520C6EE23CBCA0A08BC7F
:101E0000568C2AA33CD622588B66400A7B6608660D
:101E10002CF5208FF67770F90836C66FCBEE012CC3
:101E2000B0C53B1288B3FEFAB5C63A1EC5F5A90483
:101E300078F196B31917ACFF21DFB7BF6C9698FC09
:101E40002BDA0D3708591920FF9DD918FF8B4E400A
:101E5000BE0ECC3789D5670499E60E5E6DFF30382B
:101E60007DC53EE4C27F9B2A9A312396F5FE10ADD4
:101E70002920967B0839FB63500DB796406E627B34
:101E8000012401728BF9370406A168E7A501F10965
:101E9000FFD8E8824060936CF326E10EEDD686C051
:101EA000DDFFEF000C8120055BAED912440B4E48DC
:101EB000B696C95B9B819FF3D18AD897AD3C0454F9
:101EC000DC82A364FD7C7130B7746406C0FB9603AA
:101ED00071ABCD0395A641B67177C7E437E930F809
:101EE0005B9E65E00880013327D9AFE0F89E8D81C5
:101EF00016B502EE468081F76008021138CB2C80BF
:101F000036B07FCF71E94212145F41C30B0934B67A
:101F100004ABD24048E960F27CD84928C09EB7584B
:101F20001023026E93826675C008F01383C7EC0518
:101F300030FE4FBF11DE46C00298987560078709D2
:101F4000B0472F9A0B390698FB60BDCEA007A61E9E
:101F5000C09D260FE041DE7FF4400EC483F3ECE227
:101F6000413CE7B4E0010C319DF17D1EC883783E11
:101F7000D3013D8807B2E51E78A7F2F1A0FE2468E0
:101F800000065DBED95EA91996C0EF8DF341308879
:101F9000911973CBD36097F3301CF3196BDFD1FB2E
:101FA000800812AF025EFD1AC044D3B3F384080464
:101FB00003F74CADC23B54E14A5A2F73E5981539EB
:101FC000C029A019A4C1B393FAC02CC208315CB3D4
:101FD00014B3B4125B66FC75507A9884D3FD6A9092
:101FE000028117BBB79805253EF8DC472EFC31E788
:101FF000E87715FEE5380106D3799867C7144DB424
:1020000028FD354269B1A3C7A4FA62DE236FCFA2CF
:10201000DE20AF01BB0CDEA077D5EE06CBE43B8023
:10202000B2BCFA56B415FF3F77EDD6FD66046AAA36
:102030007BD45A89E9BEA00DF8C7FA775DFE060188
:1020400050C030191A19CD2F80BF5F54E0683AF0A4
:10205000FB88CD3E26EA70082FB81BA0F624F9F9BC
:102060002C8F0430B842B3266E19EF7EDDC376B5EF
:102070007E850557E5BA6B8808034BE010DF5DDA13
:10208000D3606FD09BFD2879C1E6EA8B6097FA4454
:102090007E7F183D10A2A222EFFB701A60F9E09F2C
:1020A000B3EE777C7605F880B00810C0B358E560D1
:1020B000CD802CFB32B7779D0C2C35F6D9FBEDA5E6
:1020C0008007CEBD037820BCB8ED039B1E73E50FDF
:1020D00068023CE738BC07F8B90FF0EA02F433BCF9
:1020E000980AF798C4037A36E06489E006865E8B26
:1020F0004377A3FAA384C0FEA8FF5EC541955FECB9
:102100007F9F8BE8981C76799F9DD28034E030DFEA
:10211000D5980CE69883E71920B90CF73B94FBE0BF
:10212000B3B6045DB311EBCA4846B381015E2CD24D
:10213000DA3A206EB4391481EBC01006DC9808231B
:10214000623E8C9005F01929CE027BB338F93E240B
:102150000480461883A0EB01228950C9108604EE42
:102160004B308DF3FF9FFAEEA93AAA7DAB4E203992
:10217000EE24AFB39840A3940D5C308382D069C73E
:10218000DD3BD52160FB2FD69D8456AD5E843D336B
:102190001AEE21BAAB7B665E66B9FF43566FB8F99B
:1021A000D6FEAFB1BD3E10FF2B25D2800116D3B6AF
:1021B0006E014EB66B02818EB3223EFBE702DD66F6
:1021C000BD94FFE0E5422371E5B0412FA4F022D198
:1021D000D3FFC5E0FE84A309A77F5C9848F61D2BBA
:1021E000D6019B7D0430BDC0B2F725AEAF143FC50C
:1021F0006EF1FF8005822E896D18A0083D2386A60A
:10220000D0E6230ABCAD99F3E0FBFC5C4A850119DA
:102210000713600F4C80BF21C698B9209B5D8205D3
:10222000FD4B36E8711FABF97EE07EADFF038406FF
:102230000AC07C3C991008623F2C8411B105CFD8AC
:102240000990600C808C40B9FFC0FBE0813C8007A6
:1022500030FF001EC48378100FE244E446971ED07E
:10226000722380FE7D30B2329F0A08CF4F97290F2C
:10227000E4779C98E09503D3C73005C6A506F30024
:102280007A563C7512F988D6914F9CC5666BF09FC3
:102290005A723016EF3F3CB040292E81F598C27932
:1022A000E5B791980CEAC608011FD8E7FD80291B05
:1022B00042C4DE021BB3BBC04110F5481805DFB7AE
:1022C00024C810B069DD046A80B731B08009B2104B
:1022D000269309983AD34CC4E63046017AB311A349
:1022E00060EA227EB3B0FF208804802612003710F7
:1022F00008095F15A70158020440C14803F72241AD
:102300002410FF0F8AFADDEA3A9FB1547780FFFD6F
:1023100029098690260178982D001467A82511496F
:10232000C61A21699E2E21C4FB519AC1B651B8C26A
:10233000BE97151E5019FA2651EBD12561F8D466C7
:10234000E8EE82F8D40CDF8E10FD0540ECC0A0FB57
:1023500014747668F8D03A88BDE6BAECFF35C57BD0
:10236000B36E74FB3C9F876D7698FE084D46023134
:1023700034850319EE282EC3FCA2538570D088F84B
:102380008078010242C4A0DCA360A879E566E80C6D
:102390000C847D0830CF569653EF127319DD76D733
:1023A00086FE16EA511ADC1766B0B0109277C0228A
:1023B000FA5E84E4B19BCC1911E50685E3048283BF
:1023C000240C34DAFF26C08218109360205A2B7F29
:1023D0007D170E70FF31CF7F1F761ADE0205370A98
:1023E00040C8F144180360CAACE710204604C92471
:1023F0004059D377BF980611FE60410CEF88053134
:10240000F0C5720F63B923F478F3D763E2937EBB10
:1024100086128CCEFEFBDD05820DE54F3F98C2A5EE
:10242000C064B51C4BF379C6FD98FFE18041209B49
:10243000F040BCC5050C919BE861F830BA8D45664B
:10244000BBCEAE432C41DAD520E5D52BE0848E708F
:102450003FF3CEABF698ABF99CC00216C14A586662
:10246000ED040C0C02DF95032CD7B17E422424D25C
:10247000BFB3F34228B3853AF544C45C1F233CE460
:10248000051A01D3DCEB21D377B498D0FB95E98012
:1024900010D1A108AE01C96788DD575D2BCC230898
:1024A000DC220B84B9A56EEEEED3BAEF4DC453A86F
:1024B000BBBB82301FE552481302C0144D37A782C0
:1024C0007E52438EA3E7301260FB4666DA256AF738
:1024D00077968A442E71936B453EC9E9D388A0EC68
:1024E0005C9B59B30A63DC55CB0896C7AE88575D31
:1024F000085A91F23040D3CE4BFD2B406D76FA3E18
:10250000F7AEC9F7893DF84519BABBE7BBF471A22C
:10251000FDE03FCDD5E712C430F0E960FD848224B0
:10252000DEC080EB7EEE9C82FADEDC48281D08903F
:10253000DE1DFA2AF9BBE9127FBB471186BB89056C
:1025400002EB20160871270B9650C85FA579FB0394
:102550001C0F9B9EEAB381B0203FC00299DD100B97
:10256000FA7F05F76AC1081810839420FA801130A9
:10257000820277B3D8B7CE7B98D711D09AFB4AAFF7
:10258000E57D1E040360010C30831240624281A08D
:102590002BF3D198B0B5D0FAC66A9EA56BCF308028
:1025A00003304020F356797BC8801C209D66CA37D3
:1025B0003ECF194614CA1FEBE0810C259BD378A5AA
:1025C00096D3F8FE8BBB109F3020E0FF88015D940E
:1025D000DBC140F030DE51C0F39910100163BB0441
:1025E000D398360A0272398A5796E068063C66EF3D
:1025F000AFCC52F6C19983D79E30D1FCC00959FAAD
:102600007BE3E742C104F30B615E14C721107FEE48
:102610008F5EFB6D865CF84995D302EC6B13640CFE
:102620008C10FCC00416C088900B0B5E5F30709C51
:10263000C82698477A98815F95CEFC025B607996B0
:10264000214D28FB773EB0C6ABDEBB01EE6330FF09
:10265000EA7C2001A690404E18124171D7140D213A
:1026600009D702E0A342128DC4E68AA4FC5D3DC1F5
:10267000305BF9D1BE4BE89C4DC29F72DC5F11D438
:10268000F4507FAAFF8078DCBBC3CEF532839BFF7A
:1026900050F8BDD2065A4A7F9A98F9727E0B11FF04
:1026A0003BB85E2E46C0DF50E766754EAA959BE1AB
:1026B000DA37323FE025C86F99CD3098FB78AA7E93
:1026C00016C808BC508FE5E917E4CA1821F3FBECE3
:1026D0004CFB20560DEB149FCC5D3CB6F980EE050B
:1026E0003202076621A401BB81AE4316306FDC3095
:1026F00099136605529716DEF7178C08BD408F18A0
:10270000D705201230DE029ECC62A07F90ECF3242D
:10271000577BBA1990FC300A20C08810AD8473AF83
:102720008030B04904D22840C602FF6B9849FDFFB3
:102730003C8807F0401EDFC88395F5C730789817AE
:102740007898A1E640C0D10AEA2C34B38FB0E0BB40
:102750001CDD6B0EC0823DD3E8013C90DE98B4C412
:10276000F78B3C087884F9ECC5C8C26BEAE5412DCB
:1027700019164248BEB87F2F85EAFDB505178417A4
:10278000309A6BF898D7F331ACAB208E6B3023FACC
:10279000938D02ED086FE398E0409A48F342753953
:1027A0000180B0E39879409A6EBB0267CD2013F8A0
:1027B00051900A26EF526B8BE084FF765E0208058B
:1027C000DC3007FA20F808048006107A0211CCC821
:1027D000490A84FF3592025377E6720D8C84E76EC6
:1027E0008C77EFBB32FF7F63BF53BB20F50986C0F8
:1027F00026CDAC400A671022095F3838A88220FE37
:10280000681201A03684083CF882EF8373B27D9988
:10281000407F105819D2D5A0F848066FC0EEF7B126
:10282000073713659BE206CC8DDCFC988FF2FEFF28
:10283000D8FC6FF60D5DBFC8EB7448FCE05A071179
:10284000DCB23BAACE18FF80DE7569371BC4038655
:10285000448BAE5FD98A0150F0C6929E64C883193A
:102860002E233070D174602E4CE9A4E131F4110BA9
:10287000F38EB47B215EB3EE229EDE49F737FFBFB5
:10288000AC425C303CB52104241980665E985C053E
:1028900079733FAEF0FE84413009F106C00449A7C8
:1028A00093DC2884FE05310626C01890BD2C12FA50
:1028B0008C8005201144D80ADC1780ABF07FCF4B09
:1028C000CE7E0901122602EE15EA6AE74C7A9818C4
:1028D000003303834C20C61623472B3003CFC57B20
:1028E000F374000EC8BD98E8DC810C6EF78E1A9662
:1028F0003A3CF8532F0B3DB4E0E530C46D4936D374
:102900003D88D9C817E081F53C1028F8C630DC7D39
:102910007E56F59153F3AF8B985FB930967FCEC05A
:10292000800B02575D5F37A7FC6E20818BD3690F48
:10293000C6402BC69A1650F8D8633E26E20219BB51
:10294000DE112E8901B348FF98020361144C0490F4
:10295000B4B0D55335A7E44DC40FC1E021C9460832
:10296000B3CBE162412CBFD998084819CF4002C6C9
:10297000893001E7E0F920F3A1141C45A7EA782289
:102980000388408F108227FCF60924BF85FE65B2BC
:102990007DB630FE75E3DD4BFFE0987506D099D526
:1029A00022C1E90DA4056A12AF444B8B0996B964A4
:1029B00048BFFD8C4BEC97C8B404A67BECD6C4BFD3
:1029C000359F7D84DD0AFF8042E573D8D2B6F68854
:1029D000FCCFD5F038BCFABC5A897CC9BBE5C8C568
:1029E000F696B108AFB3F877B6BE73F68EDDBF5B6F
:1029F000CD983DB71177974BC6E947F32EB368F7EB
:102A0000A3FB8090181779C51E9D715E981F8804DE
:102A10009A08AB8CE58742CEB3445811EFF5778620
:102A2000DD46A582D410DC23C6AD389BEA1448E508
:102A3000FC4360CDCC6E1AF92A097FEE8044180160
:102A4000236004FA2C8205310AF6985804B8307ACB
:102A50009A8830107A8BFCA4FEA3F2427C19DBDF4B
:102A6000080580DD19C8EE33648040BF5F08F94671
:102A7000C4220021BE5D0A5F7FFFD8FA60000DA06E
:102A800007720F1ED0771B30F98B79980AF361F724
:102A9000ABB04F4CE90B9003B30D8D42E88601B308
:102AA000D5205E788C78D1D3B05F2F4AC6036BF304
:102AB00008F0AB64F6ACC4FA156BAB0802C5F33092
:102AC000212B12404E94D05ED829AE190836E04032
:102AD00061D3BBF349F90B8120F60246402853E04D
:102AE0004858D70842385D900532D7047EF444FF39
:102AF000949CFD62C02120FE26C40208110B64775D
:102B0000E88184F3300104E4036222D3AFC6B6A1A6
:102B1000E0E00C4CFF9FB39403C410094FB6E2AB46
:102B200040FF2CF169FF20BFFA88D7B5FD35625B05
:102B3000F3021EF399E5804422ED21B3EAEDEE287D
:102B40004CE051D3D02C6679FF18EE0A5562F7A2FB
:102B5000E0EF28B1EEC7D6C8FE24634793BBB35756
:102B6000BC369FF8E4EE146E20636BD3386FDBF94C
:102B70001018088366A07CBF835D5CCFB876E4EF55
:102B8000BE628E6670F820C48BE2CD2FDC66942B7B
:102B9000F8BB86FDCC0FD807E673E4E0FB6FD76681
:102BA000919AD7B1EBE0511B7D70BADD1406780124
:102BB000D1CBD866809168A46E170AF8C6FEF9CE0C
:102BC0003137C6D398FF52FB5888E46DA0B5D4D4F2
:102BD0003508D8E524AFF44E02D0C57F927FB822E5
:102BE000F51C28BFE5A2FD16A9499DF7FE2C8B50C8
:102BF000FF593B0187F0ADA7055BF360FE4FB16065
:102C000085FF40961A78D6369BE767A5DE38669230
:102C10006D6EDF66F69C80DCCDBA17DC6BD4E0030A
:102C20007DD65DD8EC4901516D0561125308F378EA
:102C3000427CCBC883A9B42E3B248DF612D1FD482B
:102C4000F39C9D67E9D81AAB1BF8B65398F9C29D5F
:102C5000DCCA590F81A67E4110DB835B9579AA2CD3
:102C60006E219FF74A88FB4092A6018157C3AEDAD6
:102C700008E8EE6FF8C1C8E6CF5E1E08BC22D23C61
:102C80009368A344F8BDDD0173D678FD4AEA256B4D
:102C9000E90648C982ED6420F046805FB75F5100C5
:102CA000B3FDFFD215D69001A86E989993AA09F6A4
:102CB0003672DD0BD1B348C0FE20DE388008BDC2BD
:102CC0007720910EB61E209D05CA20049DDFFE4A86
:102CD000105492FDC130180609606AA40362CF86C1
:102CE000DD18FB2D0D4FE803FB0A9EF5B380B7DE20
:102CF000C3706A1D67A719207B8210E00408023F99
:102D0000B637A05BE3D0FEB640F6B2010251A9840B
:102D10007DD4BF8B12F312FF334220101C88AAF41B
:102D20008204A3AA8B56BD45FAD16E41408E184845
:102D3000FF6EC4B30298E9E0FE0C2A5BFF20F9A500
:102D40009BE7CEB6EB78FB308166F52FE000D9DD4E
:102D5000F965A0DBF831334D7FD76C11ECE810F347
:102D6000753CCBFFED3A48F896E708EDE02003A765
:102D7000569F589E9F4D68A460E5C1E66F4100FFD5
:102D800032BCF92FC275FF028C7EF42863AEFE338D
:102D90008B3C940011CB4BFD0110FBE71BFF0C702B
:102DA000FA026C9D67AC880465C880676E90809B52
:102DB000D140FA13333BCC05CCA3AAC863BBD1EDF9
:102DC00001DEC6DEE1F898B504FB023CB8D7459EAB
:102DD000C3921FD14002B1A1EC99DD8850FFE9EC0C
:102DE00003FA635F9167FEC980C4FFF170B2F9C551
:102DF000A46B8E2E174037A0FD9A019A87DE70FDD6
:102E0000F778B0572DD201B2C5C7FCDC336FB77865
:102E10006C5844FC5F572801183F56FFAED8B017D6
:102E20009BCCF07FB63EC8BD17616718C4ABE8B84D
:102E3000FF6A7211189BF0D3B1FFCEE8EFF8FCB92E
:102E4000B4C2CDEDD9A08AF19B0D8BEA08A820D998
:102E5000FE028D84A8F998B9B2017F63825AD367C4
:102E6000AFB318F5B540E2D5FEF3F37FED55B0FFF3
:102E7000FC66C3BFD3C309FC0CF0ADFC3190BE5A55
:102E8000F5809850428BCD40FDA11018D7B797928E
:102E90005F2D98420241B6DB4671E5F366FBE568BB
:102EA000FE67F62A08B6B6B207F3D05EB6F6D84883
:102EB00088EAD85BDCE0B2DED7BBA654F919F3761A
:102EC000CCDE7C24CAF54B08C5C4F510948D9679E8
:102ED000BC8D6D38AA4D0244DC0DE6D8AA53825D44
:102EE000FC38EB4B909646508B1B054194A64BAC9F
:102EF00021100E79DB8DFF724B85AF78A87E0DC057
:102F0000FB29C1B6E50683DB125A5D44F2F8A3340F
:102F100056CCB0D4352073E00872EB887B2D20832B
:102F200005FFBCC0BD50384CF8400420B0FA104436
:102F3000E954D918E5030160C308A0E2395009A992
:102F4000B9056210B306931C609B8A77E73A43ABDE
:102F5000048040A4C82A1F2A014808881A09F319C6
:102F6000D780201B76FE8408C5F7E0415FF57F928D
:102F7000D51E80CEEE5F98FD02381303FD5EDB02A6
:102F8000E476D90F5D79621AEC04A0DF97423F33F3
:102F90007808C6207E727078FEEF031BFA4536066D
:102FA00008BACCED042096F24D6B24FD849C966FFC
:102FB000A0459999CF65E78DA0FE631B97B17493E7
:102FC000A26E33783A0CC57796046418CDBADF80C8
:102FD000DC86DF36C80A86E6FC176E9071268BAE5B
:102FE0009A82F3826FB7B4EA41CB7B75BA408DFD0C
:102FF00073BACB01CEDABA3DEBEFE8B0FDBF77EEA6
:1030000001799C99DDE30820ED4C18FBDB11AF1230
:1030100033350934CF0C626B1908CCB98CF6566085
:103020001004FD91CBD0F8EB24BBC22D592D0AAB77
:10303000D10575F060897D32AAA082C589B1DF0112
:10304000627AEDB1FCD274332FB76144677D80BEE4
:103050006CC8FA63D6B0017986E1BE96DA03710CCA
:103060009C7BDEA8FE9EDB10422C470468595FED76
:103070009606FF8E7F3BC782402356D3C0FAF33DAE
:103080003038C7364BCFF086ED9BEB98FFFDFCC088
:103090007E5E560F638AC680528BF0F883D9560243
:1030A0004BC60156D3E0FED1DC84D99010ED1980D7
:1030B0000988FA99306DC6D0D08C302446FBDAC628
:1030C00088B4D3D8FDED9D02660818AFECCCB0CD26
:1030D000333ACB2C55D9C0EBC6034291F33D5D0387
:1030E0006F485F7F4A193C6D46201E566D3CFF8934
:1030F0002C4A43D2B360E001D3239B3567D38007CA
:10310000FB1EC8BC03D3FF239853B2C8D519306443
:10311000AC194147F47E31666E90BF305B8E04037C
:1031200097D301F5B112C04619031033B3CB666EC5
:103130000A5AD3049719E6DF060D980522DAEAAC9D
:1031400045DBFFFE76E005C4FA61CDD5592865CA96
:1031500091E698ADC54012ABF678FF611FADA10CAA
:1031600056F80629C66BAD3D60FCA7D1946E8D6DF7
:10317000571BEAF90DFFF6B2838D04B988E8BDFB51
:10318000D8D02C53FE317A75AA109BDDD04053ABBA
:10319000F7F2F971FA7A9858DBF67F0139BB4A02E7
:1031A00023ED7FBABB050AAA7EF8FFAF7F5AC51E82
:1031B000AC363C6FB75C60ACD320BFBF7FCD9814FA
:1031C0006DFBAA65766430C774FFC4965203BFDCFA
:1031D000DAD9FD2CAC8470B3DBFB03098896FA4284
:1031E0005819DBFF237E76FCE4FB06B1243F599897
:1031F00004FC307F8A983901B18C9724E0A5975060
:10320000C32BBC11B661FB7F98C1C69BEBAC1A18EF
:10321000AF5E8408E2D2808120FCF0DC25B089FA20
:103220009810CEF3984FDCF61C19970EBFE6D01419
:10323000F50CC03B9868FF04F72884624526D684C5
:10324000725D88F59E1ACF5C0D80090473569A0250
:10325000A512D9A037F578F830C220C0A058353172
:10326000C03F5A0622A3F811BBD29824B58B73D75E
:10327000DF302BCB908D8F577AFAF3E1F120B51E1A
:1032800059D13C4B183C14F0981A065077F903E4D6
:1032900001B5E01EC0E3E5E6805CF9BDF8C340621D
:1032A0009E98B330B33A052CCDAE3D10E018B31064
:1032B000332E10B1C12E2D30D93C40FD6464FB98F3
:1032C00080057FE15F585BA375A71FB39DC7820888
:1032D0008866C809CFFE2A8845BED9B8EAFCB57C05
:1032E0007AD38250126839D300FC6339DC1D9FED1C
:1032F000428201DB96676FC7016168F6DAA8F918A8
:103300007B9676C860817FFB2AC4013845F083E74D
:103310009EFB981880DE02622136B3FDA6A2379686
:10332000C8EEB3A80134FFB9E3FB4C47D3EB174811
:103330000BB4606DD312FE3E7F6CE0044336C8458B
:1033400021DEB104812090A5805DEB980265D30A4F
:10335000CAAB405FC4FBEB98F012F598E0B7D19D83
:10336000DEBFA8980C855DD3FB7F0F5CFD9B1ED054
:10337000031840EBD358DB6606C114CBC871BB857C
:103380006E5E6FCB030C61D359B401CD9B29FFCC8A
:10339000B1463DAEE30AAAC4B5EDC02E7D51192C4D
:1033A000A60E7EC60123D73B9BC8F89CF722118846
:1033B000164F2D300256B39146DAE3BAED2908B123
:1033C0001CBEB340208CC45A32F03064CED7808506
:1033D000EC75F94776FB40D92E6EA8B50C4B190653
:1033E00046DB7308027F95B6AD9BC810DBD320FE89
:1033F000FB8DC06EB02DE4D41640D16612A1EF381B
:10340000E5191CFE009744FDF3308002BF1886309A
:10341000DAFCEE723014818495CFF5E5209FB3403D
:103420005708BB34976F1A77064C206889F65A48BC
:103430000B019C30DA2AFD723022DFF37F089B42B9
:103440006DD6D7FF7FB4502F94E80C8220668E276C
:10345000ECA485BFF89D300A6424ED90D8FBA70248
:1034600030DB1E04F23DF0DBCCABDD3727F0981AE1
:1034700006D061E60FE0AF3F6B9630789C30B438F1
:10348000E4304136516693E6E2ABB1C011CDC00CD9
:10349000750AFD6413036068EBDE71FF30B2C0B8DB
:1034A00030DDC62066E9B62EA38835A643B3A07FDB
:1034B000FD9F58202364A3E2B8F97E4EC8B10203F1
:1034C000C43B178567E6C7205BEEE7C82C84B221B2
:1034D0007C98E65C8CFEC67930016226EC4E51C8C1
:1034E000E0BF9E98E4DFC8FAF6FE27CA3040E5E167
:1034F00002AAF501DDB3107785987640C8DB010894
:10350000F998EBFF81F56216B1112E21302C996CE0
:10351000BC6C94A730EE881A404EB30DA001FEF6A5
:10352000001A4453DD8BBDFFC9C02DA3B3C80A6484
:10353000EF6F30066697B3E5A4096666C00BE794A3
:103540008430427FBB98026422B4A2200CFCB2C833
:10355000BDAB3D67F898BFE0C498198B9A6446F3F9
:10356000FE98AFE05A38F07D7F89F13019F31B9D4A
:103570006CF8BC31F95BB69FD3E6989F52DE83FCB2
:1035800043627C302537F39E195FF977AD98934EEF
:10359000F176B30203628DB3B8F813F801101A6B19
:1035A000F68057A49891F366668EFBCD300422E333
:1035B00030BF578CA424FB16F2E75A408BE1B6B615
:1035C0009615FD9A062CA0A37D3F8D30D65E418BCB
:1035D0002608F649FE231FA8F9ED81765F2EEB82BF
:1035E0002155B36095E598CB5D103B6B4E22C8AF7B
:1035F0003998160E4186AF07F54B1AE3D34FFABB45
:1036000004B4B110B367FA98A06C2C02D7B3A6012A
:10361000344D44141ADBD3A30D26DB660510CBD33F
:103620008BCA98303006FBC124C87B06CA6CC01018
:1036300081CEBF185B591216BD98135F61C0084850
:10364000A002AABD048060DE915E33AFFC19A553D1
:10365000F09D6B9DD53D0899E6AB7F0D30D3127A76
:103660009883BCE271D30C906F02F5982012E6C2E9
:10367000FEB60C8DE3FE8CCDF398115AFF06F99837
:103680007D8C9BCD3030FE0DFC30C48A98B3964BB8
:10369000C98665B305DD575D2ADA2262ED23F97B21
:1036A000E0261082DA05252004A6A6AC73425397C3
:1036B00030B072C8028BD8923005FBBC8BB9306039
:1036C000699BC8A0CDB33A301B23D65F086F2D305D
:1036D0000CBC91B2C8DCEC5B19723061D337C87096
:1036E000F2CA07B2C88D43F90D067F17001950CBF7
:1036F0001D10B3C8C230FDC89FC230562BF93078B8
:1037000069ED98D8FEFE9819BE76C884084F9B983C
:103710009B1A38718809341046372498F9987A78BA
:1037200080FE68300B61D3E2B3CA7BFFDCC128980E
:103730000623D3FC8C092602C06903D36021BDB1E6
:10374000406A9CDA1801A048504A12D3F55823DE8B
:1037500098CF8480A6C04010DD2002BADB9034E10F
:10376000E430F00E1EC403F5C708DDDE5C23B47838
:10377000F59807E2BCD6D75A91E801F49810BFE05B
:10378000C998E088DD07F2EB9818FC986FB8FB4BFE
:103790002940847E3F5DE5CFE3E5F3B7C0ADFFD8B8
:1037A000565E8CBFAFB204C5D3F3A9FFA6D6E35BC8
:1037B000C82CB30AA3B36F5AE408B3B38451FC1600
:1037C00081C2586CD39F84D3141810136DF809FF6D
:1037D0000C68FFCBE3301F6BFFBCFF4F7CF57840DC
:1037E000DECF6699F3FF32B2288EE03295C2C64032
:1037F000FC61B9FFE6B153F0D9FE63666671C18E14
:1038000036D3BAFD2A8ABC40C4C4FEB9C5DB569A79
:10381000FF73CF8DA097BF40183BDA1D08CCFBB2D9
:10382000DB0ED8F820448DECC544FF8A10B1E006C9
:1038300086D3C7241AF3AC8423EF8432C39FEDCC24
:10384000D8FB4C526FCD97750C8063070AA5E438FE
:10385000198F9BFFE9AA8F36D750FB71378E1AD08C
:103860001805AFECADD8F566108C98B5EFF61C983E
:10387000FE37E6F83DF1AFDFF0FDDAA5C2D01985DD
:1038800087FFAC1A0253F6EEF85F1BCA6D0B8EFD74
:10389000C88B364910FD67D7EE98C5DAB7409169F5
:1038A00020CAFC0A270340B68DDAE6E0FCE3A9FE55
:1038B00029EDC61E024BB3C01BFFD3018014C030DC
:1038C00094BF53B4F3285B096AD9E0FDA4D7A0F9EB
:1038D00006622530C96C314060F7B4286952319EC8
:1038E000A0750240E409FEAC529B7A59065FF63D92
:1038F000B0FE0831F6EFE60E12FB7410FF621E11E7
:10390000634D194010AEADED0A7D42109240F70FA5
:10391000D7B6B1FE3DE75F98C2D7030BDB88022C18
:10392000F1F928DB5D1FF52A881819D9D98DEA62CB
:1039300080CDF962B36090FFB0988DB34064FD39DB
:103940008CAD55D84BB3CCC937376F589418CF6C62
:1039500017C0CFDAC9081B8CF512FE55BC02B3D9CB
:10396000AFFDB00C8186806C7E63BA0AD858FB2507
:10397000FD7F81AAB3BB20ED67FFC538B0F94D5973
:1039800066203E798001FCB059B1BB01B00463ED03
:10399000B108B1F88CEEE710C539B618B1FCD39276
:1039A0007F30008736AA803219B140C59902B1F83C
:1039B000BBD8D8F9610E5888AF19D7EDE9DCFD8E78
:1039C000AC1C20F53302B7435272F3105B3FB6389C
:1039D00048FA37D61F162CFF1820F3E53C62F36E29
:1039E00012FD7B30696287DDAF15B13765C88F691D
:1039F00084187BF2DCA0034666FF0258A6A6A82521
:103A0000088CC6B506081D92E07BF5B0FE0988FE5D
:103A10008A048F70DD5C04897ECB4094E28294112D
:103A200016AF5B2EB9E78070FAD7B3A894B314B67B
:103A300083031AE220050CB122B378FAD00A0240BF
:103A4000D32CB4203AF380505CED4A9E2BB7EF7F25
:103A5000CC1D220A602697BCA20468DF02F5F35F42
:103A60003FDD532159847F97045335B408CCD330BC
:103A70005A0E80885870C6524869950618B1F96E7A
:103A8000B1C6FEB9769220A3019476BEC8F8CA5F8B
:103A90002008F6CF41CF9E66BB804114CC20DC01CC
:103AA00014F670D712F4975010B0DB48FF1A98DA6A
:103AB0005BB7F09BFB1A9DB68D24FC3DD61D695A61
:103AC000E6C6E886880CAF6DC0D8FF56CD02202729
:103AD0004232CA1B55C7107D478B7DB9B3C3C8FBA3
:103AE0006DD65B41B69DB68513AD04287CE5CFDD70
:103AF000EB209E14B1206E5BAB0636EFF0F920711F
:103B00006798B9FA5840D17E78B1F9FFB749D9F230
:103B1000F562A65CE7E8ED969FF6A412AC5890C556
:103B20002A68DEE561EE9B5FB698C0FE17EDF49E55
:103B300094ED0802017829D9B3015D47625B0979E8
:103B4000EA9EE7B308CF0C5866FBE676DB0810ABBD
:103B50003708212C1062640A8BB390C519A9FFAFF6
:103B60005D30B104279D3601C0DD1018DBE30C4247
:103B70004C5BA6037FA7B0FF617691BE9A9072B2AC
:103B800020DB6528FD3FD62801BDA176D9DEE54AB8
:103B9000F291E0160480EEAE6F377BEEFF0340E556
:103BA00062F88D7A5104C47F33824766A8B8011445
:103BB000CCFE1968FBCF5ABB1635F9122CF6FB7AEE
:103BC000498971BA86407F18092360014CE7804516
:103BD00030B2C008B998AD4CE6820901AFFFCF6D95
:103BE000D0070213190F833C677BA9E0019F3CE0DB
:103BF00030201EC0F9037A400FE8F35D23021E84D3
:103C0000E8D3A3E6CC37AD64F9FB60D6100C58AA14
:103C100087E4AF30E0308E960360050CC2F366FE99
:103C20003843F39615FE2CB3B70236B3F6959802D7
:103C30009EB3201106C0031331B39E6DCA2024BC6D
:103C40009888F9CA9FC92382FE183076686588B4BF
:103C500048A8E0FB01126F5DD120FD2734FA841DD6
:103C60007BCA88818772F947D4424AC6B95380B16A
:103C7000406F5BE570657637B3110121B3EF748A4D
:103C8000D046ED46599E98A360F36D3FDFDB98293F
:103C9000FC16F3177F07988883670A70D52E330CBC
:103CA00025E6B8D014EF3298BD7868BD013642627F
:103CB000C86650138CD030BD2266D1D3010BF93FBA
:103CC000B0FFE8708589300106C269EF988C8145A4
:103CD000306BF264F3BC986CF9DA5B903048260FD5
:103CE000FB3CD15B407BCCFE03D72807AD9890FC12
:103CF000988DF3B5251043F36280B1FB73666F4076
:103D0000E514DE4001ACDA80A8789826579198FF38
:103D1000BFB6E54BFC2FF63221EB4B2455B3029E88
:103D2000B3BD10B308775AB1F9D29AC66DBA23144D
:103D3000FBCA9CF85D44249DB90F8626FCCE30E575
:103D40004DDAFA980352BAB1909612F835C646FE8B
:103D50009640AF208E77E4110A7C3C562DBD65B8A5
:103D6000FF18109FDBCCF9981F64FF2B9D13A6EC66
:103D70005EED366A219E980E42DF973010F030CB10
:103D8000B3FA3E13D5E328BF88B8ABD7222066D953
:103D900074F6462AEDB540DDE820BF1730DF64EC4D
:103DA00098C8FCAFEF31D22FD7322CED7F121766B7
:103DB0008A3FFA0BA8A61080059E309CC1401826A9
:103DC0002361B7D931B930B2984FFC228C81095B9D
:103DD00049AFFB31B25F2E98363039863051FA192F
:103DE0006601E481F798F0001EF6C8037810DE98AB
:103DF0009B1E74184E6B30B0F9CC186FCD98C6FF6F
:103E00001126D3CBE58F8AF5E588FEE5771F7DE5A2
:103E1000D8AA15F831CDEF4B9840B7DDF8154081A1
:103E200037C014C28DB34480B8B3BCD2B303F462BC
:103E3000C4FD984137BE843E2104444054119FF88C
:103E40004555959D289F48F140D0025A139008AFE0
:103E500012D05E029BDF5210C03092ADF8C63C9982
:103E6000DB9E2B44C05403EF0993D5A240BF2FA281
:103E7000AF39B330780A9BE5D8FE16EB647D7DFC44
:103E800002445254093FF83C10DD3488015C8599A6
:103E9000407904196FCB3004232CC85919280348E2
:103EA000042E87772112444CBFB3D983D70304294A
:103EB0001A80FE76140A4122FE7871B9ED5C72FA1E
:103EC0008B1C6648B6803966220EE930DD105342FD
:103ED0005D1771BA7230318F46F398B8232A58E4CF
:103EE000F9DF283010CABF8D1473EE49018DC5E08B
:103EF000AC81C5C8F15C30DD7920EB9808FC98FEF8
:103F0000523041CCFDC60D66FB6340028490FA0737
:103F10002B45ADB87D98805C8A6DE6E5FC7D158B00
:103F20002FB320EAB1D3119BB3028CFD97610F86AA
:103F30000576717B2010F00B60194BB304D6B39853
:103F40002DFD3240247ECFB4D5F40373FA92F7CE20
:103F5000E1DD7D84882F1128422E06E1C6A4D20817
:103F60002092097A3F218024FE7EF0FEC58F660AEA
:103F70001CE26EDB49B74799E5A4E144FAAF108033
:103F8000EBB3E37C995D5CF6322FC630BCB1BF4425
:103F90007FAE53ACF3C44901DFCCDA2018E6C83059
:103FA00085BDF0DF9FB90319D8A3FD5817E0301481
:103FB0000AAE14DCFA01F3F383BCD55C75A0FD10E6
:103FC0002482025048F9C83066911A7E58106BF36B
:103FD00085ABA76CE3634562DAEDFC0401CF5D912C
:103FE000E5D1E4D1880151CFB70360420CCE8021E6
:103FF0005F46014523380D122C29366862DA62814A
:10400000580FAE023C30B3BABEEEFDCEA5D11FE0D4
:10401000417330F220F31ED08378E0E2765FBBE993
:104020009838F3A0E8999BFB081BCBC8C8E22E92F6
:10403000340664B830E269EB17F41597F306FAE535
:104040004082D323D115F398CBE0F6DF0256AD774B
:104050002577E3046F91C89A03B39811F3052619E5
:10406000F9C5F87FBCB8EF3F0654BD013BE366DD00
:10407000E53B466BA588BBF668C301819790F8F2D3
:104080005760ECAFC8ECA9C4FF6B3BC8018055B3C7
:1040900041395E33A8A5206FA34CC20867733080F6
:1040A000E062CBB318F43089C7FD542966EE27EEE1
:1040B000EAE52222ED16F248DA29E230FAC9360999
:1040C000E730D1FD0862A5B2F698DC50BD40B36F71
:1040D000F72EB5222037B8D0146C983D4824A95C3F
:1040E000BF2C3062596660F4108C80517C47B3134A
:1040F000661935DAFFAF428011300246C0AC22A704
:10410000C8C088013122F32E443013EB120C827B9D
:10411000B8D2FB1534B3F6B80804D066E731478D42
:10412000A5AF047E98880731001EC4BC98B8308BB8
:10413000F3DD98D0031A29F34160F862BDFE69C22D
:10414000502CDFC9E55BE569E0E51A691592F305D6
:10415000A66CC8EB5B85CAC4C7B3FD43AE7BCA037C
:10416000202555C0243DC040212C8490A6BD11B30C
:104170001067B7190640A1C468C12D9190B7D1EF5F
:10418000FBE14E199B6499D3C198AFBF169B76345F
:104190000182E7B6CDC8408BFD7FA7A8B005B392DA
:1041A000D280FDB78625B2407C98FF0ADACBE32F98
:1041B0003CB38D5056B304B9E8B506E7296384AC27
:1041C000DAA440F565AF0330BB88CD98F2C826FB72
:1041D00004C59A6680223D7CB32A7BEE2B99DB7561
:1041E0001B1EB8AB4BEC822FDB98A8F935B330DA45
:1041F000224627B324D62130B2025F6604C840E0CD
:1042000080C009B0804617180113E960048C3C4156
:10421000BF862EC8F298FDEF909DD5179BE8024F00
:104220003698CDE806AFFC325F0D411FFAED3D88B0
:1042300007F0F798037910E80FE241D3BC986F714B
:1042400018F29833B37AB1BE12D74DAEB435D84513
:10425000BCB2D7807D37E37DFCE58D393E95BA173A
:10426000C55CB3024881B5D335F5E5EA119CB3D9F5
:10427000A0101C3076D196B3B1C11B871D7AA51B47
:10428000F4966A79B5FD17E0C03E506DA0053D98E3
:1042900042B70BFA763B3C9A03A40931F75D35FC33
:1042A000D3C84068CF78B34FE211883640A208B631
:1042B000DBCDDAF665897FB30C6EBFB20396B2022E
:1042C000BE9837B324BEB3CC3B507D80D8BE1A36DF
:1042D0006AE3309A86038058B3B8BA6611DBD0140B
:1042E0000A3B4A1011B37522F6A502085081222E0E
:1042F000A037492C69BBF3D9C0CAF8FCB7B059BF85
:104300004C3AAFFA222C804530D3AFCE6679A6471F
:1043100052FC50B3DD3020AFAF21A06008E64C80E6
:1043200005C626B83081AD434C9D50FAD0FB79A527
:10433000BFB6E20F0846DF49C0302D073FCC90AD35
:10434000037DD127A505E8017BA5F440EE1EC0033F
:10435000E51041A71230D310BC6BD396CA30475931
:1043600067BD5A9730838DF58C0208825E168837B8
:10437000EB9829173FB36FE3D3AFB89CF41123DA5E
:10438000F489B6B3126151B300D35B26B5E0CB7BA1
:1043900017DBDDD79E223EB3C201629904C6DBD390
:1043A000B8F92F8CF7E3F3C751F1221077BD6440C1
:1043B0002311288DB6D398FA369479B379EBCFF8D8
:1043C00024852AB1638ED630F924C7C5661AEFB3A7
:1043D000A42B571B638C39A2FF46133D662C50A6B5
:1043E000518E35D678FAB6DDE7A0EDD0E6F35AB3B4
:1043F00002FE71C9CA0565988F593D3F54D6F0FA3F
:104400009BA61EF1B1656AD020CAF4D0028017C401
:104410004C249DEC3A09FF6FECF9E3781C60D398CB
:10442000FF30B1FF806329E410B36090FFB098754E
:1044300033B3CC18FFECAC78F9362F79B38C9BEE04
:10444000A8FC1D5BCD4219C546EB7AB940D0B3C577
:10445000FB644063ABEA4012FDCC808B7D188A2B55
:10446000B3088F723D57620871FCCDD6040230F05C
:10447000C8FED99DDCB66058F76A9BB3AB05B9A5F9
:10448000F9434BD70446101432E5B319DDFDD8F8D3
:10449000FF87B61990017FD9D93D8FFC88CA9558FE
:1044A0001B020707E02FFDC8407B400CF5C358D81E
:1044B000F90A5BF33B2F012CAD53BBF060FB18FBFB
:1044C0009B16E7634120087AB288D8421E2010F676
:1044D000D464F8C796761014F6FEFEC757DF209B0B
:1044E00057F11418F9C2D458C10FB6648013F2CA38
:1044F00010D91604B108D5D6408E69629E2C6DBEC7
:10450000A2020340FFBC81F3DFCB41AC64838F4F39
:10451000362351C940B49EA34BB4025D23DAE0CDEB
:10452000B1D6C64831952EB66B29FDE2220295B66A
:104530003E4BE668FAB1025FB1D64F3796D1BEFA6C
:104540006E316FFDEEF8FE8D79A185BFB0D8B8FE53
:10455000F9CBBA3601C736D4BD4BFD60CBABFC02FC
:1045600027F617041136B33CFB12AC8A2067ECB176
:104570007FF6CC2015667520C28CD87B08E915BF64
:10458000F66350FA1266DA40C22FECF518FB706C35
:10459000C2B2FF3019FF8D84FD73B0B0FF888EDB8F
:1045A0008CEA53D6330CCBEF5018DD490AB7C58AD5
:1045B0006A7DB1020F37795DE8049DDD38FD843DE9
:1045C000B3639DB961276D6420F43DD5F33063ADCD
:1045D000A0A8FA846B8880093F19FE635F89B348FD
:1045E000CB797452085A7ED9E7FE82CBD0F9CF0A34
:1045F0004EFF37B559BC02CD3B50FCE63A27DA3ABC
:104600008231C50050ED55B920B6909F2DB410D21F
:104610009B5E37FF99A3043F2FB97F60409788A81E
:1046200059DA7F76A5106C0C02F370B330A78D7346
:1046300080024A8C52748C010280D8B7FB65D40288
:10464000F0B617F3B4C498104C5A63B10904194179
:1046500089CC05C21030436FE025EE01068463C7A4
:1046600048506E0541F5E5FC941E7F9E8108635D10
:10467000C0B1016FE80A30F9BBD4D9F55E08076311
:10468000681462BA1679420ACAF3FEAC0201EFDA84
:104690002620027880FCD074C24DBF6028D3278DBD
:1046A000B9FEB45BF33665D4FB19F2D21058B3925D
:1046B000EAFECFF531088256AC6204351DB517D835
:1046C000FE848B774018D2B235EF6CDE50FB29D2D6
:1046D0001C33C956454066ACFCF92C693440203186
:1046E000106FF6A1638FC0FA62FB2AA320F30B338D
:1046F000AD74B1FBDDD9A9023B4963CB49300A4C0B
:10470000197FF60F983BF67F6718CAEBACC8FC63BD
:104710002B80801BCC5F09B20489A1D3D887FF21ED
:10472000B504EF9E600C21B420D64312106BF32425
:104730008233311FBD94BE61A112D7DE1D7125C029
:10474000C6DC428334E8ECFA80019D5A7B08017391
:1047500072F30C8C2863C311A3A962DF3FB45A44DF
:1047600058FB35CA5BDF71FE4A166EFB78DD852C7F
:104770008ABFB506C082602003160145C642F3D643
:10478000F4763CB2623B64139A684B84576C26A95A
:104790003509E38C3601B025DE9416C80467C223C0
:1047A0008D0180BD91841ADA2102B31978FD193187
:1047B0007E838E09CB68044D3B99F3814CE6A06261
:1047C0007C97FA01225804820D9305DC3012867E14
:1047D000F8D48011811F88FEE0013C6846CE831822
:1047E00046E44067EA07F31E084FDD0FE2813C62B2
:1047F00023B4E0F039E0C003DEF30FE48138F301C5
:1048000071F32966E00C10EFF88081ED9D18EB063E
:1048100004BEFC2225F3FF0C7DAC89FFCFC2207AB9
:10482000D30C654630F31FC6B299F3BB64FB0A058F
:10483000D3BA0E0883D207DB29D7E00403070B3174
:104840000A64FA5404D40C533CC0A3604DB309313C
:10485000CAD398FBBD46B378FE1521A7FF210813E4
:1048600064220C822DF3B4E276912180FE1D7A5DE4
:10487000C407CDB81149F890E9AF61D69E0DAF8855
:1048800080CD540333B72084F274B7FEF6980360EA
:10489000E346FC40CFDDBC0CCFE967C0FF0645F422
:1048A00097810AF2EC59E7105C77F68018FD40CD4D
:1048B000F50370A8B92B20C2E016CAAB1E11DFB3F6
:1048C000077748EF8672F1B0E6236010F5B006BEB8
:1048D00057CBFB7F41FB245E720A500368EFEEFB6F
:1048E000C12240049890EE2C4B22444A692B0A9F27
:1048F0004677B3EF051077D798C0DB1178E509024A
:10490000B34C7A1090169F44C33AF8B28438E42B23
:1049100080F36D0108772B482F6C5EE651B3FC8E57
:104920004768CF0508AECDCD6B18F864CE44310290
:10493000468D3C01EBC330ED52FE607F5CC4021A31
:10494000BADEF011B71E7F860BE80E3CCADF164AAE
:1049500084E08C0DE355BC984CB756620E38A00726
:10496000EFBF22B9B1813CB18AFFCDCACCE3865FEB
:1049700000986C190895B3081F44F75F79E575BE78
:104980001788A89804E7E2B305D3E3B5FCE50588EA
:10499000FDAC73F31241EE8858046DB390857ECC64
:1049A000FE3D9CFC06B989B3289918D860C1A58240
:1049B0002646CD9B0A0227B349F310F90A09D3FF13
:1049C000330413600C4DFF82093106C6D000985F96
:1049D000305F72DA09069E194EC10E23BD6686D07D
:1049E0002B958907A24849E512FCB841D39C2E11AA
:1049F00048FFB4463B81E0FC3FB6DEC0C419E76423
:104A0000A6665CB377F6EEC0408CD79D8637D9F4A6
:104A1000A8DAFF40FD7F7C87C0A342863897B01C90
:104A20009BA3E6DE58F7F84D770A1A48FF4898200E
:104A3000D31C60400FB416E3307E76B148FC20C52D
:104A400081EA9820E36AF85DEFF6628C8441BFCC7E
:104A5000BF60D8E5416FDBFF25C4D658571B46EF32
:104A6000B413046FABAF844ED61703CD0D97847685
:104A700065C2FF83FD8CE3801102B50266E7B3E7F0
:104A80000AFF2FEAFF3219030B5C30FF813130201F
:104A900016C12258C71060DD114CDDFC90FDAF97A8
:104AA000988DC5700FFD6193F039CC7830F3E2F644
:104AB0003C204FC07FA307E0976D70723D097BF3E8
:104AC000E00138B9231C28F3D3BAA45A79ED49BFC1
:104AD0001F3DC4E2FF7FDAEFF13091DD078581C62B
:104AE000665F283040F3D7BA0FF8FAFB1277B32885
:104AF00008204DC5C048C8B32010C4363011DB565D
:104B00007FCEE4E3A011F2A41DC0934C82E9B30868
:104B10002FAE231ADEDE80F7982009307FBC964442
:104B2000126022FC9311040026125D5808FC306DBF
:104B3000E398DA057671B3ABE097DDA7DA171B3B94
:104B4000074BD598030402F561AC7581225F040917
:104B50008CFC8E80D533019A6146823C39460B4DE0
:104B6000B2C39EFF427760BB8FF9EBB16C94D12149
:104B70006F46198DD068FB755EA6ED7302393090D3
:104B80009B01311C4EDA7441FA9830F7F82977A965
:104B9000D1FBC893FFE85C30DD0B62FA9C31ECEE90
:104BA00002DDE10BCE23D1FE805A19E6C86CBABEF5
:104BB000B83DB7031A7F34308405F368A973095DE3
:104BC00077E5A6FF24C9E571EAA50125A8A710D9B4
:104BD00022E069144DA60DD2F91405BFF2D0980A4F
:104BE0002E24E63009261D441DEEBB2A09CDF8B55A
:104BF0005B59E56729CF86EFA34010A060032884A6
:104C0000FA31300204C8EF0B036410E00C8149FE56
:104C10000262FBE0410C8E48F4C519AC03E51B8031
:104C2000071179987330E080DB3C90F5627F5E8DF0
:104C3000A0EE0D60806EA44002CDC8077A98902D3A
:104C4000F07CDF05E5989EC810C8FAEFB799C9C88F
:104C5000DD5F12B4826BBF0C08EB05ED9B766CFF39
:104C6000DED389249A80D3832FD42F9894720A7C20
:104C70002E667B0EA3FE804155B393FC30E1B00855
:104C800016347CB28C80283005769D73BC42B537D3
:104C900001A80578A5AED3D7B1848C98EDC4FCA546
:104CA000021161018C304D3AB066C804FFFF074025
:104CB00012600C498089D730119A9866C8A03504D3
:104CC0001E11B3BB20DEF903A02301B6936B73441E
:104CD000F90A2810F43D45C1C0D0C1C60FB3204425
:104CE000B40BD8FC2D53BD1A61368D849DDE68EE61
:104CF000A388E6C6E3F054027B2913A0BB0AFC9804
:104D0000D0E1F38D8477AC721944F70368FA6AC670
:104D100038DD02781B0A44B8305B44E4A807AFF7DB
:104D20007079F44913A233D37810AE194A520B2686
:104D3000C9C8F83AC68270E6FD4130744BFF241DA5
:104D400077CCAB87641B4DF830D730C8205167E370
:104D50000FAE124F665F038583A629F286104CDEE4
:104D6000D3047B81988D14D4675E0B68030DA0CDAE
:104D70000930B9F979A5A3CE0A01C00448772030DB
:104D8000026F01053642DD63B0EE134B43824AE009
:104D9000B74A9E0866416F48D704B20FEA33050A46
:104DA00064811282F51130206895C8E798EA0218EC
:104DB000060F62EE2EA73F507E4960801C88D7AF59
:104DC00049FF5D0F800426ED9F07FF609839002F93
:104DD000436BA0B9F4C67835D3E0DC6A58FEDA59E3
:104DE000317EDE83DB86305518FFAFA88F6B0468F9
:104DF000B3715DC0F51DC2F7F28F96D54030DC234C
:104E00005F19769715F2CCE8FAEBF73390040B4B69
:104E1000B302B8303E1458FF1D4B093102A7AEE56E
:104E2000225AFA82F23006EF66988B208C02043503
:104E3000C2F3C2AE88493014B319DD416097C8A0EF
:104E4000CD41E66022A250368606FCAFC88642837A
:104E5000733552B302BB62B87DE693C84468F2432F
:104E60004015107723142406518E7BF76B4224FBE8
:104E700059C82FDE513A60469399C804EE6DB74980
:104E8000FFCA5037DA20FFF1301E19E86D96CDAD1C
:104E9000F8C0FFFAD27EAB0279EB824DDCB2C88556
:104EA0000986EBE450DFD52733AAFFC05FCC4EE084
:104EB0001880032BF48277F2B12017DF93D28E7023
:104EC000FD96287DBC303EE348040535E3F5F93016
:104ED0004C3B650121D7E668B2FA0F7366320C26A7
:104EE00095FC44CBCA0CFD73D031B910E769BDA065
:104EF0000539B87BFF03DF3041C93080F2739A1265
:104F00004695C0E5C549FFF7883006017966FE8FF2
:104F1000F055276ABF17B07F46C297BF9862028CD0
:104F2000883130F41104C84425F960102C8011C177
:104F3000D791F99FD297C8FB98E881381607F10FEF
:104F4000D0B70839D7EFE4D7F1050220BF0BD198CD
:104F5000F03002C0777810E5C8DC3081C4790DC329
:104F6000C6ECFC3679319C7DBF8360BCA2E33CF784
:104F700066032F32C805718EABF3215CB4A8E23012
:104F800000324066A68821F3FD6DBF30F7E38C76D2
:104F9000EB69262FC8F244E57008EA1902E24CF9E1
:104FA0003FCBE240A00523B3B442D720C87FC8025C
:104FB00088080361019F80191021E8FC36C004892C
:104FC000CF13581978D20DC6D0A67EC80D803134C3
:104FD00020D0B3F7A343DD41AC67F0D94210C0EB5A
:104FE000035E2284852208EEACF495C870D9179030
:104FF000C6CB38F8535D3B7D240E9306DE986A39A4
:1050000078B3A717B0475F0169EB98C24F39987C16
:1050100010769B2FF74060FD19AF35438003AA99A6
:10502000405AE007F99837F32C10AF6B127FDF215D
:1050300055097760810846C19E98A10790AEA2E00D
:10504000CE690C02E2F398DAFF08F7CD50039560C1
:10505000C69DC88106AFB2988C24D9D11F6A7BFA4D
:105060000955CD15E78704DE9805DE98C945020C81
:1050700098A2D16CDFF60D20118705DA46199CCA7B
:105080000F2001D6020CC056ED10C0243C9888E6D3
:10509000C8DD6647F1D5097F8060B06F16C4F2980D
:1050A000E003A9F3C1AE28722460110CC771F3E0CC
:1050B000FA81BF3CADB13DC541993CBDF2F37B19CE
:1050C000E401461147FE7F131D0107606DE090BDAE
:1050D000980B816239699AC803F79840803CFD10AB
:1050E000F0FE848130FD557FA8C58459DB44CF662E
:1050F000DBE6089FB3E0E517DB6CF898D01B80F384
:10510000BB6821C8C00C5DF7F481FB8005B37ECD80
:10511000F4532CC0391AFB982084EF051001FB656D
:105120007F9D51F54530BFB5988880EC5E42013FC8
:1051300084021361028C1D013D8CF920093009861F
:10514000EA395F5797246664C86910F4AE84AE1AD2
:10515000B74A2C668F7DEF1304065B8177CE17E08C
:105160000D20BD98469A14C648FB69B7870AE5D05A
:10517000FE8053DED56BB08311861A5A1178F394F2
:10518000FFED1540FFCEA4F36B7E213897EB4DA0C9
:1051900088FF79C5BF8E98078138BDC080DC16C0F6
:1051A000D98004D737C132BCFA0AC553ABA1D39911
:1051B000D8411951AB0BB0224EF3470EC001F32872
:1051C000DFFD88D3B1BF485E98FD20A80934800672
:1051D00001D64B63445EA39757DF7E86CD64EF080C
:1051E0001FB0C073D3104032EC8C9240A85C50AD1D
:1051F0001169E00DA035F889FE4569B587F5ECEA3F
:105200006F49F9D091F8502023600491087B302138
:10521000024266F976BEF98D13AE88455F95462E3B
:10522000CEEA62120C6BEE3043A3C5409E8B910C0C
:10523000824141D3EDFDE00133C8C45EC55EA55E89
:1052400055EB32401EDBC52007B2F51B4564907C50
:10525000DC9FA3B768013C80DF0770E098D66B9BAA
:1052600038972320648EAFF31E51ECF88441D93473
:10527000604B8201B4E8B2C84C0CEF84ED9390050A
:105280003F8ED0425EE532E24AFD5F401283E00C81
:105290005FF0E7D81DDFF27FF335F8DB907F8FB347
:1052A000B3124484B851C37939010368EA30A6B017
:1052B000DB7DCA05B377B9F011B010C0A50219643F
:1052C0007AA5044500322F50B6320AD9BF05F90538
:1052D0008D19FF6EB3EE40FFBE8DCA59FF208CD3EF
:1052E000C4FFBFEF88F788BC4BC804F3F3F355DA6B
:1052F00022DF32CDC6EFB30898D309FCBD6CC636A9
:10530000F9F82A6DB2405BF45022DD886F62DF89C4
:105310002CD61086D8FF28C51666084A6628F7B32B
:1053200044E750D8FD20DBD3FBFD018F8BFF8EFDC2
:1053300092CED7EF6251B1CB93F7CC1B6A6D567EFC
:1053400080FE03CC06217DAD062EC00F2088ADE87F
:1053500002DDF688FC04FAED62A64479CBFC786E97
:10536000E00598D3C463FA6107D9CC26282FF73219
:105370007ABAF8D7CD98DB04048455F68019C6C7ED
:1053800001EB0A8028672DEC087F0178B2FED6E891
:10539000A069D88FF9CAE67BC9F7B86661B1FFB9D1
:1053A00034A19E3617C0FA4195852B6A083BAF8D14
:1053B0006CFA18FB8F593C804BDF801459B301AB5A
:1053C000A5102BDBE568FBFE01C78CC6FF5A390828
:1053D000035C727520D92680B2FE7EFECF59BC04D4
:1053E000E51AF61CFEDB28F2682B40666EF6DFE855
:1053F000FA8DED10C701224010EC5E91090BDA1610
:1054000013F9B4DCB621157789B5319BEA815ED7F3
:105410000F80F73205088046F418404109B9D102DF
:1054200092DEDF61832209B1050766B0A01430CA9D
:10543000020EDE06A20E09A5435EF4D64201026604
:10544000C9A804A9B3B503FC946A1699D5A390E63C
:10545000DB871461107F18602004F210111817A068
:10546000CD3F842137800E049E8A872952C01AFFBF
:10547000BC205809D8F8109719629F21660AED4898
:1054800000C5CFF2DDFECC50FED8CEF30624D80204
:10549000163EF27BB209105FD6BF04FA7F8240CB82
:1054A000FDFB6722719E2DE7FBFF430247B6FE8698
:1054B000805E9AA96E656684536DCBBD0455650206
:1054C000A718B5C6D249AF80D50A04648BBF86370A
:1054D00096B4204EB7AAA8FA18D34CFFB610363BA4
:1054E00037F33FC39B76D8FD1DED39121CF8C9B3C5
:1054F00009968B0121F958481961FAFF80D5522C81
:10550000D9F8FF224292C2A5BC20B10EBB05B8FE5D
:105510006BDDCC24807A2B12DF697EFF0336F30C1F
:105520002E75D70806CADBBF32AD5BAEA8FD1AF5F3
:105530005C048A1B718035662C34A0107FCC606CB3
:1055400086D8F8FB70BBB50137BB6C61D8FF61D35F
:1055500002B001B0AA06A8FFC43366406679638F23
:105560009BBBFDA56DE3849ABAB720FB8217FB595C
:1055700017EDFE028A6AF620C67C8D76FB88FC1E3B
:10558000FE3502DD908003E4F9623FFAB020900618
:1055900059D8ADC6E8FE88E67D01C43682CDDBD998
:1055A00014CEAA58FAC57C10FF1623975A8108C555
:1055B0000D5DDBCE40FC17F32D1EFB663CB1BE3209
:1055C000CB516802E66937AA7840C778898FE05ED8
:1055D00040889B3BD028FE1A378B58C90149C65DCD
:1055E0003BEBE504BBF1204A9730584510A2071069
:1055F000D910F81E20CA596920FB4565FC314B4083
:105600002806FD11A5E5A008B5FE2378F8C5B4C9A4
:10561000C7FC54DFAD98DCF5C8FB02B7C33CBA96B3
:1056200058D7E79FF3B77503FCB840D0D581804DBC
:10563000B2D0FBAAA3083AFC360442F45E4BB199FF
:1056400021EE80F4670D5BDD09B7CB69E5D7231444
:105650001AA2B4558CFCB8B920F3509980F803769F
:10566000E30CA002B9E60A27DDE90535658C08E2FE
:10567000A00B15D3C888FB4AF32A268068F9349A10
:10568000149E5050DF48A509F9CB0606FFA5FA89FC
:10569000CA059C92948D3F87F88B256067FBD86084
:1056A000A43CD9A110088B94AEF9C0144D24D4EEBB
:1056B000FF342A0366400C8802F65410562816F26E
:1056C000CA81F52A0495D412697F8E11F8D0FC970F
:1056D000E408F9AEDF15453EF6A3FE51B11105B25F
:1056E0000928BC80C4FFA2CC5D65F30481AFFEC76E
:1056F000C0C0FB7999E48FB147B29E91A218B1D096
:10570000CEC7608065F2DDDC8D19C9C1920246DE2C
:105710004676520104CB33082F349101F764F9C562
:10572000B32588F9621EBC6117E8C404D5CFE6C66C
:10573000D8FAC5F58A10637DF4B8201ACC7ACD204A
:1057400030FF80375A5956805FEEB3814DB3D6C1D2
:1057500001B9F2019BDBDA6827977D30FC17B5B3FE
:105760003FDAAC395C48DCB8C95881C0CF9998FCA5
:10577000BB63DC05D998FD463EE61112FA3D20C90F
:105780004E4540C5FCFAC37CD9CE04DC4D5C7D633C
:105790001C4DB101D3BBC830F2DB9D3B0420FE8D14
:1057A0007DA6E436FC6A81BC40C1C637B8702C6661
:1057B000E5E304B9B819C2FEE5B320FE7BDDDB905A
:1057C000F6A0FD203086E5C9EC92AFDA420221AFA7
:1057D000845912EC1B3001CE8E82BF2109F74F8015
:1057E000100164AD37E0B5FC180203DC11C9311AB1
:1057F00005B31097FBED022C48DFF6CCC089E70C0F
:1058000090B5214B9560F3105EB33C27E9C00318B7
:10581000C4011DAAAA18D1E4F096F84A8BF00544F9
:10582000713425C11A58C96693FB5D108CA896196E
:1058300030FD5A9F3619110B88EE0635C49715BBFB
:105840004A493009134FB340E50260124666DDDC79
:10585000B4606D0A78FD77181E97C0AB8F19DDF024
:10586000200669FDB0013C882D66381AB002783CEC
:10587000B716F3BA40AC32FB0AD11908B6835A8680
:10588000C28D48D6308990198A5627DD6370FD9BFA
:10589000DF2A300A24C046F934B30282EFDE88449E
:1058A00019BF40C8BBF3F6CFFD208C78AF7D9812AE
:1058B0001002421A9DE01E19BDE6DA4020FA98C097
:1058C000D5E92D72F91CDFCDE5BC98F30C3471DFFE
:1058D000D6DC062FC774365EA0FFAA9106349CF270
:1058E00098CB363FB65D0867571BDFCCE698E7B22A
:1058F000E4DBCDB3FAE005AA4601FFDAEC80982C90
:10590000E736280108BB4065775F7BF9AE04BB91A1
:1059100060DAB6F79826C2046FE67A2DD5A8EB9820
:105920001027C898F8E788F9FE60DC403CCDDB1E04
:10593000C47B9807F0DB400275C48A19B5FE98EE67
:1059400018100F7DF950FC880131A7DB8C79987E07
:10595000C218DFCCF85C66CB17F159FF5E0BFE0B6B
:10596000103079B3B7AC9809A3B315FB7F3BDE9831
:1059700060022808E566F86923CBF71ABFBD0D77EA
:105980000B300123D698122469B2D07C98034E23A1
:1059900030D8CC19AE58BA0CB6AD390A57F805F163
:1059A000538B330328F9FC096FEA980E119B679714
:1059B0005A57F98B8A691FB7AD984196EE58BFF3D5
:1059C0008DFC1069F6F7A819343B421133ACFEFE8A
:1059D000DBB110789844CA7A2968D3FA90DAFFFDCF
:1059E0009902FBE3B893DC9D5D46C008BFD87FA653
:1059F0006E4648F59814A79A982DDE1135AEF96DCC
:105A0000EA98C0E864AFE630F220DFCC9847CC4B90
:105A1000CE3530DBEA47E7B8FB04DB8130E9AFFE87
:105A20000B5FC26EC9627F7F2CBDFF34986DF9B1E8
:105A3000FA7D9898B40842B3B0D816C8F7AC4B02B8
:105A40008F5A98821AB33319C0FC53047FE3A540E0
:105A500023DDF8305AD3FA9884C539301077AD98E1
:105A6000690D19FC3BFDDA18FEBBF70804837E378D
:105A7000D433DDF9C102651926E8FFF8E6A20CFD72
:105A8000D0DAC4D6677A9801DBD6984035C730EDB6
:105A90002919FD4CB358FF07F99800037A5C34B814
:105AA00030D7D67B2035C63086DF633C12FB378A81
:105AB000B02088142F6F982C02E230F321D6818910
:105AC000F9C8B206B725C0B92866247A6916D9552F
:105AD0001076702EFA602F3C52AAC0E50FD38B309F
