:100000000C944A270C9469270C9469270C9469274F
:100010000C9469270C94032A0C94382A0C946927B1
:100020000C9469270C9469270C949D290C946927DA
:100030000C9469270C9469270C9469270C94692700
:100040000C9469270C9469270C9469270C946927F0
:100050000C9469270C9469270C9469270C946927E0
:100060000C9469270C9469270C9469270C946927D0
:100070000C9469270C9469270C9469270C946927C0
:100080000C9469270C9469270C9469277F7F7E7FE5
:100090007F7F7F7F7F7F7F7F7F7F7B7F7F7F7D7F76
:1000A0007F7F7F7F7F7F070007047F7F7F7F7F7F4A
:1000B000077F7F7F7F7F057F047F7F7F7F7F7F7FBD
:1000C0000F7F0E7F067F0D7F0C7F7F7F7F7F1F7FDF
:1000D000177F167F157F1C7F147F7F7F7F7F007FB8
:1000E000277F1E7F257F1D7F247F7F7F7F7F187F57
:1000F000207F217F267F227F237F7F7F7F7F7F7FDF
:10010000107F197F1A7F1B7F137F7F7F7F7F0818E7
:10011000117F127F0A7F037F0B7F7F7F7F7F081015
:10012000081F097F080F027F08197F7F7F7F7F7F6D
:1001300008027F7F081308117F7F7F7F070C087FED
:10014000017F080B7F7F08077F7F7F7F7F7F080706
:100150007F7F7F7F7F7F7F7F07037F7F7F7F047F1E
:100160007F7F1C7F1B7F7F7F7F7F7F7F037F0810C8
:100170000C7F247F237F137F7A7F7F7F7C7F081112
:10018000147F081908200B7F7F7F7F7F7F7F7F7F11
:100190007F7F7F7F7F7F7F7F7F7F7F7F7F7F081550
:1001A0007F7F072408057F7F7F7F7F7F080D070BF8
:1001B00007237F7F0713071B7A7F7F7F7F7F7F7FE8
:1001C000071C7F7F7F7F07147F7F7F7FFF1F627FFA
:1001D000C23C006088FFFFA0089001324006C8C6FC
:1001E0000019FF03050A4414812241CF068AF32037
:1001F0000365FBA00C98290035FF0CFF9481325059
:1002000006CC4C19A128E0F3A7A9C68800983CD3D6
:1002100064800CFFB9C8FE0015E0025CF8800B702A
:10022000012E7804687E2AA002F467F350F3C0051B
:1002300098A8E6A06CE4B312F8E054800AD07B2AB8
:100240004045E054C9D374D3E7B80017B960F80942
:100250008B20FF20760480017AEA8004100C02C013
:1002600008083701ACE010A4E4E8B066486FFF98D6
:10027000FF5C7D82906C841D3CFC024020281B05A5
:10028000100119A002144F16190A400173E00D1451
:10029000A622ECC0408956F070CDF802C60408438F
:1002A000E34D46B4A442D42F3544B819B7E04EB359
:1002B000088990102D8005C30E05D5190833F82440
:1002C0007B78DBFE200BD2F7DE5B01C01028E4E177
:1002D00012ECF30481256F2008826CF910FD83ED88
:1002E000437963A343E10AFFCCB8B6FD0340034F53
:1002F000FC604030909601B0ADB8800C84ABBA6021
:1003000046F988FFDD7602AF04C6EE01714AB258A5
:1003100004C254B320768D66FC80B7EE4E23FF8B6B
:100320004130028646F2B3FFF909310A612A6604B8
:10033000D1ACF8DAE0017FD4C08343FBF33CEE8814
:1003400007345C061843B03C95667869F9A43866B2
:1003500071B4B128DE2DB2063F7C30615FD7CC9BF3
:1003600098B4B30B01B3F749B01006FB4140145FDA
:10037000AF6139B3A7BB66F0FC20CD6A7E89F5F981
:1003800090FE98E5240120F5859E98D99CFCDE9886
:100390005FC26AF8B70402EEDBD6DC0636ACBBF00F
:1003A000CF980716036A672EF66D535810CDA18CAF
:1003B0004AFF33D4FD23FFB628EDB103B1D1A7A086
:1003C000E5028CC2531B779BB3F9809B85FA169785
:1003D000C813B3EE3006A9227FFB5F2402090996F9
:1003E000B4408F8879FAE0013775077DD6A2663C64
:1003F000BE1ED3DDC50F604084CBB3184F7BB3B0B6
:10040000FD84015FDBA80378A5BDBC660CB0029C2F
:10041000B3D5D7C3DBFA80ADB30483B3BFB00D4C03
:10042000984FEDE52014EDF9C8FBEA5ED051BD1000
:10043000AA2FF308FA6530F9ABD698028B19FC2F76
:10044000CCA5A5F304799884C26634F46DFC079BAF
:10045000F2FECC0DE3F25EB0179DB31868F9EF9091
:10046000FE24F38BF830CBDEA51480BCDEC2CFF7C0
:100470007EE0FB849281B713E6F850B0BED7F7BA9E
:10048000114004B0099CB3F06E1E58F8E041EFDF54
:100490003C20C730F03DBCF346570998985819ECFA
:1004A00048F988CE3930B62071A966B740C2D6194E
:1004B00038FBFE971A26F1301C19B3BC080758AD5B
:1004C00051E6E5BBE3DFFD20F6DFA370B304369B06
:1004D000D09CF7D880215DFB7F542736C8026F116E
:1004E00030DD858BFF18238D3016C130BEE3072029
:1004F0000346ED16FB98F820650D79F3A0ABF16883
:10050000049601AF16FFCC5BF9767BC8260222FA6F
:10051000FE717409319AFBCA204CD802454CB3B421
:1005200060F720F1F9E0AE415B3030E5C891ED981D
:100530000F6084C5B4B6FEB92E7F347DC0206669D5
:1005400096C8DE985ABB2CE62CCEC803FBD1B30864
:1005500068B3F6A001B010AFE0080C8084616BB303
:10056000F8FC6FCA3008EA60F8BF281DFED8FE010B
:100570005FED9830FE96EBDB80417898B093C1FF39
:100580004096FDFD4F2E30405A67E07CACB0569F40
:10059000D69810BEDEEEF888055F1922C430AB0D88
:1005A0002EE524F098162817FB9872FD7926CBBC0F
:1005B0008BFD3B306DC062F68C82147A9842D1F884
:1005C000FB59C869CB30034E1B309AF00DBD98889B
:1005D000DEFF84662DB33DAA80B230330D80617793
:1005E000B49819FDCD790AFC30DD2004DBF42246F5
:1005F000B38485C2D6B380F9FF6F9851222F63660A
:10060000980412B318F6A280213309FE7FD3DB6D64
:1006100034F943AC5E12305961C315FF20AF2F7619
:10062000FEE530A0ABB0C0015C30B5E0D0AF2C2E01
:100630006FA750FA49AA9019AB7F46646BE99808F6
:10064000B5D880284EB969EFE5EBFC80515D17778E
:100650006E680B75F044300AF77FFEAC8CC28FDAFF
:1006600032406F0E81F85E985C3067E7C87820D81A
:100670000F625196C89DD40AF8FE007DFE3C30EF13
:10068000C8FB120A4D661BCAA3FB43B35E1530AC10
:10069000CD30C028A2B38458F24CFFB4042D7F1291
:1006A000AF7DC0FEBD1BFC086DEF980D200424B18A
:1006B00002DF5AEF80FA9841D35762FA96F9D94986
:1006C000F9C8C008845B3B6153FFB0F97FAD98E087
:1006D000B2C8396E6DD317A380D82008F2C006CAFD
:1006E000E02F5BFB246DBD4946041D1EF3E6AE14EE
:1006F000162465111BB3BD2BE0FC841166C8089756
:100700001993F664308FC02470A210B1D4A5B780BD
:1007100072F746C9D1FDC86D96C8DC30D73D081CBC
:1007200023190F0362D8401CD96AFE5E2F6C3DD39B
:10073000EF48EDFC8801575303E9AFFE4E7EB662E9
:100740000C023BB748FAAB04C957EF98994B2EB34C
:10075000A01130DFD5C54CDBA4051E5AB3169AF59F
:1007600069157617803C069DC50820697F7F48344F
:100770005F6B1DFA5AC04124B1046C86DDCDE530B3
:1007800082EDF91CFCDF2D7F4BB126CCA296D680E2
:10079000203B0B3930FD33BD0C193077686478B8D5
:1007A000BECC5EBCE736E90425DB170C197AACF841
:1007B000FB2044FDCCD0362F0264BAFC5AA430533F
:1007C000093444800466649AB130BE7F3073FB8084
:1007D00049300620776424A3B1996BD211BE5C30F6
:1007E000C04360ED8C0405FA9DC8F6423011F6F95D
:1007F0001302C47930899FFD833C8001F477A79868
:1008000018F56001A30DD0BB617859C8D6803CDAD9
:10081000CB2D660297663C8BF8D312E63088FA5EE1
:10082000B6C34683FF1D7FD772F2CC013116D76D58
:1008300022CDB37DC503625C30FBE3FD8051308D7A
:100840008533C8A0A205FB07142381622C25C52C83
:10085000A9B3B9118A00B3B504E37D2CEBCFEB2625
:1008600073B31CDB9646F9E8FFB9E3804A6702F2EE
:100870005832B588F3E6CE32CACCD380F34D18D3C4
:1008800038FD0C121DFF98FF289693619166BBD32B
:1008900090FF0230C2B5822089FECC0CD3966CFE4C
:1008A00057ED9E0145D5938C18B5CFF1CCE8F91ED4
:1008B000EB6CBE6CF309A9D1856DFF78FD99F63F0D
:1008C0001E7E32FFC656962416176718CA25F9E50C
:1008D0008766C1F92D69D61034B3B040B5AC58B1B4
:1008E000FF05EB0285EB60204EEC2DA0FE5C93C370
:1008F000050C09EBB30138B9C68C5F4F29B2BE05B0
:100900000318F9642DB3084EBBF55440FC822CED5E
:1009100068B3CFD6E250FCFC8DB2026AF0CC28104E
:10092000682457A56803948A767630CF7AB3200A74
:100930000208D8AD96FF9BFCB20216E314BF35F651
:1009400088140168127ED402D56194B3FDFACFC336
:1009500086FFB8FFC5BE3AFEB0878DBC406F9B5F77
:10096000FE16FD4D20847E91B2089B3018FC14F5D4
:100970009D04DFC2B001B50B90B4F9302D43FECB1E
:10098000F8FDC57EE8C32EEFA8ECF931769CB0C324
:10099000A7FBC638FE063E3F306C6F2C6CB3E8F800
:1009A0008D30658F963E1033AB00C807FDB0497F90
:1009B00058B3205EB3B0FD39BFCC4062FFD8B12040
:1009C000CE333CFBB0B0B3F956DA0449CF85CD66DF
:1009D000D8FF8AA58720A985F9C6DE50F9CDB010C9
:1009E00093ACB0773B4F90FB630C3FB38401A744BB
:1009F0006163AC48FA67F537870DFF88FF8D6DA7F7
:100A000087FDFE5A1F61AECD90C5FEB78DB1BB0408
:100A10009DF7AC98E6539EC5F8FB48F3C52BE3CB96
:100A200037F076CC75BC20641C90B9DFD0FAEB5659
:100A30001025B30219C05C8CFB42B0F48F4DB7DDBA
:100A4000AEE0F840C96870FBB50340E7B0BB30F0DA
:100A500075227D292E450C8E8EB3E01420D0ABFF7D
:100A600060BA58F85301F0141A4B7440C59BF47DDA
:100A70007D3EB10C682120A0C54D73FD2452473640
:100A80001A1C2CD7381338CA8F783C6F5EE697044F
:100A900040926801F701F7B02097ADB594D8F8C23D
:100AA000608DBB498C3B8C7D3AED171091F6CC796B
:100AB0005E85FC7DD910FBDF5261CB5F90FF72C277
:100AC00002F3671F316AE546D08B7DCC7995852688
:100AD000205F2CCA0193EC0C75FB4068C6D89CFEC5
:100AE000CAC004C243B57673D9FF0B16FB7E0C3D1A
:100AF000823061CF59B1EB9EB8165CB3081B1585E7
:100B00008BAD1821B3026C9CB010DB5AA188FC2E6F
:100B1000809B2A77515FDDD280F17C208B7D0C0198
:100B20002004B4887DE9ED7E4008278A2D48349260
:100B300034F842D0F3010C2024E62216FEF62D40B4
:100B400080CEFB65CCA824ED1408BA66F89692080E
:100B50007692B2AF11F31A3BED2577C0067F11559F
:100B6000FBC0F324805508027381D468B5FA40DBDA
:100B700003ED23612417F4010CCFE58CD8D2829FBA
:100B8000ED4A10547102FADD1612B05E5FC00068C3
:100B900050B30997E5C00298D7AB621601731E6087
:100BA00022461B7F74AD8011E3F0C0401805BA6087
:100BB00021807CF54220C108581F0B60012CFA905F
:100BC00044B020B8ECB12C9FFDF71EC48378798D1A
:100BD00013DCD003780B0FE2023CCEFDCCE0C8E37F
:100BE000F0121EFB80E09EE08007F0F6C6400F6624
:100BF000B03CF0F9926620C39B09036027A9BBF3C0
:100C00000CEC804030D3B4CF9602D38EE0FD2406A6
:100C1000A8C6A6D3F350F98969E0823DED9360122E
:100C2000EBCFA2F4897EE04C82112005C653B32895
:100C30003720ED0446C299B30531F140B31DFDAC38
:100C40004048B7AF982618D4E601D6407F8A4B4972
:100C500038B2C1BF74415F2F800235187E800167B2
:100C6000CA28FD1030B3FDFA4459DDFE8F01B66C81
:100C70007206CF5AA1207D27BFA82EF9D6CC51D914
:100C800002A479C5CB2C083BD66844479F98F2CC88
:100C9000412984B4C0EC74091DA0FDE9D8C01B3BF8
:100CA0004564804EDF7011E363D3048C89C57D9861
:100CB0000273A1280437F1812EF340133B86F1C95A
:100CC000B4F8EF9042180436E1418AB3C264AB1322
:100CD0006267ECEF3101EFDE7F09869C98E56044A6
:100CE000A71C3016C448E91805038601FA90B02005
:100CF00059FDF5D210DEC5EFC003792FD03FC5DE18
:100D000098100FE001C43D988167F99825C683F6D5
:100D1000C3D39FFCA304664F5A9861FE9BC0D7C5FE
:100D200098E68DF998C613BE984266E669D31266B6
:100D3000344BE020BDD20A7BCF14C468B3EC4C80A6
:100D4000216DB34C5E5EB20813B351D308A5FC0607
:100D500042A7B7980944BBD0200288BEAE72FF21DB
:100D600044E8C4F930023ED303081241BCBB57D358
:100D7000D288874407241001CB2218663FCD68FF34
:100D8000470162DA264546EB5502D6D3404E6D7BCD
:100D9000FFFC985A90FECC20F136D3302C0958B77E
:100DA0000D307240A1C9DD617F96D3FB82C0FC0C7F
:100DB0006F2398944FDACC128BC6B416F3989966C9
:100DC000024847E2B0108436E2306B5B3AF8F34CED
:100DD00022F62439761360A17AD4C0D3D9984C0274
:100DE000E6B1123F79984098040BC169EFC9C42459
:100DF0009808D723608298F5302078FBE7D2FBC5AE
:100E0000C480DA18107A98F4D3C298E5E081E68AB3
:100E1000F9987B6B200F9D04C6A007A1F37A6B8025
:100E200072D328FF1959097C3009B78198635E98FD
:100E30007FC96373666FC830311849FA0F4CB3220B
:100E4000ED21469F7E5C5D7BB30488D80132BBB345
:100E50000860CC844C66B0B7D3DEE309306BF1FD9B
:100E6000EFC6D47943DEFC04D05E885F968F020122
:100E70009B28E60A38B2BE8FF1E0C1E0024D10C8EF
:100E800034A43C044008C3D344FBA011040914F269
:100E90002EFCCBC801662FE547A58DE6C920D4FB03
:100EA000F3CBFC4006A8FED041C9F2982209F03BE2
:100EB00036ECEC53CF982E161A993301F59880DE54
:100EC0009877C4CCA5FDCD05F9C8ED1121223515C3
:100ED0000278CBFB2E9085200119CAC83433CBA7EA
:100EE000FC9863A420EF1BFA56DDC09B026BAF4059
:100EF000C8BB22DA98120C58DA04A7C07F59D594DF
:100F000004F4A8CA16C85C6EF3810C5D23A9C7302F
:100F1000E7C8C802B258F83076DDE20121EB98410B
:100F2000BD98204DE07A109595C8949BD3B558F59F
:100F3000E5407E1F621B4EDB64C465C818C6A96607
:100F4000EBE0082F32C8011303B7492237E00474DD
:100F5000B1365EFEE32C82053004C657B3487D0EE1
:100F6000B8B31C05B20DB8FF7C2A7AC0FEAC4308AA
:100F70003AD2EA77D040D2287FA021810A84C43BAC
:100F8000175077D37FE309680F0D0259C8861016F2
:100F9000400879F0442122BDED0170FFCDD7BCE4BB
:100FA0000B5CAFCCB305C8FFE98391BB6FC435A41C
:100FB000F298271DF810A8FB6A43810683EF6010A2
:100FC000032FCFAFD517C5E018D9A019CA3503B87C
:100FD0002C9380C8FF179819679BA0FF4A8022F9BD
:100FE0007F702FE82592F280FEC5AE04B393F749D7
:100FF0000577E6F714D38851E16AF9C878D36C0114
:1010000010EE71DAF97C5A2604481802EF66144C87
:10101000E9E7DC779798E57F119289F7BB02189989
:1010200091B114654F3046C08218F3010B60200562
:10103000305EEB5EE5DA1C90716A7AD204E3365ECC
:101040006C300BE047CE987243F0801E37DB30C81F
:10105000F11A7A98687CD30848FD04DB5620FD1FFE
:1010600097CF3084013008629D1CEF188002F19800
:10107000C56CC60A844065BB39B36401ED884DED8B
:101080006480EEB31088140B5F31781D8EE3849377
:10109000193025407875C793E94B11D396A0B3B9A1
:1010A000C8CB5020D5C4D03D75E99809D05E9805CD
:1010B0008A713078A5EF298D04E5884030F301214D
:1010C0009D9DE618FC91EBBD0253F77E315DAE1796
:1010D0003065FA9804D9CB04722DFED726C8F302E6
:1010E000DBD7F821EC91D8E942BF2430061634CE84
:1010F000775F64E2981686AC34508FB3CCC802A3F5
:10110000BCABCFD4F4C56015E6B731C8308919112E
:1011100020CD143D8410A19E757666C8F9D35A7C03
:101120002898FDB922AE926268239B66828110E501
:101130003005CEE00818846BB781CB18B3C8C4F370
:1011400004F31360128CF431D30298B33C107E7414
:10115000C88278D76DED98837865F58BF13093E48C
:1011600098F3B5C0E73008D0FD69CB30207C96C835
:10117000729E98AF4031E56EB464F398D6EEC1DE4E
:10118000E59B41B919F6E3FF5AC58BB7B310C8AE5A
:10119000B304F54B408A97B3F933212804C6D141F3
:1011A00026F3BFB66B10FEDE988D0848A284A7E137
:1011B0009FF05E985ED789B082B1105CAEC8573D93
:1011C00002E88E34F111B477A298A07B361268FC45
:1011D0001BCBE819F6982008CDF26BEAEFDB49CB80
:1011E000EAD5D260E6EF4E56E859F5FDFF7AE030D9
:1011F000BEA9BC6BBECC1B7D14F9D322D770F85DA1
:10120000EBA4AF9E6BADFC4011A88496F6EF29E8E5
:1012100098023289B9BFCC8076469B68D33A140ACB
:10122000605DB330B8A5581C036021E6F91101D404
:10123000C156D741BB8D2C48D93002DF7F2F97FC98
:1012400052815B60FD23410FC422CE1802D3012CD2
:10125000956D08F77F65C8FC30BF7A905080165FA7
:10126000E8CA23E0F3C515F7984402786B97C89352
:10127000C6F3E2813BB9C8FD8009B6E26AF90549C7
:101280002DF3B97D31635E9801FD64B2C17DE570D7
:10129000B5FDF598192FED4416D3E0A0B36509E626
:1012A0008BF998DBE359C8B22633C822E80428FD3D
:1012B000DEEFFB694050220C6F3F5DDA984489DB1A
:1012C000C23BDA98A00960FBD00465210AB635D28A
:1012D000141190C8734820F04D1310011EA0ECAEFD
:1012E000C8591E803EA664F05DB1FF4E2C7CB6C886
:1012F000E2105EEE82CB3B6E40FCF9308077AD377A
:101300004214D007DD7E65F544609E1970B34A2013
:10131000F398C5C1D67DD60AC616DADBFD83F9AAD5
:101320008F03071320847BD026187E4DF5B32090C1
:10133000646C11BC08F712F79860210140E95E6CFB
:10134000B95282503AD31BFEFC7F111FC022980471
:10135000DE0B61D05F7F4C8C13600F2C8891B06ED8
:101360000D6DC2BF52EE2F031B98E60C959C26C84C
:101370002305BC600280600ED379F8FF5D98B0ED64
:10138000D25810A7D74F9B98733008046A666AAB8F
:10139000A3E8ABF803EF5D98089D8EF120DE5E496F
:1013A000D380D3AF20B7CCF3985466C406FA151592
:1013B000AAB350D5B388647A9810F366FB6780456A
:1013C000D3922DCB97B3346D767A9861D3B66B46B2
:1013D000BE4BDD8C88F6A26FEE1E29494482C0B355
:1013E0007F6F170A4DB30BF308CDD368FA8DF193D5
:1013F00096B363EDFFF8F9AFAEF702FD3F017D3F15
:1014000096F36711D1ED8CB0D3D8FF182439FF982B
:10141000FF28AD608C66DB90FFFCCCB3EB16C708F1
:1014200017B66670FBBBC36FF68E3BF29173CA337F
:1014300059377C78B8FEEF2352B13851D1D8595979
:1014400044E4B4E06FF450F5649317B1B8F8118236
:101450003FD7CCDB7F198DE67B61018B11D96DA95C
:10146000531BD20DB3F0029C2B617E76AE10FDFCB7
:101470000B5C0F65F90B84C6A44776DC88FE513DF2
:1014800085E6FF67B4B2D8FA756366DD3FD649E3F7
:1014900038B3FD79F78223FFB8FF647E4809F390E3
:1014A00029A42062BDFA5BCC6DEB2101255538CB18
:1014B000FC08B82BF6CD08ADD320408CA31110AF9B
:1014C0003CF4CEF5DC41AB22D9FE4AAE05C8FE7D28
:1014D000400111D99CA10CE8909210B0DA805431EF
:1014E00046B30618BC55FF68B50112B086D0CB2DA7
:1014F00066A1E01990ED250DBF68AAD60A69ADC0B6
:10150000DE18096A3806C53C9B67C412D028014A18
:10151000F3CC2D5AA26A2F6CE790FCFF5A1502FDFE
:101520002D861CC7ED60FF08F8F1CCCD4A10DDDC3C
:10153000B108446604B44BFAA7FC7F8004C6447E1D
:10154000EDD8C1F871C6407F764480FE8090196462
:10155000649971D685CDA018F9B9A993E6251AB773
:10156000FF50FB7DDB86BDFB6697C95BB1FE3D048A
:10157000CDFCFE027623DB058060BE6CA53E10A389
:10158000E5F8FE64ACD818CFB0A3BD5888B1FF5EB3
:101590002F8158E8505DCDC610FEDF4E66E91486F7
:1015A0007BE29D40B758FBA1788659C867A332F803
:1015B000A3AC1731D4F31A33FBA8C8FF10DB330DEB
:1015C000B64A6C66FF6756DE0414F5B4EB66F8277E
:1015D000ECE22EFBCB3DA2FB6DFBDE401E313BF26D
:1015E00064D3151BFB9F0B56B3FB71DFFB86613E7B
:1015F000AC1480BD5862F86BFBDA082760AFBFE718
:10160000DAFA50FE614F9B9FED7AE6FCE28361DFE0
:10161000ED325BF30A0296B920CDCF0148FD616738
:10162000F64E20F4E00A5276F0B69B029094F3282E
:10163000F34BA158B415CC34D0EDA4608B1B089E9D
:1016400077967A8E02D7D66B88261961ABFF99FF01
:101650006A96B012E74DB4D4FFFDB361A9779FFD40
:10166000FA18FF989CB00497D6E002672F0B106021
:101670006DC8FCD701A5D220BD6C0E464A5B02C5E1
:10168000D4AB02C62CD4FEA68CAAE4FB8675E581F9
:10169000566D9EB0BD779EDFFC0602CF325A17937F
:1016A00081784E7684143272A1110E49F97CA50C12
:1016B0008501343C06180909BFB9481884A48190F3
:1016C000090B03FCC4CFDB36DD94C05A02E490EE74
:1016D000705634F8C1A805C0D8F8CD3008BEA1CAEC
:1016E000450A1193E13D06C01810B23F0ACE2466A8
:1016F000BE108BE74231FF08F9010418EFC64028FD
:10170000C3026239F3A021E2D9E0FD44429146864A
:10171000FF6F62AB19402BD6E140CA43014A50FA31
:10172000F15A01201EDFF423F388C6323EF1C4DCF7
:101730008181105F4D68BC70F3A6CBE768F9C632B3
:101740009458ACD78B7EBE37A742A9BCFD64982CB9
:101750004FD5A7E6BC20D6365718E5B3C6F91D7499
:101760005D9D185A70FBCB97800BCCC153B67BFFA5
:101770001D6971786CB770E877CBED32CD57409426
:10178000372FA431AB9DD78D0ADC5DD30197AB62B7
:101790002008B42AC7F8099BF198F9639627A33764
:1017A0001BF208FE60CFF390C85527FEB5143CCB62
:1017B000D3FF6DD890FCD0DB81C2667EC505C778AB
:1017C0007ACDF25E587DFD824104DBCCD7FEB117A5
:1017D000DD5C498019B30409CA19C00230F05CEC21
:1017E0004D194040CFDA36F001609F477BEED0F9CB
:1017F000631DB262D93A47797D1599FA7E8051F21C
:10180000F81970B87B18411EDCA206677702032026
:101810001499C5EDFF1402A24201F6A58422BFD49B
:1018200042B5106FD888FBFDC44195EA49C01687C0
:10183000B32DA16BD99F8A6572F3F8D119E16AEDD6
:1018400083600C345030B0D80378AAB33CF1B3E0D5
:101850006A23B207978BF097661A637DD9F96727D9
:1018600082191301637A685F866A5914F6AF2011F2
:1018700002A6288BB3A2570B818930EE064604D509
:101880001052CBF03010CD6528A2F963F1FA3CFB81
:1018900045C20840206F6F2398FAFD7690A3F207A7
:1018A000E0CE013CFB3020BDE548792C8820672440
:1018B0003C19D50CA0FB04F04006C065E4B0A71AA3
:1018C000CA9F66FBCF06D6F55086862C66B5034DBB
:1018D0006605B618BE6F6E90EBFE6D6FFD84824E8E
:1018E000B388F69320C54FB3FA80F3C5C7263C22D0
:1018F000D40308096DFD2F98FBA14AB78A980DF211
:1019000037F498812B1415DEAE82402B27C9988CB2
:10191000023176600B708F0A59B3066DD0C0209FDC
:10192000CBA00C55F806B26503CBDDFA60A326B850
:10193000F97A6EA1D8565E4BB31703526669BEBFE3
:1019400072B22C90988F401092712F05FDF172E3C6
:10195000EDACF9B908255009B732663404B6EE315A
:10196000307EE3FE022224D70B46BE67778098A222
:1019700068BCE54F73FF7FDB26A01EE4199D04E5DC
:1019800002508AA0B3284B026B65139079981F759B
:10199000B442FDDF59FDDBEB947FCE0F0C63F040CA
:1019A000768602482AB39724D31E90192B0CD5981B
:1019B00020E99819A4CFE001EE70FF0477EDA8A20A
:1019C000FE98FF314EB6660601E3894EBFB1C59859
:1019D000F3AF377D63F8FE5B40DF51EA304DE842FC
:1019E00018F7BFC0CCBB16EDA37D4B105E9837191E
:1019F000887E889177FC48FF2DAA063D98227F9F1C
:101A000098B03258BF99989C30CD2010D2606D6F3D
:101A1000E8E6F8EC47CC986F56071023B685AB9FE5
:101A200068C0B357A09ADA769B088E43FDCC528AE1
:101A3000AFB42C5BB3807330053077EFF0121BE648
:101A4000BFFDCDA57C988B44D59810DB330918F3E6
:101A500098FC6FDB9E3002C00880135019F238B337
:101A6000DB8B30B0EB4C5843E798AFFF131EFA699D
:101A700045C244B3BF60B804225CBF192F1CE430D8
:101A8000781D0F02FE98B780F39818E330DE5F3CB4
:101A90008004F002F59879CF041C08D8FC435DF06F
:101AA000A07966FE987FD87FFB6603026DCA30205E
:101AB0005A0660E6E5FDD7CD98D4B30819637E9841
:101AC0007FEDCC235A192204CEBE1061F7F20A989A
:101AD000FC7F8698A518D904AF8B98FE17F4982040
:101AE000DA1982F89805A879256257D08398B40A44
:101AF000F6DB44FED096C43480C22CAFC859E8C48B
:101B000029F138B37F65648023AF97986C9B205F81
:101B1000DB9860806F64987020F381B30582E0F3F6
:101B200032FB27087AB326CBF198AC631E98B6082F
:101B3000F4980903BC88C230212D19BD9834020BDA
:101B40005BB37F322362DF400CCBBDC419F598082C
:101B500071CACDC5436073EF4030C6024582043080
:101B60001B60119B0C0131FA1725B0D90E5E9877D6
:101B70003630073031CE30E0812CD792301845B363
:101B80009B90DD04309BC878C6194AFAF3DB976650
:101B900003F9E5F9C862C566C44A6601E5D3FAA748
:101BA00041F398FDD26068E2B4D3E5CA80BBB3B01C
:101BB0000836D3222FEE988089205FD3CB30699BE3
:101BC000A63805FD9802B461E6BF28F8FF5B9810BF
:101BD000FEEC82C6F830E09D9608BE985DA4DC81DC
:101BE00020A65AAF5E8BF0810838FC19FE9DB1C269
:101BF0008E33307803ED11B5895B0019BDF9E00132
:101C00006AB4BB60D0983018CF9798EBFE04EB7F96
:101C1000CD98B3C8046BF8FE0C17B8F27D26D5D466
:101C20000DBF01D6984033E298CBF2D3F39890667B
:101C30000596CB49F389BC03F2B8FCF7B4FCDB662C
:101C4000C6E546C67C98F3799DB903644217FAB895
:101C500098C20858DA0300F69891B010CFE917EA55
:101C60006BCDA7E801799871308C7998FA2C7F5D5B
:101C700084C73D64C833F31A40E6FC3C08D8FB57E0
:101C8000F113AE57C8D7CF1813D780986BEB986273
:101C9000CD1333C88377D27FC681EEA5FEC028A2BC
:101CA000B38468ED0AF3C67C9869FD168140DF0BAA
:101CB00068E5DF92C8B3BD5E145BCA9B3062FDFD70
:101CC00098D072E604F2D1D2DBF49882662B97C8E2
:101CD000FB9802480C5B82BEBE1ACEC88048BE8309
:101CE000BE2770C15CFA192219DAD72DC8CC665B01
:101CF000ED2CFC3BF37E5F5BA668E57B08B0500CE7
:101D000073CF9864FF07023BAFD33598CDC806BEAA
:101D10006D674035FCC1B522F3981FC9C8C04FE6B6
:101D2000880211097A3B0515C0368708099A96DBA7
:101D3000FBFCFE7F0BD7DB3526021AC9C8FF9F4686
:101D4000B918012160B9221A11C44502481B60A9C3
:101D50006231EF0669FEF598F0DDDE4B1908F830C8
:101D6000B73C02B15872667BC716D083182330C8BF
:101D7000C42B7A847AF3AF19B7CCF9CFB6AD024B46
:101D800015068F1B6F660604F3F26CAFC89799B601
:101D9000816EB5835E1920B3BB4CA4DEB355FB291D
:101DA00040174066163EB3210B6924E7B31022C4E6
:101DB000C0149ADF2164FE2E1018F8F6E0D204B8A1
:101DC00010E2EF776810D222FD028A71306E0604AD
:101DD000BDA520D70A44B73E24A07A9808BE7FFE4E
:101DE0006F30F8FBEB4150666D4C0C243FFFD6BBC7
:101DF000044E6D88E83C98D7E8CC0388DD028C3629
:101E00004CC0F3E08883E08BBE2BC8733984E910A3
:101E10007F373018FB3BA524C8102966486340195A
:101E2000352202FCAB112112F3B32E0248C7410543
:101E3000F9A2CFFDFE465EC0B901D72CFD8211315B
:101E40000646C2FE70B1443526810FB3D558041141
:101E50008C206EF309E130C0E9011361B690813046
:101E600020BFFE2E13F298FD810F64F51E07F020AF
:101E7000C5C419E00767C81EC0DD8378C52392C8B2
:101E8000D356194A8E16E03091F95E66657150EDB1
:101E9000F360408BF23002FF51981059AF9B987A53
:101EA0008B80BE32EF5AAA2426D381D3096EB34267
:101EB00058B30492B3A090B34616E9A68BE0A0AC49
:101EC00009C1C8C4A49AA684AEB76B3070FE87BAA5
:101ED0001D10086DC030E10935CBF5F823C4B3C837
:101EE00018308351F50944DC102480AF7B1B8BC371
:101EF00021B8303D48A75CFEDA795DB8FBB0468476
:101F0000FFB6B7B2C8D4CE75FFD0FAD06E2301BBEE
:101F1000A1173FD2E288F9DDB30C67F998FC302FA6
:101F200083FF5FC081207F8D98C912A3E2C8FF7034
:101F300032D12A2499FC307197881B662D110878BC
:101F40003001CF5E9809F9C803040ABB08903080BD
:101F5000B102F916AE0F265A0413376D0AC620FADD
:101F60000B5F14F75F9B3FEC67D7B6513E10C4027E
:101F7000080310BC45BAB1BD982477E832049075C7
:101F80002198FAEEA5900734FEBF6E843039072EF3
:101F90000C1957C438DA6B1A66A8ABE8452FF04025
:101FA0001E37D378733D1DA0D705F0ABB583753CC4
:101FB00060BDF690FA17809BC5F1307D72B923752C
:101FC00084AAB350F3B3FEAFFF9BCFE962BAF1B27C
:101FD000C8F57C60A3F311F8028480B32E4D8A43C8
:101FE000FD8C287C05D3FE3C1519D4B3D911A04F24
:101FF00066160484180B0A60A441F3107C24D41FD5
:102000001A11136443CFD3049690B334FF669FB381
:10201000F7C47DE0FBC32FF35B8A10707ED74FFCC3
:10202000AD4B8012E208E2CE31F335A21090A84702
:102030003F9AB504D380FBC121FF98D8FF24546692
:10204000638D39D8FB9ECFB22456C4063E724FB181
:102050000362400C6B962E575B6A1EF5F32C93536C
:102060004CAFF34677D3E0FF08684409B9DE18D1D6
:10207000C68B15E033F632045397C0FB67990620F0
:10208000F39843F6CC4B9B70FB6C8D41F3195D2BA1
:1020900062A666A6F822473BEDC8FE0EFDF3086671
:1020A00072A4FFF3900ECDAEDB59D8FA0D56C302E1
:1020B00049617DC4EDEB50FD8A98D0F79AA199272C
:1020C0006D158CFEB81936C6973AB8631ADED90872
:1020D000F9FD37366A2037A6BB4FD611A82B41CE63
:1020E000F30ABB17FF7BF50180786D6B0296FA81CE
:1020F000BFEF6264ACC0B7202319C6D8801040146B
:10210000089CDE88F9E67F57FD9078B0C8D534E5A5
:102110003450E48020C4B91F300066C3BAD3905B4A
:102120008EE00C10615F40BD0FA8F9AA242499E548
:102130004480ED25FCA4AF1111A59FD9FE30891E66
:102140000ADFA3F16E0484FC530A6717F26CB1F93D
:1021500012F830F34C33CDE97B130463DE9D5FBF8F
:10216000DC02013D01C3E6FB39B1FA1FB19CCED8B8
:10217000EF10C966871DBD67ABFFD88CCAD32E1F71
:10218000DBA438EFDD07F061826601CE370D6C7598
:1021900088FB5F2FD531F5F05BA66950DBB67E2852
:1021A000E6B3121F11D6DDFB176BF6C1CBFB183956
:1021B00066106126D8EB9B8A48FBB208CC482BFD01
:1021C0007F809BFDBA18FE8EFD53855C11B5903063
:1021D00019D36CDDFF31980FB29C166410119BA2CD
:1021E000E793E0FD617F9F98CBAC084CB37E3B2723
:1021F000A1B0FB4BE3CA0E0CC4FFDAF688717D82F6
:102200002A66FDC40C9F37F5E4C8B919854B5E02F8
:1022100063AD3178F8B3FEB47AC3955DD8A21901E5
:10222000CB58EA20D1C38CF36FB8FC6179746C0988
:1022300056FC9B6EB45CB7716687C5FFA60FCB6674
:10224000FB3B6CE535F39BFE32E5B380B0EA14F45A
:1022500061AEEF3A40DB4923F7AE24FDEEB66CCC1D
:1022600001636FE6E966DAB4C032BA37EF50D9FFDE
:102270000AFC3BB240365EC7BED268DB8487DBF91E
:102280000170FDC5E305200211C8D2BB04F1BBE417
:102290004B10128C8373629139D04120C636CF2106
:1022A00018F920F903A5A00030BDBD1343284BDD6C
:1022B00020BEBC664F1BE009C577795037D6022691
:1022C000680CF83665C64CC13D214504209074FE6B
:1022D000CCB40BC240C0EB42CF0601935285809430
:1022E00021FA5906013D088833284404E788E44070
:1022F0002909911D0A04CE8052910239F843E6CA99
:1023000088B2FABB94046FF6F5117D3C11D2B392FA
:10231000EBD150FD13A751BE78E1BB2D417BAD42FF
:102320006264B94B6632530804AF1BFDA8E0B3FCEE
:10233000F883C7FB070471668936E9BCFEEB2E08FB
:1023400055D71084F9C76C5CB58268E8B8FEC1CA7D
:10235000ED4906847E09629FFCB1F90D59FC030129
:10236000571859DDA628FF87FB002D2E9B0770F913
:102370000B7B291062D95FAD04D896FA20EA6A0275
:102380005FA6FC2098FCA3FAF20DB2D0CC58C5ECA5
:102390006D9B2E088E0C32FAF27BC54C462B6C1AC4
:1023A0000120B3B30A769DBB890429BF1940676E2B
:1023B00017A0C34D7BAF80022008240DD5F49834BC
:1023C00066106BA5D05489BFECA40236FDB8FAFFA5
:1023D0002BB2C0FB444061ABB350FEA660FA06319D
:1023E00076FD84831FBBB3D0FB2087C2151A411131
:1023F00087FE43F460FD805166E0C04418323FD64A
:102400002261B366FEE076A27AF06D1E48D6B33044
:102410001B396678F880B35F7FA320660FDA1980D6
:10242000F927B31902980401BAEC20C36519FCAF6F
:102430008D98B388B1EC86FF76B6C8F598188DAF45
:10244000D90C31FAEDED2B70F87D981ED88082CE34
:10245000AD6108B6FEC6DDB3B0F928C5C2E0986C20
:10246000113FFF7F2AFC80BF41C198EC81028FB0F1
:102470006ADBCD4BBD9806B044FFC7981FF9847F37
:10248000919871BAB3C0C366B3A9FDD3D798287D1C
:102490002B87DEE4AFB85D9804E89882368AE6B40C
:1024A0009D64B00DBDB3D8B7FFF0982CEF30A4C138
:1024B00065FF7F8898B7BB908235E60E617BB44894
:1024C000FA9A24FB05FDDB8293EB98440D5F1978A3
:1024D000F9844930AE01B2DAB9CA02680E0985CF73
:1024E000B3B0FBE001C00C88F610400EC477AC9886
:1024F0000330F698FC88FF1D98B1840287DDFF0247
:10250000E0B83036200660B308B20C1936E630A0C9
:10251000FC37010420DD46D1A66D6F8B984E0BFF72
:10252000CCFC3066101822B7FF18FF7FDB07C0779E
:10253000D9C9BB49B002C3B4B1F8FBF6A140C12070
:102540005ED8F56A19D17AFDC5751795EBF5C045CA
:10255000A62C861F32FAFA20800C90F9C9BDB783E9
:10256000DB3545F90F860B18FFF87D033066C35E37
:10257000E91751FCB31201981961AF17CA0C7D79A4
:10258000840D40D195FD441018869F7F5DB161CFC9
:10259000990EFEE577CECCFDC040CA58EB806BEFBC
:1025A0009858F90444C08090B2C0D661041AB51995
:1025B0002AFAAD6204066C49364167A72C304C2FCD
:1025C00057B310FD7F0C800711DEE26FC6301B7B16
:1025D0009870F85DFF6AB661FEAEAF09E4CA21A348
:1025E00019F621EB4461AAB3F83919DD0412E19818
:1025F00018207717DCFF6DC574D6FE1EEF4880B03B
:10260000B4FDF0989B061027EC7F35F49831DD6619
:1026100088EC9824420B937F801EC355193A6BAF08
:1026200020049E1666981013DFA517A7FE98B00227
:10263000BDB3FC6DED98C003B275F0D7CC982F6E8A
:102640006628FE3BFA202E58837FED980BFCAE41A6
:10265000C8B20416EB241B7230FEBD988602D01E51
:102660001A61EFB08CF3DB9880F96F3C9873C3BFAD
:10267000019840AFFA45989097C2B3EE4604C3BFA5
:10268000799830FB044876C310C0DC18496D61DFCF
:102690009798F8CC8401A005B3296A1319087F82A2
:1026A000986996C817AE6558F79888071469E19835
:1026B0005A7A9840C35F0198F97F27300163040379
:1026C00046661E7B9820FB5E98BB10C89869BC9339
:1026D000C3BF6B9818F9CB983EC844026003CDE5A0
:1026E000304185876A7E7FFAD8BFCAE3300D7DE42A
:1026F00008BFFC9430F0A7B2033830C357B310FBC7
:102700000481408424F9FA0B0373EC2060CD16EDAC
:102710008439CECAF8840171CA46C04DB310BF2DAA
:10272000300472C1F362097D3E80AF91DFCCFFEAD5
:1027300098B1F39873CF800C355A0904AC660279CE
:1027400066E04DC2D0FB17E092E5FB83DC66DFED6F
:10275000CCF9675063EAB38066B370FFFA3043691F
:1027600071769AB3B72832664C116DB330B1FFC59C
:10277000DC04855F26D7BCFFA54B801C657B2C3C09
:1027800001E3F338D1C6D9D38010666090FFD889B1
:10279000FE240166D8BAFD249166B3BA8008D486B7
:1027A0000B40930C2F6B6638F8CD5448EBB1CAED53
:1027B000B80885ED6613FA824FEDCC98FF321260AF
:1027C00081FDCCB8FE824FCB7F66039DB304608C45
:1027D000B3B0D84C5D668091403620085A6002C381
:1027E00037B390FD20777BFD1080027D14FDA6F0AD
:1027F000619BB378FD0221BECA96C2685658FF6835
:1028000019D8A8FE9E58FF6BFBCCFEBFCC025D8B97
:102810006082FFD878F987ACE550366DB388FFBE8B
:102820008AC10BD698FB0C9DB1B001C0B3C0A1E327
:102830007DF4FCC3C6B3B0FDC0E9DD96028229B3C6
:10284000DFCCB3187B650161ABB380FC6096196087
:10285000762CB30210FE32C3CDB255B47A6CB3FA03
:10286000144C1910F5FBB8604D761780EEB2F7FFE7
:10287000804061AF6CB058BFD87F047DAB620A0462
:102880008319F7960803412036FC01CB66400CCB38
:1028900058F3D2BC1930C0A026E8148002BD59B04C
:1028A0007E41D80830F2BF6005C090F38111E83F47
:1028B000B32004848280E3580102B7EBF48CB22F7A
:1028C000D4A201EC6570F8133796407FC1CCA30405
:1028D0001C2FB6F20417F76490FC462C41BA879B74
:1028E00049CDECFA1C48B7187C7DDD5918F98131C7
:1028F000DB640C0486B3D0FBD3EC74110766B30120
:1029000020608CB1D8D8F887ACF38036C82FEC1390
:10291000B4158C1911BAB1CA3029F73BBC10FD5E51
:10292000B0BE425D66CCBD498406AFC431CD042043
:102930005842BBE3882479F497DB43825FE15D086A
:1029400004D9017946F704811028AC6606B4620404
:10295000062F9A1A8034B0E0142C47DAB4C8FB165C
:10296000E6B3DFD3B7403DA6543067EFDF810C6A92
:10297000838F400265ECC0CDD30C95FD0B76E3D67A
:1029800079029E40DB46048B2CED3966046EE377BA
:10299000040066724218BFCC30BD0231223CE58C87
:1029A0008091DBF826B6C611B07066EEED3022C914
:1029B000DFD58B600C71C692E6EB3208C8BDFE3CD9
:1029C000900129EBC0960F86E26DEA07BFC4E0D9FB
:1029D000413CFABE68EDA71EB0100F0428C670D99E
:1029E000D30137E6D81A6620F1039509F65E47CD84
:1029F000CCF3309DF47EED7EDDFAA767196665E6BF
:102A0000D617CEED800904D4B32324E0CE5BB329DE
:102A1000ACB314F1B323A5FEF782DEFCED40120245
:102A20003C98DFFB4704883FFD03200802AF259D4B
:102A300008FB97EFC4A0118010DC54FCDD6A196E0E
:102A4000FF67E962B6EDBE06B260F3DF3B3BC768E5
:102A5000FFCED620268CACBF5E7644FA65E76F8445
:102A6000016EACB3203D98804DB939F9FE9D8CC004
:102A700083AFAF3298B3F620623C4D479F9788D919
:102A80007F9E9827BCF0B2FD5FB934BCC0E99B0BB8
:102A9000DD2CBF7F166AE2EC48844941B30969AA7C
:102AA0002C033B84F67F424FFAEAB008427D663C35
:102AB0008801F180AFAC98418F6C9803E04392B5E8
:102AC000E0E0D7D79878F99894E64BF3FEFF1FC162
:102AD000B740F3987E6C31088040B38CED5FD0989E
:102AE000312F8B69B346C0BF2111A0B3B2A87E922B
:102AF000CFEDB101B2B310CC01B3099B3062FABD86
:102B0000981465723024DBF7150479AB9DEBD08007
:102B10006E01304D667E7F84070698FA6DC6FEFC16
:102B200030D80204D69A7EF13089EF2260FC77AC6F
:102B30009807AE5B300499E4E4B5416DC430D8B376
:102B40000213E6080AFCA604912001E3925F6D9847
:102B500026024CE1FDA3983C769560449B14B0108E
:102B60002DE630A6FBFC0A03DB9A3088113603D52C
:102B7000FE8288FE7F05FE69B79804D9804B140A4F
:102B80002BBA1704B865193C8074AF2B30E0CD9890
:102B9000800C6CE08143DB98013D6F1098D319DE07
:102BA00098D010FF152B0512E5300CC6663BCB30D4
:102BB000082CE625F8DED2B202B930166ADED84615
:102BC00080DBB30A4836E1B063E660FB77A0DD1036
:102BD00035E530107998B771204908EC06FFE37F9E
:102BE0000980DA4074E01C2004B2C71C66A0018290
:102BF0000DF0FCBE6CCD03DE16373924FFD9011071
:102C00003E786672A8103DFF179BD8CC8F343008F1
:102C100060E667AD19085794402CD03081B24F3B25
:102C2000E668F9BBDD222D66F830DFCB2622DDB168
:102C30000D1BFCED1245E0211FCCE0605BAFD132F3
:102C4000EA17351EE2305A5C24BEB34C84013006CC
:102C5000CFEC17310B46DDBE60120C99BF465030E9
:102C60000448BBFD8830C1C8E53003BF979899C5BB
:102C7000FE9836D305BC7ACB0F02C62CE660FBFC6F
:102C800037F59801FEE56E92A30C663D1981BF30C1
:102C90002DF57C98051097EDE5C1FDB78098B5211D
:102CA000F54B20AA1924E3E03C196DED263F37824D
:102CB00066F13067AE18FC6FE798731F04102DD0D3
:102CC000BFCC4906888CF1FCBFC88008ADAD78EC5C
:102CD000B3040ABCEDC808F9FC9894FB08FB2D5915
:102CE0008C19CF33E785A9D399E4989B94F0B3036B
:102CF000B2053CA5C9FCCC40D9D310CB19415CAC82
:102D000081A5F79330999EC828F804DBD49850C069
:102D1000BC0435D5B324031002671EB3954543EABE
:102D20009D4859FB0509E590FDB2C8F8303590671C
:102D3000E81401647C32667966A74E17E8601100DA
:102D40006CB61808B059B7FC306FE398F381D80C13
:102D500020879C98489B1E88583F8730E6A8FB67D1
:102D6000F030B7A6586620CF167DD958CBE6702F25
:102D700097308C6EF046D5DB8C31E010D8875BB194
:102D800034B3024CC6B21215E585CB30FDB2C8DFB4
:102D90008830C2FCB5E7F6D60611CFF5EF06E5ACF4
:102DA000EA980CE030161057BB7E0644FFCDDDF8E4
:102DB00030E3F61ACBC9184DE501E390D9C86FCBC3
:102DC0003003BC98DF92D662FDCFD51281B6EBC13D
:102DD00060C5C96195F8CC091A29FB37EFE330D6F5
:102DE000FF06407A567B660430BC2288F3322FEB14
:102DF0007DFB8D9AF82B96308C4E96626CBB49F613
:102E0000668049336F6C98108CCEFD1720302132CC
:102E1000FA9FCB30075F7BE403E0011C3966606FEB
:102E2000EB9878F9300865797E7A4B04CEE5300668
:102E300093CB30083F8C30CCB2C887E4F333FC6FBF
:102E4000CB30116CDA7B0298B3970D30ED09AAB341
:102E500044CC67B38089F3D0F9772D30147830FFF4
:102E60005B9820FF14882467751771EB762F44B8A0
:102E700030B6B359C83E9873F3E0FE7FACEA019ECA
:102E8000232B587546109E6564F95A9E96D788FD87
:102E900096D29E6CB85E9865FD929FC430414923DE
:102EA00032605E7E2BF62CA8C6E6F0FFECBBE2CDCE
:102EB00098CDE6F3F3022C66FDB4A0F378FC503213
:102EC00033C61AE640FDFD3201B72E308CD538C42A
:102ED000B32E8801D93011FD17FC320910C28418B5
:102EE0003717492C2302AFF71801A0FF7A9803C4C3
:102EF000B83001F3B11C1CF0C88007F0271EF6782B
:102F000040D70FE4998B7C16C528F97759FE5C30C1
:102F1000B2047DE508623C30DF06C1E7E599F38D38
:102F2000E650F993C630FE4B6E1919892DB3C01BBC
:102F3000B32C8839B398BBFC8030B2B930240D91E2
:102F4000C6307FFA7F098090CA5BF4DF4825CD8CBC
:102F5000342190E6CB9080D04E0030C9E530021885
:102F600058D71F49A4C28367B8E71018FB0EF3C5F2
:102F70002B8D30FF106446CC7F68640CE05F16A98F
:102F8000FC40C1650D19D3C8C219EBCAE430420632
:102F9000A6E141A8BBCA88016BD5FBACFC2C24D9A7
:102FA000FA0A3AFC3AD352FAFD7F097DF9DC305F28
:102FB0007FAE11ED86C2101FB384113001026C3B4D
:102FC0006FACAF0106EBCA1805BC17409009B2F40C
:102FD0007B4A32DD2108C2305DCBE530F0B79698F0
:102FE0005AF51B64E725E801A33C63FC9857D39985
:102FF000A57E7E2BBDEB7FEC12AF449806647898DB
:1030000056ADB35002A91971301F669EC80C8201DB
:10301000CDE63069FE8DFA163A41ABB3466FADDEB0
:10302000B7E3FDCA02B119DE6B7BB3042C3BD3209E
:103030000523F37F45E6A0B1FBBD3225CCB37DFF70
:10304000F8D7FB20130F7402405EF7B3018CF3E353
:10305000D11C60D398FF30481BFFB324048666FA66
:10306000F92319589520A75FB2D63522D1DCB8FCD8
:10307000CF6CA02CFFA39314599F8046B563D3F067
:10308000F82DF7CC31E5BE018A1153BEA9D3944681
:103090004DF319F98287EC3240A3390916FF01225A
:1030A00001B0FB4BF3E50563B31F3D19E3046B96D9
:1030B0002F20E2D8B0F9607FB1025F017CB8B0FD8B
:1030C000C431C594B3DC66B110632C0996A840AD39
:1030D000A450F8BED11E4297EBA7041358C810891C
:1030E000E4AF43C3D160FCFBC0AAF7405019FA5EBD
:1030F000B7468F21FD9A05066977CB810A65463070
:103100006E5B40E7622818FD6B9BFA4137E4A0EB49
:10311000798044678C628284A5BBDC621DF4B12C8B
:103120005BA939711EFDBC02B3C496218014F6FB65
:1031300002E6F268FEC5FEAA829DB3FE4D47827E7E
:103140006CAF82E586402C18E444B3589A46FF6180
:10315000FFA8982033F370136C7D88F9BDD8C5089B
:1031600046AD62CDD698FB85DDB4634B19FF2BF6D7
:103170003A10528C10C53617D8E2C48C5237E37D12
:10318000CC97BD9B4866F818F5C1028919BD424726
:10319000B4CC7660D0FA0A179E71B8B308F9C704A8
:1031A0001E28C63F7F046186D89614FAFC6798FFF4
:1031B00055EBE38804846601D866FE5CCE2CFD5492
:1031C000688C666DB31461676CAF888F594B42E6AB
:1031D0007A25E69735BAC6A0E3CA0D72C61B13ED71
:1031E000170489E5F3863A00DB70FDFDB3EBAB8095
:1031F0001EE54A18BFE48204D406499B7758F0FEC6
:10320000652C4E04647BC7D3442066F9657E90022A
:10321000F5AE0CBFECE708F31B75382089794B1924
:10322000B3AD6908108FED508AB5DE50FAF6115132
:10323000E286FF7E593AD948FB9D90666EE40AC645
:10324000B92620B302BF9B70C8FC08EAEDDB1682EA
:10325000406F9072EC18585BA5019FFE2E6010DB4A
:103260007272C43DB88F08626B2F10D49B80C4412A
:10327000DB48764DFBE811E70894F8C50930A60253
:10328000DD13509A6B4480109DF71CCBB1033F2F88
:10329000FA3DA2C2024DB18004B18807EED70520E5
:1032A000FCCC09100804A5E4E1C0CA19202289A4B5
:1032B00051D4080C9E27F440280C108B4431FBECB1
:1032C0000310068FCEBC21FCF0F88D7BFCB1CC3115
:1032D000C015B320AEAC62804FDD3EB8FC40BF6F7E
:1032E000B7203D393C8062FAAFB5105EE901AE6EA1
:1032F000797FFB3A30FF100B76E2DC2896C2844FD0
:1033000092D59B7CDBCC9828DBF9186D82A8FCFE5B
:10331000A43B38D2583C5CFFB2FF4C3F3D2DFF3000
:10332000FC7CCDC80291CBA22827F37F01E8B8B07E
:10333000FB495966DC6BB3200AFCDBCFD6C2E8F848
:10334000C2E5B9208C360198FD472C5F03253BC6AA
:10335000ACAD53D67EFE41DC85071EACB309D2ABC3
:103360003C0CB30373AF27F6522425EB13041AF574
:1033700069D8FDFEDBC0106DA0E6D33DB69B7B3A5D
:103380006008AE0C237E663B6C763240FF607E5F49
:10339000E1FE7F800130161804C73236CD338C1021
:1033A00044782E0F6FF968FE37715847804BFB74D5
:1033B00001125F6648FFCC26C004186BE6F4122C9D
:1033C0001380F3B39BEEE8FA9EE507F14002D4EADE
:1033D000F6FF0604C7BE7FCC401970EE0EE081DB1D
:1033E00096D6F2C4624018C23EB312DB1968FBD213
:1033F00023C0C0CA0320086187D7CCEF98F859B31F
:10340000C01938619F9298FFA09BFC1CF908FCB77B
:103410005A87FDB38C7C6D8BA03069E098D7989863
:10342000DF5973BDB2B380D444E0BCE829FF04E5A2
:10343000C8FDFA84A9D4855FCC6FFDDF1AF8CC9360
:103440001601B7663F852CEC2BF398C9CDEE8ABFE9
:10345000FFCD98BF8C60B540FBE50ABC98DD5428D1
:10346000DEFF086F65978ED8BF55E698ED660BFEB8
:10347000AA0F18CAE8644C2BEB6476CDB8FDCAF5E8
:103480009801B79898601972C6E0C35CD87B019721
:10349000B638C8FE57A89803DAC23FD87F809FEF9E
:1034A000CC38E3CA6FDBD92118DC75FACC26F39847
:1034B0004D5AFD0872CA05C33F5998D87E98B50F7A
:1034C000E5301E8F2C67C04FDB9858FD5F3707EB48
:1034D00030093830C4D666105FB8988C90292C30EB
:1034E000DBE37FEECC48F852F706C003C9E5304273
:1034F00085FED57BC6F4F8627EF5B008C0B2B9305F
:10350000586DBBE31E0C0CC1FF8BCCFC6DF7FBF8B8
:10351000F2B009978030312FECCC4AF9CFDA3F88EE
:10352000F130866B661AF649BF160665E5C8869DBA
:1035300052DE18FEC366FAF2103B0CDB6633FF2D39
:103540007680B591FBFF0CFFCC08B6F85CC403F79E
:10355000BC21E758034CBDB242FD98686279C84669
:103560000C1817185B647DCCE8160F0C2CFD7F0C33
:103570009BCDCAF904DF8FB401EF938D108468E509
:1035800061A7FBCC50FC045FBB329BF84C024E0998
:1035900030056122BEB0CDDD96FBAAAA1EFDB04962
:1035A000B7DB983C202FDD98B8FA0893FE8C0C808E
:1035B00041C2BFD97F308D66F8FA95ED4B4C04AA15
:1035C000A609C2E3B3D622285FBB982120104EB0D3
:1035D0000AD39B305CFB3376BF801C7130B6ACFCE9
:1035E00006DFEC8C060833ED64E0A7D77F9A986A73
:1035F0001590D0E6C34F5A98937517B6B6AF02042C
:1036000086E61AEE96FADFCF98CDC840A21904C319
:103610003E7630E8F80457B69804011D6BFC3BFC7D
:10362000652019445A846AF610C33FDBCCD07A98DF
:1036300082034F3498586503A9CD8BEAE40DE6E682
:1036400088FADB2FD63011DF97CB0C7AFE90DF6E35
:10365000495AB30BACE51C59CC6062CBE70EF9308C
:10366000F8BB0892300215FFED6E08283649C2FFFC
:10367000DC320DC0B6723F66DDEC2C0208A7D825FF
:10368000B7173018AAA919CB66B8F830FEBFBED656
:10369000988039CD30E0018B0A192A5B1FFE002E7D
:1036A0007F9898EEB6AF80013466D959FB4B194C20
:1036B0005EECB798042F39B3C790B2F9B9300177EF
:1036C0002B11C036F1089C04629E98B1101E631045
:1036D0000120257CFC861EACB1C0324C6C25D8FB89
:1036E000BE5A3060AC361057CFABFDF3F088AEB4A5
:1036F00003FECC28FEE52EA0B6F656A09129C67D85
:10370000DD54B128BEDB64306E9658F5ED817BB890
:103710001602477FACE0818D5AF201AFCD21594EA0
:1037200058EDB48C42DA62B2FCF2C8BDB880B6077C
:10373000D949F35ECF6A666AABB9E8AB9036D3106D
:1037400027DDB110FA97C530F2CFB6DC468DA6560C
:10375000E250ADB38801EB841814F5985095B54943
:10376000DBB140DBF39008CDB3C86611C9F59840D2
:10377000891DB3F9F7F0B36364FFB3614679B6BC52
:10378000FF20CFAF80A4526C08B3A28CF3E3D11C0E
:103790004BD398660481FFB3B028485866A363D61C
:1037A000B17E9FEDE5F9DD37C9FAB1801AA0FE8E32
:1037B00010D0F3FFB334C8FF73FFBC71730B4366C3
:1037C0006FE254E0FF3CDEFEB5CF37BEEBC211E343
:1037D00090FC98CDFB2276840BFBC095FB32033C1A
:1037E000B3DFF6B3085AEA50C0895919206DF2B810
:1037F000FD82226B02F566FDEBF5010FDAB2408027
:10380000FBBE4CECC80420BD6CD088022F5766224A
:1038100076FD58FCBAA5B410FB640A0C5DC5D41142
:10382000DFC115828FE532016AEB66800CBC93DF45
:103830003B60D9FA3404C3A566B882591981E8B34C
:10384000B001EBF779A8ACB310111B6688FE038FAB
:10385000F67F896919869C747E9215F9FCC17D19E1
:103860000861A2B318CE30B3D819E6F95CFAC09F4C
:10387000F3E50FF832CFD51501827F6CB1023CDE43
:10388000968004DBB214A0FDC36EA5077C4483CFF1
:103890006C6420212519FE02FF7F8024FD5A12123C
:1038A00018C65FFB7FF904B51912877DB8667EFBE9
:1038B000FDD7FA760804F09B9B804027D68B04172F
:1038C0002EA5485CB380B09A50FC0AE06AADF306BE
:1038D00001610733C46010C4016668AFD7BE06B982
:1038E000A60208885FDC40206123F2B18EC9EF2276
:1038F000DBD4624310CC18B8F866C2C532408B7F67
:10390000C090FB712C0B6DFA66D70210E3980B4F39
:103910009C6CC2E0FD4BA8C512F3A70B5BFFECFB50
:1039200004BF30983C50B3102C203BDD96FD97F639
:103930001F1DB667805067EC32103B58AAC82C6632
:10394000C808C3C5B39082D79FE5F6D31B7F2CD898
:10395000FD66EBCF244102D0C36FEC2248F8D5EFCF
:1039600030872B19A831196030640822F030D7FB5A
:103970006F08FB341996B7C0FBB7D834225819B377
:10398000FA3D3B45CB1008B37FD8D5B05866D9A0D7
:10399000FC6EF1E0011C0325190CB010ADB3E0661C
:1039A000B466011019B020D7FB7240FE38B339B3AA
:1039B000B2080CE13AE9646C9DB4B61028A69817D9
:1039C000F7B69820496BEF8CFC635E98B6105A5C92
:1039D0000CACF806C3393966FC660D0AB308B6AEFE
:1039E0001D023283FC8FC79D5528FF049819AC3007
:1039F000DABC229819FF995BAEDD0BF804CC0E46B9
:103A000076F0C0409FFEB101CCAF79336B5BEF81A4
:103A1000FB3BCD98FFC90F5FD5B120BF31A90F592E
:103A200098088266C1D9660C63C61A7FF67F8BFC44
:103A30006BE008105F7A6EB3B10AB5B3449AEFD960
:103A4000B8FEBE98CB3404B34253448824639A250D
:103A500066B6F038FA7F8D98B320BFAC98202CDB87
:103A6000963166602BC0EDB814BD03A6637D17D9EF
:103A7000C001FD64B3087D980422B0B6581990E7E0
:103A800059B1CBE10237F57F49DB17A07FEC7F30DE
:103A9000016FFB7F090231EFB0B3FF7D983C6E7080
:103AA0009B0F5F3C1BDD48609FAB15FB37B6FE30BC
:103AB0005A6620C73C98CD6C47E1FFD3E0BA64C298
:103AC00063193FEC7FEE5230045608C24E3330DBB0
:103AD0004950FA1330DAD1FFB8B3FDBEAC6D69A01E
:103AE00016B30217E7C878F967266C025204C24081
:103AF0001916286AF04ACDD5AF116D56AFE6324C93
:103B0000A9B0C70C65EED9E0E8B9C8D9410C1E9838
:103B100036FD3C36B42CD3D6EF70FBCFCBC82BCCC4
:103B2000982CE63081F9CD57E02018304EB366BBB3
:103B3000B240F810378030327D9834633AB36A6609
:103B4000B2109608FF7F1B30F99885A6667F5E1736
:103B50001EB7A0E4303C0615F330B8F9B30CBC0432
:103B6000DFCC987966A06736B38AFF6720CA855B89
:103B70000A7E322CC6F377604BE5488C619E762C2A
:103B8000A8FF086719303E983BD90C0818EDC520EE
:103B9000A72C30F09CF657F0FD187F9BC5F9988450
:103BA0005BE6B2C056EC017640C881424061B3B3D7
:103BB000A8FB6772304159AE1C306167F67F88FB05
:103BC00077594359C801857DB15FCC677998BF1E8D
:103BD0003016615AFF5858B3B797982C26042C59C1
:103BE000B3EABAAFB83166D4696CB5302C60B35063
:103BF000FB33FD98B001AF58B1F66CC880D4EFC864
:103C0000B1666F3198FE8017CE6CB389FDE5B310B5
:103C1000B0DC1B021E33B39B4888FD29CF01E42092
:103C20008034B366BAFC810424B101BF599845CBF6
:103C3000EFF93F8C309F6CE810202A011A38D9F830
:103C4000602FF2026040386FBAE40F58A61057E0B8
:103C50004B36FA0C5219A06D260597190D71C08DBF
:103C6000B6B309016BEFFC8464BAED0C80416D19A9
:103C7000C048BBF230B101B5B3319AEFECD0FAE8ED
:103C800097CF0FE4015C3DB5F0F598048EFA98E00B
:103C9000CE769540FD984AED0C631710AE30AA978A
:103CA00056AF817FEC7F80B4B3280B0273B31FFD46
:103CB0007F059DB882F80CBF8D7F24971105727621
:103CC00009C20E593020CD19A0FE9FF41266613151
:103CD000FF9AB2B250D5B303D7DDFCCC572C0C02FF
:103CE0002D1BB4C4F935A304B5015D660AF6CCCB2F
:103CF000181012EE728044CEDB5A2F9E7D8C82010A
:103D000030D333F00B898CAE043C7362C5B3BF482B
:103D100067716C97CE7D0F6040BCA5EF7B48037A3E
:103D2000400FB930046A8CB5023166BF5998D0454E
:103D300019DBFE0195B620F8C260740C19DA800414
:103D4000AC020249194166B6B328FE63B34530BFE1
:103D500005E4CCB31C2C02DA19208BB31108BD98F2
:103D6000F0B1FCBF0068CA31B3F6FFACFFB3888086
:103D70005F52D202403C01CE33F38CD171D3988094
:103D8000FFC120FF6CB32C121866E3F88C121D667D
:103D9000C9FA0890A06FBA2602F3FBF641C6C066C6
:103DA000B39D66B0FF1891E78599EB66B11677640D
:103DB000B3FD604AFD3282D9B39427B008BDB35039
:103DC00068B366714986CBAF0804D51920823BB32E
:103DD000B8FD62BFCD63BA65627FE3B3881B19800B
:103DE000402FCCAB2D5BB190E5C8FA6D8124616E9C
:103DF000BAB00681B3A06BF15A9FA0FE7BE8FC80AD
:103E0000292602A301221B59151046ECA6C4ED1960
:103E1000F81295D66437E6F53FFEB668FC02CBFA99
:103E2000CC31AFEF589801C7EC32FC18BA64C58C9E
:103E30000F6BFB1238FD04B36602C4B3C67262C5D1
:103E40007366A8B3FE4CEF3AD653D8FB58A124F1C1
:103E5000CA8259B38746C26B77FCF961C2B540C4C8
:103E60003ECCCEFB3C0D89B6FFC8672CB308395851
:103E70000A902CFA4B20C3CFB03229BA176C190420
:103E8000395814D8C7AB98016C3A736CE3E5E13844
:103E90008AEF4980106857615EFB9090FE081AF324
:103EA000660B1B19D0FB05AFD932405D3AB0044414
:103EB000FC7F010B101F59B680EDEFFA02B7581EB8
:103EC00020F330FC0A6BF66D7EFEDB0442801008A6
:103ED000CEFB451B6D6688FE3E2B6C2918B4E8604E
:103EE000E0FD41296C052068B3F5F30194EF77ED0F
:103EF00032060497E3D27730F380EFCF7948B615D6
:103F0000012465FDC89AC49212F3CE33F84BD5FB59
:103F100038B2F816E2116ED86C5FBD44A8FD95B9B1
:103F2000EF046D41F31AFE702258F4EFECCC08C593
:103F30004E10C6B31BE5789FFB7F0209FCB6C7FD98
:103F4000883860939DC880308266D996DF9C6097E0
:103F5000AB624023EC0D2EEE6350F9CC33B67F00FC
:103F600008615F761770FB717F873A05D9B8FFC685
:103F7000930426562E98C874B3B301BAFEC3A5B3F2
:103F8000049DB6490B192E6798FF1FA6B307EAB325
:103F900010C121B3CCB0FB8DD90C6AF8B106B5DAEB
:103FA00070849B49B1084EB3BFB7E3FBB00C4876B1
:103FB00019E3F804090DB3C9FA825EACAF18121BFD
:103FC000B3B3FC0CCCC90FDEB0B14AFB32026419AA
:103FD000C127BBFED8FB02111980B00825BF7F03A3
:103FE00067ACEEA812BB6489B0FEDDC58CB3019648
:103FF000EE411C7E320FCF6CEEE0F83731B30DECA2
:1040000010F2F9125BB3D0FB0D33C820B10216EBEE
:10401000A8FDC080F598C089ACEA101272C8BE7FB6
:10402000C34E51CA0BFC88FAE508C3351903897FD2
:104030007F28FAB01845EA676CFFA1FD3DEB1A0F27
:10404000FA17C0FDCEC881FEC18B6CE31FF3C8FA1E
:10405000B0F95CFD32168FACCB8855E870621FCC8E
:10406000D806026C66D9D8FDF957B107E5CC308B7C
:104070003BE7E0FC083C66C37FECCCF0FF436CD030
:104080007F9680022C4DB3F8DB1901041E587F8007
:10409000ABE7C8FCB00445D2FF4BFF50190472B324
:1040A000D3AF03838C307CB3CFF3D11CE503808E78
:1040B000F17DB7ACAD0122588DA8EEAD6204566615
:1040C00002113666E0FA38476AB3B0508DB328B0B3
:1040D000FE8C660308F9B6F8D8FB102439B3E8FB68
:1040E00020CFAF80E95202403C016719F3C6D136B8
:1040F000D3609DEB982C048666F2F9CF31CFFE5D3C
:10410000B980F6BC25FE2638F928CE31A0E36673C7
:10411000B53D6688D8FB18247FCC91FE604AFD32FD
:1041200086C6B307EAB302C121B3B8B0FD5A581925
:10413000014CC6B12006ED88FCE5FA0C862BB34095
:104140002DF21866986659DB0F881176EC18FB0281
:104150002FA667187F7FFF106091FB7F88067F3056
:104160004B3F4CB30FD6B3DCFBC0CC30193F4CB344
:1041700012B97DCC6077F9E58F98FFFE74EB88FE6D
:10418000FB618E6CC58049EB08B0FE5C5819046E6B
:10419000B3B0D87FFD7F208BE67B12C12166B9B01A
:1041A000FC455CB7401981FB036636EA060242F41F
:1041B00060C53CE96DDE04DBE080012105D0DEFD59
:1041C00080A861627980C51DE910FB20E6E2086BDA
:1041D0001530039B8C300985B3028243B3B8FD6070
:1041E0006592668008C4B9C490609819607E1FB358
:1041F000CBAD0109D7B80998FA22B66608023BCBC5
:104200007D600A57B30E983622B766010466C8FE71
:10421000C67763116142B306F566F88C36DFE001BC
:10422000147E7F05F5FAFC8C986650B4020AE5FB13
:10423000888221B3AEB604FA102EB4B008ABEF7F7B
:1042400058FAFE46D4B60CFB981AE0B6165031CB9D
:10425000CA032BCD6C8C326FF9CCD8FA8B6084FFFB
:10426000B90499A3B1FC76938C01030B7D9859B1E5
:10427000F87FD1990FFC859E98C618FD633F8B612E
:104280006FB098B3FA1821ACB30439EB173F8F1015
:104290006CF688FE3833B4FD98B861CA6660CEFF0C
:1042A000CC70FB086091ED98D0FB870DBF80059B1B
:1042B000ED98C0F98666B87F1E10A8ECF0FD0438B2
:1042C000596601BFCC964866086BB304D6EFFB086D
:1042D000BAAF7E587B3B79988FF76410FD6093EB03
:1042E00098F20E7E7FCFE53098822AB305F6B3FAB6
:1042F00004C123FBCC41F804456604ED66FB10DDE8
:10430000AB623C55B00CC3DB9888FF04EF59988032
:10431000FA7836551818FFCCD0FD60939BC8B2F9D7
:10432000CA26B3029DE30B6044861E98AC509BC81E
:1043300019073D1903B07AC7DD9870F918C6A87B34
:10434000E30360618FF0CC19FF1892B34058B36358
:10435000EB98D8045F5C4B09FBD854FA22F5FEFEBB
:1043600098B0FB25B930C1B0FA49E53089822FEF0A
:104370007F07E6CAF804C12166EBB0FE4BE3303D8F
:10438000E82077DA1A794C842B4A1025F4C880FD8E
:10439000C121FF98B1FF3CD80BC066B3EC40FF08C9
:1043A0001216669021BD494604DCCA7AF530C7C5AD
:1043B000C03C93BDF548FD9E19BF078F30DE363CEB
:1043C00010C7DBB3F04021F438D8FE048798CD56EF
:1043D0006601926680FBC121B308B1FF2F3098952A
:1043E000FF10646A2A85E6FBA0FA03048ED8FDD884
:1043F0008F98984CC0B360BB17E077586451D6CB08
:104400002FEB6B49BFE468629F7F6EFF6DF7C018AA
:1044100051D23C84E6F4C8F9C43D98026771F22C8D
:1044200066024566E0B281724BFFD826FDDA6680EF
:10443000D5B3506242B366CDD6AF70FAC716190431
:10444000C6113A19BD48FBFF629DCEB302CCB32121
:1044500073FFE8F920CF805F52D202403C01D8F3CD
:104460000B53F338D1CB33D38BF3CC9812F7E32C27
:1044700062669319166644C8625B146ADE638777C6
:1044800099E05E32DCC9F9AD661173F3A1DE8E816D
:10449000666480F373C6F0FFB30C8CCF38CCB7B230
:1044A000B06648FDCC98824FD8321066B307EAB3A5
:1044B00012F5F84087BE9A7F76FD28F90A2B19403D
:1044C000739EB80BC35D6D1510FECCB4F4FF140BD6
:1044D000441E59BD226EF2B8FA10FEB0D9437619C7
:1044E00088FD12091FCCD8A8FD2B79989FAB3140CD
:1044F0001B33C4F59A78B0FB39BA64C0FD58B301D8
:1045000060B3B1FE5EB048CC66C0E4F598DC8108CB
:1045100019607EACB380F4E9400B080C56B3D82A7E
:1045200066B18083CD18DD77908D7AE580C2D5663F
:1045300018882C661036E81816880BBF32B002D4E3
:1045400068B32EFEB1028D3039A7EF2D6FD110FF69
:1045500058F9207A1FBF08F626B09F32B99129C0BA
:10456000647F3902011E10ECB0109BC1E15C027146
:10457000C350FAB301FDF08861279BECAD31017F98
:10458000EF30B0FDF41FF3817F3098E3ECD1FD767E
:10459000CCB8FB10091E98B0CC24B796016466C84D
:1045A00002C3CFB782FD7FFD82421A80BAFEC121CD
:1045B000B2B8B0FD64FC7F200B041EF3A33966F98A
:1045C000606F6A1510FDD849FE3DBD668006101863
:1045D000EBF7415FDB8082F270F8C30519029DF6AC
:1045E0003BFCD5B0C8C3D6980630196187A6E5460E
:1045F0006601FDB555005EDF5B89D0FC0BDDB316AF
:104600000188A7ECDA04AD6966800519FB617FF6C5
:104610007F073080F7196D09E0817DC385E3B3C35F
:10462000016676B210D19C0146F618FF7F402866DD
:104630006A1310D9B338D8F8105FADC61018F9DA7C
:10464000BD41F090DD040190C5D70BE9A9093F7F7A
:104650000C667AE908C839FAB6036ADFD8B8FA4BAB
:104660009601E768AD2708D7E6C01AB384AB96FD7C
:10467000E0182DFF48FCE557BFA9D853F8243DFDAD
:1046800011E1FF85CAB32246609872B902F26653FF
:10469000FA0BF884093641011775647FE3302080F6
:1046A00016D42373FFF040B0039C01F3E081E2E6EF
:1046B000A8FF30B1B3307E9B2CFDB7BFF3CC88018F
:1046C000F0BA61776B6430DDFE429802BFEB73C0D5
:1046D000F38623F120E180013058609EF6E318094B
:1046E00033DFB1C0902482736B093064B4EA2924AB
:1046F000FBD868FF99B384FE846EF32B66EC6D4D96
:10470000B31C636BBAC05F1684C052A680B8CAC41B
:10471000D6191A34B4F120C804811DEBA68825B33C
:104720004C72F470C4F9CA40634EB340C408050526
:10473000C8C0904C84EB8CAF58D82EFA9F18E7CFA6
:104740008F3623F0200E7F17301B3DB0FF0F60180F
:1047500067C0303DC2401808A7C78C667E72A0C4EF
:10476000D6B30234B4E314C008BF56F4814B190C1D
:1047700001A5844BF985CEB3802018061203EF36CD
:1047800098FB524E7D3031041134FC86F940B5045B
:104790005A8D18755A360D48FA26D863B9C8B21022
:1047A000CB40CF8816B34D178D191C02A29284C836
:1047B000DAC50B6A8536FC6327EB4B581A5FB326C4
:1047C000B50BE6AADB91D70190B88B88802003B1A6
:1047D0003D6C621E047337C80E2DB8039709C820BC
:1047E000F3E07B0C2028F80BFB170697C2289923CF
:1047F0007D17A68851C3FBC2F7B316C044DD9820CD
:10480000F6CCA8B2400517FCCAEC0410FF2FF798AD
:1048100014D288B982B38147C1A9D3400F09FD21C1
:10482000808410A0FE861E9FB3C088EFB3F6A91047
:10483000FCC30F5B9880FCF9BCC154D7FEBF10D0FD
:10484000F804C2D119B3F7C4104808E475BDB9B46F
:104850004272810196064226B3B198A7B346C4407E
:10486000DA58043740301229B310B82C8E041740A0
:1048700090F86187A598F0E0AFEFD60C5756C0FDD1
:10488000320760800C6AAF08C31F5B98187EF32064
:10489000DFABAE7D961099FD85FE98FB46E044188F
:1048A0001127DD4B58100878DB9EB460C0FF20C292
:1048B000EF0198D0DC1892F76DBD998244170FFD77
:1048C000800408A8F8867E98B71032F3BFC298B06B
:1048D000FDBFC598B3AFEDF908CF5441B330D878D8
:1048E000FD5FCF3040C8429865ADDF6133C820CD51
:1048F0000A2AB39088F9988D3B6510C040FE7F135B
:1049000050AE14105DFF2C8891304140F860625E1B
:1049100098018D66C8F1DFC098B7F6980FE0243C87
:104920001CB0FBB0E3B7C0E540826996C85757603A
:104930003C7D3008D1FC2B850BBD98C0EE4418019E
:10494000365DFF7F052002321984B316E8FB04446C
:10495000D8E9C497D27FCF04C4FD98C06AE06567E8
:10496000C80D204DD340FF863E985979627E98EF5E
:1049700020FD60CBB03419D8DDC4D6B3F067B77270
:1049800018D07997FA4EBFFB8C292AFDCC8076FE91
:1049900011E3F87CDCE8086A5C751EFC2409B36945
:1049A000BA60FE4E500CE83008C4BF7F08A2424AED
:1049B00035B34A6698B34FB480A009E0FCCEC0017D
:1049C000E90302C47D980F36FD3C27E39885066510
:1049D0007B981EC85F74F503E4410CED9884017E5A
:1049E0004204CEEB635EB1917EB2FABECCD49C742D
:1049F000FCF8FEFA2C96E5D3018CADB32056042CBE
:104A0000DFECAF080B9888F601300A5831C430AF9C
:104A1000B13401B67D4B7582CDE05A5B4240FFCB8D
:104A20008D20041F11F4B1FE8DB1965566029A19BE
:104A300032B5039CB6496CEC985376E3088BCB38BF
:104A400038E8FF166BC54AB330D7CE6ED6EFF0FA12
:104A5000058488FD4E9C19B210859B7AA71B853072
:104A6000E3115332210CB596ABFF2434B9408B2CA3
:104A70004BCC068C2C9FBBDF95EA26CB8D09BEC1A3
:104A8000F79EC04490C00423F3414C0891EAE162D0
:104A90007C30B506F4980CB535356657ABE8B66B87
:104AA000053157A098F0790EC00319D39E60D3202A
:104AB000E0FE58E28FDF7FE6984FAD1A505BB38877
:104AC00001B6F3CAFC0CC09897A920F70C37B9BB04
:104AD000F9EDE38AF9987D9B99A7EAFA6BC411571F
:104AE0006FAAB0C078F70B61020CC12C96C4662E79
:104AF000FF6718B3FAFFBCBC4B52AE5502BC855AD7
:104B00006F82F36CF36719D166D370F31DB8FF8A17
:104B10007585866EFF98FE24C48C93346266EBF82C
:104B2000583154837E99B64B9C8027B835A1FE0C32
:104B30005BE0CC312E22FDE037E235D35AB5086B6D
:104B400082A8F9B1086FBCCCB1C2B6FF0BFF030B52
:104B5000FECC0317F932196090FFD898FF7EBD6430
:104B60003740D8FB98F156C3B710370BEBE2C6F4C9
:104B700019F8C2F47702D8C308907EDA9C6018B3A3
:104B8000222C14D83FFBCC7DC06640D950FB7B075C
:104B9000679890921941D519807923C6B9ADB0585C
:104BA000F9FDF56EC361BA63089BC418FE635AD65B
:104BB0009B0810F3C101A218BFC8CD4673B7024EBF
:104BC0007328482D76EB90FA77991C46C925DEB1FB
:104BD00050420A5E7BD8BD1483804AA9054EA63098
:104BE000AEE8FC0B0D3D5C40671F85F6323466B0C5
:104BF000089F8F6858A27163D6645934B701F04D8D
:104C0000AEB8F983EF5B17FD029FE95DFEED6177BA
:104C1000FD7D48010220C6B47FABC87C4C157BECFF
:104C200047F367166CD130FB1F3FCC026C4D2CF75D
:104C3000C7170848FFB002486C66B8FD2CFB381B4C
:104C400058E2187DCA304036FDEDFB98810DA76211
:104C50009F7196C6BE4AD880FC7E70B71058FB88FC
:104C600058665E1E633BC1B0B97DFDCC048C2CB38D
:104C7000FB67ECA02D2F9AD8CC4023B71A40D8ACB4
:104C80006602117ECCCBEBB10B32C1CF6C7DD8FD6F
:104C900032F554088A8B81190C7F3110629F607E37
:104CA000AC15802A5BB6802D1F05BC3888EDA6B3F5
:104CB0006CF0B0FAC16620B1021FD3C5406C10FB86
:104CC00061D7ADF420F466F6B23CFFB2BA3D04EB16
:104CD0009F405EDE93809028DB43C78C0CBF74221C
:104CE0008028F90CDCA014BB6A9D3DF0900108CD32
:104CF000B305808AADB3809B19C00CD4AE40D9D225
:104D000044817D68ED581552AFACBE044F7949849B
:104D100040877A211533D8220284DE60440180174F
:104D20001208D0B0FEC356FC406EE54904A8FBDB78
:104D3000084BFE0C3415D7D64B04C512F68AABA728
:104D4000F80C3BB1046C18677BCD50FC2BA8EC83AE
:104D50002C0817DFCDEDCB14C784EB88F946F40897
:104D60007AF97E981579C681FFCE09DDFEB0FDC7C0
:104D7000CC07636C4912F4AFC1F5B380627B975DD9
:104D80007CB0A8FF2D2E4DA6F4FCC37CD9C5088DA0
:104D90005DA1F8863BE3624A19406CA630FB32F510
:104DA0005E40AAAC80CCFFB560FA02D10490F82F27
:104DB000E088DE3041087D8E2240100105F52CC8C8
:104DC0004CB563E04293D5DE0278B2DBD81030B246
:104DD000E8FC3045A03CB49102580F0A6001280756
:104DE00005A01B14800A505CF3492CD0FFB9379BF7
:104DF0008131AE02D0E0CAF324F3E68542022E48A8
:104E000008F454F924E8A348C8C8E8F3338CBB2558
:104E1000CB793F4C155FEEE63183C3C339E018818F
:104E2000F815FFA002B4800A50012AE84005A8F353
:104E30001D54EFF3C0049800D91360FCFAFF17E08B
:104E4000025C800BF003F32EC005B8F3606CF3A195
:104E50000FF3B9C4E0FBFF0C9801335506CC40F4C6
:104E600019300365F3F9A9325006CAF3FE48836985
:104E7000300DA641CEFFCC0C9001FF324006C80495
:104E80001920039D64F3A441AAF3139EF31401981F
:104E9000FF58FF0411241FBECFEFD0E1DEBFCDBF0E
:104EA00011E0A0E0B1E0EEE6FCE500E00BBF02C0DF
:104EB00007900D92A431B107D9F71AE0A4E1B1E04F
:104EC00001C01D92A036B107E1F70E94D12A0C94CF
:104ED000352E0C94000010922201109221011092A4
:104EE000200110921F0110921E01EAE4F2E01082EC
:104EF000319782E0E232F807D1F70895582F8F37C3
:104F0000E9F18A3701F56623C9F5EAE4F2E0108297
:104F1000319782E0E232F807D1F740914B02E42F5B
:104F2000F0E09F012F5F3F4F80911D0190E0281717
:104F3000390709F444C0ED5DFE4F8AE780834F5F77
:104F400040934B023CC08B37C8F040914B02E42F9A
:104F5000F0E09F012F5F3F4F80911D0190E02817E7
:104F6000390761F0662311F480E801C080E0ED5D4F
:104F7000FE4F852B80834F5F40934B026623F9F0F1
:104F8000E52FF0E0ED5DFD4F80818823A9F1815090
:104F90008083882389F540914B02E42FF0E09F0144
:104FA0002F5F3F4F80911D0190E02817390721F1B5
:104FB000ED5DFE4F50834F5F40934B020895E52F08
:104FC000F0E0ED5DFD4F80818F5F80838150A1F423
:104FD00040914B02E42FF0E09F012F5F3F4F809103
:104FE0001D0190E02817390739F0ED5DFE4F50683C
:104FF00050834F5F40934B0208950F931F93282FC8
:10500000042F662339F18A3409F44CC08A3519F427
:1050100021E01FE73CC08056803208F046C08CE893
:1050200091E0A0E0BB2730E020563040220F331F34
:10503000442737FD4095542F820F931FA41FB51F9F
:10504000ABBFFC0127910196A11DB11DABBFFC01B7
:1050500087911AC087FD29C08CE890E0A0E0BB27AB
:1050600030E0220F331F442737FD4095542F820F25
:10507000931FA41FB51FABBFFC0127910196A11D73
:10508000B11DABBFFC018791182F2F3771F0822F14
:10509000602F0E947E271F3741F0812F602F0E94D2
:1050A0007E2703C028E017E2F2CF1F910F910895E9
:1050B00090914B02E3E2F1E0E90FF11D80839F5FE5
:1050C00090934B02089540E020914B0230E02F5F17
:1050D0003F4F80911D0190E02817390709F441E006
:1050E000842F089520E090914B0280911D01981724
:1050F00009F421E0822F089590911D01E3E2F1E08F
:10510000E90FF11D80819F5F90931D0108958091AB
:105110001D01E3E2F1E0E80FF11D808108951F9386
:10512000CF93DF938823E1F41092140188E28093F7
:1051300016011092150110924C0210922201109249
:1051400021011092200110921F0110921E01EAE429
:10515000F2E01082319782E0E232F807D1F7C3C063
:1051600080911501882309F097C0C09AB0914B0235
:10517000909116017091140150911D01652F6F5F80
:10518000A0E0C0E8D0E018E078C0E52FF0E0ED5DE9
:10519000FE4F40814A37D9F45F5F50931D01109252
:1051A000140188E2809316011092220110922101CD
:1051B0001092200110921F0110921E01EAE4F2E009
:1051C0001082319782E0E232F807D1F761C0242FD4
:1051D00030E0F901EF77F070EB37F105B4F047FDFF
:1051E00003C0492F70E045C09093160160931D01E4
:1051F0002F5F3F4FB4E0220F331FBA95E1F7822FA4
:1052000080738E5F8093140143C080914C02882389
:1052100099F097FF11C047FF0FC0892F8758823040
:1052200058F4842F8758823038F090931601709389
:10523000140150931D012AC027703070CE0102C0A6
:10524000959587952A95E2F7982FA3E0F695E7952F
:10525000AA95E1F747FF05C0E25EFE4F8081892BEA
:1052600005C0E25EFE4F9095808189238083109374
:105270004C025F5F6F5FA1E0942FB51709F085CFF7
:105280009093160170931401B0931D01AA2359F154
:1052900087E08093150127C08150809315018630E7
:1052A00061F4809114018823F1F0C09A80E20E9499
:1052B000A92CC098809114010DC0882371F0C09A68
:1052C00080E80E94A92CC098E0911501F0E0E35E0F
:1052D000FE4F80810E94A92C05C0C09A81E80E94DF
:1052E000A92CC098C09ADF91CF911F9108951F9368
:1052F000EAE4F2E01082319782E0E232F807D1F777
:1053000010921D0110924B0280E00E948F28B89AE3
:10531000C09814E2812F8A95F1F7C09A812F8A955F
:10532000F1F782EE0E94A92C812F8A95F1F7C0989F
:105330001A95F1F7C09A1F9108951F920F920FB618
:105340000F9211248F939F93809118018F5F809308
:10535000180187FF1BC010921801909100018091E5
:105360001701890F809317018F3F21F49F3F59F454
:1053700081E005C0882339F4913029F48FEF8093C0
:105380000001809317018091170183BD8091520A1B
:105390008B30A0F48091520A882381F080915B0ABF
:1053A000882329F080915B0A815080935B0A809169
:1053B0005B0A882319F48BE08093520A80914C0297
:1053C000882329F080914C02815080934C02809177
:1053D000580A8C3088F48091580A882369F08091AB
:1053E000560A882331F08091560A81508093560ADC
:1053F00003C08CE08093580A9F918F910F900FBE4D
:105400000F901F9018951F920F920FB60F921124B4
:105410008F939F938091540A9091550A9695879502
:105420009093550A8093540A869B09C08091540A30
:105430009091550A90689093550A8093540A8091F0
:10544000520A81508093520A8091520A882321F493
:105450001C98149A80E188BF84E180935B0A80E104
:1054600088BF9F918F910F900FBE0F901F9018953E
:105470001F920F920FB60F9211248F939F938091DA
:10548000510A80FF31C08091580A81508093580A98
:105490008091580A882329F18091590A90915A0ADB
:1054A00080FF02C0979A01C097988091590A909105
:1054B0005A0A9695879590935A0A8093590A809133
:1054C000580A8B3041F48F9A88E292E00197F1F705
:1054D0001D9A15982BC08091580A813039F58F9804
:1054E00025C01D98159A22C08091590A90915A0A98
:1054F0009695879590935A0A8093590A879B09C07D
:105500008091590A90915A0A906890935A0A809310
:10551000590A8091580A81508093580A8091580AFC
:10552000813021F41D98159A1092580A80E288BFA4
:1055300084E18093560A9F918F910F900FBE0F9038
:105540001F901895F8949FEF909365001092640057
:1055500080EF8093620088E08093610093B912B875
:1055600092BB11BA8FED85BB14BA81EF88BB87E877
:1055700087BB9BBB1ABA80E888B908950F931F9325
:10558000CF93DF93EC0101E512E0F80181918F01E7
:105590000E94A92C2197C9F7DF91CF911F910F91FC
:1055A00008950E94A22A8091620088608093620020
:1055B00022E340E058EDCA010197F1F72150D9F7F5
:1055C000C7980E94A42C8091610081608093610043
:1055D00083E98A95F1F7809161008E7F8093610065
:1055E000019BFECF8CEC91E0A0E0BB2780934D02A5
:1055F00090934E02A0934F02B09350020E945D2DF3
:10560000C79A83E785BD80E486BF87BF8BE0809320
:10561000520A8CE08093580A1092530A1092570A4B
:105620001092510A8AE08ABF80E388BF89B78063FD
:1056300089BF0E94772978940E948C2C0E948C2B21
:1056400081E00E948F28F8CF8823D9F477FF19C012
:1056500065FD17C0CB0126E0969587952A95E1F761
:10566000282F82958F708227982F96959695982748
:10567000872F8295869586958370892796958927A9
:1056800080FF20E0822F0895282F22952F70282751
:1056900030E0A901569547955695479542275327DF
:1056A0009A0136952795242735272170307020954B
:1056B0003095322F2227280F311D220F331F205003
:1056C0003C4FC9010895282F22952F70282730E0DC
:1056D000A9015695479556954795422753279A0114
:1056E00036952795242735272170307020953095E1
:1056F000322F2227280F311D220F331F20503C4FFD
:1057000030935A0A2093590A8091510A81608093FC
:10571000510A1D98159A08958091580A8C30C9F441
:105720008091570A8823A9F4E091530AF0E0EF5FD3
:10573000FE4F8081882369F0E091530AF0E0EF5F2B
:10574000FE4F80810E94632B8091570A8F5F809368
:10575000570A8091580A8C30A8F48091560A882301
:1057600089F48CE08093580A8091510A80FF06C02A
:105770008F988091510A8E7F8093510A80E288BF72
:1057800015981D9A8091580A882309F06DC0809160
:10579000510A80FD58C08091580A6091590A709151
:1057A0005A0A0E94242B982FE091530AF0E0EF5FF1
:1057B000FE4FE081E23FB1F0EF3F21F0EE2309F42C
:1057C00042C02FC08091570A813011F49A3F79F579
:1057D0008091570A8F5F8093570A8091570A8430CF
:1057E00090F12AC08091570A813041F48091570A84
:1057F0008F5F8093570A9A3FD1F425C01092570AC1
:105800008091530A8F5F8093530A992321F08091EE
:10581000510A826003C08091510A8D7F8093510AA2
:1058200012C08091570A813039F49A3F29F01092C2
:10583000530A1092570A07C01092570A8091530AD0
:105840008F5F8093530A8CE08093580A8091510AAD
:1058500080FF06C08F988091510A8E7F8093510AF5
:1058600080E288BF15981D9A0895282F809119010C
:10587000882311F081501BC02A3F09F44CC02E3FF1
:1058800009F449C02E3E09F446C02A3A09F443C03F
:10589000203E21F481E080931B010895203F21F4F4
:1058A00081E080931C010895213E21F487E08093DC
:1058B0001901089580911A01281779F490911B011C
:1058C00080911301981749F480911C01882319F1E4
:1058D00010921A0181E08093130140911C0144232E
:1058E00031F420931A0180911B018093130122311E
:1058F00049F480911B01882329F010921B0110921A
:105900001C010895822F60911B010E94FD271092B7
:105910001B0110921C0108958091520A882399F46A
:105920008091520A6091540A7091550A0E94242B6A
:10593000882311F00E94352C8BE08093520A80E17D
:1059400088BF14981C9A089580E78DB981E08EB9BC
:1059500008958FB9779BFECF0895A82F20914D020F
:1059600030914E0240914F025091500290915F0A47
:1059700080915E0A60E0782F7150882341F44BBF1C
:10598000F90197912F5F3F4F4F4F5F4F77E0892F7E
:10599000881F8827881F660F682B990FA15011F068
:1059A000872FE9CF20934D0230934E0240934F0250
:1059B0005093500290935F0A70935E0A862F089569
:1059C00081E00E94AD2C882341F184E00E94AD2C3F
:1059D00020914D0230914E0240914F025091500261
:1059E0002F5F3F4F4F4F5F4F20934D0230934E023A
:1059F00040934F025093500221503040404050405D
:105A00004BBFF9012791806F90E00197582F4427F1
:105A1000822F90E0482B592B1CC080914D02909111
:105A20004E02A0914F02B09150020196A11DB11DEE
:105A300080934D0290934E02A0934F02B093500278
:105A40000197A109B109ABBFFC018791482F50E034
:105A50005F6FCA01089520915C0A30915D0AF901D7
:105A6000EF5AFD4F80832F5F3F4F377030935D0AB1
:105A700020935C0A232B21F480E098E00E94BE2A48
:105A800008950F931F93CF93DF93EC01062F10E03F
:105A90000DC0E0915C0AF0915D0AEC0FFD1FF770FC
:105AA000EF5AFD4F80810E942B2D1F5F101788F346
:105AB000DF91CF911F910F9108950F931F93CF9373
:105AC000DF9310925D0A10925C0A80914D029091D2
:105AD0004E02A0914F02B09150020196A11DB11D3E
