:100000000C943C470C945B470C945B470C945B4707
:100010000C945B470C94624B0C94C64B0C942A4C8A
:100020000C943D4C0C945B470C94944A0C945B47A5
:100030000C945B470C945B470C945B470C945B47B8
:100040000C945B470C945B470C945B470C945B47A8
:100050000C945B470C945B470C945B470C945B4798
:100060000C945B470C945B470C945B470C945B4788
:100070000C945B470C945B470C945B470C945B4778
:100080000C945B470C945B470C945B477F7F7F7FAE
:100090007F7F7F7F7F7F7F7F7F7F7F7F7F7F7F7F70
:1000A0007F7F7F7F7F7F070007047F7F7F7F7F7F4A
:1000B000077F7F7F7F7F057F047F7F7F7F7F7F7FBD
:1000C0000F7F0E7F067F0D7F0C7F7F7F7F7F1F7FDF
:1000D000177F167F157F1C7F147F7F7F7F7F007FB8
:1000E000277F1E7F257F1D7F247F7F7F7F7F187F57
:1000F000207F217F267F227F237F7F7F7F7F7F7FDF
:10010000107F197F1A7F1B7F137F7F7F7F7F0818E7
:10011000117F127F0A7F037F0B7F7F7F7F7F081015
:10012000081F097F080F027F08197F7F7F7F7F7F6D
:1001300008027F7F081308117F7F7F7F070C087FED
:10014000017F080B7F7F08077F7F7F7F7F7F080706
:100150007F7F7F7F7F7F7F7F07037F7F7F7F047F1E
:100160007F7F1C7F1B7F7F7F7F7F7F7F037F0810C8
:100170000C7F247F237F137F7A7F7F7F7F7F08110F
:10018000147F081908200B7F7F7F7F7F7F7F7F7F11
:100190007F7F7F7F7F7F7F7F7F7F7F7F7F7F7F7F6F
:1001A0007F7F7F7F7F7F7F7F7F7F7F7F7F7F7F7F5F
:1001B0007F7F7F7F7F7F7F7F7F7F7F7F7F7F7F7F4F
:1001C0007F7F7F7F7F7F7F7F7F7F7F7F7F7F7F7F3F
:1001D0007F7F7F7F7F7F7F7F7F7F7F7F7F7F7F7F2F
:1001E0007F7F7F7F7F7F7F7F7F7F7F7F7F7F7F7F1F
:1001F0007F7F7F7F7F7F7F7F7F7F7F7F7F7F7F7F0F
:100200007F7F7F7F7F7F7F7F7F7F7F7F7F7F7F7FFE
:100210007F7F7F7F7F7F7F7F7F7F7F7F7F7F7F7FEE
:1002200008277F7F7F7F7F7F7F7F7F7F7F7F7F7FAD
:100230007F7F7F7F7F7F7F7F7F7F7F7F7F7F7F7FCE
:10024000017F7F7F7F7F7F7F7F7F7F7F7F7F7F7F3C
:100250007F7F7F7F7F7F7F7F7F7F7F7F7F7F08158F
:100260007F7F072408057F7F7F7F7F7F080D070B37
:1002700007237F7F0713071B7A7F7F7F7F7F7F7F27
:10028000071C7F7F7F7F07147F7F7F7FFF1F627F39
:10029000C23C006088FFFFA0089001324006C8C63B
:1002A0000019FF03050A4414812241CF068AF32076
:1002B0000365FBA00C94290034FF7FED81325006CA
:1002C000CA54DE1928E0A7A9C68800983CD36480E8
:1002D0000CF8B9C0FD00149802587F0B60012C8007
:1002E0008604040A3C0270D3F340F305A021E680A3
:1002F000CE4CB312E050C0DBC08628D1E05072D3A0
:100300003460D3B04E16B998FC130486FF98FFC52D
:10031000D0E51031024099E8EA401008310120B6DA
:1003200004808BE00829E4D898F9FC200E5BE5886E
:1003300023C78094FCD87236A8333CB38223F102E1
:10034000D00ACB2383165C14A025FF063A9E10B872
:10035000F972BC040880EEDDD12228E8FA260810E4
:1003600096A920C6EBE8E0C01311FB4834FE1061EB
:10037000C40608BC18E784709CEDD110FEDBD223C4
:10038000086720021A41F39268048DDE34B3115BD2
:10039000682008CDDF54BE05F6F390080251A5444D
:1003A000C821226D2566BAD780DCF6940803D836BA
:1003B0004C307A1A80CA5CF4415671A8AB3FE8FB16
:1003C0006EE4DB011812DB808284AFF7B1B325FF46
:1003D000302FAE835ECE08A288D0BF6A62112D4E48
:1003E000F8DDDC880814AA0F0836040A07112082F9
:1003F0001630CE3D1920106DFAF004F9608949B627
:100400002039A6A0F460FFC85AB360B3C5C044B396
:10041000A14CB30250B35C971A5126E022FC03E1D1
:10042000F3939904F342F4F3104180840CB006482E
:10043000DFF2CCC0ECD839071EC00181780F87E00D
:100440001C672E67E051FBF05FECF3803CC0FB7053
:10045000C206C081380BD2E201F3FADDD703B562E0
:100460001FB2E318100161F5400C8881F6C36A667B
:1004700001E3E075F330EEF3080340500EF3B2AC45
:100480003BB102DA6004FEE8886BAA01D82380053C
:10049000ACFFEF330902F3E5DA19C08457B360A16A
:1004A000E6A0F9214C8149F3B2483D9808B50A40CD
:1004B000F6D0FC4250A2084121D9B5B4DFCC5F96FA
:1004C00064F8980370241242638A0B6E120D58EF81
:1004D0005C8F6E17C03459FBC27E35864BF8064DD3
:1004E00028588EEF5AF083B6DFE8FAEDE60212BB29
:1004F000B31410F28250400A660B63E36110756515
:1005000079982363049AB0C85E0C0F4EDBFD083661
:10051000190308E8B31A182168140DC9670B19B23A
:100520005F3D989944354612D219C65E9319D9ABEE
:10053000FD1C8DDB6101BDCE08220124DD87627DBB
:10054000FEA5C0AE03FDFEF2B0201680B44860FCEC
:100550002E6D7699FFDDDD027840B77AD116C001A5
:10056000D983F6B33CBF31607319F0206FE198B4C2
:100570000771190218D0A316F904DFD69860E319A1
:10058000E38234F30CA967F9E497ED9881307A4E51
:1005900040C859E3211F32B7837FB3221804096092
:1005A000100CEC0200B0F11D6B6FE598CF40B00865
:1005B000064216489671819D6FBFFCD51AD0FB7F0D
:1005C000107E3F30BA430241FBC33F76989147A764
:1005D0009849E101929F44D40243A008C440011A03
:1005E00004EE5A7D41AC46829DDC0104A42C666C6D
:1005F000FF5F46D6C84F6397F890FA5E42364612C0
:10060000E9351884E460400C56567F59B13C30C936
:100610000C424163A3222941B3F3DF68FACB6B108C
:10062000B2EDDC19BCED963748221928EE765E4C07
:1006300082BB2C7AC0221019D53C20B34C1950F83B
:1006400048102E26DBE06221DFD8B811030BCCC5A1
:1006500043EB32E9D9E0247FFC7F8C8885300C8223
:10066000C02C8004FF87818C0210301248D1F9E041
:10067000E17915723078D5CFF0CD801EF379DDDECB
:10068000B33C88B4D3DF8B309E103C8807F0BDE2CA
:10069000029A38F360E623E0F8C8FBF07F38E557AC
:1006A000C534AF5C33666BFA7F88E23DDAE65A59AF
:1006B000403DD3A8FB8085A642D3B2237D4B0138B1
:1006C0000C048C2C40B35B00F898BB1978F016C86A
:1006D0001C88028BD08320D3F750F8A0811FE196AD
:1006E00008FC30BB02A90A7C34625E4C7FEB4243BB
:1006F000BFF3A049848840F4940212516938828182
:1007000084BDC4F9808979BCFE1E679B661B46F6D2
:10071000A4108DF37AECFF2F353698F3BDF8A9FEBF
:10072000B437FBCD125BB7406982FEFEBF31D515F1
:1007300090D734EE87586DB3815BD923097E4F9DE6
:100740001AF568248D46AD7F2D300854D3A0E431CE
:1007500066901DD185E408703E04281017B3FE8012
:100760008609FFAE7F5B30047417C0CC88772C30CD
:10077000B0FFDA324593AE660C04038110EB40C83B
:1007800042382760441C0250B01DB9F8A79C984617
:10079000DA7810961940C859C84BD00812F498104E
:1007A000BF6CCBEFDD9880057070305A7A2FF36DF7
:1007B0006B80F933F52065733020182CE8538F30A7
:1007C0003CD3B6D50A06D1C0807D1DD3CC2319FBFE
:1007D0002B2989E0CAA364FB980520EC60148C4B9C
:1007E00096300847BC4B40810931FD696208802082
:1007F000513FC68101B01030F9BBA0F9F95024E493
:10080000DB200AFF4E02515E988A81C4793001A331
:1008100034194FFC2A29A20586880599C8605934E5
:10082000AE21D3DF18FDBB76802FEE01350CF3CF60
:100830003C19BEA2DF4E09F0C0EC800C1BB8F8F7E3
:1008400028A06566C8E0061490B823B2C8CFE2CBF2
:10085000233019CBFDEF0E11A6AEF20318ABE65410
:1008600030FCBEFABD88225C6A6FCF302042400A5D
:1008700086685147468991FFD33AFA848081F69879
:1008800008225DF4D7847F6532F82DCE793093B598
:1008900060F10C59CE980446244CB9F7126725B87C
:1008A00044D6E5699EF84C80113410FF144048008E
:1008B0002060220C0331300F78FF6FCB30026F4184
:1008C0009890F216C08078D0C47830FF3BCFAB6EE2
:1008D0007E4907E2013D6070726906D0D30FD7E40C
:1008E000012D30FD0E35FC8C6106C96618045A15C1
:1008F00005897130AF6F9E03FACC4B2EC41A7F6509
:100900009811FD53C122193C309040191736304CD4
:100910001022B3DB1182F84BFD1E2930081040DF96
:100920005969E31E4DFA7F2C30D0AE2230A5D6FF98
:100930004401B4CFCF2FB3B66AE7A2210804C005A3
:1009400080E4902002C77C814CF9D324225CFBF028
:100950006239496139FFFB49B580CDBB387564A068
:10096000C106EA8DA00F3E509040E1AC0C4B4DAF5C
:10097000F7E3687954A3F00E604EBCD8FF80F219FB
:10098000F3C57FFF7F50201A48090801F60D841136
:10099000047A4C5085FB2F939C040882A4C6E80D72
:1009A00069807DC303FC5BEC69A671FF325F56E78B
:1009B0000B6111EF4030B309F2C8DC667F6C821125
:1009C000B22010C2C44240C40B41732A0A09EDFE92
:1009D000E081F2C8DFCB9837C858E5E88807196F7F
:1009E000FBF207B8302AE130D3AE186140401CE575
:1009F00098FBF0AFFB8C8360107F7F98040262202D
:100A00000C8281625E986EFFDD0C84E98BC4D3CAD0
:100A10001003A003E620BF618F30F5980BB74CB1EF
:100A20004C58C01860962CE020B3B285171944B416
:100A3000A66048695A7E1750B05CCADFA005A4BC06
:100A4000BD800AEF3D2DA550FD2048080901808C8E
:100A5000789893D2D3C606D780462B30487ECD0CEB
:100A600081050468E2FBEAEDB3567D988077984EE5
:100A7000E2FF0CFF3C5E084CA0F341030FFF0A406D
:100A8000FE253DFF120B139BFF329049EA08FD62E1
:100A9000FE987916DFCC22CEBD560EE7C001087E47
:100AA000FE04B510C90EC26A19271C3A1160EC8009
:100AB0000C3040635A027CAB6717F44C24B70477C0
:100AC000BAC50DA001E164B36C26DF0961CAD72065
:100AD000756648080BCDCA82859FF47F7A6FDF1751
:100AE000408805B08E20743D50086C0564C8DFFA5C
:100AF000FDE4C5CA2B58866AA63C891C4B83BF7887
:100B0000CC98FCC0C8416DC5309FD5813C8007BBE7
:100B100074B7611964D8F7D378FE801FB3FBB56151
:100B20004E27B7660810029662F323E6E5EBD3037F
:100B30004D75A20806C4EB0303FDAC30307AFC2DE2
:100B40000545D7A3A8B3D6E1187B0E124C821159E4
:100B5000B3092F19812930018444BF58130E212570
:100B6000203DC658FFA001C5A8EB98426FC07F800A
:100B7000E4124290DCB3AFFC9888CDD3B51F017F5F
:100B8000A19851CE92F98242BC98ECFBE134015C11
:100B9000FB62DA37B6CBC88CA96CFF5ADFFA9C0629
:100BA000D4F4FF65AA98FD78FD174AF11039431671
:100BB000A077519513C68E7918C219E52B44AE095A
:100BC000DEB320B65FDC4FCB38F880457793982FA3
:100BD000030C6FC93018647952BA1910D86ED3BBA0
:100BE000928060CBA8DBA54611C37A2F797E304076
:100BF0009BF86A7293287DFCA360018C66D50AEE8F
:100C000044CA05FE202124849130068D420C2EBF5B
:100C1000759890082393C8A531E10426C1AE2D3004
:100C20008D6C493B3429F8FBDEF011FC30BF0F35E9
:100C3000D5B0C2304DFE36505A6410B7AB6880AFA5
:100C4000AF06F698E201BD98F0157A981A360F684B
:100C50009BC6A8FF4EB217BCE58B664784B88401DB
:100C6000B630FE305002D419D911037AF3308FA96F
:100C70002352C6B755F92DB4564193C3B382983A5F
:100C8000BC6021F34B23AD625BB38084C019BFC548
:100C90004B262EB3C44EAA61D32080657C70668D2E
:100CA00019FF26B33CFF4E6CE8FA20B42756675D67
:100CB00088C6CA71F39CCE6304D388302FFD1824F4
:100CC0003BFF98FF280FCD66D6D39057ECCC24FF7E
:100CD000B1F9FF81D98064B79778FE97A0DB9EEDCC
:100CE000028D9BC0ACD308F2B52DFFB5963CEB51FD
:100CF000F1B1446CF362E673E0841B9217F1FDC816
:100D00000406C3EFEDCC10FF8C81AD5F7560B6B902
:100D10002FF4D87266E9E8C576AB15FC0B3F0220CC
:100D20006519A8DF9ED930FEDC4F6139A8E5D5965C
:100D3000D24EECCDFFB34F0B125901C1CBDDC1C573
:100D400075B1892DFF40BA65C7D6FF4043F5F8FF5E
:100D5000635E5DB040B156C8B3FAB4D9465661225D
:100D6000C504F07EF610EE7608C8F8CAFBCDFD8407
:100D700080686C590C629F30DD0280A482FD05B84A
:100D8000AABFF636D08057A8E560BE8B96AF5DEE61
:100D9000F02028C48BB3574480A80003B38BBB3921
:100DA0002E5A08F31481D398D9F8803E86D00402D5
:100DB000F8314478B4D897078B0F10221A402221BB
:100DC000B62AC68928205DFC33B91230945E0AAD7C
:100DD00080B2497ECB3971637E8D6FC7F5912AF25F
:100DE00094E81730FC6E072D9DFEFDD7C173B3CC80
:100DF00066ACBF018FF7FBA366BD95FECFF3ED0B8D
:100E00003AFD22FBC97FD9B1FCFEAC6FC75098EE0A
:100E100055ED4A38FA8C2CDA082E765618FF105FFA
:100E20005866E69826EF36EB74F8177DDA9FDB4DAF
:100E3000246F8B28D0B3F9BAC2C25EB11E2530A888
:100E4000B96697E790ED5F8448B702ECAED873FBC4
:100E5000BFD85C5CFF812830B1F95E31088FBCCB14
:100E600098C9D36327E50BB3872BFF0133F60788B7
:100E700016EAAF04C6BD4598D8FF20FF99B9EBB27A
:100E8000105D33639DA210F840E6F918AC1C02FF18
:100E90006C24D8FE2E31BD96E4B8FFC6FEDEC2C675
:100EA0009798FBC38CB3C9FDBC88B0FFADC5206665
:100EB000F1A8B71A50AC73FF6BD6031816365A4018
:100EC000FE2289B120C507108B7F66B8FD61628361
:100ED000C0CFDAC9D237D845F460F6D831FCAF9824
:100EE0004F65FDBAB0FF19C8FEBD7E76BA02083F55
:100EF000E68C638C20682C1954B4ECB09BB5FFB819
:100F0000B1F8EDB3BFCF2B3395B835F6E718FBDC5E
:100F100033D376A2013DDACC08EB1F7ED9120889C3
:100F200097FCC17F43CBB2108686FF21BC2358F6C5
:100F30009165E96981F6DE0201F20208DDD7BCCBDA
:100F4000FBA0B8D7731037D6248092B3EE0AE0899D
:100F500002B3BF1B28C601159930E840D081600854
:100F60007A7EA0EF0BE5044ED10548FFD873749745
:100F7000C0088ABC20429A170180590E0DFD75B831
:100F800021D33278E0460181603884C41C8C108201
:100F900018D598A054D03276B0FB674B4D9BCCB39C
:100FA00023CE2B8040C8FB51375362081A4071EDA5
:100FB00097BB22103FCD345646018CFA100452F9EB
:100FC000223DEB2C68B0FFAF8C8853364E09BC77BE
:100FD000C174F9B004D38D41F359106EFBD9E8FA0E
:100FE00066DF1E6EE288C574FCC33CFB18D8FF08A0
:100FF000020B167804FADF9101C6368840DC9B5F4D
:1010000077D8B0F973C67ECBA70356F518F8CF375B
:101010003DDD284185DAAFD1F0F8BB86ABFF8039E2
:101020007D90B0FBB736D002320CDBF8FB2C57803A
:1010300030CD2F409BED3930FA85872597B3192E97
:10104000FFC577763A6CFBEB9208308D8CCE7DFF36
:10105000887FAD06040B5D8B77A9B11F907BAF2213
:10106000807F67EAD0A9618A7A3E80C415AF24D414
:10107000C5C39A60E30167C79046F11A41D11009D0
:10108000D4736448FD7A7C40CB58CA20CF6D9D3024
:1010900078C9DC208F662668C9D0FCB479D7F28283
:1010A000180FD51B062FF658F80C8F1DC9A9B106CD
:1010B000D004A3E3C64F5E6F03819B09ECF8FB03EA
:1010C000401201D78F5A1D11DD130118C8C79C5A51
:1010D000B8D38828C6100142C4D01171820961ECCE
:1010E000F87285300AF5E74860118C6AB3AD58276D
:1010F000FD5111300667B4B4B0108AFD19010360C8
:10110000028C03E07AB323E67049B01728FBE0CDE8
:10111000013CF670DF7081780F7A18F0071EC80363
:101120004EF6E08138C415671CF3C9E0D0FF037A9E
:10113000400FE2013D88CF0700F3C08318299EB914
:1011400020E138FB805A30FECC60D7F0DCC02F188D
:10115000EA4431E61FB87F1B92E06072E4E00624A7
:10116000D301ABD3B8FA7ACDC01325B380C002192E
:10117000B18B66B318416FD30268B34C88E09F20EF
:10118000502013624433D341F3A0E9F82008B7108C
:10119000E08812013FD29824201C8273DC48C741AA
:1011A00020597567A7B384DD90827E8C81FE90CC38
:1011B000F510D6424E8008248785F6A8FB2F4BFAFF
:1011C000493F09E0CF80FF16B9EC579BB3FADC0624
:1011D000FFB635E35B3F5699FC82EB6C33FC988499
:1011E000E8520490594C6F967CE6C8FE6077AE9842
:1011F0000E4EE905EE1480BC0CF79EB8FD08DC84A9
:101200000497DF5860E4BC4703D002A549AB82F9DC
:101210002D6793FF064008AF012798961005804A76
:10122000555AEDA502EC63E9FBD0E931963F18026F
:101230001360D7128CD3F5BE849801DE015B2B625C
:101240003DFE9812D3420BFF7F148C810430940929
:10125000B9D6DD1364EF4BB04069FA33A83C737024
:10126000AF802FD22F9812B8F3BD9F9038200FE097
:10127000410E10C4BD98705F02C0037A20E0733D38
:101280008005F416E4C80358AFD6D33CF7490440B0
:10129000FBE518082593731F86E79866120CC57C3A
:1012A00098FF236BD3C8E089EF35D8F4B8FF080561
:1012B0004EED640CE4E0D38541D0CE2058AD600102
:1012C0006CD34945B310951193D437D3E98C88502A
:1012D000B30133B304F3807BB368F97FCC4631129A
:1012E00005E598F239F293FB52F44940EB188F3E32
:1012F00030B4A0C69002BD78091B21208585925C80
:10130000BB9D82B748113D2EA40840FFAF2DF818B1
:10131000768EBE726FBD1831116E572A409F24E73A
:1013200040E5761E8CF24DEB08F9FC4AB5C0F29808
:10133000F3D2D5F390FBCC0213E230F42480791879
:10134000E005DFCC14CD1920C9C0A6C4A40F80FCD1
:10135000B52CEC8C49BBA77A8C3005EDE71875EA03
:101360008B6BFB0A26EB4408507A482088E02F312B
:1013700014C4CB5010F3B7F23207C2FDF78401302A
:10138000027F320523CD61149309702375D9176349
:10139000D3F10C821130988E788620C044780803EF
:1013A00038124C5945306CCCC404698B1A82404DBC
:1013B00022D758F98DDF6DF0726A03BD98E25ED2D4
:1013C00045F3C95038F3627C30F73C90077129D35C
:1013D00079D301FB3C8807F020CBC6878DC668FC1B
:1013E0004766F998B790C5235798F3BFA598C2628E
:1013F000BF0230AFC1A27BF3764D301079BC30ED27
:101400000208110EC0FC7F080F02037081628FB3C7
:10141000202244E001DE1EFE144C8811310046BC3F
:101420001EB73C0A5F97FC300288F9204807F8E7AE
:1014300035EF9881010424FAA006100092DD2D04F6
:10144000187B8FBF9834890491081A8050B56304C3
:10145000CD1002D7D07BFD200911666F2416FCF950
:10146000ED170F73F15DDC9EBF11B7DE10692D899A
:10147000A5FF20E097929BC6DB871DCFA0FE07014A
:101480000D69B43B61D10840BB78C545E670DC30DE
:1014900067FA97048E3B3FC5D5780197D6E6C860BA
:1014A00092FCF86645F337A020E6F524BBAF02EEC8
:1014B00006D048F5980889F1307345104418E81EA5
:1014C0000309B8987E46121B1A09B2C89F7E12DB28
:1014D000FC808181304690C1BAFF0B60244C8005AE
:1014E0009FB0AA02849820854321F60C0850B022B0
:1014F00014F301168242B388D76014D75F0930D342
:10150000878A9352B3F3213CF9BB60C8D203B93048
:1015100003FBE4811CA001BC8BFF58980197BB988A
:10152000A0037023DD6B800730D99B4336D31D3772
:10153000BDFAF16A6915BF8B98ECBE05BEEFB442E7
:10154000C44618D38496E0835700305F6DA4800AA8
:1015500021AF1923D2EDDBB30E849C73D028081F72
:101560000320820C2CE644B36726431B1101B523EC
:1015700044B346FB8818051322B7E390EB40E0FA2A
:10158000F049C05697B9B836222102312657D27C8D
:101590009A09BE4F163021C43930C0AF10E78C080D
:1015A00060712124868562BF147942208008CB7740
:1015B000F72A38FFADDD44F536106BAB2A60CC79E5
:1015C0004B8B7DEEF94BDC407323F71D40AFF97870
:1015D000E130E87FCAD6DBD288CEC880048ED8F549
:1015E000B83C888A19B2DA56CBC88719410524035A
:1015F00014904786BB9890F928979AC1E496D15FDA
:1016000020471319B860212C144966B05C7DBF14C3
:10161000910388E6048B10391949D341719D81E407
:101620008AF97FB90844A4C41F0BF5A02C90099E29
:10163000C8C024587EF361148C8045BE66CF7E6698
:101640004044C2221803BB172C5C10FA0226C104C6
:1016500098E3CAC0096B38FD8730B0F02077B298A4
:101660001003F3FCAFC85DC578CB5008101D66D3DE
:1016700003F0AF1330C6900537C61617C6A2983CC4
:101680006B58F98730ACC04069EA98843724E3236B
:1016900013EBB1FD6B186FCD300602B657C8AE6BB9
:1016A00079051943DE4202B39A4CF310CDC8080203
:1016B000E0B18156B3052262D498A3D34E03302201
:1016C000BB588023AEC17740DDFA20FD379182FE02
:1016D000985F5CD12642FB7F614884AD2131341F85
:1016E0001F983C90481209890881EB4024908E078E
:1016F000E6C20809E49A043DA8F9AF9BFAF9B8BF1D
:1017000028480452C4BC98FE16A06FFC306EE6E078
:1017100008D0FB67410CC8C24047EAE6C820F3B8CE
:10172000D0CE642C0C4FC598D6659B64A817723038
:10173000C0FE2130D0E6EE2008FF43661246C1B954
:10174000C8810AD0D344021711246279C8AFB0F51A
:1017500094449848F5F791347F8006C2441A08A350
:1017600022D0BD6B5235B309D7513E531360108C54
:1017700088B830B3081839D86012F3B1111E6B3035
:1017800030217FB61805034001BB2C5ABC20C2E6AD
:1017900030A3604FB5B9B040C0C1FB60F03C8801D8
:1017A000F2DFC53096D599BB87C4792C435325C841
:1017B000FDA7B898100FE21A3D90DBF6FC6B12F112
:1017C0008B97BFFBD6D240DC307E9808EE4BC875B5
:1017D00055E04126C6C1F304EDA74BD310A9FA7E0C
:1017E000F649C804CCB310222DD00201D3EC448EAC
:1017F000884DB3053C93821809CCD310D308F8E088
:1018000016C088587B1302B930B80398F935F882AE
:10181000D91080A359C80B3048D6240260F542C6BF
:101820008AC104411588E9176B8C9008C24340C4F3
:1018300001215CA4BB92A1171AAA01CFC80410E829
:10184000BCFCDDFE3830A05FA895BBF228D442F086
:1018500062BE982DFAD6E604A7EDEEFCFC038323C6
:1018600012EBBDEEDFBB41E0B87A080260E323145F
:10187000C87B0FF4191AAFFDBDE9B38047B3F32D50
:10188000D8F89524F0E57DD263C29AE804A0FA7FE7
:101890007BE11341248413F598307B212208C5098C
:1018A000136E49DA4060BEF71230F9840527082626
:1018B000C23F69112360020C5E8B4FAD8410112270
:1018C0005F9F0645CF2DB55782063910080412D305
:1018D000F04C820130C0040E480813BAF243C61B14
:1018E00008FEBBE05D0270401EDC6AF60F62803CC1
:1018F0009C9ABB03CC9843E5CDEDAF8D98D340DCEB
:1019000030CC8803560EC3F3387FAD98D03C98C8CE
:10191000E53D10C023C8F336402DC530F6F9FE78FA
:101920005A265EFAA303CC80F3DEFEB3B5E02FE0C7
:10193000398BBE8CD208A30C84C459B3043197FBF5
:10194000408818028B57B316C80826F3C6848BB399
:10195000B0B1FA5DA97598DEBF088530950E86E1B5
:10196000418AFE31C316B28408EF1EF62948812150
:101970007FF6029004004212D651034FC8D32422AE
:10198000C0BBFFCBAC8CAF9FAC04AFE82E7A317CF0
:101990005F68E50280E5D5CF0228B919FF1C98CD14
:1019A000E0F8BF50F71A06F13017F3C99F5F8C15A6
:1019B00018099F91E584FC100A0C56BEEFF630FB27
:1019C0009FF8304B1566FC988F2E22ABD81D6667AA
:1019D0001309C6F37ED2806EA2FFE0F40361E088B3
:1019E00028217CEE8A98BC1456E87D29D3F980051D
:1019F0006B028208FD18032360018C2BF306FFE8BD
:101A0000582012640844F33968BB64B9A61126C093
:101A1000D39121C6FA8C8211E6DDC11839D99561BE
:101A2000D9EE5E0189FCEF76D20770809E98DBE2EA
:101A30004179987323C28111B74B14096266F56B23
:101A4000F21FD3CC03013DBBC6C28BACA1C8B9E326
:101A5000BFF9C1E5D9407C3D37F3838BF39055B393
:101A600050B8B3AFFDB2A232C8F3F3BA679DF3200A
:101A7000E9FFA6C5E36637B309239BF39B66811193
:101A80006AC0F79360124C731026C11798045ACF9E
:101A9000778C985FFA1621D67FE6F661B38FBAFF8E
:101AA00078FB203F502FB5D362FC3DC833F38CD177
:101AB000B3D338F30E88FF030487FF98FF2862062C
:101AC000931B366690FF33F8CC90161261E6BED8B1
:101AD00057A366B8FB6DE61EE6B53437468024E9A9
:101AE0006BBE8970FF04F35E24511330F3C4CC46FF
:101AF000D0172FD17DEEB1F98FA3F9DE0B3ECCB21A
:101B0000C85CF4962CF493894ED87282C011D1CC63
:101B100028DEC21FF6F341DBFAE8FD115BD5111890
:101B20007952FF7FED95FD8C94DFB14D7FDB9108FD
:101B30006450467B5138F967654EB1B28AAF208058
:101B4000379B3B7F6D6DFDD4E0B5FE31923ED87C76
:101B500010B92A7C8556E657EBC6FC1AF5AC108AFC
:101B6000AC6001E3054FD7DB689AE5B67D8008A736
:101B7000BC68D047AC3910FD3CACE08C67E6460150
:101B80008092B07866035F1A8AE540FCFD09DAD4DA
:101B900020FE87808CC648B38EEBD024AE3FCD812B
:101BA0000D97FAB7F8A9FB6DCDA3CB19505EC29C77
:101BB00005A534809420E2C9ECC00830F7B4A03009
:101BC000021A140558E314ACA07F5DF3A09FC9CBA3
:101BD000E481F9618330D07A67083D84259C80A533
:101BE0001F9A9EC90CA421C53B170A11A0813A0E69
:101BF00035617D2815015AB0FE795C92D8639EE765
:101C00006FF11ADAFA6808CA7ED70890FA484020BD
:101C10008D0A7FB0226EB646662BEBE50428ABDF5B
:101C2000E879306D19F88CA9DE81F60862FECE02E3
:101C300050C55BE528FB3C3D031DEA66F9B06E0D1F
:101C400088EFB31038B5FFF3D839B618637D2E622C
:101C5000BB96B5FE31B33E319851158D62A8E8FAB6
:101C60001602FB955EE26FF475FC62DFCA62ED81DD
:101C7000F0FE8AFE54C0C60DB9F8A7DCAB2354357C
:101C8000FB6701E96DD90601256C67B1025D969C81
:101C9000E64F117DDBB9CF881B6618AA4AFFB20256
:101CA0009B0E98FC0A7662DC22C57E66B69685A8F5
:101CB000AF851B0ACB1480CE15FFB5E0F88061B963
:101CC0001A9ED3EF18FF0835AA3368361F2B152D3F
:101CD0001B0AB4CFF69340050690F8C53CC4C67203
:101CE000CDC639ABC880FAC121FF98B0FFBBECDC90
:101CF00064D058B39FD86764B53B03F8FE0BCCCAD9
:101D0000FE37F7F6F070F9C573470861079943EDA0
:101D1000F550FB9DB7B7EF898002018BF51A687209
:101D200037F8E63596D4EACBC064FB58FC7A77F0F6
:101D300087BFE436652086CD13FE6980C95EFAD878
:101D40006646925EACFB246822C6391F38B3FC4C51
:101D5000EE7BB25B608AB32C80798992044370E891
:101D600060B1FC63461FCEC10102F4DE20DBB68108
:101D70002D97FA7417DC99FCB009ABD63E105F6D55
:101D8000B101BF7F108804DCAEC5BA59DB314F40CA
:101D9000C8F79604AB132046AF1CF9F6A580205A6D
:101DA000FA02DB949002FE4CEB0120767819B7D84A
:101DB000E0051B02813BF9A5A0FBDFF30410141220
:101DC0006D503CC22A4241C0FBA09E44B3806009D2
:101DD0007BF622280538B37FE30920018002505C9E
:101DE0004481602CDE800C5E6FAFEAB8FA80017E21
:101DF000A22C1860814069C08A600977C865AA1D55
:101E000048012988FE2A30F11CDFA420CA34392277
:101E100089D24009F348E7AE06D8F9376C0404B319
:101E20007FEC6C887F8D26F20CE3F76D5A622036CA
:101E3000E658FEF9892DEDFE2EBAB0BF9582625BA1
:101E400096B7204A93045F08CBF5F310ECCBD0FF94
:101E500006678BA4015283EBA717EBBD156CE88CCA
:101E6000FB11769ABBEB08D198FD5B90226679AEA8
:101E70008F99BFAB5098F4AFBE6CCD4BDA04140B06
:101E80000FB4DEE3F808CBFB5B55BA40794D849D77
:101E9000BA0592F4DBB0FA915AED9E15633F316CAE
:101EA0008364B65FE8F9224EB110EFD9D0407F27A6
:101EB000B7025898FE5BF74A71EB8B369418FAC656
:101EC0007212AFB30C167DAC23C1B1B860F820EC30
:101ED00077CCF7FD4DAF01B50419F8E27A02D86668
:101EE000CBD171D119BF98194FE3DD53A0B5FE0EC8
:101EF00091CAEDD540E63A25E7E1EDF1E7D42D169C
:101F0000094D6877A329B9FBF910D2D2249F02F4B6
:101F1000D206706E425ED544E762877B9EC185DD46
:101F20001411AD266808EBE68810CD2E06BFD81533
:101F30005C17DED8FFF95C92B4C076EF2888079C66
:101F4000001DFF4567EA1701CCE6C805A0F3E94686
:101F5000B2F0FDF6C6C004D7CB7732060624C5F32F
:101F600030A0B505FD4823ABAB2642039808D72324
:101F700062EBB590767AFCA36FFD8B6AF7DE10C436
:101F80004629D2E20A67723689D5F7036AF8D32662
:101F900062622064A3427ABA17E6DD01F211196881
:101FA000E09B24F3F0975B582C603CE666C001D5BB
:101FB000F8836AEF99076F1EC6A278165706D0D924
:101FC0007F6A932837D6FDAC309CB32D9696D3020A
:101FD000BF5233BC18F36220D22D5F7D78CC3042E3
:101FE0004476CBB31056B36010C4D6B3496FB3DC9C
:101FF0002641B310EF136002F67EE0FAFCC2A51290
:102000007FAE980DF39812E27532EDD6EB40AEAF8D
:10201000802411E4F3683D412236B3ECFC5F583A6A
:10202000D75E212A628BE160C6A019FFD995806B2B
:10203000FB290812E5BA089DA6E867A09862570B2D
:102040004001EE50FE0868B5C402B1DFF6CC403F57
:10205000B58FE6AAFE980099B6664D743BB24BFB6D
:102060007DAF84517840662EF122584682D8B3A5C0
:10207000D3B645FE984EFF61208CEFEC6559F9AF61
:102080002F98D70F244AEAFD3100B3B4FF0FE0BF09
:1020900001C898C66ED3066FAB58FAFEF9C220D3BA
:1020A000D7E502FA9820FFB1ACF1FF7B7F9E98C67E
:1020B000D30C84A681FD7FEFD7C023EDE2FFCC08CF
:1020C000678BB3EA33406CDB887E214190FB533D44
:1020D000218480502C55FDAF2798CA04064602186B
:1020E00097F76818ED96DBE4F997FE98D706903AD3
:1020F000302208114AF2042A3CB3B1DF850B938CDD
:10210000ACBB11FE5C0340CC6A4FB470D5FCC2B7C7
:102110005DBBCB30203F2CB6FF6DD78003F86B6BD7
:102120009780CFA8775530FE04F13B19F49C30D846
:102130006024D7BB4B400B0177104260138E02F72F
:1021400083E8FC046CDAB9038E05B529E0302C7302
:1021500077430B2FFB507D3418030201143DC6302A
:102160000A88FEA7AB98408F5DF3C5B830E59A7832
:1021700097DBB00235F8C0BC80B8BF01B277293018
:1021800018C681AF3C3298F8305BB670301627F035
:10219000CC1BAED3013FD3EB7F8D307916C8BFFD8A
:1021A0009B30C42863B36E6C3040206F97CA232FD6
:1021B000D351F04B3E029320088BC6D752FCFBE76D
:1021C000D208BB01DF9885A04504069686332FD63A
:1021D00017F95A6BE93580A25E98AF9018038434E2
:1021E0005BD4FC2FD7B1028B82D008CDFFB897DD2E
:1021F0008330B5FFF34BDFBE0E88402808B50731AA
:102200001FFE5D30C0F1CC0BECFFDF424CDCA8FBC5
:10221000064F2C30819C86C8C6B649FE5230A0B30A
:102220002695B920BA4D8465190AD36693F8AC0A8D
:102230000566B7AC98414BC5E5C1E573FB52045F39
:102240009E7FFD1809107FEE2C84053002B96BC10A
:10225000305FEB98097F1698DD8601AB286253B298
:1022600097BD071A1E9719D7E49398190FE0F74105
:102270003C10181DB3F46E934E66808128DBAC5A77
:1022800047ECC65357F71827AD0C7C3008DCC1FE6D
:10229000F0EF1440081BB3D9117CB7C8E345CDDF7C
:1022A00056F80A5F2E30502F1952980BB3815BB34A
:1022B00064C8BFC0D098817D102406C6ED1D0821DA
:1022C00093B6F24F9FD3E0A51FC887A0CD7C98B5E9
:1022D000CC0D77B7F1B8FBADDEC4FF97114693FC88
:1022E0007D468A8BE84250AB2C4C08B9300C72808A
:1022F000C0D3B764F28C833A6806DE98B1406F377A
:10230000E5D9F52AA34119D78E0121D038EFB0FFC6
:10231000E530D0A2C285DFC6986644CA5975842BC1
:1023200019467CDFC804EDD89848DC707776B15A3E
:10233000FB9F6459DABB13F73211723028EFD97F53
:10234000114BB39027724946CEFCD7EB8C9FFDF71B
:102350007F03C6FD8211300970F8FE988432DBD20B
:10236000982CF3DF2DC80C04C30B7F2F9835A5F5EF
:1023700098C4707053F33D0FF8FC6FD71FFA9801A3
:10238000DFCC98FF3705D3BC65F404E69DBC30A6CE
:1023900082EA59FAD887FF1B98B32065B3818B7AFC
:1023A0004C26CACBC8FAB1922C20C69775FFFB9871
:1023B000D010765FC8CD6A8026EE71484101D7EC17
:1023C0009CED5EEE208277ADA504FD980CC84C20F4
:1023D000D521DEF8DFB7444DCC30AC0193E85D0584
:1023E0000C9F3390960D404F8D98DF10B72F300221
:1023F0001B235708BF50227AD710C5B561076C87D9
:10240000B742F79810200E4071ADF838303D44EED9
:102410009984800536104233539018EBB1FDD42DCA
:10242000D7A009DDBFEF50030A0421AFA0DE9CF363
:1024300019297AA7837FFE32300220C028FFD8D224
:102440002CAFEE32164FF463FD8C849178668EDCEF
:102450007918808245F8BB618F7DF3A5B96A09FDC3
:1024600060803C9007F2CFCD38400F086619B3FE6C
:10247000986BCA3006CEC8200F6B270C4F623B7A90
:10248000F65D038366FAC17FC74CB30CFC4BCC7678
:10249000A70C8241DE98A262F36FEAF9FB68C6C21C
:1024A00004B3F4AB304B465E58300CAF9EE5A7BB8F
:1024B0008877F005B81958202319412CE95C37B802
:1024C000FE8065B388D1FE98D208347342EF6898D5
:1024D0002101B5C4B3C8266AAFEB2182116F29F47C
:1024E0009808277B980178B4FED34A667F0131DBD8
:1024F000CC655BABB1AD8497A9417D83BF8098DA91
:1025000008107A98E25F50CB308897B3328A33094B
:1025100031361166D66AB3D20BC29E058BA3C72E85
:102520002AE001F62808F8FB57203084AFEF7F1629
:1025300010FDCC22C67B765F7BE6E5BE98AD4DB93B
:10254000494642E6600B011D80273402C8B5FAE413
:1025500030581B93B4D0BEC45E0C66D7012C4BA47C
:10256000BB3112047166AE759B8C04A9AF45EED7E2
:102570005810BC982C8411301DA0FBAF3B301ED0EE
:1025800003F9300CF79007F1207030390FFBB13CA4
:102590002FDF7F07D2846ABCA5F5191E7B98400FF8
:1025A000FDE0813C1080FEE68FBC6A2E665E86C12F
:1025B00019AF10D8CF309FDBCC7A9802DDC6605EB1
:1025C000989D813998F9EA2C043FED923009DED7C5
:1025D000D7980218B3D71B30797864C86B21B27BC7
:1025E0006DB9FE33C80269CF30A08580886BAD75A8
:1025F000010D88F9987C8CBFD34974FC029B108331
:1026000024BD980BF06808212221B4DAD8E6C8402E
:10261000C43C17CAF3E8CDAA7663C951DD308CE714
:1026200073F0D2DAF0FC7998AF25308843A9AEEB8D
:1026300061082B6FA23B22CDA55EAF0EC0013C5EB0
:10264000F33BE460200ECBE1A6E8FAB2FC98BD2192
:1026500016DBC0402CB804ECD17B8819AF9698EB00
:102660004950A7A4D09808F5A0600409FE9F118ADC
:10267000FD136CD0C8A366E2CA3002BDBC60764BC5
:1026800088F3550818B7ED3E88B2C8FE40CA18282E
:10269000B37A7AB3422C045BC698E5C8FC305ED2AC
:1026A0006DE298D07B633C10075CDA7B032DF86801
:1026B000F9300177203024DF0799C878F35BF6DA28
:1026C0002058E9FCBE60C8315B0666C8046D6680B0
:1026D00075AFD8B5023266B2C8686620F37D4A0885
:1026E0000361202059305F19FB7F426C81C8059D32
:1026F0003039C122EAB3803619FDCA08AAB304C929
:10270000F2985C4010F3819822F460024C80C6C5B8
:1027100018FB62E6FF76D8E3FBFFF8FBAF20150855
:102720009DE585FB3F0134F3CFFD32288D97D358CB
:1027300064243BFF98FF241A33938CD17139D8B6A7
:10274000FB33CFF76108617A6640FFB3CC85C29353
:10275000E67924CF5ED44673A6D34E908C63DA1903
:10276000FA710EB9DEB1A48A1BB18BC1D311621705
:1027700088F930ABE0CC324FE03CA8F3DBBB3790BC
:10278000FE458F10B11F2D5A50FEC2F3EA3BCFE138
:102790001636D723FDA3E0FC823792E88388C5BDB7
:1027A0009880614AB804D944FB6C3D67FDE0860A15
:1027B000B2983F668C7BB34E182FC9B1208635A0E6
:1027C000FDCB022ACF586010FFAD3D02F9F948BC9D
:1027D000FEF0F37065CD118CFA1C80D8F7595CEED1
:1027E000142008F9F0BB897D80687E41DB5BAC6E0C
:1027F00008F2B22FE73F80D29848FDD7D42002BF1D
:102800005984AFB82D4BCD0184F190C06001FB64B9
:1028100020C0228097B90AF18D9CB4AFA8443590AE
:102820005E5880091528AAB34467C610ED300D0F15
:1028300098FF4C77048169108FAD80DD6B21AD026C
:102840000A281EA86CB1207FEE7F424039F3F218AF
:1028500077FA8FB4C0017623E8F80A47DBB604D2D2
:1028600061778BE5664FDC41FD665D7842B66ACEE6
:10287000DB5A7FB3CDFDC9817AE509DC8652CEE70C
:1028800051C5BAFE58395EFFAE10317D63821F33E9
:10289000247A85765438FC6A6F01C6BC0BF3CA18DB
:1028A0006C8230FAF52A089A80B40430D0875B1223
:1028B00028F81EFBD41FFD2204BB0AB8FF61672C59
:1028C0008480DEB6A43F507B13B0F94D32BFCC27D5
:1028D0002E5AFFC0B0F8F0FD1843EBE40353CB1DB4
:1028E00060ABA0F831E3291FF58920B7258B7D6601
:1028F0008241FF7517B17EBFD8645DB698FBBED824
:1029000058F8E8CCDAF41899D0E6997FAE6B5030DD
:10291000669BD61D102BEB720165C2FA8F7DF78E78
:102920002C9302AFECE778FF12FE7FC5BC99C31F62
:102930006C42B8FBF3ED1FD315176C81C0FA345805
:102940002E019776CF88FA2BCB0D2053DE0ABB4B96
:10295000D8B1F9FF1668ED3C206C58D8C8FDB6C058
:10296000B2613ED9050BF6FC1659E4113C0263EB4B
:1029700019084E16CA19172CFF0463D698FB19EFD5
:10298000F04002652D38011DEC083CFBE1F450E9F4
:10299000B6F2FDD720C6DF26226EC72C27B55620FB
:1029A000EBA828C766BB2004622D620110B982BF64
:1029B000EFE8101A90FB0953BB41DD028022E1359C
:1029C000D6453CFD05833C8313800A18A5D88E2D7F
:1029D000C0769A6825DE9114C16A5D05E0BA9EB39F
:1029E000E0C05ADAE48121DB9DF3F006442ED501E4
:1029F000689378FDE32F820A68E7018560C90802C1
:102A00008E0477BE401C9177C3A815BD83EF018A61
:102A10004089F4783806823C62808339E100FAF01C
:102A2000125042687DB6B1AA52D8FB127C7320883E
:102A3000C86EF0C32C6FE84A73E480407621CD174E
:102A400028F9BAEC80F3F9CFA6327701DA5E20DC00
:102A50008E08D4CB64F188E134554BF482BEBA9031
:102A60000F408DCFA08EF1CA1EB8FF2CB8CE865D68
:102A7000C4BB4D38D8FD02BF2CEF0426F146BD6B18
:102A8000EBEDFB1658D83055B734F86AEC66FE0803
:102A9000B57102B9DE85197B5FFB687EC60AFC63EF
:102AA0009C9223BA5A0406E6B108FDD849FDEE9976
:102AB0001AE26579C5DB5690FF38C4C306FF0208E9
:102AC000DC66C2F5C4109FBB77405678C0F8C738A3
:102AD00010131EF3D929E0D86BCBCA023F568B8066
:102AE00034C0671A633652A0FA69E984ABC10C346A
:102AF0003AF67A50F8F1F30AB7025B2E029B20985F
:102B0000EF81499DE7C0847A84FC0B50CE1A0442C1
:102B100061DA30C2EF108852EE411821CE3730E52D
:102B2000220808B0F56D1AC52804099710D920FBB2
:102B3000AB9B300ABE34F45418B5FD656F98FC7E2B
:102B4000EDF706C0C8EA60123CF6C5BEE6F52038CF
:102B5000AA0058E0D30E4CD31EFD7893D66167B817
:102B6000C3FE8065A73934FC022879F475B9882D35
:102B7000B411B5D408B414FA3F401A056BDC2080B8
:102B8000FA6B09405D5C83601203F3302193AFBFA1
:102B9000FEC6D10C01CE5AB25000977EA33501B5C6
:102BA0004A3950660BD3E0DEFC60063953C4035348
:102BB00003E041DB38807EC903B491CEEF24E0010D
:102BC000246DBAF72017F3B029C604A60F73D348B3
:102BD000FBDE8081E39B18C3605FC77F806837623C
:102BE0003F723673295166B7910266CFD368F8C039
:102BF000116532B3103146035F82E9C496B310DF2A
:102C0000A2BD12B30640C657F3958C10D342F648C6
:102C1000F92050FE987F86723FAF28424420022C54
:102C20000247D6EF084F5B5A7A9852ECC6E9813DCD
:102C3000F22068FE9DC78BE5048B76C206C4B5D131
:102C400008465886F7DE98719BAFACC581578FBD9B
:102C50005A74281BF58DD33E16DF3269DC6BFB8876
:102C6000468BB4426E8918403BFF04A016EEFE145A
:102C700002CEE6EB02048FF6620DB2F86D0102108F
:102C8000E52312AD45FE83F4048C12C579BF286C90
:102C9000F76AD35FEAA508664823BF014BFD535E80
:102CA000AFB134A8F6C530408BB0CC984F56BF2496
:102CB000E6F6DE98A10EB0D33F760C0898F8846F44
:102CC000E698CDDBC0401244E304C7966601A4C673
:102CD000667F3658B9FDBDB10608F6B31001905CA9
:102CE00008A985EB4C1588F12D93C6CAFE985EAAFB
:102CF00029F4C512C070FBBF04934A82BE02BB0117
:102D0000635339C440B890C7C8E53008901B6C5075
:102D1000B712F0982BD198014FE42048FD71CA9F5B
:102D200097E498ECA7984B871B30FC272DFB40AF0E
:102D3000A56E90CEAFA8C5018DE05A45E69E19B6A6
:102D400080F59878B9D326C9509A02FD3662FD61A4
:102D500041B7AE364051C409F888B6668811DE988E
:102D6000BC60D351E77AB7BFBA0A68FC8409B0BF28
:102D7000087CF58360110F80493008BB06972363F8
:102D8000F030B3E69B6640286F2F0151E85166DDB5
:102D9000676A66FD22B8FFE0413CAFAE9878F6C5A1
:102DA0003C80FE3523E0302CDCDB7CE2F3307840E5
:102DB00065FA980760FB1C7D18FA800130E537C67C
:102DC0007D4FB7C50301F15D9E19B701376622D368
:102DD000423866D335FEA8B34B1156B34006E5B36F
:102DE0002318F49736302110CAB38236D340192005
:102DF000AE84443012B5FB663D0241EE4207A001AD
:102E0000045CF7AD841A95FD2133C4F8CA5BC8E5AC
:102E1000C81ED3DFBB42D3980DE724ED0670FCBD7E
:102E2000AC045D0F6FB676FC586319C865AFD3204C
:102E3000F6BBF0FBD7D3FE16641869B9F907BE5D7F
:102E4000F968B1631C30B558E3E0D4AF50093DAF29
:102E50000868FCAB835A04B5896B904011ADB13260
:102E6000C83316E3307CD1C820CF1A047B0A8AF914
:102E70006D9DC8041379C57F6C0A06CCC020F3830E
:102E8000C3F6445E9866EE5103037CD1C80C581F0C
:102E9000E7C4E466FE8409200A80FAE0D3987D1E28
:102EA000C03A7A10DF9A3C8001A5F0F303A79A9804
:102EB00019115CBEB62CCAC82D6A39829704770CEA
:102EC00030B91C1D88FF91EAA5612F4D16D866FC0C
:102ED00023B73035174B23056614CAC81DF314E910
:102EE000FEB3B38523B46004B3D5B3041D19B3FA9C
:102EF00062B320F2C80BFFC681F801101290FF10D8
:102F0000081E85D742889EDCD5D79288AE980AF8ED
:102F1000A7ADB875D8116DE03456F6689F83D142DD
:102F2000014B799821C5846D30FAF972016DC2D8D0
:102F300066C8F3C0CFB3DB3A43DC73534D33C539B6
:102F40003088B6FEC88D5B82108E19E34C4F5098C6
:102F50000FECB3BA77E380B3303D4B026DFBCC602E
:102F60009B52FC24FE9BE32E94AB44F7E9C008037C
:102F70005C22CB4D02E664198416ABF81175661419
:102F80001FCCE1735E674FD71282F984DE0530B241
:102F90000F0364BD209316ADC04DDC0BDF4C7617DC
:102FA00011D866D4AB4B93D355B3809666FE2C8272
:102FB00011100A70FCDF8B306F76FEAC07F12AF53A
:102FC000987997EB98407CB5D5E31D65D303FF2F27
:102FD0007F8D98E6F8B712306661F3F85F6F9860FE
:102FE00020E3307DB69DF8D9ECCFBC7FE08F66F64C
:102FF000ABE9F9D5B3480F13606B92F53EE1B346E8
:10300000625C308009D919126C197F72648C84B9A2
:103010000668FFDB8FDDCAC8F1B8F2C79002CD4069
:1030200022DA4119D8CB662023B60412DAAF597BD5
:103030005E9827E8B334F94BD72027EEE6EAB15B78
:10304000F80371308F2DFF043C980B9D4990FF6071
:10305000C4CB232F7AF598387D00D9C8685267759C
:1030600064659BBFD17FD3EB161EF5FC045A829694
:10307000511982CF26F0AB5334FDC09A24C523F5F5
:10308000C0017DFEB1BBB21904CAFD7F40FD99B5F8
:103090001A7F3F040962FF80053009DDEBF7032347
:1030A0006212FF6C20C0C31858BF43C56DE69A2B4F
:1030B0003BE0320A55B308A7916BADCA6624EE37E0
:1030C000083ADB2BC8CFA5F4C538D6DDF15DC8C9F9
:1030D000300846677D7F9FED980701FC30699D9B16
:1030E000A0FF1A73F1301F469BD5C1238C30EF230C
:1030F0004B7363192B777D50B6D320E961B308F386
:10310000C7FB8818BD63085E9867717D6EE40ACEC0
:10311000CBC8FDCE282961C6FA3ACB01215785825A
:10312000AF9842F398BF31419222E3B0C4B93084E2
:1031300065F0300B10FF7F48D70449C3F0D940F841
:10314000BF9D6DD6A4A6C36FDBCCE80AB266BD985E
:1031500020699DC8D8FDFEC5A13071EA6BEB9820AF
:103160007F59980CA2963FCCFB256FAFBC3998D302
:10317000C0DAFA249ED9D8340434454BB583CC8BBD
:10318000FCAF3836985F6614C603E702679B38FACF
:103190000609BDB2C09E48EE236011E296F698047F
:1031A000584E19E548086C4F01D766820520B622B3
:1031B0003D68D3266B9B2E28BD6B10BBFB8377C568
:1031C000F0EF06C883F7C50C8801DBF140E6C808BC
:1031D000CD16B3D3CB06185F3F9824C8B305D3B13F
:1031E00014FA6BA92210C36DE6C5FE98623C7D6798
:1031F0002D55067796080D36A3B8FFA1B32821B345
:10320000F5D3466CE3C0F202D8840881B31B317554
:103210009EBE6EC8405DFD24FD0E88FBB65FC8D71C
:103220003BF350020828682051F29E9AB446E0CB46
:10323000AA1027873079411022E6DFD096C823FBF9
:1032400007022BCCE8DE3C76A9CA6DE6601016C0FA
:10325000F9DC5DBF88DA9881082D09BCE0D859E611
:10326000CBC54875ED38C6D3DC30AF782034DC965A
:10327000FFBE982D574F96DDDB409A58B610372386
:10328000E630288285EAB3CA52055319248F42C01A
:103290005E98BFB0CBFFCE98F12EF3FD46C0041868
:1032A000050B1DB3E6C5AB281856BC8C85DBA8A75B
:1032B000E2FF2498E404A0B32813B0D1F96D95C8B7
:1032C000EB9810F930077FAD980139300768C5B524
:1032D00090EF54E8010C6BED855810BF0C30F9707D
:1032E000D7D802B66BE0F8771730D9CF3C30B405A9
:1032F0006DC5D8024566D3AAB320CAF298D3B8B830
:1033000030DB6DE3FC98DCB357D19B987E3908D550
:10331000B3049628EDAB19146F1498D3B38E04BB85
:103320008458B1FDDD3736F3EC085DFFBCFF20FFAC
:103330003F69AB620138F3CFFB321A41D38080FE84
:10334000C121FF89B1FEB36638D1C716D3BA7FEC6D
:10335000CC1232346CF606CAFAFE3318F6165193C4
:1033600079899AC89E73D32F73EBD152C6EAB132D2
:103370005E4DDECC4455B1016CED6793B1E609FAC0
:103380006093FDCC98FFB1DB9090BC8055E38A0B35
:103390005BFF20FF1758E5025CB42C66AFB3327EAA
:1033A00078C305B3FE897D5086ADFF18FF86062BD6
:1033B0002E81ED10FD8096B2012667B710F388FECE
:1033C0009DC71719FF7D3E92CF1190B20118F2B937
:1033D000C7FEA166FF97C8FF662D54404076314F67
:1033E000EF7740805F5504CB1280C6DCF34451F385
:1033F0002730EBD8FB2D8504B5F26A2AE6110D05BE
:103400005AE5FEBC608C81EF57B62D9E62E3C04842
:1034100071DEA0A8A8D302503F184849F628660DCF
:10342000AEF7FA632035850806B0BEDC8667794AB8
:1034300099FBCB48B663B47E908F06FA40011825FD
:10344000E7B302B90BE6B37FD8F0F9FF1A68ACBC5A
:10345000A08FDBCC822CE5406BF64701405DBD6F51
:10346000F008A30483DB3B38FB048DAF9733E5FE04
:10347000EAC386B3B8FDDC46D806DBED03FCF1DD1C
:103480009A4063BCF5D8B8FFAF05CF64ACF22063B7
:10349000B6000157B63C98FBE6F277861F638B2C8B
:1034A000402C41F533C8A718CA2273C510FFB0409D
:1034B000D1C208679D10DB640808789ED7F6E6C085
:1034C00071E99AD8D858FAA7D8EF67BD93D8FEFA11
:1034D000B37F9B07AD45113EA1C7B4ACCFFE46A05C
:1034E000F8C20D238CA555CB208D662D8006D0FA11
:1034F000C77F982168F8B684E31816FB7F9BB3A8B2
:10350000F80B751504632BD8F86D3115838E0A3FBF
:10351000C990B0FEEB2CD1FCB0C84CE37D0A3BFD5A
:1035200008635C604D28E0FA897EAC01D5EB106041
:1035300098196E487E9832D7137CE2E8FA779A069B
:10354000ACD310800FB610872798B84DCDB2D8F9FC
:103550008E25670485851CABEC48FB204FD65108AF
:1035600052AF40F1F0E963DAE1D9B0FDFEA161FFAD
:103570009998678CE5F18B9908FCD37FDF68CE843E
:10358000B8FB089BE9014038AEC70B502D808CB6C4
:10359000A6D358F9FFCB4C80EACB892563F6B2D786
:1035A00082C4FDD68068BBB521523D02CA01F1E656
:1035B000C6C070FAF13008200102DC0A035EE6089A
:1035C0000504D311F4930A0B2A13F5A880A6F73F3C
:1035D0000B0CA96E03095000CCA628F9051D60FE4E
:1035E000AAA610859DAADEFD8BA002D3042961083E
:1035F000019705A19B48FEFF109AD320841CB1BB04
:1036000048B0A6B5C8070B90C648340922DB36E59A
:10361000FB3FC0A5D966B3FE8AB4103211FFA4FFE8
:103620006CD8B704F5A341C93F107CB1425CDAAF56
:1036300014FA8C88D3E42338DCD220BEE208F8FBED
:1036400031CDDB9522699BAF98E6D7FB1ADCFE02F1
:103650002FCCD27FCCE357D76F083B4C88F9041DA1
:10366000DB6E0A7731D1B3FBCC94FD2FD6B7502354
:10367000AF8518E6BC58FCD8E1031500ADC23E503A
:103680007F0995B1B3EDD9E3806B9F80165EA902E7
:1036900066B3FDBEACC2F3FFFEB2D3D621FA2992C7
:1036A000CE96C315FF909266B11055B20484AEB4A5
:1036B0008020FAC6CCE02C6C53B8FF4BCCA430FA77
:1036C000C45D9620A662FA346FF2C4B6338DADBAEB
:1036D000FDC27DF6CC5CFD204FEB878C9252C0B7CB
:1036E000B7E003D708446C4286ED59BD20C7F3BF4D
:1036F0003A124A24012808F60500D8FD522E0CD4AF
:1037000082C2D6FF0360D7F67EFB57B6810F60BD3D
:10371000CDD6C803D7BB1802DF5A6E1CBD3787420F
:10372000085CB1325AFFC1CB5C6604E2A718E6110F
:103730002084678E5D870501CD5319C0C10B605A87
:103740006E5B47D778FE59390FE18885B010B91400
:1037500063208240368011EE31328EEDDE80417979
:103760000F12F944428481056AECE8FB60A703E08C
:10377000013C86807CF81EC08318F6F3E8410C708B
:10378000B4B3E094F3F063D70378D1C9D32C6601C6
:10379000A293D558062E19041B0CF3213C19CC38E2
:1037A000D319FF9A7F358265C6F0FF139AB3BBA287
:1037B000F0CC507944408419B341C3B3B389B30703
:1037C00083FF60100480113208C0C1FB20D904219E
:1037D0003FF4D32492FB1209C1130AF629220425CF
:1037E000774DB5C134B7E035246D200852A610A836
:1037F000E7F302A4F866AE84302FFBB3CF3C5BDB6B
:10380000F6C3066799E88F94A008F9603746209AB6
:10381000BDAEC1A0F6CFD003CBC983F46FCBBF3C04
:103820005E5DA47896ECA711F1907B6C51FAEC20C8
:103830001080B56682DBCD9E40B34420022D809F70
:10384000E44B1967AF66404E942897BAFB40B083AB
:1038500042C0B64873E6A02016E5908F10019D1275
:1038600079088095D6746A16226D6E09FBB1023F05
:10387000F349B008DAFDBBE0F6EFF0EED43C800788
:10388000BC981AF8C906E61DCF16B5E0AAF8183C90
:103890006319EF66987940F30173E650FDC82196ED
:1038A00008F041191E85D65F12004639BBA6017388
:1038B00066DDF31041FFC65352B3409BB35804B9C1
:1038C0007082D95130FDB136E00842B329CA56B3EF
:1038D00045FC96FA20018556DE989B01EC84C9F3DD
:1038E000E208ED802110FEDFCFD5EF0817AC99A5D7
:1038F0003C309C80E6C8F8B3BEF6B2C22DD8A80111
:103900008F303088FA2E81354357EA68D73167AE59
:1039100004091820BF02CCA1F31927367D41DC3001
:103920001035B367E698ECFA0409CD57C28297E5E3
:10393000E216682FD8AE06B2B340C8FA357E8F23A0
:10394000640440208443E687FD210E0A6DED44198E
:10395000DC8089BE0FC048F0580823017E8C808827
:103960003011C417B312BAF90B0214FB8C5EF88E37
:103970000A42412406660461B3E037F19819D7E49E
:10398000012B87F18B30DAE20FE8F3C537B7171058
:10399000F998A70B3D632B9C30E440343EA8FB8094
:1039A0008DA3BCE593B62024C169E498F3B330BB82
:1039B00064016FFDA260209BC430E49A68B350DBC1
:1039C0004855B340DB09B9466950A660A68130CEA0
:1039D0000066DBC698C0046EB35153B348F361145C
:1039E000BB24DC51B0F820D9AA423EBABF24F3EC84
:1039F000427402F62DB02114726610CAD2B35EC6AC
:103A0000807D38D42009CB3BC8B0FE3FE8525085BA
:103A100093DDE6BB77D9CC7E9846DDE77A3BD6E8E6
:103A2000FE6027944903F41E018EE507C882B14069
:103A30000FB5CC34F85B6E812BF210AEEEF498FF2C
:103A4000B2B6F930B0BF80D79850B691B02077D9D0
:103A5000CC5A0E2626E086D0F715446BB510FAD75F
:103A6000FB809B9833B64C08E72148D75806601274
:103A7000BFED32018B7ECC0BE4A911BDE85410F9E7
:103A8000644048844166D790FF9B98AB690F8B5088
:103A90004C7F6BCD98B83DECDFC840C203F3B63C19
:103AA00007600104778298647ECC0CFE4A3004B62D
:103AB0000F370CB1841F3798FBA2FFC7316BC9A920
:103AC00062C62966E2FC5E58B20297B309EEE38053
:103AD000EFD7609159C4BC7F65BDB309B04016CC27
:103AE000C421603E4480117786F8FA8D697702A977
:103AF000D3713066C8497C7440252009B3F3406611
:103B000096E04FD17FD1E1073A08410DC8811B688B
:103B1000FC12E55518AABE01CC326EF401CCCDC81A
:103B20000CE5E2E64B4F1C30EE7E52C8830C4B9006
:103B3000F724B3CF5A5B409FFAD0227F81300870C0
:103B4000F804B35034DAEF5D9858EB988C8CF2B2ED
:103B5000C8367D5EEE43198AB0B830D50C043A38C9
:103B6000C0F8E230FD2202EADB4C2F892C98E3C832
:103B70002001FC0C0284000A46BEEDB7010A69DF91
:103B8000D9DC8005E059833FFD13011180025F7F7E
:103B9000DF58FDBF40F04006107F8B98036F6B9895
:103BA000100F2CAEE26634E0F59883DE98DA813CA3
:103BB000F2301800BCE04004DEF4FA474BC3045274
:103BC000D6DA5474F3034020B69601282BAAA50335
:103BD0002EE72310195E3BEA9A3038FB3C48B3D4F9
:103BE00089725F4601509F9E020C820510B5A13478
:103BF000C4DB2A5EBF78A1B13CB3B6F61263B32032
:103C000004030998300EF82C958A0DEA2ED0DB9823
:103C1000BDE820EC881442DFA3CCBE7109E068E562
:103C20007FEE2F0DE630B4FB8CF0DFDEEFC146797E
:103C300024887DCCE63779EAEEC680D0FCB2C8CACB
:103C4000EC17089A430C0415B78EB64921F6CCFC44
:103C5000EA4B41818809BB90620E577B3741FB08D4
:103C600025958CA604B816C85ABDB66630897A7CEC
:103C700004DFDD980C2110B01AD7BD0D82DDD7EA24
:103C8000FD59AC7BE34CE4489808233F122004081C
:103C900030B309D666308BEEA0BD3E056BAE621325
:103CA000610C3E80516B668AD698014019F8A73C9A
:103CB0009001311D1ED08079C5DEB86692FFE020EC
:103CC000DB9D300FE040FE5E7E6EC80EE730B8FB35
:103CD000842C0DAF97A2A0F27D03B415068030CEE0
:103CE000E3377DCBE003EFBC78DF25C8F37330D931
:103CF000FE668D19C016DCCA835344FB4C90093014
:103D00000853BB288FDBDD982C8409919B7B0DBD6C
:103D10009858EFFB20086DB202031BCA241194F3DC
:103D2000405B9D81A714108B17B3AB620D4F757A62
:103D300056408248447BF3210278FD27EC56C12D82
:103D40009B651901EDDB200CB10CB77BC42048FB4F
:103D50002FB389608D8072F0C84D16D340D9C366E9
:103D60006AAE05DFB3F810C0606DB4D437F00EE072
:103D7000802C3DA0FA0428A1E1B76BC70893301846
:103D8000AF68E8028824CCC54BFFC5A5B3BEFF4988
:103D90008920110DA0083FF678FC84113078531764
:103DA000A6AD05B340E6872301087D840530A99EB2
:103DB000BE6DA609FF7F619F22E049302100DCC073
:103DC00082B3F8100C8031981EF8F96041FF2FB2D1
:103DD0003FEF8D5D33C8C4AC039DC8F31C108A97B8
:103DE0006697A5AD7801B830BC987DF32C2068FFAC
:103DF00078DF27812169C0AA2F06D5AF60E6F32CB2
:103E0000192DB60DE0BCE59166410C66FB2345011A
:103E10006DF703F25D26EDFCE38060444C81D8F33E
:103E200042BAB368C973B3A36004B305FCA01078A9
:103E3000FA00047B216FDF510DD5CEF3A1BB08F54D
:103E40004401248096C8776DB0347B24682BB4C5B8
:103E500098F71DF2EA6B0DF78702A0FB625E98638C
:103E60000BFF8062063F19F63402473B662018FEBE
:103E700065B410C4439C4343D9C066FA0906D4F81C
:103E80008D09D5B302E6E0BB91A4121180F4F3389A
:103E9000FC204B6C70864056B85FC89AE1116C00EC
:103EA0000121BEAD223728F5E56211B8D3E7E66EF1
:103EB000EDA0BBCF12EFF88045F6BA1805E3B3F9D1
:103EC00030C0C84498FB5C028088DAA521AD3A185E
:103ED00052058C9D335EFFA0222C8005B14016A7B1
:103EE000C05313620CFF8082113109B0F8E0DB018E
:103EF0000CAF3703E530F17030F9C14003E041E623
:103F0000B4076DBB90031DF8E8010D71A7D9C85E19
:103F100078FDE4013C8007F2DF2F6BED8BC8FE7665
:103F20007420CCE530C2DC305AFC9B82E6885EED22
:103F300073D802566601DC30BB022951D3C06BFA3C
:103F4000728248E6111950905B75B1115CE0AE7950
:103F5000BB248089C7B504359B6DB38401F830C993
:103F60006BB3206495E051F8C8FC0C6CFFC9E3CA40
:103F70001F2EFFB4FEFB6C5FB31780F3B356B42162
:103F8000E0E09980D31ED380FDC345FF4088BBECA1
:103F9000D8FB241A33668CD15D394140B971FAFDE2
:103FA00019C6D156D87286DB529A08AF2480DB96A8
:103FB000465770FB0363EF5DB117EFBC8E73C4010E
:103FC000D639B3FA64F17FC64451A41937E6FFC766
:103FD000EDFD7D95F409D3D841FF9FC1F96177DEEE
:103FE000CCD3D9D8FF47D49817C072B1E1C6FF1817
:103FF000FDC5F8358CC5CE31CCFF6C2150FB38F0B7
:10400000998F5BFD108C9119FE1608C3FF6598709F
:10401000661657EC08046BCDE7D67B01625D08D3CA
:10402000965FF8C7ED9BD7ABF341607431DFD9D30E
:1040300020DF96D9A8FBE68B3FEB482050E408CE62
:10404000F3FA7D5BCFFF25BC0275E2E6FDB70744BE
:1040500079F69FE2F3CDBCAFD8B3F03D0DBEE3EEF1
:1040600066B7D0F8F6045EED699E2ADAA040601EBD
:10407000C21471BC5080610C5126B09E6BDD0126CC
:10408000BA49C3D2843BB461A81CF16002DCF24897
:1040900013FEFA2026C8545004E2A0D917A7FF3017
:1040A000529480184011028810B64459F1FF4DDA3D
:1040B0004408A73840A603108C84DFF3760C977869
:1040C000D9FA0A9E4E2CC175FF086519A59FA7C095
:1040D00098FE667E4B1065AC819CB76C0F106B65CB
:1040E000E5D99AC6D8D0FAD6DB05F14718A2AFECCD
:1040F000228094F4E0BFB3EC5FA3E07CB11C23C248
:104100001ADDC9E88CF7B1028062464C32B0D9782A
:10411000FFA66C59F18DFE8002CF6BE6B0FDEC97E7
:104120005449C7F984046CD84188D2F330C5961934
:10413000017960840DA7E8FF9EBE6EF39630DE160F
:1041400067BFC8FCB30ABE17231EE3D870F58D56AF
:104150007F04ADEF30FA86FB97B301D28780B3C1FD
:104160000DFF027F6CB1FD10B64FD7BAB0DCFE3C3C
:104170001347CDDDDD08862DAB78F86D3F897A6871
:1041800010C2D3199B7350F80A4CCE794D9080FF22
:10419000C121FF986342B345333CEDC8CBEC3C5999
:1041A0006C66FE8FB06EBFF687207219F9CD5CEF9A
:1041B00014FBB30A4CD167B74050E67C01F674F8A3
:1041C000FCC61DD4C00248859FCCD9F8FDBC62B6A0
:1041D00008190C8982EB6FD45281631D49B540F7F1
:1041E000B860FB8064AD3102B4D7C2BF37966CD5DE
:1041F00048FB68DBC2D6B188FEC4FC67C32F1B37FF
:104200002AD81A596601A6AA3DAEA048FE088CEE2F
:10421000979E20108268F809BE8BE38C16E52D204E
:1042200095F36B1638B2F9FF5A8068E1B902E401E0
:10423000034004679BBE9F86900AD0C744D66BFD9F
:104240004DD8FEEDAC0420ECDB02221909E5811209
:1042500006068A0C400E248005CECE4A2040D1723C
:1042600002204327400C85C008D3FE50F64081064B
:104270001860B8F8E0026050848FE4F0F0A4DAE44B
:10428000F9228416726B3FA20401AD052540E610A9
:10429000E2879640F73094088030C1B20AD9FCAF6B
:1042A00061BC8A978237BD95FF65FE6C40CAE35DAD
:1042B00016FB694F3373F432BD4BFF781AA37EB7F8
:1042C0006F4B460165FFC38236CE087FCBCC8D6E27
:1042D00015CEF3D26BDDC976AC90FA1033E2C2A9E9
:1042E000CFFB0116395111C4B2FDCCED2AF30D3FBD
:1042F000C249319DC0960EEC21020458BF58E78E8A
:10430000ECE2A060B3EF314AB36E3F7BD5F0F830FA
:10431000058FEC32CDC2C3387DC67FF9806BEDFAD4
:10432000E8FC9DB9B3A0CE6191FFFE34637AAF671C
:1043300018F0F6AC62FB6094BACFC6F7DF8066E493
:10434000780B7C6FB2CCFE47C2FCDA2D017617FCED
:10435000C4D64380ABDF041437CADB1F31E058B149
:10436000F99F37E6EDB101B82C163460DEE0FCCAE7
:10437000A3809443C98F9359F308DBB5B1028DDA5A
:10438000240402F44E663084248ED7EF4A0D8291C5
:104390007657D03F5160680121A04167BE1AA0093D
:1043A0000401062F289A504DF40C017B2A10D0D01E
:1043B000025AC690EAE6A021D1FAB3B88BDCE30139
:1043C000B369FC7F0802B1E61C8FDD066AF5BC0C00
:1043D000FAFD93A9EA24813AF4B8F936EADAAEF3A1
:1043E0003C94B3F0B029E0D341620FB30130200711
:1043F000151A76A50920BB0A2F386F9A010CF14BCC
:10440000E6B986D843EF600A24F401D04A1863184D
:104410004288F611304177FD1A29108106AE92F5D7
:10442000D5B048F60C3809435D410CA137F028F9A6
:1044300023912439D76018523BFF9B95920BB71BF1
:1044400088B330FFCB509C3028C2840A213BD8402F
:104450009188B4D6BF81023FC5313012B8FB4D19E7
:10446000A007DFD6C20318DC0F6090E630401EF3D1
:10447000794DF30C3C9FF303ED8016F001E049D831
:1044800003F16AF332D340D304386B68F562064314
:10449000BDE3626FFE01180803F3F83FEFCC4BED6C
:1044A000C0E04F36F679F30302400CA937F3D8F693
:1044B0001726E1FB26DB222C7835F8E020802C90B3
:1044C0001B32229BCC30054FE04898157A8088B08B
:1044D0002079C010090B02F44EA608104834504948
:1044E0000B2FE48C9028B355DB64B44EF0E00B083E
:1044F0004209A0DBD006C03EFB4D122D8401DFBA7D
:10450000DC4704FC3173F77715FFFE38050481168C
:1045100000247774B3142DA0769288F34827812164
:1045200008F634019CF8478A34B400B36DB3C2BEB8
:1045300045D3BD77DE20857D093DCB77D5EE8678E6
:104540006601DAF86B079AFAF09F18411A88B8D317
:10455000AF6CEB9B6040E99FBDF045EDFD0204E0D0
:10456000A3B35A89AF941F21FFC7775DFEAF4417ED
:104570009823FDA997F71C238610E891F9A5F6E387
:1045800002A38D447D98805E78F82440A201B08E0D
:1045900009B366B919DEC3FC76B57EA00522B53F26
:1045A000496684C6E09F102A58204368888407051E
:1045B0000102D29AFBB309E52C101F40CA3A460A01
:1045C000F8F55004FFFFF71A60D1E03CC3EE777CAA
:1045D0007608491F0640C28458030B60DF4180C43F
:1045E000E035241A869DF8C109C27564FEB25ED218
:1045F000CA784070CEB2073002F41B785E0F648038
:10460000F7E6BC07D0B90FF8EA02F433BC980AF712
:10461000A5C4037229E0C690A501C6D0786B52E606
:1046200090D3FD19DFFCA306F396040CA8E61C1634
:10463000519EA9DD8034F56CE4E5492F89F08B08A3
:10464000D7BD9860AE209DEFD389FC7E7422EF77B2
:10465000A5040164112B1913DFCC802837F1B0F5C4
:10466000A275A6A2F8397EB351300216C1E4E06407
:104670003D4C041393B29820C21364E04488118720
:1046800038FCFA808524420603A060FE8B68020D88
:104690008185302E24D267EF50938049EE842134F7
:1046A0007BBDFAA908AA9FF84E2039EE22FF0530FB
:1046B00040161404024321A24E8C71248127904895
:1046C00092180A68DBABB912FC5F2C7826A1F0992E
:1046D000F33646028746F123CF6E1A2188AB73B3B7
:1046E0005E66E0B9FF805031D327F2F30C57461FC6
:1046F000E8F75B920CF9F9FF3BA5E0E69533C5308E
:10470000C12393BC03700E0A40E67FFD32220CFBEE
:104710000B3EF8DD66BDFF45BF99077E8A45904C8C
:104720008B28F8C1B75DE6A528FDBDA54170CDC7B2
:1047300066045C305C23F9C08248200346EF8DB0EC
:1047400001D7C1B225ACA1AF5EDAFE6EF1FFA805BC
:1047500036806B668265EECA2B7EB4F8A5449A1546
:1047600043FD528121DFEE0388A0D7204666490829
:104770004E11B8307D8F24012898705D2B8C5D7BA5
:10478000D936710DABBD5813F87EADFF01451E1132
:1047900020021870D510617A408451FE7FC0046EEB
:1047A0004140D8FE022C92C81026954606E7987321
:1047B000300D90BF0799501920F3C3803C736632C7
:1047C0008DBF0A7C0197290FBF0693940EE0707F7E
:1047D000A2A590DDF4C8031868E6BD07FB774B5926
:1047E00046F696BEA9FE5F2380E58BF79FFA9816E2
:1047F000BD8E127FE08D295789DBEEEC09B66EE1A4
:1048000030B7439CFBE0770030BD063940DF448C75
:10481000C02337021C28F04C99D35AFC6A803DF023
:1048200063817F7E041418118160E7AC302012E3AD
:10483000C804197D0B00418C823FE628FC8031348E
:1048400006AE46FF184093480801A011FF308616B7
:10485000100092040838832182D78477178AFAE9F6
:10486000EA3A11F854FD7780FF8809B4F95027908F
:10487000AE2CA4EB01048AFE285A44126978A620C3
:1048800009047B3CFBF83DBE22D3C88846EF3FC5F8
:1048900048ABE6F75651EBD1A623F8D4661FEE914C
:1048A0008171E42BD703CF985FF780D313F7823061
:1048B000E690B2FFE0BB5A6E6D13DC1DAE0C2F0B01
:1048C000BB5CEDCC79306EEE74FB3C7DF66D76987A
:1048D000FE40C2DCD38B94F7D640E9FC358B022234
:1048E000BA918165C3FEA0B612A3181172BA2C90BA
:1048F000FB6076C04F9981608128EEA80180F7A007
:104900009653EFB912B3DDF57686FE28A545979B41
:10491000B86601A051DC201688E2AD6103CF12F326
:10492000041040F2B2FD0088B40EC042B96A4439A6
:104930000702509C030124E518110BE06D94FDB1B2
:10494000F70E70FB313C191F761ADE1387083349C6
:1049500084F3A3E0602140DD4193375D059E123A68
:104960004C08897B1F42F860B96AF20F1EC859C80B
:10497000779FB8EB9880B3C8680A1CE77B8612CA99
:1049800018A703C805820D8066B930F14B23014F8B
:104990006D98A00732C88BC6BB6F60FFFFD4C25CA6
:1049A0003D250D9FFB947F9FC5DE441088018066E6
:1049B0004BCAEDF81885E2237921FACF009F2DCF5D
:1049C0000806014078D3FA92812010A9E53090DFE3
:1049D000B981981307218C2B137C4DC8208823E0C4
:1049E00011CB4C012BBFD4244B95124EA037A1F70D
:1049F000056A4280EF2E988DF446FFC00850109350
:104A000040440C77F088A8FCBA113410CC7B525F7C
:104A10004308020CFEA801241116C418BDE860FB6F
:104A20000C01A00934B5366EF4EEC3BA016BFEC4B6
:104A300053A8BB91013607161202AF5226985C04A8
:104A4000847E04D008934813271181A1E309B44060
:104A5000CAFA9B273EC21003409120A00168390A80
:104A600062928140EA9F653EC9C388844CEE5C59DE
:104A7000D7B38297AD1130D3C20DCFB8F051DCD788
:104A8000C554DA9DF8E24A19CD908826CC400EF83C
:104A90002DADE13B74A937DA21A720CCAEC9E7B927
:104AA00089DE45F019BABB644DD3071FD3997FC087
:104AB000192616AF1468CE60A79CB930FFA42B80CE
:104AC000FD98405E7BF30D8004B0B8D05E8B5B76C2
:104AD000912CF39D9FFA2AF9ABE9A784114711861F
:104AE000CCBB25F981E0668898C0933CE0B001A07A
:104AF00075F9751ABA8F4480EBB00482A117D1887A
:104B0000A97EA6216B8202753D22D4AA8982130256
:104B1000D98FE0113BB3D8A3CEB906D7EB119AFBDE
:104B2000D50C02C830909A1304DDE84974940599B5
:104B300078886433F331D0F8BFFDD79802733D789D
:104B40004077A2C588C034FE1E900318200FE4945D
:104B5000F304B3E5CA233ED26B4A14CABD1FD33057
:104B600044D3F0DB0FE2F89881C6E23DE61020FF67
:104B7000FD94B502CBC866F31003DF2BC8D798228B
:104B80008DE6A88A2FFA31C99BDC79E07998FE6B13
:104B90002B255D82311030D9C8B940E00502607D17
:104BA000F88045B008CBF3019EB381411090F5BB6E
:104BB0004A7DF8E20FFD678205DB1498056FF54C1E
:104BC00002C350B0F0068048983E0A62010C88BDCE
:104BD00005E8EBFDA051EECAF798236804CF2C241A
:104BE000738140147088F8AC498401054919C6E501
:104BF000ABCABBC47330FFEA1B80118B3016CA10DE
:104C000002B9DEDE0C281E2401BF2292FF481249A1
:104C10000289A00904EB0184FBAE1E3B8ADBC520A0
:104C20000CF20ED36EABC9BBE6485E727B4B11B77C
:104C30009E50CD7FAAB38164A8ACE7BCF519B580BE
:104C400081D78008BCE52004848140F548FDF2F955
:104C5000CCFF039810B80EDDFD22EF0CCBC8FFCCC3
:104C600046EEC0CB50EFA9754EAAAF9BBF7FE6AC16
:104C7000BF1AE4B028CD90C0378420570BA7D3C803
:104C8000FF88C204A05C5DE7584003DA0D809C05F4
:104C9000D604C20A19DA67C9C866AF85FDBE560DCB
:104CA000EB14813C075D3CB6F9CA8934DA236FA462
:104CB000F2C84CDA279A3F232A812CFDA208221140
:104CC000C3FF221A42B4F1984D175030CA12208FF8
:104CD00015D7AC97C8FF8762A0DC5F9066E6577B6C
:104CE000BAD330B2C867D480696242FE40840520DE
:104CF0002226043F100112FC6024888231001C1916
:104D0000FCAE33085DFF1798DDA6F3F4F3085FF3FC
:104D100092C879B9AB0ABFCADEC8578FB00FFCD7AB
:104D20009B321A0366C83D72F3F040F3D393303CD4
:104D30005AF95F907652C8D060EEBF516F292EC3EA
:104D400023233B97FFCAA02C055EB0237AEB838E0A
:104D5000D3CAA8EB0AB830FCF0C82089FEBC4530A5
:104D6000022665B3E32C0A097F051046E1C12458E9
:104D700090A6166EBBB043190EBD4AAD03D72013E3
:104D8000D7F27DBE0188580817C07F91310506C053
:104D900004189F02A6844C90083F95E0FD80913452
:104DA0001572305A69C868A011FCB01016C404828C
:104DB000677B98A40505DDB1FA8C77CB3241795A2F
:104DC00063BF53BBE04AD310E130E0E2042D20750D
:104DD000240110989B48A34F0269301408D750F85B
:104DE0004223BB02E98F890CA184199371702DEFC6
:104DF0008006F8D44BFE7A1E073713FB4A3308E7C8
:104E0000E330B614BA1C01097E47B77E6BBB68EF6E
:104E10007FEBCDDCE10FC001AE633F30E5050B1346
:104E2000D6E3CE18DDDB0DFFD969371BFFB840BCD8
:104E3000BC6BEF7B2A08604128BF19145E3072D02A
:104E40001D07B8FCA83A664012FE7F11439466A085
:104E5000E35C30D6980272C88D90C9EE77855EB358
:104E6000EAF71649F7D137FFF06BBC14589F04D30B
:104E7000020CA211B9B49B1A9A106D427A802405D3
:104E800092F8CCC8206700632BC5FEAC30124602F6
:104E900039F84C0C8C045D0211EE5E0380059FF81E
:104EA0007FCF4BCE04813009CC2001E721F9C42209
:104EB000408041F27FB1981340DF91F437F960648C
:104EC000F517F06AC0CA685EC5EB304016CF98CBC4
:104ED000BB9E6E8E1A823AE7F8532F0BBD3DD3303E
:104EE000152FD31AE5309017F3A6987AC6E4B76B5E
:104EF000A0DFFC04D7E5F9C5A71B307A8B0C8F9592
:104F0000C82E0FDA8FEE740B02BA37D3B56403AA3A
:104F10008F843F668B304E82D7150899FE5EB2D6DD
:104F200020467DAE0223404417CD8C98A19853B300
:104F30000AE58C84053ED9905FC67B8FC40A77381A
:104F4000D80402407398A82076F3F03009B382FCAD
:104F500058081060214C1D052267C8A009E73004DD
:104F600006DE1801C523083CC02130067E9044822D
:104F700098B341815B0132B57BB2DF7DA29F738024
:104F8000DD4BFFEBA01184D2D922B0BF3B0DF52041
:104F9000042681C330F312876941CEB0018CA8FA90
:104FA0005F33D5EBBD56414079E82FF342E17D4AAE
:104FB0004AF3A07CF6D6C4215001742AEBDD0AFF27
:104FC00020D535000C517F581F9CF7DBF2EC906F19
:104FD000B34143BD1C5DDE5F8C4AF3B0FAD5EC37BC
:104FE0000C94F3DD65FBF877A2BE4BBF77DDE05B89
:104FF000FF856D302035E61A45B2C7A13AB3C0022D
:1050000020F21179B0A0FB88050371E367C8820D17
:105010002EB609E399767BC888A801FF63F8EE44B1
:105020004811FF7786DD46CCFF081D01011D97A8BA
:10503000F7CD35407BF92302771252A4FD17483093
:10504000129C40A380087B018B2781302CA2354421
:10505000F114F34FCAFCA4FAA3BD1019DBADDF0DA8
:10506000EC20EBC18480F932244091276E874258AE
:10507000F308220414F344214FDDFBC13D60E25FDD
:1050800006C230169AF3F440EAD1CDC86871303FB9
:1050900088B04F480B10024CB30D426CE841BFE0A2
:1050A0002BD5F9F90F64D346829E5E599BFB3810CD
:1050B00020FE04BFFCC27130DAA678F30A183FBCA8
:1050C000945080F7AD126815580255BF8A8C2FFB9B
:1050D000F2A52F893FCCEB456E8722F3A9053B282B
:1050E0000A220DC0FF3FBF04CB98F4AF58F72DC77D
:1050F0007455293E28A8B3FFFCD811312226C103DC
:10510000262332692C9675E02642FF9B8B40418C0A
:10511000E60211329CFC2B1B27FFB39403C4D3106F
:1051200001B6E2ABD840FFE3D3BCFB5F985D2044FF
:105130004C29B30188F3DEB5C1449422EDB387EA6C
:10514000EEB128B6D3D0FA031E7BFF980A5562BB96
:10515000FEE0ECEF28EE71D648D8FE28F36618572B
:10516000DCAC37F8F6E4EE946E3839DE5BF8ACB3BD
:1051700080969B02E3F6B3A0BF4C9EC9EACFB876F7
:10518000C858EA408B6651F901BAB208C832B59ED8
:10519000B2942BC809E7F8E20FD8B70737B559B270
:1051A000100FB42098F904795EC0515B9144FFA8B8
:1051B00044076E1C48D59E5801B824B6FF32245BC4
:1051C00017C9FE43C233EDF9CCA8E33762E0336977
:1051D000FECCB5A8FA79DD89ACFF02A3F97320658E
:1051E000D008A2F341F5F390EDE3B8FE8D7E1410E4
:1051F000C5D6EC81FF4AED011044D4E4FBFC625FAC
:105200002F6B9677526508E56C2494ACA320194265
:10521000D3CA72CA843319D6B120E6FBE6AE791040
:1052200019E9694504E15A626E78B801B2CBF5DE3E
:1052300001C6FB28F2DB082199E90E9C88F9805E03
:10524000B6E2DB108026D1806A188DDB4F33FB1568
:105250007108F1629F55B9106398B7FFF9B09D7E50
:105260008BDCE67119C067FBE5401015C2D386CD13
:105270000D4B80F920040840F9CD2FE60482BFBB16
:1052800088E1400820DA221806A07BA2B0FED3975E
:105290002FF42021C15AFCAE68CD6405CA26DED5A4
:1052A000832B03812C0DF7A001D441255560CB9EA3
:1052B000B23C9E8008300932C6EE4851013F39B8F1
:1052C000DF8012140BEE076D18C0E0FDF0B8928677
:1052D0008CF31810D7C548E521056F3E5D16624076
:1052E00044084746B30C8BB2D31622E828CF0416E5
:1052F000CEE80140252571FDD12B553CE95080FEBB
:105300008CC6CFF16CE27FD894A7974ADDACB03A57
:10531000D9FF7334A0FFEDCD0884E502116AE1AF37
:1053200074DE0481FC5FB2B308D66604DEB8BF1039
:10533000222E353D0181D5B8F8B9C9F41205BCAFAC
:105340007158469F6BA602CC725FBB8C90FFF8DF52
:10535000D8E9F3F32FA5BFC58A25FF11FD97D7CF55
:1053600067EB58FB71CD8DADFF208C7E5B96A4184A
:10537000E6DB4719CA86AA369C5E98B704F5D202C6
:10538000BB8B78FF6FF3E0F2107FCBB518CC495B95
:105390006D1716E84279A0DF6640195EE119942D79
:1053A0009404AEF3636103EC01EFF6AF1058FF30E5
:1053B0002847D284976BD115188E590F6DAF48F9D5
:1053C000BFD9B786B72DF5CEC6F7220969ED3E984D
:1053D000F91BA119D8A75CADF0217886D47FC6D679
:1053E0000660FF3264E5F68526FF5B19D0FA6AF0A5
:1053F000DA025034B722C0F0A003F509FC09677D3A
:1054000031720BA0DB4515F8AF68B96025FD691551
:1054100099FFFAA049EE06FDB50AF50004BA580551
:10542000C47E8DC632EC0684FD58FCC9CE189A4560
:105430009BF5024622E0FFF3F373BF723C58541011
:105440009F9151D7BAD360F28FCBC54D6CB7C8FED0
:10545000BEB17AE3FF1C3BD34CAFFFB19B73CF1CB3
:10546000EA44CBC818FBF409FDD6026AA8B618FBBB
:105470007F1A335FC5ACF289BBD498FE8027E04227
:105480005F8096893A786CD36FF16D50F5572CCACE
:10549000F964CAC5BDEF206F951BF73674694810D3
:1054A0002EF6FC58F8C8F5A4C098B8B004BFBBAE3F
:1054B000B8FDFE68C26DDA4720809C627F66D9F035
:1054C000FA5F162C4CC3C2CCE9F57B018B77D0F880
:1054D000FA677D5BE6C1FDF936C640AB08215FB1D6
:1054E000909EE55748FFC9A71B10761D08DD2402D2
:1054F000B48033B8015AB862ED890F0172DC12DB57
:10550000EF9AF2E50F24041CD2E990B2088BD8225E
:105510006BAD4B8411F118F549082DD94016428125
:10552000AA0882FFFD4CF920130CA0CD0184ECD019
:105530002BA303F4D3B0EA9F02C00A200104B4AD48
:1055400000B433633983F2B87046B287600CCC057F
:1055500009B836E9D2420AE8AC776B08FB3E2A0666
:105560008680140873E7F68CC994255A2216905742
:10557000E832FC012DADCA3B71584F30505C0241FE
:10558000287F04803008100948A79184A6433384FB
:105590000C2144070ED8B6FCD5DC48DFF57ED88C4C
:1055A000DF5333D341208F088010AFD3B3C9357C8C
:1055B00068776217884944BA9748C440F1100BDCF9
:1055C0005FEC9B8240FD164FE46E8459B801E65FA4
:1055D000F3FD4D48FBEBF81233A526ACA96AE0E3D6
:1055E000D99BE1B50823A465C83B84D7FB3044FFB1
:1055F00041944A64F9A205696EC42DE556DF3077FF
:105600005949FC0F5FCC62DF00B3014DE6486E6F75
:1056100081EDB65BF080FCFDE8EC18FFF0C4F2FB16
:10562000C53875BC7B59C64BA040749944964466F6
:10563000126A7F08CB2F2BBC09EB57E2DB2A3836E6
:105640004898F80C7F76952059EB8AAED330E47DEC
:10565000FEBDD4980877DA81F2C911D4E146F3622D
:105660005A14466757EDFC28D8F6B4FB0C532CE2CD
:10567000F31933A363B3FA519BD698FB739B7E3324
:105680008B88264CDCE559D329B980CD65B69510B9
:10569000FD52C601CF335EF68BFF3F108F55F503E9
:1056A00088A8C3A6F3AFE8FECA573420D9C25A80EF
:1056B00066ED4A980767A57C80B3E0CB1982E2B11A
:1056C000C54C575756CF88AAA2FC5AB4A286F4AD4F
:1056D000013D4CF4090A60DCA5C4FF5E20EB6C01BF
:1056E0000DD7F90920876074680401F334ACFA48D7
:1056F0006259D82CDE6CFFB74D0C66FA253006E0F7
:10570000FED921C00218DD250636FD783B9B2922F3
:1057100028F294F344F9DC18FAA8B526766B2C0825
:105720000412B166116080878081782B14FD8E2071
:105730009AB9E0FFD9497673700B6036E1109FA1EA
:1057400082588C5D6DB30B3C64201040068CB3080E
:10575000025880E7AD0A604D190C880FC7B7037A6D
:1057600020DA0F6029BC1E4D406348B4C01F7A1078
:1057700003E001BF1CF5ECC0FFEC03E4410C07E8BB
:10578000FC79F00CFCF060B5A9586F18D96AE7D322
:1057900074F34B30FE83F5C6807F6D18F95F7FA3ED
:1057A0000819D9B34C822079B395EEB108302BD5C6
:1057B000F71564BF1940822088493011C52DADC648
:1057C0008120CF2258FF80090690F50420E6692346
:1057D000BF0B462AFF3177FD3F9195101891EC41A0
:1057E00041210E4404C24277E192400BFF41818087
:1057F0003134008C97FB60FDFCC6D2282EFB4EEEA8
:105800002AFE0D9EF77715EE06C8F39770432052D7
:1058100083FA849D0C10FCE0DB40BCF2B0C4F4DAE7
:10582000071E66BBDEFF09B3EDDD2E04F8CF9642FE
:1058300044893C187AB450F798A8FDA49201DE8FF1
:10584000DBCC98475EA412666FDEE742C27635B7BE
:10585000722FEB22BC8B4F33046611136CDC81205A
:105860007EFF53FB0488301246614DF51301AF36BD
:105870008DC00863666778BFFFFBF557BC711ABE21
:10588000EB608220C8A5B370662023401173D42238
:10589000D198FCBF3C0BEB7DC698FC0FF539F09915
:1058A000EF9D9C07E81E7FFB8B8474017F5D9880D1
:1058B000EEA5810C901A7893C00158401568EDA8A8
:1058C000D0FB745EBB19897DE80C68D6676A606995
:1058D000F4BB0A0BB427B56460F78CF0D5D7660823
:1058E0008CABEF80E6D7A1F9EF340E1641D5B302A9
:1058F0006223B3FF326AF8B239778E6127B42FB0D2
:10590000109842CE98DA0962D884A99FFDAE20880B
:1059100063FF6598600895E675BF4CB4A07D2AFECC
:1059200067324408DF4AE92239EE938069CF3009B3
:105930001181280324864DF41A406E3D41E65B3800
:10594000FEC8E535629BEBE48047B3BCEE32B96735
:10595000F85246B325AAE1185EF310BEDF48FAEA12
:1059600083B43723E53DB098B3FABEEE36DD0B7D48
:10597000F842663DBB05BA8660DC8A84380C33AFDA
:105980003038FDFA085204D80BCBE0CB9866490AB0
:1059900004CB7BB396FEA2DDFB446EDC71BBF0BF93
:1059A00026DFE54244208411E2011040A1A4BD2677
:1059B0001AC63066B9FCF5B0061461EEFD4401412B
:1059C000400850DF7FB222F571B6F7FF1675213D12
:1059D0006F562DEF10B7EE6062CCCB50D6DE20971D
:1059E00073F0CD818CBE31301120F87B703D800387
:1059F000FC986F030F5B43F06D93A67D62860A13DC
:105A000016EF2207290E0540D85CAFAF014398E896
:105A1000B91C4306AFD0CCDF0FA23C1E48FC04EFFC
:105A20005A9881F8E58EE3CFF1E5DFBC125C603176
:105A30002937E203EBD2B9300869B3F6E00C30F253
:105A400030F0E1F8F58534F6CC8BB32C4F599844FF
:105A5000DA27D9801439918616E7F7640204E581C4
:105A60004530D03819204060500C3D10B00038D976
:105A7000C8B98486097E62C804B3B25807AEBAC1F9
:105A8000A13BF4DC8763EBBB0884D0BE6F422248A5
:105A900004AF4D13A59AF31AC94208E9C671A9DDEE
:105AA000B16765C899DF64B4BB41A377F020546641
:105AB000F6EE11ED966110B680366AC635B9D8BCDF
:105AC000492808BBCF57E91899B8FC30F258BA53A7
:105AD000EB46B7A576BF18CE1EE1D7628F400C7299
