:100000000C94E5400C9404410C9404410C9404417C
:100010000C9404410C94DD440C9441450C94A5458A
:100020000C94B8450C9404410C940F440C94044176
:100030000C9404410C9404410C9404410C9404412C
:100040000C9404410C9404410C9404410C9404411C
:100050000C9404410C9404410C9404410C9404410C
:100060000C9404410C9404410C9404410C940441FC
:100070000C9404410C9404410C9404410C940441EC
:100080000C9404410C9404410C9404417F7F7F7FC5
:100090007F7F7F7F7F7F7F7F7F7F7F7F7F7F7F7F70
:1000A0007F7F7F7F7F7F070007047F7F7F7F7F7F4A
:1000B000077F7F7F7F7F057F047F7F7F7F7F7F7FBD
:1000C0000F7F0E7F067F0D7F0C7F7F7F7F7F1F7FDF
:1000D000177F167F157F1C7F147F7F7F7F7F007FB8
:1000E000277F1E7F257F1D7F247F7F7F7F7F187F57
:1000F000207F217F267F227F237F7F7F7F7F7F7FDF
:10010000107F197F1A7F1B7F137F7F7F7F7F0818E7
:10011000117F127F0A7F037F0B7F7F7F7F7F081015
:10012000081F097F080F027F08197F7F7F7F7F7F6D
:1001300008027F7F081308117F7F7F7F070C087FED
:10014000017F080B7F7F08077F7F7F7F7F7F080706
:100150007F7F7F7F7F7F7F7F07037F7F7F7F047F1E
:100160007F7F1C7F1B7F7F7F7F7F7F7F037F0810C8
:100170000C7F247F237F137F7A7F7F7F7F7F08110F
:10018000147F081908200B7F7F7F7F7F7F7F7F7F11
:100190007F7F7F7F7F7F7F7F7F7F7F7F7F7F7F7F6F
:1001A0007F7F7F7F7F7F7F7F7F7F7F7F7F7F7F7F5F
:1001B0007F7F7F7F7F7F7F7F7F7F7F7F7F7F7F7F4F
:1001C0007F7F7F7F7F7F7F7F7F7F7F7F7F7F7F7F3F
:1001D0007F7F7F7F7F7F7F7F7F7F7F7F7F7F7F7F2F
:1001E0007F7F7F7F7F7F7F7F7F7F7F7F7F7F7F7F1F
:1001F0007F7F7F7F7F7F7F7F7F7F7F7F7F7F7F7F0F
:100200007F7F7F7F7F7F7F7F7F7F7F7F7F7F7F7FFE
:100210007F7F7F7F7F7F7F7F7F7F7F7F7F7F7F7FEE
:1002200008277F7F7F7F7F7F7F7F7F7F7F7F7F7FAD
:100230007F7F7F7F7F7F7F7F7F7F7F7F7F7F7F7FCE
:10024000017F7F7F7F7F7F7F7F7F7F7F7F7F7F7F3C
:100250007F7F7F7F7F7F7F7F7F7F7F7F7F7F08158F
:100260007F7F072408057F7F7F7F7F7F080D070B37
:1002700007237F7F0713071B7A7F7F7F7F7F7F7F27
:10028000071C7F7F7F7F07147F7F7F7FFF1F627F39
:10029000C23C006088FFFFA0089001324006C8C63B
:1002A0000019FF03050A4414812241CF068AF32076
:1002B0000365FBA00C94290034FF7EED81325006CB
:1002C000CA161928F5E0A939C6880098D3E76480D2
:1002D0000CB948F9FF0015E0025C800B70C3012ED9
:1002E000C30468F32AA002F4F3503CF3C005A8C38A
:1002F000E6A06727B312E05480C30AD0DA2A402E62
:10030000E0544FD374D3B8001738B960F84C121BBF
:10031000FF98FF1740E520EC048001F4EA80081004
:100320001802C010086F0159E0104DE4E8FEEBCA56
:10033000828DDD45D2FF3EFA024020080445D0629E
:10034000499DA0D39006E0200AA0E0E299ED40FF8D
:1003500049A381F602F96EBCC0FEF42080C821CF0B
:1003600070BA0D36A84009EBEC4066F70440689679
:10037000A0AC3276E05001188AEB097AA9408028B7
:10038000F832EB0CCEA67601A0331EFEDB240A9ECB
:10039000FB9A440249F1BB4FB1FC85D5808F1BB35A
:1003A0009B89366FFD404AEA03CA58DD02F8B3BBA9
:1003B00015FE8008840258D1BBC0D8FD20B99084B6
:1003C00004B3B477F6808B609F43ECD0FC809F59D8
:1003D000678C5FCCD88C08421F7FFB6D124221DEF8
:1003E000F290FDE001C8597F0F4CD70F60063C65C5
:1003F000B93C901EEDC003781BF1C8F829330C6599
:10040000F579840B67309EB318100360D3DB44E0AA
:10041000FA0808B3D6F332105C09B0FB815043B43C
:100420006003BCFA631F7F677E96C405CD9AB0DA7D
:10043000240176D30CD1D3DCB0FD8BCFB87D5A022A
:1004400067C0FF06889119E6ABF1D8FBB14065BDE6
:1004500002BAF611F7B3077748B3EF40B359087EF5
:1004600061EC68F82820571969532BCD77B3D8EF82
:10047000058BD81802F72262080C7BABDBFCD88016
:1004800085AAB34CDDF6517BB38E47D968CFABB3A9
:10049000B09466803BBD122029D8FAE0B7B6B30FFE
:1004A00002673DCE4A84E00D9ADDB91CFB1EAFC445
:1004B0003D98D318D8F984B2B30CCDE1817AB3203A
:1004C000FD981070BDDA64603BD363F980088EB389
:1004D00039318404623D64FD58042360112CEB39EA
:1004E000FBB81BCCFB5B3F973040B0B70E236C666C
:1004F000D387D8A418611D60844CFDF47EACFC0643
:10050000678D30D3665CB37767ED39E0191A8119CE
:10051000DCFA407B627E986FFB6558DCFA4D770A07
:100520006625F5F6F97A70497EB4AFFC247D63BC8C
:1005300030BD6066418D6FFF624A661AF052170D3A
:10054000FAD6FAEFB1323EDB608CA5F6585ACEB33C
:10055000E70AFFCD6E3D300AFFF2100B02BF225EAC
:10056000C290FBE041BEE3C499180F6463657CCC84
:100570000907ED66AF663CFF8FC003187F4EAE12D1
:10058000F988C21F31E57E333019F1A8FE695ED0CB
:10059000118D8DB3E009FE98597F6269B308E56B50
:1005A000ABFC2014FA7FCA005AD3119CB33AE31271
:1005B000ABE05D01EB6B0833F3CC984748BF205BA1
:1005C000C2A4F91BDB692B9E95427760BBCF3F66C7
:1005D00069494D0C7AF1F9C57EEFF5723C94ACF7A0
:1005E0002977A9FBF98091FBEC385F6F985820F6CA
:1005F00098B8F9C6B749346A687B665D77BFA6CC00
:1006000098958234AFAD98603D986BACFDB1C84F02
:10061000D07F8CEB568766FB985967EC29CF01C2D7
:10062000B33FE0DB984021FD98A9BBFCCC9845B4D2
:1006300078D7400FD72F1BE9FF50448DE9A00D0458
:10064000C4070D91FB0F084F5A98797B98C0FD287D
:10065000B6F0CF15B246A48DC6B2028FECF9EED338
:10066000B10403D345F95BFC30B3468DE2F8F7895A
:10067000852702BC48B53401A3B85E10F5B962A362
:100680003EB8FE77B698220161E3EEFC292288D4B9
:10069000F04BB3FFBF21A0BB23CC989FDC4EB4D658
:1006A0009852E161CFE630F8FC1B3F6BBFED9DD661
:1006B000EB02BD6441BA3713A0F8984B023373962E
:1006C00008E360BD4039E0B9FCC505623E7564F6DB
:1006D000B170F7FA4913A2BF33ECCCD7D614888295
:1006E0006BCF3030FC880536461425EAE584328D20
:1006F000BD985FEF038583F8CC6CCD76AF9A400B45
:10070000BC30F6C2FF8051772E30C07D1960108C4E
:100710000880AFFA32B0014279A94B438248F94BC5
:10072000D3042FAB64DD5B120222FEA2E0A0F8E04E
:10073000B3B930F071FB66F560DF3706013AA142CC
:100740000F802FB9339879301EB6C8E73030FF8458
:10075000B341B5FBC06DE6E5EBEA0196F5042BC4A9
:10076000F7B66AF19BB11909BE6AC45DB34C0420A7
:10077000AB194022192DB3827FF28664AEB3406D6F
:10078000B304235B8A10FDF2C8BC76CE1760F29AE0
:10079000C41FB3FE3A6260BBFEBCF89FC9F5C241FC
:1007A0007D60FC30D964F85EA0637B49F650372049
:1007B000FF27C154DB37D390F9E5C8A9039FD28E38
:1007C00089F3B9DE7C2733AAFFCF3F406EE3CB111C
:1007D000CFB359191666DFE623DB2FBD68BE0FA322
:1007E000736611DD1C902F8908F79813FF80AF41C5
:1007F000EEF9C00833761DAD208021B166EF1755A4
:10080000276ABF79E890DDDCB0208BE2100B01BFD6
:10081000DB98C1F9FD98F172D278CCF74403E2017C
:100820006DD764BD660502200B17F3996BBE98EB7C
:10083000C00378CFE2EB1743ACFEDCCD2040E6AD41
:100840000F0F5B660571309C18AE04BDD1F7A3BFD6
:10085000F836C8C024B3A282B3380161B66A8F8368
:10086000EEF78026C9F54205DF7F5C306AF1B8FB00
:1008700091237CDBD688F32C4429B6A23430F7A729
:1008800043DD41B967B340651F6CCF300360420957
:10089000B804193B7D16E7CC49D9D942704C364390
:1008A000B3475FDA01FF19A4BB981F806068D8EDD9
:1008B000F0FD607FACC02C50B616100CE3E6D2F50C
:1008C00012199EDF21550977E6660504C83FB886F0
:1008D000307570050BFEDBE5FA2444E09DF7ACB6FD
:1008E000808408CBF56ADECA095515E7F3B83519D7
:1008F0001AE02180685E4C24EDFC8449756213CDBA
:100900006104A93191DBB28C75B312EF2647D5098A
:100910007F2CD8BD6F353022E130400228E7A898FF
:10092000FC406BC55DE8D22036E0EAD718E13040E4
:10093000657F7F131DDE010719625C30599B4EB342
:10094000FD8801D737F503FDC295DB178054F0020F
:10095000B896E0E3A43466F78908030269DD17D08E
:10096000FD6D4918FF83B3204CBC0118DFAD7296B2
:10097000E5167EE8E31286E642F0FFEF5D9C26C2B4
:1009800030C5CA57FF68163099C50519917DFBEF30
:10099000A0217E3530DE831044ECEEC80401DE9FDA
:1009A000BCFAD046CFF5C0608873E01540A3FF467F
:1009B00038FFFCBBC88E853B19D4560750B3C01610
:1009C000DD704EEFE3327AFA0AC553ABF95FD366B6
:1009D000EBF91480DA02707B5EB0FA2CAB4FD4983E
:1009E000688D36BA0A8784EBDB86CDF264EF882106
:1009F000D3C9D0151522EF4C9A42A3682E867AEB04
:100A000033F98011E5E9C17A0263CC7EB2414C0230
:100A1000483006D46653E18D8D13C3AE8C6BF6055A
:100A2000FD4A2FC4CEC820829EB9D1FEE041BF3C12
:100A3000F046199A4F65FA983CDB543A9021CC2045
:100A40000816E806FF0F43E5E0082D197D98E05DE4
:100A50006DDE88F9E3B4C033E3B5AF3047BBAD809A
:100A6000D073C388716697EBE580F2C869D382D6EC
:100A70005BB1F887B30128B06D9D860802FCAB35E9
:100A8000F111FB9F08236949ED10E498080BDABBCC
:100A90000090D4FA18D1FF96B3EEEE40FF08F1C5EE
:100AA000DBD3A0FEB84751A188DBE2671BF37D4B87
:100AB000DF32CDC6EFB32818EDC3D348FC01840B59
:100AC000FF50F32EC4EC6F62DF75D8FAB028816650
:100AD000287BB344E7D850FDE339C8FE46F63E66AE
:100AE0007F7D97CEEF62FF8E30D8D8F82C809D8026
:100AF000188F93D3F21178D5062EC00F0CC173C492
:100B000065FF5418FB5D0F6EBE46DEDC8D68D16557
:100B1000ED38BF1BD59EFFB1B71006C6BE7FC7FE1E
:100B2000CCC931C2B5D3B88D7DF9BE987FDFACA2F8
:100B3000248D402FF96082FF5E797EACFCFE69DB7C
:100B400020626BEA013B36EB80A0EC2CFE10CD68F6
:100B50003F028CB1FB52DE5A92041888F8B3B5B547
:100B6000FE5530FDC2551C80842B5D3825B3086AC4
:100B70007363BCB86EA8B3283C7DBBD6FD67FF6C21
:100B800004226E4162EB5008C4BECE07B6A2010239
:100B90008BC5C025B31837C2052D3014D6B301223A
:100BA00067A310B0D9880144F3B420ECC603568B78
:100BB00055FA14F2CD0C8496795210FF343040B5BA
:100BC000466C3D90FCF3390DCCFF6BAFB1DBAC084C
:100BD0007DE8083617218DF50DFB87DE4D6BC7C705
:100BE000FD8BB1198C75C78F769010C85B19FD7D90
:100BF0008987FFCE49B3FCB8608EFFD8CCFB482F65
:100C000079FF8EF12569AF8BFDF1865EE5630B6B95
:100C1000401558ED02B28CD8EEB0FEBC16CF5E3A4D
:100C20000805C280F86090FFD898FF11A6B3FFDDD9
:100C3000B088C756FC042DFB08F805151940AE997D
:100C4000BD9B1667F1CA8EEB9E51FD609866B04061
:100C500047FD7DC8861C30B308FF6F026BFCF04077
:100C6000F9B0FCE3B662046676ACD0F9399BA20217
:100C7000087B94406CAED8E8FDB6998BBF35611304
:100C80008DECFB63FFA6613F0031D888FBBF2C8D44
:100C900001A01903B087BBEFB8FA18FD4B02CBD8FF
:100CA000846396087F7E70B0FB93D6238031DBE9A6
:100CB0002021F6FEB3088CD17F4D23DB898008729A
:100CC000F30DE804EDD8FD80433A33051C7F7657D9
:100CD00020C412B41025DDDC011443AF101CB5C5CF
:100CE00076D891FD208D6850C395F48635834A20CF
:100CF00068C80D97FDFC1D80B03985E00C1487D6BF
:100D00005237F30A3E72181050FB809FC4421448B9
:100D10004140C502208080688552DFE7550C89215B
:100D2000D820148319A00433B698DFC0B9B0B11429
:100D3000379EA03B2B9001049DE648FD40C6EA2B60
:100D4000C28F3AC5D6FF21A61653D6F0FC2CF0B5BB
:100D50003908A8AA40E302D84097D27F6640223CD7
:100D6000717CDF6FF6FEB160FF2B08FE428C9F5B4B
:100D7000F20A407FD7FBA9B4FD2CD6C65617012C2A
:100D8000B2B7026CE2A8FEFE96B3732E6263AB8F1D
:100D9000A01ECD7BA0A968845CBCECB0FD086FEC04
:100DA000D17DED107196B287FCC30DD81102B7AC9E
:100DB000C5B030CAC83274C8B2A409EB6383B34467
:100DC0008079C5967BB380F9B44064FF4409FA6426
:100DD00098E55A5D67F21AD0CFDB490E7FBCB8B1F7
:100DE000FD231ED429111C61496725AD78B38C6E93
:100DF000BC80C25F5AE502AD62287BFE181E03EE7E
:100E000032FC75E10C5C30625B405BE125C6E43C82
:100E1000690488241073CB1A85210120F34D88358D
:100E2000E8863FCC5CB246882257B458426630B957
:100E30001E4D03406F1A92557B41C4FA779B6A0698
:100E4000C0C7ACB388014BEE80659F70AF76FE28BB
:100E500042A620FB1E46FD259591A4E6187ED6AE3F
:100E60009FBCFBD544C9F3C66068B391C0DF8FF463
:100E7000080C022D5C7F1760CB102C8912E8331F01
:100E800026C04418089E23F64C888569BC46ED03AD
:100E90009C23D78C904E312118D3F4CCF0194926DD
:100EA0000FFBB53CEC9078B1DC3FF97F3C8807F450
:100EB000D3C4C0833FD3E0013C9007112DF3030658
:100EC000F397F8D16680BF18E8196603536615FDDD
:100ED00082307CCFBF89FF118001100806427C89D7
:100EE000F4F330DA0AFFFF5E18047F99D32EB34083
:100EF0008101CBF7810498026EB32FE340C0904D7F
:100F0000B35020B0B3479266A112B6F9CBF298FB6A
:100F1000AC7F976D7D3542238293018E108A044207
:100F2000B4767830100121A7E282207F8F98FB22CF
:100F3000A0FB62FA296EA8DF8881EECF47D4425E1B
:100F400077584B698212EDC8F81A6608234D0F32A4
:100F5000031BDA844156B31101E4EAEF2E8AD0066E
:100F60008FE0424E026FEB44187F6298E8F83DA292
:100F7000282C91C371F43DD1EE88BB672000422933
:100F8000ED330C053C9812E2FA38ABF3967A50DE5A
:100F900098DAC9FD7E324257E9C3125F32B7113683
:100FA000B2FF7F88D101A70BF93FB0E8DF7005E9F8
:100FB0009884F39992FD2C4EEB300416FAD120431D
:100FC000472F81F6301299F8BE98EF06C8035B19D7
:100FD0003C9BB4FB9808407FFDE9FE03280721E015
:100FE000A0D2F48301FF65A53D80EE93EE98D0FA80
:100FF00004D3D79810F56719661F806A0E9414847D
:10100000C5776D7CA8BCE5FFBFCCD7F2061BE77A9D
:10101000E58AD7AB6489AAED4C0194B32CE0DD5985
:10102000792408B3212DD6B398FE4B06F9F03D6B19
:10103000F314A0CE0D625C30AF14BBCAD9515D442D
:10104000B37F9198D47EDA22B8307CB420024482F7
:10105000E5C20A24F37B9838FC6E7771BF89F99852
:101060001CB366818EE4DF1102D68C6657C39A48A2
:10107000FBF690F96CECA590E90C2D3908B830DF3F
:10108000C6986422E7FA9D13A6DFEC08E7982D23A3
:10109000127D982077B69860409E98B4F947728088
:1010A000B4400066DFF4DA407B687C1A22E49ED903
:1010B0000DF646AF1130E1E7B8B5F35048D7A2FBC3
:1010C00098AAFF11A02DCE7623E78C016D66427B96
:1010D0001714ED40820197668A3A2B0BA8A6DF0E03
:1010E000301226E6C44498BA6003BD9840D316C1B6
:1010F000AF2301BF029B3080FD4E81B10EDAC48365
:1011000070303623CB30089C665119669ECBE08048
:1011100007F0BCA55AE0FB98F020F01EC80378DF6A
:10112000ED98F8FCED19C020726A608CCA9E597D5A
:1011300008F9949626ECDC7DDA8260FAE5C08D2A07
:10114000BDE5E980F9D519093BED0A807FA47FB39D
:1011500048B3197B5A15B24036E3C852B3587922C6
:10116000CAE730102202A640348401DFD0F0683B89
:10117000019031479844405440843D4555959D3CED
:10118000ABA22011242A410174104FB44004081A64
:10119000C401600B41024DF324F990386AB667EF41
:1011A0004944C0DD5409E1932BD56FECFB30CC569C
:1011B000904996209C8476DA49E8F9D1F30E8F9015
:1011C000D8B4E07B19024452549EF63C10DD3446FC
:1011D000E37126FB067F90A5233A84F5980C1BF358
:1011E0006915656431F30221995C30DE2150F8EF16
:1011F00012444C7266D983D71283E06E8244375F03
:10120000F2981D0C4E482436E643FADDC5A511B10F
:101210000A97FB41827366FFCC0EDD30DDEA98024F
:10122000419998EB806010E78CF316C14277E26930
:10123000EB845CB9B5FBF19843C0011AB20932C81E
:1012400009DDB86081E7974014884EF94901C5BCB3
:1012500098B3C8F20F1ED077B498E241F3D6F0806D
:101260005DBBE99841C6AFF0B532EC7481D9930A01
:101270005A157A6604F30FFB28070245FF219820D0
:10128000D3B783F3E5F3C82029D3F3ABB5FCEF65FF
:101290009808137BC5300A6CB32D72BA56BEEDF5B3
:1012A000F861FC30E816C002C0C853B3503C042CAF
:1012B00042F395BECCD32334AE3B3076F142DD17FA
:1012C0005D586C669503E2BF09F7E1DD0837ED2252
:1012D0002B7411FD8321224473230888134020FFBF
:1012E0000A048021448408585E9863C5FFB7497F8B
:1012F000B799A4AFE1B639D1DF144791F0BF91B0EF
:10130000B1DFFB23B06FB87F2EEFEDCC3C2044194A
:10131000E056DBDF9444CABAF853ACF3C4682D3905
:1013200085C0DC0319197F13230C6140A10219CF7A
:10133000DAFD08ED0FDFE99B25CCB4206FD4A96F4F
:10134000EC0A7B6683BCD55C5E3F30A2848101B928
:1013500006F39002124EB4918920061AF9D5369000
:10136000020BF6663009DBFD7F4C8005D9B74E7461
:10137000040142BFB391FDE5D1E48845B0FF3F23AE
:10138000E1D102A8DF720A40998B810CC34B82F82D
:101390004219CAC8E2305BB70CEF960FE89741B329
:1013A0008DF63340DFD9FAA5D11FE001F7A5F12072
:1013B0001EFBC40078400F61F30CAF797D8B813C3C
:1013C0001048FBA64BC8A2B2C8E3667EAF64362BBA
:1013D000D5C80109FE916405B797A55EFEE870F3D4
:1013E000DCC6807C4D9051FE919E3E600A04CBF19C
:1013F0004BC647D1FDFCAFAD9025C5B32E7B988180
:10140000092F165FF30BCF30B02038FF6BDEFF8261
:1014100010A0F1C1B06FE598C7501666B436100140
:10142000ABE366DDE5058879B47C52AEE92F309FE9
:1014300076F31A096068689AD820FCFF9E9AB34F29
:10144000F833A8A520059BF714E5BBE744AD7FF969
:101450007E7FB2C8FFDBCC089E19167B665410A7AE
:1014600041B227EAE5DB224066C880FE2530232012
:10147000DC300DA7362368FE9DB1BD28A32564F29C
:10148000302401EC781956AF196F2EB522467199A8
:10149000C869EC433484BDF369117E76C8D2F89BE9
:1014A000995F96B493FD3201B9667E3280F2B0271F
:1014B00066F835DAAFE74280813C46C0BB08FF7F63
:1014C000218C8011B0E508C6C06C668E829DF33019
:1014D0000238A7EBCCF0CB98D6E509FDB14E8603D8
:1014E000E041DC66EFFB2A478DA50423D79879728B
:1014F000300CFCEDC8D083392308DA58FCE8FFBF74
:10150000D0CD98FABB03BE24DB8E7D253639E59716
:10151000E298B6BA178CF38E6D70E1FA7B7F901A61
:1015200003D3AD29DA19048151B308EBC264FBB2CD
:101530001EC9F59813A1B3AF37304024B6B3E8FE07
:10154000DC30A548268897E698AB5C0657EE479BAB
:1015500064BF993E7CD002015173E20C4DF304FF4D
:101560000210D82282481368BD019AF0B3FB3CAD4B
:10157000CFF29B23B36690FD2C36254058E4C7EC90
:10158000207A7780D7FBE430F94F1A7EF0D059EA01
:101590000AD97BBC80665CE7BAF46384ACA4235DA3
:1015A0000A729D196BFB42A437F375A6C2BE981947
:1015B000FD1735D102AE02682425967F05AAB21127
:1015C000FB3C55192AFE35F62B99751B8AA028215C
:1015D0006CF7FCA2A0F3E130F7BF14D898A8FA8CFE
:1015E0008EAC17B7C8FADD3F7C4FB922662E7F0E4E
:1015F000C840E0884130019916B6986180600C823D
:10160000E6880926F3409829212C9805B04BAD17A0
:1016100037490EE0D0031A590B5C302DA34D667B81
:10162000805FDA0D41F330001EF7C483781066D571
:10163000808BF38D307D98388AF9D3AEFEF0988E8A
:101640000666C8F298DBE35CAEC53B4ACD787DE523
:1016500040699BC884FCE58D88BD98A06BC9CA28E9
:101660004EA303E92B9B3040814FB7C1DEDE8011D2
:10167000D0B30404CDB323E048723D08B5FA591B3A
:10168000124169EA98F83D197142F8602008022178
:10169000CCAF1698A7C7B5F37DC03E8050B9308651
:1016A0001DDE0C81202217B009FC04812601181AC6
:1016B000FF8768228DA8093401DAB8F975B1E6CA46
:1016C000FDB666F8B167BDB34FE2118890EA42EE0D
:1016D0004459801E6277ADE4FF79150637ED52FD5F
:1016E0004A93C630CBB324DEB3CC3B507DB83D8E9D
:1016F0008CFAD672D480403033B830BD4C1091048F
:10170000F33B08D8FB55CE40C226E9C8F59812FC39
:10171000307EFBCE4A1011B37522EEA50228207D43
:10172000F39743E5306E16146EF444CDB2022DA249
:101730008B7B1782070920DD4110FB7F062336C80B
:1017400011EB6619BB6452FFFC508C21300940C17B
:10175000FF0218058360112C008C509EF32480102A
:101760000BEDCD6D908AA1A166FCF4813803B2081F
:10177000BD98E45C300DA7E9CC9018C4F027A5050E
:10178000E82F3CE13DD3779EA5F35E98B483CFBBB1
:1017900000D0F964752D19C45E987EDA96F26FD088
:1017A000FFC08D24B288F930812DEBF930844BE6EF
:1017B000735219FC6811BB584CC08F3F98CF4EE153
:1017C00030587F20C72321CDAD97C2C0F491E91BCB
:1017D0003011F310070340D78148611211D8F9F690
:1017E0009C1807B922B3C2F60162990436D3D7B860
:1017F000F956119F8FC2BC36CE23F3DEBDF32245CE
:1018000004DE2E231128C6D2D39819C795FF0CE702
:10181000EBEB04852AB1B1B2D7DDE3288F8B661AD2
:10182000DEB3A42B571BC71B39C8F909DE662C5041
:10183000A651C71BD638FE8DA0CDF1724E5F93E640
:10184000F5FFCC7FF81BCA0565CC53A54466AF2FC6
:101850004CFC37CF3751CBC9CDB10D66D4CBA4EDFD
:10186000679B1713B1F3E0FA637FF967187AE3D344
:1018700098FF6ADBB1405D581108B65BFAF4D1B746
:10188000FC40C3FD61CAFF40CCEE7FC8FFCA30E513
:10189000F4FFB830C345FF0188B6EC98FE3CCAB1EE
:1018A0000235C204893034B8FA187CFFB7086CAD31
:1018B00058FFF3791EE3B973BB3DE4D07FDD32B648
:1018C000E8BE505B4579AA69DC9DE6EF57E84581A3
:1018D000E4CF6F02A0F852F914FC06B5AF0536DD6F
:1018E00028BA4815C6D921AB03ACD9FA44503CB349
:1018F00003FD80E1B4FA7F6C302A800450AC18906C
:1019000040DCAD807FA4011E41C41B66B0024D5C6B
:101910004662CB6C31B3427ECC8C227FEC007DFFE3
:1019200044DBFA08979FDBD97D7AEAEF82319C4F3E
:101930001B0CCC812FF64901AB6EFE7EB33CD678F2
:101940000417F6FEFCD98D026AA26E1DB110E3C425
:101950003FDBE2E0FB6F309F4160FFB8FD30473670
:10196000FFE0300BCCF0D1F7FF617A1990D5B3408E
:10197000DF0488B60B3EC0B780FB2CB6A432DB97E1
:101980005DAD1DEC8A60FD3FE534049219B008A7F7
:101990008F4E15687DE71E17689F94AA38203FD6A2
:1019A0005BF2B0F904BFB07FDBACC06B7696107F02
:1019B00068C80233C6B4150530DFD1BF18ED9035C5
:1019C0001548B0FFB98180627F7F67ED9686ABA92D
:1019D00002238D60FE32C107DBE4D0FB04BFB032CE
:1019E0006458B308F1279FFB7218153019C89D6C15
:1019F000B3FF2458C404B76E9102D81FAD77E3FC3F
:101A000063997FB108FCD68440AD0A80F4FCC7CC52
:101A1000FF27D548888E91B36E8FED29BF363FF8EA
:101A2000FF3BAB6D802CD01353682FB63310CBE641
:101A3000C065B3208AADBB01CCF1F3DA74EE080BBC
:101A4000A0DBD990FD3FF6A804EB904055F720A904
:101A5000DE19ED0171D1B7E6D5FF8136D0FBE7BCC9
:101A600092F1F801B89FFD03EA207AC108C9FE2E61
:101A7000804041EE72E181B88D5EF78F8208D971A6
:101A800071B5FE5E520CE704544EBD049560022011
:101A900001FD779175F0E2D39B935C05F35073D60B
:101AA0001A30F10508800D53F352C045D9FB5E1C76
:101AB000FDE520408E2954F108DE1A0179686F3067
:101AC00082416C06EFCC6503F905FCFA2C0248252F
:101AD000B0FFAE3920D8860A104C26F7A44A60EB36
:101AE000A86C90FC679650402DFB1808FECCF35272
:101AF0002FD7CAFFB7E5402002348402DCC8EDCB03
:101B00006301E538A0E3C0F45EF39381DCB8C25E04
:101B1000EF3188FCC73D4A216ABA672CD92047DBE0
:101B20006C14FA2843C335FF20BFB691B0FFBEDB6B
:101B30002C47F5DA0396D16E77D808019F5755EDFB
:101B4000149896660229DBB1021BCDAF04AA2E3091
:101B5000D1F1A0B0FCAF8DE7D6BA40621880F5A7EE
:101B60007818665FBB940120F7220CB88FB8CE6757
:101B7000F1FDD4A2C28D6F278020FA2614C2F6B5DB
:101B80007869BDF3BBFD63ABC410097E15F3E04E6D
:101B9000DE6450A54649E0CA585452B58059CCFB82
:101BA000C69EEBBD020B774908D80468FEACFC402A
:101BB000CF5E9340F45F8A7AAF20BE7B2B76E3182A
:101BC000FD0B7E30D9992C4062CB8C985566187DE0
:101BD00026AFE853061EDB8C00411584717B8AFB1F
:101BE000FE28F8637A662CD02A5EFFD8195DF0B51E
:101BF00006EF750880079A01F3C04BF60CF51159F2
:101C0000CF3026A073E048FF6FFDCC2001A27126E3
:101C10008F1960E58005D912E4B3DA6EB4B311BE52
:101C2000B2D3DEE5C0201804D166B0CC1016D1982E
:101C300009A3F6838C442C5841660264FD8B9DE613
:101C4000E38819F0561EA9E63C1900D3F3C4A60F89
:101C5000E2D9010CE2B4E0C859A0E0DE93DAE0F882
:101C600002669618FBDFC2A501F303160F9863BF47
:101C70005EA12A6736B3E8FFEBB3037FBC75F37B45
:101C800019842180115919120BB30935B2206DE660
:101C900098DFFFFE248A10C0180241D7F6EE2077A5
:101CA0005811DFB6245CFF7086D1FDC1C39BB68B93
:101CB000DFC32C4A69FFC0B6FC01BD83685534BC44
:101CC000F1CC5EE2AF0EB392B59404637D8BDA90F3
:101CD000FB653DBA35A00E42D0050AC96B0DFDD893
:101CE00034098758E9CBB37BFE685FB628D77310F9
:101CF00009463A829804419D2C5EAB621F7F632D9A
:101D0000B391FFA79B98FB7E1C80FA0134201EC074
:101D10005D190FD6AE21E698339E4B50FF04F36653
:101D200023C3B8D306FB08039401B66601856B662E
:101D3000A35E84B1DD19021DAA244C8CC6ECD8B276
:101D400002DAB3C8CFF5988939FB1A401066914181
:101D5000BE99FF32637E98D940FBDCEA79A59ED814
:101D6000611EB65C30FE77AF9808EBDCF830C496A5
:101D7000BB0C32B3EDD0FB04F830D3F6CC80DC4999
:101D8000A348F93B56560939B695BF32B624FF7FB2
:101D9000201146769236B34CEFB3FAF9D4B0632DE6
:101DA0001628F99FE9980779D206C4F60F03212C6B
:101DB000126EABB13CACEC02FD08CF5F9820DA3379
:101DC000085828048FACAB016FDBE570FC37D59861
:101DD00090E44B5A5EE5CD8C04C6119DE6E536B322
:101DE000DAE8FD7D782CFC63ACDEC820651A06CDF0
:101DF000FD7F018DF6173CC80066C6794C046CE483
:101E00006379B5DB30F9EE7B03DCCF8FC43372F638
:101E100096FCB1C8EF3F4BB6F4A0E4B3B85F247FA3
:101E20009943E81920AC61B30BB6FD37F6D2AF7613
:101E3000B81803889E14623F7F633E48DAF1F82D9C
:101E40003940BFC93CCA900179E3304F3698366DAE
:101E5000ED9C048DFB9838FA66F8E5BBC84F15EB8E
:101E60007A13581910CAB3E3CEFC32800B16B37B39
:101E7000210DCBB3A0652188AAF80AB2C8C67C9808
:101E8000F3B3D79060A0F6844E42B41A409A5981B9
:101E900001F38B506D0C4B8CBFFFEC28F0F8FE5C0F
:101EA0004D02666DE6D87ED896D2FF80DFF6CC80F4
:101EB000A1B4F40730F06BCB30805FDB87C4ACB3E8
:101EC00008A3C335B368B4FC5B8B2273CA1481DFEB
:101ED0004001C748F330110568EAB58A4B6D055CCF
:101EE00025B41166B6B38AF8FA62B40BF798010507
:101EF000C0491920E9A32CBF1CD562509DBB0DFE23
:101F00006FED7FC0833D9888ED04F0403830C4F712
:101F10005C3C642CA0E0EEEDF3F8FB4DE3F796108B
:101F20002935668369CB3088512105622B6680395B
:101F3000B3096771307C9BC4DA9845F3CB30802FAE
:101F4000EC39F5B3219AB3DB90F92D1940BDFB4074
:101F50005E98BD41F5201A40CF2E19311D74FFB493
:101F6000B3B30F19EECC1810C43AB8C216FF18FE5E
:101F7000D119406467E8053028EAC2B691DFC5B6DA
:101F800052847C3002FFDFA8DBC0FDCC4942F85808
:101F9000A21EF16DFC12097EE1DBECC46F9B305B8D
:101FA000FF7FDA7F100C8666C0D3C609CC2C80EC8C
:101FB00031100243D6980A30B3DB81FAFA9880C810
:101FC000F5980EFC30ECE2010CF32C1BE630C0FF60
:101FD000CCEB96C766A404035FC2779AB8AD2B40DA
:101FE0008C5D6F9B30ABFB751920AAB3026BF38439
:101FF0002EC805B390677D7F8DF330D0FAB3203DB6
:1020000098347FAE984944EA24B304BD4B206474ED
:1020100051067F4D4624FB9DFB9F10BC98D80CDFDA
:10202000CCE5D3DA14F782C8F860666F493C105EDD
:1020300098EF088082EBA911F54B09B7D8C4939E9D
:10204000F904666E7D24BC9874664913C0C380058C
:10205000B3119B370904731A3F6749A2FE84B34149
:102060003D98025F3229D6B34C5DFDB306B3C8403C
:10207000B530665C6022A631CD6BB3B8FF8C6AAF19
:1020800057980CBD98801EC4837898B3E6F8305BEF
:10209000ED723078C4793058DBFE8811EDC0CBA9E1
:1020A000086E3F30CC98E51981B7177DD89582E04E
:1020B000FE5AEDAD19230DD1F8307BB31101413932
:1020C000B311634DB3F8FCAFAD980273C804EB0ACB
:1020D00044D08BCFD54B81CB30223F36F7344FC421
:1020E000BA6769629DE498A9B1C1AE584C31CFBBC3
:1020F0009878FC40FC985B6EF9957E3206FFD975A6
:10210000480BD9127D5B7030F1749FE398EDFD1997
:10211000A78BA1265FF4EA9042C10C4D8B48201991
:1021200058BD21B7286CB36001FF1B98C9FA4FADA9
:102130007FDA5623FA1D05070858044FC28C82091E
:10214000200202D76D6F5B2F8C897ED95214FF7FDE
:102150003D97FCE081EB861EF2C8EFF23C05302093
:10216000F38B66D0980D6D077488D755DFE8E68548
:102170004F9998AAB29834663684D3AFF2C8474EC6
:10218000287DE65AA636EBD802A666EDC160208807
:10219000366641FBA619EDB30204C7B330198401BA
:1021A000AD04562B08ABB38421B304620DB3F0F930
:1021B0008DE94397C6303EFFE8F8FB20305777970C
:1021C00058AC7C01E0F32CEFB132B6D380FE0304AF
:1021D00087FF98FF2463469371D18E3139D8FB185D
:1021E000C29601C656ED4022E02E66CB3BCFF532BB
:1021F000A03A2EC58F9E347333B59C6648F9080605
:10220000C6DE5937BED967E61730FFEC60FE2012F4
:102210003ECC58198937B7E6E040C310DC0AC21635
:10222000FFD8FDC12FCCE56B36994017ACB3022C1B
:1022300059CE103FF0672CE4FD606F59D4FAFE636D
:102240009F2A5D176798B78ED870484BD8B8FB4760
:10225000C6CB35E20807D98EA8BFFC8F9FF3BF27F6
:10226000D65A042A6FB920ED12662E4B022FC010E9
:1022700005E4EFF8FBE3FBFD0A6EC137F30AA07833
:102280000133BC1C0411D966144558E24B7B29EB81
:102290003FFB0C20C8FE8070EE3B90456F02DD8F47
:1022A000E21091805E06ADB121FFB7D9DBC7F750D0
:1022B000FB657EFC083B73190C9BFF58FA434F6586
:1022C0002001A7DABFAC9E10235BBC083666E4FD94
:1022D0006FD846996584ADA6D8FE8C8092B080B147
:1022E0001918B0FFA9D201638BE1881F3FB3CCDD81
:1022F00024EEF7A8F8C77B2E80614F2C2F887B56E1
:10230000152051A58F2D66FD96D540486D665F2C32
:10231000C802266CAFD0FA4BF7390498FB8A0880C4
:10232000C6F9B760B0F99FEC357FABE32C7B29E3AE
:10233000451FE330083CE5C28D6C5F08FF74E0D7B1
:10234000D69D841136661CFA0A3A1567E577864DE4
:10235000B381FE89F11186DF7F60BC196E61B00424
:10236000B5B3F9633D69627DC0635ED7B1FC356D7D
:10237000088B7A3940C58FF3ED64FD8DEE6380D50F
:10238000B1406E71B1409619C0FDC11FAB66F6CC6D
:10239000FB1125C34005BF18AFCFB674BCFF2FF0AB
:1023A000A5189F6C0C246796ECF02419B001D7DDBA
:1023B0004698FC0AAAF690C103DB4B38FC2D7080CE
:1023C000B520CD2180EB111014594B40DEBE01A782
:1023D00030A14CF921034906C4F5BFCBE5F9D22F52
:1023E000BD8025D5F6049BE8AF20EC9FCD8685DF28
:1023F0006490B3B828D9BAFE5EB37CBF42F15320D3
:10240000A20CC71079892CB122FE77B3205282AE7C
:102410005E40FD754871D6E793B6E6045816F13074
:10242000055179C29FF459F1DEB8F95A4720939CBF
:102430005D080222F33D1C4062BB3BB202960610CF
:1024400046872DEC88FC104FA33A328CF226D7FA3F
:10245000C4FA02685B6262E281DCB8C21F768880DF
:10246000D0F829D692E6A012E532E8FFF9EC12F78F
:10247000960A63B9CA614BB3A0FC627B4EAF80B0D1
:10248000DEC33B1538FD14D56D02E1C26C109FD838
:102490003C04FE76FC78FE27B07F2D0582C0B0A7F5
:1024A0005602B87019B074E1FF88610658C84DE44F
:1024B0004DDE60B1967B1FB9B3209034F98B125278
:1024C000B240BE4CBC02EFB1343EBCCBEA1D01A60B
:1024D000FBB3400220FB360171ECDA15B530EB326C
:1024E0003F56AB41146A110CF598F8A97796B4B42D
:1024F00006587C019A6605ECB7915CF122D3AD6079
:10250000A651B090FC74970180B4EF880213F6B521
:102510003021C8F5AB119EB27E92D9EA40DCB4D12D
:102520007B21DA010277FE8430FB0A16C04258F2A2
:10253000D9D5B798B1089F5C8C04199893FD2C0EDF
:102540007ADDC18218092D66F9B0300250FFF7F02C
:102550003C800734FB1EC083D4D53CB82FF36CF508
:10256000E0014D660371192FFB0F5CF3F0D320CC13
:102570003CC6BF7F31F82006C080180E35DBF972EB
:10258000F36327FF1F6FF7DCADF3C148D366785FB5
:10259000FD80045301B302ED0C099300B3376CB313
:1025A00080894DB312B2015AB342C023D319DB79EB
:1025B00018FBF9F690BF48C59805C98802D069CEC6
:1025C00061110120C53BAD0277AD982917F328FAB8
:1025D000980D86F66AFCD78CCADD33BD79920C65FE
:1025E000F9CCB9A79ADFDA68FD1B2EF9091B8C36E6
:1025F00077808186D07F1F2CE398EC047934FE9895
:1026000009F94B0AFFE7D8464424EF40200B50E479
:10261000B0A8DA0302794B8B6993F902B42C2284B7
:102620000C3B782698EAFAF7BDC002408E10224C87
:10263000C085F446DAF990F7FE3006628DB458088A
:102640007E7F44D15C20DA58047A98B02EC0FFE631
:10265000CA07712D06DEC519FE8B3BAB1E044F5811
:10266000983DA867D7D3839E984164F8980E98FB4D
:1026700004E1E3245E987973798BBF8BE5F3155BF6
:10268000B318F9E5192A1E98BF493FC8166180584A
:1026900010A013083211EDE5B309A76D2D300CD051
:1026A000FD5CF69819DA2C0219BA1E98DA88F93D01
:1026B0009522024093ED98348ADE68688CD9210413
:1026C000FF327F0C30E0093B0152EB66F2480B848D
:1026D00001E6E318FEC4F73310637DB0676AF101C9
:1026E000DBD7CFFE9DF2EB4A82FD432064FA0F81D7
:1026F00058F78A6605EDB7AC180DF0061D8360101B
:1027000017DEEEBCFE1DE0BB0298E4C8B5ED0A463C
:1027100004FD9830199B9BCA01F830BC50DD70C095
:1027200049E413FCB92C977845B3EE4BC202808F75
:10273000A4DDA34236D39004ABBC0911ED64147838
:1027400098198BFBB54C7AED180523602E2D5A3065
:10275000487A98F02F1EC4034D95E081799891CB6B
:10276000303C7E35D65DF809C33D750EBBD08F3049
:102770007E04F0201EC0030ABC8BB930E88AFBFF40
:10278000377BF3984F5AE5089819AF233010B7F309
:1027900098D7C6020DF3D368FDB15BE3F758042167
:1027A0000238C01020468839F7B351300A67FD7FE0
:1027B000FC302C1E85B3222BB360CE8BE530FAAFF4
:1027C00017305363192091CB0409C66CCBC809EBB1
:1027D00010FB7F9BED8204F2C88BE9F4B21A94449B
:1027E0000096DF78F8F4A1DE6992ABBED876C7F820
:1027F00030DFADA4DB4C18F9DBD6822056820131E4
:102800005B8CADCC018C22FDDCEDC8FBB74477EBD3
:1028100060100A37E6E0FC33AB4640AA11B94173B9
:10282000048AA0DD2A805DB1679E19EDB948364C57
:10283000B420FBCC4F532002E662FF5F79F30A100D
:10284000C1020A037F4B24C8BE32D3D5A849E64B48
:1028500077EE7F305DE558FE3F2082013BC88C66F5
:10286000E4FBB0AE50AFB145A570EE1EC082F0A53E
:102870009A3DA0E3307F5A9820AD6D1045AA94FE92
:1028800085BF1EC598E0FE98BB025AAF0704F598B5
:10289000C07D327AA581135CA3C8142796303069B5
:1028A00019BE5FA8E29866E51980E7D3FB98E9FCBA
:1028B00073FA4660F78098208B3BE504301121B312
:1028C00009B631E5EF9098B3B958868CBD80B30254
:1028D0007F2E3044F598387E3234B95C20F51A40AA
:1028E0002269EEA58434C1C9D55704B2B382D5B5E7
:1028F000110204B8DA855608ABA808285E731311D4
:102900000171D17DCCA0EBEFDA016035BFFB8F33D5
:10291000D69724C61127E694EB4AF95E1B307A025B
:1029200042EFD34455D0401A21AD66C0CFB35F9279
:1029300004C73016936D0C187D160C07B0F96BC1E7
:10294000308BE895F684F6BF847F0C2DA6BF870AEE
:102950006E8232ED269F23FBCE80220BA0A434484A
:10296000360DCDD6C2FA7AC501B83017212360BB27
:10297000404BBCA58B931F6FEB8B8A5F164993FE70
:1029800090D60A1696AFD7F0661250FB26ED68AFC8
:10299000A320AA97B9B87A9888B830B96A7A7E6EB7
:1029A000D590E2303F348C23EFBFEAD36B04E0C80C
:1029B0007664C8E48DC9F33298C6C538007781982B
:1029C000ADF95A0F20723060D722C8323D98081DE9
:1029D0009BA0144DED06B677C880417143360E03B7
:1029E000209E98DCC1FF605C30FA0890216122448F
:1029F00026B02D39D2B3B0BBCEF24A5BE0012DB385
:102A000005B6A94AB3605FB378EF9820041002DFDF
:102A10004522FD8C04112F011265C4A051F288EEED
:102A20009720BE7FEC82C88BD2EF7FFE72202D8272
:102A3000D6E8DCF966D7D7A00198F89E6CED40EE99
:102A4000333DCE9D6F36D8FC5BCD20A5E020F32D25
:102A5000AE08B8303330ABEF5DFB0796C8FC30E80A
:102A6000028018165D0C9AC8193CB3533511F9F35E
:102A700081208464248648EE66207DA506AE513709
:102A8000F68C2066DBC0E2ED39B6F97AAFFAACAC71
:102A9000D1C88079DAAFBF855B62402046C73081FC
:102AA000CEE2C9EEDE260274932013F57F0430AF28
:102AB000247A9860128C02FE1832F9BDC590D707AF
:102AC000F01C5DD55A99B288393041963CAB77DF1E
:102AD000CC9DA80EC06DE37030A283C6F49878A197
:102AE000F3E6CF80FBD3C59818657BDE987F2D3049
:102AF000047C982D049FE498E05FAC6DCE3006C155
:102B00002095D760F4CCE6B5DBF0985698B97BAF4A
:102B1000B0166BF3BCCB8A31CF1966CD16A7B4487B
:102B2000F3988EB3E530201C2FE6DCF8FFCAC244D0
:102B300010D19A60C767C82492DA1404F89896F303
:102B4000F77F804BD2A106F203EE0B30904CC510FC
:102B50004295E52CE48442DFD8FFB5FBF46FD07FCB
:102B6000DA289C2E0C666482062F92C459D77470A2
:102B7000FE502BC0E85FA0FF228EF3DBCC4D594006
:102B800008E2198BDB8D207978C0097130AEB7F976
:102B900068FC7AB4166BC15829B873400641C8ED79
:102BA00064088974B20A26DDB508E488DD76EDF4A0
:102BB00044BD25D82BB3D89842C0DA1811EBB7B969
:102BC0003021BB12EBF6EE05FB25652210B12F7804
:102BD00098A5F4B32370308EE04BA6F5BF7F027F3B
:102BE0003730F8FEFA9831151E79C5F9C8EE80071E
:102BF0000135F3CBC811E6300104BE3CDF9530F25D
:102C0000C030777A10F33068FB5EDF7F0BB78F8DB3
:102C1000797C98D7D6D83071B5BF1BEAFAE540EF7A
:102C2000DAC662723070FD786226C142581713E628
:102C3000C898EDC1E358B903F390626AB310E53068
:102C400011B8B3DFCE18D5C7D3B135F96BFEEB821F
:102C5000482357F02327242E5A181273BF49A46221
:102C60000E19041220ED44AF81EE22802459DC14A9
:102C70003C30DA88F8FE5C088D1AFDFC086BF68F94
:102C800079B4BF2C30014780305F78C57DFB1A10C6
:102C9000FC98FCB7F5FA43E36F73D472F8E917B305
:102CA000C5C0016B97C81BA67330E0FDBC041A6F4A
:102CB0007302FC8C046BC096860288C5B22CDF4D73
:102CC000E508F6227F5F5850D6090243C871B13734
:102CD000780809F030D1B3FFB3703025F77F23892E
:102CE000056D2006D1C490CB815328522973CC099D
:102CF0004608F105F50260404CD51090C8A0197740
:102D0000236001733012D07F561776C816C49EA573
:102D1000DD0D80C730AB5160D6C507ABA903656632
:102D20001C1719B6780279D9C8017B9879107F32BF
:102D300030F8FDE0D3564F04BE0BBB10C89865F1C8
:102D4000F3566BDBD702656620A736100160DEE51F
:102D500001FE987F3030A0FC1AB6B3010B9DB1790B
:102D6000D31EF5F36DD0621A8EB3F1100AB9305844
:102D70000722614BB351B9BD4064703018F90C683B
:102D8000FFCBCB7B1F6BFFBCFF8D8C72B5BC95CE90
:102D900033F3BF32286348D38030FE182436FF89CE
:102DA000FE36666718D1E3D3BAFD679BA08B2ADE97
:102DB000085672804EF67FA2FD9D806AA05F8E68E5
:102DC000B56DD6547966E695FF616636E690FA866B
:102DD00044A7ED9EB1A462DD177131B82416E7F364
:102DE000ACE65B12BFCC98B7FF32D7CC28FEB31E3F
:102DF000CFE633421B9148FC3CDCF3C50CDBFF18EB
:102E0000FF1258C04052BEB21056F4FA261EB40843
:102E100058EA025866A590198082376CFE109FD838
:102E20007F82BADA20D8D2C50DE1993FB0FED679BB
:102E3000D5FB7E6E29B10496A90210CD379A6EAFEC
:102E400070F8FB925D59B540ABBB20115CB408D261
:102E50000DBFEBE501C89BCB20740149CDD8FFE83D
:102E600009EAE6C0DE580208CCFD24019EB39D802D
:102E7000C60325C1794A8540E2908151D29E12F75E
:102E800050410D6177087AF9800A54046C5BFD9615
:102E9000C1AF91281615F72BFEC1500762948F0120
:102EA000F3A78DDB2A0240DD0A18DDFD30FE75EE4A
:102EB00018B38F83E662261837F5ACF6CC7F19AFCE
:102EC000266F2FC1C8EF81D2E8067266F8847410AD
:102ED00001593B6408FA73B828D3C30F5C9C01C442
:102EE000B1FE8F58C720561C265E19FDC6CC916CCA
:102EF00073CF6C8EB8FEDF6F230420336516790123
:102F00008BEE80115962202DB190FBA2E410C93FD5
:102F100077CD7B4CD5FE002FD8C4FDB3261B0C7893
:102F2000FD12E58A4098396137F66CE8FDEB470100
:102F30003DCB446BF671ADAF01108EFF7C98FA77F4
:102F4000DBF499719FE75DC4631F355EA867734228
:102F5000A8F8619F1847A6F62480FEFFE3B308FE99
:102F6000D0587A5BBB96FD090F795976200BF00299
:102F70002DE0206BABAFFDCC01574DB4F8B9C24D7D
:102F8000EC2540FFB58220849A1562BA97D838FEA6
:102F900051F6DDFBCD62BDF303C0FB6E216080FF07
:102FA000D9D8FB8BF0240ED6B3FD7F0BE1F3392883
:102FB0001065720D08DFF7C74019D44DD8E0F9EB62
:102FC000202015591380E7E8AFC804F3013D7AF0DB
:102FD000DEFA809BB22016C30A4FACBD0853AB1774
:102FE0004C154BF95078FE8A46BC5065B393167960
:102FF0000161646D0A1AFB1919BD63B3D0B649C2E9
:103000004D23704D72820E915EE128B1FF8F3C78A6
:10301000EC2317EB9E38C776B0A8FA77D98D5AAF54
:10302000616BFF38FD4256C3CA5B39028B2A7E1A98
:103030006C6B0480E74784F90AFB011008028045A5
:10304000E908A1688F6A5040C9DD2B02B8E6F6C2D4
:10305000E0FD20502E078BB4E9F73C40B1805EDEE6
:103060001A10C528FC40B233E0C96BE71C56D0FBF0
:10307000F860300810018FF7F90A026034FB86D23D
:10308000025099F71820D1B3057C443BD7F4C025F2
:10309000984CCE6B2BC01273E4484BD369C9F368CC
:1030A000FC427219D92401469AFE6F468F7E677AD8
:1030B00041BE830AF11002404288426961C2881A07
:1030C0007CF2076DAE48F288200CF0B33A31B35F62
:1030D00058AA10965B3F1CD397B6A0D3A5D9CB981E
:1030E000F877671BBBACEF804FEF7FD60D81204593
:1030F0000E6BF288746001042FED3848FCBFAA20E3
:103100006A71B1408DD9AE08A7A980CF0A08D93E0F
:1031100068A2FDB9317CCEB1B7DF25CE9B30CD376B
:10312000E0F89CDC67F9031855D69FE6F751B664C2
:103130008040F97BDB94049BCE180FA9568BF79740
:1031400078F8D20C200802BC8423406DD68147E574
:10315000E984C78A2EA90259D501CD1388FF887D3D
:10316000FF86EDFF10FFBAF604C6F41FC22E6DB83D
:10317000D0F883CDAE261D409010C38565A0BEF665
:10318000960AC08BF81423F639A046ACCE80226C88
:10319000B3C0FFEF331E911210DA981DCA4E40D70C
:1031A00076E3FCF9FA64F6AF20D4ECC78C75D54A07
:1031B00078A66E7B1230C5A37656022667DF807034
:1031C000F97F4670DB18022066264B88E113260E35
:1031D000D00905ED981D3903571477632010D7C126
:1031E00040AD5C081779D8AB19066DF5DBCF060149
:1031F000738E101BB3E410D62803FF8B01722F616E
:10320000D7D6E5FF86DD437A9007A230DD6C680CE7
:10321000604FF79620207BC85E19CDADA09B5C68FF
:1032200003562AC8FBCDFDF9B01259CB1309B3627E
:103230007CFF296A6458061368262C7A3BD4F30A6B
:10324000FED18081F1EA192636C1FE0609C03C8212
:10325000E4FA0B04B31B9112EDF104C026FC0360E9
:103260000C80347DDDC6C0BAD3625AF548B9668099
:103270000704706AD29A3CE4E02F19C0EC0FB30146
:10328000DAB460807350F0401EBD7929E04390FDB0
:1032900007F08016C8036984CDD3B8FDFF8C647D28
:1032A00014FFCF7FC99F85E0626316E01832666124
:1032B000E087F4C6C040A3189C4FDF88E8EAE51613
:1032C0005AFC11AFB30A53B393B38401682680301C
:1032D000C8ED0E846A4FD049B3F4C0A42C2405FE77
:1032E000B30258208360446BB351F6D5FBBA79968C
:1032F00018F599307F8D98F40ABFF069404637FF82
:10330000113FF49180102881844466E04BA60DBEE5
:10331000DFBF3412E24803696B8104F645ACDDB1CE
:10332000D91810BE986FCC8C4EEE0BFE81C740773B
:10333000D1EE86F9E74679C5E453886BEF8B30A070
:1033400010F96BEDBF04C0C7C5FE7230D46CD7DE78
:10335000E21E6691FFD1B3C8E92E6681DBE0786D8D
:103360000788E0D8191680FC2B60A219DAA908B3E7
:1033700006EDF7780666EFF91266E967DE0BF8C22C
:10338000FA7634728505536DD0F3216068D3AC169C
:10339000FC85482102018CC6B234B5D24C190452C6
:1033A00063B4C95D5BC0E225F9E54620CF6667508E
:1033B000FF0B738F57A8F406054120E36E20BB3046
:1033C000A378CC03C610A5269F4AA7FF7FF020064E
:1033D0008003386BCD2DE280DF027F9C8BFBF79C56
:1033E00007C01EA69B8472E0350C249D40E00E7938
:1033F00010039CE0800771290EF387780B700C1A7C
:10340000FA35D9F2A537742FF338C566D3F71641CC
:10341000A92D0A5180B641EC8262A0E9661A0641E4
:103420007B890360400C9B4F3BFE44C0221E11036E
:10343000202B71B361DC6422B36FF6C8BF24DD8436
:1034400005C7CAFFCC022073E026C0FE2448041141
:1034500044012CE7EB98FE809E899004C2447BA037
:1034600013600C57CD88424445CDC7EDB0F0FE67E0
:103470006F44F7C32220EEE1811184F746C4487BF4
:10348000980201FF8009818810C44402F1420309B7
:1034900000A704A602E0BBFFA0F8D7C0AF9883380E
:1034A000266AD7CDE57BB1BC83EE677266529AB3CC
:1034B0008481FB12864605108DE0BEDF69C6045983
:1034C00010E9E8FE40CA05A5E0DD03E43FDD364330
:1034D0001656FD9CBEEE14DDCFC942662CBB729021
:1034E00007FF5D9860F47A3582245237870AEF65CA
:1034F00098F0F9F22E93D232A035811A4661EFF39B
:1035000096FE82DDB913E06ED370BB9B90067FB54B
:10351000984002F3F9F12091100DFE09020A4D01C5
:10352000BD9850EBFF0484C69AF5985AE4EDDFFD90
:1035300044B9A082117BEFB6FFDF14759F60562C53
:10354000EF815AE7779796F7CD414C7A98844F4FA1
:10355000B1636004BB48DD98D8FD60FDBED7401E56
:103560001FF4E30939E22FF3FBE95E6030860A5F5E
:1035700016AF4207200EE4D7010DD1F91E7BA50F2F
:1035800060DD803CF2EC5619C6770523EF70FD082C
:10359000E924B66E1BB506F24EDB764EB7E3D927AB
:1035A0009322C306DCF38E6617F7667123FE6497D9
:1035B000FFEAF77158404658CEB35804098D6AF7B0
:1035C000E340DA8012B6F68491BFB3DC0962C85AD0
:1035D000B227ED690960D0228C8DDC50FB80D64685
:1035E000C481029468EFE0958693CC501009B5CA67
:1035F000EF13AEBAC1A13BBEC88763EB3791B16B85
:10360000BC984828D3E0674BA0BF409AA7445C41D0
:103610008231F42410E0FC807F9AC5E4B7B3939E16
:10362000FFB4BB41A3E66654661DEE7865BFD8368D
:103630009B6167648408B9E89CA8FC21FD23BCB4A5
:10364000BC97BA12DB8D307D3B58EFBA53EBF6597D
:103650007618BA84B826603B1C5C80D476E5662276
:10366000B8CD2F0CC877AE60FBB920EBD023EDE8C6
:1036700010025CBCD2FFD905100F66BABF4CAF294F
:1036800066B976C604FE4FE416C0021A0B2108453F
:10369000C9D85716CBB0A5433F0A28A001B010F7F0
:1036A000B2FB0084651F0B62FEFB7D11DD10C8EFCD
:1036B000B864120C82BD85B3B8EEFA53AB7EF81332
:1036C0004618EE01848149F1224010FC60822C08EA
:1036D000177A8B4270FB08600ACF687B38FF33EFA4
:1036E00060C50EC45F78B956800C5EB847F3E4C875
:1036F00081839AF41A410B9292CC4207ED641C3CF0
:10370000A018F01506C7302EE00CDF1C1EC003DD2C
:103710001A20ED8B0058FC7D7A2883BA91DFE5AC46
:10372000C31EF3F0283DF8DF47EA891006D2C12016
:10373000F361B9A34110377A5E10BC9857EFF0657A
:1037400099FD1FF2CBE66D4E403D61A2B9C0A401C8
:103750001E80BEA651E7AD2DFE52396301EB042851
:10376000B0F7CC08F230803C0555EC5E84503E0B3F
:103770006024B930B031D2FAAB89DC98C24818DC89
:10378000A561C428498DBD200AC4110DC244044F4F
:10379000A06C264076A4016944F2332381118C4A3F
:1037A000D3E0E63021090F113092FC109402124848
:1037B0006064859685D5FE9876571BD6AF9BBC7105
:1037C000CFBF25BDA6B3DCCAF64C5920BBFC307F69
:1037D000E5A2818671CC0A5811FA95D6B6FAC08254
:1037E000FA82261C80EEAF9B1498EADD5DAEE010F5
:1037F0000262692D08E3AEEEA74466051111EF38A9
:10380000BB40E3305D5D63C2C830B2B214F37216E0
:1038100002C4D69019A49FEA981A39469034798A3E
:1038200077A4028D42F3E49EB3A60A671393114571
:103830001DBBBF248530960ADFB6D9297FE7C0407B
:103840001AFB6C08CF4DA07C0460F97FB25D0224A6
:103850006A39A1777C511126C208F8D32361414C03
:103860007D9130907FD4AA96EE0497417D6610D862
:103870007B0108DEA5C3824000BBF6440B787F04C1
:1038800010012034A58C68395FFC60FB7F176A9FAC
:10389000D2C46A39F5401E8403EA9868CAE866BB58
:1038A0008EDE0440E4B3142907D35FE35EA55F9C7A
:1038B0003CD864803CF870F0201EC87E7A100F62FD
:1038C0007BF30868F87E513803B6FC7D69AEDC10E6
:1038D0000C0262C9083523EB2EFCD7FE3BF235D52E
:1038E00001F587ADBC04C42BF3012EC85F5978E7FE
:1038F0004BF8B1DBB32133B34060B304FB4C801011
:10390000310285BBC81ADFB7B88490EA0A0571F4A2
:1039100002269781A5FCC02258102362BBCE9EB020
:1039200038FE2005D333C8029510D68C01D729B1B3
:10393000981A40C81C99A051B84F66A8EFC0FE0164
:10394000DF76FD2A20BB800985D9C88D1803F16870
:10395000220988BE05A010D4023F450008F3820961
:103960008431B15CC7FF806997C87D3DE653FE98FE
:10397000B4827B2CA26E40EF9EF1505720DFDBCF4C
:103980006BFBEC4CD7C840179F905FF35E68FE60FE
:10399000135CAEC85D400EC530F59FC89610F50E9D
:1039A000BA0FA07D667AE654EF400EC8072899D773
:1039B000DA981CC02F992598F2B075647B110AC85B
:1039C0004FF3E1FF88816B93C8A022AF0D3BA5F3B5
:1039D000E15AD66A768478737E3EEFDCC1EE7BFBDB
:1039E0000B1034D9204F5D981ACA554CF19818E144
:1039F0004024904343DD040DEF98D2FE000959693D
:103A0000E9010898C842D380040D06C8FF18582061
:103A10009060412C82EE011204DEE3EED4339E94DA
:103A2000532128BD02F29819002523F8814C309CBF
:103A300080A3C4089CF36541489F33BC9AFCE041D5
:103A4000699EC8900379FFD2F610391ED790302CAA
:103A50005DEC4B0EC0A70166030AA0BF0BD59832E0
:103A6000FFEC83782007BB64FAC97040E5307A64C4
:103A7000BB583C7D98FF84DFAC0166C803FFB7915B
:103A8000E90A91356611E4F773B540E32EB219D017
:103A9000DBB3D54069E95FC2F04D7C100C64BB5FBD
:103AA00023FE80455C7D32AF58ED5BA3E4C8C54C76
:103AB000628F80115F757A9680885EFDE4A611BFE3
:103AC000D5703C402484EFC01F12F3041821135C0E
:103AD0008C5EF83666F8D9C85CF969EA182678C3AE
:103AE00044100901FD200436CFC8CEFF83FA73BE0F
:103AF00043AC0B2220AC81ACD5FEC8500308412159
:103B000024BCBA56B197533F302D2090B000E86FD7
:103B100096C8EBFF064384FC092A7D7188BE01FE2E
:103B200041DFCC8937BB7F5FF6D6B184F78045F3A0
:103B3000C7306C492D28FC7130F9C879D8332A90E8
:103B400007FC1C6C2B77FBE8C6BA92FF3223F233DA
:103B5000097B603995E580E298938DCD0634FA5162
:103B600057138D5ED1FCAF34301848D97ED736D785
:103B7000DC0A5DE65CB435BBF716AB28EE6F964BFE
:103B800066EE34E684CFD5C0041A72AD2075F30416
:103B900080D9FE9AD89868A082D0342DE07830BDC4
:103BA000C00B5D770135BE1004D03783C4014CDDF6
:103BB00040309F74E8AA13FE7FF8CC87092E154980
:103BC000C030CE6A100B0421FAB7483006C62C0C60
:103BD00095FAEDAEE911D0FBFE2F30039803BB1828
:103BE00094303C467F2F5020F3C5B7963A023EFFF3
:103BF0004BF22ACEF3D5F0AF202E987730E2013C7D
:103C000030F31EC43D78100FE074272DFE08AFEB93
:103C1000AC04D7E50C6902FFC4455DDD433088FE86
:103C20007BB582C9B5F35D511DA7261001E184FD66
:103C3000DDAC20C030FA0C08415F3CF8F446269B0E
:103C400001B30ABECCF7F0801021AD205CEB30ACA4
:103C500011B7E94544B3493D3816C144DE989B0A83
:103C60005C4587B38D080BEE620248EE76D0FAEF22
:103C7000682E461206B83D9F5630801201880748CC
:103C8000080F0241D122206A77F43B807FB098056B
:103C9000D1FEFF80118420E4D34192A0D9F367BF05
:103CA00020A61248FC134C01098485E886E8FCD95B
:103CB0008FCCE0B70453DA26206428B6A9F78856DB
:103CC000AA837FB9E585DD01B3B781E984FF47F3B6
:103CD00065EBF9C827600C1018BFFA651E6978C536
:103CE000EBC10E603BC8033490D070F20A02F3E7D8
:103CF000E378BBA5DEEE01B3E958FF40C7076AD3FE
:103D000005DC3D14CC4214FB50C3D3C03AD390FC25
:103D10002FA06ED2021AF331F830E266C8F5522DA8
:103D2000C8FCFDBB689BCBDE10EEB345FF2876F9DF
:103D30008106AAD320E53D9022AB1A8568F3400D99
:103D4000A801D3EAACFBAF711E98DA0313616E547D
:103D500084F7CFC04498FE088860104C0004FFCE62
:103D600025EE66EF18E4B3CD202F0CE130DDF01026
:103D700013600CD70530A7C65C010840BB029E301B
:103D800011F8FEE0EFC90FF02621C57810E6E081BA
:103D90000CE4E4D79C3068803CAF9DFA7F1B820C1A
:103DA00090612E0508A2EDE63DF220EE1530E59F6C
:103DB000A88807F080EB1EC883CB98E38F7B70FB4D
:103DC0008041BFB920764BD5FBF5DCC177972B1D21
:103DD0005DDB1B014EDF5AD0D7481C23D37F1C303C
:103DE000F32646A940BB0A62699FA349FE80115E83
:103DF000A8DCC402B30DEBB324B7E34203014CDEED
:103E00008088BE2803C8FE3B30BB2B2110C5861915
:103E1000A7173DFFBF98202260420C737A58FC6FB1
:103E2000C285D3CF3DFFB384F4DF83DC09E3F22204
:103E3000AA4177F1C69DFFB8FC20C585C71DF16377
:103E40009CF329F815DFEE81DC11DC5FAA35F43232
:103E5000E077D97E26D3E3F34DFD6719A1EF5988AA
:103E6000DDC7FCB901B36BDE295FEFB1806766A0E7
:103E7000FD2479A08B1E93B3DCA1DEB3FB46C714EF
:103E800075201B6DD312FDFFF90A6AF6AF20234996
:103E9000DC77FF98DFC7BDDD668FC12977636DFFD3
:103EA000D0FF7D9B9C1D5A252D95DEF19C7F801DAA
:103EB000E7F8220AC0B20796D9017BB328FDA30810
:103EC000EBC051B732514F44FC2F82B5DDE33028AF
:103ED00024133D17F1B1FA2FB73F33F38C8473FBF2
:103EE000CCC0FB614DF46B93C8DF3030CB089CDB5A
:103EF000B18A4FA3E4BF2DF0037199363A18FCFE46
:103F0000F46080FFD898FDEADF40D81FDC18036C0E
:103F1000C0802165793D36F7C8FC29F6612DD5C8EA
:103F2000F6DB610F69C0BBC490FE6285CB96593E3B
:103F30004F67BBFF1CFF801358E440DFE5BC08253A
:103F40001E6A5645C6C1465A2C49FDB24C36E62279
:103F50001FE0EBF51331154EA536ACFCEBF301BEBB
:103F6000BDF226E645402085F3A58AFCCD8AE41102
:103F7000DB45F79457DC6FE230CA06C8FAF1DD7D05
:103F80002BBD60EDA7B4B0C290EB8202446B526CC3
:103F9000ADFFADC7567428DF05EB5519F4F0F543B6
:103FA0000316B3BB7278FD80421D519B05D43DA61C
:103FB000082411B07EBBAAE5610C9CB2F441200438
:103FC00084CE5B9E41E1CFB5A480A1305E832FA05B
:103FD000769768F94839F6963FFB3A20BEDAD5F570
:103FE000FB6AF86511C9F3223602234F11FECC0299
:103FF00042FE9B1CE582BF9F41471692B4D438FF16
:10400000B67F33F27C4ABEB9C54667AB90C838D696
:10401000F550863A69FDB66E2E5DD4662CAD057FEF
:10402000A571A91BB22C9CC8BEAF17B35B0D5ECCAB
:10403000F473ADEFF6E3C9EB39382CC233BD2986F2
:10404000F966F51BFCFE6159BD7E5010D1CEF0A380
:10405000FFFB0A05353E8D677970FF66F189B71F52
:104060005CF6A3305DB201D27C80F0E6CFE0F8DCF4
:10407000E3F3E06D06D4C5CF65593F825F96A11882
:10408000B2CB5E7ED8E0FA87D8146EFFD990FFA637
:10409000B9E61D3DF64625EBE5FC0A36B6CF370EF0
:1040A0005AAB0A36EE48FB3085B120C5B3029E2DCF
:1040B000D8A0FF8EDB0098855AFFD8D8F9A11A8FB7
:1040C00066B401C4BFAB606FF6CC08597BB1FF4F3B
:1040D000D9F208BFF1B0408FDBE5F9400C7FE10475
:1040E0006EA441C69B757575B1823A1B047619FBA7
:1040F00080A6285B3540016A17099BFD1E011094BC
:1041000038B810CBFDB43B5819F8A2998158FD99E5
:10411000B38B7D9EFD26D868FEBF18EFC9C18AEB20
:104120003DE4F9635FFA59626CC0611774A490FDB5
:10413000F9B480FBD913E5C4809E6B6FC277F38D11
:1041400092CBDCFBC2A0FA7EA552F202B0E456FF8D
:10415000A90DA9ACAA5D01DB578A0899458E95E0A7
:10416000FB026DDF0433684063D92F6247E07CF6C1
:1041700046CBB3FF66E84080E30F6DC41681EC10B8
:104180000880434461EDB8685C224C38087909DB4B
:10419000FC218EDCCAA8F904830916DBE04102C0C9
:1041A000DF1AC38A5E01E080B052670A401A28090C
:1041B0001597C4C1E0C8401590C5BA6871C1E088C0
:1041C000C10DA087340E4BC2019E9F0868FE40E2DD
:1041D0006F606E83124A13EA428D05D05091E48DD0
:1041E000AD31622C272854E6AE8822B56233FFAB8E
:1041F000F248AA43C6A7089B8D0680FCE5C31E5A59
:104200003F10FD6F95EDCCB8FEFDEFA3415A8E55E2
:1042100008E55A547FF982406246BB82E473D7A80E
:10422000A4CA603211386627D0FD1062BA687FD9FF
:10423000F95FD06F96ABE2E0CEDFB7622434FBDCEF
:10424000FB726AD8D11009691EDFD879868C667E28
:1042500080CA3F1DF40A0219B1FA2F33C296B71073
:10426000C6F938FFD980FEFA232CB43677FF18FB45
:104270000A70BDDFB620E754AC82026484EEBC8CC9
:104280002A77D30C821EF31301A34C70FE63FCF15A
:10429000626B1D40126C3EE0FD63824CB1BE332D5B
:1042A000F2E86C29D8432C2ECF58D410CFD9B6F9C8
:1042B00047B1FB43E30CB41605509EB363EB798022
:1042C000176C6250FF95DC40B9E9E01FD859A4177C
:1042D0007CBFFACC5E2AEB1BF77F046F9485C65D2A
:1042E00028B910F8B089F9217EC67764FCE514A2DC
:1042F000B1685F6D0C8008CBEBCC68AEAF9ED83256
:10430000FE9FCDD3F860865DFE81F981B908A806CD
:10431000B704F4C230A3F3E715FD770C95FB7D29B4
:1043200075E9033EC908E0FB8001FFC1911A66767A
:104330002208C63338C06C0E5FD665706F4C50FDD6
:10434000F3CE300286F69872C28CD1D302CA18011D
:1043500019237D933DB6304B4A286F5BA818B4E90A
:104360004C022FFE48F9E0413C90076EF21E5EEDD4
:104370000F75E6F0201EF878E5F63C9EB428EDE0D7
:10438000DBBB75012475E90FCC3918F8B2533FDC5B
:104390000C6A394AF360233D9310326696192167FF
:1043A000FDE988FC8085EDB398049AB3B10186B32A
:1043B0000201D1B30965F639306E4DF8DA37F5A050
:1043C00042DE9CDB21046D7995E6987F5811B7B6E3
:1043D0009844F9BCAEEC180403AFB242BC98DC4D73
:1043E000BCBFC6FB4B70CBFD40D6FC9851F487B1E7
:1043F0008E9BE79899F7FED4EC408028CF77987190
:10440000F8248E0F640823B44F13402C2C6FCD98E2
:10441000D61910678098FE2AF88411310186E57656
:104420001379D2A7EB7F48ED723D9802636D2905A1
:104430001A91E7987F7F52FAF5E0013C88EE980EDA
:10444000C40345A269E598E68BBE9862FCB467FA9E
:1044500098029D39E8FF88FE983D2404030297E600
:10446000E59EF8636566C6735FAD98C3BD4B0805EE
:1044700021F12C3216B3143EB30220CDF79860FE22
:1044800020EB080406CB9C29F2E2086BED9841036F
:1044900099EB982255F811713093EB982433DA9800
:1044A00088F833C5F42A6C580323E530109BFABB17
:1044B000FE3F5ED698C0E9AC20F3C0800362BE9890
:1044C0007FD8A9872E300FF69878FCB5C7906CB8C6
:1044D000B6016C904003CF3C5CE2DCDFC479300D68
:1044E00077E6C948B350050AFCCAB793E730449849
:1044F000045AF97F9998DB3165FA8544C9E2301C8A
:10450000E6BCFD60E7468007C61EC4B703E130F392
:104510009BC0C940BC98D9BB126DF5DBE6854FAC9A
:10452000982CCE6930E0FC4408796618B3FFA59852
:1045300001ED8A2E190C604FA0FD7611200213ACFC
:10454000B304B6B32920CCEFB138FD20BF849A3034
:1045500098446DB341027FE6487F2D3080FF87206D
:10456000621F7F6666480DE7976CF8806BC0305914
:104570001C30B340FCB7C7F830FCE5FE78FA71F99F
:10458000C8941EB36DB502E53080C11951DD8C971A
:10459000FF1930BB2FF679FF800499C872B324D479
:1045A00071BBA460099439B50A58F805AF5F65FC82
:1045B000BD20A2CEB309AD4602ED25F65304A67D7B
:1045C000C89808936030E249B0D8E72C3001CEF0AB
:1045D00017C2FA601FCC3006C4A313635CEBC8C0DB
:1045E00003CB9E851608AE5891968BAFE027CECCB4
:1045F000E630B0FFD7857DFF95C73091A9E6BF476C
:10460000B1627DB166EB8E1BFA3653318AB30BF57E
:10461000D204BAB360CB58B380A7193065B3C930A0
:10462000FFD7DD8488C0302E21E33037D69882ABA7
:104630006E9255CC0995E4D0B465F030DC6DF8E3AA
:104640007E685D81FCC5BD980466755C8A17582D2F
:10465000CA60736688B80361CAF298CBAE6FD9E9B5
:10466000C49F396E70651319CFFA043D8141120160
:1046700028F6A0E3C9F098A8ABDFDBA7420227B673
:10468000FEC023FC7F4002FFD112A8FF841130023C
:10469000AE16C217856FDC1728980B8BBF7F312CA5
:1046A000E64F7660227F8BD7C6DFDCF8E0410CA0B6
:1046B000CA01048C2DA43502E530C4B7989897ED53
:1046C000E3F045F8C697F87F1C1A98F9CDC810CAD0
:1046D000428433B7FC982D02A93AB12E8B1E1942A1
:1046E000DD30FEE9B226CC7ECB58B33BD698046EC3
:1046F0009EFBE0B54059B389AD19C8FB6AAF20FFF6
:104700000498D7CB98332382EF6869F6767A1C3405
:104710008DE94C26DF1A98D3B4D3155E0030DFE55F
:1047200066ACE4D0EED99004DEFBB130ACCBBAFB82
:104730007BB830B3D5026C333B5610845F3398BCE2
:1047400039F2B33C3706CAE6300C089DD350FA283C
:10475000795DFD35B6A163804008AF4B9812CB6EF2
:10476000A5C0A004B9B39219B31075E09BEFFD800A
:1047700011FC7F58BF664F9CE7301903A37F1830A8
:10478000922C216FE08276F72C88855FE07FB07BEA
:1047900011F9E0414E5D3044E698AD8306C08BFAD6
:1047A000980CDFD6980F5F1D309E9BA8FA84D39B90
:1047B0003018802BD69808DC3015BF59D2FE985D92
:1047C0004766EAFC6B5E19B35FEA647A9884DFC2DD
:1047D00098B7FBEF33EF4933B3F930C0F8FD204011
:1047E000048888853D22AF297A40FE416BE1989983
:1047F000FA03D88008C7A598F066A72F30083CB602
:10480000321B6ED13D80F49FD6FE33ED98B8FE0783
:104810009ED10431C6B0D0B2237830C43E7FDFD6FB
:1048200098035F9C98FDE398FA88F71001127EEADE
:10483000A1D0AF235E5930215FEDB20896F8102366
:104840009DC840047EA92AB5AFB2F54016C048C63F
:10485000CAACD326C22898340B667659AEA81A0182
:104860001130579A787A9882B420CAFF7F0208FAEA
:10487000BB60F51CF4E4A5E67FABEF073DC8C4833D
:1048800008DC50623E989D3C50F0408AFB9858FDF1
:104890007FAC98C09FD9CC06D9C86679B28CFB98FA
:1048A00009F839333121265F0D4DB32804BAB360BE
:1048B000C58CB367DB98D0FEB8300D027E8C2344E4
:1048C000977070301674C81068D49644E47AB3B008
:1048D000C5FC987677E0FFBC384673BF7F5B8A469D
:1048E000AD2D9B39302073CF6BE418FE8530301727
:1048F000235E71B02B9EE6BCB7789B80410C3BC613
:10490000E5823CDDC50F66E4C8F6E658F8289D88C8
:1049100083820BB4014BE31265B63F12596604D98A
:1049200026BC0866C475AF20AD02FE2FE8FE8011DC
:1049300031014976AACF6A46FDC6C0081801A0DF3A
:104940007FDB05B0789FB2EFB3E1186B9B6F10333C
:10495000FF7F2150F9E0015C3010EFE5C480CAC848
:104960003B90C898A3BBAE3DDA080736D49003C28B
:1049700066CAD9630966E4C8ED1948FFB830BA12AF
:104980005ED68EBBC24DA2797D0568D4DBD8021BF2
:104990007FE9157E9581CDFD650891CA302037D419
:1049A000F64B0A40ECB7E8CAC8FBBE7E1629B3A294
:1049B000F4C6CC1B1955FD1CE5A904853C7D03BC40
:1049C000FF9720CFF1D7FA0D6699F3FF32B128B6E1
:1049D000D380FE030486FF98FFC6CC93E3D11C6C02
:1049E00039A3FC125666894A1908F3862F4CDCF36A
:1049F00066FA4EF373CDF0CF66E7BEA0FC046A51B1
:104A00006DA6B8C744F1E88B8BB1FFCC24C677B351
:104A1000F823047FAFCCB87F4BCE5ACC0119C67DAA
:104A20001E610BFF78FD6097E3E556846121D59FF9
:104A3000F6BF7FECFA90130C662E58CE10C3E588B3
:104A4000FF6151C2E6F532B377994BBAC3B102CFD9
:104A5000D84401BBE6B8FC6DFB040433E295312277
:104A60007ACAF8FD8902B9F3A1841ED6EBE020983A
:104A7000FD6928A0F3402DED148E60E2D28004A3DE
:104A800040C49EB3A0280180368421D98C016EB326
:104A9000D36909F038FB4BF62483ED96F3FFE5323A
:104AA0005905B28D2FCC626328D38CF7560920307C
:104AB000F60408FE0223F2A1B2D059030ABF23086C
:104AC000251C19B75920A0DFD7D86B48FF78C1FA49
:104AD0006C112060FC16F960FF566571F2744BB0E2
:104AE000AEA9FFB096FCC71BACFF02FEB0FE4CEDBA
:104AF000B1829FF99840FE627E58B180E5B3F88E8E
:104B0000F2DB80CFE32F7584209EB3B0FC9B9687A9
:104B10001079ED9E57D9A0FE5FB1B110BFB198FFDB
:104B20006C89B8FE22CD0080849E3DD908FD9BC5CE
:104B300061DBFFD8FB0201C36F33A0DB84F8FC7597
:104B4000E7408998C755AD5EC0FA8EFEF901F1B114
:104B5000941D8E2EB1106CE290FB14B4AFC31EB343
:104B60005DDBCD89FE2CE1C3C566FCA1198227BBA4
:104B7000E0D8FF40F83FCAFC0B20BFB0EE9430E60F
:104B8000A74759C910F967FC08B3EABC058CA823EC
:104B90006C66F8FB21FD9A40B1F48DE6C604FCEE8C
:104BA0007B208023F5FB6DB1532EB0768BBBD7E015
:104BB000F88C8E6FF67B04136DE3717D95FBCF1837
:104BC00053F81DE3B616FEB768F9C2DFD8010CC36F
:104BD000A4809088FBECB36C457456866EFF18FB7E
:104BE000100401D9FD208A4B04FBB81633AAFE62DB
:104BF000DF3C3A10C8FF071D66EB60801008D0CF7D
:104C0000DB8D16EE62048891ADF8CFDF0190A090A5
:104C100030B066061C28D515044BB840CC93EF5C29
:104C20008A05FAA6148540018D33BE0B9F22280504
:104C3000083060B5FDF1BCF0B5127D5196C0201072
:104C4000041254E908F1EFCBB53071B51840273B99
:104C5000048480C3CE6C0420A65EC1061E2428CF27
:104C6000EAFE160CE4C68DABB31053CC7FBCBD4935
:104C7000CBFBCC9B9EE0FF75F001A8E00B845ED8D7
:104C8000058086E44780674D01428A68E8F6E66061
:104C9000FE1011753A98DCB1105F6C2AFCF973B6FE
:104CA000DC10E231C6C7F78A48A5F9211092047AD0
:104CB0002302C40079B1EEBF0B2F2EFBA935D60419
:104CC00066796D84DB7DB1A08EB364CC6E77C93E0E
:104CD000EFFE6E8FB1030FB08EB74B936CE32D5880
:104CE000FF08C3A090FD63A4C44815B7EC34202688
:104CF000CD7B02E6FB177DC89FF732FD3E8EF9564D
:104D0000849A5BD88CFF7196337B7CA8FC79EB8509
:104D10002BB50414D3A8FD62F8B720DEE9080CE334
:104D2000D47FE6C82124F306CFF7E004A146BB10E8
:104D300086B8C341E2F360DF8250604821E7A009F2
:104D4000EE98F846AB57F6F210201184236BD6EE9E
:104D5000EB928092EEF9F996E5307798C4CE9BA756
:104D6000FE0808D7F7CCD0A375019BF9F87FBFFBED
:104D7000252666BF4E7E3528A4CE78598011014085
:104D8000E2D1041CFDB2646DBBED6670F9DEBACBF6
:104D900026C0F256E53009DD5C82B301FC88BFFA1B
:104DA0000115DF51B42369B30A16BC09E8134002A8
:104DB00099BB17F8826077F707E22E57385BFB2C18
:104DC000B2C80360F3CE7D18E0410CA0077FECC0B1
:104DD000824EE064800C57C6FCC9C0833820A6E62A
:104DE00054B0FB8807F0DFD66D304B2C8110B30830
:104DF00085196A28D340B6EDB83CC6E22F3D891923
:104E00003890FAF45A81B3B921B3126CC7CD8688B1
:104E1000C6029CB39849A024CBF4F1A3B3310F117F
:104E2000B5260293EBB30A4319B9A8C3FEA064796F
:104E30009896C73BB5093411E778824414BD043B0A
:104E400049D2A291EF04EFE656090CF73107127C24
:104E5000FD2C605F960340E60CC4992AA310B5159B
:104E6000DE4248FBFF31DC45B381886F4680086F26
:104E7000E5B5F1CCD92A7601F6E1FF24C8DD80241E
:104E80009AB3B10404A005DDEC26D98E13FCED2CF9
:104E90009009D7B724B1D273F92D84FBEB0266AC2D
:104EA000670943BF2D90301102047855D21380B3A7
:104EB0002653650642215E92F7302291FF7E290734
:104EC000F5523899BFFB03E001056774FECCED3C59
:104ED000D330E7EAC083F40FE8A241C674EBC00107
:104EE00038E6C3803CCAF0FE9C31662E6B050C840C
:104EF000AC4DE119ED47D3F898DFE082E798F9214E
:104F0000C338E66B9BFE5B0155B3209878EC8C8030
:104F10008941B32937ED167D6825662CF3ABB34381
:104F200020AF1191B2E6B4FE20DD68B3676673A8C6
:104F3000333BEB7EDEB2048206905FE5EFFD21514C
:104F400084C04FC6120923489980E630D315657B8B
:104F5000FBEE6122FF806DCF087AD15ACBF6B110FB
:104F60005E592D3B66B8FDFEF6C4B5D00C5FF971F5
:104F7000DA9BD6E947A4B68410A6F2B38803D5C756
:104F8000088CFD8BE2ECC947D8E582090CFEEB6486
:104F90000912F53514CA7D02E50105EAE058EA6414
:104FA0000BA0B0E010CAFC5E456D678EB339900966
:104FB000C43E7F7DED0106C120DDAB7F814B5E9855
:104FC000C60802D24012EEB10F18F9E0A30119D6BB
:104FD000661867A4980BE6B385F9303CEBA0077020
:104FE000D5A503E398E00D77B0981EC0A678FA60C7
:104FF000043C3E28FC04DC6D59F08A6684E3103FD3
:10500000D0983128062CFF4E98887C08068D7C4766
:10501000C63989FD771130539FA5B3EBB811117CC8
:10502000193804164828CCF753FD8E95A635CC3098
:105030001809AFB3C2BA91EB1270FB36C888BE989C
:105040001D95E5DAAB4D203FC498D38968115F9B6D
:105050009C03D92130D7D386B5D99250C21BE6BE66
:10506000BA2CFEBF92CCD24728C8E7CF23668D3931
:105070009E086EE5D1A0FF03B9889A152864D7CFA2
:10508000F397D786828CF31806528141B97F8C54EE
:10509000C4FBB2A6F6E55B52B27A8820D2C41C6685
:1050A00002440467858C012BBB1265A0F1DE545CC1
:1050B00036AEDAC117B0B540CB8ABF6C0A6EC71FD7
:1050C000913067B36749A0B9C8A3182EB79651E6C7
:1050D000301126B858370B60017703B0E0A0FB60B1
:1050E000ED38903D98780D9998C8680CFFD77F608F
:1050F000569B5FC8E09820625F3CEF98D083782091
:1051000077BB7E1090FFF85DC8F39827AB718C5089
:1051100047EDCD529602A92BBA0ABCE5D727C8B9EC
:1051200029FB0A44135F6E98604037B3F7E52A8085
:1051300005B1320F789892400608AFD47D842C10C8
:10514000311916F8DE4C40B35ED6C4C0FC5CB4B76F
:1051500020FA1C32F3167B3021E99804E0C01612C5
:10516000EE02408875E0850412F17A1FF77F7750D0
:10517000B8FE2C605B56148028EC78453624E0DCC1
:10518000A0FEEA6EB46618F3969FFCE31EFD03785A
:10519000E078A0AD4D4E1F27FD8C1101908A14DFE1
:1051A0003BC8302221C6280209CF7A673240260444
:1051B00068372202F3D1634037B6607CF0F5FC62B9
:1051C000FA84ABB0207E9D17E10806AB924C84B107
:1051D00005076645300A9F86F91904200238BB8806
:1051E000518F4CD311C814FEE6313002E8FE600D39
:1051F0000C6DCDBF97989AC5AEC70FE33013CAC8E0
:10520000E53D03D9A8021CE2D3D5EC79EEE60830DF
:10521000FC2AEBA5278B30CCC58C802DC4F2C85757
:105220006957FD809837F31070303C836007B0E613
:1052300079FB2104018468B37019B75359B381DF36
:105240007F7E66952276046EB30BE610109103966E
:10525000B301BDB113D8FF46BEDE98BB01CCB89FE9
:105260003313F89207A001A417041059C89E0BD459
:105270000DA011EF2F984E8B0AC8412862C2105919
:10528000FF3E989640A95FAC8E40451910461ECB54
:10529000CF4173885FDFAEFED6A84FACB81093C580
:1052A00010C9C87C2D74BB64802DB33DF982A21057
:1052B00029F7B9B0F9204670BE989D21F611B19733
:1052C000BBBC013FBE6431022604974E236AAF097E
:1052D000D7B6FB109D770322F8017D82AE417B5E3D
:1052E000D22D44C6C7DD31CF681951A01995500B96
:1052F000EC7888050C0646FAC618031062072F30B2
:10530000E82228F919D7D79818F9D2B9C77AB8047A
:10531000C47D98A07F0A3019F678810CD33DC8016E
:105320007820642BECC650FB8CDF3540F605DFCCD3
:105330005EB86259C85E78B581CCC88497F7F3AD82
:10534000896133C8D1B9FD1C24687D2B412DD5FE60
:10535000D94B894638B3B81DBD78824A1904F498F0
:1053600009DDC506FDF123606A4C2191D3FA0DF8E1
:1053700080AE6BC80CD6980547BB98A009A438B37B
:10538000BDA586F244104002FEBF51285FF9D2202D
:105390001429930D427B6B2402DDC8FDE9A5061D8F
:1053A000625C3DB781CBBB2BB59E02B4569564FEC3
:1053B000AF03F6FA1110B830F310CCFAF5C6289EF8
:1053C000EC29BCBB8071AEBF1720DF72E39887F079
:1053D000EDFA8C88FD58145B276FC330D782D9094A
:1053E00010FF31F48410228627AF091D981108019F
:1053F000EE3602030892A090E62FFC04115D7AC4F9
:10540000C0027F9189A8B6573BB6B809187A6609D9
:1054100066BE04D5411A47D4889D89C626C230CBC2
:105420002064380C10445D06A0F873309001B9E494
:10543000D7385BCD023DC9F698011DCFF59880FCA9
:1054400030BF068B303FBBA007F080062B25CB98E2
:105450008023EE28F8E130096BC57DD671C566ED75
:10546000B8411888F17D7D522BD883EEDAC99BA90B
:1054700044F77C2B58F98848FBB60A0125C4EAB3E7
:10548000023716FA75F6B81110C43D98301AA61AEC
:10549000E589130DE00F32DB99B458CF17081A12C3
:1054A000D650FB76E280229E989B848C102731C8D0
:1054B000A0B604067717CCE39110C484A640CE8131
:1054C000A8BC4DEE4DBC416D80D99BED0998FE0DF9
:1054D000C78386B3B40BCF4BFF1042F41A5BF96558
:1054E000F5BFF7E7B8FA2DCA03CD88F8BED4D9CFF7
:1054F0003F1888691884E39376B9B82D193D3DFFAC
:1055000026F9ED14DDBF88B7B04E6440EBA420D877
:1055100071D9E1115FF95EA776F8E344821137A2F1
:10552000F0DAC9D581D7E8941219D71B42017AC2A3
:1055300080B2E86DA426BFE084949182D665FCF821
:105540001FB0102608F34218090AF68C9D827A4093
:105550001673302043597B196C907BFC2336C83876
:10556000B9E8B702F4982CB5DC35666DECE841B3C8
:10557000C8015C30B541E73003781077868BCCD01A
:10558000F86F30BC5687EF3B992CF59D0AC2D5B316
:1055900050B5023B1926C8E718FE0230B532067E28
:1055A000E6AC61F30298C128F91311C0246828AD54
:1055B0000AC01C326CB3323929EEF3B37DAFC1A0FF
:1055C000F9B369C00B5AAFCB8281E946B360127E52
:1055D000B691B01058FD282C68FFDCB3C64DDCDC5A
:1055E000E3ACFD20AECFACAFBBB54C73E3F338C931
:1055F000C4C0D3B52CF3802EC121FF98D8FF2C7ED8
:10560000666ED3C4E3F823F800CA59C9047D7567F0
:105610009FB1C60A675BA07F5921FE69EB2040203D
:10562000A0DC93C4CDB50FD132E08FA863D308FCC2
:1056300034D3B70D4FFF236CA4DD974BFA30E6B59A
:10564000087F32D988FE3D83B0608D730A71FBA755
:105650006C7F51D5E5FE8C2CCA0175AA8267F26079
:10566000FDC3FF5BA210FD24E2190CC53BD24062D2
:105670007DC5BF082CC049D0189BFBE1040D8C6C84
:10568000E57DF8858B192039B30865AF66FFFB957A
:105690001223D14F10D31573B8C9E0B4426BAAD30B
:1056A000806CD220FE9FDBE6101B0E79188A3661D3
:1056B0004120AD6F4010B878A6EECF88FCE0F0CF67
:1056C00060EDC04A11EDA00537DEA30509C4FF6DEA
:1056D000948181909450F9E01E151D26295D60305B
:1056E000483CF91078FBC0E028AD24A700D7A08083
:1056F000140630BC29DBC6649C0CCE13B2D6274AF4
:10570000477BEE1C039C700A02900906C54FAD84CE
:105710002A98F8B702FBD57D312BAC80C78D938BCF
:105720005C4CFCB6D370FFFC94AD9AE16FD68286D8
:10573000E579D3B88BB2DDBE72BA67D0C55915FE14
:10574000E56771259FE60F30E2B0C8BF764980302B
:1057500082D858FB21EE0280D7CC4BBEB3EB4CF382
:1057600047F67F05E7F6FDD696DED910FA3EBB6117
:10577000A969BAC898C13419FF598001FF5336E9A5
:105780000226CB36284189F7046D6C1B5A22777BA1
:10579000A4D0FF0A0C36F259C5A619AE89D0F8205C
:1057A000CDF3111F33B6F629DDEB30B0FEB869C674
:1057B00056E49872B320C6CCB5713AF4A3FBC00B83
:1057C0004C635F7D19D8FD02963EB202F414C2BE4E
:1057D0009DA49C90F9A7988D75E645ED8B98FA8568
:1057E000863037AD36D8FF860B7708166D6108FE18
:1057F0000C903B30FF4CED6408A2FB90C303197F73
:10580000B309DBFF88FD23F66F487798404DFBCE48
:10581000026CECB8FA805DD480629F9819B2E78878
:10582000CCF5B00169FC9ACCB008ABE6D7FD82BEDE
:1058300042DDBFF0B1FFAF0A75C57FCD0279E0B799
:105840001E09A805CEA1FD0240CC59BE04FAF163A1
:10585000FD9E47B6BBFBC8FE3037B4BC10F278AF34
:10586000A341F315231EDFF35C089102DA1EF40551
:1058700038D420FE0A09922142775D68AD809FD915
:10588000680162BF2FBD02EA0179B31C8D9002400E
:10589000FDE33D60FC031133F234FD50C5062830B2
:1058A000EA052F302466CD031E051030C4F8D72E2C
:1058B0000408EFE3FB0C4079150187C2D3F90A080D
:1058C000400260F30338FD17A902A58A9B0825FC56
:1058D000B0B30D464711AFF652A182774F987D10B5
:1058E00008508481E772180A803AD2A48273D82AB9
:1058F000416022814AED68E3CAC4B796626EC7F67A
:10590000958994D3107994EBD102D6C2209E6BC2B4
:10591000C0FCB340789C318268F64BE6081338AF80
:10592000BD4AB57F5EE080CDB441FE1910FB336EF9
:10593000ACB9B0C38B8695C58CCDDEB920048EB8CA
:105940006CD32CFACF32C15659012FB6D0DE592C68
:1059500044DDD85BFCCFD8E097BA4B04C010237865
:10596000F7FAB1CAE965D1D928FAB9EDB2044C9772
:105970005B76CA01AB3F21438C6231EB172F91E17B
:1059800080D9262E22B66BDB6A08CC84A20E40F6A4
:1059900048961819152CFF40A0002CED6C2ED8F954
:1059A000EFD997182BDD021337B259F804CBE3FD7A
:1059B000CD4DCC1926CC8B017624E496FFB05FAC9C
:1059C000E5017F2D70D621024A65029DB508D0F809
:1059D0009BA6D73E659924C790F8BF42948910B220
:1059E0005C917955369D88FF608B7B041B4B0A20A8
:1059F000BAD2C6406BFD808EF3EC75D1FB8BAC291F
:105A0000245B571721FD8396CA122085EF57C019D2
:105A10009A2C1F6897A9030804F64C24093420B572
:105A2000F134802040701809EB08EB7D566146BECA
:105A300085B98C60D864FA9860C94DCC03420C8B50
:105A40007E244405180B16E02B57D60C37F8C8FAFD
:105A5000F2D1F0CE60CF0358400FD9813CE5B7B901
:105A60007706D3C91E80E022A464C607BD60290F53
:105A700073E450FD7A19D0CF75B320800DFBF92265
:105A80001067B320107B1A409203E310FFB4CF14C9
:105A90004059E9D0B0FEF6EC93C080DF6B2E435046
:105AA00036EF0423C9C7B09FA7A8192362110B9032
:105AB000417E77CA180921B38023F3DB6607F2F62B
:105AC000F3C873C5C0034863E0B18017193CA00553
:105AD00081901C94C019E0A201C63976E90EDD6000
