:100000000C9468470C9487470C9487470C94874757
:100010000C9487470C948E4B0C94F24B0C94564CDA
:100020000C94694C0C9487470C94C04A0C948747F5
:100030000C9487470C9487470C9487470C94874708
:100040000C9487470C9487470C9487470C948747F8
:100050000C9487470C9487470C9487470C948747E8
:100060000C9487470C9487470C9487470C948747D8
:100070000C9487470C9487470C9487470C948747C8
:100080000C9487470C9487470C9487477F7F7F7F2A
:100090007F7F7F7F7F7F7F7F7F7F7F7F7F7F7F7F70
:1000A0007F7F7F7F7F7F070007047F7F7F7F7F7F4A
:1000B000077F7F7F7F7F057F047F7F7F7F7F7F7FBD
:1000C0000F7F0E7F067F0D7F0C7F7F7F7F7F1F7FDF
:1000D000177F167F157F1C7F147F7F7F7F7F007FB8
:1000E000277F1E7F257F1D7F247F7F7F7F7F187F57
:1000F000207F217F267F227F237F7F7F7F7F7F7FDF
:10010000107F197F1A7F1B7F137F7F7F7F7F0818E7
:10011000117F127F0A7F037F0B7F7F7F7F7F081015
:10012000081F097F080F027F08197F7F7F7F7F7F6D
:1001300008027F7F081308117F7F7F7F070C087FED
:10014000017F080B7F7F08077F7F7F7F7F7F080706
:100150007F7F7F7F7F7F7F7F07037F7F7F7F047F1E
:100160007F7F1C7F1B7F7F7F7F7F7F7F037F0810C8
:100170000C7F247F237F137F7A7F7F7F7F7F08110F
:10018000147F081908200B7F7F7F7F7F7F7F7F7F11
:100190007F7F7F7F7F7F7F7F7F7F7F7F7F7F7F7F6F
:1001A0007F7F7F7F7F7F7F7F7F7F7F7F7F7F7F7F5F
:1001B0007F7F7F7F7F7F7F7F7F7F7F7F7F7F7F7F4F
:1001C0007F7F7F7F7F7F7F7F7F7F7F7F7F7F7F7F3F
:1001D0007F7F7F7F7F7F7F7F7F7F7F7F7F7F7F7F2F
:1001E0007F7F7F7F7F7F7F7F7F7F7F7F7F7F7F7F1F
:1001F0007F7F7F7F7F7F7F7F7F7F7F7F7F7F7F7F0F
:100200007F7F7F7F7F7F7F7F7F7F7F7F7F7F7F7FFE
:100210007F7F7F7F7F7F7F7F7F7F7F7F7F7F7F7FEE
:1002200008277F7F7F7F7F7F7F7F7F7F7F7F7F7FAD
:100230007F7F7F7F7F7F7F7F7F7F7F7F7F7F7F7FCE
:10024000017F7F7F7F7F7F7F7F7F7F7F7F7F7F7F3C
:100250007F7F7F7F7F7F7F7F7F7F7F7F7F7F08158F
:100260007F7F072408057F7F7F7F7F7F080D070B37
:1002700007237F7F0713071B7A7F7F7F7F7F7F7F27
:10028000071C7F7F7F7F07147F7F7F7FFF1F627F39
:10029000C23C006088FFFFA0089001324006C8C63B
:1002A0000019FF03050A4414812241CF068AF32076
:1002B0000365FBA00C94290034FF7FED0133500649
:1002C000CA54DA192827E033C688009E98D3648080
:1002D0000C7FB958FC0015E002FC5C800B70012E0D
:1002E0003C04683F2AA002F433F350F3C0CC05A8C5
:1002F000E6A03672B3127CE054800AD03D2A40A2B8
:10030000E054E4D374F3D3B80017B96084F8C12182
:10031000FF98B1FF74E5100C0240667AEA400408C9
:100320000C01206D0480A2E008CA66E4D8F9FC2024
:100330000382E5B647C7804BFB02DBCB28043DB305
:10034000284ED34010023B44AB04778D9FF30A3A0A
:10035000F31048FA41BC048722506ED130DE4212BD
:10036000B00568860698DC6ED8959CF6024208E9CE
:10037000AC2122ED3094187C3C725F8470E568FEFD
:100380005A1A68AED40400E49AFB484116B691208C
:10039000027920A18AFFF36E983B5BB8FE1032D140
:1003A0007FD708625FB562EDFF28FD19CE0A7F6036
:1003B0002686F31804D7CCAAF1D0D34B24205306B9
:1003C00094C9F0FCB7033CB319D92F207339C2107C
:1003D00071F27EC721C45A8234205E45584E7FEDAB
:1003E000E5D0FFB0B0E810F0FFFA070680826BF9A5
:1003F000EF09FCF726010219FCFDD82E3080B3E589
:10040000ED1602E5FE33BDC0FB086E66D70880BD61
:100410004B3CA00732ABD5E0011F800794F0851656
:100420009D40F3813C9FF3DFD388F60730801E8721
:10043000398819D8CD40E6E850FE938D66BE559BAD
:10044000E006C05F16C4F326663AE020183571F95D
:10045000E5F36EE68D20FF7BE040286EB33D23C4BC
:100460002418FF2CD8804988B30C2206DA30981E55
:10047000D319B6047919300208FDA6F405800610D8
:10048000ED6FFA7A90F193CF9C01391086266FA513
:10049000F008BE192B5E984BF440669874FB8EFBF7
:1004A00032467DF502B2208DC0CFE733D7CD578FCE
:1004B000B55F5AFFEB988072860C16DFD698014123
:1004C0006EB7AF1A3832F93C98EFDBF6837B5AFFF0
:1004D000082B2AAD908FB2F59848C9F214F62CCCAF
:1004E0004397CAB4374982029ED63F64B395BBFE98
:1004F000F5B08F10C0B582EA1C7AFB160102185CB9
:100500009A10D1B1200FA132B846B2103D982264A2
:1005100077FE79FF81603D3726F19EF3EA5E985CB5
:10052000F67331E040623DB1B80C79CAF39827F90F
:10053000CAB0FD73A331A027F7B906A1F360B13E9D
:1005400000CCFF23D2467F329853E4CB19054DE00F
:10055000E102B9E17998E019D7EDCC22B5FC0A6F38
:10056000FD773012DF85B2103C98D42FF7EFFF20D3
:1005700009771B306CE7A0B1B2EFD9B8F3B390B6EE
:1005800097D7BB4D280253192FC798E6A8FCDE80E9
:1005900041E764ACD08241BD24625C33B380BD9836
:1005A000A09BFAB30871E7230195CB30013F6FE3BD
:1005B0004B7430C012F4980C0E48F9845C195C6ED0
:1005C0003A9B804788CBD2FBCC010210515B09617A
:1005D000AF19308354C58899FCB3309CB6814F5312
:1005E00008C126C028AE18BB658D23BC98DD5E020D
:1005F0007ECD99D004BF8B98D37EFF1711E8FFE022
:10060000013D881630C9DE4907716BCCC089300CBA
:100610000C621AE14EEDB0401ED0D3CCF4983C1CD5
:10062000B8FCC0B631D906813D4994067093AE62DC
:10063000593041FABA6A6E2D460C19DF7A9868F97A
:100640008005D97648B501FAD966C74408D30B931B
:100650008980460567F417AEF5DABE98EDE399EFA9
:100660009810F0FD20D08804873683F0A6025C2322
:100670004E1C03082117A01124676A020159B1B961
:10068000F3B2D073C8BCB7FB379CEBB18F766393E2
:100690004110B631193CB3B89B1978FCB5AA01B624
:1006A00020D2AFFBD97EA537E9089C666A7B662D10
:1006B000AF83BBC0F83E8A05804611D9F11068C4EB
:1006C0005FD49D84B38510B2BB12C85FAB09C6303E
:1006D00027991BD319AC50EDC8C18457F09030E571
:1006E00088182E93F74111A02067F66630E288FB48
:1006F0007F29B6036BFE2331FDE0ECDBF5F0E5C8A6
:10070000C5ECCE7A03182096F31DCBCE143356F2E7
:100710001E5AB440DB9E16F8FC8081ECB2F5F2C89C
:100720001418EE934020FACC32F0FEDA8F1CE3303E
:1007300012FF7F30082BAFFB16B2C9EDB3110217C1
:10074000B3EEEE435B1945FA9840C85BB308F0304E
:1007500006672030B06C50FCAE5730415097F39C88
:10076000D0680A410596AEDF7EB206F93018B302B2
:10077000161920CAE6F8CBAA3B23F6BBCC98296D04
:10078000FF020150C7FE2301C5886DEB6C04BA64FB
:10079000456328E083BA64DB7B944A0227D64B206A
:1007A0002DEF4B10FD8804B8B0EDF5B02CFB529541
:1007B00001B6FBE342F2C8D55E906CB37F36304899
:1007C000584FA8E54466F7E2B010BA5B96EB3008E4
:1007D000064E0277FF8C88097F3204185E2BAF2209
:1007E0008932026775FEFB99595B659A66BA270ADA
:1007F000C0F9F6988007D735C80FD3B1D7F0FB40C2
:100800001EC40118BD8B0C2C19FCBBC87B561E04E2
:1008100020258FB015B3B9FD320401CB668043D6D5
:10082000FEC2BC98BFAC206FC6306F1FD8962E7E1C
:1008300093E69C1039C4FF80779A0E21D32E502066
:10084000199A54B309D2D2F64E1202CF2FB36CC804
:1008500044184919B0592EFE20040580121142D1C6
:100860009D22BB88D29804D06BB282BB0A050212CB
:10087000C9C8A6667898B5A06DE6D4FB8CDE91F861
:10088000B56DAB82103CB3CCF3E4339B6628FA948D
:10089000A705C76EB2B906FD032FAE0CDBC9CB901E
:1008A0007E967BD95819B6FDCEC8FE80B93004B605
:1008B000413B4742F4D74280980978988A7CCFFA26
:1008C000CCF3982F96302046FF498BFF8009310AE0
:1008D000ED1040281A580450186979585C134021CB
:1008E000C1F685B781D34B726976764418035FED04
:1008F0007F231FE60671F9E001C53C806BED98038C
:1009000060C82E70BE1EC48318ECECBB1C90DFA127
:10091000EA3376B3F07930C0B583F498F8D2664103
:1009200093C1D7E309B6CBE8DA858120FB2730668F
:10093000D8E0CB36FF655893F819C646ADD280880B
:100940000C190C18BB01B6640820197E58C8A70EF4
:10095000305BE8FC6B49048DDA72C8EF3F8B955D24
:100960000894C8E65C3066AE19043326FC9889E02A
:10097000E648AFFC311814FF80B0B6A0FFDD95FC4F
:1009800077DB13E4C8CEF608190280DFC166B38FA7
:100990006631FF1F5D980FFE8FC8FD043A5919118B
:1009A0003930BB20B75750ADCF82FE3CDCACCFCD49
:1009B000C822FFAFBB0C3F97F8FB040830CB0210F6
:1009C000C05222F0D2EE5CE262F2D7882059F2B92E
:1009D00091B9B06718B209FF7F0B5BF6773FCA5039
:1009E000FA60803C88DA01F1FE5160053C7130DC30
:1009F0005DCB1840F38C90FE563010D9E0FE983550
:100A00001904EE98A8F9081531799897E71EF2E7CE
:100A100040CBEB2D1EF398F7CC2080F959193AE919
:100A20007E6E312456E00144BB67FD16FE98B3107C
:100A3000FC986B1908D96928FB833B5E1690461910
:100A40000928FF3B98D0B4617D81A808049EB36F4C
:100A5000EB980833DC982CA001EFE6A4FDFD3D41A6
:100A600097FB4B80F45BFCB1705F2FAFB3A21AE928
:100A70000C8457E55020300DE30780B5153DF3E7B2
:100A80009872C778BF3301641970FE9FB3787D9860
:100A900080C70108CC88F8BE8435A6229A150608BE
:100AA000E6478402B694089880111620E6334E4B30
:100AB000C8F22B36C8249E9830B38470E3F8BC91FA
:100AC0003009203B187FC8080A695F180103040237
:100AD000078111B620D912EF6BF5F8939576487619
:100AE00059C03F7FAF139FEE83302209FA200337AE
:100AF000E5300FFE9859E8F1C403781078E0010D55
:100B00007607B92EB5033766CDC84899EA9803F041
:100B1000515BB8FE4F5AA520258708F30A9A77241F
:100B2000E30141DABB0536CDD8025FD25E3840CF53
:100B3000E130C6C96BFACF2636B30883001E325C9B
:100B400030B920B312F528801110F610866EA4B3C8
:100B5000F14CD648588C84CFE13016D898FCE71970
:100B6000A35AAF63EBFFF8BC4BEF3BB0E03FD901BA
:100B7000C0F359BF32B128B6D380FE030486FF9874
:100B8000FFC6CC93E3D11C683990FFDD8C5F83D125
:100B90000E5B6670FB43C253A02BEFDFDB343C6679
:100BA000D0885AD369BC1FF3D60A8C7B68F8B76922
:100BB000353138DEB1C57831DBAD00C0B1329AB124
:100BC00048FF30E246FECCD8FF8DFBF47A0B2CC7F1
:100BD000CDF595128EFCABECA9E8FDF3EB3FDB5EA7
:100BE00008402CF2C63F7F1880F9C70CD68CB0AEF7
:100BF00083FB3230FC38BCDFEDACD6B302A6B33E8B
:100C0000B1B2A08C195D5B0163A465E57FA352FAC4
:100C100034E34F55E940965E6172FFFBC439D94118
:100C2000638DCE020194F36BF0AB1FDD64F8808C12
:100C30007D479DA763AEED04F4D582BC26D1B80FE5
:100C4000293E1C8DC9884E78B8FE20F52E02A9B326
:100C5000DAD0B6226CC7280441B3A4FCA003021466
:100C6000D052BD7539A08B15E05FE58B0A03C02813
:100C700005D125F8B3369B40229D67853730C022C9
:100C800086B4184D6EA0EC5088FAD510FEB4361D0F
:100C90003D6880A0AB7A0520366DFC8B4320FA4C72
:100CA00059ECBD576366FF7F76EEE8F967D6A397E8
:100CB000555898CFAD1A10567742ABB64053889B23
:100CC0004E89F83C7B5BDE36F3040271B68E365BF0
:100CD000E8F835DB694043BD50EA0C7901C8461994
:100CE00033E62616EAFCFEC596C020FDF1661853D1
:100CF000D219FACC5B27A0AEF62159FB141FD4B150
:100D000080C5B70236DEB0FB36475935626B0E043C
:100D100013FFF5C0FD0864ADF20CBA1FDF4CD27FA3
:100D20006FC535B3D6CA82F9222399C00417FF04D0
:100D300050FF6A5E659B4DE884B79A307FB7EC320E
:100D40003F6CFFDCFBFE3031E376E1D0AB19023FB4
:100D5000B6CB803224B10446E928F8C6BD09086143
:100D6000626611C29FB1CCF69B10FFC4163E401BB9
:100D70007F7F98FB65AC97013AE8181B80FF1AEB60
:100D80009012DBA719FE7FB8FBC48CCF2D376B57B1
:100D9000B3FCECC8804472D0ECC2CE6C7CF0FCFF9B
:100DA0005E5A0865B1A0FDB75923CE7FFE89DF4C9E
:100DB000627F6D923443C73D3C88B1FA80362C5F28
:100DC00045B84689ADEED8BC4BC696AC9086D0806F
:100DD000AC9EF4626BCF5039660246272EA2B1203A
:100DE000CFF77BA8FE086DABB7C4386FD61DE4CD36
:100DF000E365ACF808E40508DACF2001E996F8CC01
:100E00006BE2022046C7812B19FF9828ED9BF1E980
:100E100090B2247FC002736D88FBA0407AC8F5FFB2
:100E2000BFE7743E30F32496E866E6C1FAA43AE4DC
:100E30000418F068E4F533CB287EF35E8054FA3171
:100E400035F30CC97E7066EF8302080262F49110DC
:100E500090BEDFF8068208E05A20368A1806BDBC2C
:100E600094026DCE832480BF90D6A704BAB5E24029
:100E700055018D0E1251170468FB71F0E6B3E412B0
:100E8000F328CFC3D9EE0868635FA315E6906F1E01
:100E9000F9AA11CDCA78FDB740C86FE030CDCB8438
:100EA000A022465E4BC5D0CDA5FF2B086EC85FD5EE
:100EB000A684AF10FC333B2F2F35C43026ABA66081
:100EC000A40C58195AFFB1107EB15A9E3730E3C6B0
:100ED0000A37851896FB2F31B3F2F0846A77B74250
:100EE000CB68CCE8515728ECFA082095EC01FF9C20
:100EF00069F22E9A58FF891A8CF21568D78C302A1D
:100F0000582F20B3E7C9F86799BB00315891A479ED
:100F10008A8B2CB2F063EC7F30FE1988FEC4552515
:100F200020FBE9026F365BFB561FE208E530F88EC6
:100F300011E0A688ACE31053FBB5E8FA12CB041E0F
:100F4000F584028A36E490FD29F758EA5D04C47BF3
:100F5000B130632D9714FA7344A240F1D008801089
:100F6000D76D2E2038AB9F866804800810D90121E8
:100F7000CF3511A6C0467F9E7985B934581AB94934
:100F800085A09D018688FFA71CBBBA8621C23E8131
:100F90007CC16E3AB4305E3B0301810138C0FE6013
:100FA000810C06AD44B7EDE1A5F6B918D402964020
:100FB000E67FFDCE41301002B7D122F312BEF60318
:100FC0009B5680016FC03224A422C52046BF52E642
:100FD000080105FA1158528F347D01A07C9D42F81A
:100FE000230ACB2F309D195810037FA3800538B2F8
:100FF00078FA5F51300A40049D28A083602EC4888F
:101000000166980131B34C8476300273660931F47D
:101010000210014247D0621173CFB446F598101305
:10102000CC0122F321FFD3D0FDE0013C8007FEF08C
:10103000001ED00378101560FDEAE4401E109A0FE0
:101040000FE0813C677DC73AD38807301790D37E85
:10105000F60C64F301C6DEF318E632D3FBA0E0E33E
:10106000480650B69374F3A440E3603A0C33E68626
:101070001AED3105060B3FD35F4BB906FD64C63050
:10108000D0F6FAFADE5381EDA321ED99190298D634
:101090008640C4DEB309300504ED4ABE93FB3DD360
:1010A000B358C02083AF82DDCC32E9E510055EA5E0
:1010B0005EAACD4881915020CED0E01A09DF08A663
:1010C000177F8098C62482769EACF344A3B39A5AC5
:1010D000FD09F598052FEFFF3653E58780FE8A96C8
:1010E00020D2669BB1FADC06B880B2C08CF69219A9
:1010F000FBA74FF7DFF0FA402FEDC0F39840EDA0CB
:10110000220CFD7502198EDD50AD04AC81B6DDF305
:1011100098D07F101B377560FB671B46421DC59139
:10112000FA12087063C022984CCB42D90211FE9883
:1011300027EDDC16041DAF9A9837365860B3F605D4
:1011400002B0F90A0911E0CCC20496131922EC5935
:10115000B4F916012018089AE1024C046C3001FD24
:10116000AEFEB8E6D809E04439F0405C7A13040CCE
:101170001FB3F669FBE00135F707EEA5C4833851CC
:10118000F1F3FE8B5915FD200FE0413C089DEF98CF
:10119000811C9007BB32D29879B952A8B002EF5C9B
:1011A0005E18E63DFCD8FA84DF1F77AEA503F8ADE4
:1011B00008F35DDDFBCC2014F49830DBE081F99876
:1011C000E6FF47B25EE2FEFA9B26C10295ED24E4FB
:1011D000B8B30C82E066B301B345C41EB3411040FE
:1011E00046E51983AFA09840A1D3C6AF41A4B25041
:1011F000FEA7CF061418025E98344DA0193AF204E7
:101200001AE530027D7389F89848121652BEE37FC2
:1012100070178244320842F3BF7FB0B5F9D3BFF8EC
:10122000308E862F819B7F8D105D330DFE7EF3FA0D
:101230005E01300644F40C78D4D7CCFC8AF1F7E098
:101240003DAFF3C1BFF0C29480E0E6625C3047BCC2
:1012500011BB93FE98833C06A301F367B358FA8C45
:10126000C8050468DD0209607C8C07FCBF3A04F9FC
:10127000CCB65C30627E98289A73FF6E980834E48E
:101280007D50EF660422E630F2FEBDB20AFE060291
:101290008898009340BD4B854F84018818214E6685
:1012A0000C8449CFFA7FFDFD117F8C19058F6012E8
:1012B0007F2E3016E5061378DFAD205762FE9FB211
:1012C000EAA5C8E35D2BCB989630017F8D98ED1C85
:1012D00078E2B2E03930027F283010E67BC5F8FDB5
:1012E0008CBCC55BE7F9D2C7F3F5448B7998753AA6
:1012F000E6D3DD172BEFCF8BFEDF09FEB4E9BD4B44
:1013000008CE1811E0140005097657C16CF3015B93
:10131000DC4B4510406FC8421805BC8B8686D30C49
:101320005816A320951921CA44F87DA680141240AE
:1013300092FA24F9A045042240ACF70209080AFDFC
:10134000038967C8061031E0616F682FB335ADE6D9
:10135000A22048B568FA47EFF29B10B88489E0AD47
:10136000C071F01986FF346E2679E019B27A485EB2
:101370001793FCBE6C0692C1FCBDFF0F59205E8B1B
:10138000D10888D31845965FC8E698BF7246D0C08A
:10139000ACE98128FA5DEB071640AE888AEE03932C
:1013A000668166488E407DB3240180059E642E2FA1
:1013B000CEA342083C23ADF9BD1CB84005FFEE5C4E
:1013C0007DD71BFF3E3008C6C004101D03DC5DFF47
:1013D00085300116C1421804F02362210CFB50B085
:1013E0000010C8C8C7C722582BD26FDEFA7F6559D4
:1013F0001113F50E21F241FED33FC8400EC0837891
:101400002970F3A02EF3F3C516F198D31632E5E058
:1014100008F99B2BC6C6B5F319F10CB0AFFE7BFFE4
:101420000806C1405F5798815744A4B804F30A0CDA
:10143000FBDF3C664CE067C252E0F3D36E23F8D387
:10144000F7F673A4F8B3028BC04CB820E0060198FD
:1014500097964226A604B305C41AB311B057CA081A
:10146000ADA5607CD464AF58C6009FBD4988FE38E6
:10147000138206D85502E8EB245EA05104110E90A9
:101480004262F30892FCF7351188F1307F0A1B4362
:101490006DA550EEB91A496256F3FDF6240218FB09
:1014A000E4DDEC9604A1A546C2EAF3D32C984B9652
:1014B000300669EE713E24A080873D60FA114AC172
:1014C0001F9CEAC2817957C0201888F95E68629C27
:1014D0003094069876B761F45518D1C15AB3734E5B
:1014E000A0FFBB283DA6C14840FFFB5CAA59C8D15C
:1014F00002509EFEC36279C8F9080498100B776FFA
:101500009FC8100368025FCCF03140CAFDBE513065
:101510000A20C497408BFA98200616C19CB8036134
:10152000814884B6B0778CE58721C86641EAC13C22
:1015300084D3DE98101260019179A136E8FCBE9840
:101540005ED25E9868F315FE981503F3623C30E6B0
:10155000073040E083D499EE2F305C5E10C6D62071
:10156000B057C8377DC44075FECC193120A1A920E1
:10157000F3627C307F1750CB9ED36EBF0A32C862B5
:10158000B3EF6D5111F9391002B458F74B0930011E
:101590005E4BDC5804B32C9947CB9823C80550DB2D
:1015A0000093EDE37B982360AF04FBCC320148F954
:1015B000BCEBB3F55A0210EFBF8C5169448AD5C910
:1015C000BBEE6279C8FE14101880404208D0A39E7A
:1015D000B35A400A0CBD98054B50F96E596A04790C
:1015E000DAE5034020E48AE5C8797BA9B5A31910A0
:1015F000026BBB0F70B83057CBAFC5C43868F30A65
:1016000021A6B3FD62BE98A501B1831EC0167684E3
:10161000086BED8EB0FB723090E2ECE53D01E79196
:10162000EFDB23612CF35735C804949AD0BD1284A4
:101630004677FACC0B0284F9CCEDC232F99951AB62
:1016400006DEEE401023EDEB89677BC0083E580BA9
:1016500021144CB3C80A67B11A2106E184D798DA7D
:101660003F768426BA17BFA60C35F391DA17F8F047
:10167000DF7B0732BCC5DB31C8F26F06E33017F001
:10168000981E1ED0030894F341D305D98EBC1AC608
:101690007723FA80E4C82D1810716AE205B68C7FB2
:1016A0006BC0983B8D0378EABC8B80F334FE7FA936
:1016B000FF74FAB008C0B490CAA8208FF35E01A3EB
:1016C000600AC4DEB3051040A63402DAC013EEE3AC
:1016D00016BF3209808B955C11FA6EF962B9A224AB
:1016E00073040209684469E99892F3776017818668
:1016F000C47D9834FD81241042124191E0E30FD360
:10170000620804B901C6F0BFF9DD9C8240101B1EBF
:101710000981B55979F789F12F6DCA69FFB9E0716F
:10172000037E070C81636B98FEEEE35FB31897C8E6
:101730009A030BB3FB12F6988010394872D661D722
:10174000C89819B66A56B34EC866FB24BDC7145C68
:101750003D5E0E6CCFBB02DD9804202288FA98050E
:101760006B4016A387CB0BD26E53105086020CAE83
:1017700010FCB1D0FC8409B2D74641AB550B8F3079
:10178000F698410467F293CB4082EC493002E2B212
:1017900019A12A4861191769DF8CF0E46B2235041E
:1017A000049DC8C8F8FC3D59D56B91C85DCF300683
:1017B000C803788020C4B3C8415E6B8030B29BD729
:1017C000C898B495C618E76B77B1F9885EFFAE028A
:1017D0003F3D2FF5F6984080BDC561D81004979F16
:1017E000E5E66BFEA55EB869CBEA10FFA27059C8AA
:1017F0004DB3C20475DEB7385D400898C90C8CB192
:10180000822F464B20F016822208AD8B7D98461120
:10181000664E53757D0C81FD32E8FDA7F7B9441A79
:10182000FE332098DD0414184208F0023B8124891D
:1018300011CEC8A440BB1B9AD9604239C8FB410AEB
:101840000C0449B93058BBFCC4D61CA3A01E43A845
:101850007FA38B0D143FFF2DADF89F0187229B487E
:1018600004EB7918FDEDBC08B9D7CE98E35365F3C6
:101870000188FA983060EAF016479C30A30C164CA9
:101880008789804CF8E0FC2D05040C9E6649B7F270
:10189000EA440CA076808211EB651057F888052089
:1018A00081C2D010CBAF22E1FEECE5580473302C9E
:1018B000089C507B63FB5F44300A06ADC236AFF232
:1018C00098FFCD100313C86181B3383002ECD60EF7
:1018D00044B00746C820BF408530796982DFC49F85
:1018E000092604100832ED12B1F972D5B96A796B84
:1018F000E898312FE0300BDBAB0804536655ABE8BA
:101900007103DC30BFC48630E020B830B9231869D9
:10191000C803F8EFE55DC0DEC56BF412F37E5DC869
:10192000E1985AB6B35002A619E6D34FAE8B10D643
:10193000D282017D7CB3F98011A0E01699C89D0286
:10194000F3C14869B27DA275B1BF5A6292B3D31098
:101950007ED32890200B61DDB3105D845E4B4CF389
:1019600018FC2634FF6598B3FAFFF8B462FFBF3263
:1019700076F00171F39CD1638CD398FF060903FFC5
:10198000B328609066B090BC66CD599E023FAFD937
:10199000B8FB27E798A0DFDB912D5340FC388D661C
:1019A0004BC6DBC7FE042051D486BADCD844C4C879
:1019B000AED3D4B1CA26A497D0FDC3BF8232CFFD27
:1019C000CC10C696E669E64713FEBB08D9C250B4F0
:1019D000F95BEF221B53F7272004610FD98160CEFA
:1019E00034A8FDF8594367F000965F4126B3679E1F
:1019F000EAEF7B3380FA6177AEE6245A7C1419F45F
:101A00009F4E36B3FEDFD664ED72700886E4C67F63
:101A1000DC20B14212E959CAFE1ED425F3B895ED77
:101A20009A84808979E897E67BBF5476D348B9C019
:101A3000FD7A9524DD022063AC1A0104615ED8B200
:101A400010CF6AD65318FFE181E04C9D8140C4E07D
:101A500028D904083B09D811089FE53120D2B8F2F3
:101A60007A805AF40A7BB7F0FB4875901526F3BFCD
:101A7000ED603BB3050D8865DFF559059E5881A8DB
:101A8000302E2BD044CE60E5A08521B3C71F2003A4
:101A900020C599FDFECAF36004A0C0B34411A68519
:101AA000175E366DE6747FA99420B905EE018808AB
:101AB000DA9FDB29B560480911D65034FBB8FFBE68
:101AC0007A7910C24D94B2D9D80C24F75DBC66FE69
:101AD00077A0BC9897E524FD581E9FF915B066B114
:101AE0003415B102E7E491CFE195FB78685EB3B1BC
:101AF00016CA063066B14062ED6F78D8FF307BAF12
:101B000063E3B125B360DFFDA3FDF3CFB336225C01
:101B1000A604E5631E9467F936AE5EA26666AD154F
:101B200010BE33C43C00DCB3D3AD7083E9BDC070DC
:101B300061969A6299BCFFDFB058BDB380631F9B6A
:101B400059C86A50B5045DD608C734EC79B1F76D51
:101B5000D9E10819167F68A20DEEBDCD88B0F9AFA6
:101B600068B11DC589D3781880FBC3BFD9CB015C90
:101B70004CECC8F90845DA206149A7BFCE2BADB0BF
:101B8000FDC2F569018BFF6D98FE616AB511C5BA9A
:101B9000AB83B0B0A74CAF7FBB4498F90C0DB5B484
:101BA000E5CFEDC41085BFCC637D4CC099FF61F9D2
:101BB000FFBFB63DD0FFFC0D198A983451E52AD7F6
:101BC0001717B8187A8FB66D041016365FA8FCC6C2
:101BD000F56F1B81F9729E507AFA01D3F78B881B3F
:101BE000D3B6E669FB5EDE247063662035DDE0F87F
:101BF000FBE1729B0BB68D1CFEC84080D0430D08E4
:101C00009FB4ACB3A3FA9331B71029CEF74861471C
:101C10005B5FBB1570F880399D026C691985FD56B4
:101C20009BFCC348312A086AFBB1129CB76A5986EB
:101C3000045E37DA58FAFDF404C264A84A01D8C435
:101C4000B761806EBC6517D3A9A681F68C99FFF5A4
:101C500010E41380020A82F24CFE740480FDCB650E
:101C600001A21ADDE5201AA7AF7E801CF1F319FE50
:101C7000B9FAC3C0CB065028D0B3A03D448004902D
:101C800022DA034B059839B7857191FAD7E941807B
:101C9000218C14A110C1C6337E64F808F540FD8084
:101CA00051C0AEFE90404282020D18EE63801228B1
:101CB0003D832335815910FE8CF2443008097A2186
:101CC00070A4426A21C277849E02F74140180688B8
:101CD000017D9E58FB80408878AA94D3F38E625C85
:101CE000DFDF1108E69B67CDCCA104CCCFF0FA343E
:101CF000AD28E152D7E88C1FD7D4EA02D762FD1D88
:101D000093207C791015A6642220C1572FA9F83B97
:101D1000822DDAD77820F5EC8B78ED72938CE04F3A
:101D20003B7AC4FA11F3841BF3A13D99406E4DAD8B
:101D3000F8B596302B8DB30478D7B1213EDBF7A0F0
:101D40006AFC14C2AE5945049D486E0CD8FC08DEEE
:101D5000D922C62D34DC5B495F6A7A170AD9D801CB
:101D60006EC6467D15EB9F38FB625F9A635F7FA36B
:101D700090FCF4BCDCB3DDB0886299C8B102FE31DE
:101D80003F267E90FDC78CDA215AE001B63210FC66
:101D900069051DF9B66635F47CAE628D45F0FCB27E
:101DA000A2208CBA7F29CABB04630B9B90FAFE1356
:101DB00072EDEA4F31CEBED8EC08BA49D85A66F671
:101DC00069403B45B202BAB220C4FFC0807B796053
:101DD00008A71492348206FB9008026010C7C9B9A4
:101DE000B8FC631EC95C6363AAFF30D53620EB3AAA
:101DF00004CBC5D6E50C57ADA628DB71030218D677
:101E00006FC0025FC6CBBD065FE5200E02B97564E8
:101E1000B1716D0B99F9C14DF4631AFDEE20010407
:101E20000566869A40C5023FEE7AF390F84DED02C2
:101E30009608B966CBFB1890D62C2C4450B3E48B93
:101E400093D3FA8CC60626FA888218010AEA7373BD
:101E5000F309F0FFFA3C20A3CB20B04FDC4024FB79
:101E6000B91EFB0FB16235B48013D9191810CF0F0A
:101E700004C680077035D3C4FA6C093DB9193046E1
:101E8000E3FDBCB728DD630C8AFA9206FFB4AFF914
:101E90007FF3F782401808F1D92DF3C8C5B3679BCB
:101EA000FD334C02A3F40830B52BF59F15A1DEC815
:101EB00096A318144007C6411637FA987C41271C90
:101EC000B919714966F790DBCD98FA45D75EA046FF
:101ED0002AFF31E74791951059F45A4CFB244044AE
:101EE000600898F7348247ED0243BD922930177499
:101EF000FA68B3B1401F35987D194EEE2AFE0DCE1B
:101F0000F77715EEF31DD7D46075D27929BB0C8015
:101F100030DD1050E6E56F9998AFFF1E66BBFFBD40
:101F200009B3DDB92E540120BCBBD8980F449B18CF
:101F300008C9A5330A8342380390F9BC0871D88FC9
:101F400059EFFBDBF712666FDE7FB0C276DE3572CB
:101F50005123C3AF3B98500BA4334604A0058251D4
:101F60004CFCF3342D93FFA2C884E38DCC6695B36B
:101F700005A3666778BFFFDBF157BCDC1A264084F7
:101F80006C10A3F0AE0C8221EB413143909FE59899
:101F9000AB4E89CDB3FCE2BC98C85AB4603BA19C5F
:101FA00007E8FC886FBC74CC4107DD7D06EE980322
:101FB000E00119F38A3140F338E809601F0C10B8CA
:101FC000F8046DD8DC820CE56680AFEF6E691BAB60
:101FD00083B464E8180983E9D20C88E9062540EB4C
:101FE000090ABD34DBB7F9CBA37FB333F75D326B9E
:101FF0009AAA3924AFFFA81E98020B74CE4C806FAA
:10200000872608C2481077EB2629362EFA57AD9856
:102010000D7D981A6BB784BDFFFE673244FD4FEF0C
:102020002239EE7351102802B948814220E3080694
:10203000A243D0ED124303777D48B2FBBD980C6AF2
:10204000652C3997FFBCEE32B967F85246B3BFED45
:102050009708C793C01940806DE598F6868B19E004
:1020600033D7981EFA7560D1EEBEF4EE36DD0BF86C
:10207000F742663DBBFF2081205DAE9E58B46040B4
:1020800028FF17F9F3F9982F76FA599BD09E987B81
:1020900019412268B3FB96FEA2DD019DA36E71BBC0
:1020A000E467C29A016311D8A1FE4126C0288FF3CC
:1020B000F198FCDB80FDFD3202EB4666FF85EF2CDC
:1020C00082457DF4B6FF167521CE2A562DEFFF749A
:1020D00023414448F8CC212C19A01EC6C024F5D2B7
:1020E0000ADF93D970FC5E985B56B724E29AF3B886
:1020F000DEE4860A13162B9EB307290E05EE513037
:1021000030E077C30FE0F880188807F0190EC8E5B3
:102110005E983119082DFCFB748270CFB36636F9D6
:10212000FF5ACA12E6CD29C9F7CB60200C80802166
:10213000A9D7C240DF52E3989CA8B2FF3C5ECDCE47
:10214000342190F3B39427808E6E01C01684AE15AF
:10215000CFE104B3291022F016C00258817F8D9878
:10216000E320BEA9AF40D725647230680D0DAFBE25
:1021700098AEBAC13B01E4DC633BEB578B02050828
:10218000BB612F9260D3184178481108227024F661
:102190001CFA5E45056E655FFC6AE9F7B4BB41A3B6
:1021A00077FE54660FEE016E5F4D1D0280E47BF2F8
:1021B000A0426608A9D019F17BD6BB0ECD98C2B358
:1021C000B4EF6458BA53BFEBDED57618FE04FF9E19
:1021D000B6BC848378B41E69D320C61E26F6D30B02
:1021E00027012008DB48FC1E19B15A0401BBB3A02B
:1021F000097BF6BABFD04CAFF9F6097606FEF914A2
:10220000F510081201C13D12C682736A6042C744CC
:102210003BACEBF84EB4B1F55F0A91C3CAE020DEE7
:102220009031F6F7B8FA57AB7B731346E01AEE021B
:102230003FF1A348750364CD301130265A4240A2C5
:10224000613C0A257061A293F08FB0D3027E5B30AF
:1022500078F7B19A1ACA450BB371CA07020F9E19D3
:102260005C300167C8E0415B49AC30E4C8017819D3
:10227000FBB01C1068FE4366CC1BA1667F46C99B61
:10228000214D3E48041DF5F65EFE2EEE02100CF0C8
:10229000A5E8A977E82110E6C8F3DCB385CBD4998B
:1022A000CB308455AA501FB9CAFB012DA19F09DB71
:1022B0004213600240B32722C61498F1081120028D
:1022C0003F40053209E8FF6FFA7F20F2583819C8FD
:1022D00023B9E24985A834A780F26C2650D37661F1
:1022E000BA441AE828231019E7A00408011621BDF2
:1022F000988A5CDDC39248AE6865035004F493E7A6
:1023000098A32A10B257EF31F2BDA66EB311CF1EBB
:102310005928BB05BF2FEA60F398C82CF3F19C3E07
:102320006FABAF80CF16F2983F8D941B01365DFEE8
:10233000E5A75466CD3A66113ABB22577BF25DF1B0
:1023400098265A1244C882BB72D27908F1B830C8B4
:102350005A9105FA9880D3547285554EB3A61A67E0
:10236000EFFBD3451106BBBC4B1005EADE98CC84CD
:10237000228B01F06602080548190EDE82F2FF2367
:102380005D03FC03B704FD3248ECAE82811A867D02
:10239000F8AA96149763CE6610DA7BE5E8167F6795
:1023A0000923F001120C82BF300206C48050D7040A
:1023B0008B61AE887B301098F94F4D9820B003FEAA
:1023C00098BC2CD0E59E071D19FF208EDE143828FE
:1023D00074B30E4A07FE3B672EC8F778E0410CBB8A
:1023E000A08B30CEE2F46B3DDB34FFF030B7B33D71
:1023F00066EC0CEE8401301910AE14D97F2D288ABA
:1024000017D7C109C31F66132010257CFCE3D392A4
:10241000310379FF6F9A370335D0ED0D98FB49CB27
:102420008021469BBB015455912AA7D7A397A5B3FA
:102430009810245C903F58C0024810535F15149BBD
:1024400086A7FB7CDFC803EB9834CDF0F2C89E2151
:10245000A8EFD4FEFF47522AB5BBFC631AEE4449ED
:1024600014F5988117FCD138C67C1D7DD4FCBE5A6A
:10247000C864B5B2A094FF8054FAA26E54EF407BBA
:10248000AB50572ADF43EAB75660454DB748F330A3
:1024900001025E8B72BAF9DF8F30F39829B362685C
:1024A000F9CB7AE6B3FD6604DA2A996D303A9B835C
:1024B00040102DB92DA516F9B79FC936AAFD570BA7
:1024C000305625B30C719E3D213EEFE1EECF240B3B
:1024D0001036D96FB11C063368287C0AE406100256
:1024E0002E1A09252CEB2BFC305CA07A470AE33C22
:1024F00067B38C81517BB3BAEEBDF4B353ED213A8F
:10250000BD18B488981E232202480E49301C16F0CC
:10251000BB1804094D6B80676B21F96566C8098D8E
:10252000708BB42DE8397DAAC60EE073AB030ADACE
:10253000B00BFB981ED003381059A8FD3CA00760D3
:10254000201E7B984003D6E4015CC8B36E70B60AC7
:1025500035B7F198C66996DCABE1B0D7FA06F998C1
:102560007DFC707D78067620BD174D913BFCAFDF7A
:10257000D2D022994AB3202EE02F7DC19F247E968F
:10258000205B73FB980B21F311009001A2865F186A
:102590001B0A61181A82D5AFF893FB7F01FD98865C
:1025A000779C4BF1DA4C203DA4CEFFA7FADE98F7DA
:1025B00043AC1322E9B3FC308B6101131024C481B6
:1025C00044AD88466409A10D70E9B2FB8F73F198A0
:1025D00076373908F5DE1670FEDA88BE25FE819E54
:1025E0005E033712BBD3CF32E330F882D3CEA014D0
:1025F000D3F3C9B3FA7830FDDCE31CECB50ED7AFEA
:10260000C6BAB6B9EEF823DF331BCDCA0521FC30BC
:1026100077A8782071B87248BAB32EFD45FB95C8EB
:102620003004E88897931AE5D87105FCBDDFAB2C20
:102630009F364B6636E6BF062ECCE53068C0CFB07D
:10264000118256F7FE2104FB6B05C0595B6B9BC8DA
:10265000634ED1FE40E911D0CAFAF63EFFE8AA1750
:10266000FEEF61EC43875C2EF0C64401E1400813A5
:10267000F9112C809191C424C8AC58E22E120C1E82
:10268000B80988FAD72DC8B9303CAC80B429D1320A
:1026900019456FBE963A143EF7F02A0A02709C055F
:1026A000F7A9F33DE8019A1CF370CCC881EB0C0F3D
:1026B00060F67CA0771730DEC2546FB442A6B596A0
:1026C000FB638860E1F2B6F280E7101004C276572F
:1026D000C8D0A2F3B5D0F59828B70D30E040BEAD14
:1026E000530852BB17FBF32046B310C4BC98B6E3A3
:1026F000B93018F30212C022FB419160B8EB2956A1
:102700009EF8FE984AE0216BF98AC4ED1C393044EA
:102710007BE4603BDC94FA10F605D10AFFAD514032
:102720004465D5DC30B882FCE2822CDFB664CBC8CD
:102730006E0030DFC898C9F75456AA9782EE9EE71C
:1027400085DD0BFF0B7FBF078E300644FDB460377D
:10275000D2F54BC0A7EECC0CF5E01CE6A3AFE778B2
:10276000BBB5EE597B4BB35A4FAF9F3498384D6E83
:10277000F1D62715732320A06BFBCC22C8C3B8F574
:10278000621AEBCC10C7192F9BDBDEDE10B3BC47FF
:10279000B3EF3C98477EF390884604104BF0F6F771
:1027A0001C02B7B2D2FC34F3F59846E700FDB6E957
:1027B000A6EE66ACEF9C92B3CD1A072BD9166958DA
:1027C0007712F548880520A865441904A3A79E0C34
:1027D000D33102E0F2662EBD3530F4980706BE987C
:1027E000DE6240AAFA601B860C1078AB0508030F66
:1027F000ADF3C81859C8CC811CD3310E1EC003726A
:10280000F30F64C66DA7FDBAB3DFD69806DD4402A8
:1028100040FD02AF90AE58DCA80CB7ECC9C87645B5
:10282000A9A1FF3340189B6126E7F330051191CB36
:102830003043C6FAB326D7F787819FE8F34B2702C8
:1028400071ABA9017330020B3EF220900180272664
:102850004004831813CF600AB3293002EC08FE004D
:1028600059FF086AB3FA84DF83DC017BB622AA41F0
:1028700077238C5449CEF81E2088854C8B2CEC6C29
:10288000A1F3856877F788DF81DC7BE5C2AA0FFFBB
:10289000286AE005C6D370C6C008FD63CFFF88DD97
:1028A000D7FCB901B36BD8295FE3D628FEB1246306
:1028B00066CF936EB3B1DF7DB346C71475208D84A8
:1028C000D388FFC79E6698DFF7DDF7668FB9776616
:1028D0009FE5A67843F260F96BD7A9FDF9FD9C71DD
:1028E000E1E693AFDD9C7FB01D7F7BDB0A5807CC10
:1028F000539CB35619F328FDCA671AB19E92447AC5
:1029000082B2D7F73F1918F9881726A0F36CFF6F2A
:10291000ECF9E32930E0F37B25D3C86669151C9BED
:10292000726FB4E1C16E5346FD51E59FE28EF7B27E
:102930007BC2F5FF018BFABBFFC485EA7C866DFF85
:1029400098FE852BD3201A40E34046193242639DFE
:1029500049678D3AF5FF8FACC604FFBFD28FBD59D2
:10296000AF482F500420C4FF77988D4E62B54000C9
:10297000DED8BDDF6F70FD7FF9CB4A8056EA0408D0
:10298000E4788284EFF0D38C54B3B60C56C0DBE30A
:1029900025EA42E8DDA830B9FA1B72940ABD850C1D
:1029A00002646EF71438D6D005A19CB3F86080019C
:1029B0000602A18B83DA5012A66301C440B56419E4
:1029C0004E1925B0FFB6A3F4D81106A6E4A77C36AD
:1029D0007DC4267FEB2F10623625D3400A85F26630
:1029E00062181035050528DDFCE821FF0AC1C28305
:1029F000FF1237D36810B8FD92C9378702F2C57D40
:102A00004201716FE75DE996116F5DAF7602B5F82F
:102A100036786EB2B1089FB71F6C8E58FB5FD61523
:102A2000103C16BF20C1EEB2128BD819C395FF809F
:102A30009881BC38B3C2E31573B97F3403F3C71D63
:102A4000ED17028BFD3B88FB29F8FF018243FF98BD
:102A5000FF63FEABB52859F314C7E6AD0540D03C83
:102A60000831D8FC185FB5A4E69E669116B8ED0F44
:102A700050F98C7DD58FFDB59E19B2FDB80EC29D63
:102A8000B1E1CFD8CC8056AD6E644B214065CCF01F
:102A9000BB664084613EAC7A809F00EBC9FE6FC884
:102AA000F9C2253E028E0B5CA34FEC2C50FD2AFB95
:102AB000D71E584AFE25F94B82FAB304D3EC6D2297
:102AC00059BF902DF448FB847C9CB0408FF6B6D063
:102AD00032B3B1107E4D7C029B20FF1C6672C7DCB6
:102AE000C70F66336C8DCCCCADEF6DB7F0F9F52721
:102AF000046346127FEEAB80EB10D69621EB892063
:102B00001AD3AF3C08C6C7EFF388FF6E306187D693
:102B10007D981FB75817EF6C2E01EFDBB9087ED1F7
:102B200044DF3B7BFE207E3B0E6DC87812C23E40E8
:102B3000CB045980B2025BEFC8FDD6B780A600A2D5
:102B4000B3D8F5754065529DCBB621D5C640992EB8
:102B500008FA14DCF611AE6AD8F52CFA40039FB2DD
:102B60001014049072DB606EFC305AB41036B3055A
:102B7000206F8DE0F005EAB3C07C3B018C280D800E
:102B80003A1622A6F31D81A220FA0BDDF8970A421D
:102B9000FA3B06DFD3DD0D6701B1561FCC6E04DFB3
:102BA00034E6DA6001B77917249085E3481102A46E
:102BB0009C01F6AE2978F927E75C9815DF6FBD40D8
:102BC000230BFDCFF105D358A3FF6645BC819BF5D0
:102BD00041C20BE0C539FA08432BFA824020278412
:102BE000D804016ACAD9F0F80B92023B2C4D21F5AA
:102BF0003C1294EFECA0FF1244DCD53D41469E32DE
:102C00000CB3015D84804CFB9CB8B38051A5119A34
:102C100023484831FD6C15D8FB28EB211F6CDE9052
:102C2000FF6BCC127F9767189B1425BD3066864BCF
:102C3000FFC012E6BC0440C616B3011217E71BC55D
:102C4000365808FA1165969E7C6C12663605B8FDFA
:102C50006FA4AD04877671C584CD92F8FE9FBBCC7E
:102C600080534C18E52E108AB43328FE6062EB3492
:102C7000401AE530049FFD7CA8FD8FF9B6E0AEDE7A
:102C80005566205D403CFBD533065EE597F9A1B55E
:102C9000E44244D864218D7EB5FE310D37A22481F3
:102CA000404EDB411301122E646C0D0242859F6879
:102CB00085FE98B1201D5A58017F3F88FEB260BE44
:102CC000B2F56630114D618B2FB402FD0D18A0DEF8
:102CD00002D3FCDFBD03F67FDA623A43130437E127
:102CE000588960B2664252B2FEA0F2A83DB8890887
:102CF0006A97D6F880DE8EEE9623DD8F52C02418B8
:102D0000094BAD4C14FE6E20464EFBE04060B47A99
:102D10009CDA46C0440369618E0CE72890FCE07899
:102D2000B4D026D05657A09DF04C1EFB780B0F1345
:102D3000F75B1C80079C01E0C00384E047C634F3C6
:102D4000F283A303D3DB7AFB8042B35BB601FA13B1
:102D50001885195589A6B310890251E073295B01C2
:102D60007CC072C660050CEBE4FC57B30820135F0F
:102D7000086B9A5D1A58B301A6F74A301216195813
:102D8000EB8BB398F86FD558E6905F65400DFD88E2
:102D9000F7AE84A0A040F39723163C5195F37E87AD
:102DA00001F12EF0B0FE8FCFA33F87CD19FA47F384
:102DB000473181B0B1FF13363BAC3ABD44A8207314
:102DC000F9811068BE69D4B3F369F6CC7F5B8D2CB2
:102DD000E50D57958D46E498A1623E98D90AFB1FF0
:102DE00058B604DB6C45F72C8A37B30A167B98106B
:102DF000649A11B6813908DB13DA61247A4BFCDF5F
:102E00006D29D6D1F09FF1B10F4FB2C2BC9821F31A
:102E100005FE986BEB2FFC617044B3014CC9501A4E
:102E20005D73EBE5836F3FE5CD5E7B8451B1FA15B1
:102E3000D144EBFA8C14F64B2226EF044BC497B323
:102E4000F8AF1940DAAA31E4DEAF176EAE1580FE96
:102E5000A441232408ECD104059D3FC64CFC532F0C
:102E600047EBB119E33073E3D6F8019E98DEA0F882
:102E7000506EE86FF87578160E79B8AF1F40E79876
:102E8000F130015664F33048FFB304BC678FB35888
:102E9000190D93B35030AD0ACB0A02C1DB5C30810F
:102EA0002FDD9878F984723026F3EC73B3FFCB41B1
:102EB000B12C3D694D310272188F106101DE98C24C
:102EC0000A467FAF980CFE5258FEFF59D2045E9816
:102ED000BFD08F7AE330394AE4033C882F2EF49830
:102EE0001003C63C36C6024F3B30D0F988FE1FC2E5
:102EF00057FF8040305E706FE79869D293CD7D4870
:102F0000F8BFACD282E3C6117C6684113009160684
:102F1000FE98D930216DB3D0FCAEFCA102454068CB
:102F20000D8122FF0877D2C1F320C5793004599B67
:102F3000BF208B385BEE014223E07E59FB3EA56546
:102F40002C76604D6604B580F3296D23837725BF09
:102F5000FA6BED0D16046E760BF5C0C01209B30ABC
:102F6000CD3C0A84F3A8B5FC1178F3D9D6303C30B7
:102F7000B6E8DC969A0990C0B74DF21B7BB32D8260
:102F8000090139662469CE55500812D776948457C2
:102F9000AE980206B3F49313080CFB8041DB66582D
:102FA00010BD9802B348FFCC811F8010A702C50353
:102FB0002061BF12B5C710E66BFD17A548B30CCF53
:102FC0005A1EC40319070FE2BD010A1E7F97989984
:102FD0007EFE98AE010030DB853086A67BC8837804
:102FE000104519FDE7C2FDF90BA9E26CA2C8F3F385
:102FF0001E38FF7B73201006F2A0DBB62DC14F35C3
:103000007D89FBABBF019AC00583E13D3D7919ED98
:10301000B38C8219E89AE901AF8E1EE02362D1B326
:10302000166996C8AB40F96FE2EA4008AE38BBC0FB
:10303000DB56870479672EE02457519AC8831C9B7E
:103040004404DE3640880814D3A578668B11FFD679
:103050009E66259418E8F0030E37F235775966FE20
:103060009EB81DC619C6F321DEFE844020F7CAC0F3
:103070000318791971BEE6198DD558FABA3350E59F
:103080003911C6F6BA475E7067F451BDD2D045BB60
:1030900010B57385C730EA0241D193626CB3BF9813
:1030A000CB7CEF3F3F6679BA8291F06A6DDA4801D6
:1030B0008737BD8264040261E4EE811B06FAB9D54C
:1030C0000F78B8F8FAFF3998B8E06BF77FFD5C1A13
:1030D000F39BDAFCC2CDED1C2302789897C791F0E0
:1030E0003047F130E303C7F86DE7709FC8D7FEFDA6
:1030F000F9DFDF46EE8666E8AB821D102006681514
:10310000DCD76041D130206691DD63D1FEB7B1716B
:10311000041192FA09D5190B5FA35F9F67B0FF8571
:10312000B029067D02DC2060D38030F6B31360D175
:103130008CA05E987F35E018499383C2086BE498B1
:1031400066C081286FFBCC6257A8201016E8812644
:10315000084F50E03CDE231200CB4068A3BF8554EB
:10316000B6FEEBBE37CCF1C5218CB9F0AF6C59037C
:10317000C54A10ED2338FCFB8D6BD2DB1EE0DC75FD
:1031800020F6AC76DB9D7564FAFCAF043F988D8524
:103190003E978F4F5BD081F5B1A79E98CB9A04D80C
:1031A00013D64C8409C43FCB11E8314120D35F666C
:1031B000CB3004421A3DCED6EAFBF9801130404FA5
:1031C0007D98600C4C8045AFEB7F08E57FDABFED62
:1031D000CC409BA90430F6967028604412C621FCAE
:1031E000C3C823DC220CE9FB0AF8E08138FD98D043
:1031F000DB8078F130E11969E86204660D11D33C97
:10320000659B786B5B79B830D7D69883B9C8DD50A9
:10321000FCF7F92B93088FB7374DF25AE37D106D09
:10322000FF31083EA2C4B3C8F36CB3AD981DFCB522
:103230000210B790982E9639B269662B26028C87B9
:10324000E6B34021F6B320FEFF9890FD1A9312CF0B
:103250000DC3A009765F49EC9801A062B0CDE7BF2D
:10326000A00816BBC2FAD94260F936D30392062BE6
:10327000C6E552F3FFF0D9D8FE9EAD0DA8C6BFB388
:103280008C9D4F371B0499F7BFEC7F2DF9F857CA77
:1032900004B4DD8201F5B7B016B347776F648115CA
:1032A000EDD4A4823EB40856AB815F6BCBC2F95F0C
:1032B000C1EA1A80916C1980C566309DBCE3800517
:1032C00088A9E4F11207E5BEFECC2FA0F243D6B3E5
:1032D000F8048FE4E5F742DA6FB8859FD5C510236F
:1032E000DC33751590E9413010E918F40190600461
:1032F000C34793BAB362040C1AF1E9FD6EBD90079F
:10330000E130E96BE998B065A2C0DBFD0F3D9BF7AA
:10331000CDF130EAD303CAD5E530A00AF3D33FF3A9
:10332000D998A8FC987F2E6A182C35B22E3EA88C0E
:1033300093EDBC4706C9F5983199ED9848FDD9C879
:1033400073E00581766ED5093CCEB2E1E02C6726AC
:10335000B345ED14EFE9EC0B62F20928A6F3BCD7F4
:10336000D5B3D0B5F9F7988044604D032248A7C67D
:103370000D819024A54DD8129AB3F0200485A02881
:1033800008C123D2F234C951F5D0AFB69888FE35C2
:1033900096C87AEC05E3E8FE21ECB3C0BFF958B556
:1033A000FBE5871CDF0FED0E404192DD12468D8F4D
:1033B0000CDBC55E06FE98A2116F2FD6A3BC8C5FF6
:1033C000769868FB049F21A21AC6EAB11785E5E842
:1033D0002C0C4C21B3CBB22EBD5A225FD95E987F04
:1033E00028303044DF6BDBF4CCFDCF1646BE7F02C5
:1033F000CE620C82FCD3C822C26141BB0C4FCF25E8
:103400008EE201AFEB1E10A8FD30B9EA4077BD3E59
:103410002116C01873EA6001B92CD770BBF9D7EF39
:1034200007E5F57998F9C8BBF08BC79F5DE4013DCE
:1034300010076BE653BB399A68D3A0E330BC98EE13
:103440002530C6F1FC307F8B985DF3C8066DFDA872
:103450008241B797FCD71291AB83EDFFD802A866E3
:10346000A330D07F2598C6C093ED9850FDDEB27F83
:10347000A18552B5C8C81544BA7E68F18BB36DFBFF
:10348000CA0857B384081022C026B32362C45BB3B2
:10349000D8FA12F3EA7F3254F6E3C7DAFFBCFED360
:1034A0009CFE24FFB46C3FF3AFAE33F3B9CA216581
:1034B00019D3EDC6A0FC8A8B9ADE0C1DFF89FA2079
:1034C0008D1993C6D138D3DDBAFDD68F2BF2CCDE61
:1034D000C74C75C2E0CB7B43C27128936382C0E0C6
:1034E000DC95CBFBB082665CF8EB0119B11DE947B6
:1034F000B19944E6B7E7BE802479C694D3D1C3FA24
:10350000558237F7CCD8FF9E076246D4C48145B1B7
:10351000082F9B2EC32419F68C40FCCAE33F08D623
:10352000FF022FED3A98FB861EB1B3088D519BA484
:1035300098FD65ED149A90B0208BACBDCD6CDCC8C5
:10354000FD51DA4162CBC18019EE5470F8C9FB0A13
:103550003CC7C5FC93C55600FA6FE8A70844D76876
:1035600073CBC5D76501821F6574FAEFF778F8371A
:10357000F2D38B251D01629FDA37D81128AD20F7D1
:10358000DD7B22218626B858FC0C28D2CA146E9006
:1035900056FCD60AC067C03440C1020A5AED623DEB
:1035A000FBAD305CD51461CD1A40E085CAEE547E87
:1035B000B30A401808300C04D0F566431006D9A9A8
:1035C00050A4A342C3D45110B93B94914814EF24A2
:1035D0000280306BEB3025B4E2F56401EC3898F8EA
:1035E000D87C219FD894BFD831C3D320FF49E68827
:1035F000FD65F67420E3FC18F0A6AD52B020DCF0B7
:103600005DADBD36E82C192858FF20EF76EC38FD6B
:103610002CDF7F187359BD3CC0FE90CDB302CC9017
:1036200061EF0179569BFDC388FE864A21223DC782
:10363000E980B9084804A388A3F2C8FE33448CC4C7
:10364000B5211084CD9C40FA8AF68A10F3280B39F4
:1036500073584519E61325DD4204108BE6B202D8F3
:1036600086D3AD3ABB85A0D9FC0CE6BA7F030746EA
:10367000CF727904C4560F18FB9667EC0AB081B973
:10368000FF50BFF94F18237C5373320CDBFF10FE41
:103690001DCB8C6E3064895698B2FFCCDB7C65F212
:1036A000D34036846F95DFC67EADD1D0FC8D989423
:1036B00057B548967B7FD80A70FFD9B8F9868F1D19
:1036C000B6FFD8FB6FD8D8DF57BF9868D7B6C8D039
:1036D000FE162B8340D6BD012DBD94C0FB85C7349B
:1036E000ED708A363BE8FF177967A2B484C49BB3B8
:1036F0000CFA0B51B308DFD5D8A6712297B5FFFCA1
:10370000860420584BFBCB0818ED64FF9DC6631C54
:10371000FB9190FD63C4DE317FD8408799CDEDEEFB
:1037200018FE8C77D24002628BE60215EF3A8010C9
:10373000FDBB08301D8419E0E08B7065832099FA89
:10374000F6220EB0F56C20B965EDDC48FE1D3BA8F5
:103750004B08CC954D0804D146267FD394DB040258
:103760007717D3C778592D465AFA083A6C04FD46A4
:10377000F410FC32C052435008BD72E9607F204211
:10378000704024DCA408662398B46B9D1048D04E8A
:10379000A02B269D4650026A32D40D88BC8D3C4633
:1037A000376EFA072114A031F5A8BB504102DEE9BB
:1037B000060E802000A30A5136B81BCF6D76B331B8
:1037C0000484F1C0101803F9404880C2E010DA0800
:1037D00017E3A93509A9E0BCFDD559C11B4B46AC7F
:1037E000E6C62BDBAF0251DE4B65F75A90FF6DE664
:1037F00053C9E9088F70F3162BEFFF20088480C7A8
:10380000100421B1A38AC080BCDF12609CA0FF31EC
:10381000BF585880A66C8848E353DB3C6CFF12EB22
:10382000343F45F0BCB30C01406EDA47F6AD64801E
:103830009B76C8FA0C387DD0ABC4B749FE62FBA3B7
:10384000B1226D586101BEAC15FEEFB1DDFE37C986
:10385000DBE33D5F80B1FF4D25B4DB1185FCCAD8A9
:1038600088FA5FBB4B80FE6CEE82ABCED3923B4DB1
:10387000FCB256C4B69BD4E50316FEF198FFD0DB2C
:10388000D5E0016518C4EED9407C7D7A83D8C2A505
:1038900019089FFB0804433663ED0B7FCC0464AC2E
:1038A0004F40E54150A119851EE0AE80A023B86CC1
:1038B0004DE4FB4BFC407F4275202DF5FFBB20A360
:1038C00090F33C65BB19485B2E3BFC0910D70C18E4
:1038D000B5DC21049DB588F997FCEF8001A3008831
:1038E00075EE108B365F0362A96302B2799CC7D074
:1038F00074B132BDB6ECD1DB81A30C617ED8C709AF
:103900009334052273E341205B48488330741EF1F1
:103910007ECD3B7BFE1EAAC56AD671458D7B92800B
:10392000A0B910E00BEF6001286DF0D00474FEBB6D
:10393000CD385F32BF306D2A19D40531AAB4C04EDC
:103940003F8CB43012C47DE044CFC124FA0A422235
:10395000403C0FC601040D72F8249CB90950F8F9D7
:10396000FA3CA00704537B7AE0019B3CB6F0461872
:103970000FE40D3D883CB40C8003F002901C78D21B
:10398000E00458075E768F99037C2C5AA2F8ADFBB1
:10399000CFFEB9FFA3FCD666C90131CF1EB4D31048
:1039A00002C0E5C360FFFC35C6C0B640A0E6369055
:1039B000FE62B345CA6FB3113005280569ECEB9878
:1039C0001507A926C8FB83DF6010F2D3B35EE0DBE6
:1039D0009D02B912186A6284CAE3667F6D98200955
:1039E0007F69DCEF4704FC795D7715FE18ADA38194
:1039F000C1F8C2D7B5BB18AA55682C2DEE67E4FFF5
:103A000032A9BA28DFD6980CBE98FBDE2085010CBF
:103A10009EA777D5EE06DCE059BD2B046046293819
:103A2000F98C199DBCE38AF18FF66BDF785A899483
:103A3000A0735AC777DC5DFEDA122088C8ACEF3974
:103A400098C3166A30F41C20A1F894B641F3982F5D
:103A500036408CA89E5A1B66199EF8C376B57ED355
:103A6000A8BF645AB5FB24C0043B972301BFDB9475
:103A7000021AE56612C676AA19B05CE08846C6044A
:103A800028784CF7DD60D1E03DF8EE777C76374959
:103A900012167B9813628482D5820D02A306110C44
:103AA0009DB9065AFD7998CBEC1E5366BC98E7F891
:103AB00078200F78F3FBFFBC07D00F90EEEA23F4D9
:103AC0003BF61C05BE9815AB1912C04D540F082EBD
:103AD000B958EDFE08C666A6B3DEE59660C9BFB26A
:103AE000811C5169FDB28034EDF806C493E398D38C
:103AF000209010F31A37D38BFD18269BB38C084601
:103B0000F38BB9204FDFAE39CB67065F6F4B84086C
:103B100041B30220BB5C14B3E40AE0FDE175FAAAEC
:103B20004468D16811F7FF3F98DB8B21244FFB6974
:103B3000FAA908AABF6C4EF22039EE08BDBF3704BF
:103B40007ADD81323FA5C398D748138756E0FE64DB
:103B5000650EBEEC3080AF018B1AEE2188AB7DDEA6
:103B60005E66B9FF0611D36399E698EEBFD0FA609E
:103B7000F5C62017A7459A6BE62256FECF1A220CEF
:103B8000FB039EF8DD66BDFFF4A0C0A2936137E39E
:103B9000F59842C93D0CEEDBF804699DAE5E9C15BC
:103BA0007E8BD044DEE6B225ACAFE7F8416EF1BFC4
:103BB000FFBB648204C28B39E246AFD474982120E3
:103BC00082C24FEAFC84113101AAA4827A8E0930A4
:103BD00001E53098E8B30217313DAA36710DABDE2E
:103BE00076FB137EADFF09BE726EFD01F6980C02E6
:103BF000E382B9308A37A44C7C524DFAC0713DA79C
:103C00002EC778E6303D10B830FE5F2303C423662C
:103C1000F7328D0A0C3DA397290F057B9807F169B0
:103C2000E8980B2D78306FBE38F76B1090F8AE889F
:103C3000343DFE946020D78D307DD88468E696169A
:103C4000BFBCB1B9297510C406027F9EE566AF06F8
:103C50002E985F7040ED98B0F8E0C0F71018194D3D
:103C600045B3EBFB055DCBE36AE15CD38908AC2689
:103C7000C015EBB32CD996C104EC9621C685B3E2EE
:103C800098F1BC98C9CEC8102487F3EC0922699F2B
:103C9000718AFAEA3A77FD32547780FF78B25E2073
:103CA0000218BEB08FBDC972D16BCC300885D1B1BE
:103CB000FB1F9795C8A44EF364FBBF2651E9EBD1D7
:103CC00011F8D48766EE6F95B5B60C7F3C30088846
:103CD000F860B2CE793001BB09B7CE04F130ABAC9D
:103CE0006E74DCFB3C66F76D7698FE04417F824C77
:103CF00069F47FEF5E989C70F0C081E8E9D8F99490
:103D0000EF36A4CDC804C145DEA10610FDFD039623
:103D100053EF1213DE4BE97686FEA29015A66BC810
:103D200022ADD45A2D43681F9EF911CAFC80D331AD
:103D300030C4281869A9FC85F35D44AF18E5254116
:103D400024B3FF7FE00E70FB39E31FE6761ADEFA3C
:103D5000A05D09D9170A658A88FCAFC8CF148322F1
:103D60004C84113FC648FCC0010C36C5305675C89E
:103D70003080C5239BE8604E71308612CAB464025D
:103D80004FF305820D12C5A0EE07F420F49810073A
:103D9000F89835E298199FD3802C0820FF5EF276C0
:103DA00099DC59C82FF3E2300BF30841666DCA382D
:103DB00038FE979A1BF17D1E73827EAD9E031CD345
:103DC00008A1F9DDFAB0F6D9ABB3856F409868F673
:103DD0002C020431990697C2B9A0C6283B8F8A7D70
:103DE000B32360124C10A2B30869A6684F11F531D5
:103DF00002F8FFC93040A28F42047FE35784F108E4
:103E000006026F4023A7FD9F816EEEC3BA494FF0B3
:103E1000C453A8BB9910EF80B4AF425FCC48F25CAA
:103E2000C7577AAB6768CB4837C8487130999BC988
:103E300006B89FC9D70A3EC9C3B988965C9059B3E2
:103E40001BFAA562B8C7C82FF3A605F9E8FDFDAEB9
:103E5000133F34A724F82088A3079B6CBB25DFB849
:103E6000AEC9E789C84FF04519BABB42F9D7EEA2EF
:103E700081D7D4AF0CAE341730F3BAD61820A0E3F4
:103E8000304F3542D2473566E330F85D9EF62AF969
:103E9000ABE9E7F0471186BBBB2D7333C860DF0188
:103EA0002CF5F59BC8409CC88201941F30F9848989
:103EB0004596E498D85CF7CF04B1D7C0885872CC47
:103EC0002CBDDB82013DB3D8A3CE1121ABD7EE9A36
:103ED000FB758906C144CC234122AD5C5D28469F19
:103EE000C80B02112CFD84413012C8FC91C03097E0
:103EF00097D2F66901F29E8B7E69C801B3CADC23B2
:103F00003E36F64614CA1F5E53C8E08007AF3448F9
:103F10009803540BC75E98FB887F1C7D4469A502FB
:103F2000B61C41F31719AD9822570C8AEC0CBF66EA
:103F300057151097E09AD867C8084022F3BBCE4BBC
:103F4000FCA958B8618914311659B3FF00B84AFB6F
:103F5000E30FF3C816699CC8014C67B4B32208B3D9
:103F6000D3142ED30950AEF82530B442FC886D9B93
:103F7000C840F8813E9080E7F2C6ABCADDBB01CCF9
:103F800030FFEA64AAC58010A218DD3CA1DBD7D7B8
:103F900098097B989CFD46EEDB4901A7199F5E9826
:103FA00048BA723D4B11813DF1507FAAFFB1D3F960
:103FB000C81593E598B33CC978BCFDBDFD1648F61D
:103FC000D9C87FDF7294F5E9FA46C0CB50017BF384
:103FD000754EAA9B968B05879180B469EB987046C5
:103FE0003321FB94C2057A2BE54DAFB2C8D737B762
:103FF00080FF87560DE9EB1441E95DE93CB6F9E92C
:1040000082DE10148B47E5E53ADE983F1984A22141
:104010008008C4C2FD8409EF2E7767306024C13167
:10402000B005723098D3D99810B1A44E3CA05F90DF
:10403000E7C7577BBA4F19300A44C0767BBB61048F
:104040008CF26EECD7C823BEAE8409A1208ABD983D
:104050000D6BCB30785E6D30F0403D98E05E984F50
:104060004F900ACA182979B38FDDB00FFC0F03F106
:10407000577B98200FB602CEC8037199D3011C2D2F
:10408000C2FE847FDFD8C63D569F15DB8780D435BE
:10409000CA2977EDF3B03E85D3C8E5E0FCDAC84025
:1040A000733082413BC6C3FBC5C0D3CBB32131B310
:1040B000805C304D6E0E40789804C0DF2013ED9880
:1040C00026C896B359D740F3BCA00510112AF9F4BD
:1040D000C521BF5F56202099C87FE0A348E821048E
:1040E0007A9FBB8C77CB32414FC863BF53BB4AD357
:1040F000925D9402F97F81E47A7A1257C222CC2031
:104100004C84ECFF56B95147B0F1F9DF077907E26B
:10411000EB249DA94BC0803C9D073713FB267AFFFB
:1041200002E3D4BFC24136F7D8D9C8BF06E6CC6D8A
:1041300008FEA28E8D34A57B36CE18DB0D9EF86965
:10414000371BFFFED9A1203BB12B6EC898D3678DDA
:1041500041B830FA5B855D377F8847EAD650DBB4DB
:1041600059276BEF1E5EB3EA22734349F7B937B3A1
:10417000122F27F5E5227818BFD0C998AC4C8320C0
:10418000804519A50F9BD5828BDEF77F40F2CA5878
:1041900080B323D3FF410A0603ED818F7FF4CF4B19
:1041A000CE052DFC06C008401088DB7D4C79987F39
:1041B00065840C8A02BB49FDD6E0816CC8F08F0291
:1041C0009868F320F3D38E507B358E1A823A9EC8BE
:1041D000532F0B3D9F069005F12006772D300B7D68
:1041E000981632F319D361C60CF7C8FC88E5C8EA03
:1041F0004440FBB96F3FE5A84DF3EE5E308211BD40
:1042000003C12032B6C1E0FE5F3002E2E5238466DE
:10421000F3862C5A7A64C8DA5D197A4B11DDB3083B
:104220008C44F1B3284701FF94C40A7AF9269EE032
:1042300011A360045E19B3D32410B3014C9EA433C0
:1042400011D8FCB2C8D78430D870F28804F773E272
:104250008344BE2276DDA3FFD4B27DA23029F89735
:10426000DDBB4B9D30C110D4FEBAD701211E2C8777
:1042700077879827F2F368F87FE84602EEE319752E
:10428000FF031CEEDA5F4EFAD6C42150057BF184A1
:10429000DD0AFF7E323D8DD3BC980798FA607E57C9
:1042A000E2D2459C02F3DED4F6117B2E9AFF7FF812
:1042B00077A2DDBE11FE77DD5BFFE5F005E2DB8472
:1042C0008E0BF306F2BB39C6A541F1FCC7CB7130AA
:1042D000B6D399DC2288032308455097033BB344A7
:1042E0004811BF5D86DCDD46B3F592100122EB98E4
:1042F00009BA9133B93001700C83C680E208EAFD37
:104300005791CC22B39835CF302C883120AD09435A
:10431000EB18C30A61769DAFBF9EFCA4FAA32EBF23
:104320006E19DBDFEFC52401284C836004AFFA6B04
:10433000784601FEA80B20028C4EE1B948FBB3C8B9
:10434000A0EF073440F2A5E36A9ABD201EF3B8F24D
:10435000011D0439CE4F480B5D4CB30D4264EDDDB9
:10436000900399C883E09D07EC3C90799873231AD9
:1043700040CE0FE4C610C042665D747E57C81AAACC
:10438000FDFC7AB8618401A9AE5BADC06815580226
:104390003549EBDF036FCB30044CDDC820C463C666
:1043A00021136FF9FE16B389CCB310420F40089960
:1043B00002CA1360AC6E6B10045FAC44F4ADFD73C5
:1043C000BF4126A488A893EDE04C10327BE5B314DE
:1043D0007003ECD050FEBE33AFFE069EC29403C401
:1043E00010EFF8C4E2AB40FF4C60FFBFAAE8ADFAA3
:1043F0003F6F4F47D38F20F313CFF3F6FB8044FE7C
:1044000061CAE2EAE8EE28EDC50ED32C88B12EE7AA
:10441000FF980A559562D4CEFBEF28EEF35317763A
:10442000D648FA2451669C597FBB3E57AC379FF85B
:10443000E4EE946E2062ABD341D8D352FC9621C7F0
:10444000939B5191F3D1AF77F1A04CF3C9EACFDB45
:10445000B8768B7BBE37EFCF51FFFAFC9DD667A6AF
:10446000F3BB61F7942BC8093DF8E20FD8071A8017
:10447000F574B9E0EBF310DAF3B0FEEBC850B12DF0
:1044800074B8E0440C84D1140B4855CB58E2F8249E
:10449000DF4DFC8017B4600AE9FF31BFB3CC4CFF9D
:1044A0005BE3CCBDD3B0BDFF2D11625CA7BC01C1E5
:1044B000F3EDCD37CCE85BD567F8E64B1F9EFF08E0
:1044C0004B66902736A81024D7B11093E03931C835
:1044D0004BB3083DE20466A8B18011CEFAFBDBAE17
:1044E00039CD30B2FAD6A480F956635E165F26D96C
:1044F00001A0C53FFD2D38FEB9CB8D19C422F4941F
:10450000C5FFF2A0BCF8F6F0DCB6403BF7E48D4DF9
:10451000841498A2A20228D2F2CEEFACFDDBD536ED
:1045200004A474B01190865C10623F4836FD1153AC
:10453000544020E308040285014EB020F0FC17052A
:10454000A410F0A0800204CA0DD157F2C620C06F9B
:10455000E65E7FB0AEA083209557361BE03EEFB4F9
:104560001080365006034034420E0C2018901990EB
:10457000886BECCF21188E5CB1021F4B62073E2383
:104580009BF74120B725102E6751F194FA6A42102B
:10459000C44C335F8C47E38B23ADE7FAFE58C097DA
:1045A000587A9FAD1488CEE0156871F6CCCD3E5890
:1045B000FE891A6B9066354623E5E397BB6D2BE6C3
:1045C000D15FB6D768F8BF6BB30457B30118B3C84F
:1045D0001DB1B31EF8AFF8200240ADC5B7F68FFA93
:1045E0009580C638C3FEB1B1CE01A40A6AF8D805D9
:1045F00080A75BE4FF5678FC62BF7FB180856204D0
:104600009DDBA7045DE51908F8A379058C9923FCC7
:1046100090672DDA01DBC650FD3FCCED716F407124
:10462000248971B9FC30B1A2E5750488116371B9B0
:104630001AE40FDB4D7AA0FC844B2501093FF99861
:10464000B6FF3292CC4B776C0C55E878B1FB1E1656
:1046500019A717AEFF24FE92C8FEF20D59BC04DF65
:10466000D87FD81356AED820F85E7BB1012309FB62
:10467000A290B1FD5FD8F220BFECC6025FD62C300D
:104680001EE57B9FFD322004822BB3D8F965FEF92D
:1046900001DDF310618BB388FE67660140D8ACCAB8
:1046A000FDBC4189169FD99A9E5CD170F9DCAAC5E0
:1046B00020C67E44F1AADE46F7339D6088FC92CD89
:1046C000B940E40847CC9BC2AC8A04CE51FE0883B3
:1046D0009BA7DF8DF3C728A7984B70FFB701258BE9
:1046E000ACFAC68608DF32A0FFADAC953A40FAD3EB
:1046F00079528F755B9FED2B38F88F762A42D7B6AB
:104700005201103B66B8FE8AFEBEF376636316FB69
:10471000BB7D6B3F08026D148C31BCDE2E01C4BF23
:1047200004C8B8D31B7E17C6E671B589EC2980DBB7
:10473000B25FB3DC01B811D70540EF0CF0F8602888
:10474000CF1026F2140603706D0725D221E1AE408A
:104750009971C5959EB24028041BBB809821B5CFA6
:10476000017C6D80C08E1499E9084AFDCC28A0F721
:10477000FDC972A2A9A5A009DC29B03043FCBB1475
:104780004E39880121FD3249D0310C342482AC03EA
:10479000224549D328FDFCA48014100260A7F02C08
:1047A000200CA0B5FEF868AD7D541069E74499FA75
:1047B00039FC63FB4C43C309FC66F998AAC1019616
:1047C000E94227FD170880E7E082E4338A84300459
:1047D0009780B6B786C8FB988A43EBB0401ED1924B
:1047E0006CD88CFBE6AC760847366121675BB2BBC0
:1047F000998078FD241BDF91E640993E8A63FFD4BF
:104800006EFFD949F8E675E5E0E6B91636FF90FB8C
:104810001072CD0CD5F803624BE31027FBBA38FABF
:1048200053F70A732F4446FC765F96FDF088F9B97A
:104830009F9C1066FDD4B78740B38039358077EEF2
:10484000AA1876D90430FC23D632FF13616EF4CA5D
:10485000D0FBCC79C7B17F8F9F12B63626DCDBD474
:10486000FB9EEA6D63FC4AB70834AFE59320920CD7
:10487000D938FDFEC963E76598B3939E78FF68E475
:10488000672EDF013235B45BCBCBA315CEE878FDC4
:10489000FD2E49A32AA0F765807F1A76FE7E06CFFB
:1048A0006DCF24897B14217717A3200C425E0883E7
:1048B0009D84FBA8FFB186187745EB0E207D9428D8
:1048C000CE5865FFF568F87776F90130ABD7085315
:1048D0001D732B100EB35AFD91B9ACFB717AE864CD
:1048E000ED5BFCFA20C21123E1CCD16FF07D903456
:1048F0004614E96AB8B6805F642CDBB1FC9EC10641
:10490000C12480E57820E70E2CE2135BF39AA0DB4C
:10491000C116587FF860240C848930FD0146C080A0
:104920001809CDD68249A7BCE50C8007F02D0604F6
:1049300076EC0397B8803758C083ACC61CF1B2ED53
:1049400072D31E617078FF0FE0013CA007F228F3DC
:10495000EA89F3C958B9F96E06B2C078E0D74C6459
:1049600053E8CD5394D31866457CF7951EF3C67271
:104970007C28BBFE30A602ED880877D824402CB8EE
:104980001280B956224BAD049873009010D826C1FE
:104990008BB34C82A201B7FD7F343B0B42120396CE
:1049A000710867B65C34208457CA4F052382FE180D
:1049B0007FB86B8440480B3CE1041080614109FEE4
:1049C00028AF817698218CF8BF99B1088DEF6C885B
:1049D00081720047D44277DFE519B4DDE165FB8BD6
:1049E0008048A1FD623814B15325B330A2B311F44D
:1049F0004EEF2E8AD004F29D57C603ACED60CF1C5B
:104A0000988FC9FADEF4B06629EA400266AEB34078
:104A10006F8C886742F329BF33FA5F2611F6A50A27
:104A20000962B8A06C0680BEF7FCBAF8043780C0F3
:104A300024AD668CD7E888B7FAB040B7F4D1017FCF
:104A4000243FB0DEE8708AE3C0105807615E98B278
:104A5000113C9817885130E6089AFEF73C5F6BE5E9
:104A6000C5E6D2DC0B6BEBD53C4E5F9F40FF30FEC2
:104A70000328077FA76BF1D3C0035E98DB6040F883
:104A800098AF09018B5892FF08AD97C31811CF3921
:104A900097AB7630900414284067EE5FD4A8FDB938
:104AA00006C2AF8BE5717F22E541FE0E8BFFE3E08E
:104AB0008EB35BCF4C0B66E8431965F114A70081F8
:104AC0009D0AED0846CBC04396B30442B344BC8B69
:104AD0008B43F69E105EBBB12402427D3CAEB7D73D
:104AE000FDBE5D4424DF5CADA07274404803D84233
:104AF0007B45B4EB7B435E89CF88B7FADB8565C223
:104B00000291B89E10EC9FC0718ED9E4115B75675D
:104B1000EBCF10A8B8F8FAD97B027AAF3496B40379
:104B2000573ACA14220A7DFA9D13A6EC02B7AB9835
:104B300001C5ED26AFAF98034DC50CE7FCABBC82B9
:104B4000106C95BB12D62903FD6441E29FD85DD954
:104B50001AF6465F9910CA30A003B8416BCB3003F8
:104B6000568918FFD5BC407F5F04AD42C1209BFD34
:104B70007F148ACF480BA8A61022C7C30987C15843
:104B800039F9608476BB08FF7F401821130145C1C5
:104B9000EDEB50FE10BD6BB9EAB80F01CB1EF076FD
:104BA000193C10D7EEB0F7CC511966CA0105EDE7F4
:104BB00030201ED0CF0379D3E2413CB488F08B8BF8
:104BC00064F6E6A366B3D45C188347092C66C08EEE
:104BD000D9B1107B3DBC26EDFF69F20361D340479C
:104BE000669EF3C63AF328FD32B40F19E5F9C2B751
:104BF000D7401A16F16FA2F815BC426E0616E530C2
:104C00000A95C43069D32008B3D0FC6BF703EADC03
:104C10000DE619100496C1209C307B564440BB54CD
:104C2000DFEC4555959D083EF20140112414430FD9
:104C300009124102F310B48020F382B604CD4B1C5C
:104C4000BF9E9866647945AE9F28EE22C05405F554
:104C500053D5DA94BC10E4FD1118F71DF630EDCCF5
:104C6000E8FFAF19479A20DB80828FE9F144525464
:104C7000BF09FB72DD34B3CF01BBC0DEA560400CC1
:104C8000686EF4080419DBDB1149FB5C959322D6AE
:104C900084A6F4FE985CFD5E88F7444C54137B9820
:104CA00083D7DC03084C1A42B830771B48203B9767
:104CB0008442906FED52226A1AB3C010D2B4CBC8AE
:104CC000BE97F6FB0301FF36983966F20ED030DD51
:104CD00098F92626028018FA5C1D0705025FBCB70A
:104CE00018F05EBBF2FECBB320C83FEF1CCBC8234D
:104CF000CB98E9683E40E81444013B24C52904CA26
:104D00007E7FC8C40378200FE8DE013CF344B8C6B8
:104D10005E98B5503F668D5DBA63C8E3305D3D5423
:104D200005070245D326C8FC188BD6ABB88D10B446
:104D3000FBF6D363FFD5B340A308D7FE3CFEDA777A
:104D4000A32DE00505B3C6EAF86157C880E78C02D9
:104D5000B31360CC012C28223916F3B558E7523032
:104D60000AD0B4FF6C76881A9D5FFC04F27FC96F8D
:104D7000F7901755F26F9492F7DFE1DDE3EB3A42DB
:104D8000C1440377B7EC8608F3300B090B8104802C
:104D9000106DA3F90DC0721BDBCC0EC5FF40FA15D8
:104DA000F499A4E144F97021465E4DA8B160AAD8F7
:104DB000F9CAFDE30EB1F3FD447EDF26E04A9DDF34
:104DC0009E53ACF3C45F7F5FDA248679645D2DD691
:104DD0007930182EFA69B0F0FC1B126C95B701D52A
:104DE000FCA0AED1B45579ABEFAD83BCD55C2FFA46
:104DF000F40D90009FB1E8AFA14B570BC8FD5CE8E4
:104E0000A4FBC011D776409A4BF89D82F3F6B34CC1
:104E100008D3AEAAEB709DB191E5D16C48F9734609
:104E2000C14440D63C768C8431DDF986EAF813D54E
:104E3000D8807E545096193CBE987F1C3052791908
:104E40000DF32C88E2B37B53C209A5D1BB1FCE85DD
:104E5000F7A5C80379D6100F5DD5C523E98B1AE3F2
:104E6000AFE2753A90FE08E7D2E58BBFCB7FF3D770
:104E70006D0C7517E4080E49E7066468DAA3C113E0
:104E8000B930805F4069C47DF788889519F8F08F44
:104E900011C0EB198C7CDB31086DD6AFDE229ABDD8
:104EA00025EE1042C0F0CAE430231D8140DDC7D199
:104EB00068FBE17EDC423A6BBF048C8BEC2DC8FBB7
:104EC000FE04B481F68A10419DF866DDE57898DD30
:104ED000E2409A7C136D44B00133C80321BA7309D0
:104EE000020871BCB7FBD20A232A19557B831FFC29
:104EF000D7068AB39D748833A8A58A5BAD78DF3660
:104F000057B7702040FEE7D0DBCF98CA7C2043C360
:104F1000EC8C80C8F56654EF6627EAE52277DFB9A6
:104F2000EBA581B2C85ACBF66560160A62BFE928C4
:104F3000DFF90893D6C120463D7E74C811019E6AF0
:104F400066EE6F2EB55FB381E7A501B8B544C9C859
:104F5000B3DC0421D1C26BFF7FBA9804180375C972
:104F60008C808990DA591AAF79B3AB6635DADCAF49
:104F70004232F346C248186F64D6088CB8620216F3
:104F8000C00EE790214080FB493008F9FEFE49BC85
:104F9000D2BB6140ED0FE401011EB6D5EC02A16663
:104FA000DDF1E9478DA52E3CB5A0E230CDC8012446
:104FB000F3F2C6905BF310F31DC8F9DB9E7729303E
:104FC00008230C9682CBBC6165F130AF2FB4E5FBB2
:104FD000587CB7C8F0E54D7DD843A3F8E0BD98589C
:104FE00072CC2CBCD26D3902DBB3B040D7A302BB6C
:104FF0005603202592B322C0D720C8DB51BAB38113
:10500000248870B350FAA0AE045DC21AFDAC410210
:10501000789850DBAB7004AF17EB97DD199B649960
:10502000FD1777B09808022B2DEDFEFC981A776DCE
:1050300002A8F99C45DF659FFFE7ECE413B5B34098
:10504000662CB4253610F399723E3F19F904C0FD61
:10505000265ED46A74DC0E62F96BE498FD59E77041
:10506000B327BDEC6384ACA4EBD921B93D105A98A9
:105070006FE498DF730990FBD1880989AF2D31293E
:10508000B7C140B788247FB32A0A0A7BF82B9975E9
:105090001BB633BE24B91D0934F6220C6DE78BF321
:1050A0003032FBCB8009BB57B3118C80A5319904FA
:1050B000A6B7AF4C029EA8667B4FC840DDE009A0B2
:1050C000FC330858C1613FDA82013010465F7F48E7
:1050D000C1815C882130FDE9FFE0810C20CACD1040
:1050E000FAC9F3987C95C8F3EBAB088DE67FE35FD4
:1050F000EB0D411FDB859001F93D785C30AE8145B9
:1051000030F1DD1E04E5D5C0237878FF844D4B8651
:10511000AB9ECD98572483794E7116B71B7AF1B7A1
:10512000723DC4EFB252FC98B9DD844FF3B1FE80FA
:1051300005BF21EE83DAAF2DE03CC1CDD0B3F36CD7
:10514000576601801101FC037F203D60ED4888C84F
:10515000B38FE6A628FED3C2C54282778E985B85C0
:10516000A0EED76711D613EF9A343FB5CB297BCC8D
:105170003E50913D8239D0029A85A1682FE5CC86B8
:1051800016F35A17F898F6C22298FBFE5E6E7C65FD
:1051900076B104E0ECDA100578E74FE211882D389B
:1051A000088D84F42F85F3EF79DA376E70FFADEE5A
:1051B000301BAE0B628FD33743FADC6EB324107D05
:1051C0001FCC3B507D08C403C6E5040320E81EF84D
:1051D000FB7FCA92C6ED10FEAE8A2FBB5EC90DF4EE
:1051E000B31010610A2F4A7CB34422A50208F906C5
:1051F00004200128828312147A6C4095F305C43090
:10520000BA5F2BB9FDD1165C30A702D10C82095BC5
:10521000E4F8C40258100B8BCB988030B53B66BDC8
:105220006452FC506835584678288007AE148CF6D6
:1052300081053002AFB321848851C43010773E30ED
:105240008007F4200EBA617C21E0010D805EF04001
:105250001EDBCD98BECCBA037A9C27A5051519E0B4
:10526000CA30C0E230F3984C94BBE5F377B298387B
:10527000FDD15DADF01F1DCA30846E4406C2F37BC4
:105280004F5AE580FA9B5892B3015E5FEC99F58026
:10529000E015B6AF15C4E17D8B43F3E7F97792C50E
:1052A000B35880ED15EDF20F0CC86DB32204393000
:1052B000087A112387F41E108108F7110B4021A1F1
:1052C000B324CA10F3E5302CDE8B96C81936FFBD27
:1052D00004AB2277BDCCC20162998E3BD334F92056
:1052E0005EBF048CAFE3F35D6FF72210CFE32311B1
:1052F00028636DD398FA8D9E94B35EEB43F92E85A7
:10530000D82AB1E3D630F9B128F1661A7BB3E42B81
:10531000D8D71BE239F3FF80CCDF6DE196F7402050
:1053200066F72C50265198D3816D1CB1F9D1E9FE56
:10533000AD92EF7F5A0AF1C991F7CCF74DCA058DAE
:10534000E520651994ED87D0F9E4CF5179BEE66583
:10535000DB746E666FD75C7D79A9D3B91793DD0EC8
:105360003BFDB906A973B9B519E2E62E39F5CCE2D1
:105370009896CC234D968CDF7CFF59C8CDEF78FCF6
:105380008E9BCE7EDA10CE31E71291CD7B048F8BCF
:105390007DC73CAFC4DB9DD8FB1CEBB32BD6F4061A
:1053A0003C8CDBF8F92036085880C9D88E1A1BEAE5
:1053B0001F50CFFACCFB351406EDCF591F01ABD9E6
:1053C000B825B3086A8FA311F51D590510C485A827
:1053D0008109B0B7FDF94BDE5ECF71F78E7AE984B3
:1053E000051475EDBA8004B7C0425AF50530F46073
:1053F000FEEB2828D6F4B7494AD3404987A0B2B17A
:1054000001A566B0CDB31806B37C06805AF88B228E
:105410000381200CCF009819491088A6C848280697
:1054200033C93FA948B701C8C80C47BDFC1A690178
:10543000A3F52135B501F84A1F0835265004CE20C2
:10544000FCB92108DC158CFBBFB19ADFD935108D72
:10545000D3C0FF1AC21A199871E9B31B46F7B140BD
:10546000106EDDBB04A15EB1FDB396FE336BC001CF
:105470004F9EE5C90505A6960279AD5078F98DF4E1
:1054800035B14915644488FCB67B0496D1FA5A2D8F
:1054900020C2AEB315DBDBB8FF1B58DD1057D8A711
:1054A000F8EC73965508FFD5610AFF5058665CFF0B
:1054B000B5012F9AB33E5B0520FB2081EFA216E1D8
:1054C000F3233068CB5B63806E7801FD6CF21810BB
:1054D0009618A0F9CB588B808F2C9E0CDFD87F02BA
:1054E000BA4C885BB3696787E3FFB7FE662BB804E5
:1054F0004C9780670C2D59B2FFDA9779F38CAD5435
:10550000080D0EB3E68164E4C8B3197EF6C23D4DC2
:105510001D10C54092F36F992EF8E863DAAF6ED193
:10552000B108EFB1CC9D3062BF3678D450B3B05CD7
:10553000F1FF99B1FEA2B9DB1E55E6C08FE93D36F9
:10554000FFE0F81C1977FF19D810FFDFD8AE8F6C79
:10555000EE08637B7058FA38D3F0F3AE311D7E3518
:105560008EF19D142EB9DB527F5BDD38657B6DD5E6
:1055700089F100BF99B0EB76023F9B6548FA1DFDAB
:105580000640B1939069625B787BE7D8FF789566B7
:1055900033BB6A2016F3323FFB22E8FD1FF5690892
:1055A0009DFBAA018FC359F90A9FFDD8D8FEE8B325
:1055B000B6C931BDD2467492F8FC02F2BC011403A4
:1055C000CCEE20D5BC227FE1010AC840021426F8A7
:1055D00042C9654D60FDB6B959A2B3013B33ECE851
:1055E000CFEE7B10084E9042B820043BCE81008263
:1055F000BDDC803CE69CF9A081E8011B21500B0A30
:105600001045A4A203BA90DC81260AAC0559FEEC31
:10561000B3A4259F6683D85A1960C12B0C1B1501B2
:1056200090725E48C4C17E8928052030F80D73C48D
:10563000C4B7D30988B94110C3572CFC6C09400A80
:10564000C002C57D4464116225EFAB18048661FA7F
:105650008808820A70795EA0020982FCA71255A10F
:105660000401FB31200960F9821BB512819B53FFB5
:10567000373FFB5A11ECC482528BDBF6899057847A
:10568000D4F4B0FA80409C11BFD66D5AF2EC7B572F
:1056900019729D377E9C7DC79648F2BD8BB54453E9
:1056A000DC88BDA0FE9610F2EB8B303FCC6325DD8D
:1056B0002E80ECD7ACFCB6A017877498C941D6F6FB
:1056C0002DCDFA28FF1A5218E1A6A522304F97C017
:1056D000981A2CDA0549B3F8633BE3B30116680165
:1056E0008782F99489F7EF04E0B7FCEBCA3F8C0896
:1056F000E3EE1FDC46B8B019BDFF2062AAEB80DBE9
:10570000490C96FF82E746AC5F203531668F173132
:10571000FF97665B4E96419922DB4BB704FBDBFAA1
:10572000E2C7322E2337F6B08016702EDAA203B00D
:105730001968FC186818B1021FED7738FF568210FF
:105740007A7520CBF5E3049C5166AB3E02FEE16422
:10575000FA2045BE2C3BD43B04FC766FF64231C2A6
:105760005DD88B01A7AE2C025B66F92D88085674B4
:1057700010C6672BFB4C1018FFBFD8FF40B6814006
:10578000B118A103ACD9BC30CCC43A59C95209C034
:10579000FC0CCA5CE90FFBF498FAA005C9DE0414FE
:1057A00071DB0D01F9E6E6572F92CE988D48FEB9D0
:1057B000D9A6B0E9FE80017902CE0419C260019E2B
:1057C000ED3002C6C084DAF333D221622BB3B04588
:1057D000F9A39A66B98C0968E5F8C081CA27261E24
:1057E000F478109F0EBE3C8807F04463F30EE0C4CB
:1057F000BFE83CBD1019035FCA67B41950F9667F52
:10580000D1CF73C393A906BFC028FC38C44DB3B72A
:10581000730366AEE90C7A3258FA8049FEE2C22878
:10582000F6B34C02C273B33819E7FB70FA2027B302
:10583000BD10240DE65F9E98058DF99865D78AFB0B
:10584000E314FF6DE6C5FE982CB9FF3798587A0629
:10585000DF8098E9FB4081B9C05F186CAC2CD9BFE0
:1058600033987AAB8DE0BD980467FB4BFBA4D3055E
:1058700004C808026ACE63FE9846E02BE0303F83FE
:10588000F9840130023796487C7F077E9F065F359A
:10589000FB7F4416FD7F46CA6E8B3366DFE449FA10
:1058A000C0813C317DF0B51E04E7A57BB880077A46
:1058B000BC7876FDE04122B35E786FE6987FB22F28
:1058C000FC886697E3201A660B86661CF3E5D6E033
:1058D000032419F78BFC80412CB3022E31B3271916
:1058E000B8FDA0C701805D63732D040D41BED91CB6
:1058F00051627B11B1818E693010FA8020B806F6B2
:105900008EEE0693C9D5B401859C3002FD8550B05A
:10591000AFAD980C32F6C73830DFD698026F571704
:1059200029CA082540BF41C598E0FA0963DE986E90
:105930004567733062FB038430D70220AB98048E36
:105940003DFE9F0820DFF67F8122B337D34636F92C
:10595000230467EF7F2CDE96F820BDC501B4F4E583
:1059600030037030960C3833C530EB980112E330B9
:10597000BBC1E8DFFC84E198591EE501865E987F93
:10598000775769FE6F9910C4B2241BB316080C7DBB
:10599000988C7BCCFBA03FCD820610088344A5FDEC
:1059A0005E98BC20B31D108AFB98012077D983CB69
:1059B00019419BD4D8FEBDF9069640C3DE9D46FB37
:1059C00086F92FEB980216EFB120FD80AF412EC56E
:1059D0008EFCDF68DCD396842035E09819DE98BF12
:1059E0000B3D2EFC80097AC5406D180178305AAC09
:1059F000F5E08BF9988BF69BDAEFFC7F0920C00865
:105A00005865C73DF23014F6856021C53F7FB06907
:105A1000C23084CCFD7F28FAAFDDFB20EEA53440F8
:105A200006BCA5FF35B858BD18DF1930FD47DC07A7
:105A30000432BFFBDEA5C0401808DBC5E5E9EB6614
:105A4000200AFD98087EED96FF3D9804647B98221D
:105A500004618FB09884021335FCB05E986B9BD2C2
:105A600001FD98406895D88201A7BB98920408462A
:105A7000192502CEF69850F9FF16C5BCFC8C2D21D5
:105A8000C86FF6C2B6FF38F85D33C692F93FBC0C5A
:105A900039F5F6428928CF0C9EF21933CEBD981005
:105AA000CBF88C5EFC29DF3696228D41114089F8B7
:105AB00098EE3C02012040CB0CEF6E9802FECFC85E
:105AC00016C0888218D78030DA867305020CD88118
:105AD0001197BB98082401115F6608EDE5FE38DEDA
