:100000000C94CB2F0C94EA2F0C94EA2F0C94EA2F2B
:100010000C94EA2F0C94D6320C940B330C94753359
:100020000C9488330C94EA2F0C9460320C94EA2FD1
:100030000C94EA2F0C94EA2F0C94EA2F0C94EA2FDC
:100040000C94EA2F0C94EA2F0C94EA2F0C94EA2FCC
:100050000C94EA2F0C94EA2F0C94EA2F0C94EA2FBC
:100060000C94EA2F0C94EA2F0C94EA2F0C94EA2FAC
:100070000C94EA2F0C94EA2F0C94EA2F0C94EA2F9C
:100080000C94EA2F0C94EA2F0C94EA2F7F7F7E7F4A
:100090007F7F7F7F7F7F7F7F7F7F7B7F7F7F7D7F76
:1000A0007F7F7F7F7F7F070007047F7F7F7F7F7F4A
:1000B000077F7F7F7F7F057F047F7F7F7F7F7F7FBD
:1000C0000F7F0E7F067F0D7F0C7F7F7F7F7F1F7FDF
:1000D000177F167F157F1C7F147F7F7F7F7F007FB8
:1000E000277F1E7F257F1D7F247F7F7F7F7F187F57
:1000F000207F217F267F227F237F7F7F7F7F7F7FDF
:10010000107F197F1A7F1B7F137F7F7F7F7F0818E7
:10011000117F127F0A7F037F0B7F7F7F7F7F081015
:10012000081F097F080F027F08197F7F7F7F7F7F6D
:1001300008027F7F081308117F7F7F7F070C087FED
:10014000017F080B7F7F08077F7F7F7F7F7F080706
:100150007F7F7F7F7F7F7F7F07037F7F7F7F047F1E
:100160007F7F1C7F1B7F7F7F7F7F7F7F037F0810C8
:100170000C7F247F237F137F7A7F7F7F7C7F081112
:10018000147F081908200B7F7F7F7F7F7F7F7F7F11
:100190007F7F7F7F7F7F7F7F7F7F7F7F7F7F081550
:1001A0007F7F072408057F7F7F7F7F7F080D070BF8
:1001B00007237F7F0713071B7A7F7F7F7F7F7F7FE8
:1001C000071C7F7F7F7F07147F7F7F7FFF1F627FFA
:1001D000C23C006088FFFFA0089001324006C8C6FC
:1001E0000019FF03050A4414812241CF068AF32037
:1001F0000365FBA00C94290035FF0CFF98013350D8
:1002000006CA4C19BD28E0A94EC688009879D36467
:10021000800CB9C600FDFF15E0025C800B70018701
:100220002E0487682AE6A002F4F35079F3C005A8EB
:10023000E686A0CE4FB312E054800A87D02AB4409D
:100240005CE054D39E74D3B8001770B960F898B2CC
:10025000FF200704800167A0EA804010C002C0832D
:1002600008017AE010CA60E4E8FE304866FF98FFB3
:10027000FC280505E690CA848467FC0240E90485F1
:10028000D9A015E8CFA01214167A190A40011BC98B
:1002900019149AECC0402756F0F8FE024446FD833C
:1002A000440C6E21704480E096E909EBBB406695F2
:1002B000021031B312484E1EA984501885A929EBAB
:1002C000109C2038E5F8FB7205EE2364D2A0B8F448
:1002D0005BD7F6D504596C9EEC9720711BB78198BB
:1002E000CB48F99D24DDDFEF8E160BA838FFB34015
:1002F0005AF0E0FA34795B76032DB3C056B9603A10
:10030000B47AC83096F983AFF1D8F880916A7EDA72
:1003100008013BB3464220408C2C78B48F19FBA0D7
:100320006F4CE0701911DC2E06F59723FDBA97107B
:10033000C00239F3A651622BBFB02FC9A6390446BB
:100340002CAEF458FEE0BF8C07A504EA83E426F344
:10035000CBF120F385E0E688ADB33CC5F6D3CA2ED9
:10036000F036394CEFB81981079B66B6A006C1DF9D
:10037000BF624BB33024F4CE7BE018FB801056B341
:100380001301D5B3C0B01495B34472FB82C85D7934
:1003900048ED9880C4FF18DF4C04D270DD07184880
:1003A0000A9002EF40639F80D920101E98B941F552
:1003B00094A1F880C268E31DA7879EDA8018009395
:1003C0006FFB2F0C6FB3FD7A0B59FF5E68BF70D2C5
:1003D0009804F59753608960CFBEB81CE429F0B249
:1003E00008BCFBCFEAEC3771F398DEE640FF88915A
:1003F000D50309D34221ECB040C14414AF1A3BE508
:100400008C9C7018DFD69C08BDF3F4DBFF80317341
:1004100073660B6072E880BF7F028F01133EF52C7C
:10042000804130C6C5B4E0DE98BF22F77F0C37BEEE
:10043000E1F9F998CCEA8378FE7560403C8807F4CE
:1004400069B0C4460FF6E2013C1034B3B9E0FBF0EA
:10045000786AB9D3F450EFF98481FAC247A02049F1
:10046000E730F3B9C2F30131938018E866B23F3444
:10047000E4EFEBEE73FEC598C0CEB25360047EE0AD
:1004800011300846C091A3211842B3B2093D9884A7
:1004900073F5D0FC6FEA9802F9B8F3C204809A9021
:1004A000B3402F455998A4DD1466699E93E798B62A
:1004B0005CD8FEFE98B902EF41718EBED9AAE766FC
:1004C00075848C76B0C0DFCF9844B3C07AB304BED5
:1004D000CCEF33988867C1C916C0E04F9C98BEED39
:1004E00018F884BD9822CF6081C2483010E6168883
:1004F00008E61193C820D612672C6611AEBCB11A5B
:10050000C94AF4B8B3FDB926CEF50B02445366AC24
:1005100010C1EB4218019E234C804530033DB301CE
:1005200064AEF3215F2528F47F3345FBE198F28028
:100530000775B93D7876A6373CF3F0051EB7AC9841
:1005400008D1B3D3671FF3E79893B019FA886DED1C
:1005500098016017E8A1F20696EABE98637F7F6F64
:10056000A6CFFD4ADB88FAFB982161AE117EF830F8
:1005700040164148185F0CED9890209FE65824B330
:100580004B694C9BEF78FD232EC8F798042490CA42
:100590004412A33FF4823031FED217D0FC435EFDFB
:1005A0004ED95CFA79C832C210B6C27C81C8016EDD
:1005B000197EF7B758FFE5C8B9B4A1A675F9A71811
:1005C00030D1B6BE5FA8A282CB9628FEF9C8E00B58
:1005D00064247EA048901022C02D021821FF0B3009
:1005E000C4657EA0AAF47B66B385FA16E4F590A7ED
:1005F000C14B30024630A3586BA3843099B1F3BE8F
:10060000DA1789ADF7035AB3A9FFF3D26F5D9810DB
:10061000E1987507F4E498E0D90FE4DE98625E8B08
:10062000DA10207E2F04E5EFFE919DC86010A7B57B
:1006300098C020E69839C67D7F9EE5FFDBEBFEE69D
:10064000C8A3EE013038E01127C2B0B0B3F2F41AFB
:1006500066C4F9DDA081A66FC848F6988244EE2CE6
:100660003095C8E8C6303FFB7F10279B73E0FF8DB5
:10067000EA73C840778298C502446846AE083030B5
:10068000ADFF989BFD530CF8308EB7FDCC20C1A672
:100690004B64F3B82063E7C09B19E7A2FC8847B618
:1006A000F3302361017B981001E202414097F397F8
:1006B0004818304A187F357DBAFBFD992046C06640
:1006C000974C1798B00816780898378B733011B08C
:1006D000639DFDB2444E667A8338F8E041E03D0DFB
:1006E000B830FF5A98807A98E258E6FF5EB1676D9D
:1006F000EEE250FA845A66E5C8FC303B5906C4273E
:100700008C302B7AFF09F9808139B3B223C262821F
:1007100076B91812E044B3B521E3301BF598459043
:1007200019BB2CFACC28FFF59880FC41C0230A5E47
:10073000DB766DC80838241AE33008FF80406BCDA3
:10074000306CFB19FB070984C22FB0E52A088EF133
:1007500030BEDB89EE49F88FEDEBB1D6144099C875
:100760008A06FF96BCB111ECE356CFB390FC801023
:1007700034BB42EA59D5AF847B98300406425321FA
:100780001DE330751340B20D1B5D6697C839B32366
:1007900040419B415F0315FD17962C4C3BE44B47B2
:1007A0007A6923D5B311CBFCE0BD4F6F98011AF7DE
:1007B000988807F0F6801EC883117998CA6D105A80
:1007C000C683F230F0B4AFDB9430404E3E7308067F
:1007D000C080C23E377DD38F7E6E3033FDDDE3A611
:1007E000CDE69120C3E1C016D842024AB3B2043725
:1007F000E38872F4C8D7CB989C3D224804F10505E4
:100800002484D71A30FC807633F57ECB0F106F36F8
:1008100098D520FB91FC182240BBA920C8A3411EFB
:10082000F398CCBE95E00CCBFBF86D0AFCFF5D980D
:1008300060A820809718A643600C10C5D6B418DCB9
:100840003064F32D68FDA584FA22CE280B200A70AF
:10085000944830FD46C10818AF8B980F1FE17DC446
:10086000445C5B699D2E8405F9C8F71804236279FE
:10087000987F32C120D79804FDAC8C8009B08CF9E8
:10088000E871F5B76D170BB749FF7FA298015F1E9E
:10089000C830E00B9423F0F369E698339BC878B82E
:1008A00030CDF69888FC33FC98EE5C3D629859C8D0
:1008B000AFC4B1A7FF3DE5B601667B9818FF6BE3B7
:1008C00098B323DD7008ED9841062D460556B31008
:1008D00036B3B608F3985D6D1FA8FCFD988ADD4815
:1008E00041EFA4C04014882EF3D20AF3991CEB16F2
:1008F00027D7988C7763A4FC64723020CEF9089BCC
:1009000063DC7D66770B18FE2333AF97CC6E1A9F9E
:10091000F9072D56033D982063FAAF2F375C160F69
:10092000F3E9B0FA8057229201194F1250F64410A1
:1009300025BD49090108A9ED4D8D2F8C80FD9749F2
:10094000EDB47B0102F2F39BF88011FA464E5D098B
:1009500013609FC588200244808D0804BB93DE98F5
:1009600005300902D82FC44566C6BFD17FDF3625C2
:10097000F1FEFE98E9817840460CFDA00134800626
:10098000C0B66DC80456660222662DC6FC988E1944
:10099000FC9FF936FE98AE60BB17B064821BE4C8BA
:1009A00056ABB35063B312D3AFFC6BE5DFCB91ED25
:1009B000984320DF7BC7101210EDE7050B7D9804EC
:1009C0006DC68F29A662E319D3295E98B1FDFE3763
:1009D0000031B3F6FFF8FB8F28CBD8B387016AF359
:1009E00009B1F39CD16599D3C0F376B8FF29E62508
:1009F00019BBFF98FE28123093D16690466672CBE1
:100A000080C2257A4088B7EC58FD7938BFC1D946F5
:100A1000935798FBC06626EBD30251D36EDBF0F9F7
:100A2000796995E416D101E644107518B9B13BF324
:100A300068F920047FADCC8049CC3681F3E453F3D0
:100A40000AFF3220647130C6541D96FFCB495EB652
:100A500097E40684A0F76DFB08887F580E2058B3F2
:100A6000DE10FC3261A1769C8FD8B8F970B9B380E2
:100A7000BB3C90B7FBEB38FCE1FFB01B9922026650
:100A8000F77F74F866F2DB20C86CD58040497308A4
:100A9000631CA2D9F8FDEB4B011DFE250410D47791
:100AA0005093F84B20CF60F54AD0BAB340F1D7EB62
:100AB000DE80A0AE31F002AC804BB06E901B25B34F
:100AC00020DA6A8C80F0B36E5EB3A8195E5864AF0A
:100AD0007410444A082C864F8F753BD24E7351B424
:100AE000C4F4A75355EFD8FC62FFA5255C3D859C57
:100AF000CAB598FB32347CD858C60F662EF8C26F40
:100B0000014B5E10456659BF9B4BE52F18FD6AFFF0
:100B1000D8D8FB9F8276619F705310FF182397FFF0
:100B20002B7D10CCD7115BFFCCF9FCAAEC81814264
:100B300069FDC10610841AFB629C12D8E0F881DCC2
:100B4000868A5601CB2E13F59805848BC0822340EC
:100B5000C4B95A20BCFEAAC37CBF856D1DFDE5FF4C
:100B600062BEF76326A12FBB7BA0211904469ED944
:100B7000C161A2FF585819242CFF893E3CB331DFD4
:100B8000ECCC778CEF2ADE3ED8FDFDB5F4E3FC76A5
:100B9000E84003D3ECB92CEE6370FAC12FAC6409C2
:100BA000F5B304BF9872519634E4CCC16DF6326748
:100BB000AC59805CB0C7FAE2FEDB1780FAEF80FC2C
:100BC000A2E8B23BA1966910167658F8CBE58D20C5
:100BD000C6ED1C7FCCFC407918F9B8610F9810DF86
:100BE0006C49B88EB21737A003659856FF1BC7B67D
:100BF000F338FE29BB6F800CB78EF0A0FB23AB2C23
:100C00002044AF8CEA6D0601676BF038FC6CECB2E7
:100C1000027DE808634369DC4047E1FD0F00F3799A
:100C2000F713B4CB69FB9C20E5160133F5106F97E1
:100C30003085B633FE84C91062BFFC7A4C0CE5F3F4
:100C400014EAA410D120FEF0C0FD8041740682C4D5
:100C5000B4403D45B352E604A105D18126100BCF27
:100C600032B67C694DC7C686CEF342050A8956FF67
:100C7000FFD18040949E83BD81CB107FD8CC4FFCA8
:100C8000C818FBB6F0EBB1334BA5F67F0133D0B7F4
:100C9000DEDA1604ECDA4681F8DA2BF827F7E96099
:100CA000FDAEE6B3171EFFCEB264397D88B5803144
:100CB00087AF589F04D3B390F8B1A04FB09CC9FF41
:100CC000B8B3FF7FBB2068F161AAB308DD2B01B583
:100CD000085B1A400B9FF70AB21B5B77FDCC879A23
:100CE0000D5E095C7DB7F816CC681F2CFF8539CBEB
:100CF0002E3FF65A90721908CB30D148D3150BFF0E
:100D00002888B0FEF8BCCF3FB3DDE24101A1DE1D73
:100D1000F684804050790F849B38D828F8DFECE5C2
:100D20000247D699409CE7D12489F4DB73EF014157
:100D3000207BBD041148F80B32968FCB2EBE5AEBA8
:100D400004F5387107C72E1849DFACE50CE5EF60F4
:100D5000FE6028C6B93D0C1EB9F32DAF543D506658
:100D600061672DDC804071C5282DE010F3110AABBE
:100D70001BE7A0FCFAC7C5798BB067A7B611FC26A4
:100D8000C2031801225CCF4CCB302216EEC820588B
:100D9000CD988CCB9AB8FE7FC5BDF33C677F2EE023
:100DA000413ED307F0401E7A7578200F20E0F35AB9
:100DB0001EC44F680FD60C2090B9F9DC0662ABB2A6
:100DC000303D660149D3C06609FF7F47E0B7F303B2
:100DD00002FFA208307A19261B0C1DB3200C04B2A6
:100DE000B313FFC05510BCA819CE476602635E98C6
:100DF0001067FA9841EC9155F348F38FF969A4DE36
:100E0000B8FC1963BE98793AE7D7E5D90B2E665638
:100E1000E04220FF2F3CA327374FD8CC02AE99D910
:100E2000CBF744BD98807F9E98E979F3AF8F37ED7B
:100E300078FE08624B661115F398FBC740BB22D4BD
:100E40009814B5A004F391035AEF960239B9FBDC6C
:100E500046672DCB057E7FCE67B28041FC16C0C2AF
:100E600048585E98DF4010FF7F821802833CF12CC7
:100E70008009D1B329B379C598CB6E56B33C9A9B00
:100E8000E00140D3317FA99803E08872F3C09FF658
:100E90000FE2410C10EC90F9044BD6981010F89822
:100EA000BD7666805E985F5E3DE6300882FD17B3D2
:100EB0004256CC5039EB9842FD980869EB4B0461DF
:100EC000B3FBDD70F8E1DB2C014F6CF75B8E30E992
:100ED00028B58041DB8630EB24FF6C9850FA35E46E
:100EE000302080C3DB9B3001624F6C98C8FF6B766B
:100EF00009087E5B68F030D9F5081C30C5181073FE
:100F0000E6A0F9B10C3CB144AF3C987176E44401E1
:100F1000DC30E5A10804AB7B63D2FE01B9CB88735A
:100F2000433002672FED05FE32980892CC8CCA7FC1
:100F3000E046C00818011318590CD35E3FBFFBEC04
:100F40005C4D19E0B1810E1F30D68007F140921E32
:100F5000F626FF1A98F380E6301820EF0798E8BFCE
:100F6000FCAC3C30E230F3F223973001FB981019CF
:100F7000635F32B150A6B3082CDF86305C1186B3B4
:100F80001988D38C304DB4A05EB0621F205EEBAFE9
:100F9000225AF968FE2610EF009D1D407B981234FE
:100FA000B1FD8E513080DE9CEC657130FC777AF3B8
:100FB00061D79630FB2FE598F69225E49830BB2058
:100FC000EF02F25138F3B9FF1D98F290F88C3666B3
:100FD000202825E498AE7F9F98B4A1F371B8A7812B
:100FE00098D903F91C3067BB7901300A3FCE85FEE2
:100FF0007F8818E5B70CDE9833F348F3038B618CD8
:10100000CE80855F41FAFE31304ED81701872D30F2
:1010100041B93008DB100F7330C403AF7861980119
:101020000CEC68FE6325C8668D713095E498F34D2D
:10103000E61023FA62B1164FB1326F594B104BB321
:101040004294B344B38190C0BFF976E3022619629B
:10105000DE98BB44CF9808E4B51781256DEADE9889
:10106000B411CA2E31B4331815E3307E3F648CCCF2
:101070008CDFC898CD3007028998B48F9B9879EDA2
:10108000FE4B6BC730A89F60ABFCECC8802053ECD4
:10109000CC4FC998C514A602B3080C035E25309E38
:1010A00011FFF0DAD2FB65D98A18669F253046BC5D
:1010B000D9C826A7B8B060F3C01FF34360222C271D
:1010C000E6A738FC70DDB17E4F31984E7730312085
:1010D0001E1F1EE598C523EB9818B2C8BD98FABC30
:1010E0000466C2AF0098D7963002471A7D7B98B944
:1010F000FF7FD83257E098EF20F4982C3642B31493
:10110000FF6F98D0F8307C9BCB983386800204AF79
:10111000822398A7F93008034090EF680241FD262A
:10112000FDE6DB137898A2C739D51A0491EA982016
:10113000CDC86065BB7E2738D3EC3257D6980C7A81
:10114000EC41BDF0215E122E191732E017098D9B7C
:10115000AF62376578FF2C902257CC9840ED9155BF
:10116000221074C4B30469DAEF84689E6011FA76C1
:101170009FEAFC35EB98B012FF7F46C420DB1811C4
:101180007617165DBCDF17228C8805873020B0FAF1
:10119000AFDA98608051B0F026DE9815FC305E988A
:1011A000027978B0E0413C3850F80C2CF098ECDC37
:1011B00094C8FB66DD622090C83691F9167A9809CA
:1011C00069FC86B3026FCC308028E7B31340F3810B
:1011D000018134E0B1F92F6D9802047C98CF519AC7
:1011E00008D374204D226CFCC2F98120118482EF57
:1011F00059C85A562FFDDB493CCDC738308EC60E34
:10120000B6B6EAE1F4A428599FB515FD625E98B11F
:10121000106F5D9860FAC920FED6036119B75DEFC3
:101220002B64C68B0940B4F97B7EE8F90411F6986B
:101230004820CDE3303D950AE9601244F6020B40A8
:1012400024345A880D426482C4F8CABCB8C53E3200
:10125000FE3B30F33263768C59C8FC1126C282986B
:1012600008FC85120C8011B015D61723EB980616D2
:10127000F398F3C8F1AE205A3D08F187FCC7BB1ABA
:101280009030387BB8FF08123166FC80C8D3DF98F5
:101290001006C280182DBE5BA9F8FE11F298F3B8B3
:1012A0001BCAC82FB3D17F2C1917F37BB1120221AF
:1012B000DBB318FA96DC4469B2F9E8351905D63380
:1012C00077E383345F20A824683740F9DAA6AB5E61
:1012D00024C7E7D3A8FB624266E6FF60FB401033F9
:1012E000D66530A4BEB5A304A445F361DE98369A52
:1012F000D827C430D9AF7896CC8D69B3FA6C77D142
:101300008CF61B7EFF7F18205E983BD338FA12E5DF
:1013100030022B1908D69810A69BFDF6812830BC08
:1013200082F34096B6015AE640202590E03BFCB19E
:101330005FA1323689B6125BB2017B983040A316AA
:1013400076B3714CAC04DAC8167F72018CFB80094D
:10135000301179CC66E4B31EBBB64B7FADB17C7E59
:10136000D95DE8DF413CE398E9386567C878205EDD
:10137000983BD3C0FD165C6610666DEB315056B3DA
:101380008801BCA5D5660C646B15601077C3C2BF1D
:1013900063EC7FDEBDFE69024D24B010B1E6A9B357
:1013A000DF8F624BB3044F0E4B2B1B32FF0CB37C11
:1013B000FF71A1D8F9179BDD7AD001CE33F38CCF22
:1013C00068D365FF98198243FF98FFB028461D66D1
:1013D000D390FF82316977E4B8FC71AD9A937F8B2B
:1013E0002BF319FD6E40E6C273E438F846E2713122
:1013F000B9B19ED1469EEB9108340A96ECFF04C722
:10140000D83212ADB304D8821AB301D796F9FF06C9
:1014100057ECCC80CE00AFEF3C8F14B4FCC5F99FE5
:10142000405B446799EC1DC36EEC6FDDF478FCC73C
:1014300095AFB306CA9CD38D24DDC4FAFDF7EB0843
:1014400040026406669A20C5C058E7FE96D696808C
:101450007A62FD62B6025BF91493F350419E3BF54C
:1014600058F90BFFCD0262EDF3FCF98C7ECC80C203
:101470008E3482FCA281B11945B208C6EA16B64C78
:1014800018FD269661AFAC98FD333FC96DAFB80427
:10149000DFDBCA98FE0DFF820166EE826006E8FE81
:1014A000C2FDB7153377D6FFB804CEECE3082C594C
:1014B000CF101FC3B3089B0518FE04746808B097CB
:1014C0004A761989FE08169B80181191E3864B19FC
:1014D00001156CE888FE0CECD8C80196EC35C839CB
:1014E000591905EB66FACC984FCC66575BFD048022
:1014F00043E0F46BFE3FC2D33F01F3F0BCF9DDC221
:10150000AF59E5026590A672EDF320FC8D19C6FC7B
:10151000E66C7B6EE034F3416123B2DC84E6B1FA21
:10152000BDB1FD55A10804F7B6045B07402C8B90B4
:1015300051B322616E5B21E9FC85EBFF5017F398F4
:1015400013586602D9757D418A7A8838586670FFCB
:101550006FE6EA9FCE0230C2CED9FE809F67AF1001
:10156000A377B0FC839AAB68FE5C5D10DBB348C622
:1015700014EB20C54F7332F7778F2178AA0DD8FB73
:1015800025B320E69FF7A9ACE904FF22E67D0677A4
:10159000FF23EFB8939006FB0ACF4002F10905D074
:1015A000B3FAF806DC8743CCB308D0B2B02BACFC5E
:1015B0007D046040A0E5B664A44E10064247F3FBEC
:1015C00082613000581BF34B113CB3EEF14DB579FD
:1015D00082AB4082403B81B8FF2C26C23FD13F8185
:1015E000BC1E6FF343216A819020550438ACF8F992
:1015F0000C2BFD31049DD70FFD7DAB7BFCFF629E64
:101600004B6198FFB019B0D0CFE61A1880C8E860D7
:101610000C38EBFE3B8B275662FC29F6E51775A9C3
:10162000EDFBC8FB875D64B408EBB650F3F64808E1
:101630009A15B408EB151B58B320D7681218F6CCCE
:10164000DDE328869F7FB3403F85026861D828FA92
:1016500073C63276AC8BD936FA7FE5C3049FABF9FB
:10166000FA153F3AA13DB1356F20756FB824B2DB52
:101670001BF9C0FC3C8D96D61AD943B002B008C401
:101680007E326DBA18F87DC2B6B398FEC4FD021062
:101690006A39B020ADB3C8620C661201B615E023FA
:1016A0008C2B58B33083662602341921F8B04CBF16
:1016B000F61EA07A668097720627F70F100C20613D
:1016C00061B39E6642B666BE8758B65E66B1F80FD5
:1016D00066984204B301D5B30A61676C9BFBAE5AAE
:1016E0003F01FA3092DBCC9873768E096BEF9CF851
:1016F0006DE60C5ED974A6BAEB0D062FF6A2416B0F
:10170000DAE8FC69F62B8BF203426ECB9B96BF02A4
:10171000FDB16AF763CD5510FAA9D89619B5106CCA
:10172000F73441736CEDDF5A79137AE5C0D3B77B98
:101730004C26F926FD48E47E8C334F11637CC7B3F9
:101740004956EFF19EE5B4F0FDCC0FC9DD07BBBCF7
:101750000EF3C7BDE2E0621D64BC0466C9FD9806D5
:10176000FFDD7FECCC30738C2DEECB934B19120E3A
:10177000B3E30C1EFE8F8044CD59EF707B967A95B3
:101780000282FD344BF324020AB59088B1FD0CB2FD
:10179000571642101676B1B8DFAD17FD98076BE209
:1017A0000562C77FCCC0B3815DEF68FC049DEB98F8
:1017B0002021F390B120B31A3B7B7878F829B38CC1
:1017C00077EDD405BC98BF3201637F7FB30556EF38
:1017D00058FCCA6FE498B7B50658F33CDEB6FC6017
:1017E000806BEF90FEB308BB30056DE09818F7AC46
:1017F0009881E508FC9FCBE302B46AD5B310615F22
:10180000AC4B58B3B366E20204DB8C302B6CB3B440
:10181000FBD3EF0A746D47B366ACEFFFBF3F50F6E2
:10182000CC01EB6E081CF398398A68B3F89A6C8087
:1018300022DD0505DB83B102D519A09CB3B23BD7ED
:10184000B30C1275B718F1F3B5B1B0B3653D476984
:10185000B1FC2F44981E69DBA43C1B59B460DCF931
:10186000AFD0B37FFC98DFB61F3016771783FA62CC
:101870005E988880EF067DC7CCB37BEF7F6BFF1A45
:1018800021F3F02CB3346167F67F18FD25EB98182F
:1018900043590BB749A8B1F82F5B981C7517858E73
:1018A0001908FD04C47D989240AA6C0D2FFD7FF2AB
:1018B00096B3DA8C01F99836F821803FDDA608024C
:1018C0009BDB17FD13E130FC85780336FB0C39C632
:1018D000307EEC85FA4F8330BBCC6E2F58FF519F82
:1018E000123021600B081BC30401377696FF7F92EC
:1018F000981992E5510D18F55790C93684F82F9B29
:10190000C80C0B8B1AECCCECB7C8E5300C85EDB0ED
:10191000A8FD897330022071B38F0019B38856F087
:10192000135FEDCC4C7F325872F840BC4BC73F7A06
:1019300010677678F9CBF59802D9A56DCB30021DEA
:10194000CEC8E041CECD2EF989723018F3F20BFBF0
:10195000171B621C304D6A9802A9B385BA62648E67
:10196000B32C4D0495EE06C630BF72D82440DF99E3
:10197000F6CD66D0FE9C667F181A9FD89EFE6C9EA0
:1019800050956610EDB38007AADD038C192B01B4C6
:1019900088D9FB042B192C96F31643D59020637F2E
:1019A000CCB344B96DFC642DB360179426F179165D
:1019B0000C98AFEF1830CEBBFC782007551906A75E
:1019C00018235BE598FB7F082466F5F40618714937
:1019D000A6AF73B328FB656EC622EF5DA046E6474F
:1019E000ABB3111B33B39BE278FF2BFBFD0D014F13
:1019F0005F9882F37FEF046399C8B3495BEF38F8CF
:101A00003FC598B3B2BA80C5CCB851E1F864A066BE
:101A100018510419FF827F6B1760CC852BED647819
:101A20009666BC2C66F31DD6FCB0772C9308B5B334
:101A3000099AB2D90AFA3F7FDA1484EE2540E766A4
:101A40008C802136B3026F991386B36BEF90FA64E2
:101A50009F5AC33043046BEE98E8013CDBFB7D10DA
:101A600002116C66E081E5A1FD92667E4B8BB66F3C
:101A70009872A930AD56B350C6B337FBCCC12FD640
:101A8000988CDE4BB5085AB3218BB311125919212A
:101A9000CBEEFE1DCB9873B3085CFFF8FB20D7CFCD
:101AA00080F452024071B3018CF3E3D11C60D398EF
:101AB000FF30481BFFB324048666D8FB23048166ED
:101AC000B378A004A06A867F911193E6E13666059B
:101AD0009C6606FA335EB64C35BE00B1F3DE0B35BC
:101AE000FCB8B0F95FFD322086BF32B0FD4BF3E5A4
:101AF00017586E105EB3D9A8FE3D9461F36690FF4F
:101B0000633D68617F999806B317991DFD01D8EC74
:101B1000F95673B140B698C8FBC616B4206ED8F318
:101B2000FFAC3F48B266DD4E6096B31584C766BB16
:101B30008938FA8027FB360403204D8CE02EF743CA
:101B400070FE02B20143A1B0EFDBE538FC15FD6188
:101B500020863EE3D889FA2BF4B10615F5F19FAB48
:101B60009A3004BD30FC686CB304202C58B3F97271
:101B700076B34096B3FB0FDFCC607EB6B389FE0729
:101B80008FECCC013C58B38828FECC80C4B62AC761
:101B9000D6570172B3FEC123A0656CD8FB648FDCFD
:101BA000D1C25DD9BF407B49B505D8C0AD8CE21E1E
:101BB000FE7FC6D6E1103FF67F3E662F213011BD75
:101BC00066DCB1FDB3E10B336B18D8FF085AB4B132
:101BD0001095D1FFB699C4AABB206C1880104D9601
:101BE0000262F9A581F80368DE66B4D14811ADD868
:101BF0000D20926604D5B4215EB4B2C09BE548FEC8
:101C0000CDC3BF8981785CA6B7664D0D76F02404FC
:101C100037EC540120665B7C20FC65FE1C40CF3015
:101C20007FABBBFCD0FF24A78F5D22591F38B2F8D1
:101C3000C4FFCC206EB6672CE1FF57EC62BFB0D278
:101C400095DDEC60C99B7B0104EDD896105CB3B0C8
:101C50000A486C19B0FD4924086DE683166FE390BD
:101C6000FC609419604F662E80C33F3348FFEAFD45
:101C7000637F9E6166B615D0FB1C6EA720C5FDE58F
:101C8000027A98A0C26F5F0860F3424514B808C694
:101C90001B80C603F0B3FB0528B386AAFF845BC68E
:101CA00058FAE5C0DC8FC26E5A38406E1218D3D392
:101CB0001E41FB286C66D8405055FB3F4075D30849
:101CC00004B33AAD01805BA9503B6618010B968EB8
:101CD0008912AEB21352D305660845239E831B4C6E
:101CE0008091BEBCDBFD7F06C4037673E0C25FF467
:101CF000CCC00301D39581B0AD721EC037630FE431
:101D00007D6FB019DC9C0393B0419466F5D301114B
:101D10007C2CDF95B90CC668B7F9FDFA03E64616C8
:101D2000B4B3460219F75060110CFE40FADBD698A6
:101D30000812FA98803BCB8594AE20F3B404F09857
:101D40009D802191717DB26608C6FD980C6DF6A646
:101D50002BD2D5A8E69DC8FDDFECCC6BD69808C683
:101D6000DBEBF912632ED2F240F99B7950FF65D874
:101D70000184DE98D34204BE23084D3911011113AA
:101D80006CFE9818ECF3CAF88F302C97C9988F180E
:101D9000F702086022AB5010CB4BEBBEEB32BB64BA
:101DA00008FB6FA3F25308BC98BDA5015EA5D283C2
:101DB00078D341D3D3E2C8B010DC0FE2C6D8F80420
:101DC0005DD717F7710360647A9808511B6636195E
:101DD000E9FFDE98BD08B3516103B3120172B3622B
:101DE00094D345B3BB08B977200AB3AE11DBFEF933
:101DF000776440037F8D98DD068F75B5DE4CD21079
:101E0000495F30FFFD960260200904EB2E387EDB2F
:101E10001704F5DE849CC8B320F8BF0528B2191E4C
:101E20005A92ACF60774B99A90048037BC5BB90833
:101E300036B3C0FEBF7FB51A31B3F319C426B86BF1
:101E40002445BE11DA6A37A04C7F8DF0F96AB35D84
:101E50009F7ED182D28EB5661602FE8C136004FF7F
:101E600099527210C6140E212002E598FEBF0A3066
:101E7000903151FF1AE2E007FFECC40379AF402430
:101E80006BD3F2C1C6D087190F73E568FAB308782F
:101E9000AAC7D7FF06F998B289C05B68F3F660FF5E
:101EA0006EDBB093B1B34469FA05C2E77982408131
:101EB000BD8C19FB6766C88003087E7F517B2FC7E6
:101EC00063765849BF9140BB285615FCDE980187C0
:101ED0002BFF604DDB0FD875FE7551A9198FA81621
:101EE00004D8F3687F2398549BF478FD6319C5BC2C
:101EF000A08F80199D46FD9850ECD30901AEB42EF9
:101F00007F4C3081F688DBEF2A6AFC98058BAA6645
:101F100016C7BAB7EEC0FD439A42FA4464F3C8024A
:101F2000AFDF8084AD62B8FCBA1903F24BF5B8019B
:101F3000841E98CBC0036E4F7798F02006E6C8E267
:101F4000CAF2E5EB1763A91EF5E501C9D36022715A
:101F5000731FB6EB5E0C962C3146D8494DCACA4663
:101F6000F3FC45D3117669C8044848500B953021DD
:101F7000FB7FFE5D588D8249E798F99A786BAF75C3
:101F8000C54E08E7804610F34320BF69E5339CA99E
:101F9000666C83B093ADFF20680C5AB95FD3BD2047
:101FA0006E106FA7AF9D8BB13658E79E62E05B095C
:101FB0002516611E2AF3B441E540C8B6BBAF8208BE
:101FC0000B8CB324EDB19873394120A724F626C2B7
:101FD0008459C8DE6011E5AED2173061FD32A8B376
:101FE000B1E0A5B621FC3005021BE80C84512F910D
:101FF000F610FB60080CFECC8F197BF70EC00302B5
:102000001FF298F3A55E7B308138100FD7F3F17A79
:10201000E2791E0F02ED4DAFF90E30116662843E7B
:10202000986F95D5A26D7CD3927D201A8FF3576F50
:10203000F96E17B077F788049098D346B3F8580430
:1020400091600A37817784C002830408DE7480B30C
:10205000A548B324C35DFC91612F2430103449504E
:1020600071B9427F80854084CA0241F3D2A0D6C2B2
:10207000C4FDF31D8546B88645FFE398B5606899B1
:10208000D620FB4A67096C43880325E53006FEA28B
:10209000B562D52F20CE74614002E6C649FF8EB3EB
:1020A00077DD4240882CB3497C19B806997123200A
:1020B000BD778109BF12D13401E98019CA5C7D7FE7
:1020C000FB329880026F0898C20E12CAC4C0B3C80F
:1020D000300324C0E30210044160E60C8089E692DC
:1020E000BB643C7BDD48026DC63011E7C878105EEA
:1020F0008BC53C90DAF1207A98E29B7D70F85719F5
:102100001884026C86611EAE15612539C6C2DE5E7A
:102110006BEB8BAB971912F68D01C25E2E3052D746
:1021200018C041F4B310836908330C14B30537E9C0
:10213000506A620990A25A2C9024F7981020027FCE
:10214000DC3737E6248446A898ED09AE2800429C87
:10215000DF6549B08526FFD97D7A0C04DB9B238897
:10216000F8FB172077D8CC47E298D3D3E1F61BCD04
:1021700060FDE340A11EF30973C6C8FBBC0444B76D
:10218000298970B3363C196AE09713BFF8507EC8AE
:102190000418975824F7F4A0FCBB04B917C018B46E
:1021A0006C66B116B765300816AF02539888C480C4
:1021B000051B1004C108244075E14C7D213004D07A
:1021C000FB7079CD9DF04640849E98B53CF59818FB
:1021D0007B98811C808048C6BCB019FC0FE4013C90
:1021E0001BF8B8308666A280C24F5A9830F998EF33
:1021F00039100806C27E75C8400CE2D8118F6616E9
:10220000B39F9E98612BB3A3207F8698EB16C028BE
:10221000F52454ED4B8130FC307E8DFA6892DE98C7
:10222000AE8931B7DF957FB3ED581009DF305C30F0
:10223000C602445E98EE212924DB2B6CB7C8F3ED6F
:102240001EF5E410B2460CDBC05E35D10D1344B36D
:10225000684743FFCCE04163CAB30C23C76E7F5E7F
:102260004424815DFC4CFBF0FABDFAE69A0289EF4A
:10227000D13208A0891B71F806A2D1660326210776
:102280008409A105E6669E21EA814C804208EED8C9
:10229000FD047B95C02818826F5998404B6602391F
:1022A00005B0D3104626014335A820E05EFE10C4D9
:1022B00002180919F3BB28A1535EFE4685F01EB82B
:1022C000C0C8EE320DD61A04AB66026266F59804F9
:1022D000FE980C5EE0413CBC98EE5A30197230D04A
:1022E000BC989655C0FD6465117AF0AAB350D8B376
:1022F000CCF49830DD46C0EA9801F5E5417E8EF9D0
:10230000BDC50149B398E86A31B214CC66D2115AFE
:10231000B34673301480E08401316242C1D640BDBF
:10232000F2800C8209FCCA6798FFB1B38FB7FFBC7B
:10233000FF79851D17E28568CE33F38CD16DD3808C
:10234000C010FF6090FFD889FE240166D1BAFDDE7F
:10235000794885EB7A40CCA4AF1CC9FF32FCB6EFBC
:1023600023B5A0BE8ECF3366FAF1CDDB898FD3DEE5
:102370003ED8FADCDEE39FCCB1686FF39ECFD33258
:10238000844977FFEBA3FB660F3ECC1376D3F8FFAF
:10239000D5AA10614E9918E2F3AB89FC53F860930B
:1023A000EDE598FF83A9B38FAC0A18362FB3B78534
:1023B00023B6F3FB42A8B0FDB8BACFFB556FB30B01
:1023C000B8CAC3635A5E59A1D00A198176FC844009
:1023D0002066D94EC67A29ED360220EB10806619A8
:1023E0000840E4C2280B0520DDC54CB39DBD27BDC8
:1023F0005081440335C30C9B355866661080D0D29B
:102400003BFAD6D4B1C7CE1FDFA130280216A0F701
:102410009910FC0A67EDA3853DF1B220DBF9D0FCF1
:1024200033CDD27ECCC26366D6C680EBA5FA38E443
:10243000C2A06B8CCFED2D38FD8C2310BBB1FB619E
:10244000C1C49E79D9D8FFFE7E61C2A99058B3223B
:102450002E65205866F93E727D08D7CD1A34F4CA2D
:10246000EF1460FC082CF73C5B1C0268070DF0FBC6
:102470008105BD9620089EED5E4B609C66729B18A0
:10248000C383BC7EEDAB28FEBEB7C2DF584E028FC1
:102490002C9CC02F591980FDB6B540CB76431963EB
:1024A000A30E8FA858BAFE5CBE633C10D888FF64A8
:1024B000BCDA04808D20F62093FBBD60048F1BE501
:1024C000B09873B30F4811542E98FED8A8C25F3F3E
:1024D000E9AC7AA5240191FD3E4CFF874970407E0E
:1024E00079ABAF36B648FC1AB6B51810CDAE4480FD
:1024F0001E684EB0D0B3CBE5C560C08B74B209582E
:1025000066618E9B61EDECBF9E109DB0F8B919100D
:102510006EF729C0598272F581B696E0B236F8ABF3
:102520004908DB668040282CC57E33F3D77FBB3358
:102530006194AD9F40EE84E4FF20DE30104709E651
:1025400047DFEEB860F3C4976609EDE703BFEB80A1
:102550000D05F1BF4670D2C2BC534102480FA12005
:1025600040FE5FD22BE5EE6F2398E36FB2C37CBDD4
:10257000CCFB3ABFA140319310F38434D606CE830E
:102580000AF12B8265DC0CA3C6191BFDCCE08BDEA7
:102590000420B93BDB9678FBC56FF11146F7FFF5D8
:1025A00066FEE010C5B882DD350271F73B6698F82B
:1025B0001053E90C3A27CFEEEE64F8BA6BC34ED94C
:1025C000B208BE9A3BB8B0FD0BF27DD1CF412C349E
:1025D000FF58CF8171D617FFE2B604EFF258F90C1D
:1025E0000230C3BD32205B5E70FA2DE3806197DB61
:1025F00084FEC9A0C2ED2EAFB1C78CD82EFC6623D5
:10260000B2400CA39465A8B019FBD69F424266FB6A
:10261000C2F5B4827C8C7B41BE9F3B8F5C2E5BA657
:10262000209D28FE8CF02FCE390240333777E40905
:1026300099E5BFCCB00694AECFFDCA80DD64677D5E
:10264000CC1B51FE9280C5FA1DC53714D8B1FF0FBF
:10265000B004DDFF886779986D88BA7C81C4CC6648
:102660009D59620C8BE5683919A064ACF40553CC14
:10267000495FDB4A58FB396602642C7C114DCD164C
:10268000647ED7B0CCFDECD09C66B23C3B48E0B158
:102690004135190792D36636E548FF723B20C43EA8
:1026A00048C5FDC2306698C4D21921C4D6B3A02E45
:1026B000B3B308F8CAE3BE17EA31FBFC19CDF7A49F
:1026C000849A15B00C8BBDDF80F8FD9AEEB3380C00
:1026D00067D36E1CD5CF799C19B234B843C2D5FFED
:1026E000CA9FFB7F201DF39875FF2CED51C002930C
:1026F000C6179FCC627EC5C7E001634BB30FD6FA05
:10270000F04FECF3B06BB6640110FE6BC0C959EE2C
:102710009BCB66B013ED2D0CB75852DAB3E0CEFC6C
:10272000CC840623F63112FF6B38F96346D17ED88C
:10273000FBE7F66DB8F831FBCC603FC598ED8DBB7B
:10274000B350F80437AC866F4C2273F66D6872B3E1
:1027500030C86CD08045FEEC64880569B1F8B1FBE7
:102760009E323016C70471ED8A6F7CF908631C3005
:10277000620BB3851B6CB3E8FC678D30CCC625F6C5
:1027800038B0FDC633E920647EB10AC6F49DDDC4CD
:10279000FE6339C82CA778FFC7779608018966C8F9
:1027A00012D5F809638B66FC12F3143D2B12611BE2
:1027B00066BAFF677D7F9297B1491EB1A9BED86402
:1027C000FA47ED989402AFD877D1B471CA8C9F665E
:1027D000F6BD14B6FF39FE32B3B021B7FB3098FE18
:1027E00037DBFC040676F3014047F26BA61DAB19FC
:1027F0000373D812E60958FCC2BCD8C802DBDA3031
:10280000F966F7DB30906CF3CB0340BC2F8C845B14
:10281000F6BDC0FC30B1FE8E5B30208B00BB1B6D63
:1028200066080157AAFB2CB3169EED5308469E2559
:1028300088013002D5C2426AF8B11035B323ABB378
:1028400070FB721907C84B613CF357C70FE041ECAE
:102850003C100221FED3C003D819FE5930065C306B
:10286000B6064B668066093CE5D9B36880FECC1697
:10287000B32651B3849B03B650DD2BFA8D7230051D
:10288000D9F240611B5ED4FC621C3061B0FFB1869E
:10289000CE0A30DBEC0B2376B249FA0835CD308016
:1028A00008854D1962F89DA6EB4B6651B06E0CB0D1
:1028B0000189B3EAB1FEAE4B303C6337CC98736B01
:1028C000E3ACB1638830F3C2A61923FFC6B8305B0E
:1028D000F300956113B320F966FAEF80CBE3570B51
:1028E0001BFF48FF048F019888B3FE5623085B67DF
:1028F00080026AF56117D7326C64045FD698202095
:10290000D1B106B6B3F8FBF5C2C0BB6F3009647E27
:102910007F09C44CA86FB70FFDB6F9F040FE98646C
:10292000E6F941C2DFF7CCF0FB0898669FACE50101
:102930002D60B3B0FA30484BB3B8B333BDCF0412F7
:1029400080BE98A4E9B39FEB34F83FCC984D661451
:102950006AF8B10ACED964F9BF0B59C86142190CA3
:10296000CC60F170FD317C96C8B37F6CE9086DA432
:102970009A6CB3DA1808BB660A16027EB7E1FEB697
:102980001801C4DB75B02033EDE8BF7F1E6465C855
:10299000B2E4608DFC5BF390031359663C8DF12823
:1029A000F8B1669F97C89A94EFE3D802626B6630DD
:1029B00031F111B3F94BB32CC847F60408DEC763F5
:1029C0006DB3C8FC8EF9B7853B495D179920CF8060
:1029D0002335D240FBEF0138F3CEFD32288DB0D342
:1029E00080FE18243BFF98FF241A33938CD1713951
:1029F000FAB1F97D59D508BC3967E5C09EE0DB50D6
:102A0000F81A808BA0FF539317FB6E247313C066D4
:102A1000B63F668F3032510C3783791EE3D637FDCF
:102A20001569FC20823FD7CCD97FDC886486C767D4
:102A300098B5E3FF38FF6366E166AC178074D8BAD7
:102A400017C3A5FF0499EB98FB04BF314B6FBF641C
:102A5000CCDB6CC4CF58E0B8D76CB1012DFD7FA89A
:102A60008EF1CA88A3B180B0ABF6328032B31F08B2
:102A700004DA0181FEF104C9FBE6DB3B40FF19FDEE
:102A8000F6059EE59860ECA01636BFFBDA08286DC7
:102A9000DEBAB310B649C2C51722AF648508FE5628
:102AA0007238FFC167CCE57CFF5172668B7D25D9FA
:102AB000C863FEE2B01093BBB190FE094C6F225880
:102AC000DB1835FECC40DBEC3A23D31537ACC6BD62
:102AD000D94F409E8263EB19FB1EE35C0A571990A5
:102AE00098194B962A3CA1D8B0F9FE4B07BB7F3111
:102AF000D9EE30CAB72F2EFB78166CA3B8FC1BBBDF
:102B0000B1106DF6233AD8D9D8FACB4E081731B4A4
:102B1000F6FF54FAC19C19C1FCB3C0FD59B3801E25
:102B2000D7B00489B350672CB32034E3CF4D580B92
:102B3000FFC7AC5EA02F5818FD87188F6EFFB0DC62
:102B40008FF67F0112AC54FC69BE04672C55206DD2
:102B50003AB8DAFA0AADDB80FECBCF58DB404A192F
:102B6000D868FA6798D640ED4F665A8482AE8FCC0B
:102B7000FE7F06029666836B6640584A180532F758
:102B8000CD4BCF54DD34641AECADF320FFCC10DB19
:102B900020010C26EB01D1F310C00D66B2509E55FA
:102BA0007A9708F177D7B4185AED41B6C6E8FD33E5
:102BB000F63F3FBB850433DB2358FA125ED802820E
:102BC00079DB9E66B5102518B580B90BE366E5FD87
:102BD0006126EC6B082258DB4CEE7B2E88042055D6
:102BE0002F28B76C4E04FFB625CEA738FDC73AB2E2
:102BF000DD4802610B66E8F96190300629CDA51029
:102C0000FF8FACC2012858A7FEB9E5861DADB0D82C
:102C10008B96CA20136E49FDC756DF10A96C08AD0C
:102C200063FB84D848FCC6ECEC4014F56210612FBD
:102C3000F61610FE09DA15A58084028D6A6C20D87C
:102C400085C73D95B0B3FDD65406ADA809048BFAEF
:102C5000DC02D49DBA15F5EE08B759FEFDD3B106D6
:102C6000EFD8DE02B24550F5190193DDB18007B10E
:102C7000F689B4B20C88D3B418354BEE03C0808FFC
:102C80006359B3FEDD1763AB6630CC2653FBBCA0A3
:102C9000F8CC2685C7B0BF36AE0C0129CC2606017C
:102CA000B466FC8731DCF816F7B503ED40E0DE4B87
:102CB0004626EDFF3CA0B2BC0F03133919D30268BE
:102CC000C4CD0124F304361903198B5DF043662447
:102CD00039C8310F431972D3FD9520A2F383D7BBB6
:102CE000D4F8FF1758B3449AB2B040196C195A3A45
:102CF000B406FDA20AEDEF78FF887F07102869C6A9
:102D00003831DBAF02344399E92044FCD9BCFBFEE7
:102D1000CD624B180C6F317C7D933E59FD20B3FE84
:102D2000F6498CEBA37A2DF40446E27F9B98E47677
:102D30005DF9049BE698ED6D40018BF67640CC3F43
:102D400002299B90B2672BB3B0ED1516ED4C2BAB5F
:102D50006F166F23985E62EC4D1C51FA3A9DFCCCC5
:102D60003C20B4B058190BA1B4BF9298FF24D9AB42
:102D7000105E8B5EF6676A62308D66BE8BC516FF8D
:102D80000621FC536040CD9C81F9A371CA9EB3BD5E
:102D900044F62C64AD190A57F80591B3219FDD6400
:102DA000C0117A98FCC5FC98F3D21AE330D7190207
:102DB0008FEEFAA021045DFE631E9864AC6622C308
:102DC000913D941069CB39FC17F6980204C4397A06
:102DD0000967723001FE5230106381FE31306F514D
:102DE0009841F79C7337C434789846C66FAAF76841
:102DF00051ED04F19C66CB301296C82B476CF34022
:102E000043A264D9465E98BFC69930010CD2F61130
:102E10003122987F97989B48F2303CCEED5902952D
:102E2000C530F40FF3771230A36098D3E8FF0C5F3E
:102E3000D49808F367ABB3308C7D8FB57FE53060F5
:102E4000A7EC7F8849B3286EF3623BE3B2027D981A
:102E5000206BCA3060ECB121ED8E68FEFDC022B55A
:102E6000010D92886FCB30023794CA0595A306E90D
:102E70002FC28A7703080C7B8B10CC6475FE9FCA27
:102E8000DB043185AEB7B1FDFF03AFD9253F32DAA0
:102E90000201AC7CA08FB346FAB1B2B2FEB227D623
:102EA0007E03AB0CF923F63223CD961014B71B30FA
:102EB000FA9812DDDA3401BF9B988DF7B322CD6604
:102EC00012DA91EB4B8A4FCB9F06DE466F8C02BC29
:102ED00098CF1A06651037665EEFC61FAE4125E52E
:102EE0002FBAB7D7CC9BD27A9870DF96303CCB7D87
:102EF0005474110C91ED9B995C235EB5B938F41CA8
:102F0000ED0888FDD69B838666FB6BA30C6623AD1C
:102F1000B8FDE510B1060FDA72602CE683DFBFCC96
:102F2000D69810861929E798F1309AB3DC200A1355
:102F30002EE9F34B2D82026DDD7781281ADFAD6E0D
:102F40008656DD039DE0B782FB32F830BF0A0D8163
:102F500020840280CDEB1713F3A53F560D1079CBDB
:102F6000751676B1F8CCFB1AF263DFD6A408BFCC95
:102F70006E5E0579981926C332630F73F648FFB663
:102F800004EBE75FB7032D888C78CFCA7BF598A058
:102F90001CDE9C65F98FCE661258FDDDCF0BB502A5
:102FA000F598C0E3F74B80C505B16AE2DB42029CAD
:102FB0007766119197BB80D6F3110C8045B2B0B102
:102FC000FD0F5A98F03E5B07E2013C20DF8D84CE76
:102FD0007D59730E1E98A204C6FF220E6001EC0CF0
:102FE00008A88CD9C803BC30EC0484014FC0E5327A
:102FF0004D667930404C9C01200C68F9062CB3D802
:103000004C809BB30A06678CB3C60AD7B3912CFADF
:10301000FDDF6CEC2421AE4B3082215EB70BED62FC
:10302000809F97BAE7C82010F6050624FA4E6CF088
:10303000209F58BD01BF19308418DB6ECAB7081B2A
:10304000198E18C760E8B0402D1679308067AE66DB
:10305000080A26CBF298FD7F400FDEC5F0FB08661C
:103060007A9830DFA5B1E12D2C0856F4044A760198
:10307000C9E3CA45C668C37BE9DB2D66FD9862B922
:103080002466090CBF71CB8B96CAB07820DDED2089
:10309000DB17012FDA980302D7FC4980405B966F5B
:1030A000EB98787E2330F3F830CFF3985E6C1D1EDA
:1030B00004AF3F9837C8E076FBF8DD3F03B2607994
:1030C000300369CB30802FEDFC4CE0439B7D6110D9
:1030D000D20FEB19CD57B30A0B30C38CB327E430B2
:1030E00020ACC6FBC8100578FD548502B783F39861
:1030F0004FE6598108F312DC19C53D9880DA44C2C5
:103100007998FC30B2F8B22ED7CC98ACDA0105AC85
:10311000CB0257DD9802C040EBD70C9BFA58F9520E
:10312000435A0B197998B774AE0A04F367AC190CBB
:10313000CF6D9804F23D980FD78001ED7BF9FD9893
:103140000B66FA98018DF3966F14A9F809C276D927
:10315000D70D5846C0FE98774E173AD2FAD3D1E829
:1031600018FB020B60FC9801F311DEC50648B3F5AD
:1031700008621E98B208FE7F57CD643763B4E3B38C
:103180001101DAC87A98F0171EC003BF79D4B808C5
:10319000F37FB2980702F3CF33B4FD983169EF980B
:1031A0000EE0010CF71088FA049D66CB6A6027894F
:1031B0007DB3041CB7F33166DF5F9820FD7FD1FF3C
:1031C000A019DA9C08FA9809D9B34C77D8CCF7B78C
:1031D000981601FA980443B3F79008D0FE1D53D116
:1031E0003811EB93E298F3FF3398CBB3D698108B5A
:1031F000B401FD98026BCF30A0010422D998FDBE26
:10320000A46FC630279BE0017F1798F6AD26028E8B
:10321000CAF6E5E8FBBCC5D5DE1A657A9818BA1778
:10322000C8F59822B99578988AC7EFDEF60F57A5AA
:1032300002D3807230E097B358F23040E59F039D8F
:10324000EA980833F34550ED793697E798A0FA608D
:1032500020191D12C0F9DC5D7AB3A0FF0498809696
:1032600027A6620228191EC8C96FC23F68FD64AF55
:1032700044584980EFFF2232E753F30C908020D767
:10328000F8FD8BC5107E3730F79878200770F3363D
:103290008DBB9003B066AFD3E9F91EC4F0097F9EE1
:1032A00098C6A61863400C57198898E38F3219FD09
:1032B00098607FAD98807B17D8B7023966BD182D0E
:1032C000E07B1306B601F25EFD9F30041969CD0460
:1032D000A368EAB32214B3EFB3BB4CB6C404A66E22
:1032E000A4B3A03BC04002CFB35EE546E2DF60116D
:1032F000F926E8196619FFBC406571308FBBFFBC29
:10330000FD20FC781BF7E3016CF3479299F3DE8212
:10331000B6283CD3E0CD03F348B2FEB262C3D6FF79
:10332000D8FBC6CC93E5D1208DB6D3A3FC9CB56F5A
:10333000F6E9A2BEDEF3F31F5973045B37DCA1F894
:10334000CF6CB5B70131F353B5D6ED10ABC3203F09
:10335000F154FB1C7365FECC80CCD3CB3C17038DA2
:103360002496B180C539E98F2B666089FACC246F29
:10337000D3D8FF335FFF3348652818408AC22FEC4B
:10338000BD40F829FD05808EB6E090FF2C9A67EECF
:10339000D108CF3C0CA1CA584BFB7BEB570125F45D
:1033A00088B6FEF3D20FC7FF63B8F9661B9C982B53
:1033B00081F3BFA86140C8DF8CFFA66540FCCC311B
:1033C000D7DFD19880DE9FE402AD5B3515724EFAEF
:1033D000C2D735040801B381B96A816A29DB15F9BE
:1033E0001B1DAC93A067D0B160310CA0ED147FE938
:1033F000046AC638090320CE2C30B0C8ADFF0431B2
:103400009684369810BFEEB544475C409B11AA10D5
:10341000BE32C118FFC314B308E1780120B33AA447
:103420005AEF3010F4F91843E0E458C76CB1029E2B
:10343000ECD3F0FC7444D86FC2354AFF93E6CD3329
:10344000B7F398F8F38BC8FD018243FF98FF63FE42
:10345000586E8463FC2BD8A8FC31186665BBCC1869
:103460000856B30213986623FD7F736510FB60D383
:10347000FBCC045FD8370245ED4670FA8E184554F0
:10348000675F7F61F699B87AAF60EBE6981FADB3DE
:1034900080B487C22F6C8538FBFEDE8F01BC96108E
:1034A000F82BF62031ED2568FBB1F49E72B001A730
:1034B000CD505619FC78E7B56B5EA104F2678B70AE
:1034C000E0113FB33B6888FA732671C9F16CDE15D1
:1034D0008FF986BA412083E658F9141EE55F3F67ED
:1034E000AC3908D532108DF7F68018775AFE99B9A5
:1034F000BEBAB022A7891FAC043D729CFF12AFACCC
:1035000098807FC5B48CE6C962D840DC9F7673C8CA
:10351000FA6A2E108DE00C575129106879B7811185
:10352000BCF4F70121BBAB10FCF8D8EDA001B280D0
:10353000F019FE29E5EB800D10CFE25B6431B64057
:10354000253EE5ED705051E91568CB9CE0C6500A68
:10355000FEFF2826050825789166286F1111AED444
:10356000920F044C0F829186676D6503CDBBF51AEF
:103570000329B5F92C03780272F71084FBD17F4040
:10358000420812131425EC0090F96BACDDE3B32C68
:10359000E4E35C37B617F9EBED01C9D46F4079F776
:1035A0007D6189F2BB10D8F7F3FBC012175DB095AF
:1035B00018FA18DFAC7810957401B9EB8A7B930484
:1035C0001CB6FB313D45B804B75B0A970AD87D8924
:1035D0004FED5CF8FF9A942CD52158FF40A3B01012
:1035E000FE66A575084B9FE6123FCB222052AF31F5
:1035F00066D5D101B1858FB652D0FF21DB93300C57
:10360000B8CEB8D85BC76D9684223AD1C6B5B001A2
:10361000611736300140AB86201FCE6E48FCC137A3
:1036200066E38508C9FD9D089DE5DED659AB7F0898
:103630001EFBC80EF649CEE34121B3026127D97EB5
:10364000FB896C3908DB19FE8BEC12711FF4E4A2C4
:103650000812BD4882AC41AA066C72BB4197F406C1
:103660006EB3083D013DF31410A8FA8A2C7403656B
:103670002A046AA8476CABA5106FF5CE4458FDD953
:10368000DEC068F8B60C1957E460F36713B8ED8034
:10369000077FE8F018DC68F308B329867A9E3C6C53
:1036A000E2FF53F7CE8A18848FADA688BEBF1540BF
:1036B0007EE9B4F66604420E1180F3956FCBCC58C8
:1036C000A0D7B0B096F2E73724FB0930B308FB7EF1
:1036D00030EF11260157B3143E74300A40C288619E
:1036E000F80B3988A80EB0D9191EBFD0E5D953FF01
:1036F0004EE9C081189740B33C4BB55BC138804F51
:103700004A10788319D3F3F063E6C08318F3089660
:103710008250C466F065771A010279799CB333C38D
:1037200030C3047A2D10DDD308D60340D613B66813
:10373000F8F928B39411E0DA6228B33116469F7580
:10374000D20124190970F7829A7AA320014D0C90B6
:10375000AEFC887E7FD0936C03B6098A21CFF23805
:10376000CEF786C0DCD3BC98EF2F9962E80C29C74E
:1037700004EC10F4F843F64EC07F9B98FADC065A2E
:10378000001926DDFF59924BC7FC639B30B307102D
:103790002008623D829704A999ACDE3CEB100C60D6
:1037A0003D6688FC049E197BB36804C62002621C37
:1037B000E8A528C704BF02B8E5221001C604EEBB85
:1037C00084BBFEC3FE54B318B2F28745F22180D801
:1037D000010983B38930D70224AD450454F1089020
:1037E00087580BFF41024C8409A820296C19B21E8E
:1037F00075FC4038638018190760F8623E98EDA0A8
:103800000704D2D30C8F73661CC07640E70FE041EB
:103810009B90FDB5083366507D60230496B327E680
:103820009840D394F31FF3838320F00C8401283154
:103830002BFD5898B30E60084C8C14F4B321D2C001
:10384000A6D305D9191672C6131E012C7D999010A6
:1038500048F9AFACA5029EA080F48BF6CB2223EBF7
:103860009889B6DF2D020A99BF50B388D46F4508F6
:103870000182CF81245B10C8F86DF63F48B377FB17
:1038800098088005889F19E6F429A6F3DC30B22059
:10389000BD98F04ACB8358096491B3723022DF6639
:1038A000419005F143F0D70C42AB98A0EF7F33F283
:1038B000092E1A1036675023F4CC878F1048B208AF
:1038C0007AB12708110C0B24204DBCC2FAA9E99348
:1038D000FB7FA0FD0D14C64002622FB3B02006018D
:1038E000D04058BCAE76EE170114CFDE126042F81D
:1038F0004C9021A820D6FF9F1CD9201E0A1890FAB0
:10390000BC60190F60312F3B98D4E216F52BE09C78
:1039100030A003010F06C8807026F3E6241D58B7B7
:1039200059FE8566ED98100C1806A7023064F998C8
:10393000CBC682B4E5BD98D9B5FEEB9B24B3E42297
:1039400023D7D90CD969FCAFCF053169D0081878D5
:103950009810E434D48366201D761A88BD98B05F31
:10396000CC67FD7F3EF44308814122C47372112D60
:10397000D594D22066B882D2EE1530F9CB304811FA
:10398000E130916C2B620219ED8D19CD8C348F1BB7
:1039900066D3A0FFCFE130EC77A89858EDC47C4AFD
:1039A000BC982FE140046DC2A4F397FAC8105416D6
:1039B000B1F11CDFC840ED980A8019DDEC66040106
:1039C0000A16E341CEA82E91AD0ACB1C02EFBD989A
:1039D000AA6DFB7F5833F332139624D8024583B384
:1039E00031303BCAC204D4D38CB2DC1126AAAE0358
:1039F000FE5E8051A820A0F9D7EC1CDF7698807875
:103A00001027E0981DE1985ED3B50FE73006C48318
:103A1000951833E29864F166C3B3207C9802F6C52A
:103A20000281C405B2B617C39B98EA9B02D74E82A7
:103A3000F698A9FFD1B30866FB98836008D889047B
:103A40008E92FCB3D0051AABB304115FA989480864
:103A50005F5519FE98159FC430F4AD40ECE3202863
:103A6000C3B77EA524CE427F360122033086B442FE
:103A7000F198125AAA1B50FE629E98D8036089E8FA
:103A8000B7DB3CA65830B601D4CEFCB4C8511920DF
:103A9000DD99D96470B0623E4BE4C0810CD7E1BDC2
:103AA0001CC812E043BF720778E9BFF6DD9890F9B1
:103AB0000CE519E6E56760FF68234610EFB108B42E
:103AC000105C3CA7821A24208402356BEF018B30F6
:103AD0008132D304D22AFF09AF19308366E681D838
:103AE0008C808FA798119512C0039808F983600203
:103AF00040808AD0090584CFCF60E78441A8F620B2
:103B000058F808BC300599E598CB30623CB47E3358
:103B1000403C8005F21F06C00386182EE201FFAF6D
:103B20000FF522781003E39859FCB41833404F6620
:103B3000CD9E818973300802598B2BC3C4C573A7EE
:103B4000EF66180880DF6020E1985AF5649DEA98D6
:103B50008816B37C7BB3A08559C877BC98036801ED
:103B6000048AC0D3D6AE0BBC30DED8FCDBD95022E1
:103B7000BE98CFA00853281001623EE4ED90C41017
:103B800038CEB8CF5CB0871320029282F5FF6CE884
:103B9000F8478546DE8B1FFFD67459E02D9010D66E
:103BA000BDFD86416F1730D7F69998DFCC7F4A4E1E
:103BB000B3F19848BF70FBE38805F7D3195DF95E50
:103BC00098DAA8F80B44193BE5CC1C89652E7BD20A
:103BD000264209A78898BBDD022201E3AB5F207F64
:103BE0009B9866C805CB476602CB104C2C1171B26E
:103BF000B04086B50498BAA621688C3006CABDE1EB
:103C000060C2018C5E9896B86627E0981DE69871B0
:103C100065AF7BBEF02006FEF95A337898FAD3726E
:103C2000200EE4F59868AE582E872E3010FB923D9A
:103C300067815C7D429628BCA54DB7F305EB1B62FE
:103C40004CECC891F953CB98E06EEC810843CB98CB
:103C50007EE317C4401ABB44024DE2340A7E959AB3
:103C600005217D68DC30C548FE7F2BF204ED71F440
:103C700059FC83C841B1281EAF1768A54418DF9FBF
:103C80008141802104817684838E080D41DE98B6BF
:103C9000B8DB493B8E30332CFECCDF6FC5564C82EF
:103CA0005A3272202289FCD3D8B5FFD2D75F6F0178
:103CB000D76EFDCC743796F6ED23F57FB2AE16BF06
:103CC0007F7076EB9128C598C6EA4E44F79840FC81
:103CD0000C6DBB49082B35C803C45B7B67BFB2883A
:103CE0003001124480D70810B7984020F998E25666
:103CF000B2EF5798B01A307F32011319A79BDB7EC1
:103D0000328CBA93CF40FF48CD11C6C4497BA5423F
:103D100088F48405100866A75884112088C445A833
:103D2000ED68FF0873C8C468D2B63CC8C81B0F60F2
:103D30003FAB5C3EE23C8003F05DD3EF9807E0814F
:103D40002C5E985B3C5DB17F0030B5FAF3EC51F925
:103D5000A96F94C800627C30AF042198E017EF800F
:103D60008110E13017BB42F372287AFD01B2B30B28
:103D7000D0198D4B5BB30148117FB33102A2C02231
:103D80001809E3006820C2A4E8340402C64DA9045F
:103D900080DE98EF20FA00F2EAF6980801D3453762
:103DA000E87EAD107BDF4D222012FDCA8666C80278
:103DB000BE5F83C877348044FF5A092491411B3B7E
:103DC0001040FB6F1672B7FF321D17F398BCCE720E
:103DD000C80803CE8DBA32C8E3A8F57CC8DEFA6005
:103DE00023775F44E555D7E8F2CA11ECD855209601
:103DF00053C8BD0680AF0395D6F3A6A29B1D6B9654
:103E0000C89CCAE3D004426D08028F66C8DF0B214C
:103E1000F436F3486511282951A27450F303204069
:103E200001DC34C200227BD04180A628DC48FB693B
:103E3000A3028E28D298046F8CB9F701D306A4CAC6
:103E40001160FE80400485301202D822DBF57FB27B
:103E5000AC182408134B12C20C842EF909660B0708
:103E600011488582A8F720B0FDE022D8F02F9A0FE4
:103E7000FF0FF798A007B07F8C980C6096F3E9A627
:103E800066ABAB68B930F2031EC801DE787E9C3F9A
:103E90000CAF194E8B4119B0FEFDDAB0C07998A76E
:103EA000DBEF7B980201DA1080ADB3505DB388017F
:103EB00031B71030B697666AFD9574069C59172085
:103EC000FABFED9EFE18052001D4B3EE50D38AD37D
:103ED000ED6911050DB3FB5AA09C11E086D00A587C
:103EE0007493410CA0E24EE04810030E1120BE482E
:103EF0000608FB2D008D19FFA7B3FCC4A593CC4089
:103F0000C7F3FD1290BFDD44FAC0101DE77871635E
:103F10009CF36224A24846B551A8BBD370FA018233
:103F200043FF98FFB02CA866C71B39E3F87FB0EABF
:103F30009082BC38CC2FD256C9429CFA0BC079FF74
:103F400046A0BA5E46D53AA779E01E73D379469764
:103F5000FD40F818FFB76511DEA4B14489F5189942
:103F6000F68AE3E6F3CB88F8D4E2C25F80CCCFFBDD
:103F7000CC7F81B238B3FCCD2BCF4733B4D6654468
:103F8000E6D97BFFE8FF6157DE04666309E238B3D8
:103F900061C2FF24CD6CF0D8FD11BD4E015CF9B0BB
:103FA000FEB0CDD7B6B3084A0E08DB9D110408FC5D
:103FB00086267BFF4EB3507E7FC31519109FC2A784
:103FC000EDFD6F7DD8FE345D33507E500540893D58
:103FD000B608028120925B5A3A9104CBC40130E6C4
:103FE00098FF1BAB4C08661D9805169002D18E20D9
:103FF000D90501EAB403D6D53480E51F0ACAF18594
:104000007F6806106A286059495A81D948FEDD87C1
:104010006AFC3E6AA0010964C418B34404EFEB6D66
:10402000F2F369FF22FC973FA81B64882010E50487
:10403000F0FC7998196187E97404CA01BB803B7B65
:10404000F90214E2E44BA682E011F5E6089ECF5C8B
:104050008169DD24B4F9891890EA5D81F3E1106C7F
:104060007A28FE2FF54C0C8BB6E290FB16FA9B04D7
:10407000F3AF33B61040DAFC2CB33F37FF57A51827
:1040800018CAFFD8CA4CDDD8B8FFFF597BE7EEEE5F
:10409000318059F5EDE1A0FE85AB2F08146E1C129E
:1040A00001FECCFC0AC29D3716EB297EB64AD584A8
:1040B00005E6F57166867CBB5D1261F9B39DCDF8AE
:1040C00088FF9C20B00885BA18627A6302B8C107DD
:1040D0005DFC108240AFD976BD64617798A5B7AC1E
:1040E0009880AFCC2D013904B0F1B5985C61865B46
:1040F0007BF9458872CAFCDFCCBF2CE8780CFEBF88
:10410000178CCA121BFF98FF17F1CA8F1D85ADB31C
:10411000C8FA8B36E6400277988CFF6D8A50566657
:10412000207FDFEB961015FF6380586DE598E6F76A
:10413000727E011B14FD6A018B671CD8F86711D9C8
:1041400068FA9562A703AFDA14EB88637CD48D30EC
:10415000FCD848FA7FF33C9F01B48A6C35D0FE2E20
:10416000EB773B95EF209E1D1050023B9A66FB10AB
:1041700031F0239182CA31BDBF95963A80BD837FCD
:1041800079FEFB0801F540B16F8838BDBFEEEB69E1
:104190008120E580AF8DF6F908EC9276AED28FF5EE
:1041A000CE1430FF81CAA7C0025006724C0588DFCA
:1041B000F360AB3A7B0108451D3DBB0549E281D464
:1041C0005FDC03040C8C286EBD246481216AC98BDA
:1041D00086D897FEC38A30E0480A0C9AF708FBF1AC
:1041E00042E0F60A4402207F7379C023DEE02EC04D
:1041F000F530A6FEA54CDE1202FCF3118C8205B050
:104200002DE8FA9DE4E5A3790F181989228A8C0A12
:1042100059429BAE19F97FB8A802DBCB50F4CC0809
:10422000AF6205B3E27FDFCCD1B4B77E53B5F3986C
:10423000FB66FE5980C7F87FDD42046FDB9020C02B
:10424000AF7660FB022DD23C93C5F91C406776A582
:1042500008F69848FCC4F8F8FFB014BB3D1480B0D1
:10426000FD828ED9E3E4FF1C62EB64206326377B7A
:104270000DF0F9176CCF0281634C1657B695FC18F8
:10428000E58BA9719FFD4AF8FA857BB27FEC420469
:104290005BDD3650FE02B9D88F18B7FEB6F588FC44
:1042A0003C7867FDCD9EED6ED8B3A8F6E3CDEBA1CB
:1042B0003FD752107933E1F6597F354A5328E37DD1
:1042C0002FD62A2439BA5E8040B212AE0A37D7639D
:1042D0005A1008B63B0A967D8027FB52011FDB4629
:1042E00075C660A0761625E698176436B5BAD5155A
:1042F000FDCDF7060288B6B3030413ADB3781EF9FB
:1043000058F92028C5567541142D66681EF990FA93
:1043100080498866F6CFED95808B7FCBC018642CE2
:10432000F4C6A719B0FE6067FE7F30D1F00F62CBF4
:1043300078F027F77F07ADF9701BF238F817404483
:104340000C62C6662DFD7F98F979FC9A192F676C6F
:104350001F4C022259B3012EB368FA30C2DF3398E2
:10436000168802566C1AD4BD3115F50D069FD60E6F
:10437000538D40FC7F9898927A03CAEB562FEC1825
:10438000FFDA7F18FB4BFF2CB1285E59D240E69E26
:104390003D9F6B23FE840962BE98B04C890005697D
:1043A000F6329F99F649FF68407FAC982028EDB11E
:1043B0000495DCB1A0FDB010E9FF05657B98E3FA38
:1043C000621E98DAC0887E6402C25DB7406CB38812
:1043D000FB479B3008011BC8CE0C5B9B30D8F90E05
:1043E000C81A29CA5F66F8E698156DFA9FF6CCFFE1
:1043F0007FE348FE28B3D6188816E90CBF3B7DFB47
:10440000804539668062FEEC5C1C635F32D808FB35
:104410008F2C30205DB3E0B1813F5A9870FAF9FBE0
:10442000C45679401AB56648F8F66F147C7FB1B36C
:10443000AFFBCC28FEA0013FC398B08B963008217B
:10444000DC1730FEB093FFCD98D0A0FF19BC306EC2
:1044500090B103B5BB18AFD9CC4DEC48FBE627773C
:10446000D85D4DC030197D40CBE9FFB63FD79822CB
:10447000B6F92C0837DBF40C107666E1F92021C080
:1044800030184219B1781DEC38F0FF35FD7F608897
:10449000FFCC0AFA2CB3E119566FC6303EB3B20214
:1044A000CF2DCEC84602CDE3301BCB2E7EB3DBFB37
:1044B00077F96319D4B002BBD49820195A02118835
:1044C000FE7F0FC652BDC0FDC47FCCE8E6FA0C48A3
:1044D000B340C4B9300D0185DE98F6D2FC84017E6C
:1044E0006C574820FD7F0B893B6698FD28B8F4C2C5
:1044F000EF6F98C00333965179F8EF1830EDB9FF9C
:1045000003624C66F1F9B369F94B286142B302CBFF
:10451000CDF7FF88E6C818C77830CFCDC868A3F9B3
:1045200038F9623E6F61B677C8C8F8F998892CB23D
:10453000032259B4055AAFF388F90844B30661DF82
:104540001B30AF19B1DD49468936D88C08129B66FD
:10455000AF1919FE7F0704CBF3981A31199CADC827
:104560002315F116D3150B9B66AAF9CC19CFD8E108
:1045700082CF58B1D640C8B1FC1F589808F7AC9804
:1045800002DF5A9808E67BFCC456D4201AE7C8A874
:10459000FC2C19EED817F05FEB98185EFE17F9089F
:1045A000100180A0CB40DF5061AE76C818F821EB37
:1045B00098C045DE8C8C2CBD58EFDE3211F9EE90A0
:1045C000F820E030ECB51920A1198C73671E106239
:1045D0007E98D960FEE2CD66C7FF7F18629E98BFC5
:1045E000F0A5B19F99A6D23DEB981814F69840FD1E
:1045F000E5191099E198D8DFAE988036C959F404CE
:104600005D17DAE8FC98056AFFB202B930E85F325C
:10461000678B7A8419C92ED062FC30DC58FC08669E
:104620000B195838B3DDDF08637C30AE98B1175FE3
:104630005B600C99D38B451617CDC88879989F96E7
:10464000C89EE5DB0F028D5B6602B9667103F9C88F
:1046500065F6B110D7E032B16D5BAE0CFD52759EC0
:10466000B9B371038BE7C880FB726982CCFB9D45AF
:10467000C64CB7997F461172B304CBEC9AFFB15E7A
:1046800073FF34B3C7DCFFE8FB20D7CF80F45202BE
:10469000403CB3018CF3E3D11C60D398FF30481B3E
:1046A000FFB32C048666F2F9C2FEBCB6CF59BE7BBE
:1046B0001EB502F54B0819E280935EF3797989AF54
:1046C000B51035C45E4612A8BD20F380C0F8186D41
:1046D000F64C76988DEE9BC09B59F3BBD9FE604A91
:1046E000FD328241B381FAB3B010D9B3886618B3F2
:1046F0005DA6A2667D9EF8F98040DA9C608660E047
:1047000058F93068018073CFD5DB508996D0ECA67C
:10471000A0458E0A7BCB38F92C55537D4A020801FF
:104720008D2C2508BEEE8510C06CF0B8F910D61F90
:104730000889A6FF7762DC95611ED9554D41ACFA18
:10474000A9F782135F88FE661AA318516BEB988055
:10475000037BB66401DFCC67E69D20C366ADB8FD80
:1047600003F4BEC10D60B060F7F6CC35AD62D8FB86
:1047700087461E7FD8CCC758905EB3D854FB8E6C4A
:10478000A421356C66A8FC080FB07F3F56B3202DDE
:10479000CB40010BD5B338D6177E98AFEACC10C505
:1047A000BD7A50D8FE02667BB1803366026BCC982E
:1047B000F54C1086DF7EB018BD6680729B44C4FF46
:1047C0007FC0DCFB127C608790293AB9FC806CC802
:1047D000020147D6E5043CC467EBCA48FA9E20CAEA
:1047E00080018497B20629F003F910D02030662B9F
:1047F0000117591702A697CD0CB8FCDFFAB284FF57
:1048000090807800B1CE76B202A24474623FE3DBBE
:1048100018FD982320F9E5DB96625FCCB120AD311D
:10482000005FF6ABE8FB1021FBB1400D7BAAA4654D
:10483000F9988F65278EAC52B8099DB0E349CE7BBD
:10484000FCF9C1311940621F8561ABB3F8F960C949
:10485000FB7F030C0CB317F7490261B2B3FDC13003
:1048600066B6E4D3637300151012F3EF5AB9A04192
:10487000F14020083419DF18E08404860B08B99A47
:10488000F580DE01103DCE5208D32049EDE56530BC
:10489000FFB8BE4BAAC573F3F9EA4162BCD322D874
:1048A00033B7E60C2777FB28FB9760F77AA606E577
:1048B000B903E3F3D3087ECD3485119CB727EDE728
:1048C000063237C0042DE06076EDF37F9BF358FA93
:1048D0006D14C191517F3D5BC0084044EBF3111052
:1048E000D47C50DAC6448B702446ED904897F34050
:1048F0003F5468FC8045300A3FC04018041360FAFA
:10490000208C80113000AF09F38B620C4BDC063930
:104910006610F8010940C028A97602EF4C88217F73
:10492000EC58202361448C82BB495CFCE0013CC50F
:10493000F9F0F01EC083783E0FE4413C08F7F30322
:104940007810F60FE8013D73676001F21C8007F2F2
:10495000E05036E0B8C6EDF0D31B07E0987BFF804F
:104960005430262F06FBCF47F320180869FBC230CE
:1049700038B3FFC9E1C2D38E79D3A10FA8C6139F64
:10498000FE6220B30B33DDF32120119CB3F7853099
:10499000120619E026B38A868103F3FEBF1053BDC9
:1049A000805C108208BF0C015F5033F240FC8448E9
:1049B000F3052CDC9C20DD048688F4BCA0E1B46CFB
:1049C00072C40297A74100CAD9E0FB1DBFBF42F7DE
:1049D0003420A3CB02A3F37E1774C69FFA9457909A
:1049E000B340F4B189DFF3A8BFFDCFC2F4986029CA
:1049F00003D9709299810C199F36F3306E574D97F9
:104A0000E9A89834F0DFC9989090726A649DF4D058
:104A1000F90CBF869846759E98376922F8B8605998
:104A2000FBC929E9AF180DFE7868C6A3987E4645F4
:104A30007BF8EF7E9226C1481805138B53C98B363D
:104A4000225F528B628CEC901101FFC03205F40999
:104A500020C242895E987FE07FC00304F90360446E
:104A60002C88E61FA1FEA508DD07A7BB98200FE252
:104A70006F578B03978B997ED95E37ED1D8BD3F6DD
:104A8000BD78410529D380D37A005AE077F330FB13
:104A9000187DA8FEE50191E298A0D7EC05FEAE6472
:104AA00021A8D3666AE06FEAAB8860F3ABFE376D8E
:104AB000B3601153B308F30B7AD3B0CEEB6498E034
:104AC00016C41098D944B319028CE6F3A0F9D3CEDA
:104AD000E7E4D8683A40FA54FE572082EFE2764184
:104AE00002DB051BBB7F773110E2048606CB08E6AC
:104AF000BE205DF8D019E792FB6912940198F4B3D7
:104B0000FE79CC207F40CC5F34652D6A0A54F805CD
:104B1000CD4BD3107F2F985B2008FEA748BC98FE92
:104B2000A57B16200816F64E1146D94DE940189976
:104B30008F34300230E35EDA0260D5AF885DC24464
:104B4000D319BCFF7FFD81452128EADC7BE088107A
:104B500051939824A60266E99D7A0302EF574E11FD
:104B600007C068A1D14888B8A728ECC8190409E192
:104B7000730418C213F7122C828535E78480D2445F
:104B8000331411B3A17B64885C308FC022A280F003
:104B9000E5300933B0C010C60338E08C8048A78EDA
:104BA000B3F5A5207998B79FA5E78B7BB8813C6AC0
:104BB000BC6FBA0C62E3305F5F9820C430D37F9142
:104BC00098D37664FA5BD8F27D40BE12893B13100D
:104BD00029F35F015FBF6628B3825CBEA2037F1129
:104BE000E540F61810A3C6F4FD11BBB340046BED0D
:104BF000980298B71923DE49FC8285301144C40A13
:104C000058DDE314ABB3021C78C6AD86CB49F8750A
:104C1000F8AC207C206C0255FC1981064F281A60E4
:104C2000905E9836E735CBB3126F9EC4C9804602BA
:104C3000261A209048410BD39CB2120920E9878D97
:104C4000087A383B668020FE345A93FA9C0623FE8D
:104C5000415CA7C36279C6B540E56980A8F8B4761F
:104C6000E6CA28F9BDA5A02D6AFD980847F66D296A
:104C7000FE98D91008BE4BB945982447337978AFD0
:104C80002830107F5CEE9FC198F95EA5717EAF89D8
:104C90005DD9668188215DE05E982CC7FE56303074
:104CA000518075259048F6EA4488C99BC977448F9E
:104CB000E7F98041E516C1FF4058041302112C8228
:104CC000F549301286BE0104106402F49802766B36
:104CD000668505C00112A2C83DE0301B9041FB175C
:104CE00019AE026B300C90C29857FBB6A5A0074FC7
:104CF0002D3D80D5F3E8E68BABB2085FCB76E4EDD3
:104D00006F5998401E98BB8334C881A7D2F8844D50
:104D100006CBD0152FE230F2F833F37BB18137EDBB
:104D20001085D371E0AF2D7D10B3C8E9BBF9CDB2CA
:104D30001BB3402247B3C208901972302C59F3F9C3
:104D4000C871D379987564E7E0AEB3485C7926A65C
:104D5000EE98FD10D73FD22202770A3DE1CCC882FF
:104D6000D3561AF34180E2A00584355A6D50AF192D
:104D700009CEC808421088D3BCE5BF458413401350
:104D800030F3092B80D64BFF4089BF77E561DF798F
:104D9000ECFC235E7E6AE5D94C0239C828C2E9E3FF
:104DA000846F2C78BF3EFA26C8FAFAA2E1A6E594F1
:104DB00088E6165B8DDF0720B2888A6CFB30ED53E6
:104DC000F960BB06325FD970E0D1D30C192DC081D8
:104DD0007D98A8D1FF0C7E28F758B8F19168AC11E6
:104DE000BF237E8748202205CDF97E7A7E5777DA69
:104DF0004B8C3779588EF45D45CB539AB9CA10A6BF
:104E000026D30503BFAC820B300616C0953523D4DC
:104E100037E167672E84899B80C1C08D823F05087A
:104E20005CEA48A461378C66C8B0B696BDC5F2B4DA
:104E300020E63DE0417BF304F0404E755DE2813CAD
:104E4000A6F39D726F9DC81CA0C2D3289BD3E241DC
:104E50004DE8F6D003F3EF4798F8AE18327DFD9891
:104E6000056411F32B981959C869F2D966DF2F9B95
:104E7000F398F97DB1BFFB5EB280445804D9B30208
:104E8000ADC03840F30F11B140B30836E2B3B510EE
:104E9000D626C25BC896B3C10FDA226267C868FB28
:104EA00079670695176A14C780109706CFFDA37C13
:104EB000334804E0B3B882B93016C90282E0C7C8EB
:104EC00012809E2FCEC860A06EF681CEE1B8F9D4D4
:104ED000DBCB3CCEB1B6E1CC33B4BF6F0479541A0E
:104EE00043790F7E7FFAD8C6B830FCE8F59005F319
:104EF000FF20983901B55BA1018B8CE8FC515BFB6D
:104F000065C87961FD544D19F928A8C517ED4567A5
:104F1000D542112DF3331F11DB212219BB5C304622
:104F2000E0E5A09FC85804120C2EF9605991FAFAD6
:104F300041B02026FE3F051357AD4744F80805C091
:104F400040183E0B64048CB987416DD6FEA5F892DB
:104F5000E2AFBE3FBC5DB2D5FE84177FC6106004D1
:104F60002084093BB941FFF93DF26B95C8C2509CC2
:104F7000B95DC4BB03C4B8F3B33E3ED47DD33D900A
:104F800007F1FC300D7998BE62C810AF2D5E2CAFD2
:104F9000B6E2F5984099E7989A299B6E1DF8CB30B8
:104FA000C2F930406F97C8F203889DC6EBF880C6FF
:104FB000B34E76C80902C5B3F6FFEBBB0476B30265
:104FC00044FD96E3D3D9C8EB9820134878E66B48A4
:104FD000FEF56106C8AC809593F15B9FC8D3089A33
:104FE000400BCF302088B42CEFDD7FAF10858006DA
:104FF000088202AC09CAF72DD32EEF083057F3D040
:1050000057F31BFB4CD9568019C84692ED28200552
:10501000A96EBF1CCAE07E9A609E03E7B4416FF39D
:10502000A0F9495DC090E15ECF71F379987D3816A3
:1050300036802B67EC4993A07619C071187DD6177E
:10504000C6DDD1EB9B68F6E3B40C81EB2DB5A0F285
:1050500029F7981801A033F38CEE80641B71717CE2
:105060006EAA11BABCB415F152DCA028687B444C7E
:10507000CB95DC98301206D78F58F96C812C82F3CF
:10508000F30205C048AD08F861014002840CED4010
:10509000628381B0C01E4269848318829F49EF46B3
:1050A000C22210D60923CAB3C65FB3F8E598CB3D38
:1050B000C85CEDC8880433C82020F3593CDD63ED9B
:1050C00060010DB29BB83DB85D97F306795EF9BB00
:1050D000DF28FCE29844CCE330F970885CAF677D50
:1050E000CC68D3A1C309E015FEE535F320F0950B9C
:1050F000F3B515D86BE99804B3DB2264F230588B12
:10510000F39D5D8920429CB3E3051004D1C2E037D2
:10511000934890B4B30408A6BD01A648ADFA0E2486
:1051200029EE5CCC77176029B084FB415E8B5D0A69
:10513000D9142287B4F29586BE143D1010F7DD17FE
:10514000F1DDECC630340C68F8BFDECDA573C88045
:105150007E5FC8E68B4F4BB2AA55F80AA1F9AF198A
:105160004A998EAF30DA7F609FE6EB5144FC988F0E
:10517000D9F5988089EFE3023179D3FC5879EFA90A
:10518000C677B1FF2064AEE52C3BB88830DFBFCCDA
:1051900011D91009BE98AE085C3040D364B76418CA
:1051A0004293C6B360FD5ADCE20826C0FD580023D6
:1051B00060247F9F300917C002C81811E7B580FB33
:1051C000A5415F5A9F18F3300C305DD78DC418FF8E
:1051D000022362042C80093132E9C0B51F0B600242
:1051E000E72090059DD0FA5C5D7F2B30C4CED2C9FC
:1051F000F5B06B95C898BB1C76078BBB905E4128B9
:1052000068DB3C90F99870109470F3C67E66C80C09
:105210009CFF596639C8B782E5306209F37BA668FE
:10522000BBB5D8575E8C1930599B7A4A04DB3BC812
:1052300068FC29B32C72F304E5F312CFF345100A8E
:10524000046BF6D4A3B3CDB136E0C25AB340FF5DD0
:105250008B4CEE98A8FE101B1A5BFF04F563842D9F
:10526000FFE8FB95FB320138F3CEE5CA288DB0D3B9
:1052700080FE18243BFF98FF2C1A33938CD1713990
:10528000C188FAC2B583019FC6B84BF449FB634697
:10529000C522972C73FEB5A11E9BD378FE0C031874
:1052A0003144439D3FE8F7F3F5B1FA75648237D78F
:1052B000CCD87FCB1A0220B3043FE74064ADF32182
:1052C00097DA449E9AFB2CB32858FF08EAE010F1C5
:1052D000B37F633F5BB110C4B5020B0A6FEC7E78FD
:1052E000FB285E6F101767ADFF22FF2D606EB3B114
:1052F0004043621FF5D101B897D8BDFF57E45DCF99
:1053000067B6E24002CDD9B8FCAE9AB0F8CEB1F3A0
:10531000BFD39A20FE01116BF9D304D36CE91D05AC
:10532000B03719FE697404B77FC7BD4CD30210446F
:105330001E46F827E250D8238186A3C9725A12CD9F
:10534000E8F3B56202EE0309A05CC54847800C345F
:105350009001A181316F7E0060281C0501B633FCED
:10536000558D667490B7B502AD08EBE240FDCE3BBB
:10537000CAB2CA7500BE3F600610A080425D4049B7
:1053800088C65573B20320DD04E098DA70063182D6
:1053900006800AD737A002FB3B90FDA292B3307A79
:1053A000A0FF8E8238C0868840F1DFDD7598FE123E
:1053B000AFE888048F5093F7A15293F3D010049173
:1053C0002621F7CC9D00F6AB67A9B220F35CB2FDB5
:1053D000BA4A0B2FA13D338DB54C79AEB71DE369A9
:1053E000FF50FA6779BDE6713FAB9B0833A8930E77
:1053F0009BFFB0FB135BC31098F741F6BD43C19010
:10540000FF6126ED5380881B67C5DB9D18FB1FEBF2
:10541000B63FB6B20423BB49039BFBA8F80AF4FDD0
:10542000F39917CD6DD8B2B308CF31C24E6C8F202F
:1054300080CFD95A402BC67008793002652C0620DF
:105440006BD632FE34C167EDDFE9B440E062DF7F46
:10545000B110222FE397657502892CA814FF3DBA7D
:10546000F5FE710F8DFE7B40F5D002843AAFD93046
:10547000FC9E0B7F5845E2C910C635D3FC6BD46B3C
:10548000BC8F10016E81B101DD3F2B8C10AFD32F8B
:1054900030F728FC46C11AE5D69FAB875C18F3E5C8
:1054A0000C39FEB8B1F92177C219988A6791F0FFDB
:1054B00088369E78F910F1E184DD8ED7C8FEDB9343
:1054C000F95597F6A92FF1346D8096E00167F657EC
:1054D000D0F937FB86403FF27A14F1C5D63550310A
:1054E000F77F69FD96496E2D62DF70D8F8FA87D88C
:1054F0001AA9549CDFB304D9E1D0FBE06FF6F45154
:10550000D1851B48B70C6CA648FADFDA8020A5BE0F
:1055100044F39E276E41A204D35ECF01706579E506
:105520008CAC2702B53102CBB8041A685CD8FD7880
:10553000C8DD9682AEAC37806B4DA2BF1A214DD725
:105540008210E45D1D72B3FC0581E4E8DB6C70BC85
:1055500041F307048040B1102F1C985E200878406A
:1055600081803BC0872350401259B8FDF3BB09DB53
:10557000C28442959D44D49FF3D104C0837EC1056B
:10558000CE0119452B9D58080290930AE04C30E556
:1055900010E4223BD7FE0BDD9CA9E1FCC8C19006BC
:1055A000F9411808030144A60E8609846ED408CF79
:1055B00006888121621D26F831100886D010500F10
:1055C0006609C014876006E0190118A00B677E9079
:1055D0001A8B07FF5C722FA4E32BC5163EC67331EE
:1055E0009DC410901EC4114621C450147AEEFED3FF
:1055F000E883B2EFBCF1BDFFA5BFEF829FF2CCB84C
:105600003A50C121D60703C0B804C6DB6727B920CA
:10561000FA01C6B32A7667F27C20BEFEC40D539B06
:10562000DC24F971B8C86ECB973069AC49404FB2F1
:10563000AA01ACCEEBE455EEFCA91AE67ADFD2095A
:1056400094DC6BF6B42BDB46A027BB46A8FE234CAC
:105650002D4F76556013755C368FB8F88BF702FEC8
:1056600032136570841FFAE6E125C465C9BB06F6EE
:105670005248FCB6AF12B96E66FC637A756F9646F7
:1056800051488BF226108B66C92DFE10BF40CDEE1F
:105690004CE55BEDDBD60D406E694504502CB1FE48
:1056A000AD3FD3CC37636FC932B375C758D9FD024C
:1056B0008B8D040AF27CCDFD04FD8BED5ABF19B928
:1056C00046CC76DBF0F5B4CDD368FF90EBB2607ECC
:1056D00092C2A5FF20B3CB98F9798CFFACDC2408EB
:1056E0009D5E8FAF1182FABB05205F6B6ED16FDBC1
:1056F00022824D887CCB3D38F158B3FABFA312917A
:1057000040D69847943D9068CF9B03FB8192B3E0CD
:1057100066C3E1FF34B603D3FC39B30C5BB60318A0
:1057200004639A2779FF2EBD305EF81C1872CEC034
:10573000FEA3FE26754480960863BAA77EADB10924
:105740009BCE08FE37DD6E3004261866C3BD300AD6
:105750006E5CB40200665EBB4F7E512EB493BFEA0E
:105760003C800701635F7FB73C5AF60FFF720AC0A7
:105770004B5B0F97F568B619060141868EAC233056
:10578000FFDBC214B7F338FBF9B896D396021912AF
:105790009EB3F3B908CE4CB910B3F82BFA4C639F03
:1057A000D87F20EFAC9821EF5B9802F7D038FC63EC
:1057B000462C7A2D06C4D6A003CB4AFAFE7FC9F543
:1057C000A89099E6987F59137E98BF20F6CC03CB1A
:1057D00066FD8CE0ACD84681EF6D1705FC98D99733
:1057E00009B50BFEE991FBCE63B301163093D69851
:1057F0002CFE98B50B6FEE21FC0E19C8FEE2900747
:10580000030BBD98036DBD72F80C9BF6F4187998E4
:10581000BFF7CCBAFCF1BA93CBFC091CF498107614
:1058200021EB98238C364B85305C8E7A9894BEFBA6
:10583000CEF2983D661790B0FEBB96420827EB98D3
:105840000CCC66FD31AFDE76301CA0014FAC980861
:10585000BED96460DC300288C7166614C7D58426BA
:105860007F9D98E7D836A9B8FF76769E022637ED59
:1058700098A008B76CAD8CAF6E982C0459B3F8BCE7
:1058800030D80CA0E7BD982C80070488FA980FE662
:10589000F6E8FAD38C3028F97FD3625E987BF30860
:1058A000FC79DE93EB6B401CF798200A06621E9889
:1058B000B4015F1950D8B1C00C9D26AFD31809C6EA
:1058C0003930A16CB3B90D19167F9A98B6EE4CFF1A
:1058D0007AD106C70C18C6190602C9E630B0F8CF4F
:1058E0002538FC1E8CFD7F97DD5708077ECC80DFB6
:1058F00076F5FF778A9800584605C2190ACBF21E42
:105900006D59084996F2637F9798D8D1DFFB7F22C3
:10591000460254F6049766FBE5C8AFB6F3A1FA77E2
:10592000A59880648D7FC91C80B707173D596EF616
:105930000ADFFB4150F9379D313010068E2C660886
:10594000FF37985EE46BB3B210BECCC73F32900213
:1059500086C9F59880DE986E19B320BA175846E7C5
:10596000A8E73464DD1994B688CDC829CDEED8F8FF
:1059700085BC30B1304C88C8E59E58DF325FAC61E1
:105980003F8E4B230702DD1910A7206114C080470A
:10599000143AB370F8042DB332223DE510639D0A2A
:1059A000B7802593C682FC3019AFF73D7AFA17F914
:1059B0001B3DACD41077B4B10AD36E662FC6F298F3
:1059C0003BAE9BD4F8FF10F3981C371900D3FF3F70
:1059D0008BC598FBFFD7EC48F8082CE73030200641
:1059E00065F123B69CFC1FD949F8BF8CEC30120638
:1059F00071B301B746FB7FC9B31B2037EE842FEE8E
:105A000018D949EB66F9988CF330212064F2EE90B6
:105A1000ECBB3E973041FA4BFFD34CBA9CB1E8F354
:105A20001637F7EC08F0303629C43046158D68AFCC
:105A3000B7B40A195BA77130CB7CA83F847DE164C1
:105A40005761172E3002FBEC2B9B307AF8CC729307
:105A5000C2F9CA016319C8D920C63D17AF092FF88A
:105A60003598FE8958F9C4BD981EB0049397303C10
:105A70002DF30EFD9898BCFBE7CD31C3FE3730ED1A
:105A80000A06B65CCDFBBD59B32464AED2403119D1
:105A9000AE3230B2C8DFD798442F1948CBC82BF6A6
:105AA0009FC2DE98B1803714048420B2117D98061D
:105AB000A31081BC03E0BBB0FE185EFFB3C0B850BA
:105AC000DBDB9830F843902BED328CDD4DB6284B64
:105AD000B3807F3C98A62B94F360FBEEC8F908FBDB
