:100000000C947B490C949A490C949A490C949A4903
:100010000C949A490C94A14D0C94054E0C94694E85
:100020000C947C4E0C949A490C94D34C0C949A49A1
:100030000C949A490C949A490C949A490C949A49B4
:100040000C949A490C949A490C949A490C949A49A4
:100050000C949A490C949A490C949A490C949A4994
:100060000C949A490C949A490C949A490C949A4984
:100070000C949A490C949A490C949A490C949A4974
:100080000C949A490C949A490C949A497F7F7F7FEB
:100090007F7F7F7F7F7F7F7F7F7F7F7F7F7F7F7F70
:1000A0007F7F7F7F7F7F070007047F7F7F7F7F7F4A
:1000B000077F7F7F7F7F057F047F7F7F7F7F7F7FBD
:1000C0000F7F0E7F067F0D7F0C7F7F7F7F7F1F7FDF
:1000D000177F167F157F1C7F147F7F7F7F7F007FB8
:1000E000277F1E7F257F1D7F247F7F7F7F7F187F57
:1000F000207F217F267F227F237F7F7F7F7F7F7FDF
:10010000107F197F1A7F1B7F137F7F7F7F7F0818E7
:10011000117F127F0A7F037F0B7F7F7F7F7F081015
:10012000081F097F080F027F08197F7F7F7F7F7F6D
:1001300008027F7F081308117F7F7F7F070C087FED
:10014000017F080B7F7F08077F7F7F7F7F7F080706
:100150007F7F7F7F7F7F7F7F07037F7F7F7F047F1E
:100160007F7F1C7F1B7F7F7F7F7F7F7F037F0810C8
:100170000C7F247F237F137F7A7F7F7F7F7F08110F
:10018000147F081908200B7F7F7F7F7F7F7F7F7F11
:100190007F7F7F7F7F7F7F7F7F7F7F7F7F7F7F7F6F
:1001A0007F7F7F7F7F7F7F7F7F7F7F7F7F7F7F7F5F
:1001B0007F7F7F7F7F7F7F7F7F7F7F7F7F7F7F7F4F
:1001C0007F7F7F7F7F7F7F7F7F7F7F7F7F7F7F7F3F
:1001D0007F7F7F7F7F7F7F7F7F7F7F7F7F7F7F7F2F
:1001E0007F7F7F7F7F7F7F7F7F7F7F7F7F7F7F7F1F
:1001F0007F7F7F7F7F7F7F7F7F7F7F7F7F7F7F7F0F
:100200007F7F7F7F7F7F7F7F7F7F7F7F7F7F7F7FFE
:100210007F7F7F7F7F7F7F7F7F7F7F7F7F7F7F7FEE
:1002200008277F7F7F7F7F7F7F7F7F7F7F7F7F7FAD
:100230007F7F7F7F7F7F7F7F7F7F7F7F7F7F7F7FCE
:10024000017F7F7F7F7F7F7F7F7F7F7F7F7F7F7F3C
:100250007F7F7F7F7F7F7F7F7F7F7F7F7F7F08158F
:100260007F7F072408057F7F7F7F7F7F080D070B37
:1002700007237F7F0713071B7A7F7F7F7F7F7F7F27
:10028000071C7F7F7F7F07147F7F7F7FFF1F627F39
:10029000C23C006088FFFFC0089001324006C8C61B
:1002A0000019FF03050A4414812241CF068AF32076
:1002B0000365FBA00C94290034FF7FED81325006CA
:1002C000CA54F71928036627E033C688009E98D3DE
:1002D00064800C7FB988FE0014C00287580BF86058
:1002E000012C800460430ACD0270F34032F305A074
:1002F000E6180CE4B312CCE050DBC008286D17E020
:100300005026D334D3B00416E1B998FC30486CFFC2
:1003100098FF5DE5200204C4006640808110023031
:1003200066086F0159E0104DE4E8FEE4CADDDA88A2
:1003300002A4ED82F303D0407236A4333CB39C2375
:100340008202D06E0A4021F5E014EBCA4087A3F088
:1003500058FCA602F70420CB51CF0880128BFA116B
:10036000DDEC406EE443F4B12043667DC0227C2086
:10037000F166703048F0D1E9668409B3D841042DA4
:10038000A80FC516CBF37A1B900412B7BF4AA584F9
:10039000BA1A3BFB017DA5113012E0F8FFE267AC11
:1003A000FF0353F6B88069F07DC0B1E6C7E5FD7F75
:1003B000A7F298601075C75DB3C0410C94F1BB2CD7
:1003C000FB5E18C8BD8002CB413CE2BDE5C168E5DB
:1003D0007B9A30056818DC6044F3B322BE1E8F1D83
:1003E0005E3653F1DC0409D51E509EED80100408E2
:1003F000BC9876F70986ABB348BEC6D7EF4B59C950
:1004000008AEB34001B08F613DE0AA12C816046681
:100410001493663022813428FFF7DE8007E5E61862
:100420001003643CD1CB03A278FA33F39C66013C01
:1004300010CB5080B04FCAF91CC6217DF3B59DE0AA
:10044000D308C80DB37B06B2D3045AD6FFCC6020C4
:100450007019367966B1E0A3A408066EF341E6AEE2
:10046000F9FB6D56B3102096C01288F4602E33B39A
:10047000FE32F2EDFEB61301F6CF0206882F50824F
:10048000227A3111F8FB6F71801041E5088081D923
:100490007EA166F9FDB7B94D900421FA9B88E02052
:1004A0005FB708F3989B2AA4FC4FB139D3FF6F596B
:1004B000EF06E6E6EAC5405B8DFDFC4DB250BC4B55
:1004C000CB37A07ADD44410C0837723FBBD798C0C8
:1004D000299262DBD08AFF8D60961920FCFBB10A5D
:1004E000465EA0109421D02BB2083AEE2450778EAD
:1004F00068A043FBBF99092F0BFC8C04B3DC8C4232
:10050000FFA532E6C02DDA625AEF46015D2F8BEC73
:10051000A111300DE9FE79B2AF3B4938200373CB0E
:100520001519B38A1C4384F05AB099F03E98FB81A8
:100530003C0878FC7F16A5664A6F01C58466B484C2
:10054000B6C837DFF1986FF73010E9F97AB244D1C5
:100550001914001628B36E01BF84D63804471997C2
:100560003E984776F998ABCE10299602F3A67E2ADC
:1005700065B990FB4877291082F73464F030F6C6ED
:1005800010E8FF6798B1AAFF04DB4C63C5E9309916
:10059000FB56F0279630184BB30301626DB3404110
:1005A0002BFBE06B2B2D9AFD98C47F123005F0BF1A
:1005B0007F80B6A06D194C02B9300262DE984CFB08
:1005C000D008A3ABD2976689A89E50AAE76D48FFD2
:1005D000044BF2264FE932088C970A6AB3629DFEFB
:1005E000734FC002775CDEF6598577AE9813FDDF56
:1005F000846AFAFEFE3D302B380E0FBC8BC4BC98CB
:10060000DFFB432401F867B930182963D3907FA931
:1006100098836A6077DDDCE6E59C6A0128F004D601
:10062000CDF3E52D57407966FEA5440FC664F998D1
:100630007617F8E3D556B3140C8DE001B9314E5F4F
:100640007D88AAAA406E55210432B37930110F403B
:1006500010B2FF3D9848DB1241F9168AB06601914D
:100660003B9204127CF7A834800667030308E1017B
:100670008C244D04FBFA97F2E791C73BB080677971
:1006800098AA1920F6C058F8FD36A6C839EC532DA3
:10069000C8DD9B424108A9ABB893A619E3100FEF40
:1006A0006DA660F8C690A611C8ED6412A1C19DCDDB
:1006B00021A51079692D78404F66CBC89E938102A1
:1006C0008884061BFEEFEFB9260176661424103FDE
:1006D000C330D310BFC4B7DE22977AA7BC186C60B2
:1006E000115F45818169AFF957D2889FD2E6982F73
:1006F000CB306457F060013C9BA0B040BC98FEAE8C
:1007000034AF08D17F80C67BA80888B7FAF9B9BE94
:10071000D91008BF8067A45E48B68E2DFCBCA8F037
:10072000D7DB986040FB2A99B7FF24B3BE04666B01
:10073000B380086A56B50425E9B320D9C80F618291
:100740007994FE9820B327E5111050B7FAF7982353
:100750000A108009DB9B30110213F44BA4CB9B12CF
:10076000F37F5C9884C6CF0A44F31480241B0420D2
:10077000D9D0F91C8A46B677CB88DE35F00166768B
:100780005110CB68E2B0FC07F22BF9ACF6B1045C77
:10079000DAC88ABBF885010829E92C0306024BC197
:1007A000035F5668685AC8171957EB9BBB72301223
:1007B000CCF54342ABF18901B404416B53BB82D702
:1007C000A109040DB9904E883AF722FB1762A0EFF9
:1007D000216020D72C02D88D9F1B307E6F91B9F7F6
:1007E000C0283620338BAAEF7F4C66445C09EBEEC1
:1007F00078FFD598A0C230DDBC980231F3BCF9C8AF
:10080000E0013C08434BD383FD981C77B5980E401C
:10081000FC2F0F62080D3B58FAB2C8DB9430081960
:10082000637EE546E05201208EE119CBB10CD5453F
:10083000CBF67FEAB314F6983041C6B27B51C1B310
:10084000DE9889132077DB333519220CAE16119010
:10085000FDB86ADF3BC841046F5E9821F936E602B5
:10086000670B20BE7F3898CB23D3FB4079240C64E0
:10087000C6BB546C49497D01792CB9118AAF570820
:1008800037FB5C49FEF26D92C8A28D610DB456B380
:1008900004675F5CF6A9E55BF4521914D219781667
:1008A00040BEC9E56682B119FB946ED5626B4C04FB
:1008B00063E3F4FC4B0D8BBDB1145ED33B1113F815
:1008C000F402D1890CCD2010E01195FB7F22346613
:1008D000568FE9F0C083106893A50466982E6912BC
:1008E000E73020A1FD6DE798F130B7AD98C016B3A1
:1008F0000C469AB6A51940E0FE980A19F319BFB440
:100900001E8144785E984BD3A0961910FE98B302CE
:10091000BC98CEED0741B79E98DF7AF318FCB98EEC
:10092000F3B1BBFA2DD5BC98FFB2178CB3EF40E5FD
:10093000806BEE98034008EE5AD910F330080C2370
:10094000E6F60A18F9BC30BB02F67F01FC302C5CDD
:1009500053D64C04FE98B20C7C981424CEE684E561
:10096000D0FC0B1A16FFD3605EB7BA33A9FC986FA0
:100970009BD8D3158F6E380361CB33BACC5FACB73D
:10098000C8F59819A7F752D8FB1B281B19E491B199
:100990009A5F3F0EAF0ECDC822A7DD7FE798E877BC
:1009A0008518302BB333B506ED58AF08D16C4CE049
:1009B000A6ECF821C56D12B3F711B034D8C0AF89D9
:1009C00003226DFA7F58FA7FF48609EEAA10FAF531
:1009D000D20779D27B98200FB604F398141B679046
:1009E00080BC981BF61CCBF2986E762D10CAC835C9
:1009F00009F0D22B8C06672C2EFE3730F398BFB946
:100A000030E90868F8F9206AB3DB1440FA9843C566
:100A100056B448BE98EC200182AF3B9867B9E6F81F
:100A2000FE5A0277ECB01ACE1B30860112E4862003
:100A30000D2406AF9C988BDF1488E4982F0E24B504
:100A4000265CBDF9DD012CA0C5CA039F96E825BB35
:100A50007F1027CED25CBCFCEC4BDC1E33D098035D
:100A60005924D9276AF881682C6DA7EA2F931CF3C3
:100A7000987CD6C8809F159BFD1896B880C219E354
:100A8000F5CC04967D79A269D9F9C87BE49410AFBE
:100A9000A0A2540B4D69208E3BDF32D20916DE0531
:100AA00006608196B3B09DD8EE236124FD5222AF3B
:100AB000ED2A185C208C5180DCE0C08705C0D8EEA0
:100AC00009E43004E069418C6184B068E1F853BC0A
:100AD0009859539C305B767F51D1E6F95F6B9C2629
:100AE000E801B22673C82C7F9F9898C8E21E0C08B4
:100AF00068FA8FA0F2E5EAFE3728DA563BF3D661B2
:100B0000058BF2D8555E0CBF9198241B027A981081
:100B100067E781F219FF779CFF5377AD9828FD981E
:100B200010B264F4AFDB9E6E04503008FFF7710B17
:100B300002019A19FB98010C5A0425F1668D19FFE0
:100B40007A6263EEFFF8FB20B6E39750027A8501E4
:100B5000CD33F3FF3228636CD380FE06090DFF9876
:100B6000FF8D9993C6D13839D890FFAA9A40F3C423
:100B70000B1B66B8F92BA87CA0034393CCF35F57FB
:100B8000E90299D3FD42CB50FF62C831BEC7CD7395
:100B9000C0913716D3C64B17B8FB11823FD7CCDBB9
:100BA0007FF43DD8E880CE8B13CE314802622DD73A
:100BB00060FC825F98E58640EB61166C6810D3EEAE
:100BC000831458FA627E62DF15B0A84976194098FE
:100BD000FB525104C53239C496160122D7B2D80F40
:100BE00019DB821F5A812080A56A9822CE37FE0E1B
:100BF000F1FA5BBC7DB495EBA8811750B210C045EB
:100C0000E6A4BEDE1CBCB3CAB40BFFDA7F05A6E7C0
:100C100018BD0746F4795BAFACB805400CB6CF7B86
:100C2000E31350124F60F3B4060C8BA18963D3A871
:100C3000ADFB37E476D7181404A94242FB9611ADF8
:100C400027BDD12480C692BA6ECE8404F502809965
:100C5000CE01C181C168F86246354F98BF4DE48529
:100C6000A2D158FEC5B9BC845FCCBF08EBD0480EFA
:100C700011BA67801E3850EFECCC54FF748ACF064F
:100C80004FCC3C0BEFD522586109B389F9AA7DD727
:100C90009FBDB550FE98CC63FA61472499C287D4B2
:100CA0000E13A2F0FC80E4B1D52220AAB810C50D25
:100CB0004DFF3D14B3FDB8F0CF3CB53D58CE43AD2C
:100CC000EFD8FC855C807F0897AA4CCFBF776691F0
:100CD000F9480E58FBCF31D04ED91A046426C3B15F
:100CE000400632B8F8C5166F413E5B7996987FB0E2
:100CF000D84CCB2E05B5B3209BFBC70119FB603741
:100D0000DBD470FD13FBF912D98C9A63DEBAD818C4
:100D1000F95A3563590AD9FCFBC6465F589258AA5E
:100D2000B188E56640B1C8842D4EF8FB8E2CE004F6
:100D30002AEEDF50FBCE3146ADB19CDEECD278FF1F
:100D40004D8C8060CBE44B07B1015EEBA8C0FAECA0
:100D50003F2E37B35B44049F37BDC27CF88EEC5006
:100D600072DACA3708CD828099B77FB6E668FD3758
:100D7000A63C6F9180B68DACD1FB5933106BF6F465
:100D800014FFF918FA629FEDD90810FE4A462DEDBE
:100D90005A40049CCD7AD5FADB424816D157DE5929
:100DA000C6BD01C502671ECCA47AE208CBEEE1D82D
:100DB000F8D5390267692F92A8670B45C4D796808A
:100DC000E95029AF01A082171008D01DFCE1CCF238
:100DD00020F30A73E6064B9605453709BFF68010E7
:100DE0000657B0B410257460A0E500CDCBA4C6357D
:100DF00037EE0A406A3E2807152008A5FB9704E94C
:100E0000C708F3B5184B49B095973490AD6C185995
:100E1000200C02DF5E1A3A9AA0904E7625B2430764
:100E200007540480E2010A1298B30C3F0920210004
:100E3000FE63FC592D414F665A2B208BDA2A6FA393
:100E40009E196FDBA2FE90D2F7B67C45E08067F07A
:100E5000D106CB914055B0841DECE73B04CAAF42AC
:100E6000E2E5E0FC309F8DE3F8AE338394373793AF
:100E70006CE4E4FF9EB052EB6F4D5926FD7BFE649F
:100E80007955862DB004C879E58B79AE84BD4A2D9D
:100E9000879BF1F8FD3821CF580D1051F6FA31B685
:100EA000E330B1B1025DEC6E38FCD5728084A6A34C
:100EB000790877B1D8FE63DF42610FDB6E6F37E8E8
:100EC000FC71CFB7EC2E246BEF7436CE3CA539CE37
:100ED0006F9820FA3120F32B08DB0381FF3FCCD23F
:100EE00045D8416BF6E861A29E3AD8C0F953EB1D94
:100EF0004063101569E0E8F8748103D00233D68AA4
:100F00009E2DFB200585C0469D86A068822CFA3464
:100F1000EFF7C6A0010203E284059E8A28312486E9
:100F200097518202EEFB21112508B8B41513F9413F
:100F3000034B4008963CC131FDD080019C2546C240
:100F400084E6D4BB3060E3EE01C05DE118B88C30BC
:100F5000085B5102EBFC3567FD2EAE5E44B1A0810B
:100F6000DBAF228F76DE5268FF92CD82E3E5490C3B
:100F700038DF441004C5CF8C776D50047FC1C37E29
:100F800096FC9D94AB5608DEF389902008BD4B304B
:100F90000F16C09F28F9236012405C140E10E43530
:100FA0000B37AC2F12E7B3913021782C83E00C4043
:100FB000B3BD46C28808CFD68C8251A0E01080F91C
:100FC00026EA07F498460171780FE0133CF33021CC
:100FD000AEEB0378E52AF39C66B4E064ED0EC82915
:100FE000FED3E8813CA007F00506132AC6011C06C3
:100FF000B8F66606C0E5096009A992E32E4714F326
:10100000B3E667FF7F41307EB79C08033B7C01302D
:101010002088C61999F3813057BBF8269AED20BF76
:1010200023613CE98805B04B84FEAFFCD94C20DE3F
:10103000E52FC541B34C7BB3853047C6FD7FEE0C31
:1010400005D0FBE7901492047EA6D921FC347A05E2
:10105000920201FBAB14E9099C8112D0E1825A444F
:10106000EF6C0CF298FD0F427C81427514A40D6068
:10107000FEFECB94C0A7ED5A937FD954FE1A2D875C
:1010800057F806896119E1B6601BE588044F7B7E3D
:10109000102048F8FA70EF88D494CC4496EC058080
:1010A000205F6887C850E32E0C824047F99804A25D
:1010B0004416094DCA28FDCED826C802F4CF88FDB3
:1010C000EF308286C00218F6A119EC4440289BE25A
:1010D0007904FD980676D0EAC5E0F305906FF9FB38
:1010E000E438C067F4DFD75F11B64EC40431DA3399
:1010F0008478D9C0421821FE61240C844F6779029C
:101100001848FD080362204C807F90F9FC7310079B
:10111000F177AB9802C1C5CE3C9DF02058F3AA6789
:1011200060041CC0BF709A0EE038F1A5D3CF9007C1
:10113000F306C0039978F3E2F3EE1060FE3479F021
:10114000980922012645F340C6350B015D51E9C0DF
:101150002018A9107FBBA50644205F2E5EDF2AD091
:10116000FE3216418286D8A92C65ED20E0DBF5B170
:10117000134119E08C327EB8088C900A34040CFFBD
:101180003C304116C004901070B3607E381228FFC6
:1011900010EF01C1407FA25E0D70850480351044C0
:1011A000C747724305CFDA8AFD41097F834240C8B1
:1011B0009008FABA04012F882FFFAF687698040AC6
:1011C000C85E8A629316FBDDE6782FA5EED62378FB
:1011D0004C8DE6FA7FDBF69DC6FACC02FB724CB171
:1011E000F51D6FB3210822D5DCE59E3C79B57984E5
:1011F000FE984DEB28FE7923FE4EB540FCEC02DA5A
:101200004888ACF311FFBB786EC168B9209063BC0D
:101210004188B8DCD3D19810EF7AFE32468899EE37
:101220000304191749B0E910C0803B6373C65030FE
:10123000678D32331203AECF09215D8C8101AF304F
:10124000E72588188C6020E62C8289A498ED2E6210
:101250000A3D4BEA56FCC568F370EEEF1DD8F30C5F
:10126000209DEA98801C37D31EC02A1952D341F31F
:10127000F0041EAFFB3898D33CFAB570E33D6E3FE7
:101280005D45AFF38C0AFF87F598421ED36671F374
:10129000FE98370EC1F07DB4B379C08C8851300C04
:1012A000DA4044BBB30181103FF7CC2A77E15910F3
:1012B000970226F958B8B3189026FDFB8BB4B04EB0
:1012C00018F848126A3F890188349029F384A07F76
:1012D000B6F9B5087F6B1704CBA59703A0E5C81630
:1012E0003B57C8EFF422CEC8ECFADF363B03DC5D97
:1012F00076D876B66822805458B59804EFE6D0F8D0
:1013000050C60292BF468530230B85B0144BCC40AB
:10131000A0729DE63038208E16E32DF2C8FDD196DE
:1013200004F032F22064A9BD7B89F606C42202AB28
:1013300068A03BE8CCB8BAB1EF3FCA37C884377071
:101340008204FB988590EB207BFBEB153F8882188D
:10135000092300F4140C8805E7FAC42418012311AA
:10136000B0E02C11E5330937B6C008A6320C0DB039
:101370000626C143605E98E64C82118669B830EC5F
:1013800085D51EDDC001E0C5E53DF37AC590D3CC1F
:1013900098FC99C8ED0D63AFF0266B1B0FE45DF36D
:1013A00092C875FF6098411CD188B30D09A218AF8F
:1013B0009F98C430F37F58A48F007D6FB7C6F8E5BF
:1013C000BFD3CF34CEC810498B19C1A5E42218E58C
:1013D000EB934CA2F1B9462D089BB330043DB3A06A
:1013E00069CAFA8218B30C32C5B369A2E5B3AAEF91
:1013F000E04EB304DCD044BA43FEE34484C0FB9027
:10140000041A21FF9244B3B4FF7F05D702901F95C1
:10141000D92049D0E5248606B57EA2684FB4CE24F3
:1014200008C064F1302E2A0876D7408018C6EF79BC
:1014300019FDFA7FA0E720AF923C197CF319F9302F
:1014400048BFFF8EBF0169122453ECE80C05C2AE01
:10145000F3C63FA9B2A0085E114416DD870C0184D3
:10146000212C80A3AB814CF5C8B8FF08947D9792DE
:10147000583DF634848AA03680140505E8C6115616
:101480000A726648FDA2F5C275D3280410F4C51986
:101490005B327642C8D742FAF47F01466330EB6094
:1014A000228C4F506026C120DB18096D5D9E669727
:1014B000B0AF7A98636B262C75F042AAD0987F194A
:1014C000210C8101A110D8AFFE5D9888E3A54B7275
:1014D000BF40933005F30E6BEBAB3D38B191ED900F
:1014E0005796987ED5200F62403CBE0F1E1E04D337
:1014F00030BB1C7270F8F5FF40D21876B34F8241B2
:101500004206A344F3C5C5E69CB343C328C469C0DF
:10151000EA1FC2030EDB8730F331F876E3C60666B6
:1015200040583E64E146D3F726C0440C96C6590E97
:10153000DAFCCDC089E020F94E4F1990413001E826
:10154000408404B3051173301001DD50FAC8A9209E
:10155000C2AFF11462088083C90492E9F409F9C8A2
:10156000D801348671C804123291029C013ED749D9
:10157000200830F7088F5FFCCA3038EBB14F232FBB
:10158000536E0E98C8332C8319B8E05FFBCB4B0821
:101590006D800FFD88B0527A190C751EC040EAE0CC
:1015A00070D33CBE4F85A6368B31FF0190AD807C59
:1015B00098EE2C30BF9BEFA0E63010FDFF0C28E525
:1015C000B868C3EFA126CB40483117D0B4C9662014
:1015D0007FB09828844CFE161E245A20EC981E39A1
:1015E0009217B27B9806468F0818D709037517889B
:1015F00005E345DD410F0B0279199FE99605B8FE19
:10160000168448180103624CD30C300F1604185886
:1016100015330B8C80C6211AFBFE7F30F0401EC0B4
:101620000310205ED2BB1D96300699C8B381F930F5
:1016300060DF401CCB10C8BD98E2EB010C88299BF1
:10164000B4189540F3CD30B0FBFC302D7AB9302082
:101650003AF3C140DB2C14F87F0BEB42CD6BBD9805
:10166000315D1728B607D39B3021F9FD98C0B40827
:1016700057B3A0323D16E0F333DDB31131229F9F03
:10168000C8310206E0974492F998677B46C4C322AA
:10169000807642175EAEF0C0FB2008014E901243E8
:1016A0000ABE7F300790201276675068622009B327
:1016B00034F2C8BD78101E4043C22FD8E330B8279B
:1016C00077CA4981F33040F90510BD57C9C98393E2
:1016D000E16FE0B8D26641C53F2B446A5BBC08C6E7
:1016E000EE0843D3993098FCEE5E987EE2C57838D8
:1016F000BD1A58E704B6EFE34022BAFEFE9C0CC4C4
:10170000B830D3254B09FC30F2C0FA8428F89892FF
:101710001820FF0C01042400F73002804076D141EC
:10172000E5A8A288E6C84020CBE8AE00BB851077CC
:1017300060B541A303F930F0C2F8848530063C69F6
:10174000900423F8C30C8205B07042E318916CAB8F
:1017500022EC7F472BC8A993E003FD0261008C8037
:101760004969F0D9329923B02CE63B9B68FAF3D54E
:1017700071AE205A301166C803B3BBD01678BD983D
:10178000806239C8BB1DC4CFD357703005C8303212
:10179000750EC523E298E6BAB1BCDFFF13D29F7184
:1017A0000CA284D62045F356402997C897079AA5DE
:1017B000F33006815DCD76DDF6DCD1C0FFBB137F53
:1017C000E30219851160D7124C8198C90602389B33
:1017D000C46004CBC088D310DEE309A2ED85F061BC
:1017E0005E98AE517103800858BA037024E030E26D
:1017F000E4C8F8A6F19D149488384020482B86054B
:10180000F3844ECDDEA068EE594334E965889977BC
:10181000A6E408FA22BC9805C133F39204F7405CB1
:10182000308305E8BFFCC5982C2FE62123D1196E23
:101830002D23310875FF02FE986FF71BE7AE68F89D
:101840002FEED313FDA50C42ABF645E562DC305C10
:101850008572C506FE7B30E0013920B83AD7933057
:1018600030E4FED28028B8C193F2880F0CA624E899
:101870004612D4630D50C6FB5EA50B2898FE207E51
:1018800063C804D684D7A00D69A14168CFCF07C330
:1018900019913011C24081CF1809DE212C905EA52C
:1018A000FE46C1081801236150E39306A2A9F5DBA7
:1018B000C498D305CEEA101362BF3F51FBB008268F
:1018C000C142B7D42439F349B0DBBBFC37D503E6BA
:1018D000C83ABD9841AE0C0B501EDD9003E1987BD9
:1018E0003D1004536657ABE8013D28FBE0FC94C86B
:1018F000B0D37E669B18C6E27DB920A8F980DEA52C
:10190000BBC2D1A540DDEB9810B2BBEF04C5BC7ED5
:10191000DBB65A50ABB388B81D8DE0393041DC30AE
:1019200008F347DCF030DC66FFFAF516C024189C9B
:10193000C8022C92A65346F4D344F6B3083022A230
:10194000B391D419D8B3FE793005300240D3A558ED
:10195000E8217330301212F8E3DC8CCD538CD7A31E
:10196000B31F76FFE8FF204FCA5FB5374323F3E686
:101970003F6CE4B3E039D33880FDC121FF98D9FF33
:101980002866A01DB66690FFFFE681028064F5DF41
:101990000BEDF3090D6FF9F278BDFAF510677D8E46
:1019A000AFD8BF501D4366B3F92DFC8FB1DB1F6F5D
:1019B000B17D55CC018B1F17ABF3F873EF28D50B16
:1019C0000A7ECC137FEDCC70FF38C28D2B91651051
:1019D000DAACF58051638047E01B76AD9510B3A279
:1019E00050B1FA6E31506F59564447A89BB0FFDF93
:1019F00018F96EE6B308F843C48D9C8F9FF31675F3
:101A00004281EDFAB8FD90B95A0FB30DCC61F5FFE4
:101A10001088FEB310E4D40875F6CC4AC501D8E4AA
:101A2000C301FF5D18B019B3ACB1FFD969089DB10E
:101A300046E2FE005FD8A504D120A798AD97D0B9A3
:101A40007FA0471A05F597E263D3B59F6896FAF130
:101A5000DFE4599F15C585E7C8FEEC41C4B4AF92D9
:101A6000C024FAFD02FCDFD5E120E4E2F2D7D8F988
:101A7000060F68EACB1750DF9D6134540221CD0A6E
:101A8000CBA8F1396560F880040601347E844200F9
:101A900009B46790D1A05CEAE04841039CEE10A82D
:101AA000CCB329F89CDC8F28663867131113C2DA8F
:101AB000C8335442A1811B102267FF34210E481DF8
:101AC000301742F95520B6CA0E9A6B0F08D70D0C85
:101AD00060FB64FEB620D3A5CFAB1A59F5AF9EFFCD
:101AE0002DE98CA9EF1E73A250FE28981B02046CEE
:101AF0009FBF558882DB0313E5E20804DB2866DD1F
:101B0000F58210E7EFBB812091F82BC25EB38CC643
:101B100047F67D2059E897CD9F88FBAF588FF9FF96
:101B20009C2A2CBBE7921098FE6A2062462E35D97B
:101B3000F402E467B6A148FA42F301C831A9759EE0
:101B4000808D364B18FA22D9B1027E37B7232EC4C6
:101B50008C83C67798F8CDFD0B808D717B9FD6F175
:101B60006A49FFD3B7B122FAF6146EB550F62E28A3
:101B700008D05EC54B1ADAF204A037E1347C1AAA09
:101B8000CAFB37E731DACDB7502030E0AE33AC9B3B
:101B90003D68FD6F35D23608F541208A1A19ECE808
:101BA000162697D8F0FB8AEB2185AC428FF1319F46
:101BB000BDB728F88B18CFF9FFF9E30D94AEACD080
:101BC000B4C83048B5FF046AAE64B8C504F8F90C6F
:101BD0003733FFF4A86CB308A59602858BB1402873
:101BE0002A76F9C1FA177ED010C61BE718FE7F5A75
:101BF000C240985F605D6CBDD898FC50D163ED40E9
:101C000010FF2DFC80D675203A68B720591708FBC5
:101C1000359B10E2FE3B6C1D741EC6B9F8B0B1FBDB
:101C20009544018D97175A7DFD98B3D5B8FF2CEDDB
:101C3000959B03AA4C80D7964D0812799003FD72AC
:101C4000C6FCC64C3D58B4B42ACEEBF4DAB3D1F995
:101C500033F216C8043DB9EA602C65ED14BFF748AD
:101C600050FFADEE204DB840DB23E0FEE9CF5C50E5
:101C700004D66CE5BC017D13214FF841C5D6538DC8
:101C8000EB02202DFED662412FD700F8B550C22EB0
:101C9000C94BE184AF7EF45AACFA206826E4B20264
:101CA0003A25F6FE10E0D66B0A202B373204F28B71
:101CB000FEBCD11696E044AA640257F229387D1979
:101CC0003001C693D0070920039460EDA6E081029D
:101CD000185C1B9CD90515E5B3BB76249CB8136032
:101CE00002CE720CF83620BEE48E9E2D60FD9691D9
:101CF000020E844020A7211CD6829033E8C04B639B
:101D00004215FE833070EFFF9E1003414016840899
:101D1000496EC624781ECEF421A5E8FCF2523F9409
:101D2000F7C9282C4F107788CB4DEFBCF1BB1B2790
:101D3000DD152030FB0DF3560297E423EDB1816FE2
:101D400034811B78FA0A4D365BF9342C5E1ECBA029
:101D5000F99573761EE3817F5A7044AF75815BA558
:101D6000847B193CFF62A6CC3BD11DDB9BF6FEEACF
:101D700004766AFC8033CBF50414DE974012FF33FF
:101D8000163346418120E096FBF615720002EED92B
:101D90002C019CA5B6026CD1C0F9DE370631DDFD01
:101DA000965BC07337E0FD625FEE611E6D79087F60
:101DB000FA406ED3AF90BF7FAF62EB47656E108B7A
:101DC000FF7F41015D6572D448DB8B75CD8A97D268
:101DD00058B4190280F018C0E420804065E230F564
:101DE0008A7D80B826AEE7B737DA9EFDDF08ED11B1
:101DF000C8FE944844DEE0B080AB282BA0DD86C846
:101E0000B4F93728F3470C727C5A7BF32290FE7AA0
:101E10004220D5DC142F953563588B10FE4EC7D960
:101E20000240DFFBA098FD5D36B6418D112DE2D654
:101E3000802022797FD9597AFB6E19B430D515D01C
:101E4000BF97C15F3EE71C6F465030B1210FCDDC1C
:101E500082964426926A63016DBF221AD36824FADF
:101E60003E58BAFED7AC6B3063B64A604AED8394F5
:101E7000F302CD05A77617F020D9C9B50C3FE0F6DF
:101E8000E73C7EB267400C6FFE2285C134282EA647
:101E90003B81E0E46D88FC7A8CCDEBBBDB20043425
:101EA00039B3A0D20504B684D36DB6FFAC222D9C05
:101EB0003520FD657F958C01379311ADF6233DF9F3
:101EC00011677F3B49B00306C24F700B622080460A
:101ED000669E29D78960AB0A04ADE44D1912D40F70
:101EE000FDD126C0B483332C9F66E001388807AD4E
:101EF000F0628C03780B046CD3FA01784003686CB1
:101F0000F7D8FCA166C36DFB8C0315F2A1ED940616
:101F1000DBE65A38B70CF614016169F3800A18B58C
:101F2000FA33D957B3137DC1A6BBE50830054F6816
:101F3000B7981519E1B36D14E6B3824CB6B0D7DF8C
:101F40006460144C880996025D5F367D8102DC7BFB
:101F500064FB4DDC47EE04FC317EF77715FEB801DB
:101F6000247DBDD0221A61E55A9CBB201104A6AF86
:101F700048F9CF088420C41963CFFFDE208501BB58
:101F80000CFE0F77D5EE86FF3380B95F034788F6E6
:101F900064FAC4D6BFC04FBE685A8994A0099FF89E
:101FA000C7775DFE847F9FFDD236A3F0434F013794
:101FB0000315737858FB652C9A4049195A0766191E
:101FC00073F8C376D7B57E934EB704186BBBB530A4
:101FD0007D3DE59B03B3FFBA52DFA5FE31A7FD8728
:101FE0001A60D1E0CFF8EE777C764B1F02BE750DFC
:101FF0008BA3941140D6C048C051F8410C0284B064
:102000001BE9FF2C03DC19E6F6E041F7F4BC07D02E
:10201000B90FF8EA02F43760401C9D1070201EC111
:10202000E04CA73CDD56F4F8EC38790F60F3EC088F
:1020300080FBFDB76417A9D6A1F51C5E51F830D41A
:10204000341E26ECC080188F3DB8DC60778E989CDB
:10205000F1FFCB0E1ACF3DB3B92068E8B939B30907
:1020600029B319882EF6F098170439B1A06042B34D
:10207000CB0932F545B3109B9DD24382DF7FBD88EB
:10208000F4FAEEA908AAFCE04E3F39EE3111CD0476
:1020900089D32212DF9421BD9840016AB41022D264
:1020A0005CE85896F83FEF981A2188AB77FC0D5EF4
:1020B00066B9FFD9CF11BFA2DB0420F06F0D98FBEA
:1020C000999602A7DEA5F76090EEB3220CFBE7C459
:1020D000DD66BDA5FF1988FE48B803D411007F0056
:1020E0005478A3F6E8D0FA0423A3D9D8417E5EF24F
:1020F000F3FBB225ACAF10B3806EF8F1FF0880A0FF
:1021000011A6A52826EDC310341A1DE9847F91106D
:10211000F81DEDB3C02296662F8DFBBB4F7B983622
:10212000710DAB9FE8137EADFF01F140300AC02D69
:10213000208B1DDB98C122BC4D9035093606B08B33
:1021400019F033F5F606C630EF19B2328D0A43B3F3
:102150007B97EB290FE1DAA507F0398326E8AF81F9
:102160003898F32D1872BA80BCD5CBFBCC6DD1F367
:1021700018A9BA0A1697E908A04A297484813096EA
:1021800079E8FEA537FAC22BD860A15CC330D99894
:10219000F93A712DEA5D199820231BF6F2E36ADB08
:1021A0003F724080053009DA46C27F994C90FB2986
:1021B000B00802C086D83C88E5BD78A266105AA651
:1021C0009EAED7BF42AD6473198AEEFAEA3A7F95A4
:1021D000547780FFA431249812F648ABD7A1047B32
:1021E0002C9244BBD052CF69C6B7BC02B16C3C97AD
:1021F000C8D6F6FE40F7F32651EBB9D1B3D48766C3
:10220000EEB280F270FE3BD1EF95E7533108D8B3C0
:10221000FD7B6E087A5784FFB4CC7DB36E74FB3CB3
:102220000B3FF86D7698FE85015ED0774D61DD201D
:1022300027343C44C18028F3B3B8308DE7FA64CA30
:102240005719409BB8F36F9653DFEF12EF4B76862A
:10225000FE80B82995F343876CB742C001DAEF34AA
:10226000FC22D2B5EB6E6628184DC64CE6B0F96577
:1022700069EB9848DEE50E70FB31EEFDBB1F761A68
:10228000DE887DE4FB79BDA3E530EE0214C167353D
:1022900060221090B002E1FFA532461E9597C8FC5F
:1022A00002B4DD71548612CAAE847E5105820DF2ED
:1022B000811CBD6B204926307038810CA014F019A8
:1022C0001565BBDC300AFAD372F3208EDB8C5DEE31
:1022D000C0530E9ACAE301179EF3E5C8E566F7DC22
:1022E000B4D304C23672C6829BE6A1F942B332B5BA
:1022F00056B3148BF144FFC9245E677F97C6746C94
:1023000081110E7BB32014AD4CAF8C3D98D541AEFE
:102310008076300AF0FFAB7E1A5F5E0D04F2EE4568
:102320001308E53004CF126EEEC3BA76FE94C453A0
:10233000A8BB287FC0820690400261F00348118D3F
:1023400096615A46B9D7490E8C6143A4ED98FE7C3C
:10235000CACBD2AFE51302BF3EB93EC9C3888C9940
:10236000F85C59B3A10673FC7F9E7CD4D11006C6DD
:102370000D592C027EA1B8D375E3E0B64E57B7983D
:102380000403E844373D21AEC9E789CFC64519BAF1
:10239000BB836038E8880180E51E6040521DB707A6
:1023A0002BB923401E0E7DA32C10E8F9E873D07BD7
:1023B0001A0127C6986F138BF7B4DE89FAF72AF94A
:1023C000ABE97F9A4711F786BB264897E0BA4D6282
:1023D000022C62F9C006AFF9198820010DAB8D946B
:1023E00082B4FEE7302818097797989C3AF00709DD
:1023F00083724105F7F32AD8A3D3CE0599D711F7F5
:102400009AFB80516CA27950E8E061244C22D32CD5
:10241000C6C0C840193B260A70F943193BDB980334
:1024200078BD983D0DCEB3CA233EE7F84614CAA73F
:102430001F19800172161E86E0D304EE5D7AF29BAE
:102440009B38B8301F0068FF6BF57FD6FE4FA5980C
:1024500008E3DFF35EB8779D98B7B37EFF8A8BE61B
:10246000FA7F4240E71021100C5A710CBF898E3060
:10247000C9E8E6DA61FBFE4098CAF498900A532F47
:10248000E0DECCC1BB874A40BC015C7FC250300259
:1024900026C0088D880A5F3F43D851C476E52F30A7
:1024A000F27B9802486BC530E6AE57B0E343121B8F
:1024B000FBD1C6ABDFCABBCC30FFEA6B20D15C4896
:1024C000370123E45CF5CA061082CD3009147C0381
:1024D000DBCE1CF998E4BA6666657120F8726E4B23
:1024E000117BF1507FAAFF8E19714D1003015A69BB
:1024F000D2E6FABC03B4F0E7CAA0201C79F8B961AF
:10250000FAAF7F8F4136C0CB50A74195754EAACA0E
:102510009B60EFFB0FBCA5D7616434C9BBA33D89A9
:102520003808D0A7C17FDB041A2FE50AED2121E787
:1025300052B9B3560DEB3A4F655D3CB6F9EB2050FE
:10254000B4E4ECC11A03EBDBF77902BB80C1980855
:102550004EFE90A3FED7B717599B1969BA7DEC2F91
:102560008E117BEF62A05F90B36C57D27BBA86B0BE
:102570009ED324800888B5A30471B3DF94A48BB7DD
:102580008458B11B69FB6F3298B51206DCC883EB27
:1025900044BD81FB900ACA18809FB38FB00F604082
:1025A0009A3868F0F378F2F27DD38807344072BA33
:1025B000381BF83025FDB7193047668BD6666EDFBD
:1025C000A2CAFA3C052F6A51B210C3FFAF7FB6B85A
:1025D00006029B19AC0CF6C80849FF85B3D60BDB85
:1025E000F17E77C803019FB3BAE340F59804DCE4B9
:1025F00080132D4412D8B3096EB382E6304046EC06
:1026000093CE39B5409B05954865B31AC5BBCBF051
:10261000345F3498FB7F9E218C77CB32E79663BF83
:1026200053BDBB3F100B42604746204892AF1A98FB
:102630001768F298CDC858B21910D3CDECBC985B8E
:1026400093A0FF485E4B27F6073713FBFC1BAF0335
:102650005B1802EA2B42EF1B9819986EDA1718AD37
:102660001D310FACD0AF6F7BEECE18DB0D9E7969BC
:10267000371BFFD725B5247A9808B638D7F5E6304A
:10268000FCBF413801ADFD7930184465CD0A30D02A
:10269000ABE6F2A009F7D55EB3EAB9220A49F7F72B
:1026A00037FF88A0ED28D7409198DA7D351689E468
:1026B0004981CF7F8408B8FB2FB334E0EF170410B3
:1026C000807FB7980913FC3277F83ADC2C80F7FA50
:1026D0007FCF4BCE80F999FFC82290D8DA2484FEB0
:1026E000320A06E43D91C0358C9290D766D7B76523
:1026F0001E26BB0F260CD38B3045FC19A33B8E1A2C
:10270000DC823AF8FC532F0B3DE001577A980EFF1C
:10271000109879FA800732F198ABEB100F6276F6D9
:10272000D8BC3009A71E30736FEB98814C842EB84B
:10273000E7FFE88C0B02EDBC981096088596C085E3
:102740005E162FC6FD45FEA9B3AF1130ADFE9877DA
:102750005DC0F6C7FD575FAF94C40FE05E980E08EA
:102760001AF4982A24DF9740F47FF7124C0A856DFB
:102770000CB0B3C8824DB94240BF1C30C3DEA005C7
:10278000F4FBB27DA230019C57DD4BFF4C112407B6
:102790007330400894689DD33A4C14021764A3F335
:1027A00030B8F96239C86FE1C0DCEFFAD6C4215005
:1027B00015FFBD84DD0AEFFF8A413F516E56F19847
:1027C000697E5AC8ADEB307D9820AF1480B1E3E14B
:1027D000D7AC802D0CE03FCCF8EE77A2BE7F668EA2
:1027E000DD5BFFC001285C3049D682BB47D6F5CB04
:1027F000DBC82FB05ABAF86F49085A72F9810B41F9
:10280000643977764284118EB3444811E78686DDB9
:1028100046F1FFA801049C790B0860348F0269958A
:10282000A00FE16F2F14FD4822B76BB118B74441D8
:102830001E554ECD0823D68C7D45CF54FCA4FAA35B
:10284000DC100119E6DBDF089A0ABB3718EE05A198
:1028500060D7DAB00816767FC88840100C84099BD0
:10286000307DFC23953078E6C5F9C85E8BA3E4BEC5
:102870009ECE4F480B10EFE3CC0D424A681EDE158A
:10288000201E52B0D308BCB51D311376070FE0FBF4
:10289000813C10F0F8656604DEC55FEF6DE798F9DE
:1028A0008BDBB2AD12521558B30197EB0C96466F05
:1028B000C801F298CCC8C447E9B30ED3C629FBDFE0
:1028C000C998B32C46199E984EB34C8109F166FD08
:1028D0009B449B024E5E1724E0CF0458E0611448ED
:1028E0000567C8164077C7C6BD0AB3A08AF9C6C92E
:1028F000FFB394EE03C410EFA2E2AB4096FF6E3438
:10290000D3EEF8FE20F5F710DF3F5A8F671FF3FE76
:102910001680442252EDB3EA1EEE08D4E00B136C8D
:10292000D3F0FE6C67F70C0A5562736FE0EFDB289B
:10293000EEACEB0249D668D8FC24F3661857DCAC41
:1029400037F8F6E4EE946E383912FFD3ACBE67FD6B
:10295000F318A04CFCC9F0EACFB8761FC6DADDDB6D
:102960006EF301A3F3C0FFB72036E8D3BC4F37495D
:1029700077A1942BC8EFA0E20FECD80720A31B731C
:10298000F37FBB7FCD4B48BE51D4DE8F443D52F325
:10299000140248D5CB5801A9241EF3D36513F3E6DE
:1029A000C8FB68EF631FCC6EFF6C46651A951BD39E
:1029B000368890FA4A0B083B6111DD19923E79F393
:1029C000B2D820D72C97833857CB1520C02CB32CE6
:1029D00058FF40D7ACBBFB68C6CD31673DBCBFE3F9
:1029E0001BDB5C88F80A456ACF8C8AAAFFDB4908A2
:1029F0004DCAFECFC77FFFD0B1F9A5D8108AF5C365
:102A00006D4D98146BFDCCFE4085DF81D90211EB32
:102A10003D01DD0A20B8F8E6F3A5A5AB8F054FDA36
:102A2000F48119C5A67EBF94CC4004AE0104E178C0
:102A3000E046BE813BF828FAF36E047F8EC4BD09E0
:102A400028F2B351D802E979759C663EE72E01322F
:102A500080BC9B89FDE33549EC32FDB929B00CEE11
:102A600010F0F9356F2CCCB4B334755D8A209636EE
:102A700027D0FC3612429DFCCB22040C91A70169A1
:102A800015F04186FFC3B5FF8097FBFEFF7FBF4B6C
:102A9000EDCC485EDB8390B14FD21F40D781E35B22
:102AA0007E975AF8ADF7F1FD4B0861B96DBAC2983F
:102AB000C616191015AEA34840AEFA6090FF2C66FA
:102AC0002831D4FFD8F2184C19B102AEFB4310A044
:102AD00002049615FD71C08F97765BFEADE320F57D
:102AE000CA0441F9ACFE6B6CFDF57A8092EFB3102D
:102AF000DD8378FD0A851FD163DC59D9B8FF9CB40A
:102B000061C752F8A33058192436FFDCFB157A5DF3
:102B100020CFF8542CAFECFE90FCEFB005A76F3936
:102B2000CB9162E0FEDEC8FEC4CCDD79BA8071C212
:102B30009FEDFF60FC8BAC73012CEB14CC1915FAE4
:102B400064B6C4C54C8223D68918F8C3257D149871
:102B50008FB602F32A0896B3205ECB9AFC7F59EC1D
:102B600004AB19F9145BC084AC1D10711B0264AC7A
:102B7000E43857FB7F04103FA505C89BD95A029142
:102B800066774A70FA67F99F89E60680CD58DF04B8
:102B900093DA40FB61AFAFF920FBFD33FBAA88FD60
:102BA00034DBC6D96540202E6E28118875DB89FE7E
:102BB0007F0CCEF3A3CDAE4CAA67DB4BFE0A2BB73E
:102BC000018098F5DE9BC2FDDFFFC10E24C9F02A0B
:102BD00094FA59156D29BFC84FB5C8BB98CE02806D
:102BE000F60423BA308047DB089301DAE341B420CE
:102BF00023CAF3DB851CF9DEB3908104039DBD2855
:102C0000480520F3305232A910BBA5ADB30513100F
:102C100020F60130B306308252F9C06003F23DE184
:102C2000C1228010E2743C2810DBF0FEFE1860ED3B
:102C30004D9534D580C9C342FDF6090160A07B18CB
:102C4000A06639D28010DDC60A40F120030B303E69
:102C500014811038024666E605344BEBB0EF31E5DF
:102C60006EA3338D1CD39FFEF15EA5704DC2C8FDCF
:102C700099F98340DF01C2F98265170463887CCC2F
:102C8000AFE122DFBC4A2B84BDE9B2EE1DB7F66985
:102C900018FE5752C8BE08DCA7CDFBD163F019DE81
:102CA0001D34F9C69637042DABF7107215376E6CCC
:102CB000F008F973AD65D2D704D5C7FBD678B3F861
:102CC000B808CCFD7406B95B88199BFDF1ECB0F92E
:102CD000026F562B04794CA0283623A3A2D4FB6E96
:102CE000CA67ACDD806336FB4072DA04C7B749407F
:102CF000652D6D01CCEC588F76F548FC2BEB6F04FD
:102D000029CE106DEB9B202000C47F524CB3F97E7E
:102D10006ECFF3E22C61CE33D43723B846B333CB36
:102D20008E043D9920631F530368FF633E5305895A
:102D30007A8E800317ED324893A6AF2FEB4E403CBE
:102D40004B5AED855165ACB3FB8C81D842A78DF70A
:102D50008006D0DC0892C4FB8DA01134023F5FB81E
:102D60002401809004C640086E44AE10A31394BBA7
:102D7000092065FD7FFB969706CE9E78DB620155A4
:102D8000CB6A16CD6CF8A26630E5FB18C8972819F7
:102D90000640F67A8A8058C68F2E1EA0D894ADFFC2
:102DA0004E2037D8C01CD887D990FD633B66B4CE7F
:102DB0004006AF0821F7F3508008670C1AC881C09D
:102DC000C844671E1AAB06A8D3FB7FC004B74841AE
:102DD00045B3C30904180DA0B32B0A3BDF0F113014
:102DE0004216C1F610580423892F02C6C00858E6BF
:102DF000136022E6056DF3C03BB1F0724878040F12
:102E0000CCFB2C39F00A1E1EA4F3E0013CCE7E1947
:102E1000E0411C80077077E0C083B3F13C08C62016
:102E2000E41EC483C603D33D8F10FF68667E80AE68
:102E3000A30C9394F318483EF384813010CE786647
:102E4000012010067E401800038DF386D3F360E165
:102E5000E6F3D988FE4CB38810CEE009E80259D7D2
:102E600077BB20B6F8302BBF91A415CD980E066025
:102E700002C55DB3B0FA20B692CAEE21EF1D98529A
:102E80000282CF7B212004847FFD3E462AFF31DE73
:102E9000D6FC919510182024EF679002F14BE15F6A
:102EA0007E27D48042902FC7FF7E98FD80B241FAE2
:102EB000B8BC9CBF611064FBE44EEEEE2AFE0D7BB5
:102EC000F07715EE06CE73FB9F12E6E028FB8DF53A
:102ED000D7160A344605A02E2BB93B9801289FE748
:102EE0001E66BBFF097BB3DD2EA2447FF1984971BA
:102EF0005617D9D3BC7F821047287AE0FA21566E44
:102F00009D9F2DEAA0C016D8D00241D8F7F3B0118A
:102F1000B67BB01266DC6FDE8FF3C2763572C5B059
:102F20009D90890201C0E8DB78980B095F4B987A85
:102F3000196FD1CC8BEECFC4100402489920960CA7
:102F40008A8D100273666778DCFF0145EB57BC067B
:102F5000DD980A16C026EA03FC4C9B391126FF7F38
:102F60006126B7D23270F1FBE05A9719E75F0B9DEB
:102F70003C80C505B0AF0E1E8BF360012CEFFBCC7F
:102F80009C07E81EFF7784F37401E081E007DEF41C
:102F900040D3940FD3F38BF11E92C8D383BC6B76CE
:102FA0001CFA84DFC14BE00CF4228F93F28BFB12EE
:102FB0004E4B7A69DDFFAFB47F8BFFE072D334F301
:102FC0003466F7E5E1FCC0B22053B302E08AEB06B9
:102FD000C1206914B382DA4130766432D5DE390219
:102FE0008A7D052206408898B3B680F698B8FB5BC8
:102FF000C67B984808BB41D8F020D153527268FB79
:1030000002412021049F6DFE673244127738AB22C3
:1030100039EE348456AD925DB308B5E7A89640C743
:103020006742A05E98EE208880E0CA6C8E4AED0868
:10303000663CB11976CC08829C27F4BCEE3267F866
:10304000289EB3EEB34C383051EEAAAAC038DF2424
:10305000C8BDA59A46081046B7A5E6F381FFCCF493
:10306000BEEE36DDD13E7F663DBB40E030C12F2352
:103070003116FA8E5FD7E498FF9E0919FF0450DBE2
:103080009C08600228F8EA342014C8693B60FB04FD
:10309000289011A09F7C96FEA2DD0573C36E71DEA1
:1030A000BB20D68E02DBC898AB9132111E5C31700A
:1030B000FA1B7F321361941464DC45D4C3CADE80EA
:1030C000C2844177FED4B6FF167511EF7A0E562DE5
:1030D000EF906BD346C0853069FE980B2680FD04C7
:1030E00019010B60113E673208B8F9E05AC1F9982E
:1030F000FC30FD3CA00730801E7998BF3E30860A28
:10310000131604E7B307290EC8E541193771F130EA
:10311000FE98E6880731F3C4057ADEB53ED350FD4C
:103120008081D067FE2FB739E540187A488240F792
:103130007841BC60B30429A2B687D5FF18BF9FE5CC
:10314000C423C643CAF3E0B7F9D918EDCF208CFAEF
:10315000B0081635FB58FFE7218C8049B5B0FDB1AA
:1031600080B76E41816CB3608097B36004185FDFF5
:103170004C279030DC62FD8D7A8860D7BE44C61043
:103180002282B3AF21C401207FBEF6AEBAC13B217B
:10319000EF43D463C7EB305F8BF190444008EF01FD
:1031A00005D340D710281D4DE098524FF9CFD202D9
:1031B00065390810A5BFBDC0B4BB41A3DF77C354B8
:1031C000665C306DB76996006DBB44B62FB2FA3CB1
:1031D000FC36ABBDC0936104B890CA07C0911D25F1
:1031E000F38001FFFEF758BA53EB3DF8417618FE25
:1031F000C623F9C85BB66AF3BB10E7FEE6F8FC6DC0
:10320000D76516ABF4AF3401E35C7D1B240DEE08EB
:1032100011367DE3BABF4CAF02CFE37606FE01A5BF
:103220004432C01A2233CF9088FA427E4A80E96144
:10323000FC3AFA5E05B4EF180493E130945C308AEE
:103240005952196790FFFBB1B8FA57AB9F5D13460F
:103250001AEE04C6093207C0488098B930205F05CD
:10326000F51006C184FA7262CEC8093176D6F8E04C
:103270009EE5B61EE35DF2C877F538407A98909FD8
:10328000E69A1A450B8C777DB107020F60FC3D79F9
:10329000D3FF2F35F330E598E25E83B2BB3CFCB838
:1032A0007FB4C9F2C5505F1866390C405F44772F70
:1032B0003844FD7402DB5FB681E33DC9CB66C0B51F
:1032C00040D2156CE6A1FFA5B38C0A46C43BD3BC23
:1032D000648C8205BFF3F4E4509A7EB98201C00881
:1032E000CD5C307BD328082541F39591C8BBFEA067
:1032F0004594D88457AF08130DF7E290C710025ECB
:10330000E25A87D72404FECB6C265076019FE64410
:103310001A282331BB50C298920D2DB8D168D3889A
:1033200002EF3B8B3E8F0406A8F98C3ED5FF40BAD6
:10333000FB10E6191AA689B3AB4CF65928BB80DC02
:10334000302FA233E01BC770FB7CBF18C498431515
:10335000C750E62002B2DBE7D2AEA7549466786687
:10336000FA113ABB0541C8D5C89DFFAD33A3C3418F
:10337000FC98F783A0FC042D9B9A70814D795290A4
:1033800006C408465A74F24DA00131109EB3A61A25
:1033900067059CDC451106CA6608B81CE5EA896029
:1033A000A3C96653B8F2C879E46AF90408496942C6
:1033B000FC918394935C091025B38016376EC83155
:1033C0007D6EAA96149709CF6610DA7B82FF09B149
:1033D0000806C01018019A03E32CE0EAB7867E5273
:1033E00023EFF87F112012F8F7E02E67F0E630386F
:1033F00020BD982CE48007F0461597F5F1307F4A00
:103400008EDECA1438A703B34AAF073FB29730C85D
:103410007010E6600CA0D320BD98793D60E0410CAF
:10342000B75F179DF52040DA1537B6C1FDA7FA152D
:1034300078F83B145ED7288A9BB2733D6120779958
:103440006B5EE5F0201039F9AD419DB360028C3E12
:10345000E0A246C0241857290F234630890277215D
:103460009854DF40FBA82A4C977BD866D504E5B377
:103470001192B33C1148FFA026466BC8214EAFFA0B
:10348000AC72BD480421C8FE7B30A8EFD4FE40B426
:10349000F5BBF598E398DD4242447BB2C8041207BD
:1034A0007898577A980A34F8B7ADCBC8D6FA08A6F8
:1034B000A5FEBCF7A26E54EF3DF850572ADFBFEFD0
:1034C000EC8132088BFFEB256C969CDDC80AED7809
:1034D000012217AEE2100AC180A690A57AE668B371
:1034E00040C771272A9911E6FE98B4823787D1EC3C
:1034F000D05E6BD1E1FAECBE69C821CC88CA26D077
:10350000E27CDC4221A4093405EFEC3EEFE1EEA7BA
:1035100080E70B1036BFD93DD5C0100211DF21E680
:1035200064FE983EEA12FA8031D5B20BF560122C97
:1035300002A500CC301811CDA622F31075BA6FE3A6
:10354000EEF419CFE053213ABD5F7FFE0226C0841E
:1035500098040B4AF09FFC7F16DAAF59FF7F3221A7
:10356000AFFA359865198378B065C878985A06E13E
:1035700030F35E98BB10D84B0EE0CFD6420AB07B3A
:10358000ED413C90F830BF5C0371D3F9C824C6D834
:10359000CDD30CBDFE1B09E4C8BFF06EC3FA767A2A
:1035A000F3804130884BE308F45D51BCB08093CB8D
:1035B000300833C798C631F90A110B66B3212CB90C
:1035C000A780F016C002408FD8220C81BF0527C803
:1035D000592480699AF31235CDE4301397CB1AAD94
:1035E000B31087B3D3A8FFD9A0051C30A44129A1EB
:1035F000F3E20213098922C48124BB86FE3ACEFF7E
:10360000A7FAEFF9C343AC1322D85E79AE922CCB64
:10361000C4C8415E98BF40953009A95788E6DD507F
:10362000FFB66D36FFEF88BE25F74B033712BFBBE1
:10363000CB728F30EBA172FAF3EADAFA50FCE34274
:103640007E3F30BA7605A0FBF9FF0D01BB28BEF422
:10365000C6BAB6EEE78F23331B977BD4703057E49E
:10366000C8A36FF34E3830BD4E5F66F904C8DDD194
:1036700081139E451242A098903C203084773DE40F
:1036800016AB2CEECF664B6636E65DB24BC902CB6D
:10369000C24E993FD9D45011F798047CFD81D101D5
:1036A000693E741320022404BF4E46EEC12898DC04
:1036B000FE246B51F5AFE8F4AA17FE23F8FF438709
:1036C0000B2E8411B008F216C11058598B3CDE98AD
:1036D0000216C008ECD7C820BD603202B0F9BF3C6A
:1036E00030833820071595C8FD3C1E047B98076081
:1036F000AE012D00F7963A143EFF122A0AEB02E0C3
:1037000041D7A57078A547FB988807BBF19630187C
:1037100099C8F670FA8081FC301DA7E112C438E325
:103720007BF38801314F41E59669EAE50BF3FF6EC3
:103730003C3066DFC8986698E608FD3611FC302BF1
:10374000E0CB78D9988258D8370C0C7978EBBB1736
:103750004FEDAD440BB830F5B30E91BAE3704EBEE9
:1037600090F340FD8ED206B4BC9853080DA1465C80
:10377000308109683EF321900412EEF7F43B94FA8D
:103780007FF505D1DA0AFF7B988840AF08DF2981F1
:10379000E261F175B40809A853441B04106E32CAE3
:1037A0007CC588C6BDF3F3BDFD56EEAA97EEFF7744
:1037B00085DD0BBBFF8DE1BCBBB25FDF77F610B7D9
:1037C000D6F0FAF5F51CE5DD5A379A0C6920FB07AF
:1037D000CFF3011C78EBBBB5EEA9FEB35AC1FF4194
:1037E000410391232B6F084DAF3EBCB6F6877DC6D3
:1037F00050FD79721CCABEBF8C7ACED104EA641A1D
:10380000F3F6821FEB0F9BDBDE107B6647FFBF28C2
:1038100097A008F60184D046FF4A9804F675FC2864
:10382000F984F9D7469BE0181043EB818C5962016B
:103830004079AE481FD6B382849010496EEE6681FF
:10384000EF014CB3CD1A098876CA0926B3E23DE3ED
:1038500010BF7F26A7C1C61360013EB3093102D84D
:10386000B83062F707AE2F5D5DD20FE598CB300E12
:103870004C85C81C01DB51EE1B860C7FAB05080391
:103880000FE8013D37D3F1F13D7D88799864C8F7A1
:10389000C6831840FA98B0FD2DAFBFF38DB733F54E
:1038A000C2DA2008713069DC29B302AE5845B3C3CF
:1038B000D4520164713D9B95C89BAE7029B324A27C
:1038C0004C19F875D45819E7814C824611047ED7FB
:1038D0000AD193ABDEF56DC430C0B24C7D4B227F74
:1038E0008B7E193F968D046BF384DFDD83DCFF3222
:1038F00022AA4177639C53D754FE1FF79B8840B49C
:103900003AEE33EA0BF39D30DF81DCDDDAC3C2AA85
:103910005F326519D3E7F31866EEFDE3DDD7FC01EE
:10392000CEB36B295FC71DD639FF208D1A9337B3ED
:10393000B1DF3DB346C714758E32D342F9F8CFFBE1
:10394000D9FC76DDF098EFDFF7DD6C668FB99FD894
:10395000CC408B6612FF65ADB5207AF1CA7BD59C51
:103960007FB01D9EF8220A5807F5EF1098D36476B1
:1039700030F8D3EDCCC851DE8FF33CFF44F556B29E
:10398000AF203019323E5D0BCDD3CF176CE6D9FD99
:103990006FECF9E3371C6CD398FFAF8148145FF3E9
:1039A000B5803F6D4DD4CD31CF21EBE2121DFFD458
:1039B00068FD8D7C14B03388FFDC916C664053ED5C
:1039C00062F2FFDB8F97596B20E6BEE4D819D888E6
:1039D000FE9080AEDE3160757880A1FCFF7B6FF7D2
:1039E00041AB8FFCEC2A1192FF9866C4527D089679
:1039F000C4CC676C4F9407FD5F67FD68B9AB845F0B
:103A000065AF04349C6C08A0F9B5C801C68338B70B
:103A10007A4B08CBED8980A3AB0888B4FC4FF51432
:103A2000950A400B4ADB60CB9382DF4B41E73CAF0A
:103A3000FD57C3B4EF61903C87A48BAB2B6D6047FF
:103A40007620D8FBEBDA498E93CC181066ABBB20FE
:103A50003DB2809808EC347319E905A1C8D7D62186
:103A6000CFBBEF36F9E8C9DB58F89D02A6406ED906
:103A700093DF796FF6FDC66957CEE7F3E0FFCC061A
:103A8000D7CF33C5FECDD321AAA5AD01E0935BFB13
:103A90004648F92CF011DBFFB8FF0FD6BD20FFE53B
:103AA000D8D8F962C1B1026366FC4BCEFBA9FE21F6
:103AB000CEE3302F76A804DC5E796BAABDC0C7B513
:103AC0006204660172637FCCB0FB48FA80E3301574
:103AD000587048A7DED52362DFC0D858FAFF2C7D86
:103AE00004DD36FCD342F2DDDF4D7734FCC12C1906
:103AF000C37F16A7657AB3FCC58BCDECE35CE5C547
:103B0000795F90B1FF25C1028D1868C29988C1EF15
:103B1000ECCC6B762E101120B34032BE8DC65619F8
:103B2000FA1C71D89FCB0C3808D6193061F19F9BD5
:103B30007C9055E9FC96DDA310E05E3FD2CD26D700
:103B40002D08AC2040BFB3177D910A03C8FF64164F
:103B5000559C9FF36CC5A304A4CCABF321CCF745D3
:103B6000AB28B7F9F99AF362263326CAB1405FE071
:103B70005A18FA3131E5B762A7B6ACE40151637067
:103B8000B2F88DA4CCF673569A102644EC10803C03
:103B90007FD6E5014AC940C7059D199A3167E5B945
:103BA00005BF2DFE402833FC9213252930DAFD286D
:103BB000025DCA0282F9CB125F31F7E57881657345
:103BC0000AD8C85AFB04BBAE0870FF97ED01037911
:103BD0006E2731A4021DE86D80CC55070832E7112D
:103BE00082EF066E2B508D2939D8FCFEC030A4A67A
:103BF000B443F4C89950DB2AF9B9A060069553DAAA
:103C00009C12300576E60D4B548416C00290F01BD2
:103C10001C8321E00C7AC0128004F325C11156F8F0
:103C2000BBFC8084B293D7C0FD212697E522F34DDB
:103C3000CC0C47B4691099C02830BD0A5E203FB64D
:103C400081B010060229D19030ED0AC8FCF4CC5E98
:103C5000E3BC15AF980EAE507EB3B2BCFC3ED8C2EA
:103C60007B0490FD20CDDF4C34B5D8408BF2720838
:103C70000BCFFAD465201A883CBE9914FA064A9AEA
:103C800002FFDE7222D539D84480F379C2949AB10A
:103C9000C003A0773C14F90266E5AE2C16A09DB3D4
:103CA000AFCC0C67BB9AF8FDD6D91023DB28012CCA
:103CB0006EB863C7F7CF71B2FAF243E365652624A5
:103CC000AF2C7D20F528828ABBAFA0F80C15FB94A1
:103CD00031E902641845C676EFB8F96E5964665743
:103CE000C6E512E757C8FB625EF7B1147FA49C0BD0
:103CF00002376D24C795F9E5794075A9ED4A50FC66
:103D00008E6B1C02046FE6CAFF202CF3ED5AAF1035
:103D1000F617FDF1368F6679F37A1A40C51633042B
:103D20002BA70CF17D6D49BACF083A47E004B68065
:103D300016AA414F9994658BC4D2A8659695A62C76
:103D4000D0B3A0C22CBC8BB6FEB3F0053DE4B2F6F6
:103D50000170FAC8FE18DFACEA04BE317ECF01C1A3
:103D600050B4FF244AEB620B82F3D2C47B4601229B
:103D70008B0D880212CE1FC5ED11200280DD9A0442
:103D8000DD13A005FF6A2BCA31522D85E5020428F8
:103D9000B386EAFF04251B8310BFF66CB0F8B9F8B0
:103DA0003BFF83184FEEF50631E2E4DC1C420B0CBE
:103DB0003C2CFFBB696709D3038078F3DCF684D31E
:103DC00073E6C8FD6ED7B7123C8FCB599DFD6B686B
:103DD00076647C781786F3B941D3224BC820FD4B1B
:103DE0004643039664BD146616A6C4BA13607DDD0F
:103DF000828130089DD3FEED41E916C204C760F808
:103E0000144C022030BC26C4229F62D321408091F2
:103E1000813088B9FCDD0777340A0378FA2626F367
:103E2000F0E4F37A3F0FE0013C671166ED33E040C8
:103E30001EF6787AE0909ED31EC4037967F3E4F30C
:103E400010A07FA1E506B9666072FA306FF3C22652
:103E5000F3A90130CE14B3EDE080C0BEA28DE045E1
:103E6000F359B3D308F96EB3DA0B627DF71EE0B3F2
:103E7000CB0881E02BDD1C049802B3B3101170B3A2
:103E80001D0932E7A6A9D384E638B2F87D83026F14
:103E9000D94909FDD62240AD14123E6FF7AAC023BE
:103EA00082FFFE180834092000447E57625786D1ED
:103EB00071C7CB938D9BEF5CFF10EB483FD75781C9
:103EC000FBDC47D49B4277802765EB45C7FA9FEE22
:103ED000EDCDA09093BB491A7DD0BE0624D14340BE
:103EE000BCEDB31101C876EF5C8AD044C1E808BFCD
:103EF00020CBC2D79881F898BF9FC96BB1696FE298
:103F000098E3D5F826D9C0485CCC3BD88867D0F870
:103F100029B9330C207746C5CB6405FC98F0690EAF
:103F20005B9E728E66EE6214D79A142898F7B84298
:103F30000C84EF09300A6E66D101EFDD3FB0E893E3
:103F40007073D986EEC004984D984CAD327B98487A
:103F500098AF081598E7EB980A5DB796F0980EF3BE
:103F6000985F6DB8813C7240FFFB30FE0328072349
:103F7000C398323C986FC6796DF31008787DDFC026
:103F8000982FDB1220F9B8A6B7EF4001B6AC80A895
:103F90004F819877DEAFF32DE7BD9879647ECC83AF
:103FA000D9B3C1B70833B3352A24038101DB20100C
:103FB0008DB3E032E6B3FE98DAE0FE9BD3EEF280FA
:103FC0008F95D1BEEFB688D55588CE185D44246B49
:103FD000E690F16802D79698675C20FA124023F3C6
:103FE0004D01D620FE60D890F88EC0CB2FE8FB6143
:103FF00023CE96F4DC8E0DE41105E8642F88416D24
:10400000D31008F22EE1195064F898B8E543FFB7D1
:104010000DCDB922CFFA9D13A6EC771F92E798F346
:104020003001096FC730F34B60FEB304FC98DF6DBD
:10403000FBBED03522C8DBD91AF64632B87D9811BE
:104040006FC6308D3730FDCBD816D6E4619C30C6B4
:1040500020C4FF18052360418C80096C66B98AA8CA
:104060000BFFA8A6109001300486E9C042587A10D0
:10407000C54C027FCF328A2361843E22893021C819
:10408000D3963002672F301EE630E281CBD72A511B
:104090001966F601E6413C5FBD788807F120723071
:1040A00078FE1B16B8FA37803037E2AAFB052F26B8
:1040B000DC8F26CCE0303640471E30E6DBB0FDAD6D
:1040C000B38B37E340DB16C199B3BF1AD915409BB8
:1040D000E3BD05F3980DB2B3D0C8E53062BF859853
:1040E000130820CD0124F790FEE2134440BB54FF97
:1040F000C24555959D24814801EB40D20242681F7C
:1041000053A191048927D84F4990846809E6F604A1
:1041100009C0FC3797E8B2FF44C0B3FCE580D54046
:10412000B5FE7D2DB4F453FD97ABEBFD0375FEBFDB
:1041300040B167F998FC30034452B9540F3CF51074
:10414000DD3485C32665209A04E019F398BECC843B
:10415000B0F63D100C74B19636B3674D80D4261975
:10416000F55C30EF12444C78B3D983D7033721F490
:1041700091DF9803A3E3AA44A414D342C1AF28FB60
:10418000812022CAFA238FCA1F29E610C2205803B1
:10419000A360168CBFAC096A66A713F80E30DDE188
:1041A000101108E64106229837136040F14C0810C0
:1041B00001E3C0F988180220A9BF808CBE9E0030A0
:1041C000C8F798C80378F7100FE241F1306705147B
:1041D000644E544901C534E4493DE0AFF10478D35D
:1041E00036C8A0FC3027E6D3D0FB66EF4930087F05
:1041F000DB05E5F591E8E5071445F565E5C81DE142
:10420000EDB8806017056C7EC9851913AFF6CB46F3
:10421000C148B35797B39FF4D090AE86F6A58010EF
:1042200045E0BB6130C8B22E167FA60B40084C801B
:1042300005B002A0DB8F30E3DC6CAFC8FA8309085D
:104240002122D57404EDB303223D9792F7E1DD7886
:10425000851E1011225C0DEAAE242F302D8BEF2B22
:1042600008116DC848F98CBDB5FF08A71AC816E932
:10427000E949045E99F6A4E144119E296A04B681D5
:10428000CD9341A7AE6BB0381930C8E0A7052B79A4
:10429000B8E1195A37EC44016F9653ACD1F3C49D81
:1042A0007DCCB72E3081F18BF0A588D303CDE668A5
:1042B000F9E437E364E5C8FB3ACD0888430512F614
:1042C000FD0AF76683BCD5BB5CC35D6B8240C40D41
:1042D000EF67E4C8C8E11BB8C5E8CDE6C0FCC8B3C9
:1042E000C628A72B23BCB9190583A0DB50E1BD0D5F
:1042F000047E7F2E91E5D1E482852B3CE38D9FEFF8
:1043000062110C0459C89846E39813033A8C7776E7
:10431000FE38F8D9D57F99980DF37840F9F501C2A8
:10432000B37B57A7BAC5A5D11F5CED88E08AC4DB73
:10433000D998F22009B983F341F63C0830FCDC3D02
:10434000960473DA15A3200CFFBC316AEDBC01E8BA
:10435000416469A602B9A82DF23830E3D3FDB8381C
:10436000B6F96DB301235DC646C008DE98B20133CD
:10437000C8402FC9FD7725ECB326C2BBD3A691E078
:1043800011EF418B406F9D7B18FFA1D0FE98BF2499
:10439000F707C496F077E80490F89815A7323A65C5
:1043A00066DDE5F698040AECA4D5E7204DA005D912
:1043B000C8DD445AAAB18DE862B6CC25C430E86E97
:1043C000F4643DB333A8A52019C959D52CE9A6F842
:1043D0008038DFB6B110D9C8D70631DAE1F030B98C
:1043E0003DB354D310415E27EACDE522ED30F9D537
:1043F0007F49611EE277504184D7DB42F15711FAC1
:1044000019BE98781306D9932436ABBD76B36FEBFB
:104410002EB522CEB0CA8D3C66C9FC89C844775CF3
:10442000CFD3B7F27419010861233A864216C9C87E
:10443000BFFD60042C8011B0FFB22F66791935DA08
:10444000AF42ED32F146697BBC43602292D320F348
:1044500079F42123609CFB880930021A5219E33D4C
:104460002B25C8F8A71130BAE7667771478DD6A516
:10447000046ED590CDD5D0C4D3F369C92383D35E60
:104480008B873D88B6F8E8B11B836043202797509F
:1044900030F540A692CCF5E5BCE5597C79D565F2BE
:1044A0000311DB501558360B608D1106C292B37F95
:1044B000DF32E59BA7C97A98B0DCC06DFF0934856F
:1044C000E6A6489096D32057AD9820FFAC08117B04
:1044D00098A4090E8197B806F17B3A199B6499E27A
:1044E00030F2A5CDD58206D3C208B442F3AC8BC658
:1044F0009552B4C6CA2B9BCB01C521AC1AB3A0669A
:104500002C51258FB109E7DC71FFC5ECB440F613DF
:1045100058FE646EF019F5F92072D006E0612EF3B2
:10452000B8D76610BEA46384ACA440DBD7CD027AB2
:10453000988151E723ED340C4436FB28FBBF7F5DA7
:10454000647FABC534A564D5E6CBBB4B30B32A69D9
:1045500014F82BF799751B289DC5B41A245E7BA30C
:104560008AFAD5D328FFDD0AB8FF046A450308603C
:1045700019FE9838D42058CBBD172C104065C8E6DA
:10458000669DA9EBC840E0CB8559BC4858EDDC627C
:1045900004B8E20816C2AF9945D380E6462BDE4B3D
:1045A0005ED26DE698FEC559F564FFCC5F0DD7412C
:1045B0001F2E4A8857E0C4021045E0EE6B201EC84B
:1045C00043D3C90FE4E6778AFADBD69803FE9877DF
:1045D00019303EE56F96A84F80A57AD331DFCFD84A
:1045E00009E6FE6CB3B501F14BE06D90C86F213563
:1045F000B3F945C04636EBB3419DC0092022BFBE8A
:104600004B90012004B0D919129B43FC229778A249
:10461000FF121068AE021630BF87B5F764C03E8047
:1046200050B93D92A526EE49DF02CDA101F316C88F
:10463000F3131E2081A805BFA5F8627E9A5F0C7F48
:10464000EF8A90D0627A104B7DB24FE2118805FE5E
:10465000AA6DA685EAF30226A5F838FFDFE0CC5C58
:1046600011F8D128085F7B9820107FDE0DD6BD247D
:1046700066CCE53B507DE87A8521504191BC23F31F
:10468000BC98868719849BF390FE7374FC989BE515
:104690004610D78C04F96320FF0AEE4A107E984436
:1046A00022A5020850EDA388A0D49844F3A501F3F5
:1046B000A0789814E6B772EF171088605E655D8F7A
:1046C0001BC11881980B1B144CFB8005B00802C558
:1046D00066B3DD64E652FC50B3306128C14F988464
:1046E00060114C31E7304FF3101820C8A060B73389
:1046F00050F3C86A667E5CD5F8DF1C8095E8E78BCE
:1047000071301F64F1CCD3ABC427EFA505E8CCC84A
:1047100020DFE0809AC83D3CF3C6FF446B08B6F941
:10472000F8CC0FF1E56665F05D5B04524856B301C5
:10473000EC2F8CEE373DF5988805F3B5FD6BB398FB
:10474000086F83FD5D46FE980644D76FE3E330446F
:104750001123E0F411315C84C0D71361B778813044
:1047600089F3E6F3AF4C126BAF19C6C9FFB30C77F0
:10477000937FB3C201D86299E3D370FDBF208DF758
:1047800078D7CE3FF3A752F1221077FDFF402311D7
:10479000288DB6D398FA369479B379EBF9FDEC8588
:1047A0002AB171D630D8F924F866BD1AB3E4EC2BDF
:1047B000D71B7139AA88FBC267662C5026B151DF1E
:1047C000D1CCFAADB691AFA071F49EB32FE4E7C996
:1047D000CA05E51996E7B3209BD6E8FC4CBF19CD76
:1047E000EB4CDEA344CDB3B97724019824019A178A
:1047F000D8B9FCF7D932867339FB32FF18FDFD407A
:1048000088ACEC025320EB5C21FBC0A8FA61E1FF0D
:1048100095FB9A383C66594CC6EFEBD2181D6CA735
:1048200008FEDFB1653525808E19BBC566F6B9E196
:104830007998A7D1E9E59FFBB4102DD95CB7F95859
:104840002301AFD89CFFEDF910B3EFF8B1FE65CDB1
:1048500020E6DD27C6B87A6B01D19EA0BCFA73E2D0
:104860006AD2BC563704A2982004FD321C4C7AF45C
:104870002602B7D66D3D80081B9DB0FD8FF3D9FC95
:10488000C6BB40C26BFEA0108002500A181A400935
:10489000E3F839B5036CEDED0220014596EF6ACEE1
:1048A00043F571FFB2A240F178B45DC1D740916980
:1048B000724CD920622C66A408F1843A4006BB14DD
:1048C00088016FEB6B70482EDEFB321CF54B108AB3
:1048D000F9D38A36E598FD69C5F9EB77DDCC91C24D
:1048E000189FDB33767402D9CC802FF35B3D0C2804
:1048F000B320C4C90B87408E088C0CE3B6CBBB4FEA
:104900000533AAFB4260B3FFFA93C22EB16F46D6BD
:10491000B8FDC74CC82AF43E18B0664731FF9E3F29
:10492000308B0ACCD4CEDF9B40F282EA3B7E8E7B7A
:10493000FDDD570A9D5628F8A9DB95F4FBCF6117DA
:10494000EFC8045B8E42EBC41050B0FBAD3780461D
:1049500079203C6E7DD8FF0265B6A37EDF1FDDF6B1
:1049600030FB82A7F67F800179E2859A930358FE97
:10497000676CB108111781AC37105BB667808BD1BB
:10498000103D0228B2FC3F3E20657538896524AE93
:104990005B60B6D5400163DCE8F961B7D9DF8B9382
:1049A000049B07D0FB093616C7F959407758B1F672
:1049B0006D7B0256D7013BC6FC3D962E3EC2615F21
:1049C0002CCA017C4CF38E76F6A8FCC2AF580D8041
:1049D000E3DD30FF623FAE62E66A3A3AB1CCEEB256
:1049E000B1B87ACE597524ADD7D8F98F188EF11F8A
:1049F000E6349C49D998FBDEA567AC1F20774B07AE
:104A00002D2496E5FBDC1662DE19B4015868C0C19E
:104A100049BB7650F866F2F880F39373583C5C58C3
:104A2000DFC73BC6D0FD0A5FB29AD69184602716D5
:104A30004A8120D7A675EC88CE68AE10F9C2FCD1A9
:104A40006C82D891FBDD81D6FA09696105F1B6A0C7
:104A5000474A025C520DF96A4BF0825FE032010670
:104A60007B908104506D39AA66C8B96016308C05F8
:104A7000D021D95F1838FC14B009C60A3CF4208153
:104A8000CD09650CD1A4964835B328059A2EFDD7DB
:104A9000A50482E00E02E4CC8487460C0244049014
:104AA0001A7806A46FB5225EBBC05247D37CCD777F
:104AB0002BEF04D9F68443C00FF4803ADD56036926
:104AC000EDC105D0FE7FDAD9EDA571082C4B20FF92
:104AD000B62ED380281043D74480EB2DF77E0F16D7
:104AE000F0FD9B9C108024D984DD5580E4F3C33114
:104AF000BB2065ED8DEC490241179FB3FECC70FAE7
:104B000010DFCFD03580DB4E1DDADEFB33976B0232
:104B100019B11D99D9A4FEE62CCBBB0419ED574061
:104B200094F66EFAD810FBD72D5040C525768C71BF
:104B30002EBA2AD8F566058BF6D4043B73511F2D87
:104B4000FF5BAF082C21402FCD840119634D9520C8
:104B5000FF886944B82EB1687EEE27040C04F3FF89
:104B6000979F9EA06F06DBC0F5177D6A94ADB408D1
:104B7000F38335A82044C09305AA5E84C852B324A9
:104B8000DEF8F3663C6EDB2046D9128B6C40979BB7
:104B9000809CE0894BF39055990836CAB0FF27FAFC
:104BA000A12033EDFC4FC7F36858B1FB8CBD5B8C83
:104BB000026A6F63BA447BD918F8631EC26FDB9E2A
:104BC00020559D409BBB1F04377626A869669C0B29
:104BD00066FDCD97EDE281039ADA9B68B3485028D1
:104BE0009B0A11651F80725D04BE32C4162D0467D6
:104BF0005B3CABFF21FD180930FD9803466979D570
:104C000089F857BFE04C6BAE019338DAFA60A5C063
:104C1000C03FFC017F9880D646B879167AC560CA35
:104C2000FD6940CE37FAA009E5F442CB941429CAB5
:104C300022038885625CCB9680899A437EDB02A83A
:104C4000B481BC1DFDECEEC028F2FC236142D65FAE
:104C5000ECF41C339144D2589FB2CB2602D39F3C34
:104C6000428C8041B064209BC21EF3F0FB60E54B98
:104C70003033B00338FBE069FC491E0881B0032CD7
:104C8000F3F4B4E08D6807B9F0F6780F0FE4DB01B8
:104C90003CFFA70320FC012C0848FC8026CBF060D9
:104CA000F240F2660E485919E7B3B7E006C00C812E
:104CB000D30CD9F3301E74A404F328D0B351F4A656
:104CC000C7B37008D9B31A77A5444C0C99DDF00826
:104CD0001528E002B30B106BB3448022E740FAAF13
:104CE000483DA9D04846B6FF10EC0801409FBD548E
:104CF000CAC4D215CD4DA18FE177E0202880F27D86
:104D000052DBDDD6097CF8A18AEB93108CC947D21F
:104D100098017AE75567D5FF8006CDD281D976769E
:104D20006DFEFCC8FE40238DD7F9DF3C71EA9BDBAA
:104D30005C11FDAF07F4775DEF04A92FAF4E86201D
:104D4000E0413042E82DB3FD98E1E8F8A4097AD3B8
:104D5000D69824576C15818FDA81697F5F77B7BC4D
:104D6000EF6DF201CBD25E5129503CEE7F420AF941
:104D70005257A9C0138E935BC11873EB400C6FEBB5
:104D80006D51DEFA8E477CCF02F5B212EF9420010E
:104D90008C80F409300A26CE7AD1C040E6F56AFE4E
:104DA0006040FB5C3297267812186230E4F8380BCA
:104DB0000F375EB94A84F40D9BE8A0054DFFF7203C
:104DC0000F64413C8003377F1E97F08098F748F8C6
:104DD00080419CF4666CF7BF4036D70C68B3DD7F2A
:104DE00034F65FDD181F0C80CC81301602B4E8FA6F
:104DF000CBF6D859FF516912A24684FFAE5BBF843F
:104E00008C93A5B314FFB681190A49B346F77FCF37
:104E1000ECB3113004BB22CFDBFACC6819F8FF7574
:104E20008FBDED4442B797981130DD9A66F40E239A
:104E30001966E022F2BD63445AD75EE847763FE345
:104E4000492401041030B7FED9A1E36583C32CCDFA
:104E5000C4B35CECB37704FD5C0202836B9EBED8E6
:104E6000FA60DFCF5D5CCC2CF7B906EE0264688A8D
:104E7000A721FA4D771B19C63BDE4C7797985A410C
:104E8000F7CF400114DBC8FA9170EEE4DB92798D24
:104E900090187ECFFAC56F51FF5EE5B980A2084237
:104EA000EEE0F110BD73BE2488039440D738FE5A5B
:104EB00031B64D2011BE980659F55C02906601CFBF
:104EC000B3E70BFF114D8E260217D13E302C8049DF
:104ED0003040BF728870B33AC4FE6508FAFE6F4A6C
:104EE000302035B8F398F93020B30F7E3207070928
:104EF0000F38003C802B8F10E6306401F5F306E597
:104F0000E4FD220878FEE5183B4027B72080ACA9D5
:104F100040EF1B98FF098889C3BC0BDB967D06BD5B
:104F2000D0D30C84C628FE2DED9719402E80105C3E
:104F3000F71AAB6EB34BEB05FFB62048FCB06E34EE
:104F4000B3E73051B01070B3BFE9661BE618B2C8C2
:104F50008D6878B0D746409403BC98B2F5DDB32194
:104F60004EFB12ABE0343097E1F5ABA708CDA53D81
:104F7000EF82AC50D3730DC2094C779B98E5F59D39
:104F8000E6985BFF4277D960BB39C82D66C501B38F
:104F9000EF398098F84011E66CAD1E802CBE6DC8CC
:104FA0000BD7B330BEE02977A9FB0594CA01D176AF
:104FB000D7B6A8A531A66DC988BF92B1B4FDCAC83D
:104FC00022EF46E3C097AE44E70F29806B96C8B93D
:104FD00094F45D77A6FFCE6DBEB4040C30BF6D2691
:104FE00064FF43428294FAEAABD1C022F3DC73D16E
:104FF0004118E2FE98F6818C0240EB660ABD836799
:10500000FE2BCF0504311216BD87103CD3118C0442
:1050100059B0C6385818057404A03BDA0A7AF9303A
:1050200003BF3228F5B0C8F098150FE77E1F79A7A7
:10503000943C508DA20DF20F3880070469E0983D32
:10504000E0403C887B9816C07FD7C97B77E0F8802A
:105050007F94ADB6667F6E5B18EADBF2B8EBCE2BC1
:10506000773622F14AB791E596A1F375AAEE660864
:1050700031FBEDDFE386CAB8685FE011DB6418F34B
:10508000C882B609FB22CBB5DD6B018680BBB308B5
:1050900042F582053104DDB11801A7E6ACB052FB40
:1050A0008D0FBA0675882010EB9414BDE8096DE7E2
:1050B000AFAEB322E7E203A8237A4814D7B4F021B5
:1050C00054A220B73F72C098E898FAC7CA59FF01A6
:1050D0009C50B503F08DE99413DBA8BB28E2085778
:1050E000DFD69804BE983464FDC0656BFC2D806EDD
:1050F000B16F9B2E70DEF54913AA338DA07C98B753
:1051000074602F205BF3C07B3BB8FDDB04100F31D4
:10511000B34C90107F5164B76D61BA1908F7BE5F48
:10512000038DBF83D598C0A4CDECC28C24B406F502
:105130008BA0AB3740FF11B71730BC2B2C02511896
:10514000E8DE0442F43B53B7CF41FF9D4B438A93C3
:105150004886EB162EAEF798412C04D105B0D371DA
:1051600012AFBD9841C0FBE0FE697E40C89F03F3CB
:10517000248007305A5F3BF3200327EFB7D73D0F5A
:105180008A045E8536E0F447AE9820E523C4A7E69E
:10519000A43C5EFD88D8C3D3555C0CE39893C0094A
:1051A000B96AAF9A98F25A0A0A25D3E04099E7986B
:1051B00085D24EF3A8F8805B46B27E0C813851E070
:1051C000E73146448851D0A7A3E52224BB82092AAF
:1051D000F0B981B30868B35E9868B3B508EE8BD0B8
:1051E000FAFEA3D5FBF4505D63F6575FDE35B37F5F
:1051F00035B5626AC67DDD17F7081489301D33C4E2
:1052000030295E8C8584ACB2FC54CB20B164B6F3FB
:1052100002805EFD4950372AFF92D32D39740FFF6B
:10522000DDF908EC8660FD6B80965D4083E6F92C25
:105230006EC3820F9779088AB9EE7B4F2733AAFF96
:10524000CD5EB501642BFDEBBC6F6727361140FDC9
:10525000885D7E361204BDB16F95C8C7A3202305B3
:105260003FBA4B80046FA373302EB35C8A5878BF6B
:105270004C681C8FB61D8B8039C8E3F8EE6FEF4B7E
:10528000448C8431BC18AAE6582C88B2DAD01FF7B7
:10529000FA55277AB9BFF8460D12A4AD2C17513034
:1052A00012D7060202CA35B384F032AB198D30FC36
:1052B00098EE5A3D24AB0C18D68B81BEEB5C0E7376
:1052C0005B0230B90B770735EC1EB8E02015E2968B
:1052D000C84F3E303C2060F884DFCF98CAF52FF7E6
:1052E0003F9828C8E65E49F57A46055C9AF37FA4A4
:1052F000F2106696D7E0DC305F7F0D3DE2F1FF8073
:1053000049C7B3FDE5C6B3DFCCB820F3CADAE65F20
:105310008313FA66862669860102B27BDFD498443D
:105320002F0595E89808EFF398DF7420480C41A00A
:10533000B501F14BFB77BD4B43DD5367C819246FB3
:10534000F6194429B54B084C84426037F230846D1D
:10535000FDFE4F8232197D980146E26366475FB4D5
:1053600013F3E54190466EE41037BBF32028FEFCB2
:1053700098039B3F50105F3C98646DF582B5E21234
:105380007BA42155DF1B77DAD8203B3B953040F4D6
:1053900048E8BB14F3610EFD1C3BBFFEA87F6D986F
:1053A00048023C98FF47E701B740FDCC6AA6FB598D
:1053B0005517E793EE16A4586BC530A49D90D111F4
:1053C0000819DE98D90AF91E985A52ED888518777F
:1053D0009A01DB214C0BA766DEDC47D50B7FE7EE9D
:1053E000C6C0482B759E300C820590EF867FB8EAC8
:1053F0008719590678B2FA7D981069E798FE223825
:10540000070F628065FFCC131DAF0B2CAAC29BF067
:10541000DF1E04CE30812C90B3BB0E8AC4F4193C3D
:10542000DA20FF789846DEF20DA8C00A1033937D8B
:10543000E50B01AA9618B696EF825F0506113BDFD1
:10544000E0663D81FE8089C7E067C8288046B3DFFB
:10545000CCED6402248D1A465F8B0AF6F841C1FF39
:10546000129884D3B649BD8B107FCFCCB30A58FFB6
:105470005E9D6BCA390AE84F752496C8B9BB66179A
:105480006671720BEF127044D3EBABC7F6FAA2460B
:10549000AF102398B2F3C848B7FF2282933CF8714B
:1054A000CC256DFF4AC8FB155BFF08FD98402CB565
:1054B000BCE598026219FDBDBFFCCE982F162E9850
:1054C000CBEA2C436CA3A3F94F5CE232893D1BC5A8
:1054D0005BAB757BDE98150B86BD81AC98F5165BD2
:1054E0008078BE7FB3B7FF7F0B3054FBAD2C6FC706
:1054F000309B28E572EFEA86CD6CEFAD086FE7468A
:105500001205DF0144ABE747F3FDCC37F7E0FD219F
:105510009926A40003F9898C8205189684C2E70CA9
:105520002080818E015EDF665E3C4F5A8D1BAE0887
:10553000D304B1E044189909E0043CFE053112405F
:10554000C402506F5534FF3241A8F9D76040295D3D
:10555000321903C57810EEE0012DCBC85CB6BBE074
:105560007D2FEE2520081E0A680E3CA0EF3F98D73D
:105570006BE47330F040D10EC02C26190CDAFDFF1D
:105580006898802066BD9882AD013615D2CF5AE664
:1055900080F6E15892B301DE43454896C13718F1D1
:1055A00003FC7DB9C21B4269FF7FF0F980297F505F
:1055B00008B3D7278C924BB340FF23B1F371666BCE
:1055C0004BDC40B8AA41C0BDC0B3087BB304C07770
:1055D0009198793B6F40B8FC272DE18DF7FA6BDC91
:1055E000B3FCF04CEE40FF18DBFF6CFF7E5FD3A4F2
:1055F0001A366AF32FA8D35575B522FD1F9BEFB35A
:105600002873D3CDE0CFF3C98C5280FDC205FF5083
:10561000F92EF6C46F6ADF38D8D8D8FA999398660D
:10562000BD28B344F6E758FD202CD3D22124D31350
:10563000C4FEF9E32A8D0A8F66F792CEEFFAA5FF32
:105640003106B7DEF724BF246D497D1F114419E2EE
:105650007AEF08D3ED8EC8D5F3CA7D9E062E580F7B
:10566000208BFE5402E68BFA04E28033B18524F3EA
:105670009A51594466ADEE018DB17F434988FAC70E
:10568000FECCDCFFF33230E0DDF3214DF3C0FF9EB2
:1056900094349880F79602C7FC2F67985DAAFFE0C4
:1056A000C67CE5CF162F6A38DAD810FEF9B7E623A4
:1056B0006F5FEDF6517ADD58C63ADEC4561A40697E
:1056C000F0754C949CB1303266CB1FCC80495B8026
:1056D000B40223B9C03BF65FD0526609C28F97C2AD
:1056E0005BF955BAEC02F519FA983B1210C7BFC224
:1056F0000446485A0D10DFDD6B60FC80FBB8B42017
:105700002DEE0E17CEFBE63FF6CA20DDDE09B7E52B
:10571000F61163CDF754FB2FE5A0F80BBB1040B298
:1057200078ED6BAC3004318E443640A078B4A4C818
:10573000E260F7F806C8201120C9FA470603E6A37D
:10574000F8FCEDEDCB140ABA253F1004C0A68AF38D
:10575000283227E8142067FAA8806099503D2E452A
:10576000CC080C5D1036CB9C01FF7FF941C6597CFB
:10577000CF67F9A488E569B719ED9E932FB3EBA124
:1057800065C484DFC7DA4240ACD38063C09646204C
:105790005A9166B67E20F82DC6313EFFBB026CC919
:1057A000C5EDFE8B7A1F01C50CBE69A188B3F8CC8C
:1057B000B4F3B21FFBC27FD8CCFA2470CBB1E0EEB9
:1057C0002FCA350F582010BA5F04D5D6107819B0FB
:1057D000D8436CFF88FE22FBD91E3121B31909364C
:1057E000CFCFD6DDF8FDC9E3160D962140D9A0B084
:1057F000FB838C452751DE981984DA7B63EA3E18D7
:105800003F192CBE4BB6AC0128B459C67E4BC12102
:105810005EDB3B026B9DFD4046E722B4B01CB3E863
:1058200074B476A4B8FB141BCBF1878B7FFEC9FD43
:10583000614FCB52081CFE7588FACDE3850C0557E5
:1058400019B7F76B70FE98ED6DE6476FACE5F9CED2
:10585000D8E920AFACE00822F677A0FFC47A99FC23
:10586000D8A001D12611E0A07DE89628EC58FE20B2
:105870002CEBC61ADEE0F0FBCB338BCC7DFDDFE8F2
:1058800010967E691199DBB18019317D73113FDB70
:10589000FF50FE33EC60E23EEAE225CEF1C0882CF8
:1058A000B241E6EF64FD05229E70CD011089808B28
:1058B000F9F5B66D0308908C122F027B168040FF1D
:1058C0009228BA97FE08033E6AC6631CC7B810CE7A
:1058D0000857029113B3E2BB662A45C8802DEF3406
:1058E000CD206D10A90216594EFEA26FDD6740084B
:1058F00029F881F724964085AE728834FC12E18045
:10590000DD85C0504AEF024FE630DC22844A330383
:1059100060B0051D99D799A94B807A503AF61A20A4
:105920004CC9698E96E1AE140A1AA6A27934D8FB46
:105930008021DF37DE10FDC6C1220D5A52CD8D0EFB
:105940004089FA53D005A02EFA28E6350320707F4F
:105950000511F29042F7017E9E04FB78FE80C26D35
:10596000D9B808DCF3BF0868BFAA8F5CF793C8F901
:10597000209240EC21132392538011F3CA1CE29130
:105980001436CAD44BAC886CE25B40FA37168BDA1B
:10599000A484F82D074D2796132079A188365764E3
:1059A000FE39EB07083FBD97080401A8E66673E5DA
:1059B00080FF6619C4EB8A2071F3E463BE8336B3BB
:1059C000FCC6F618690D9FDD2A38FD98E563A6C36D
:1059D00059479FFDBCB0FE8B88B8F3CC47977D0834
:1059E0006EC824C53DB920B1F9D540028E280C04FB
:1059F000FDDD9898B1FF552804A089B535E837AD8D
:105A0000CCF35F5B0840705DAE96B3147DE618651D
:105A10009A3CF5328E67C2B0FB6418A78FEFC38043
:105A20005968206B7502248E8C4E9691D8FCC9FB68
:105A3000DA16CD07808C665B03CBF55AFEA91A9F58
:105A4000F4649667F17FE6E931CEE8C8FD209D86D3
:105A500006D008BA4382E5EF10A2DB34CF685C11B0
:105A600004D89340080C84CF2151D8409848DE00D8
:105A7000419120F0EE78F851F80665B99593FB9FB7
:105A8000301AF50F04B2D708DBFEE360FFE001CB6C
:105A9000FF3A0C8005B9013518627F503BD33010B6
:105AA000CBACF0D40F30813C3E07C4201E10D3F0A5
:105AB000C72C35E8FFA6345BB2804644399AB12141
:105AC00036B25020E6D198608B6A46DD1E461F0232
:105AD000180179516EEA70F0B31B0802673E30027C
