:100000000C94FC400C941B410C941B410C941B4120
:100010000C941B410C94F4440C9458450C94BC452E
:100020000C94CF450C941B410C9426440C941B411A
:100030000C941B410C941B410C941B410C941B41D0
:100040000C941B410C941B410C941B410C941B41C0
:100050000C941B410C941B410C941B410C941B41B0
:100060000C941B410C941B410C941B410C941B41A0
:100070000C941B410C941B410C941B410C941B4190
:100080000C941B410C941B410C941B417F7F7F7F80
:100090007F7F7F7F7F7F7F7F7F7F7F7F7F7F7F7F70
:1000A0007F7F7F7F7F7F070007047F7F7F7F7F7F4A
:1000B000077F7F7F7F7F057F047F7F7F7F7F7F7FBD
:1000C0000F7F0E7F067F0D7F0C7F7F7F7F7F1F7FDF
:1000D000177F167F157F1C7F147F7F7F7F7F007FB8
:1000E000277F1E7F257F1D7F247F7F7F7F7F187F57
:1000F000207F217F267F227F237F7F7F7F7F7F7FDF
:10010000107F197F1A7F1B7F137F7F7F7F7F0818E7
:10011000117F127F0A7F037F0B7F7F7F7F7F081015
:10012000081F097F080F027F08197F7F7F7F7F7F6D
:1001300008027F7F081308117F7F7F7F070C087FED
:10014000017F080B7F7F08077F7F7F7F7F7F080706
:100150007F7F7F7F7F7F7F7F07037F7F7F7F047F1E
:100160007F7F1C7F1B7F7F7F7F7F7F7F037F0810C8
:100170000C7F247F237F137F7A7F7F7F7F7F08110F
:10018000147F081908200B7F7F7F7F7F7F7F7F7F11
:100190007F7F7F7F7F7F7F7F7F7F7F7F7F7F7F7F6F
:1001A0007F7F7F7F7F7F7F7F7F7F7F7F7F7F7F7F5F
:1001B0007F7F7F7F7F7F7F7F7F7F7F7F7F7F7F7F4F
:1001C0007F7F7F7F7F7F7F7F7F7F7F7F7F7F7F7F3F
:1001D0007F7F7F7F7F7F7F7F7F7F7F7F7F7F7F7F2F
:1001E0007F7F7F7F7F7F7F7F7F7F7F7F7F7F7F7F1F
:1001F0007F7F7F7F7F7F7F7F7F7F7F7F7F7F7F7F0F
:100200007F7F7F7F7F7F7F7F7F7F7F7F7F7F7F7FFE
:100210007F7F7F7F7F7F7F7F7F7F7F7F7F7F7F7FEE
:1002200008277F7F7F7F7F7F7F7F7F7F7F7F7F7FAD
:100230007F7F7F7F7F7F7F7F7F7F7F7F7F7F7F7FCE
:10024000017F7F7F7F7F7F7F7F7F7F7F7F7F7F7F3C
:100250007F7F7F7F7F7F7F7F7F7F7F7F7F7F08158F
:100260007F7F072408057F7F7F7F7F7F080D070B37
:1002700007237F7F0713071B7A7F7F7F7F7F7F7F27
:10028000071C7F7F7F7F07147F7F7F7FFF1F627F39
:10029000C23C006088FFFFA0089001324006C8C63B
:1002A0000019FF03050A4414812241CF068AF32076
:1002B0000366FBA00C94290034FF7FED81325006C9
:1002C000CA4CDE1930E0A7A9C68800983CD36480E8
:1002D0000CFFB9E8FD0015E0025CF8800B70012E00
:1002E0007804687E2AA002F467F350F3C00598A84A
:1002F000E6A06CE4B312F8E054800AD07B2A4045B3
:10030000E054C9D374D3E7B80017B960F809824341
:10031000FF98FF62E8E510180240CCF4EA400808B4
:10032000180120DB048045E00894E4CCD8F9FC20D7
:1003300003E5402DE591C780CAFC73D8200844CB63
:100340000467A0B32826B814023BDBAB2824D6DF11
:1003500041839EF7FAA502F7900B78AC65D084250F
:10036000FC48E3CBA822206EDDF6180312489A80E1
:10037000CC0902C03610023214ED9FF3F44080A87D
:10038000FB682DB6594021A44043A8F70334D40C90
:10039000EC678E67200284F120FCB6827BEC9A50D9
:1003A000206C9E852406F8FAF3EF751D01E7CD98C1
:1003B000FCBAFF04CA02CE807C5160653B9CD0FE33
:1003C000408F905EEA19E79310AEE5C02F5733D8FF
:1003D000D4B7014FA6C0FD0218C87209040310D695
:1003E00019BA33FFFE7D30B6822F9DD285B00F2221
:1003F0004D39E5448939198021046C1E426CDDA019
:100400009F01EF0A2E9EFFE202D0FDC08091DC42E8
:10041000064BFC0B62142088019CD58918584C238C
:1004200060A3E1A63D6608F3300AC6C07309EC225A
:10043000610C84B3610C0C8C036C121BFEE0FB019D
:100440003C800700904378A903F30820EA7B1EC490
:100450008358BF6B3C677CC6CCE03DD310C0E0C086
:10046000B77879EC1ED00318769002D3FC68F88038
:1004700001D0C306EC90B69F51F333A94018F36046
:1004800028F893CF521941D3014D66146091F9CCED
:1004900008EFDC200CD3D248FEC009F5B3137F6C03
:1004A000848521F36E400858B31491B3E486190E85
:1004B00091C97CB3011302048C53F820C5E8FAF902
:1004C0005124C100D09536BD699F089A103952F267
:1004D0006CFE1B8504DFADA5BC00BC98BC9CEFED99
:1004E00053822D44E2B9DD2042E298AE94191026E1
:1004F00071EAB29302D5C480641B6E7E9206F3E06B
:1005000043E473967F6B6B50FAAFAB2EF2B4EF20DF
:100510007BF097D0F6C041DFCD9897F7047B98C465
:10052000202B83EC8C969F6020F7A5F8FB08F31135
:10053000921026E5586AA1AE3012F1F3B6BDE580FF
:10054000B1103F5C9810C7A5035201B8E9D3D32C72
:10055000FA1153F9FB80483002B87701FA78E23F8C
:1005600016C444081E139E588009B110CFE668B027
:10057000085F69FD05228CAB9518052EB305222274
:10058000E059FBE0FF3C900731201EC428EAC5E596
:10059000F3F07BB8837828F3E6CE7EB4E0813C802C
:1005A000011402431978B60FF198FD3AD30F027087
:1005B0000938FA849FE598E4C5624B1910BF050419
:1005C0007FAC98014FCF98FAA45BE00CFDB77D4556
:1005D000FE98F80BF9802018D216595AC07044A51D
:1005E0000CB39808D3661680EBB30A57F88505302C
:1005F0002E8B68192362C0DF9E1660080C027FC62E
:1006000004E8F820492469BD5D12091607CAB8E25A
:100610003F87D6980421CF3005028424A510BF035C
:100620007876DAF88434B20B0C525F1628B3F8BE31
:1006300080E32B7DDBAB20F18F9BE7E5AFC2064764
:1006400019206FE433C27B97081081FC4178CBDA24
:10065000D082715D7E87208F16F5D60989733006AA
:10066000C1BC808DD89FE3384EE93758FD93917F08
:100670003BB7212811F88ABC8B939560FC80641BE2
:100680001933F7820588167258A35DEDEB9812D3E3
:10069000EA53FD2C3EDEA01070FD14311C220639F9
:1006A0002876EFA3601164C820A1A63393245E9836
:1006B000B331BB6408FB11B12046C2B8EA96A00270
:1006C000DF67B423D78220D0F881E00C0607B83D5D
:1006D000BCC5E2E7E52390FE982EF5E3233566E2FC
:1006E000771003A6EBD31A20D7981C8CEBF319D7FD
:1006F000F304A36BF8DF08CAAA20E38AF60990F393
:10070000A01DC77DF1909E1971D30AF3E0E23DE38D
:10071000EFCE4EF5B80CCF4988FA8010EB32420686
:1007200058DF890197227FCC0846BC41B39B1981D1
:10073000303B99CA8629EDBB16D29893FDBB7190C8
:1007400068EAFA0B61040C10F75ED0F9200B3482D2
:1007500077BB98434208D57C06F559CC306912B175
:10076000842CD7C83617F7C4357F06306FECC68D9A
:1007700022F7B90144FC88F4938C9FDB9520F52087
:100780009C195E186EF66E962D3D1DC620D8F8DEBB
:1007900092709534237F331801A0B3D078AFB39E05
:1007A000FF320177EF8F20CDC80C92B435C202DD45
:1007B0008460F8C99A86FD596EBD09C9A20A50B86D
:1007C00030CC376FCE408121EC8EE0B2C8C9E23028
:1007D0004AD301AFEE647BFA0C85F8CC1001821885
:1007E000A1ED61123D4BA0357F10F79F71309BB595
:1007F00068F84180BB16C2BB0661ED014C08B72703
:10080000A35B528B80323795FBE5C87E5CC42BFD21
:10081000982CEF880792F18B904DE68802A883060A
:10082000D9C8B405D0CC06E00F8F632D01F53C206C
:100830000F68909B65FBD778C5AE595F3D62EA981B
:1008400008F3985E31301E2F7D3D9803027F1A30E9
:10085000ABE080CB98DC6B206BFFC2E49092462724
:10086000195AC0F030D76C58823E4BCA306EDA1538
:1008700094FFC28A45B430D53591FBF0DBB0407FA0
:100880006124909D0519A0FE724A0ABD999AEE480E
:100890002208FEE4B480D39BF8498113F79805063B
:1008A00080EF145128CAC83FF165AF253CF22122E0
:1008B0000134DF7CFFC841048946016DF1945EDE9E
:1008C000624BFF808F1E33F75AE70880FEEC28FF4B
:1008D0004230A010109D040212FD0593085253C02F
:1008E0007BB3800C2DC6BCA0D9F8303BD74480BE6A
:1008F0008CCC3FB37F9438FBA80820302ED0CCC3DB
:100900000B468C8D8650ACBDBBC862AB5908AEB3EC
:100910008405013D12F9C86FE777EBEF0828908452
:10092000CA3C4AFD8009EBC006C4DC0711600CD24A
:10093000B505CAA1BBF48BD32041F3B108671718E2
:100940006504269637B364442D86087F7F11FF2007
:100950009009314138FEE0133CA0767AD5C8037A7D
:10096000DAA0CBC8B930D05C234BF3086119956D80
:10097000EF98048003717E59C81CB3772E030FCF04
:100980009BA8FD049E01CC06C0406D7383793D0693
:100990004766EA1580C472C84D1A2542FC3D64A919
:1009A000EA83D304214CE099F8C288AC01F47B4877
:1009B000100BE03A0C1220F39894B301C6EC318A84
:1009C00004CE75C9801130F7AFFDD9E620BB49F1DF
:1009D00060044CC065B0F7703018069E54220211B6
:1009E00005687BEB8504EEC21482FD35690BDB5B89
:1009F00012F49840ACBC87C882AE892E7AA108A3B5
:100A000076F8044D2050241B2CF9FC3FFE5C0E624E
:100A1000F845A4EA8708FBCF2BC8B1A2DCF05CC282
:100A2000194653529B04EFF575D8F860CA4501ED9D
:100A30007188EAEA41F3B8FC9889FFB00866FC7F48
:100A4000077EB9348BF8ECF69D56935093FC7918D9
:100A5000FF10986B909043248381E68610202454E5
:100A6000E3465CD9A80885B3EBC508F5BAA33AFDFF
:100A70004C013D845723FF0A010C81083204BBBF9F
:100A8000FCE03F26C113641AFC7F013A122F59BFC4
:100A90005FF67F0969190D66F4C13C7410600208A5
:100AA0001484725C0509E9D34C88C6C1FDD7E041C6
:100AB000353D3020E9A518E58CE0BD8BB1071EC49B
:100AC000EE037820E33037EF80E63003F0B64934A8
:100AD0007A3B0F5F2E984A0338F31BD34DFFC8664D
:100AE0000FD38B3DCD8B72C852EEE688D521C06402
:100AF000FB9806C271F6FC3079FF17393F308881C8
:100B00003008BBFD49CD0AB36AC0D2C080A681F5CA
:100B1000F304CBB3813BD34B09E01272A6906BB3C5
:100B20008CF78C12A0B30B1FA680053001FFE8FEE6
:100B3000A085348114D2FE001A400A692001305A7F
:100B40003400D265FC060913F30559E66FB649FE79
:100B50009801DE9885A182BB0D2E9B3BB393308913
:100B6000D23435EAFBB02C2E0400A0D36696FDC427
:100B7000F2C10E79CACBCF7F3898BF5BD3E41AAFEE
:100B8000C63C6BD807D8F9E02633F524FDA2296FBF
:100B90000DDAC024D0FDCE0C02F60880C47E3205EA
:100BA00032DAAFB718D34ADA7608487FF4B0FC24BB
:100BB00089304216D2D020D861BA2457E61106C334
:100BC0003B2701802010CFC8050109291AE02146E2
:100BD000EEEFE4A00812445F500B40FEF9841130A0
:100BE0000142EE87181310FC4682093110261A4480
:100BF000F97F8FCD0C88E6089B9D2E04857B98C4D9
:100C000024733904806A4E009E69C74C90090162C2
:100C1000EBFA6040953D31EA9801F3D2F3BB3277AD
:100C2000B3987940F341623E9822BCD3F0198278A0
:100C3000E5400304BCFCF281D0195C30CF813C1745
:100C4000F888408630BD9818775DBCA7027DCFC27A
:100C500066F3C4B930816BEB8B01BA47D72016100D
:100C6000D31CD332BCFE45B776010B5888F39110E4
:100C7000120CD3B008DDB320EC98410C0B503CB300
:100C800085CD0DDE4BBFA2EB05EE5B57A740A1DC87
:100C9000884290F968FF205034DCFCC0021A4008FA
:100CA0006A95E9E1CB23D4F93021EC012081433569
:100CB000C801E698BC3026D3BC86FF9E7FBA422985
:100CC0002807A4401494F8E380717379F2BFE89583
:100CD000083FF3FF37ED7FF59F036FB782E5E0E351
:100CE000DCBFFA7A43E0F389BEC9B559F077173013
:100CF0008B8BE873C47E3629E3302B34C89079415E
:100D0000A60CF7FFA5AED6D039EC2161812631F2D1
:100D1000A24B0C5CECC81004E6668821B6B53BC655
:100D20006615088DCC3C2EFF78D8B020C3F85F48FC
:100D300030110604FE2498201322020CB93D00F164
:100D400026C00498BFA360088C02109631A9BDCDBF
:100D5000B601CD473013E0BA4360E8214004569213
:100D6000BB58B439F8FC88092104C9FDAF301AA575
:100D7000DD1ECFF5100FE4AE016823F220F3B2F5CB
:100D80009BE6080753365CEB3EE881D298F1408F32
:100D9000E0F3C2B95D0680C86EC603E60368FEBB19
:100DA00024106BC07D9FE5D2E6E5E1F36D0516BB2F
:100DB000D8AB5E8CB658D78F303B01AD0A80D3607C
:100DC0002BFA6520B0A33D5308036120AFAE4B085A
:100DD0004AB381F3EBC4FECAC8D2A7EB84FC4B60D4
:100DE000CB626B8804EF91F7E40B6408CE0C81C6EC
:100DF00021C05866C9FF99C67D3EFFD7F8FBD62AA9
:100E00004BCAD2B91D016699F3FF32B128B4D38021
:100E1000B066486CFF98FF6C93CE31D1B239F34B7A
:100E2000194B9601DF1759E44006F5F94CD788FCB9
:100E3000D99B5F9EB3043A7ACF0166806AD36C6611
:100E40006C884CC6D0F94711F8DEA85106A6449C20
:100E5000516387B199FF2DB1F8F98D7CF926167F82
:100E6000CC98FB6AD9D93080E621FE4E788432F1E5
:100E7000F0E40D0C78FF26875338FDDD54407FD910
:100E8000F8A62D2215631F6CD9E8FADF3E6619B566
:100E9000E28160C61BE2C8F8274F3858F60897D899
:100EA00034D29E20D97B10AF38D8CC14CFADE50218
:100EB000D2ED08F4C70BA9343DFFD3657E1F203B5C
:100EC00017F35FCCC0DF33E90E19FB3263B87F86BE
:100ED00045589BAFAF46012FA42FEC3FF0F6E92415
:100EE000FA829B01E7FF24D7FF2ECC254B8E018A87
:100EF000FFC84110C5080237C450798EBF853DCE6A
:100F00001040AB20043D8879E5FC114EEB124018EF
:100F100066BF09AE1463D850F6010A1922B0816089
:100F2000A5BBA0DF6D5850190A039304E0B322213A
:100F3000F37C0A5A4140290F0520A8FB7A2F90EF35
:100F4000C8F725BB45B616BFAE69C1CC9621B39292
:100F500099B2213028FC610108404342CC87816767
:100F60000C9810D8927140DCCA1389FA4614FFA07D
:100F7000A5080110FF2C96010F2FEBE481FA4451D4
:100F8000E0C699ED1CB0FD9FC6AFFF7F10B378BFE0
:100F90002580DE40100525AF8B1739C1D8BF802FC3
:100FA000804BEA74B352733297FF3E1062FAEC62E0
:100FB000CEE71050F98CC149DA0867F9908DF657E1
:100FC00012FFAECBB3B18C35A50A80B2BD02D553AA
:100FD0000862FBC33BCBE8FE3B4C394C1AC7CF0E33
:100FE00076F2B8FA0233BB1C0137ACB1599B80686A
:100FF000FADB98FF18C3D1898A19BFEDDC50FB05D5
:10100000036147DB95F61840CC3FB45ACB1AFD314B
:10101000E8257360A88456A0C2DE0BB240799E0218
:1010200066A6364066FEEEB25796E3803C211D89E7
:10103000E6C21095AF38E6E525C63D3F9C84200109
:10104000B5FF36B9CE7B0858B27BCCF007ED4561D1
:101050009E854BFF24F8D1EF5E4B0C0A66AC8508E9
:101060002F2C52B0C8AC7EFFB17A259102C106E0A8
:10107000FF309FCC157DFFDCB2FF8C963D6DFF10DD
:10108000FFC8843EDF8CB32158A010876CA748DCD2
:10109000B32EF433B4D2CB31A7AF767328FF40130D
:1010A000FD888FB6FFC8FF4A4780CEE182F6671BF6
:1010B000699865C7D8CC4BCB2F4038F6CF3666D869
:1010C00049568073B420806342B0C9DB6D7CFFF663
:1010D000D07866B0EB9BD6AB02FF0F66A5A002EB03
:1010E0006D499E2DB6043C8791DFECDDD28B36E551
:1010F00005D58070F363F3F0BDFAA40141D0199BCC
:10110000539B80F30131BF04634444C64AB308389B
:1011100067F51A2073D88C9CB17B3F4B4B2093CB47
:10112000DDED9A76C35AD7E71EF0F95BB0A010C880
:10113000960285BB9456E90443E30862AB7F024CF8
:10114000DB2E401E967E40C7F81085FE66F23028E2
:10115000DD140218278B03FC0DA04F5C54400A03DA
:101160002F1B3351FD429029D5AC5A8A1A0C0CC55D
:10117000BB05A642A3511979FB208005A081F92166
:10118000AF10DFEA2ABED004012128884B69E101B3
:101190009180BD60830464FE3780B31712CC9190B8
:1011A000F8C0CC7714AD100B0499E9C255EFCE29E5
:1011B00005EE28FD8D6FFF9A0865F5C10536623E84
:1011C00007B802E4537D9B201065FF142018DAF95C
:1011D00080ED3FFB3688288D26F9C240629DE7A24C
:1011E000409DFB9B718BF4B8229D7BD078FC10183E
:1011F000EB903F2D308C0FC3CD768CECFB8DE596BC
:10120000520128767AB908E3F41DCEF790FFC6B6EE
:1012100057CFECFC401B0215C909D95F70B7FBCB57
:101220003D3C2858F7D6597459251A08F604A8F9F0
:10123000E54082DC46A544E301DFB51C882CF5B40B
:101240002289AD610854F512D06637A3B8FEF9C201
:10125000B948F919624B36101CDBE7DBD849F83F77
:10126000E8DBF3C342FFCB7B35EF8863F9BBD901E1
:1012700010E9490104A510F38CE566D6799C605D00
:10128000E16246313C9FB50CD949666BC693171E87
:10129000BCCFB884F7D7A76FF830F966FAFE20C63E
:1012A0000CAC7D97B8A3FBDE16CB42F807CFF58CCC
:1012B00010AAEA20DCE3D5F304C440F8B50557F0E2
:1012C000A0D2C9EC41F5D2408A7F28A0048BB52278
:1012D0006885DE8440AA35FB1ABBD91480C6ECD8D9
:1012E000FC28FB98734F3056DCF3BB64E0B4414BF1
:1012F000F6C0FD5F5B4030AC4030FCB737F7E860CC
:1013000040027F8EF8ED06D097B20C35F2B0F9C6E8
:101310001E576C5104A3953D4B8096852D9AE30989
:10132000AF2F35C03CF3FE0678FF0550AAD7034F18
:10133000B89208310134E024F3686667A6B351DC43
:1013400046DBCEA3568846FFE7059020012C809E01
:1013500021F318FBE0DBA83BC02C600C3C201AF00A
:101360006C0C03024FE77FD33C8078E5EE7A200FC8
:1013700061CB07F26706C0BA400FBB64F67FF8DBAB
:10138000ED7B7384412F73584603AF0E87E0200630
:10139000D4F4FF5C0906D3C78340B90C194896F909
:1013A000E042B34C051020B3D0318719112002B4AC
:1013B00086FD7F44ABB3405A9D042F014CDF66F697
:1013C000B8FD2081DEBC814801AD243C89F3B36CBB
:1013D00020461976FD0A21110484AEAF3704FD774B
:1013E00020D97DF20948010DFAB9DBFB64F4B67629
:1013F0002DB7439E2D772DB1BC983B27D6FC419A43
:10140000E216FAD9EEC0720A680509BFACEC039F78
:101410000098D9A001B5304B5A60F8C9B89F809D9B
:1014200083C60F4432F528FD5013666641808D4215
:10143000FC98C4B4540744A0206BA0A52D01F51559
:101440000822EC53A07A81F92DC05FCA1340218095
:1014500001DA88B0294163250267FD7FFFC9B526FF
:101460005FA94CE398DB58898840F310808111F321
:101470007196F950DE98BF39CD98090C1C0F625E49
:1014800098C6803CBD0783780DA78F98FC1C40024E
:101490009538F3D56AFB7F046F9532B6E598F6EC84
:1014A00084F36662BC306BE598E6A58CF31880A2E5
:1014B00066C656B9F29B6238B3200884165049B309
:1014C000897B982930DE2016668460DCB3B9462417
:1014D0007F3419E0F8CF7BF601A0AF08579844F6A7
:1014E0000410849E981D88EA5890F43712D6B0688C
:1014F0005B3F789872F9FE513058668D6D979EFF6C
:101500004B9D02C08332F893F659C0FA8DF5FA9BD1
:1015100002F3293FCC98CDD1FA30B8E4B4AC6DAD2C
:101520002D8218E38605FCB20C334F41775EDAF367
:101530007FB2988029CFCE2D68BB23CB9F76151420
:10154000DE98E60240098C4CE6CD82F95F73D883C1
:10155000591E030121882AE2303DAE698CAF02B1E9
:10156000720DC4E3226A2569E598FF7F8102600459
:10157000BB8CDD98D0FA60A73DE11E800318AF3721
:1015800030708071307AC501CEEB17F8309B920E27
:10159000087E1C30E61C484C7810A6C69C28FB5ED2
:1015A000ACD979B619E21C30CB0C80E63BF76282ED
:1015B0007EDC02EFD9F3605E9847D3371F69FFB432
:1015C000D7C042B331F624AE015AB388B6B3053062
:1015D00072668074E00A40C0057DDD93E0982620A5
:1015E000F310908DFD2B80549F10D09DA3AA41280D
:1015F00008F8B3AFFD070D69919C66812334E6912D
:101600002012F8095FEEF1C42E26F99DFFBF84DB9E
:1016100098BCFC7EDBDE03674FC0206FEBC5103447
:101620006659C239D5B304BD9890B5FA6B5304C05E
:10163000E97FDD095F9A6ECCB33C926602A1BFD010
:101640008015BF0330AE015A3082FB1EC0FD28F961
:10165000F0BAC152662328E3EBB2ABD7B6FC0A73EB
:101660006608021FA6C02DF1B830F44540DE7F2485
:10167000CDDFF3FCE8310278180374626FDE0430CA
:101680009A2FA659F930A766BDE9460128181AF025
:1016900069AFDF72D29002A784952DE1CA3001FABA
:1016A0005CF298F7C5036840C83C08BD064F83FE4E
:1016B00096D6D06866F9D33D9007F0D37F2E3002DE
:1016C000F598047130FE9841D02FFE22CAA03BD677
:1016D000CCB8DE337DFECCB3C8C1D9401819C8BB25
:1016E00004DB986010D55C23F77FF998E8B3447663
:1016F0008866D9E3FE98032102EE46C0085ED30A4D
:10170000E0BF04D29860E0FCF6C8FE2044BF21EBA5
:10171000A30842D09884B4161299AF883660FB2B88
:1017200027DEDD28110441B7091A99105481A97FD9
:101730005206970ABA03E6A950FBDC368973BE202D
:101740002F46337516BB04EB5E21C8E0915BCFAD2D
:10175000E60179BFD8A3FCE94E5D3003BFA5403058
:10176000800701CB19188219B3BECC6068304007DE
:101770007F4864E34D73C884AE82D374C0F6E8FE3C
:101780006CD825F0E67BE5A0205DA4457DBB49082B
:1017900011D994E01D10668052E1DF39C8096880D4
:1017A000CEA189F762FE5A2671CA30931428EB1035
:1017B000B43DC2BCE920622169B0B5805AB1A0BD78
:1017C000B409100221AA5942F3FA8BA6F13212335E
:1017D0008449F6A8DEFCE01977AF9879E7309001EC
:1017E000F026980C78863EF3081B3720C83F9B30C4
:1017F0001E10BC988B9727BBB0C4026BC840F8FB87
:1018000084017F3898420A38B640D36DCC9617C011
:10181000FEE544E0D3BF10EC72AE1030B9CF72FFDA
:10182000801109B3B302208F08307F4364D813605E
:10183000A677C88930298510D3226DCC304208CCD8
:10184000B3141409F6E770FF20BF1EF84210090810
:1018500081201490D57980DE986DF0CC1BE6C834D9
:10186000E4F582EFE16801E430401C48024A03CA13
:101870008E1BCFB3FB5D37893C383EF3B5807DB31B
:10188000FF30086DC2D47FF37B7DAEF6C050FC6F95
:10189000F9E318E02D23F2C8EF0AB8CEFDCC40E200
:1018A000B8D6DF35C806E51BF6828DB098FD91D815
:1018B00082099E20284404D4CBF5AF049F9230EADD
:1018C000E6925010D94B249912D404B34436CDD1AA
:1018D00052F9CEFD17AF09F8B8408401324F5A874C
:1018E0002371CA9DF5CCFB520A80F4A5F58CE98AD8
:1018F000C4A3FC050B60020C8423C7F894FFAA9DC7
:101900005C5D3D3658200366E8088D0CB9303CB567
:10191000885ABB44B7F8E181799895CD30F040778B
:101920007779207F8498BFFA37E2C0FBE51004E99D
:10193000820131F32077D9AC7E9805AF4A0746E2A1
:10194000305BF40864C80BC15DBBF63EC881F8800B
:1019500009D5B312CB64017FCE69DB4953195EDC34
:101960004694B36BC8AA46043C36D9C8D726D0875C
:1019700098A562051036E2FE20BEF4AE41AE463BAD
:101980006A3EC822404813D3CC9843F97F3492FA78
:10199000A648A56821FFE95F20D0F1106BED9858AB
:1019A000FDB7A5AD08B9AF9F98D6B1BE8B66AEB3F3
:1019B0000538E819DF961BC44FF461A8F8F56F9657
:1019C000189E98A5F0F38112193680D521526FE444
:1019D000437ABD215C107EF69701C0BE4873FAF8C9
:1019E000FD09B3824008455BE79890664A5B223F59
:1019F000CF98DAAAFAE82CB0BB91E5ACD32D578882
:101A00007D6598B5FC5CB398C0F74C8221B07255E7
:101A10001889D76985BC3067CAD5A7883705C144FE
:101A2000EE052CEFCDE446FD987A5F120E8485BF5B
:101A3000B8FEB4604D191E0319AF819839F3C8037D
:101A4000B119C6F369B3DC10BB03EBF93A9B0F0283
:101A5000E723073140CB1CC0C64E7630F0F908FCB6
:101A600030D76110AFB83114F3E36C596467961A3C
:101A70006FC802EB57FD9830B610FD950C0B190D91
:101A80006E9D64ED21607887B4E03BF38C1040B329
:101A9000BB6621E60216C82510BA6EEDBF29EB48D9
:101AA00077B614E7C828FDDA2011FEF1A3EF8BAC5E
:101AB000343BFC90084E5830A0873D80A010058232
:101AC0007BA50A40F40368814DF0F8122090401A7B
:101AD000C8D1FF5B98E0F898BF26C53B8AFF677FB7
:101AE0009B4D8BB3CB6D00AFBF34C25EDFB603CD71
:101AF000A404E619BFFDB5FF77B304C00317EA9647
:101B0000B8DAC1713019B3E7197EACC44DC0B32047
:101B1000DD505E06D7B02037DD7810B4A7A8FD7081
:101B2000791A12665144F3904CDC6782B3666726DB
:101B30008805EBA0204089A0D3127757B184D795B0
:101B40005863F73B30CDEBF9AE902EDA6080086138
:101B50003BD7D20AF6D30B8566F21A9CFD61AAA880
:101B60008C6718210D4418AC05A75A2EB010162505
:101B7000B2BA7F920C845F85CBE9FD266CDFC87812
:101B8000E598ABE8804E3930E6076BA6B8BB19D7AD
:101B9000E841ABA5328E03F198F14BF371BD6B18A0
:101BA0002EF3DEE9F0FB5BFBE9157DD9FC3009BEC5
:101BB000B6DC80058DF8D802A866B7D3F3A5F3F597
:101BC00006B4C03F13FAE623F8F3EF20B357F5B697
:101BD000D6C008DC306FABFA086DF5E3413001B5D3
:101BE000E3FED94020481BDBB38202B4A3FF6C980C
:101BF000B8FAFFB74EE3AE24B38CD25CFFDF87594F
:101C000005FA207859DDD240F71781F36401F366B5
:101C1000ACB42144D31376D3A8FC030DCCFFF73921
:101C200018FF28679B9398F38E58C8DBD390FF6EFC
:101C3000A0B54018CFDE10EDFAADCFDBE44FB643D0
:101C40003FA4EDCCFFB008BCFDE2DCD5C7CDFFB2B0
:101C50000EEE33F39BE6A0FC4F34E600518D51BEEF
:101C60008EF3D1193FAA4CABAFBB502D7B8006B28F
:101C70003E5FC2BFB2CCBF32FB46B93EFFB2105688
:101C80007320C6F6CB3D4021D8FB669848F9FF8CFF
:101C9000B68310FD24D346A9528F10C73C9FDDFFA9
:101CA000F0B2FEC832B7C7FE89DCF8CF6C95B0FD44
:101CB000CF359CFB9819591C04AD540128BBF54144
:101CC000F867118CD3941B67ED4892B967361340BF
:101CD000FEE6BE726B04C54BB0882D5ECDF319D104
:101CE000EFF8DAAD77047CA80410302C4061B040E6
:101CF00047C97D5E9406CC0480CE083478DA98FF1C
:101D000069357B7880C8AD1064E90CA08756CB9408
:101D100064111568179B549065F1A138D814500AC6
:101D2000DC018E40AEB3017D60BB063F35116248D9
:101D30000E0826EFB080F415C0AD82D8892282B299
:101D4000883E8011F02B29E0049926F8140A1BAD77
:101D500084A642CBE0FFC47F908061075916DCE582
:101D6000B904A1A4CBFF88A84DF51E812010B6258B
:101D7000C5D1B128D8A78052CB4140E75F2ED93CCE
:101D8000815A03DBA888F82FAC3A686DCAE5B8021F
:101D90009E5529B4E3FA661622580DE7685804E404
:101DA000CADBE6CDEC77DF402C663F37FFEEEF98DD
:101DB000FEC8FBB40A35BF4046F822D1B6585A19BE
:101DC00022FE2E41D3EC229EB1EDC57101A19EED04
:101DD0001960FB979D8D4020B9589A72B0088B9678
:101DE0000FFDE6CE7F180BFF9994CDA0B0F9E77CEC
:101DF000ED36E66FC6402FA4AFD866F564A6E7B10E
:101E000003FB68F80587FF346EA35D176E4461FA23
:101E1000ADD8CDD5AF0484DEAC67EEC206BF32FDCF
:101E2000638B68088DC142E1311E5BF9012EA92048
:101E3000301941EBFE7655D8FFC93050AB2C70FD00
:101E4000BB347649FD141884FF361318FF368267B9
:101E5000AC5001932A3DE9D8B3F87CE5C7FA0DC62A
:101E60000B19CCE52A31CDDEEC0298FD2A25C4F809
:101E7000411E7A1CB13006D9F8FEC7CF405B008006
:101E8000FE8284D5A808621FA0D9E0FCA6083FCB3B
:101E9000D50818EDDA901B6698874C0EBD026D01CF
:101EA00046C967F614A0FD522D02E3863059B26888
:101EB000CDF5CF088C7A2FFCCBF4CE80B1F26EBD7D
:101EC000F0A2406FF4BAC565A9A6805A68B6FF367D
:101ED000430A11F64340088DB3B4320B63C872C590
:101EE000C960AE6CA18184226A4CB6FB6F5D048030
:101EF000C87B205B028B0EEBC5C2E6A9DC22AB01DE
:101F0000B62386BA7679081053A1F7F1F87F2475C5
:101F100020F3CCF00AD540F7C6A0A12034D6130A8E
:101F2000A5DE0C2099B5C06F6620185C9010F40FE8
:101F3000400237F5A0FA918C07395040A68901D8A4
:101F4000FDDB5A26116267780121E31280732602B5
:101F50000C40619A79FAFA4C4AB960FCFE90E95853
:101F600040105E600FA802713831A19240E11175F6
:101F7000558012A6FC77D9059EDA6580B371A0E47E
:101F80001F3C4626670DE5E6F091EA4B8150ED8255
:101F9000DC146678E005E61921C4B241443DF47EC4
:101FA000EF83015A9A217F64A8FC78DE3661CC8FDA
:101FB000F23208C474FB765754FC33EB130213E877
:101FC000ACACCE592F201DC0D990F9E6873F91DEE9
:101FD00058B776F710FF7FAC140160B98D794CFBD0
:101FE00053360BFFFD7419B2B840CB3342D64604CA
:101FF000497598B3D1E8F8E3B963FF006AB063EBC1
:10200000FF04BE07CC6C95F840FEA327923004C2B3
:102010006FEC15F8FC5489C32D5BE698EAAF60DBE2
:10202000CC11781BCFFB8776CF21FECBFD63018FD0
:102030007E290296DA4062B608DCB215F886B92F1E
:102040000199F7ACEFE330FD66790B8F79496DCAE2
:102050008C7FAD70F977270306FB1A497F1FEDFDD2
:102060004F881A8E6B530218BC11F88BC695154217
:10207000CE640C0501E3C7FE7F90B3182903680402
:1020800079831FF3F5F3C6C12862B3187DD3606866
:10209000C7DA28FFF79A18C002198FB06E01401CEA
:1020A0006CF90C42575077302D1E4BF66FBF407EB7
:1020B00078B90FF138A3FA53DBB31020758702E724
:1020C0001969EC89BBB3D0401A23F79B0420DC6864
:1020D0005E01BC5FCCBFB0BF77048B60010C7BDFBF
:1020E000C0087FFD56248089B08B7A1001D55C40F2
:1020F000F904C8108008195AC071AC34B33CA0C3AD
:10210000CE06C053100FF575F07D6F3DFF0BE40157
:102110003C8A36194006AE4D3C8001F50C70A7F4A0
:10212000EF98FFE32EB6D42A03B5A03666F955D64C
:10213000626BB3C020A98BF3ED52956608EA983420
:102140002FB35BA088ADB3283FA2882FB304DDD5A1
:102150002B086CB3B2145DB3C844980B19866EE9B2
:102160001704A1B302769A85FF14820272C501DBBF
:10217000D0D64637FF317BA29180DA10187AF4125C
:10218000D8B3B26C5CE8C911FAA6BCFAEAD7CC980D
:102190004D2A4E81EEFEB90DF77703EE066AD3B5F0
:1021A000042FB3B255773FA8BFFEE9CCEDC42CDDB8
:1021B000AE517F188DA77DED1E6691FFA3B3C82E8B
:1021C000B5063644F97FDE6BC71EFFCC78F93CA814
:1021D000901016FBF75840200966B42802D3BA4580
:1021E00011301FF72C6667DE0B4FF8C2763472BCD5
:1021F00005E05A11FFEF3480769C6CDB7BA2FBFE7E
:102200007206069EB3108B6021D79AFF4858FF5F75
:10221000440C08A2048777666750FF3EB3C057A8F6
:102220000605D3E55FE6B7685A26C6DD6639BFFB0B
:10223000C898CDBC98DBA503F3DDDEF703E0413C95
:102240007FF19C07DFC01EFE77846001D7F63C0E4D
:10225000DDB1E8880701D3DBF91630FBF511AFDB00
:102260007FEC9477FBC50C80DA01317F4341016834
:1022700083718B9B9BCC0655F30ABA1920EF6D989E
:102280000888D7B3028FB38909B00865EAED20D575
:10229000BA14D988104BB31066DF30F8BB7B826666
:1022A000FA98023B4DDF3D84BCD6FE672D4410CE2C
:1022B000442220EED3C54BE0B99C36E79A08DE985D
:1022C000D9E8FC395D0195B665E9EEBCBDB967F4A6
:1022D000524BB304C4B388064E9BEBBA5A1038FD78
:1022E00005CE067776178018471FA8BBDD48472A1A
:1022F000BEEE14BBDDFE3242662CBBF5E1F0BEE55E
:10230000490C6EAA1D0A8B34AE645CF526C3960395
:10231000F2C742FAC620D7BEB196FE82DDEDFD5966
:10232000036E70BB05FC30B680FEEFB0C0F38A4090
:10233000AFA69AFC0977BB11C0986D0B609A4F0845
:1023400098D829B680BC30FBB6FF1475039D2F5674
:102350002CEFAF992B1F80776DED051D663010882F
:102360007F321C807FB6980379DD41D7201ECD9146
:1023700056E8A73030860A3716083BB307200E56BA
:10238000190610DB8B30D69806BED338D348FC2C08
:10239000FF5A9880705D0B824E377DF1123D2DFC07
:1023A0007830DFAF17D37550661A98FD5EFA0AEDE4
:1023B000DB8B60FD69CDB3088CBEECE340BCAEB3F3
:1023C00036303FF0AB778F301DA2D370FFB676C8A2
:1023D0004088465F62C430777F3E47AEBAC13B0952
:1023E000E49D6338EB0FFA7FD38F7CA2C83FFA39A4
:1023F000F2986CB0DCFC9E313047FFB4BB41BBA30C
:1024000078A454667BEE01DB662018146ED6E8FAD9
:102410006E7C0601D5AF02BFAD5606785AF77758E5
:10242000BA53B9EBF841ED7618FE3C4BDD0A0C6867
:10243000604B760AFF66F945F3E6986E515D9E2F74
:1024400012117BC4BABF4CAFBFE90DDA760499B361
:102450001E6FC5222064F74323FB6BA362A30B6CA2
:10246000DD38D31805196022F7BF44DE98B8FA5357
:10247000ABE7E91346186BDE64488004DCB16BA758
:1024800048DB6B140ABF7271772E3088F698C481CE
:10249000D9DFE0D6401ED17DF879983D059A1A41E2
:1024A0000BCCF84207280F2D7C98D5D63CAF90B8BE
:1024B000BBD3FF709810D0FD1B7A9882DC66D7DB07
:1024C000988041C5E68BA75F27F61D7E40C86F93B5
:1024D000C8F3BBB5F9CDC898694E9AB35AFC44C24B
:1024E000B519B7EF66016DB360244B19D25E40F6A3
:1024F000DB26C8D310EFDD7F92E098191C30A7428D
:102500007B48412123E7BBBF1F6C264076454FE542
:10251000441A202347F9EABE11D748AFC3E54E68F5
:10252000A7AD9838FC98DF8D30F836B4B0BC416563
:1025300099A6B3CFBB4C5920BBB410E530189E19F7
:1025400079FF75171F75F6326650C825568FA1AEF4
:10255000A74466B9106611C138BB69F8F91C2CAEE6
:102560001B301970FD9820057030D757069188EB05
:102570009395C8CC684024942FE5B3F4A60A670D60
:10258000CBED4511049BB343042B746C011948EF48
:10259000B03AA2F8E130B34A7910F3D257DE0858C6
:1025A000045F9AF7208411017F3EAA96D10497BB5D
:1025B0006BF7D87BB3087D9808CA1602C63DD36670
:1025C000088EF8B930A07E9B99E6C8F0EE563038F8
:1025D00077C8011C33C38EDEF340A402B3142B076B
:1025E0005E5B301EAF19075AC670703038FF2B8DF6
:1025F0006AFEB9DFC6E59020625E01147DCE6FF4FD
:10260000B72B66F130FE416A663AB981FBFA153F95
:10261000EDCDD2FBB1197771E32A9077108901D4FF
:10262000A34035275042C02D58BF324171B31A79AB
:102630007ECCA8B930A4BB9036B54167A298083FBC
:1026400029C8F6A8EFEFC0FE76E62A20BB82E0E4B8
:10265000D5B3347054BF9589304894A2FBE31182FE
:10266000F05BAD86400FCD2774BAA26E40B9EFCBB8
:1026700050ED5720DF0BDF2CEBA51908B7B46590A0
:10268000F8FB76B6E91CC4FE98B580FD534013D91B
:10269000D77AE6D154EF5E6B50289966EDF21DB300
:1026A000A6AFD9C8D290FCEDC19B7A0241719EBB06
:1026B000778B98FA5CF7C83EEFC1F3850B10DA34DC
:1026C000D92DE014FA640D461BC6E7C89BFE76526E
:1026D0003FA3144BD3855F819F18777C324C8411C4
:1026E00031AD87E3E3EED4391953ED2128BD7F5F87
:1026F000016FAA4EC6FA455FD3109DC8E9FBDA0206
:10270000AD057BC5C08378107CD7C804AE8B0FE3C2
:1027100030BD4B0EBFC03ED0030AA00B03339A302E
:102720000C88F398CFD3F698D0FAD755021496C8F0
:102730005F0D7D1B84691525660828AFAD9EA0BC82
:10274000E5DF2FB437A9CDC8630219284ACDC95C8B
:10275000B384B35F1479B30DD0F640A6DBE3F94B35
:10276000BF290446C51047C2F330A0FC779C98E30C
:1027700064F998EDC88481D9C84FF6CEFF83FA7703
:10278000705B43ACAD224DE0F66BD7D098686B0917
:102790008230E0C0FF35598B047C306DA75F735ADF
:1027A000BE01AFFE186C463796BBC1E6D987D8F498
:1027B000FEDD9B38F7CC26B214F119D4E3FEDFC35B
:1027C0001897C83DDBC6BA92EEFA37ED33097BF2B3
:1027D000F3C9F9CCFD6BCE301098FBB97D08190B0D
:1027E000A18474910277FB2F84057FFB9816AB2898
:1027F000F3364BE06634E6B4D896F60849B3FB49A5
:102800007FC6C55C30EF300920FE326111DBF59FD9
:1028100059CC2344203E083006ECEF0BAA13EF649A
:10282000438709B42E2FE0B790FC7F08A33CE3DD7B
:10283000660960F8DE98D701029B98F23030FCAE52
:10284000F55F3041EC98AE3A2B3EFD982A6BFE2F97
:10285000F04006DFEF7FF198B077A64B1C9CF93370
:102860005FB3CC78305FF3E7E59F36F443DCB30128
:10287000B830F2193CD36669214066B0BB08C5D6B2
:10288000C4BAB328F7B3468491BC30BB5A6C2DE868
:102890004491B310DBFA9886D5B3085BE91340FC8A
:1028A00071530DA0E0A32E86204AC1D0C00AD323C5
:1028B0005F7B17603B80FA98C305D176FFBF34DB9E
:1028C000191171A06BC512015ED6A40CF3106BF93F
:1028D000F415EF4B3C03B52939406C83EF56AA83BE
:1028E000F7E585DD0179B3B9E6EBA801C4FBB3A533
:1028F0004064FFFBD85F32DEC403506C3F68F37363
:10290000A178BBBFA5C7E5B358FF6870B620CFC894
:102910003810044A6FC05EB10F16A2FF79F218DDBD
:1029200049031BF26CE917B7CB05303E90689BCB8F
:10293000DE10F5B3456982ED664204AEE549011C3F
:10294000C7CC8119350FFDEBF506B8CABF7F1279E8
:10295000667130D9F59322DBBD0A49B2EE66AFEF5E
:102960009C8EB3CD18078DB37418E7B3F390C044B1
:10297000030213E861120CF36ED1FEF49807DFE353
:1029800016EB98E04CDBC806FA9807BF7F1BF58270
:102990000C9003FE7F08010FF5B37091CE308001DB
:1029A00031070EC00321EEA1B94DB4FFD3E96F5F2B
:1029B0009801D7D1E6F50CB93088B405E4FAD036E1
:1029C0009EA468666569FCAF1C436603E1F87ECD92
:1029D00036BC10A2B384E4B302A72AF38C8049BFAB
:1029E000B060243B4D07F8A5BFCC80DA1805BFB313
:1029F0002242C14818086CB39658B336FFA704A00A
:102A0000DF83DCA709B622AA41D87704DBD398FE7E
:102A1000A32048B6F0ED3B27CC58A3F3DEC488DFF3
:102A200081DCEF615BC2AAE5FF28ED8CAED3C0CBA1
:102A3000C81C7D6388DDC7FC01CEB36B295FC71D51
:102A4000D628FD248D9E93B3DCA1DEB3FB46C714CC
:102A500075201B6CD330FF47F6F91067FBF6DFC714
:102A6000DDDD668F29779ED55F636FD3D519FC05B1
:102A700094C17193FF4F64F7A79C7FDC801DF8F62B
:102A8000220AC007E7E09B7392C6C824EEAED43892
:102A9000305ED851F192F346D1E390E382B201F96E
:102AA00030806C84660EC6F3D0F8CE23068620F301
:102AB000CE332AFED9CB5DF380C6F771CBBE5891D9
:102AC00081B49BCA7C20325C3577F0635E4B4792C1
:102AD0009A2E98CEFBFFE0FF62A2E7C3C2F5FF0487
:102AE00071108209FFAFF64510FB22E4B001D0ADB2
:102AF000BA64C64C494CEAC67B81D8B6FD5A740408
:102B0000A0D6805A14FC2E563EB3D910087DD2DBD5
:102B100038F97D8F68D842C025048D9F67EA352239
:102B2000DBC32097D7B4F822F61D1E197818F8B623
:102B3000CA408009100D7B152220B2CA6CFD0445E5
:102B40006B030386A0C0B482B5501B7EBB21FAA1E3
:102B500069F028E3F87866FEEF1850032245081262
:102B60002C9C9471DBFE85A003629FB6DD209096BD
:102B700066A0F4799001107647553636F0FE7FDD79
:102B8000EFE656A651141EFFD4DAD8F8F3BD0804B8
:102B9000239D88C21FCB3204902B44AB6BB6C9FE79
:102BA0006DA5FAC2258821849DED5F7F639DBFB727
:102BB00022F236086CCDDDC34098D4B1B02566C092
:102BC0009EEE6127B62690FF23DDBB4202869DB1B3
:102BD000DEE8F8B8B002AF96D9802BCD9D38FEB7AD
:102BE000D924BAB66FDA9E20FBE560E56C719BC80C
:102BF000B1FF8ECB3F01C30B1D5A38FC028A691608
:102C0000D91762C1C0CB556E3FEA4DFAD6BDF83137
:102C1000C2A2DAC2D6FFB8FCCFEAC630AEDB75E39B
:102C2000FFF69849B09BD6AFFD57B0028BBB55EC71
:102C3000FB12EDE901869AADDE20FD8861AA280825
:102C4000CC4B8F18B30486FF89FEC124B3BE7F8CA2
:102C500052634C1A2CCD5DFF95B6D324F4614E6CB3
:102C6000A8883E2D193276FF7F106299E3BC04D507
:102C70006EF840F63A8410C53405CC59F1FE4BE6A7
:102C80000812FDE204B905E6E169837566BB09C473
:102C9000FB631E7D2CDB2D6C0EA8FCBEB0BDC3B645
:102CA000180256EC96FC21E3551A59DD012A8318C7
:102CB000F3E51763674008B08BAD6EFFA140D2FD0E
:102CC0002AC802330C393B406FF661EDCB58FF9AAE
:102CD000489608E7BA9D158CF6FF025AB4FC0482A8
:102CE000B388FDCFE5B3FED920CC01A0F403E7F310
:102CF0000A28FCAD20D3A080D56022DC1019CA6A56
:102D00007A66932E360860DC80092CD20620F318F0
:102D100089D661A0B4FCDE2A0122EF6099A0147C60
:102D20008004206140C2A50931F62236305625DAEA
:102D3000B620F0A40FD24ECC1AC06D18027A7E09CC
:102D4000E5E6E888717D69D1FE0A2CCE63F6BF40C6
:102D500041D292DBDEA0F9F9B54116E9BD5BBF2196
:102D600010679B66769540D40F95300494ECF85D1F
:102D70001780FDC5FC52C2FDED44D4FBB4C4BE892E
:102D8000C67943806117B6CA20F932E3B004B34074
:102D9000B152F8B328C4FAFFC31D769A18FE08375B
:102DA000C72F84E46DFBC301639612E918DED95086
:102DB000FEDC1E6FD7977D55847DAA6EF6DC38F950
:102DC0007B651270EA10C83063AB8B64CDE5CCC76D
:102DD000101BFFB8FD8F2DF3E50BCCC4F67918F965
:102DE000E3B71ECBE508FDC108633BE3B10833CB75
:102DF0001B52EB90B310C5CF8CD520409EA2D901B9
:102E000010F96E09E6DEEB664009BFDF806AB5A502
:102E10002190027E968240EB22974E30F2F8FFC35B
:102E20009C97344604526E13B7C0EA64EB17093D11
:102E30005D016FF7F8E4A5CBAEC4FD4FECF948FC9B
:102E4000830309471A7F02016AF4DC9088BBB4014E
:102E5000F4A4051BE02066C223B3B708C60222D043
:102E6000A76235B05716BCA2018B60448BF930AD18
:102E70004136FC303E8919E08F0180DE07F0F5769F
:102E8000A47E0CF3F9CA06C80378F581603C0FF004
:102E9000F86ED76111B30D41C3C0BBF13010A70666
:102EA0006608036078F33B4821B3016139B31F2BF7
:102EB000F23A190241B3987BB351303607FB11FA4D
:102EC0009810DBCB479BB7401899D20811823BF38F
:102ED00042807F262FE658FDC23F5AAD0C91F8770D
:102EE0008CF39A50FF65F9988F76574450F66F8CA3
:102EF0007156659C22F36C4743F3EAFC11859E985A
:102F00005C552FB9CD5B0119F3601A36BAF8167B00
:102F10009801301B16C05E55FF2362204C80113192
:102F200001BDC6E9604CE69130D89AFE59EF984150
:102F30003C9007AEF2E17A0318FE0FE8013CA007CF
:102F4000F6E978104FE6F30858F9B004B3D7983093
:102F5000F9987BF2400C79F3B96636F319F9579872
:102F600098FFEF7F845CC040B3B10206B358FBC644
:102F7000CC19E44A21DFAA42E498B083412044F30B
:102F8000997FD7363B2B0180FC0B3BFE4064ED76EE
:102F900098825C23D898FD47EB980A57F8054108BA
:102FA0007FC30A7205428F6F3FF3C99858D0D8FF8C
:102FB0000444666CDBD18210F67130CB5F84FC98E0
:102FC000DC1A7BAE11F8FE61D88E610F7E648881B9
:102FD0003006C605287998779D8411DF3008FE7F7A
:102FE00083600478C111B010CDD619C01179E57194
:102FF0004A7130DE9822D2AF1B8BF3018BF3C69857
:10300000F30C202BACB12A6D1901317C989666889F
:10301000DEE5B403F7E520A8FA6166EEE309F54BB7
:1030200010EDB34C8098B381B0F861272D7D089ED8
:103030005E1002C2408EB4CCD58001F706097A98A2
:103040002166F384EF88074228FB611AB304C9099B
:10305000420167FD68AFACD3306CB3CF53CA485C54
:103060000422BF80D5A502E5A5A319F0C07AE141ED
:1030700059E6B92E63FDB14B5C12B830FD83DB908D
:10308000B48021E4140B36E6E2167FCC8411F531CE
:103090000206C2FF0723600C2C8380B1D62046B7FE
:1030A000AF080B7F7F85302CF671B380B504F3A099
:1030B0005765F0013C8A88EF6E988378E5300CDE26
:1030C00098A51EF310DE7EEC08C8F92B5D1981EB84
:1030D000F2C44F2EF2347DCBC85F40E531D8B9FA47
:1030E000E2BA09D1F9946A5EA48AB3260B4062B3AE
:1030F000CBC874B305E0E6A8FC30A8FFB5B342B76F
:1031000080F298F18BF46BE0980A5BE37D1D31202F
:10311000AEB394BD8B8863BF7F6D96A1F9C87F1B4A
:10312000307998798BB79798968B6C7B0422F5054C
:103130000CAA5E260B6E3F30C698F342135F2F98A1
:103140000B8BCA2CB3225966401A62DC0A06AFFE0A
:103150000B60228C8211B00416EDB51803393030A3
:10316000EC02C0FF2BFBCCF93DF1B420F398B2BBCD
:1031700096E81EDC300EA0C8E0300C27CBC87F25B7
:10318000E5F304B797E5B68BF1FC12F18494B3B77D
:103190000810B3195901B3B6B8F915176787A1BB61
:1031A0000122C856106B702237BB807898AE567CCF
:1031B000301005060CFE16157D7F1ABA285481536F
:1031C000B2BBCB0AD6C7BF7F04676D2C703D54C716
:1031D00098826508EFCABB23AB16F21F2B1C016651
:1031E0000566F7FE0811AE82A4AD2508AE253F3D69
:1031F000963040A36608F86386B3731904B0DD20E7
:10320000069CEB0B613F8C888530BB0A8B30D58BDD
:1032100001E0987609423BFB3201373AC8800CF155
:1032200098A58DC078D710031F3DCF30D0037A10FA
:1032300070E6D8EAFB47EB4BC072EFE33DF3C862A0
:1032400077ACE5319E567D8158265BCA7D91E33D82
:103250008B0B7A564C88E33D21B309F6A00820FC7D
:1032600011EF4940026FC83084B411F877A6A50168
:10327000F304D7CB98C9D0F3C8B0FBA06AC7F20655
:10328000C2DDAEE381BB04952171C63DBDAE7F1D9D
:1032900030D4ECE6EC88FE04293F6B72F2222FF367
:1032A000F68CB885902036FC68FF11ADB30A4BF858
:1032B0008B4A30C842167DC8128C8005FAAFDF9861
:1032C00010E99805E6B070AFEBCC8C4A9CD7C8E209
:1032D0001B30E5C83BE60860F90B3830CDCBC87F22
:1032E0003DE5E6A080F8C2E2B3CBC81505B3FE69A0
:1032F000E6C114712FFC3045B095C8A5AEE89842E0
:103300007D4008020EE6F770FDD3ACD1271664BEEF
:1033100023BB7320CD739019F09849CA29625E7F50
:1033200001833761029216A18457585017AB661279
:103330007AE510DD7A909788B6E539BFB4980840F1
:10334000037B8FB8FB7AEF60C77BFE186BDFFE8CC8
:1033500011B020D24604270BFF719830011693E478
:103360008B60BF41D798288B19901640B30768E04F
:10337000B4036BF8E8419B30F0207F5398A0E0063F
:10338000C897030CFB9820FE15FF0D62DEF56BBDA0
:1033900049D802AA6601EE33307D980825F3A1C111
:1033A000F3ADFC389DC77F860868B35A20ACB0D90E
:1033B000C8806AB3985EF301B3D8D0FD51A6623ECF
:1033C000FFDFBCFFEA8610D39CB8F7CE33F3BF32E1
:1033D000286348D38030FE182436FF89FE3666679E
:1033E00018D1E3D3BAFD6092662EB33FA0EC9E4C99
:1033F00093C7F5F91064EF2968FE69E6B012FD4F36
:10340000A891065191E784B6E6A3FB093FCCD89872
:10341000FFFF173E2E46012D303679EBE816E5F119
:10342000FD855CCC63CBD8FE0D337B40794B945B40
:10343000491830196088FFB88066C7CBB3EDD45601
:103440001C024A0901DFC8FD6DF6B3025006E0FC1C
:10345000C2D37EFE49FF59E420FEE409857DFE6F5C
:10346000FBD50827E8D56AD5F870B2FFD28904EBFE
:103470008C962AE36C7FCE7D21E6C0FDCB5EB3083F
:1034800049634366E014DDA015F7BFA6B00583804D
:1034900095ED01A9BA28F4D858FA5DFC4904140A3C
:1034A00028CA864BA8018943856D655390FCA08589
:1034B000EBFF2012EA1A6CFF88FC2F5EB60211099E
:1034C0001E5CFD2D19D6AEA0179C19B562AB52D863
:1034D00004ADAEE330CA48D661B8F9C1216748D817
:1034E00018FB4FF64233E67F147E3220C43A60C5A3
:1034F00056D6A817723010CA59B3108D9098FD8F08
:103500007D7FAFC38465186FB166861DB16704F314
:103510007F1D13A6AA57D87F76A97A19FBC12FCC95
:103520004B0CA5B3408BACB3FB123E8005D885ABEA
:10353000B3801A6C50D0FF2C371EF400180B023FDA
:103540008CB07B561510DD716085FB7F083BF7DF83
:10355000049BA52CA288BF96FDB317FC8A56269B18
:103560002CFF77ECCC2D3098BBD2E520CDFFAE30D0
:1035700096291750F3C7E60436F9FE1965CC9EFF6D
:10358000612711308511888288EF4B02046CDB6B58
:10359000EECB9CF80AC29F3C16C9F32674F301B720
:1035A000E06CEA20FC8397093749805FD3A108D2F9
:1035B000BB47F391CBEF0FA63F10F0F849F306F5A8
:1035C000369F433DE7488D6EBD857E890231BAE165
:1035D0000C8141C064A1C0ABEBBF09E265AEB16430
:1035E000ED593B085A148A0179C7C03840B4A44544
:1035F0006661DCE884E081421030FB25C2D888FE99
:10360000402765E5C702C979F12D1E40CD931B7394
:1036100030FA0C39CB4009AFD2D9BC02BAA9840C1C
:10362000FE9EF35688FD10C2BE2F8CB54516CFB155
:103630007BD464FE612F118733BA1202C57D3EB080
:1036400061175BB12C4308BE33758B2DD6E3FF1495
:1036500076BE10C7F32EFDB00CBF629533BADDC243
:103660007E5E7D203F46696ABA20CFD9C0FFD8C0B0
:10367000FB231E1C1961411D8CACA90135CD7B08B3
:103680008C25E590B3856B18012871CEFE64C8F8CF
:10369000030D8B186CE3ECD82EFC54B9B3013A9EA1
:1036A000CFEDEFFDC9E20693DE1805567F41850E8A
:1036B00050E3C614DE11C22696FB21FE9E899002BD
:1036C000F751136801EED538FED86406B7ECA210A6
:1036D0004BBB0801402595401E105AEBB6D850FE52
:1036E000A7ECA6B003FD0CB8695E99F3D9E001C759
:1036F000A4EB2A02212DE087C1FAB040811881B4E1
:10370000206DC668FF3D4408B48032067626B73483
:10371000046239C828AFE08FABDDF20223C6101D6A
:10372000EA1401CDC670F9A28F22FFEFA38C026EBE
:10373000E010187D882C808930049C1AA731EDC1D7
:1037400008191313617AE50A74EE244019E7110C85
:1037500008C62058BFF8F0F7F4AE064CE30FFD3C66
:10376000C099F0DC1EC0F3ECE4013CE466E0E9ED56
:103770008007E0C8DD0378F4C7E068F378C63BE86B
:10378000DB6606C0FEB1FFA0CF0C1718B2F28401B1
:10379000F3CE2566ED06CDE00360E219708889F36B
:1037A000F1C695BCFCB37606182072B3803E21307A
:1037B000CAFF2D0498027BB314C16EB3A7B0D328FF
:1037C0001804EF0241216FC6B0FA2F19B2ACF963A9
:1037D000426BE15E1A1EEE5DFFC02382FE180834C4
:1037E0000188401B44CF20D3C012E892400A08D37E
:1037F000DB2DACFE12DBFE33BB678881804D754745
:10380000D442E56FE4D1E047B41EDB4631A401DECB
:103810008DDAA0B07CCC8AE5DFCD58BD980F6DEE77
:103820003C881101E4B3EF2E8AD046B2C8BC51FFE8
:103830002598AC380DE9098465BEFE98DE61F97FF4
:10384000DBC0082819309A843DCDB5E3070C888386
:10385000670A48F8295C330C25C1F9826DEE98A0FF
:103860008534E7E01A4023B4626FC47AFA1D66B16A
:103870001821AAB209EFD7AC1072C94C04A62BDDEF
:1038800066D1010B3FF93FB0E87085312EBAFB528B
:10389000FD98802ED57E3090201204012CBD5E094B
:1038A000DF1AFCF57FE7D21BC9FAC5C0D7CD8B3B29
:1038B0004F407FFD30FE032807FE988AF4D3D1984D
:1038C000605C0244D3F37AD3C0F166F92866FADF6C
:1038D000C8C5F3881966FF83EC40BD01AC80BBA866
:1038E000D6E520DE986CFF4BF3614F5FABA3A7AF2B
:1038F0001BE0FDCCEBB3234F338B3532245E38B65F
:1039000020F34B7FFD0A9820236022EDD370FEAF99
:103910002EA85A2FE6B4F9FD194193CA0814FBCA20
:103920009D185D44247D14254DD243DF2E7FB7982A
:1039300006027A9848109A8081FDC2FCB79EEE83F9
:103940002586DDF91766723088E4FB8E0CE411A23F
:10395000E5E03CFDB1857359FE98C82120DD64D3B4
:1039600076BF320A0EBED96243C035E5300395BD3D
:10397000D41422DEE5FA9D13A6EC45FAC6DBE45E1C
:103980006030403CD307E28002B45165C658FEC7A0
:103990000C95531AA606F7A001D422F2B33CABF360
:1039A0003522C8F8D91BF646BC506D26287830243D
:1039B00030AFF37B9851036844DDC608FC04A16670
:1039C0001F8DCB3032FB17119723F62D3910176658
:1039D0008A3FC50BA8A6108409EB300416DE6B08DD
:1039E000436002E6CD10C0B65307124440BC2CC65B
:1039F000FD34AFF2D2F4A560093CC8F6F0201E40B9
:103A00008666DC307F7FE051196601E1819B3C19BD
:103A1000F1FDA520778A98F34BC6D0F346C6B0FED9
:103A20002B6F59D283DC3071F3B1B2EB1126F81D44
:103A3000BC6BD3C5E5B6B7AD986216C698DF7F07F5
:103A4000040362E9B340377BF81540A789B31088B7
:103A500002667A98026DF380C5B39DE88813AFCBF8
:103A6000F09A91824409FB04379F093B9A444054E1
:103A70009FEB4555959D20AE48F11B10245A338885
:103A800008A0205BE3FD16C0400241127F90840530
:103A90003BC6A8FA6136936FC23D83FFBC35F4E79D
:103AA000AAC0540B7FBA93D54005F1B2954BE402FE
:103AB000CB6AB5A4C2EDA10141276F81D2E8FB69B1
:103AC000C3302680B803B05B50FEBF0FE3D39B4CDE
:103AD0004452DE663C10DD3457CDA151C00704EBE3
:103AE0000362202B07C098A6C60260FF1B98B2FC99
:103AF0005DDFA518FD3F8011EE74900810DC5ABF01
:103B0000074CB95411D9FA83D7030401F050CBE51F
:103B1000F4662BE210C2981F6648234220BB01DBEB
:103B200098F2FDC866B346F35E98EF48300925A3C6
:103B3000A60AC6B7A76639970E30DD2F1AB125261B
:103B40007A3C045DC2F5A9E598C25FDE3E012C0215
:103B5000F69888FADBD798C4713D7150FC5DBF5070
:103B600065DA26FD16EE04401471F84901C59B651F
:103B7000C87898AFEFAE3C5D6D40CE23200F68BD96
:103B800098B82C1993FF8DE3FBB80A6DD41E5745E6
:103B9000F0DA7945FD3530FB697E882FD3EF2F763B
:103BA0005FAB10EDE5A9FFA819BDDEB3457AB358A8
:103BB0005E19AF97B03B9AB3EADF616FA305CC7B88
:103BC000107E036001DB5EDD180113641BDBB36054
:103BD000F9D5A3C0C76E3ECA882180108697F741E9
:103BE00011F3D4E5BAAA844478C592F7E1DD3C101C
:103BF000848850FD0842440BFC309EB0A6C202925D
:103C00006FC649E6301058E3B37F230B46CDC3F9A6
:103C1000309068B3BB013E6B99A4E14457DF0AC8FA
:103C2000F03C1D36EDAC3CC16C027F0430DE48F840
:103C30001996E0FCDC302FB0E0304BE8CCACF465FA
:103C400044A76FD553ACF3D7C44832B70622865F7A
:103C5000F0EBC438BD9814F7040350400DC6AFFD17
:103C6000E807D2659FA72830048BFCA205AE50FD63
:103C700005F394A927B3F883BCD55C262866BCA5B8
:103C80006ED7085D4E34E9981AE0DE6904C6B5C007
:103C9000E43040DA68887030A3010CFC98DB250121
:103CA000C1EF0391E5D1E45FF9BB22803CE1806084
:103CB000BF33C810E150319F40E04C7A843001702E
:103CC000221974FD5CC4AF3F309001F4201E446B98
:103CD000E798EDB01FC4DF44A5D11FE0AF416E9857
:103CE000F120E53D10A7213034A4F379D7C66276E0
:103CF0009108F8FC306FCB7DC2FE72F366CEB9003E
:103D0000B38541647D5F2EA4C1E55061B7257D80F8
:103D1000D31E59C6DBC8FEFA98A3D5B3266A19A5E7
:103D200004F380A78B98FEFFA625765A7B65C8759D
:103D300024E44CD9F658200B609E4B5A627FB09811
:103D4000021A2943AF84DC0901E0657998FEF57316
:103D5000EA66DD8CE54AD0ED3FA53AC84C24CAC8D6
:103D6000E330F2C8B830B35BFF69E498537F17CAF9
:103D7000195079C8B40353B381F433A8DFA520D216
:103D8000B9C6FCBCC873B830FCBBC89130902DFBE1
:103D90003C98FE333033C80A6C3802545366BF2750
:103DA000EADDE522E431167E6FC80EF198C6DB1419
:103DB0008867C8E1FAB9086FD07F0B30D87C92C809
:103DC00092CEDB2DC85F196F2EB5222073B8D0407C
:103DD0007E6FC80DF198C69D1AC6680AEDC67AFCBA
:103DE000E566B7CA7E4C2CBDD2093D0C285810AFF1
:103DF000A89802DD21667B1935DAFAAF42800531D9
:103E0000FD7F22DAAF8E205FADB91F50DEF4424055
:103E10004C04C6DBB2FE7998FC30BB642BD59650BF
:103E200040DE986A66738E478DD7A5043A308807BE
:103E300032E603837857B089EF70636F90C8EBE880
:103E4000ADB18CFFCD3D15668078E280A5FFDAC468
:103E5000E578E5B3F533C8105AEF7AC6FBD019CE32
:103E600037B3F398C8BB64EEEDFE202557B314A812
:103E7000B3011FFC81C80BB460FE4828FDD7973002
:103E80001A67C820246BB7A6708C2A245A1D04A96F
:103E90009602199BDF6499E798F9E7754F7130DE58
:103EA0005E32EF23EF2520648B46BE987186901119
:103EB0005F336BEA980222B3B62F79D16225109254
:103EC000B17E74F5C040736BDBF2587E2F301498CE
:103ED000D9E87F8A9890FECCE0018EDE34B3D70813
:103EE0006384ACB6A4396AAC0F778098BFE2A8456A
:103EF00076EED086F937C021D4DD1860E798E5C8A2
:103F00001184E003CE15A2B32AF7B32B9975A31B36
:103F1000B875640C78981D46D0C4CFD227C6D36834
:103F2000FF11A7E07F59DC6036454BFEBF188101C9
:103F30009E6680893011C9796604C840E0CD9F3003
:103F4000C0C0421801F12360044C91D33E13981075
:103F50000860027EA644300998FBD3CD9873C8E868
:103F60002FBBF598C47A5209D736BB06BAA9EE5FC3
:103F70000D41E7309007F17FB798100F7B9807311C
:103F8000E7801EC0F3400FA6E2D380FEDF8F30D55E
:103F90001541AE9EA2660E31DB20BC34FB5F7E3F36
:103FA0007DCD4E462C0E03505FC6EFE6E8FA258322
:103FB000B304EBB30555B39211BB2CE7BA9F66F679
:103FC000AF5BB34D809951EB168A0568DCB919D304
:103FD000A07F2E3014FD4243C8D021CED5225AC92D
:103FE000F348A1B5B43FB5BC17C03E500DA005B70E
:103FF000A2E7689BFC04FF725AD24012222096D797
:10400000D89E98DBC4800B39FCCD254DFC3A643337
:10401000DEB34FE211880D40BF9D98C608A2D3A819
:10402000F5D210FDFE37F6E2F99816AB68C807BC6A
:104030001BFA648FC75EB324B3FBCC3B507D807FFB
:1040400006987783400188A6D38FF4980C2B78C00C
:10405000B3AF3BD295304CA702FFAC45A07894BDDE
:10406000AFFC4ADD10119F7522A50208B650F098EA
:104070005514AF1E300246C09A08D3033BB2D65E39
:10408000128566F7D17898E09C84B05326E5052028
:104090006AB7BC026653B3654752C9FC50B3E0FC33
:1040A00016C404180963F0B32C0241C03F4C2840E9
:1040B00004026291086977300AFFCC80057F1AD428
:1040C000E5C834191EC0BD800BB95D0769FACC90F4
:1040D0007D49C427A505E8DC30AFF03BA5913DE064
:1040E0005657BB9E6BF3CEE241D3F8FECAF4B50C33
:1040F000B5C7E150567F2B3090CFD5FBF9FB142488
:1041000002881D31B7A5E54073DED8CBC120F3FC92
:10411000989BF389F829B32C47C03B19501013FF23
:1041200036207E9DF7A7EDA51123F4BFA498408605
:10413000FCD9300846C002C9040B17B3AC4596C879
:10414000B336FFBF0477CE223EB3C201629904CAE0
:10415000E3593DD3B0B2F9B9F701671EF30435F165
:1041600022E5DCFE43231128C900E0CF6CD388FB95
:104170006C67F2B3F3EB9EF824852AB1C71DD630E5
:10418000F9248F8B661ADEB3A42B571BC71839A2EC
:10419000FF8C2678662C50A6510C6FFBCC70FACDA4
:1041A000A0CCE2F3D5FECCFE71C9CA056598E389BF
:1041B00070FB79CAE0511B9B449AF31BB37277A43E
:1041C000032824133D1789B1FBBFB3F98C8471D345
:1041D00098B5FF31D92FB6C5E39B3CADCA63DE026B
:1041E00010A3B1DBFFA0FE1CFBF93FF6BC4032DCA4
:1041F000B390FC98584E916E8F9E5E8FB6FD5BF625
:10420000109BECED09B9E58BFAF31059852D55504B
:10421000F98EAC8204E3733C15C8F6A470FFCC336E
:104220001DD667103E133BDE06404688E8FEF4C408
:1042300001D9F6080B951063AE14F91EFF649B1AA2
:10424000077A5FFBDAC4FDA6BF08431069AE82F7A8
:104250000201AA5D04C53F4602765157C41B1131C5
:104260008C2108D2A620FF9F32E5028006085BA5BC
:10427000C38129C064A5DA305421D90E5901E5B6AD
:10428000AC7AB4B6EFB2430153DD09AB14023EED94
:104290000A4A4305170C284079B367B24402CAA7FB
:1042A0000592D2B6391B654536D80979B4DB77F16A
:1042B0005C1080995A7C27302F26430E06D30D0AB6
:1042C0002304D882FED9D881613F9842B7F662387C
:1042D000FCDF959784FDF594AFD2003A22C44EB529
:1042E000E87891201B9EA6665973767B2F082CFDDB
:1042F0001AF51F08B8230B80356A40622D5468F9FF
:104300008D7A5580CCF27D3F4AD8608240EB8CD8C4
:1043100043DBC490FD37C5ADDC8E97FF1892B2E643
:10432000A8CF3519FB5733EC9624E66010FFCD5D1E
:104330002210FA872031803E5990201BE965A9811F
:1043400040254836FEF871249ABBB5203FFCEC1A94
:104350006FA89919E3B308783FC63A07DF877C6EE8
:1043600018FA77984B9F0B35361631B06DED17580C
:10437000FC0CAB2831FF9FEC6618FE28DBE61FFE25
:104380002810FBC23FBFDA2CB85D9B406DDBFEFFFF
:104390000A4C2077E0336C98FD77CC1122D35B6F09
:1043A000EC6CB8FE5893C31FECB498F92831BDF6F5
:1043B0003F88FECCFCB92076189BB53619E8FD1F66
:1043C0009F6AD72FFFC5F8FC79EFFA8F6DEBCF20EE
:1043D0000A4B6FA207B8C4F6C678FBC22FA2539A45
:1043E000D3993CE9CF23D6661B597280FCB7B3083A
:1043F0007AA6BA3C0B4FED20B0FB8DECFC18C386BF
:10440000FF38FDCBFD33228BFD56844D9928FBB937
:10441000B3B865DB0C409839969B15E5ECFC5A6403
:10442000B62BD0FE2BF68CE1DC9847E703B4D9F825
:10443000FFC5B210F7130163BC858E04F3DFCC3DDA
:10444000CFEE64B0FD57E182D6E6562E5FEEE58BE7
:10445000ABD001806D02C5FFBE8047DC1A0CFDE8C1
:10446000A3C614FF4EF2B0A0246FC550FABD7FF270
:1044700003148004500A02725E05CC3F0AE5D9E8B5
:1044800020BF0C402A9D03F909A03DAF028001081E
:1044900027C640E298F8B9800F811B90869F65F887
:1044A0000A013138FB8010401294FAED76D138269B
:1044B0006B68C00130C1C2335081CE70D30122A2DB
:1044C00057848380023FD840A5880138140D90FCA2
:1044D0000A0E933C7A19D94B8062BF92B7805BEB8E
:1044E0002004556FC33EC4FF6AE5941052EAA2420D
:1044F000535EF204CA5F01B308C8B3B5B27C035679
:104500000508845174167DBF745BCB4EFBC20B57FC
:10451000FF809140869DD0412D6C3AB16CE71257D7
:104520004F2BF3D77220FA403CEE4BC6BAB1C7F816
:10453000C88CFF793B88B1FC7CAFA130988F655364
:104540004EB6B78AE0F8194BFC8FB202D7CD102EC9
:10455000988031F55E5EFC02C62C66B51911FDE44B
:104560005E6964F403B3FC945104A1D905809AC434
:10457000B910F8C0B3F9FE53C7D62640516B95CB9E
:10458000C4C85F339856B340127E8E08CB0162CC0C
:1045900077D9CC5E0BB14015BF408C6D09793FB720
:1045A00091CB849BC630FD3061369D18D6C8DE6F36
:1045B000967066192CFF40CFDA9A01364B28F92FF6
:1045C000F6973FE63AEBF208563850FCF72DC0421A
:1045D00082814860BF445CAC401482E786080AF6DA
:1045E000A001B1302D6F9F46D1EFA9222C80F40598
:1045F0008488241AEE4012084DD30466FAA7105896
:10460000FCB2B394CD60412CB349690679D36FDF16
:10461000888147B6E530AB3810FC7FDE8ECABD72AC
:10462000DD80699A151931B04D6D2201C013C603A2
:10463000612CE6880501A380BC3692D30C6292B34C
:1046400030F39D4720036893FEA221602476AC914D
:104650000427C67EA466BE8034B7759AF3422362EF
:1046600004B7493BFCC8FEFD84C0CA4840DA27A411
:10467000A61046024DBC88606FDF0982B1103FAFC3
:1046800082FCA40B01048C0873D3243D6658200AD5
:10469000331380416C605F32993CFDF053E5C403F5
:1046A00018F83DF3800770206F1478107146892444
:1046B000660170F9E00338100FE0933DD3F41E2932
:1046C000F3D3E0E2013C0851FF7312E36183F4D4B9
:1046D00030BFA94F9DF97F7A62D9905993990C44C4
:1046E00031D327F67C03617FCD525CF813C0198863
:1046F000482D4695B340EAEFA1D29FDD270193DD17
:104700005E040895DE6A64012C99D309A6FBF9982A
:1047100004236011B31632689FF9EDE7CD42200BF8
:10472000B5616ED2102857D214AD7326BC44FFC0B9
:1047300012C4EBCDB881C6E5EB8246D63BE1220937
:104740004D736448200CE9A09D095754FAE766E6CA
:10475000DA60CFE47B1076BDF1B90C2267D1C0FFDF
:104760002A1B2607D86A0C11C5F3FA3E485A663848
:104770006F3F03706D9696FBE8B42C5EB311B3FAED
:10478000077748EF8635A74D522083817DD6E7799C
:104790006A038173DCB1FC623478C376FE98BB8017
:1047A000EED52FD63D7EEF690A0AE7CD77B3EFB598
:1047B00005CAAEF65B04011511AFCA6FE24EE911EE
:1047C000FC42F8035259D53C0C95FA5122FEC821FF
:1047D0000AF5F051EFB38E4768CFAC05BBEB890407
:1047E000CB0C1F08055D5743D4EB0440B3BD320228
:1047F000DAFB2DE9103B8E186AB4B9F01D585A93B4
:10480000063CCAE78F4A84E08C0DBA94BB2E0E306A
:10481000F278FA0FE0413904C603DD1840E8982029
:104820009BFA0814E59E602BBE01ED65CEB3FA40FD
:104830003DB647081CBBE0AF3AFB72FA74FF5B98C9
:10484000B3723050C8EE78C004D780CADBB22D6690
:1048500004BF48857AEF9893E00AB34934DD069B9C
:10486000CB115389FD986083FF10D7310ACE34D520
:104870002308D8B3BB84237FAD98328B66E6F72438
:10488000230E66086BB180983D12111F68024080AC
:10489000057F8DC3E1036B02281012022DFBFE6E13
:1048A00069F61FC6B3E2F3E6C94C195CB377BFC51E
:1048B000943D186638268201ED7E435EAC8ED15061
:1048C000FC03EDCA8003B7417646B09E986BFB218E
:1048D00058FF324D84773399EA0502C947EC7130AD
:1048E000AF839843F0B92C8908FB6A714553C68A97
:1048F000FA627F9E98F26FBC7D416F6DFF252BC0E1
:1049000046B224048EDF8FFAF0A90618340648FF59
:1049100073A331127608052DF01155E342F8CC014E
:1049200068F75AE6AE660877B3E70AFF299744B3FB
:10493000033D9F220C083BEA26C828B90340395A98
:1049400009B1ABAFFF3BDFD8A506D05678FD2A5C96
:1049500050667998FE3983070FAE68827E6E6C0EC2
:10496000EA7CE43001DCECF0D32BC6BEC13C10B8CD
:10497000F95C66C37FEDAC108D497A0A5C4CEE7E23
:104980009B741DE6C7CAFCF7D1D30CDF2FF3405050
:10499000D308D3D282FAB32295B398E678DE950194
:1049A00035196222DBCBB06E51C213FBDDB7D2A941
:1049B000112601BACC88F4B3BC98E6D30A6479FC1A
:1049C0009008B0FE5AFCBF84FF46040B49022C7AC3
:1049D000B1C07BA8110B09B3F5246DA73C38F812C0
:1049E000ABE0C9AD805F855E9837DC21FA98D0BE18
:1049F0009D9E950D2044042EB4FCD483915320CB6E
:104A000093CEB33F46764910CB0714BF6977EF606A
:104A1000BB023F48E9EC7B817150B7137DD0F8FFB2
:104A20006BEAF406FE8C200ED7CB984FF92ED032CD
:104A3000303D4429F677A9FBC8BFCCB804DAFF02A1
:104A40009892C602D32AEF600859FF6FB4A673B6D6
:104A50000DF198D859C805B72F3008FF7F5D77A6AC
:104A6000E8FF20105A68EB98F15EB99CCED028F18F
:104A70001109048D2910EEDF7AFCE40E46E2106085
:104A80004096FE9E9825F3F277444520B4093D6692
:104A90003359FA6729CF82911A94A658F9528FCECA
:104AA0008411DC16C80C583983C59F8C9010023ACB
:104AB000FD7F1D30A002179AD292C4F37AFCAFF5A5
:104AC000B7DFD7E9448DA0950DBDE598D40C83D709
:104AD000400317238C98D3D005C823641E2D20D003
:104AE000FBF3286FB5AC23C5F35CB6F5F3D3CE105A
:104AF000EA243FF9F2CC605FFE6B30C0202BC8B4D3
:104B000020022ADD0BFEF66EABB31162C52CF3FD5D
:104B1000C88091300908FE4B6AB51B01A44A26A63D
:104B2000FABB19D3EC88F3AD80C65F1AC309629350
:104B30002CECD380A2FBC9416688E2012360AD263C
:104B4000DC92C048EF1B0CF3A07DF4960244017187
:104B5000E003A0239487C09022C03F480221200494
:104B6000065C302E52EDDF85FF87B7FE6D360361A0
:104B70007769C068BE781956FD643CCE13A0BB06A9
:104B8000FAD28E205ACEE983DF7211DCD6B4A8F5B2
:104B900098301DDD9BC8C48FC3229BF734DDED1E0A
:104BA00070FDFDFB4913A2334496E6F09CB644B376
:104BB00090A2C0C15CB807ECB6B8D0154EEC078C1B
:104BC000B526FC70230E814C018FD14AE5082B7B62
:104BD000FA5F038583B419F246FB7FB84B23F7B91C
:104BE000130B4129336502F4FFB404EABEF0981EAA
:104BF0000C200280D780306040146182055E90995D
:104C0000BFB03F394B438248054F972604204044AC
:104C100005D5A3842FB830BD1E808E04977AF8F98D
:104C20009879D27DF6715DBF2E3018CBE86CCA6AD8
:104C300001C54D9D0FCE60287307BD775478107065
:104C40003D05EF9806D00319343E6079D618F85A1E
:104C5000F1F1301BA9FB5D8340BB2025E855A1B3D2
:104C6000FF5E647130F9A8BB084BB7ED7238EA8675
:104C7000576DFEE32D65B38C1EC4C97FB278819158
:104C8000BAD3FA32228052E7828AA0BD754649F42F
:104C900021B33313902E8131B388FC200B62082599
:104CA000A5F8F7CCF9980F3BED61848C449EEC4C51
:104CB000FC23483767C8220468B329FC6E62D360BE
:104CC000BBE0A21621D1A7660121A0C009344EF491
:104CD00040601264B741A5DBD544F130E6739F72A2
:104CE00076F6492120FD1E2FB37B17503720FF7227
:104CF0000BCBC85E003097EF41F876B71957B388F1
:104D0000AF980EFB7FFF005871BBDE76011FB99F85
:104D1000BA2733AAFFDAC081788527F681014522B8
:104D2000AEE06403026029472B9FFAEFB8D8496BC5
:104D3000EC62AE2E30B664E5CC68ECFA0F738C668C
:104D4000BB1D4089011914A6B18180B4B8309C18EC
:104D5000134201A6C688DBFD97D9118F82C50C408E
:104D600090B581F69810603257EF809E06E4735E2E
:104D70005527C06ABFE4213040508AE5BDA520FE1A
:104D80009089301006C422B31002DC818CD3DA790A
:104D9000F9F8EFA3EA46F85D03F5053A59C8BC8077
:104DA000E68F5866FA05023360053CDE98821EEEF7
:104DB0002C03BFA89B30C803B8309DD3F8FA04AECB
:104DC000511948DD946DBAF5611266F366D7AE0CE1
:104DD00022B3D7CB01B83DD74BAF8BF7C98B7C0241
:104DE000C5100C9B80F32360192D0DB9FD61200DBA
:104DF00017BEDFE5C7E6AB6403B9F7A011CD9C147D
:104E0000EC9820FEB344848050308972B3281AE6AF
:104E1000B485B39B40DDD8F896C8D949DC8028F723
:104E200080D4FCA6C877308813CFB37FFD43DD4123
:104E30006720300488805678E0A961BBD0820907DA
:104E4000CA0482C7F56B21DFA4B7FAE33053F8F840
:104E500030DB56F280C4B34EC3475FB6FF2EDDB6DB
:104E6000743BF78F28F26BE575F9B65CC8E8A303CD
:104E700025F2F50BCBB3AFDD5E9D12C9F5215509C7
:104E800077B4734E71937805CEE038D3A020978322
:104E9000507A5E3857F79B98723060BFD9116BE338
:104EA00098F3425F6C6A52BD6AFA09E95515E753F7
:104EB00005BB10B8390A0C6B751C34E2980D75BE31
:104EC0006812E35EF3B277DA7F65C821794CAFE50B
:104ED000C116C2F37D9305B7A382A8776647D509AB
:104EE000E57F80455230769920B861240C9C1030C3
:104EF0000AC7D3403F2F44128C82113BF3F0FF7C52
:104F0000E0C88378750FE0019DE8F020D9BB5F4FC2
:104F100069E67ECF46131D010733193C26F245D3BF
:104F2000E3A5D3817F9798CAECF343C63DD770FFC2
:104F30009C98B369AD028041B69DCF9591E69849A2
:104F4000B300522FE0F32EBC788BD3C5C6D3759E29
:104F50001EC6FFD1D9F9CBE519991B12E0B911B3DF
:104F60004872B382D74EA637E0E4D380F5334112BE
:104F7000C2CEFE13604463D3513B35C844FE9F0A42
:104F800080021186D6D8FDEE1D08E8707523EC98D6
:104F9000882148224B81661FF31480A8015E7E6E33
:104FA00066597D1EEF2430F3C0100802C6235F7FD0
:104FB000F1208834802812C63E684142F33B4C48B9
:104FC000F8FA74F53961C726F1BF2FF30132F3DB2C
:104FD000FF1540F2E8DBAF54EB3A254B30D60860C2
:104FE0006D2E3878309ABDC001FD8CA07A9303FFF6
:104FF0003568FDCC32EFFA0AC553ABAE603D940282
:105000008143FA3F3C7FAF14C8FA8A66F328F9233C
:1050100034F4D4418AC003F3C8D077BB982042014E
:10502000751F08EFAB86CD64EFB908651269A8FC5F
:105030008C395030D76FBC772034DBF7F880CD83C4
:10504000644C951053CBDD229E46218C8111D5E511
:10505000322EBF7D0A8D13AE88093BE0C04480B874
:10506000E2199BF8020640C0040344139001C60EE7
:10507000F138FAD7D398065318AC40A5C846F07C4F
:1050800002BF043BC81007449890AD491DA01668A4
:105090004176BEE2ECC8D579E00BC0E245F477A5D5
:1050A0009820C6AF1B3017FF9A986DE6DFEB699129
:1050B000C86F05FA32EACB2454FE8834E0BFC2FD43
:1050C00052100C82B12BB7B69890FBAAB648F50ED9
:1050D00081A9B37DE66481F6B3919010A2952F95D6
:1050E000C840C95245E0C044D0E858080A86ECD709
:1050F0006E26317250033B81208490A8FFD8D9FFDF
:1051000094B3FBEE40FF0401105BDD10BAF6E4FE41
:1051100020D3F5F2B44BCE3838F3D5DA2273CFC6AC
:10512000EF37B30804E0649EE0B56CF3AE80B1FEE7
:10513000F5FF50F92EF6C46F62DF9DA1672D460280
:105140005DF398F828840B6628DEB344E750FDC76A
:105150001639FB3066B2080F667A85CEEF62FFFB28
:105160006727ADB1D66A018D5DE9F9E648113EFFCA
:10517000062EC00F20D4BECF34B1EE6EFB04805E8D
:105180003120444E31F3237CCC84491773639FF95B
:10519000671162A29FF2329B8FF3EE0890FF97FB9C
:1051A0004030FE20015AB9C3800241D6B9C079A06F
:1051B000B1402F2F8519E0BD44C1C81481B88F6F4D
:1051C0004C44A1CE5670FAC40CD293BE3C663B53FD
:1051D000F83DE6424CFCF8FB06150BFF983BEDBA98
:1051E000F3D6814BE2FC1D5AC110AEFC0831FC32F3
:1051F0000C36B25B95FD75EE8F196B8B20017F37F6
:10520000AEF90AB9B338BA17D4DBC53EE5B5E90241
:1052100069F03DC0622D81C0FF9ABCB304CCBDF5DE
:105220009524AAD302F57040EC1F018003A3689B6C
:10523000FEF710407C0F22B5FC3FF08595E0897C9D
:105240007FCAE5226BE26DE315F8D19DAC8020109A
:105250000D59FC9076B105E3F0F24D0A75A288A0D5
:1052600030D772911BD69FF5CDAE8C36140242E03A
:10527000804AE73B1424409E52F80A60030F800CDA
:1052800028CEA8FDBF202656746DA662DB7710825B
:10529000BFE918EC21342067AB006E2ADD85057369
:1052A000F912404FA7949256D1A3FF060A7E328C82
:1052B00019A30B75F1010A815804191BFB488105DC
:1052C00099F83B04EBECB26BCE7F0979015FBF6BC1
:1052D000C0EF36D1FA3C762FD2D19A0A71FC8E2CCF
:1052E000D5A07748AF84CFFD7D909CDF5F247BE71E
:1052F00098FC671BC91813CEECCB8043EF9EE48665
:1053000078B066442FFFA3BD661637E3FB561FFB3C
:10531000ACDCD10440030DC8F9843D2515C6D22864
:1053200009B2087410BCE5F0EE2D765DD3B397108A
:10533000C9C06C6167FEE520DC74F5D20693FD1DE3
:10534000E8FF947B651F19D635384E6C530E50D745
:105350002D7BCB19CC49AFAE2831F76CD9B220BF29
:10536000CE6E89D860FA5BB64935FD68DCFB8FF6F6
:105370007510C9DB11143653D596888B11B3448C44
:105380002CE640F351DB1918F90A8C1A7087B27BAE
:10539000C345C60189A010FE304858FF9863D66403
:1053A0002FBBB2181958B340E9B49FCD5C30FBBE97
:1053B000467B813004B48036E1FBEC0A3814F6D029
:1053C00004FDC7F70E206AF81598E9621E41EC90BB
:1053D00070FEF32850C161234C12FD3302AF7BAC49
:1053E0000482406F5C3320EE9B60FDFC09FF8E2041
:1053F0006347E7B6AA98FD2DDB3C016FB7EAEBB136
:105400001F5B95308B664975290118F353EBE1104A
:105410006685D0FFCAE2B0E30E087B5F4067EE1FEF
:105420000CD5F6FB19A99B94C69604F337AAC308BA
:10543000E3B481ADB8901B7617B0F94970E4F76713
:10544000FAC72283585820A788A3E997806D2410B3
:10545000B0DC88A6E2EADEA31CFE73E6A425A21453
:105460003A9406212360FD4FCFC10BD92228146C3A
:10547000376A427ECF31EBC00418031A6049ACA9E9
:10548000F0FA24800650014405091B20A097FECBAA
:10549000B92A540266F6CD81418907711B2E4C054D
:1054A000FD24B49DF978A0C3DF5283AD8C60080F52
:1054B00030F1858498EBB04442BFC101D1120B9802
:1054C000B1FEBFB1E32CD9DA02DF7A478EBAA00869
:1054D00058FC04E086CA9781E20637342EB786FB73
:1054E000C488A0AF8EE4D215D73D41200829EF2310
:1054F000824AECB0FB322FD6F6012FEB0D10CFDD38
:1055000058E0089F4096DBD4F8E570E7C1FD15E749
:105510003C7D32E4C8DF6FE68E39ED3248F88EF418
:105520007606ABFC1018E36A75A0F8820E9BAF00FC
:105530003EAF18BF32CC84FE510E806EAF44196D61
:10554000E69C23E63E530760F962F90E71BE8B11AB
:1055500078A7DC2E7FD9700DD1E0FD862529D6B243
:10556000E78197F79D3FBB0DD06FBFCCCC89AFD8FB
:105570008418E7EC9308BFAEE4B85766DBADFECC09
:10558000263334566CC1B0FF7BEC597F31F804D11F
:10559000D8EDD3C8FF8F198BFA5667F970B9A76990
:1055A000FCE6F479D9FE5378E636690218F591AD38
:1055B0003162A0FE82058A2C3B0149CB505F931ECD
:1055C00008DD518070D47E10092462E6881BF5FD49
:1055D0003CCBC7FF7904467823AF79302090FB5E3F
:1055E000886206D12FA25EE97BD0B0201829E5069B
:1055F0005FA77FC3EBECB8FC804419663913FB4C02
:10560000C4946A2826ECD00440850808BF7FAA32DB
:105610000118FE8045620ECD180990BEF0C4738754
:10562000809D05FC16C169FDB8B3D17658183FD5E9
:1056300091200460FAE0622E191EC0036CFB0F4536
:1056400067609E41B007F020DC995229D3C8041A44
:10565000C055E0833C38B1FD2F94CC86B3B10C2308
:1056600066B724C4667EA21874686010A9813008E9
:1056700096FAFA78CB8096B57D8C661BECBD7640A9
:10568000C0241895F96E1819AE210FC030EC08C867
:10569000F8F6D01401B3AE1236F7092FE298E0CB3A
:1056A000EB2FD5D321ADAD94F88A73E703012C1904
:1056B0009F5B930C79F989E8F9BDD3EC10D878FC9D
:1056C00081B3C1880365FA4708D8E4BC988CFDAF64
:1056D0003698CCDF01ECFD50F9F598247FAC02132D
:1056E0005FCCB1045F3398D26523EF36088076FB38
:1056F000D3F87ACD864DFDE7422C930147F37F49DD
:10570000FC26B2017D98106C39FD84093001E9FF57
:105710009ED0B107AF529801E0302B2FC09839D3FB
:1057200007FE60413C2018FB08CFEBB46F31985F57
:105730006CE506C0CE8067F5D3847A9883C43F7F3A
:10574000129C08B3058BD8F82C97AE4B456CC0045F
:105750001983B390DB0BD6B0B111323120F9AC1004
:10576000D5D0107998FA01625E98B1802F1198D245
:105770007D812004266815B1EF6DD8010499E78A70
:10578000ABE808833058FE9FAE9890FBC412D3B9A3
:10579000FC980337CE986736040136A8FD04B32978
:1057A000F7305862FB49A3883728E4F18D08A70A2F
:1057B0000E3005BA83F88866B4CF4202D3BB13AC6F
:1057C000B15102262CDEBE1A30FF13FF3380452074
:1057D0003BFFFCE011FE021EC4C57D98E0AF4040D7
:1057E000983166F89808195E0364013C6502FE135F
:1057F0009DEB980119F398901BC499BE985F30AE49
:1058000004703010F9FBAC20E219CDB2048B2EB33A
:1058100011E13093657D6E3F14042484825130FB86
:1058200002F8FF00482CD14A9D65CBF59BC70804C0
:1058300012E7308006101658D7B8670180AF43D3FF
:105840006AF10D20900476D8FA22806B96F52BEB46
:105850007E068CE0C5D360A33990FAB1601D237F2A
:105860006DB691C4FE32FD348FEB0A71A303E00ED6
:105870004081F608E0FB71D11A1965C8797A8971FF
:10588000303BFF8202053321C8A01987CAD2F92C08
:1058900076B7D2301044AC01A7C81E0C8811B101F4
:1058A0002E96172ABAAFDA8009739D0810E80444CF
:1058B0000C6217F8FEC0B281DDD13C8003B7163010
:1058C00058AE970030B531F1EFE01E802D0409D3BA
:1058D000B019CEE040B088FBCECDC810FE98A283B0
:1058E0006633E6D76641FDDCA866A3E065D2F32007
:1058F000D39634F17E777B021666C80BC554B3117C
:10590000B3DB40447901AEE6B621600D60E610F6E7
:1059100018FD306F2FCC84E42C20CBDA09F412E090
:1059200030CBF6CB40E4A3DC59C877D67F42C880A1
:10593000FBC54BFFB6178028E7677998F99B73EB97
:1059400088FC627BE945B9B6C127C230198CFDBD20
:105950003CCEFCECECC838FBEED67D8A9F15ED50B2
:105960008C2488F23090E6C98402CFCAC81C0EFB92
:1059700032FF40D9A867260BCB989D300881058857
:105980006E9311F5695999BF3D026214205D17F6B7
:105990000170FB6866FDAD0C9007048BF998FC3034
:1059A00002306DE004F8308690D37818BF60013C77
:1059B00010988CF8CEDD4A06B73630820129CE30F9
:1059C000C02018CCFDCC03FE7E389C81FD56215BA7
:1059D000D19080AF463998E02C62DE982CBF85B319
:1059E00042C8FB531E228082057BB3C8FE2011F003
:1059F000981A5112165DE637EB98208BA3C970F206
:105A00000A5E989D88AEA0FD8A7AB703C673C8C0A7
:105A10007F999826E0DC30D9C8FFEB3601CB36857C
:105A200078F588F41776FE98466CEFAE200EC080AD
:105A3000810878AEFAB3263C98E3FBF830B863CF20
:105A40003F195622149E5A6CEF3EFB61040DA09B39
:105A5000A9E2FC3B3A450106E6F70342BD4B01B122
:105A600048051D091A69E6C84CC873B360840C86E2
:105A700030EB0138FC6C83DF0098C24F6D980F0843
:105A8000BC98BF020E38D33D10FDFA80819DE0988E
:105A900018CF073079FA196699F5A140D39CD961DE
:105AA000F9A2D104F2B3256646028A78980641B37A
:105AB000F93D842193D345B3D889FD10667B988145
:105AC000104BD511903D28188FDB7FF99867A810EF
:105AD0008111ED690A08DE9839AED0FDEB627C5584
