:100000000C9455480C9474480C9474480C9474489F
:100010000C9474480C947B4C0C94DF4C0C94434D22
:100020000C94564D0C9474480C94AD4B0C9474483D
:100030000C9474480C9474480C9474480C94744850
:100040000C9474480C9474480C9474480C94744840
:100050000C9474480C9474480C9474480C94744830
:100060000C9474480C9474480C9474480C94744820
:100070000C9474480C9474480C9474480C94744810
:100080000C9474480C9474480C9474487F7F7F7F60
:100090007F7F7F7F7F7F7F7F7F7F7F7F7F7F7F7F70
:1000A0007F7F7F7F7F7F070007047F7F7F7F7F7F4A
:1000B000077F7F7F7F7F057F047F7F7F7F7F7F7FBD
:1000C0000F7F0E7F067F0D7F0C7F7F7F7F7F1F7FDF
:1000D000177F167F157F1C7F147F7F7F7F7F007FB8
:1000E000277F1E7F257F1D7F247F7F7F7F7F187F57
:1000F000207F217F267F227F237F7F7F7F7F7F7FDF
:10010000107F197F1A7F1B7F137F7F7F7F7F0818E7
:10011000117F127F0A7F037F0B7F7F7F7F7F081015
:10012000081F097F080F027F08197F7F7F7F7F7F6D
:1001300008027F7F081308117F7F7F7F070C087FED
:10014000017F080B7F7F08077F7F7F7F7F7F080706
:100150007F7F7F7F7F7F7F7F07037F7F7F7F047F1E
:100160007F7F1C7F1B7F7F7F7F7F7F7F037F0810C8
:100170000C7F247F237F137F7A7F7F7F7F7F08110F
:10018000147F081908200B7F7F7F7F7F7F7F7F7F11
:100190007F7F7F7F7F7F7F7F7F7F7F7F7F7F7F7F6F
:1001A0007F7F7F7F7F7F7F7F7F7F7F7F7F7F7F7F5F
:1001B0007F7F7F7F7F7F7F7F7F7F7F7F7F7F7F7F4F
:1001C0007F7F7F7F7F7F7F7F7F7F7F7F7F7F7F7F3F
:1001D0007F7F7F7F7F7F7F7F7F7F7F7F7F7F7F7F2F
:1001E0007F7F7F7F7F7F7F7F7F7F7F7F7F7F7F7F1F
:1001F0007F7F7F7F7F7F7F7F7F7F7F7F7F7F7F7F0F
:100200007F7F7F7F7F7F7F7F7F7F7F7F7F7F7F7FFE
:100210007F7F7F7F7F7F7F7F7F7F7F7F7F7F7F7FEE
:1002200008277F7F7F7F7F7F7F7F7F7F7F7F7F7FAD
:100230007F7F7F7F7F7F7F7F7F7F7F7F7F7F7F7FCE
:10024000017F7F7F7F7F7F7F7F7F7F7F7F7F7F7F3C
:100250007F7F7F7F7F7F7F7F7F7F7F7F7F7F08158F
:100260007F7F072408057F7F7F7F7F7F080D070B37
:1002700007237F7F0713071B7A7F7F7F7F7F7F7F27
:10028000071C7F7F7F7F07147F7F7F7FFF1F627F39
:10029000C23C006088FFFFA0089001324006C8C63B
:1002A0000019FF03050A4414812241CF068AF32076
:1002B0000365E5C00C94EC9AFF3FED81325006CA0D
:1002C000EE54192869E098A9C688820079D3648021
:1002D0000CB9FEE8FA0014C002581F0B6001E12CB3
:1002E0008004810A0F027034F340F3C805A0E66071
:1002F0003393B312E05030DBC02128B45CE050D31C
:100300009834D3B01316B99884FCC121FF98B1FF7B
:1003100074E5200B041001668002100402C1660817
:10032000BD01E0106534E4E8FECA3A4D804036DD98
:100330000ED199FB024036148C36CF21B323168D93
:10034000D00A39232A00231A14E6EC40425C06A3A3
:10035000E6A8FD02C2048DB6C6B3A40492700CF9DF
:1003600047F8B7841687CFCC9504500F4248082829
:100370002864D64AA9B312D353FB9AC184D0FACCCD
:1003800027B4444020024E88090680D9C6018DA0BA
:100390000467BF1B11360AC6D04437F723255B21FB
:1003A000FCE93B0AD7700B6B3814FDCC08E6C67F1E
:1003B000DECEEDB906F703478602897889BD5CF881
:1003C0009099F9FC306915C4E0D7794BC6D02AB3AF
:1003D000FAE0011090076CBBC00397EB90021A265D
:1003E000C3D3286821FF51D1EC0A72C0418DB67E7B
:1003F000C3BD7A30B340C7662A06C0812240B60327
:10040000FA56F6EF4013F2ADFDD3FC25660296AF27
:10041000CEF9FFB120BFB25811FFF3231333DE64CE
:10042000010820023A0628E1C0FD7BD82260FE08C0
:100430008C82011800B093193CCDF04B4683DC3917
:100440003C8007DCF91EDCC00F60B33D92B560D381
:100450005C63D3680C7AEC1E660C7AD32004243AD1
:10046000385EB310E32F8C49383019F7BD181908DE
:100470002C4CF167ED46D263031808D703609DB595
:10048000FA7BFD5EE012B3D12301B420C046B45222
:10049000B32CE611C47AE8DCB4BE9FF7B301036461
:1004A0002EB3EEF3A8FAD86CFFEC16A04553B6A510
:1004B00010FECD97B0D9376408697D727EC7D0D35E
:1004C000C8989B76FC94FEE7D598AFA1B4C63ABE17
:1004D000CCC83020DBA980606BEBC5C027D99868F9
:1004E000F8FCB13893B8736EC9FF823C68C0D20380
:1004F00062F801D57E025FE97786989BFCD8347E4E
:100500009983ED08466383FFD346A58236112F6693
:10051000A07C662818480B09A1F8ED9E5F7FB4B057
:100520005A5B0B79C58F25FF222A3BFE130244FA42
:100530002067B380BA0260150D66613975FE1C46EE
:100540009DBF03CCC574B5BF4907B8F0D3972660EB
:100550002DF0F03C9802F19823DDFC04E7C5F5444A
:1005600084BBB0D906044AD3C0F2B8F398FDCBF9E6
:100570001D00196EB35F1263BF7F4CB3C02803190F
:10058000016CB3F722981053FC25E96D70F8DE1169
:10059000647A98056CB31667FD7C20100578A5ADCC
:1005A000C0A567CF0521AE1062524817BDB61960CD
:1005B000FB2039622BBB0A55F805FF083B26108249
:1005C000CD39554A02B4E5A92E75E8B12F3550E270
:1005D00018EB171F40FF1E6FF852B01314F3187773
:1005E0004FA403B8FA042CAF9E4D5051FD068CFF6A
:1005F000CC0204AD328F1F1A1242135F7E9810286E
:100600005A080A0CE1DDE7A578B330A2518BFFB19F
:100610009E4F5BE402755CEC3B48800B206D4FB84D
:1006200080BB022061BF14C3985DFBC6304F989811
:10063000BFDA2F7782803CAF2051A506D3AFB598A3
:100640007040EB9878BDE72C2F4DE3301FF5980AEA
:10065000B2F781CEE430809B70FC60CB4AEF32E38E
:1006600030CCB323EA64FDECC036DC2304D9B0F708
:100670002218200BF8981348FB6DE7F3FBC5A05137
:10068000638D66850522BBD06E9940D235CBA8BD5F
:100690009882E04403683F9B7BACFE2FF69A803B38
:1006A000CC7D840177EEA310D74FA22E21B5B15B8C
:1006B0005AFD91D6938B9BB22503E1DCDBE3851ECB
:1006C000826CB4ADB036FCDE3C10FABCF1D835C655
:1006D000166614ADF88201DFCCC4081AB90BD349F1
:1006E000D7302299981B58BB7B2D2E16F593A67CEC
:1006F00034FFBD04728836BD089DA8A4098141EF6E
:10070000530124EEA409FFCDF398372D3EBE4CC80B
:10071000CDC810A7AF9802CA9BF0981A1ED0FBD77D
:10072000FF7F18B7FF586601CFE38604B6FCC430DC
:10073000B7EE5D3E80A7A21A51FF7FA1FB6EB37E8C
:100740006CC891D36656BB4202D98F309402595877
:10075000B821E3F6F322586D8E6439BD78771B30EB
:100760009E2D5381C6106A2901887AE531EF7B9866
:1007700020585023F9308173E55248A623E1A04464
:10078000BFB4FB71CB9DC6307E6DBA647FFC8A011D
:10079000A71130E5EA73105B8008B7D808F871300C
:1007A00094C60307306BCA234033F37F236069F894
:1007B000711E3702FE5208ED56AF145F6EF3C44D42
:1007C000FF96085E4E6DC881F830F20C33CB7E6226
:1007D0005286D61A5E2E66A10489F3CB0288E1F90F
:1007E000706A4D66B00891CACA5052FCC4A883E52D
:1007F000D391BA5144DFC54BA10B31C6C07F6731DD
:1008000021B3481807A0606827DBA8FBE6C883DB94
:100810009630F04FAC8B04CE9CB0ED3D08DB26400B
:1008200072303CD734C808E67323FF046571307515
:100830009E1BB6E9089FE34BED3071FAAF4B370CC6
:10084000B32E1846F38D66A1F899CB300530B30569
:100850000999FFCC800932205D646CF0A634D30482
:10086000983502E719F998FEF33B38402091A01122
:100870001BE6C80D8C4DE1FF93D0A410B3B8D3266E
:100880006DA9043D980AB409FE5184FACC47D301FE
:100890006FE9980CF2622B19118B266C418CDB6886
:1008A00008FF1598F86DE921100646D84E65C80C6A
:1008B000BE9FF37F302C5F94641FEFEE988002623E
:1008C000D3DB7ED8F955CF98FC30A3A0B37166472F
:1008D000679766CD9FD2D06FF011609A44E389E2AA
:1008E00030F69849135F76ED6B8BFF7998CEDB5825
:1008F00010A3DBB67B04AD4088099FE34B19B077AA
:1009000041E837C202EA5A0A65B344F5FF7FAF49AE
:10091000DA32FE7130BE6BF501ED3C7DD5E0B301FE
:10092000F86ABC98EF6BEF1EC428D5F3DBD7980AA2
:1009300012F36FFED7967D1821C430A96CA6B7C0FC
:1009400034ED1DD34361401AF37998BFB6B889FAE4
:10095000DC30AE113330CDB3C021B7F5980ACDB33A
:100960000123CE26453021BC9877A613618BD3B7DF
:10097000B930205F34EF1A0380F3B823F2430DE956
:10098000CF1EB3FFA410C632F16BB37E8458F14082
:1009900050285A179198F22C19F8FF0098DFCD983B
:1009A000F87DDCF88D8A7C788F1951F24273B2CCD5
:1009B000C8E519102B16088FABF3987D96E0B32489
:1009C000FFB428F6788178FF9C046E7080329657C9
:1009D00019D72FB7A7FC04F130FB277F999806663B
:1009E0009AEF66EF3FB410F806C044180845C37A82
:1009F0009804671850C045130B1101BB203AFDF84D
:100A000004D18F6EF640801013FB132D0316C348DC
:100A10007E572E8C63890447288744F2722F1684F0
:100A2000E5BA1774868109A280FCDB976A83F9987E
:100A3000EB651EFD98E4625A03D73C901710AB9803
:100A40001ADFA5413CA007B0BF20D2980FF397E36F
:100A5000FBA03CC04218B7032FCF358BDB3C3CFFDB
:100A6000FE573D20ADA5023D8B062F5BE4300CAD5B
:100A7000F3DF96F9C330B3900192B3B41A31B325C2
:100A800066B07FEC0218DF2022E9B835B30F28509A
:100A9000AF103D8BB3D0B5FCFF435A4403C0600C8C
:100AA0006DDB2442BE6D8CF3FF793811A61040B384
:100AB000F75848200477E1B1905D0ADF5248C47AC4
:100AC000D2DBDCFE8AD7B323FB062B368620ABF5C0
:100AD000047D2FAFD7ECC265BE02E5AF52B1D9029B
:100AE0008F19E586F91ACB17C65B4428260661FDE7
:100AF0003379BDE56802286B7BE0FB5F0312BC6BBA
:100B0000F5BD143779200F347618FF8969E71CA9E1
:100B10006621B6027F174036C0910470B3E8A23454
:100B20009226766612089E6BFE46C2289A080A0430
:100B30003BD73C7369AFFACAED0510020030269D21
:100B400009237DFB2C084430B7AD9F187FC38C5E12
:100B500063AF46055510BB62D298318A4E8DC820CE
:100B600061953405CBD4FA5CD7C81E8EE2D7E081FC
:100B7000B7490145F3FA120FE55010AEED3C907FF6
:100B800015E8FB013D900730B903787E68C8A0F3F3
:100B9000FCDDC809E1982DFDB830DFEBE0EF24E57E
:100BA0005D0C7D9FB736BAD802C466B66BA0F25D05
:100BB000DC2A0604BCD30057D3E842FBEDDFEBEAA6
:100BC000805DA239F398DBB311318F0935D47BB343
:100BD00084093285DBB30B6C4F413E16F922982015
:100BE0009360D872B3385966E6FFFF9066E9628F6A
:100BF000BAFFF8FA2000AAEE3B108DAF41F336336E
:100C0000F394A228ED68D305C0E09960C670E8FAB5
:100C1000185CFFB20435032066B666FF2851669C57
:100C200059672CB7206DD390B1FF6FBCCCDEC78C59
:100C30005AC69160FDE3066FDB9E018BE2B51F583B
:100C4000B80187E57FF9C2B2B140D5B180633F42B8
:100C500079248B7F7D10F9118247F4CC98FFA3058E
:100C6000E0755AFAB018DD0B40620A6606EA6DD3E9
:100C700075291622646C7AB0B3ACFFF0C08C57DBD8
:100C800036B8FE0956BB1028BFB280BF2C6063EB9C
:100C900066801751F2209D97EDE168F88C1EB97AB5
:100CA0007F5BA36D3B9DE6CBDB5AB520E557F8A1F2
:100CB0003B962E62BEE7A308A911F39A235B88F046
:100CC000FD123170FFB7C15A1104A57808EE661401
:100CD000FDD9ED80769E99FAB101DFDABF10AF162B
:100CE000803C5482B60DB3E6E4B4FF4DDD94F30AC4
:100CF000E1B96120B7E33C10EEABA02892FB31E6EE
:100D0000F326BC580E5040E0645E0302800D0EA82E
:100D1000FDE6EC848043EF65058168F2B348D96550
:100D20000950A0AC0AA0C8A81581C9210DB51F4063
:100D3000021B5080D61520ED23FCFEF6C25F2390E7
:100D40005363193FC57A196B470412460541668FF4
:100D5000798BA93A70DDA20F6634BFE0D92DFC98DB
:100D6000DC90C6B99B2077DFFEF78C99F2BC3096F9
:100D7000C81915ACFF40A3263B9605D017EAFC1016
:100D8000C6BA17D89EC3035E3DFF8CB1FBE3C90A08
:100D900038F7B4AFC25E373B31C89EEC81A0FE5736
:100DA0004C8A32775E18FB08F19B8DADD83056F82F
:100DB0001886762FBDC608FB9A2F6711D594B855B3
:100DC000B1E2C66371F8C31FD88C12AFF627A8F939
:100DD0006F991DFEFC71558E9B6AE47B763BE6C0E5
:100DE0007F80186FB6A47F76F438FAC6DC1BFA5100
:100DF00004C830AAB72CC8F5BE40B976DEE501823A
:100E000043FF98FF6518404FB8D70217447C5276CD
:100E100069B3727D24C538FCFD30FCAFB660D012DA
:100E2000FDCC8FAF4B203166053D018FAD7B088C2B
:100E3000A6CFECE1B8FA77367D41BA51B820C9C5E2
:100E40000D6ED4E9F866B4185B5B0198E0DF1872A8
:100E5000CEB68EB8FD35FBE2401B2313117331D69D
:100E6000762C4F98E5AA6B40C5019A321BB2060159
:100E7000552DFF8965D2BE6C302068A5CFEE775026
:100E8000FDEEB247D488018C610EEE5940C97BC398
:100E90001593EED0A8FD40FCAC6CA36E0840510D3C
:100EA00001D08059D1E7BBAEB98004B8616D4181F2
:100EB0000201652A6429A787BC81FE2038E6301428
:100EC000A6EE43B69B29D74E66241402EF01F5889F
:100ED0000E14CAED2C06E3B7BD0141846050C36017
:100EE000832C0DF0B00230A02454F182E999C37034
:100EF000FF9C38A99481874F0A406827A1847BEB27
:100F000016A5ED31910FEECE3105E6E102609FF5B9
:100F10004132010711FC805099006242F0B640A1B5
:100F2000123760FBFCCD8C82C67EDACFDD75088976
:100F30000E01EBF0FB52BFB4829B6A01203FB6B1B9
:100F40000422B343B72904B880C245CF295F2701E3
:100F5000A52179402C4FFCCED846C0D96EB813D805
:100F6000B2018F748064F9E46A59657929BB641011
:100F70000168CD6CEA2FDB5D8288FB06443B36A01E
:100F8000FB76D87172FFDBD8FF98515DC62F7FDFEB
:100F900051D6B13C64B0048D91405C7DB3FDB89DE9
:100FA000C7756A0C670D61ED80B3CC88FA66AC1921
:100FB00001452A206BFB694071B9D96E3F4BE601B0
:100FC00056C770FDD8A0C5DB67081045BE248BFA54
:100FD0002C04D7DBC848FE630D093E38F25E02AA36
:100FE000C4F3C8FB65AC1A4022E8B1AD54D0406CE4
:100FF0007A0702D9B3F8614FAEF20832B37ECE134E
:10100000DBF410907F58D5FD61EB644016FD0D892F
:10101000A119715D7DC02EDC306CF308435FFEBF0B
:1010200030A410C0ECF1FF880880EB216FE8EC34AD
:1010300060D7FD8DF66306384E767B601013AD0DDC
:1010400008740EDDCE04BF024CFCA2413F9CF69B0F
:10105000162C665BA1778C5DE182C9FB0360617130
:10106000ABE86244150CD6FDE3B7D6446BCD9702CE
:101070001A8C36663010B9D88B44808E04CCF0952B
:101080008D7DE51872B3086E46116C4102195866E1
:1010900079E0200846B78758130E219D5C31404601
:1010A000CAEA0B7E738445300A78FED090E4FB38A0
:1010B000EFFDE04158F31EB068F0E03C80070DE022
:1010C000C030820F6212F3019119830FF3E0013CEB
:1010D0000B88FD6A8D701572F9FF81A71862C2B383
:1010E000E06E96067B380342200C52F3FBC255E6B5
:1010F000C0E2B3B8F561011EED11D89804C2B30A7D
:10110000F2B376260CC08543B32C824DB3A0FE8883
:10111000FA9828F5EC41694D887F8034015F43C817
:101120004210D39E802108240B5F7C980C2C201049
:1011300002D9B3FF7E9862DD5FB70CCA77EBACD4FF
:10114000FC20595AF06EDF72E968CAF198E515E69D
:10115000347EDB8CE99B79C3795010BC72CB7681ED
:10116000AEFE9CDBA6146608C8F49801BCD5F45FFB
:10117000CDC64027CDCC3082DFEF9504F6EE98083F
:1011800030C0F3D0F7E0843BF739FF27C8989BFFC6
:101190005A2E826C7BEC92B008EFC07F05CD2216F0
:1011A000F95831D3800CA609D226E4CFA399799AB5
:1011B00009F8D929F93E983BEEE08161F3FF5EB072
:1011C000B13C3F19989B069B87780F9D64E0A00770
:1011D000CE830378102E64809B4FF904CF8EF39852
:1011E00060664D3ED83B12F1E52077A6E5106640DB
:1011F000EF5A982079E5DD2D4D79A0F893FBEF8229
:1012000052B335A0DDF9129EB38C10E3B3FCF1BAF2
:10121000B13367B380C81077C37F7FAE98885175AC
:1012200002F791ADCB8D20897B980402BB407DA154
:1012300060682235872442E7FE87A7C8280898F609
:10124000FE5F1E54B563591C5EE570E8B6FBFD9564
:10125000C2AF9F98EB0AFA336C6E6F2825E06EC020
:10126000A0E130C55E0E43A662C0B540F698010C01
:1012700062F9FA3212BA21E2CB317C2F5E98A04C8F
:10128000769D67D8831216C0BE98CE8048F73AFC88
:10129000D17F1878DC909BB0171A5030A080452C75
:1012A0000AEFC07F49BB12F87F20131A848C1AB34F
:1012B000D3C073C62360045C05F6310A30FBC40357
:1012C000DD5E985CC7B50765C70FE2469C662EE0F9
:1012D000F298E530837898F9F83C9007F1EB4DF3FC
:1012E0002003788B606CF89F5A981079E5AB660CF8
:1012F000042C9C47D698089C305F3E76E83C061943
:101300008DF3393051B2F87E921BD6B320FD23EC19
:1013100088300AF5B3B0AEF4E34041B302026DB3D6
:10132000883C98091903F0F87AC410FFDA9382FA1E
:101330009818D3D398B0A60267F89875B470E940AE
:10134000743F30502441C0D044CC5AE6292411EBDC
:101350007CC9D3622B8D81CC62F2B21BB5E910CE71
:10136000D45AF3C08A264C5B7BF88BBB9ECDACDA9B
:10137000180442D39D3F2FC8CED5108403F3C82054
:10138000BB10D78BC0ED3936F6D0FCA6C6FBC079B2
:10139000ABEEACA05134CFF198D77A4F41F07F310A
:1013A000B05AF88BE7188491FBE3FDDB8051F230F3
:1013B00081FFF67F06C4248D069001887C7FF5DDD1
:1013C000124601C9CA93F4AE8C85172623F4FD0397
:1013D0000B610428CEC6A9FDE0136F5D9878C55057
:1013E000EB98F05F6C98E081F119D3940CE0909742
:1013F000C01CE7C88807AF322E8B75300FE281F230
:10140000C019D76D38F696DFBB44884112E330FD32
:10141000E50846B3BC30B440F68B8201DF6596091F
:10142000B9B3BFEB5F28765C0A20B3B422F398F31C
:10143000C8104BA604D5B38CB3AE25FD5CFA7F1F54
:1014400030DA6420F548067974AFEC6A34473BC85B
:1014500041C0F93008E30C4030FB2442C010BF4FBC
:1014600009F3842C2891F820B2FCFF548065F17CAC
:101470009F96BFFF15BF086D1CFA91F20C6366F9C9
:1014800040B288D8ED2AE3C6F773C0D9013CDE4BE1
:1014900071D4A73230602041B46CFF2598C503DCBD
:1014A00030F6B8FFA811CADA084D9350FD46B67B56
:1014B00059A0018010F69890A0FF21A5CFE2ED1071
:1014C0003292B66F57F3F0528AFDB61101DE9825BD
:1014D000F7536B38C1407F78632C88492CFCCDC80A
:1014E00009B0462ED2211776F3789828987EA3402B
:1014F00002207DB3300850FA93EA9820FB2FFD9824
:101500001E77A5180EE68A66C801EF6BA57A40CB58
:1015100098933031F3C4E2031820D3E4D3C0FEA380
:1015200084607F2F98231E664EDEA20C0667FAE5C4
:1015300010D7CFE5CAC8E53020DC702E79EEF14136
:10154000FBFF6FA5400414B3A4F328E0A5F5B35046
:1015500088FB4B30026BB4E319161919D377A198A5
:1015600030E9808822E0BDFC8210B580ED17500D77
:10157000F4F71AFFAC812484621EE6DD3408CC3017
:101580000120116781F3A4401C4721C8095D8CFC30
:10159000D6F8FAB26A8F865BBA4079B49E1946DFF4
:1015A000BC3042DB71FE3F23F41B0CD642B326DC79
:1015B000BA8BBBF5BF07C798FFCC4441B32897B39C
:1015C0006065D5E0370DDA420BBB5DBEE9575F5D64
:1015D000AED517D6B14A8708BAB16E895A7DF4885C
:1015E000A01134018876B021E5E544C9D420F3BFC9
:1015F000A2CD160BAB35C8F894E2E77FABA622E785
:101600009FC116C1C6041873DE8801B3308BB3B511
:101610000410E898985F1360422890C011B2C12668
:10162000C0AC98CDC8414F5119E23C302DAF7D98E8
:1016300020B61EE530108A7B9806D059C89703C69D
:1016400065C87A9883BF2FE44CB958FFB20FBA1718
:10165000E5A6C11EA9185E2B62BC30FC10036020F9
:101660000884BB46E8CFB6D79B43B9FBC80AAED1C6
:10167000698549F5C03972194C6C2CB043DA9890E1
:10168000205DB31CE0981EF378B3E8198088B31F7F
:10169000F920486DBDF00802F9C8E22001085F0496
:1016A000D21766CECAC8F0A5C9D4428E207F4C415D
:1016B0000410244240A2D0C8FC1C0C345ADE18FA94
:1016C000DCB6C0D569809398BB8425199E657938AE
:1016D0002EE961CD003091B71C3DFBF0F94041AFE0
:1016E000DA7F8CB92321BF3965883988E6C82C0593
:1016F00001B75BCF7A9880957A03E51FFD7FA4053B
:10170000BAD52152E2B3166DE51A395D8567ED4908
:101710002E8990FC6548EBA98244D798921132B883
:10172000A67BAE78FF84F930487974A7FB52C124B8
:10173000189D9F4C8431886BAF1120E41026017DE9
:101740006F9360444CE08801321FF3189804138BA8
:10175000604CFD80213008B8F893E398A2E0B48192
:10176000E0304D393008627C304E90C80318D7D530
:101770009830CA2383CCC8E89DF39CFB80BE57E217
:101780000BFE66278530E689727D10CDCBC8FCE55F
:10179000F0F31998FDFA7F9D5FFB33048FB3EB479D
:1017A0004D588F05CF0330CC442C199897D3C6AE33
:1017B000B32CF73E20FEA0B785E43004A5B563C086
:1017C00067C80323142E8522842310F6983001DB8A
:1017D0008430377C24824A112FECAD2C1CC1A7B871
:1017E000FDB2F6B437DB547003A42CF447853019EE
:1017F000C29E3C89ACF32065A592501995C430DE99
:101800007FE972C8F9072CEB47D7980897D08D0865
:10181000B840DEF0AF21B6E9F6E0E8FEB415DF2807
:101820003DE28D4A5C712904106B0A2F2E383F5619
:10183000AF970832BD9805B502EEEE0C2493E62B67
:1018400066917F9FE9FE8D8C8411995BC004C35F14
:10185000FBD740085BB12D3901501A493712267E5B
:10186000E00B06142C17093012AE167C30040B6006
:1018700001807F513040F1B2FE7C98B93D415F4F0D
:10188000AEF03BF4D43D6019B504356656ABE89F25
:101890006CEA988373D3E2013DD3F46BEA98E2F6E5
:1018A00098B8FFC9F1B2085CB76BC7BD0DB29C8890
:1018B000AAB350D4B351E0B6A7ED5F203D98040120
:1018C000A7AB9882DBE549F9FEAF1D40C8B4024ED4
:1018D00067F342C1CC022019769E28BEB9D8A7DF93
:1018E0007AE32206775705034064C80C0026BCE65D
:1018F000B3530CB3B0F8018C99FF86B33EFFD7F811
:10190000FBD7210BBCD2BF24016719F3C6D138D352
:10191000C098FF6090FF36B328090B6690183F66A9
:10192000AC0B2B5166E0B300A047A0F965BA730871
:10193000C616CC102EE0AEFD32D574B85AF38044F2
:1019400079449ED17931E6E022170EFEC5FEF9EE0C
:10195000B057B7F632FA8BDA2353D4D43A12556221
:10196000C51CD44EDD6204055546B34AEE09C3DFFB
:1019700058E5085FEB9804F9A0406C096FF9512213
:10198000FDD870FBC9978DADAB103997016CF34D45
:10199000A1C0FEA1F3850B6620186CE5B8FEB3F17B
:1019A0000F0FACD5AF2098DDB140C5B902B9D1DA7F
:1019B000586A19C00804185D70FDE6E0A0BD1A79E8
:1019C0004765BE8AA30740AD5FDE2193E5D6826CF2
:1019D000EA76A13988C420D3D0F8C190024A6D605C
:1019E0006EEA8141FCAF2405ABD92815452305DFFC
:1019F0000134D9FD4ADDA5808742A353032C030D92
:101A000030BFD0DC98598B90B68ED6A9A4805BB439
:101A1000E9BD9FD6B1FBD8F408849495F5450C9C9C
:101A2000BC020805AD6130FA851BB766ED8B75B455
:101A300099A04536F0F89FF4DE2004E07AE584585A
:101A4000F8BF19695E98B240BA4D82E56C68FC3304
:101A5000EBC8131B00FFFF343CC23F3C0233CFF105
:101A6000145F6DD6B133E69F13B6DED8FB19FA01C9
:101A700010E0294CE599988B9FB3B68B3A58B50185
:101A8000FDE780AFEC79FF50B9F3F90B9B4F88FE6F
:101A900010EA41313C73202759D11110F122F39300
:101AA000F45F4840E6CF39D0FF0862FEB2B0028B47
:101AB00088C4A1DF5B74F8FC30BBC7F847C69B98AD
:101AC00001FC0A4CCD7B7DB8A8FD808F1835C9AECE
:101AD0009BFD1058FE9419615774B40110B5663619
:101AE0003AF8FB31B06E185DBB499827F6320867AB
:101AF0006CCC046867FF3351321765FFC819824008
:101B0000FFB066CDC902627D0767FDCC84FE956299
:101B10007A15624BC20418F5AE108CB688F8FF2E09
:101B20003A0D8F1953EDA5A8FE8BFB9908A061779C
:101B3000F6B681FC48C2761612C45B0CFD395A5FBA
:101B4000405ECCC270FC631F53B1017DDA46087E53
:101B5000A728CCDEFE50FBC54CCF7D6B186BF6CAB8
:101B60004FF6BB28FA72BD80DFECA32FD61140FAE6
:101B7000C616D10426CEB220CF85FAD4FCCB02748F
:101B8000D3CA44FDE35BF521FDD71BF3642680F740
:101B90003B13F498808AE68DBAD6F001AD9F89FC9C
:101BA00020F7A05B158B96F366A8018E6CB33041CD
:101BB000511078B3CDDD60FC0539FE302004C6E756
:101BC000492102896010DD38FFFBDCFD56CA84150F
:101BD0005AED7E154291D101D9EC6980610E060261
:101BE00081562FA1B240A3BFC0874E89870A82B316
:101BF000B4C0DBFE80FD898FE5D86A7240E19BB3FB
:101C000066727D8195FC22FDB398FDE7A26DC9E463
:101C1000F76B11DFAC286A58C47F50804BE4203743
:101C200057DE0493F399D0F8B210F35F06705C06A8
:101C300033C284B433F6F38EC35989184BAE3C0CCF
:101C40003830DFFDF411204199DBCAF819F598808E
:101C50008FFA4C88CDFD60FF8EFD8A9E9E62D9A7CB
:101C600077AC50F95BAC7721599B01ADC488FB90F0
:101C70009CB530F3531F14BBBC7A669F59CBBBFD98
:101C8000280CF3B5FEF1C5D6AA103239D990FAFD69
:101C9000426C8DB1028FD98704EB9208CCC22EF52D
:101CA000E580908C0A04CA375930B3E72DC4D6F3C7
:101CB00001668BAF130C855AB8BAC510D866C5FE3D
:101CC0008BC29FEF7A98FE179EA1B5A02130F7A393
:101CD000E994A7F69924067BCF2486B2C416F38430
:101CE0008B6408811BC205C0C8FB633C7D77191A51
:101CF000E6ED529F088C888650A0F8E2B6DD881881
:101D0000E8B762160CEBE40313FABBE3CF34F0F64A
:101D10007703609BF648FDD269109FDC608D9DCCF7
:101D200079FFA5E3ED0693FB39116F94EC71A8B828
:101D300088B37B46C142184DF3B6893022F9424B35
:101D4000F604815C58028366124464B7EB02067E97
:101D5000BE0BB32588FB453001F8FB996F07F0E90E
:101D60007B26E201BF3CF4D6C0F39B0FB03C3C188D
:101D70004BEDD371F4BD99A0C680D3CC0301D3E061
:101D80004E2C0860D3F67FC2DD08B50151B683D66C
:101D90008B7E7F01C81B59F3C0897CD3804DC65010
:101DA000FFFDF8B5C0DA8038EDAD8DE00CB3FCA5D1
:101DB0007BED1692F2B2059DB321D0FCFF88EC902A
:101DC0001802CEDA9AA02CF842F1B33BB2C43DF12E
:101DD00024B420F6DF4A0CFF5F9864C4CA26636609
:101DE000FFFECFB5065BFC101119A7A9F837EB98D9
:101DF000F98623AF4031981E339094F704F611C64C
:101E0000F9E7B3FA9840D3DA9868F82FD8966FFCC0
:101E100025C012D896D7FA86986CB36BE0982F0A33
:101E2000F598CBC0663D468108189DB767FE9212B3
:101E3000C43F7F215E98B6184AF30479FF521340DD
:101E400002FE0C8209B00899FED3C598F196CDB573
:101E5000C0F0AB2C53DB981E1075E0F03FD3033974
:101E6000200FE041FB2C0070FA046F3398F874C522
:101E7000FC98DD661047B6F66720FF6D9819FA3DAD
:101E80009804B31916CC2231C9CA26FBB51A6DF3D2
:101E9000900817B320FB980A78B4FBED170899A5B2
:101EA0001AF6CD2D97B204D765E7A5011081698197
:101EB0005E98EC20F0F96DC21063E2EDC696EE601C
:101EC0008BA8D8FAFE8F6EF59803BFDE7F5B2C924D
:101ED00058A01B7F2E3499612770D633B01CF4FDB7
:101EE000A204B333E275FE13683962AB1458731958
:101EF0004F4C9868FC220F141160F973CF2601DE55
:101F00002418966E3CB1886F2F98BCD0BADFDE984B
:101F10000218050B7E698C82493006334F0298D136
:101F2000DC0F6E19B1036F4A980C28F0980C8F667D
:101F300098801ED371060BE0B7F678B4FF59914034
:101F4000B9A7B1036F38E5B4C8EAFE1589F3E7987D
:101F5000FAE50825FCFF6E2CB4DEECB10B0254B39D
:101F6000F11E266626B3681990BD4B887EBB6206BB
:101F700090207F5E9804A26FE6AB7E6EC80636CFD7
:101F80003FA79C7C4803698FC6089B0561F8F859F8
:101F9000C25CB7455953089CEDB46051D358B3E7C0
:101FA00095B2190302A2DFEC4B53D29720A0CDE1EA
:101FB0003076DC8170B09B28BAFF44A1206702C84C
:101FC00067F9F88A2C6602ACCDC802C9680E019E7A
:101FD00005DBD343AFDB22FE5F11D3CC4B58B3FFFD
:101FE000B7A3E4CA120EC084981480C469889B51B8
:101FF00076494CDA2EF2E6C808D7D7A5C08BF00C8C
:1020000011CAC83719E5300CDC305E983F1907E279
:10201000011C08BB688B7D4D028C29FF33F2D61959
:1020200010516695EF981020E9FE68B36819A38CEB
:10203000D355D901E6FA21DB63B096FB1ACBB32264
:10204000D8B302613E448201303588E519F8499BD6
:10205000CEF498A066D9C8B1084CAFC83B85ED5501
:1020600054D984B03DC2488868FC30EC0260F8B1B5
:10207000D5536FB64A37E7859B958BF8BA4E6FBF3D
:10208000D8FB421920A21EF231032CB3C854EC0134
:10209000D06576570451C9EAD9C8BF58997D101147
:1020A000A2B3011B70048214E5308097989F051C31
:1020B000C0480208520EE230CEC2FE04FFDE7F822C
:1020C00042EC0C0804CCB1C81DD249126958D5E8BD
:1020D000B0A5081C98036CFB2C82113008F87D6DAC
:1020E00093F01D460F6080B6F64978402BCE3080C5
:1020F0000704DF95302CEF98201EC403EE19100B57
:10210000CAC8E37D43C346948281D9CB6162DC7D3A
:102110002C899E5F3008EAE580579C82363049FC66
:102120005FB64B8011DFA5D8604499B3798594B32D
:102130002BFD2B8EF57F11E84BB01788E962B7773E
:102140007A41049DD0D6072FEBE542FC98C9D1AF68
:10215000F0B420F0987B34F82BF68F04EBF3803B3F
:102160008C30EF32CCD7E062B67310409BE3B324DF
:1021700077E08062DC3146ED4FAF982C39C3870B96
:10218000816428EF20B8F92E9F3D6A6D01685F07D2
:1021900040A362D9C8D904804BF341BC9886371953
:1021A0002096D323BF7FDB8218F92EFD6EB1905F9E
:1021B0002E984E1046CA1809D7E0592155F39C03B2
:1021C00075488287B111B4FCF3985EBDB16070634D
:1021D00059C8EC3C80078CDFC81CEF98C0831810EE
:1021E000D707E001307819A3C39E7FB9DB3783623C
:1021F000D9C8B230BD9810B420E2303B0F9B30D12B
:10220000F843192BBA684088FBAF08D9B33001B343
:10221000B942B311D74C812D30B03BB190B418C83E
:10222000C84DFA65C5BF7F24D781C45B60725A026E
:10223000EE633008200AFE6D3058FE4C192752FF1D
:10224000106608CCE2303FACCB98AF64F4D5405771
:102250009A7697E3D87FB2B420FF350902D8D3CB62
:10226000D3B7CF0A733088FD7A35C1CDD52B40A3C3
:10227000B33012620C670A06DFD518EA4E0837A899
:10228000F59824C798A6B3060858FD37AFFD7A63C2
:10229000AE5917E3FF6B4436B350DA3573D05804A8
:1022A0009A23B928E917A7B4FDF59840FE98880F3E
:1022B000CC6C193C0853CD9885D3E0AFBC9840074F
:1022C000E241EC5670FBAF5B980CACCC035FDDE5F4
:1022D000080601E319D3047F2B7D40D7E5207898C9
:1022E000EDE638F93C985C0D4EB74C6F76230458F8
:1022F000C60983B302465E9872E28CD78E305FB314
:1023000014ED9810FBE0195AF03026BC5C7FCDAC80
:10231000A12489690E7130E23974D0D45779849838
:102320005E9806105866A2FF01C5B830CF36ED1D85
:1023300076FFA8FEE619472D5D0CFED68588948AA7
:102340007130C61AC2BEC6EF2C989B781178DDB3E7
:10235000200140E2E5ECDCCC89B68C026697719BEB
:10236000A5EC1CAEABAFB61698B58FF31411BAFF3F
:1023700069F87F18EF0628FFDEAC02A94CDC900854
:1023800016E60AFC30B516ED174C7C32545A81988B
:102390000B81202CFB8805302178F8305AEAF13087
:1023A00078C5EF7BF080EE5407085AF3192F045DCF
:1023B000ED7E6DC8103D980C6DC030F90FE041D333
:1023C000DAF8FFFD5DAF5E9866647EC280D5B350DB
:1023D0006EB36FC77DF96BBFAE980CF598C1B7DED1
:1023E0007F378084D9B3924439C6B60AE57B029719
:1023F000CB301A64B311DCD308B301CCB30210B1F3
:1024000019B3FF38B3C6F3FEE8AEFABFF5C84B17F1
:102410005962C6F371D1A8E00668D3278CF302FD98
:1024200006090EFF98FF24C313663DD3417BD38872
:10243000FA118AF047A3DEC416DB9653E075C60492
:10244000A2E4FAD9804064ACE20260B55BFF7CCCC8
:10245000A3F3D32FF76E48F9E5B9931B4498B1F96C
:10246000FFB9A475D2ECC6E8F846085FCCBD04D32A
:10247000D8BCFB6E8CEC3437FF3D16B9FF62464288
:10248000161BB1FFECB8FF6189739FF6AD3EB367D1
:10249000FDCE91A6935A4560C86CF588FB113C03AC
:1024A000FF6CD1C8FAFEB026B3F673404FF69AA877
:1024B000FB56ECB70823FD832193D6DBFFBB76EFF9
:1024C00019D8EB177DED1F02415698012E309B88DD
:1024D000FD20646F1077A8C94033126DCAE9F8FE79
:1024E00062400DC00328E00908C0AD3191761304A5
:1024F000A006B281D5CE28B90C383248F340DF0CA3
:10250000351C05B8B9FA7884EE801810D3C17EB1B5
:102510004DCEDAAF04A8E308CB2E010290844EFF23
:102520005404C82BD0FDB00AE7F63C2067F2FE90B9
:10253000FC2B9D7A412008857E06B3087F2D10650F
:10254000FA4B01C50CDB4BD6F5082E9DD8C8FE69A9
:10255000D66B35D6B11F9EFF3BD898FB96912709C5
:10256000863C7E0358FA62CBDF400A3F7204B4090E
:102570005CF74866671870F9B68A7D7B69FC8C1831
:10258000425C168F10FEB30216C3103BBB8C107E4C
:1025900002188CFDC5D5689C6667980C52E0D888F7
:1025A000FF99D9868DFF98FE861F7F612F57FED831
:1025B000C574FFB09046EBFECC1959B30461375B8C
:1025C000BCF8FDECF3D8FA5DDD04617A669CC60CBC
:1025D000197D4D02677B67C8F863594AB120EDB792
:1025E000A3EB38FDF728B3F9CCD1385C55D8196383
:1025F0001A75622BED9018EE62C0FAD7CC51FFB17C
:10260000EF6DB1497EC7D104D8A8FF5FC69679DBCC
:10261000BB9F94FF628A98803005C3B6FEFE197E88
:102620008C10D88DCA1B4580881B58B3184F9BB996
:1026300001CEB35E1920EFAF02B0BC9B293DD7405D
:1026400046C1E7EE8DEC19F913EBE620041DCDE54C
:102650000240AA3D01F0F88C491E02BC04CED3C151
:102660002B8A2371AE70A4FDEF16C3DD80A098E223
:102670006950207AD5608CD244564AEB8C48EA5097
:10268000D8D920056648F330698608349D8214C97C
:1026900018FDEDC143E9F1704AA5404D91CB97304B
:1026A000E69825D7B1FDE4FE7A73882804A71C5567
:1026B000124860FE0C4021205800A8C8E3CA0E7CD6
:1026C000EB5E4F39DE80FE80A54097801A8FAF8287
:1026D0000833E3CDAA4F55F956DC4A0E10FA4AD416
:1026E000524042D71A6CAFF0FB6479C7CC5CDFED87
:1026F00032ECFE0DEDD6C9C03FEBAD1133F26602F0
:1027000029DF96CAFE141871F94575FEB7D8636CB7
:10271000FF5F296DDB64FC96BA807897B0378F76BF
:10272000F0208616ABF2E8BCE5C3936BCDB49B7981
:10273000B0FC11F8652555FDC86173A9A0FD61B60F
:1027400059C9E6D0F97BB040CBEC41F6F288FBC723
:102750000CC42B5A4898ACB3802B58B320A3EE1866
:10276000FF6246E117FA8918F50C28BF77FE498801
:10277000BEAC049114118204428FB201625930ED53
:10278000080401F23997E09088F7D23E0CA849A4DA
:102790006CE2FB5D360C6264E89D4BB4103BF4C602
:1027A0000C67ED08B8F957F206F6EB60042C090542
:1027B000B748D9411B0F6010FBB7F6B629D36BD6CB
:1027C0001EA8900324D3C0D421D9E8FE0774F79D36
:1027D000B490D70602235A0B4422D8A00997ADE63D
:1027E00040BD3101DA8005A9EB826680FB09300526
:1027F000C8FC7FDCBD1387D34530892858C804A3A3
:10280000A511805883B348905C5ADC82181E878CCF
:1028100050DE30115CCA0B02B3D6EB42F0D9191E60
:10282000D3C883FAE001F318080732F3C038A310C5
:1028300009768179B47EF90804F094E0F6263ED357
:102840003C80070289A3190EE6E0413C35FFDD66B6
:10285000037FF76630089293F308C4956601B4E5E8
:10286000967FCD8CE030A2EB8384F32BB7C6F1E5E5
:10287000E0BF53E3EC8126C08128FE0983401004A9
:102880008049C47E3259CD09B3093C7FEE492367A4
:10289000B305B04DFCA06A80CF4008F7202450C497
:1028A000848001657417F099FBFD7CBB28EB574DC4
:1028B00079BBAB80B902C6120281F6F130FD8C33D0
:1028C0007FCD04FC8CBEFDD3CD98F4FEE0C28D79A3
:1028D00053C865BCB302E04120B5506C740B40F2A4
:1028E0009E2D82CB5B24F96DEFEC8007FB9F57A4F4
:1028F000E8FB88B2013C987D260910A106CCDA13CA
:102900000AB5CE3319399A04DB80067998BF2DE0D9
:10291000115B47F2FF4EB4A0FFF44C8031BFB0FE14
:1029200032048B6002068009C4BF7F02C520C0B993
:1029300019568C47608E393C6004F7A268FD6064CC
:10294000E7CF0FE495019BE9C506F3F6784009E06F
:1029500023EF98403CA001B5F4F398CE084BC68312
:10296000D3BFA820D930FA7D515EC52FB6F58B6054
:1029700089F998EBE0C25F02E5D8665ED34CED10B2
:10298000C1F9D3D751FD0DF98041100A06BC9998C1
:1029900019688B2CC6FF68E50844B3DBCD98F56653
:1029A00023BC61B36F95F85ADBD068F94FB0018052
:1029B000902B66D798087998896F4F3409CB2014EB
:1029C000CA4E3773E4270175E8CE849B48FC4FB7A5
:1029D000CF2F393CB4F6DC6ACBC99994659B56AFCE
:1029E000D840EDC320A066179FE8D66EBB7AB1121F
:1029F0003F4098649B119004549048B7CEF26B4EC0
:102A0000B130EFF904F3F275CF04A3B321085E9857
:102A1000620FB3A40130C1EF06C08857572C8BB4A6
:102A20004DD47509FC3EB305F0F804D8BC98770C7A
:102A30000878304109B303FD92602406801188357F
:102A4000190880BD052818FFED5BE36866D70960AB
:102A5000765191B0DA15DF3020FCC90E601D3C8044
:102A60003CC61AC00178ECDDE041479B303D80BC9C
:102A700098E77E0FE281683732D37A26B92320DBCC
:102A800060FAA8D70366B830FFB3EFBD980A6AF8BA
:102A9000A185ED19B620E3307F3498F07E2D793092
:102AA000227F57649AC5AFB3A1F3983D6684FD8930
:102AB000201246C102E8B34C3628AB00A1D8B33887
:102AC00012466610D7E371A5EE2432BD06D0DD951F
:102AD0007481E6B8796664A8713B9408815F1698A2
:102AE000D3B9B27BE6067880FCCCD32F6372BADE12
:102AF000C4787DFF33AB7C98DDCB48B6F837CAF697
:102B00009806F1061888065010BC98C43E32E6FCC0
:102B10008440DFDB9810054E3C78D56C9DFFB68273
:102B20008044738426D0DA413BD60104116B190529
:102B300044BB91C00433D2984039F7652212F9DFC3
:102B40008091B723BD450C8831B0DF7FAC19C0F54B
:102B5000147798B88EBD6020800858A67B84893091
:102B600008C6DD2F11BECB3F0980F9B9E0AA305E5F
:102B7000D22FD9C9F51E9DF090C003FE9828568328
:102B8000D3ED46B9300CF79001F480F9982FD30CAF
:102B9000F9BBD39579FBE05EF7E8FEFAFFC0EE32B1
:102BA000FEB3F503B1203E2D30B21C397D8264782E
:102BB00098B92AC671B4FC20B3860EE53029DC50E2
:102BC000AD2889E3847F809868BBDB92013EB21018
:102BD0004006C124F5B32C7FE4110279B3DDB1E0E6
:102BE00085B020DBF87D0C716AAF8B9801BC98FF33
:102BF00033B89C66080484DD3F90E1980DDA30AF6D
:102C0000AB98404B9E47BED3F8FB6DE67236FFB5DE
:102C1000646BF812802C0DFF0898948880A8B7D8B0
:102C2000EB17C850D84E198E1884BFAF0B49CA9005
:102C30008D6A466DEF3521A00180DF4004A2D9E006
:102C4000DBF7CC1082AEB408D4AFD0071ECF5FE55F
:102C50000906119979C5123CD602CCE9E7B659E7C5
:102C60006BEB980176E00B0A03FF08FA96FBFBBFBB
:102C700032BB08D59845DD9DC08030896111018344
:102C800051846AB4B644EEF608B0361680161801C0
:102C90007D93108C0408AA668BEFC87F45E38D3BBB
:102CA000FEF04BB0804F02C5DFC898F3C4B93007BF
:102CB000D7F220A99878D341DC0C107547D3F030B7
:102CC0003DA0F9A6ADAF40F3C8086DC523E2982B2F
:102CD000597DBA8F6DAB156043D3D66683BC30DBAC
:102CE00081FDF6670A6B000DC3A54106BB48F5A23E
:102CF00014EB98B0636E6E9D0C333042A6E9E36826
:102D0000B305DF3201FBCC139EB381B02008D1B3F1
:102D10005083224977B6DF80215F08303BCCCF9CBF
:102D20007FED2404419AF9A17DAEA8F7FFFD0D20A7
:102D3000212401CCFC688E6DB7B6F5F193CB30043D
:102D4000338D7C97C21099E42A9A0CF684A0E0D3C4
:102D500040FC050645E8923610FFCBEC8054F2C8E3
:102D60000334199C64880124BCDDA08D90F3C80E47
:102D7000017ECCF9D16690BF22EFC96B2626C180B7
:102D800029654814308889B3E7B67969E6D3D9C88C
:102D9000810A0D30FB107602FCA831981323668C53
:102DA000D70284CC52F318381395149BC8013C19F0
:102DB000EE7748C00299F169BF3BCA086004B528A4
:102DC0000ADAAAFAF7B11ED077175D266AA0F34097
:102DD000C8F098ADBED5DB96301C466DC8E0B2C8D1
:102DE0000F79100E92E0C6C7D76D4972F56CFD31B0
:102DF000AE3330FAB1068110EFB3AC72C8FF2D8B41
:102E0000DA9F51E5C812E09A0DD734C818B37F197C
:102E100030C366FFB0ED1016C14DB3DA9323617B6A
:102E2000F3853012C0D4B3101CBF41D39809BD4400
:102E300093D0F0DC0ACB01096338B3BF34A424FC7F
:102E4000DD76BC302FE8C88E9E48240C287774129B
:102E5000E88BB39F5E695D8441F4C228D6C9FEDA6F
:102E60008980AD19408519D919D8F9C8972166FA12
:102E7000ECFBFEDA8E207BC50FC069FDF916807A67
:102E8000F30BCCCB7856AA2090BC98D3943040B6A4
:102E9000BC05AF6FEA0F5AB3FD723022D0990D20F6
:102EA000ED5A0840C1666D44D6BC14AFF809103025
:102EB000015E9868506D93C8D16205CE6612F8FE27
:102EC000E6B3460216181094E40CBA0A157F818CFA
:102ED0001003600806D98049E267765D92E398D5D1
:102EE00060F4444C8211F084C0B9CA403CB38021E4
:102EF000900BE0FDE5075E98BBC0CBEFC6A5E032C6
:102F00007B19C00339FAB1CFE730403C90778D98F8
:102F1000F678AFAD98F039300E3DC61C2068E5B3A9
:102F2000A56FFAFC01FF1F41300841550AF3DB4948
:102F30003F2FC8F1214EB7C1E2302F66ADA3B8696B
:102F4000F36E6FB8E37D5F1CA5FB4D848CED7FB302
:102F5000481011037022AD08B1490C9B7AE0266D30
:102F600083E3286DED9860110EB319C8F9FF4ED6B2
:102F7000C0BE4108BF1D825E98A424EF42AEAF33AD
:102F8000B5CB66D59880F888446FE4E9242F848017
:102F90000410BB482BC88703F10918BFFBD26FC2CE
:102FA000F4FF965C19DEC5590E79199FCB292027AD
:102FB000CB982551CFB2CE106F66FFDD40E01316DF
:102FC000AB0B422B8EE55FC407536EB36EC377978E
:102FD000CC684E34E0E384F2C8BAF2D7C78B9A5873
:102FE000FE69E79810D7FDFAEF348506C276D8035C
:102FF000240426B3AD10B429F375F3C842DC0240B3
:10300000537B4F1022F328F98405CC26370F983ACA
:10301000980C8131FF52C004981B1361B220B9385B
:10302000186DB062353012E99819B987604C060402
:103030004BB339B5D060FF042C8205302238F9CC6F
:10304000E0017D07B446E130F33D8E07F2407A8B14
:1030500078BEC9963E078DBB9003A3F868808C3C70
:10306000D7D7982064C8C919B0DBD3AF7A6098412C
:103070001CE8A8FC33FF23E5D5FC9802F0B88BCF01
:1030800098236636D6FFD8A25EC296E0C2FE98AFFD
:1030900021D19F4041FE9838CFD0FD4866F4B3223D
:1030A000F0F72D84097C0826C028306B93ACA39FD1
:1030B000DA3908B2B30444B3FF17985CF84BDDDA91
:1030C000C0A7C5B0A690206CFD91CDCC64F1E19D68
:1030D000E6EC10BBFFB4FF205FDF1740C53AD6BB5C
:1030E00086F39A55677E3228CD5BE0801EC6F3C01A
:1030F00090FF61A2FF40C45BECC9FA28A0CF3393D4
:103100008CD171D3BA7FEDCCC4BA39EFD926C01CAB
:10311000DE610A5E02DBA98FC5B22DB34880A0CA6A
:1031200022DB9331E6F31B8D66FB40E0A3FECB5D13
:10313000009ACFFBAA3CBBDCE0136324CD625B7733
:1031400051FC37E832FFDCB5C2EFEFCC40F84BBFA3
:1031500001F7CCD49538108A181FB1E8FF8DB0FD67
:10316000E3CCEDF5FF9865C8B759CEBF80630BCBB4
:10317000607CB5805ADA022CC3F8DF594B80FFDA45
:1031800066282201DDCB32E5D67EFE69EF8FF6762A
:1031900024CD59D8100DA5C8F88C19C9EB51401D84
:1031A000FECB10FBC9235A3A2B85D6C8C6F6793414
:1031B0009621DB040279CD37EA38FE1BE0A9528460
:1031C000FC822EE5F58E108B915CE678ACBCFCAAF7
:1031D00023401381A5F6502066A0BD01809D10E01C
:1031E0002C4037D006A069CF2131A8B3FE71BD8035
:1031F000145D4DBF13F11128420E1293A356E841FE
:10320000FC0D80040518FD839C015E36C32469A66D
:10321000889328784DFBAA1836B20F0824659709C1
:10322000C1FA2F60B73D41B6421F39EF0403016870
:103230008550FDD908807F627A2204C22F3D48194B
:103240000123CFB9ED0873ADE0FF69D641E5D7F1B1
:10325000B508E58E31938FDC2808F75A166FE54ADA
:10326000F492A5D978F947D419BC2B7E01190268CC
:10327000F3A631C3D0B1FE7E300BC3BB17A8FF113C
:10328000F3B71B31FF5E21655419B3FE96EB106650
:10329000AD1C125657086FD8F79737F7D0FA7DA9AB
:1032A000948BB2804CA6283DFFD460B0FA8B56CCEC
:1032B0000127F6D17B12D8FD657DF4AA3490CCFBB2
:1032C000931FFDAD84A8E6762C66B008B36F9365B6
:1032D000EB18FF3A8D2DC68056614049DB8C7EABE2
:1032E000FBD800C67DA32062E6C267ED27B8F6E3EF
:1032F000C577BF406147E82504B3CC58CA30C7D86A
:1033000051FFF0A620FF186EFF9610B46F2CFFFE41
:1033100057F654802C3462BAE5766C2E586F2C7BAD
:103320002DFEC8B8F9CB3197DE58BD01E3E128FF87
:1033300067F8FBB1AAAE3B994C945B9B69B8FF134D
:103340002D95B28ECC5724FD1D788EFDCC8EFA0AB9
:1033500010DD198041E6ACFCF505048DFF830820E3
:1033600046C7E7D1E56DBEB6E690F925A0CF2C841F
:103370006BF627012BF812100C9E33CAC5D95C8559
:1033800089FFC8B3617AFF80F1992A67B76558FB56
:103390009947ED7202108A2CB802C3202F8B259515
:1033A0003042F6A352B610F18BA046C62DDB2B207F
:1033B000CE9235D35A862030EC70FD9A688DD9D5DF
:1033C00081BF9FD80402AFDF7FB0D7F12002E201B6
:1033D0000049FDF2F86D9D6BFE60DC8903A102409F
:1033E000EB6442E9636684D20254AE0A354819CBD5
:1033F000CC6605016EA010409F41096C832928C04E
:1034000004A0C59082A6D0F12860ED63AFFB20A692
:10341000ADC04866BB4AF20D13BBD280A3104683F1
:103420005E96BF67A49B10E48B794ADD1A08B0153D
:103430003816A122285E44D20D0FF2F822C0FE6891
:10344000DA629ABA679AB319153E0771B7BBEB30C7
:10345000F96FFA9441FBD9C5C393A7CBC83F15DADE
:103460000DE34484987376AA9E2126EFBD18FCC50F
:1034700078DECFDDFE808FE4550BAC6EB4B1379BA8
:10348000F00B05869FD6EAFA0E099FEBD210DBBD42
:10349000E0FB1C596D103B12469739BDDBD8FA97FB
:1034A000D67B220CB12053E53DECA03BFEFB0C0883
:1034B00032F0CDD8623612A1F199AD55D0FC9FE023
:1034C000F6DB8BE2D30B1BFF30FC1CCB0ED6362079
:1034D000BD51B11073DAC64066F8C4F5630246D830
:1034E000E7569DBCE67B23A711EE9704E2DEEEC310
:1034F000C0FAC930A68B36E18033ADE434F9AF9819
:10350000C062FF67ACC6D8FF31989F58FE08F2D85A
:10351000FECE33EECCCA63F68A0367E3EE80F7FC97
:1035200020912E8584E5880C1FE3FCC54240607D18
:10353000022920018CF67808DD4A586E16EC38FA1C
:10354000804B59780801A8D104887B842BFF18761A
:10355000C3B8FE5BCE72AB18925641BBDB56AF08C8
:1035600011A0B4F04B1E115F792290FE8084BD47FC
:10357000539B46FC94C01E09EC44814559BE9832C9
:103580008E6089D3A5BD7CBFF95FC0FC80C90346AE
:10359000C1E6881801E00242A95C1777BF79126082
:1035A000828C904962FEF0A3044450BF1D40080382
:1035B000B35AFAE03A3280071D53E078101F1CDF3F
:1035C0000806C0017A0307E062E219268DD358BFCE
:1035D0004006CDD49CFB7342C353DBA853FCE40AE2
:1035E0006196A9E62CB24BD36065252093DFFAF9EA
:1035F000C005026CB3A02419CF678E0413D32E909C
:10360000098BFE3F096DB31049B3DB036FEDE52075
:10361000050B76E62FCB9826BBF54935458D76FC14
:1036200010DCF9DD19942E1933F4D47C03EC64E931
:1036300062B6ECBE066F9AFCD0FEF29A37FEF398A3
:1036400025870446E96A6E04CE3F67F69C83ACF496
:10365000A9F8BF20362E0267676E0B744480635B47
:1036600095B1081D60F9FAFB538542C1085DEBD79F
:103670006011DF7FD9FE40B3E06082485811C92C49
:10368000BFEC32248FF27FD2FBE0FBBC982BBCC591
:103690002B7F6798D083F307E4635988DB78207524
:1036A000B11B8520A7F95981FE983CF3100360EC0B
:1036B0003704817066CF7BFF09FF800896B322DE56
:1036C00098DD3010D3845D615C6AB00989B3426EC5
:1036D000193A52FE20EB73F8DDCBF49822513B21CE
:1036E000309175C512B18491CB30446FDB7F1AB62F
:1036F00019E0FD9C309640E25FDD59F77719E6B995
:1037000080B1012EB7F160F628FC5F81CB30065FF7
:103710006F982C084690034BA98119F3987C9687E3
:10372000C9FE98F780FF84087130B3CE043469A9CC
:1037300030A2F35D9E62C5B3C23046D91918647BCE
:103740008CFA04AE315F30C2CBF712BE7F33F93052
:1037500093E16010485811BA1905BEB9DBB617409D
:10376000FF7FDAD0FC7A9820EE3930913CBF089781
:10377000300379989DF6DDFD64B21E3ED670C60614
:10378000481B2DB3FFFC9859661E982FB9E330757E
:10379000BB0A9BF68C299F0840F98005648EB3C054
:1037A000B008F239F74B24C89162D9B7CB9808C753
:1037B0003BCF98FA32CFE2808410A5222D683BB32C
:1037C000310422D0DF20171930FD642C9B8FDABD25
:1037D000118B25A975A8C866C801FDCBF30866330F
:1037E0009D06048840843EE5B2C05BEBF8FBF933EC
:1037F000C4B440FBA56D2FBC2ED3B1647F594B04DC
:103800005C85B7064A194066D52F16B37C2050BC9C
:1038100080F5BA19B9302066FD7FBB19422065FDDD
:10382000BAB3C25AFF42B3C8058265C8C06E9FD9F9
:10383000814893EC621028639630184FF6EC02181A
:10384000EC66C8FDAF265698F24CC89310B5DDE67D
:1038500030C803FE2F3036423384F2C8DBA0FE5B53
:103860001EFB9838FE59E24B09206F35E5EDA603A3
:10387000C61747636404B531790CB2C87B1701B928
:10388000FB8316B7C15CE090FB808897B38C754AC8
:10389000ABD9520265F37D4010651BB3B21930F904
:1038A00051FF0898BE41E3F04E1A306009E3B513AA
:1038B000F3F4CCE0AD47AF40B508FD1B501F19969F
:1038C0008B7E9D84D6B1FF41B51458661293A50432
:1038D000026CA796F9FCDE982D46C5431884C3FFF9
:1038E00019062D26DD19840501B7AB9811AF42F2F8
:1038F000F0F79360412C9682E677AD5208F830DD00
:10390000FF20643D5028FB84457B980482DA18052B
:103910007C3267B3500203B98CDB8251AC8C44C556
:1039200071802D3C02FF7F10B6015F66FEE898F0C3
:10393000971EBD89E0410C10A72030794B0FE67F20
:10394000B37F7224BC6BDFC698F3C0DF9255FC7363
:103950008DC3B813B696D757FC60FC7FB17D3F5935
:103960004B1886F3CDB3F0FC7C73D7B3C1994B28C9
:10397000190827B31120D7109098A7A76DB111FB94
:1039800051C079B3BFAE9811F0988CBF799882502E
:103990000208B87937898A19F2E2ACE3038C3C9FBC
:1039A000EF61A4F8E330274D457F4202254EB08DEC
:1039B00028FF2039CDFE6908FA2D41FD85667898EB
:1039C000A2648437D3E8170CCF3859EDFE100319E1
:1039D0000BFD66E9E1F8EED1F41646EA4D2038DB3E
:1039E0009CBB1741EC4C02905BF77F42FEFEA0F3BC
:1039F00066275BF112F89F6624C40818097169698B
:103A0000A2ECD80923F6824C82916EDB9DB4FF585C
:103A100010C67F9E8269B50B6DE9D2FA3C982B7F68
:103A20000098FF6F988378F3981559FF1E1C7A420F
:103A3000A9D3D940F8D984805E986AC05B96030CFC
:103A4000888E01D9F0C06359C86FCD7D39F9C8D0CF
:103A50002696485EC4E3FB04096012248DE6B49FF9
:103A6000CDCB92BEA2DC99DDB36897FEC6F1A599D5
:103A7000CE30402201378928110D9CB3B2203D98E9
:103A8000245F7F66FB98F0FB672D8A10BBDE044144
:103A9000E76D024C7547ECC1FF1D9866FC40E6EAF5
:103AA00067979820C91A760C820122BF64F998E8BA
:103AB000B3C04816D90DFE205125F048CB7D227F9A
:103AC00003982176B61009027AB405DBCD98D26648
:103AD00004CEDFFE68F8840102BDF5086BF87F11A3
:103AE000CE1C19FB0B610E8C8141CBDB39D6C64055
:103AF00086CA67AD9823BF68FB7FA298F4AE325D9B
:103B0000BD98018078C4BC9858EDD7B498B8FB53E1
:103B10004BC3206F3498FA50D215F87FEC5BEF8CD2
:103B200031D30F0398FF68B3B704F59808CE5090CF
:103B300023610E2C888CE6FFDBCC0178987621ED92
:103B40009898F8A7ADC7087C985E70D35B1EBC81BF
:103B500068CF32B27C980530AE5BC8FE7FFA59E080
:103B60009CE97F8B7AB58DA88CB1534CF5F0E33D81
:103B700068FD40FFD67F9B989FB3F59F9666699E30
:103B800079D1BF401746D0D9C801B3E2FB2042B378
:103B9000D3F58C41B3389A04C0110C469E7AB328F1
:103BA000C43B1724643CDAB2F88089FDFA46C18828
:103BB00058041B963FB318041260828CC884059E7B
:103BC000CD4DC27F748CB405E330F3B580BD09667A
:103BD000980A08D5DAD8B2F8F2C85AFFE7C8017ACD
:103BE00069EB980745D990AFF14FE801DE19B808A5
:103BF0006347E07E6DC8C8F7CCFD69E6E5FEC59772
:103C000020D8FECF61D336C805AB8C0253666F2F28
:103C10009837E2F38B7F6DE591FFCCB391190CBB24
:103C2000112D7BF22EDD37846AC0A302E643B396E2
:103C3000C60BADDA68FB8BE9349FE6EC3EFFAFF8CC
:103C4000DF3204FA3240FDCC019CF367FD328DB0C7
:103C5000D380FE18243BFF98FF241A33938CD17134
:103C600039FA88F9C2B583018D36E3D8FADF9BB5FE
:103C70004023D59373E2103C9773D4D3DFAD4299C0
:103C800066C8F9F8651FDED6BCA64430796EB16B04
:103C9000D675D9C8D8FE2023FDCC7D7F853FCFB116
:103CA00080D5E0908466B3795F8A36E9B8FD24EA6E
:103CB0005FEF5AA02C3F58C6B466C4D2C9FAFDCBF8
:103CC000063AC958C0405A4FD810F94CD65CB26277
:103CD000A670ED8B50FF8F7DF0FB76671856A7B668
:103CE0001630FB4F2FEB4058DB80C1CF98B30DCB84
:103CF000C70125CE48B1FE13DB3FECD4F259CAC848
:103D0000087F57F8B6A00804CD31F8FDAA6608F57B
:103D1000D58CCBF3066CD8E328A0B36E0150188184
:103D2000E411BB7FA0A31220021434F8401C48E227
:103D3000FACE50C810A0FB1A18940305CC46233FB6
:103D4000FF701734345015899118B0D329FB0A6BD2
:103D5000915E124304884E8EC830CFB7F615FA4FE5
:103D6000CD1C5B828527BFAB8C01487EFB69194463
:103D70007464B1FD9DD806805BD758F898B0E744CD
:103D80006CFF18FF12F4FC05A08AEE6005FD86B8F2
:103D9000D8F0C216B370FDC696E202169E66B3B1A5
:103DA00080C5CA20849BE35C3025B7B6792B9ACFB7
:103DB000AF828F160163A64D739CA8FD628D3401FE
:103DC0002292CDDA1040FA6520CDCB1F375833C090
:103DD000FF164031E99601D46EEF669E07CA66B6BB
:103DE000E318FC097EE565F59F2C3840CDEDDE40FB
:103DF000025674012BF468E06CE5B130BF33E50C7A
:103E0000BF7F5BE9D8FACCCB67AC8329EE9190FEFB
:103E1000C4F499C34F563EFCD8E3F1FFB9248F3662
:103E2000D598F9CB74023BF6EB0817FE3260C29EC0
:103E300031CAFCD869D825F17D874BB34039B3FB33
:103E400062DEE5B3107E83C74FE0E917B3B280D6D8
:103E5000EC10307763F912A34466123F69B6A504EB
:103E6000177E32F9C5BEF0C32FD17FFB469E1D924F
:103E700004FF2EC73D9788624DB3FE0AA9B9E0C37F
:103E8000ED4040AC572058C0EA5A80CEFEC4C0FE78
:103E9000D9D14464AC62085BF67620EFDB204004A5
:103EA0004803011018100DAE81E9BE08E977207DA6
:103EB00006CC30DAD3A6F4ED8004E4CE32FDFB115B
:103EC00040180430B17D9CB39F824B2840A9E93251
:103ED000B3B0CB60E354DF02F251BAD16641F91BB3
:103EE00008022065CA0A4001EC4394E24582A45BC3
:103EF000EA9B548D11CB222EA50CF7AB2003E14396
:103F0000BBBE147EF4BF8020F5B4FF23B35BCFD4D7
:103F1000FBCC1FFD2E08A1FAAF9B5EAFD4D8F3985F
:103F2000405A8DCED737F359D910661BFF6736E953
:103F3000849B1E2FCF06AB9BF5FC101FDB4F3CFF75
:103F4000C5BD32CCDEFE02C462CBD7045594029DBF
:103F5000E58B965E777D4A8058FF4488F9067D762A
:103F60002CC06283C6522433EA8C05A7E9D9FD60D0
:103F7000A301E43B97ECC02FAC42306DA7BCB14825
:103F8000FF0AB6B7F30A295F104B04202007C65674
:103F9000A808423FF8CEFBD570C976801777173056
:103FA000F96399E77A4D20C6BA9E5BEAB62ED8FC33
:103FB000107DF6B24408C37D1BFC16010BF930B826
:103FC000B1FE43B53B76580811ABB3FDEC4A79D549
:103FD00010612EF67940FA6A7520C64CAB790688D6
:103FE000ECFD2004474BB29715117D149CE493A07F
:103FF000B1ED125E7A41A88AC6E788C08202C74046
:1040000008C621043DE74150FD9FE6E8FCE246B3C7
:104010007EEC5601411218714EEF8A90FC80416788
:1040200088CEB7AD3FD73C623E10777A1E1E800324
:10403000DDDE60DBDBFFF04018C00201100F89E01D
:10404000300ED0C474155B497E9E34C4798282FDE3
:1040500020C24218605036B320489F18DF0911FF74
:10406000FF200210FBD98084CCD0C008CB830B93F7
:10407000815CB3C34A934D769902137DF58C848598
:1040800030385A024088A17C110A8001311EE0F8C4
:1040900060133FA99DB0035FF646837FC9B2ED7DF3
:1040A00081F406AFC8900126333C081980F21A400B
:1040B0000238624E19F3D0FA5995E466FCB1035CFC
:1040C00093D58653C2031804CE0301A98441E18924
:1040D000F3918063CA66FECCC8F815299FFBCC809B
:1040E00096B321FF8DDA30057FD2981548B334BFDF
:1040F00006C0441841A603198009E5B320FF331F09
:1041000080059D322DF8A069EFB6DE7CF97E40C0B7
:10411000DB48113EB3DC4704FC31E7F77715FE2B93
:1041200030D0A418F2821028201528EFF01654027F
:104130004AAF48109884FC0401CCFC8679C4B909C4
:10414000606EF6FBDE2085010CBBDB77ECD5EE065E
:10415000BEBFDA21E4B6077BA0E118FEE0B3BA20C7
:1041600092D480DBDFFF375A8994A0094FF8C777D4
:104170005DFEC784012E30FED9035818B462D8FC06
:1041800007E14018D002BBBDFFCC08F1FC0490460B
:104190002779191BFE80B3DC6619F8F7C376B57E64
:1041A000F3ED0422E7104850DF2C200907D49904CE
:1041B000C311E9330E487572E8FA440174D5B32C83
:1041C0007A71C09BCE632077661A60D1B9E0F8EEB1
:1041D000E4777C7680F84C264108987F0B62148047
:1041E000847250A057B0D732A49890AB3AFB37B73F
:1041F000ED8E0FC5FBE5C5EB98387766BC07D07A26
:10420000E8EA04F4677B9805B0E0401EC42619E094
:10421000809019923C124002183E0960017B76683A
:10422000FF4027F6CC0C4799981C75811C5169ED0D
:10423000DD8034DE2EE3100640F818080360170C0A
:10424000772A06A045E8F29566BFE2A1BBF9C84B04
:1042500015CF59B3213D236AA6833988C00130EBBD
:1042600046C102DE9862010C8899191644E25C731B
:10427000F30A0480299940D7FA2099989C03BFD06B
:10428000CD98FFCCFAEEA908AAE79E4E2039BBEEE6
:104290008E4AE43050EF688280DFF610024A5C30CC
:1042A0004FC5048120F0B3FAF6C059669B66FA1A2E
:1042B0002188AB147BF85E66B9FF2DD50479DC6DDF
:1042C000B8B3BEB0FF5D176EB1B6020AB3C9F798B6
:1042D0001A220CB9FBDFDDFC66BDFF84012C0A0746
:1042E000E630C002BF7F6079BFFC302B18BF1700DB
:1042F000D8FF8090672E19C05B9120BD7BB225ACA2
:10430000AFDEA1F9416EF1FF0433D6C0A0C9A3729C
:1043100069BF018030FA04900211451B808532E0AC
:10432000BBF9F63226A2C8E6DB56280347FD1B364A
:10433000710DABCFF8137EADFF77B2184604B30F03
:10434000936012E04C8205B5F098380C0A79113070
:10435000C195F97DE7D21BC6F28730BD9883DB3863
:1043600020BD66328D0A08CE9697290F68CF2CB0F3
:10437000BC9857191F30B608DE98033D2011FE98EF
:10438000B1060F32983FCC166AE92E80E15366AE33
:1043900006DD6410F7CFE9C2FE98CA601066F5CB5F
:1043A000B86DE392B3BD02B32065F84BCBFF6AD181
:1043B0005FCFF986CD8216C89E42768360146D6BFE
:1043C00009FE33BFCC51F6300AA0F929ED98236CD1
:1043D000BBB58AFADDEA3ACF23547780FF2B9D5C88
:1043E0002BC28242834808C42920FF2401161402EC
:1043F0008A40089968E9214E0314F86299582D39CA
:10440000DEF52651EBD1E6DDD4661DEEBF5FECE2B2
:1044100098ADFE1B9FFB614DDF2C88A1AF597FCC6F
:10442000D9F0207AFCF76E74FB3C3F666D7698FEFF
:1044300088018138072BE0D2A510707D902080077D
:10444000B2A65FC8ADFC61F9DE9866F61704BCF849
:104450002377B39653EFB912B3DDE77686FED50422
:104460008887A0020B10083CD58430486904AC3919
:10447000FD02116F35D181CB06FEFC98DB8D303FFC
:104480007F2277EDC1149EB30E70FB31E7571F7684
:104490001AD7DE85E74C06B308099C03DF8C845EDF
:1044A000312210FF6B986021D39891E8F87F99989A
:1044B0009C304BB001F2C8F74C8612CA1A44EFFB8D
:1044C0004805820D25F3C880FB16C0821840B2C88B
:1044D0006EC694F59878D9C8F62C2038FE7F9F9840
:1044E000E9E5828F6DD8520E10CA2F0839DB4830AB
:1044F0008120C0C04008DF030296C8BC30D76020CE
:10450000E1CC10EC31FFBF5E9801B3426EB5D0062E
:104510009020242DC27FAA280389019EB469C2027B
:1045200098370368227677C81086FB986002F004FB
:10453000808930C6B6FFF298E1B053B5010BF6039F
:10454000B2093F32EEE9C3BA23E7C4EF53A8BBF781
:10455000981202834594E098FFB0A02410020A59F3
:10456000C88A42BD9800D9D8FCFE982CB69F2FE58A
:10457000FB2B3EC9C388B5415C9659B3566F9F0863
:1045800006F3D32FC8FE0348FBDBD69880FDB1802D
:10459000E0CB7B9FAEC9E7899FE84519BABB84D7BA
:1045A00081081D3099C8702EE284013C6D04B0BCB6
:1045B00098B357F0ECFC8490851928A657C8ACE551
:1045C0005387B32AF9ABD3E90AF847119D866610E1
:1045D00004723044B2C865AB84F869617A9821BC32
:1045E0007ABC9877FDD0F86AB386E4CB0BDEFD8CFD
:1045F0006FA7A0FC89600C6DDF522AD8A3CEA781DB
:10460000F5D7119AD6FB8867C846BE5804FD2364C7
:10461000224808401FB3EA98207D6645302278FC86
:10462000AF96986DD5027D989072F378D169054E5A
:10463000B3CA233EB8C97BBB14CA1FB2C8B7AD1EEC
:104640005C7A3011603B3CA0035E5D300BBD49B02D
:10465000FBBFAD9803BD98A07AF340DFA0FE5A22BD
:10466000FE748AFFCDFB06251871F76D46798BA77E
:104670008A98D4FACC4BE5FB5563B35EBDB1B98BD8
:104680002D1F8619CC4AD7D5982A980434BF4604E2
:10469000085848E4136982E82E30014623FD982427
:1046A00030AE11BB05D8FC2BCF9834BF6DF3680C2E
:1046B000BDE5C6F7ABCABB817330FFEA5C30C4040A
:1046C000C1F518028348CC3041304D2481DE98D0AA
:1046D0005008B0C5B9B1D82CFF8F1D30BB9A604EC1
:1046E000A464B3720E4B11419E4D507FAAFFCB3F85
:1046F000D99635024A7B50CBF59802B7E0CCC05B27
:1047000070EF4846C0DCCB50DFF3754EAA9B192CE6
:104710001605BF82C4A402E064D78A10BF9808C8F7
:104720000219000FE180813CFBA8F88890391950EC
:10473000A622F34802DB7FAD560DEB14014F5E5D00
:104740003CB6F93975814016A442E80CACCA99C848
:10475000CF44E60E1169DA0C5B09DDEBF8FB32168B
:1047600095C893FB32086FE5322360DBAB5162A042
:10477000DD5F90AE78577BBAEC8DC816F94018080B
:1047800009832FEB4880316DD939CA21E60C81901D
:10479000D4C9DB2BC8C0A5327D9883DB18107F32CB
:1047A000900AEECA188073B38FB00F242CE78805E7
:1047B000B183C002F0182003E4351C90EA980EE1A2
:1047C00030C63FA33C1038FC44629E98B420F39856
:1047D000D760CAFEB20505B017F4283DC003516684
:1047E0004991C530C423E6AF79339897B3409BF322
:1047F000F898AF863D98A013013D190926C144DC05
:1048000030FE08408109300506FF2798B380293023
:1048100035A4FBE298C1D5BD0D46759F72A303DD9B
:1048200057B38C77CB82329D6663BF53DC30327DC9
:1048300010B59FE708412404B0AC209DC8D30A6896
:10484000DE98C40612BCFDCF2B2B60493F8F30FB96
:10485000CCBA6C77844BC03DF4073713FB9DE798C7
:104860008DFBC261A3F038F9B240B83003974BA07A
:10487000F47D76A0A6BDCE18DB0DCEDB69371BBE5E
:104880003286EAA5060503FE98F93C0807B140F018
:104890009A02B30FFFFF0878FEB2A87D980C791931
:1048A0007898CBFC28EF5CFBC55EB3EA22BD8B4950
:1048B000E4F737FF320912F6EB42024080302F6EE8
:1048C00098814057DA11C9CCF57ADF12FAE0981FC7
:1048D000D024374C047E52A4E7F360240C6A049D74
:1048E0000A0C80213DF87FCF4BCE7030C79B42FF32
:1048F000180803602024808118A23F39FF32080C79
:1049000081F6111001F09E9815BFB8983C9007CE23
:104910002F3635C57B198E1A823A9EF8532F0B3DE0
:10492000FE5D30B0C9301AE0AEE22C30A2C8197E6C
:10493000D3E0412C1058F8CAF3984F3FB8DD9840A7
:10494000200CAA190EB2BBD1E00BBF029430C2FBFF
:10495000A703268841302FF32F6698DF4C115B297F
:10496000F82BCB98C864B3FE1B30F54C5166ECB401
:1049700021F68DC40AEE2E30C10744F7400B6A427F
:1049800067C80106BC44DE73198011A6B0EFFC2095
:1049900009FE7F1840EF3FC3E97FF140593C6DEFBE
:1049A00000B27DA2307FFA11DD4BFF44D304A0D2C8
:1049B0001C24F70F2851240159BB7F16F1A01305C1
:1049C0007628FC809E9B5FAC6565C81B363BF1D6A4
:1049D000C421F97D84EFDD0AFFF52DC0A0E8BC738A
:1049E000DB5B88AEFF88E230DA40FBAC4E8AB15D1B
:1049F000F3C630C4B488FAF877A2BE0B7C5C8EDDB7
:104A00005BFF017938E04A86900BD302FB012080DE
:104A100007B2C5B3F3DAAFD7C8FA1130FF1E46B3F9
:104A20006FCD302812DF722933B344DC4811A5FE64
:104A300086DD46FF0888042B9A394150D4CF80DBAD
:104A4000DA11F872C09C36BF389730467ED3A0FC8E
:104A5000FAC8300A46A16FE4136053B32166FCA480
:104A6000F7FAA310013819DBDF081EB01040027EF0
:104A7000B3091362048C304547E0D37F60110C8486
:104A80000130F70478FC60F998DCA769E398F3B08B
:104A9000771F3092C8469F88B04F480B10A602B3CC
:104AA0000D423768010C5DC8D7401E8378C00FE007
:104AB000EF1C90013B289930803C9CB2FB3D980153
:104AC0002C19AF389866ED56AF12A91558B30124CA
:104AD000EBDF34E046198AD341CDC8A4AF2BE58083
:104AE000D88B50FC2D97B30BE5C81FD3C2433EE4CF
:104AF000B312A4B363443908F27BEF0401E13484B8
:104B000016E4021954C057201E306D19403C7C0E2B
:104B10008111712F38FF58D9FF3DB39403C410DCC5
:104B200030F4E2AB40FF7C7F9683981E8BD3DCFB96
:104B30004BE280F400EF33858FF3F78F8044222916
:104B4000EDB3EA0FEE2879EFE65B22D3C098FE635F
:104B5000CFFF980A556277BD4BE0EF28EE8E3BD62B
:104B600048FE281E7B661857AC379EF8E4EE946E1C
:104B7000C71B395BF81F776618A04CF3C9EACFD87A
:104B8000B876E3D699FF5F9B6BD7776DC3E6EBFFF3
:104B9000EC7BFF942BAEC8AFF7FBCC0FD807206D92
:104BA000388FD3DF8DAADDFFFF0401AAB102D4B193
:104BB0005BD1FD52E8B1141648AACB5831FA001760
:104BC0002DDBF3A1F91BFBF93837C712D39819C3B2
:104BD00033FFC913BB02460DEC9630F9061CACFF3F
:104BE00004C5F2989B96A8FBEA64FE9E30D5F801B6
:104BF0006691F8FF99FB7AA03BD64B4011A51F4068
:104C00008DBAA710DDE558B0FBBD2401B850AEC485
:104C1000CC5A6DB304622AED70FBFFF4FEDFCF9136
:104C2000F5AC8036FCC0FD2A8162E41CC84625EA4A
:104C30000E013CF4AFBC6C2DFD2CE608838833C517
:104C40002EC69FEB9801B442D04E03DFF3800804D8
:104C500081205AF614CAABE0B3CBF625C360BC8002
:104C60008CD8C3CD40B360D61110F180820AE22007
:104C7000E0442178010500127806507E0A405B016D
:104C80000405C3E2FFEF20E00712D70D9CFC8E0065
:104C900050AC8E4C18017B2011FF8229048AFF1032
:104CA0002202A000164801F94160062481D0CD02FD
:104CB00082FC343EE40628FF0201C90E2ADBCC95B3
:104CC00054FFDFF6EC80D980B4013DF307B892FCC5
:104CD000F5E0D42CCA2F77D9F9449F326FF58DA413
:104CE00094CE28E36B03BA67B8D5D17568B1FD3FA0
:104CF000D83C80C26340EFB25EBE97F35DD6F878D1
:104D000025E7E5F1A98D28144046C456E9C03FB611
:104D100096FD86B110138A33DBC918FE8CEC74B58E
:104D2000CC2CC4CA2204FE32E9C9B15308D848FACF
:104D3000D9BE853DE14BB2E818D3151F595708CDB0
:104D40002D90FD8D1FC8E141589953FDA968E96E6A
:104D5000DDD848FB547067A515046392E4D838FA8F
:104D60005E19B1085E1B57AD501AD3FC3F6C81BE73
:104D7000B3DD93A380B3FF676D008F9BFFB6B78051
:104D8000046067D8EFFE5FFB390815D97977C060FA
:104D9000F8608EFF617E6B7B402D433A78C4BDB6D0
:104DA000FE6286CC19AC668D30F3E57FD95801DF01
:104DB0006AD8A8FD64B3B504FC7760B2F69D32F002
:104DC000FF208F763E01CAE3CD5D0427DB6C4FBD2B
:104DD0006548A8FFAE9EB6B340C92DC908623DAA7A
:104DE000B3043D3FC0B2FBCCE3E3B114DBAE2B2CEC
:104DF000E59D763E80A8FA3FDB7E04205B5B9C0845
:104E000061F6CF33C00C5523FD3201849F68D988E9
:104E1000FE4BD6201AF3F6F41A33C058B14FEC1EED
:104E2000A8FE23EB273D9488B302D344048BFA19E0
:104E30009481B0209D2720598272CC82B7728086DF
:104E400020235DDEE340B645E5961BE54DFB9F0262
:104E5000115DAD80943BD47ACE248BB06644D201F0
:104E60000A10ABA1B40CF9CD7BE5180636E701DFDB
:104E7000515F5ADB40299BB30A43CC47C6A00314B9
:104E8000024E7A20282C1409E1F032C04058F25921
:104E9000210228E66153FFCD21E6840EC0B8C00A86
:104EA0000D81C7D12CC283537F5E4010618132C215
:104EB000908CCC1140972C872206C881C1D4627E89
:104EC000E0014489352006B0F8C539D28163FED8A7
:104ED0004A8B015208408582BAB4EEE5A7D8FEF1AC
:104EE0001F69F2D30BFFDDAC02E66235C7CFFDD5FB
:104EF0001E49F7B922350A4FBD41100828D8FF9046
:104F000059CBCF205563089FB348ED4496FCE61675
:104F1000E916AFCBFD774CB687529C02F4FFC25D19
:104F20003C19C58C72634C38675662508BF98455B6
:104F3000F14299FB7D08136CCCE8FB29ED1720E6C4
:104F40006440EE379BECECDED819F9E7571CD959D1
:104F50004B2980145ADF0836DDA8FC3A6B8041CB20
:104F60005EBA40CA1DEA9E212E59B5A04D96A0F307
:104F700068FE4B62E08A19CBE20211EDE620EAE816
:104F800024FD98FB8EEEF110CBF09F6CCF33415B8C
:104F9000A618FD1BFA8AE35C55BD08B9C117155860
:104FA000BA97AC614C63F6CC0225F76AF1538B2CAF
:104FB000CE387F6596779A31B80497F3A82FCB3A0D
:104FC0009A8828F85B8292B2008005FD23BB1413F7
:104FD000203A4024B1841EE6668014BF4331A50DFB
:104FE00092B63798893BF9D8FB80FEE4D9B3416487
:104FF00025C70CF2889B18ACD310C3EC995428F940
:1050000039AC0CB674CB6C4FC0A9069D03FB0F6284
:105010008A7F690421229B33355F1868F9C8E0FA5A
:10502000E7FD412008AFB418A001353DD61A4580F0
:105030006FE02028D91041DE92BC096C9BAD202284
:105040008DF1FF748473F670F83E9C300914C0CA69
:10505000FF50C12018BD05F651D820018FE6CB4086
:105060002D1076E860844B1460112E88615FFB6020
:10507000783C8001146D44EA42C0F3F0EF1EC08317
:1050800059191CDEFAAFE0E2680330EF0608162675
:10509000C6A8E9781707F2CAFA8B66EC29C181D64F
:1050A00028B3EBCFFA803B96E1AF36F5CF30B06650
:1050B0001B08D7F1FA7E7540CA4F1912BB9804132A
:1050C00033F82CDE11B2125C34040815CFB349F862
:1050D00016010402055D98F2B179D9B384B904953B
:1050E000FF5F8CE5920418BD730E0280C2A4095FB5
:1050F000555F544C6C8921BCF64ED9CAC4EF15CD0E
:1051000038CB78F75D0CA141FA0F6A2BBB41DA6C02
:10511000B4FD3F46CF88CC5A8076DD31BF01C898B8
:105120006BD4F49E0A67D5FF06C8FBF530F7F61876
:10513000C0FA53B3D6C22076432CBD02A63171C04B
:1051400095BB6511DEF407775DEFB2D494DD20AC3A
:105150008E40FF6CB106249EFF8BA8FB84010441A6
:10516000404A670524CED602B5E97B9784022880A1
:10517000456669EFFA0377B7EF779698DEE66F7AC0
:10518000B946F2DE3910F26B9CFD93B008BD66DDC6
:1051900004AE0C836416AFC0D7B31342E3B551D04D
:1051A000310F7BFA8E477CCFFE7074E001058DBC19
:1051B0004CB35A021DB3FFA919FE60405E9833A09C
:1051C0000EF458F5200FE441E8B8F1A602839029C7
:1051D000626C3CAE7EC84A84F40DE081BDE2312BA6
:1051E000239B912003BF7F07DA34402F4968EA17D9
:1051F000F9556D47907E1F0CD3CEB83DE316306550
:105200000DB3F034A784980A18F3D3FFCCC2B5408D
:105210002C18EE6579F8F4BEA0E6C01809E01086F7
:1052200019D2A6E4B30BC5D644C608B164A5B3022F
:1052300039FCAA2BF2C77898214472EB265A0C3518
:10524000968109F2B866FE3D300504DD0D20F3F9C4
:10525000F51ACE4003B98C245AEF9E66F7FB0E2355
:105260001966226F74982008125BF7849006D00D9F
:10527000B6F52DDE49D978F95C5DB70CE5AD03993B
:10528000B79476445C76B3770A66AB8E10EDECBAD1
:10529000E1EFC01EFF77DFD6C93018F6BB40E8AC9F
:1052A000F68BFDAD17BFCC587BFA4D778C1B85BBB9
:1052B000D3780834B76FBB35808BF7DCA21028F9A0
:1052C00013AA410517668B98B3F3130171B3DC3051
:1052D0005E5169D785BE46416F51FF89BA91D0545E
:1052E000D38162ED46043FAD8CAF22EB61B2FDFA93
:1052F0004C01104F5302CC088C84A231537C85089A
:10530000A060042C2B49756608CEB3E70BFFE5AA15
:1053100046DF32CD8B40C00434B326C4A34F8A4C41
:10532000028830EB4028FA806A65011203706AAE89
:1053300026175019FBE27820F603E2013CDF327FAA
:105340003EC207090FE88187E09D1EC4F50338209F
:105350000FFEDF9007F0BA6D95340FE0D54AB3FA2F
:105360001A349E01328228F7A9DDF330666A1309E8
:105370005A05FB780403A340EB6F5798032BF6887C
:10538000D298291996E5129E982ECAF56B86CCDB29
:1053900090609B46F3B05E2DEDBF5966D4A045E00A
:1053A0009348C0838023C6FC98EE630380097E087F
:1053B00098FDA001347C09C84882103B08FA5126A8
:1053C0001011B2B0BDC58CE0A45104B55DB323BCCF
:1053D000CBABE0645529D3D609F02068244191F382
:1053E0001F9CED9820242B6D1025C8DE89A5FF0C8D
:1053F00085979FD5427760BBB706E543619FC3277A
:10540000FF50DCF9E0CDA3F282853623A7D1F6D296
:10541000DF726FB7983DF02977A9FBFE9830C11C69
:10542000DBFDB8FEB37A60280EA0FC57E3F79E10B0
:105430002891E6D865C4733601903CF80D8089B494
:10544000253F777F965D77A6FF86770E30EB824803
:105450000E6022F29E3D7CA8017672C53AFCFA935A
:1054600099C4EB094AEE8CE230DD07241796A5DCDF
:1054700082A41BD5EBC85967D72BCFCF75D3C122D8
:1054800014039360DF4248D017C14593FC648889B8
:105490005F01E8FA60EB400488F5C906DEBE400F04
:1054A000E2B830E5F3C4DC7A36190DFFE74F394432
:1054B0008DA20DDFE5019FA812C0037837E008F147
:1054C000307998A3D31C08D148FC87E6F0FC302142
:1054D000F3621804B4CDDB88E635D9A8B422E530F0
:1054E000C17708036097203DE94DAFAB9884F7DDA5
:1054F00071ABB31444232EBD5CB3208E04401B72E9
:10550000B32933C6CFE4025DEEFF952801805149EF
:10551000F2C02848B3040F35E5F5984C39C641D898
:10552000F9BB43790602A709E58928052BBD590F68
:105530001248C626E4FCA48FEC3BB3E2C47B03A86C
:105540002331B910125DF4C2206C44DDC67685D9D2
:10555000EB49140D8530386D9697C645DC23B401B0
:10556000F0718D05EB5539F413A8BBF94619C6D770
:105570008BE420CFF3DEF6D8FA8F195FFD08B45321
:10558000D247308BD7096F5F6F70EF7B4913AA3317
:10559000A5083B077CE98616B431E2BD0AEFBEDF01
:1055A000F67A80F985EF1E1F25C03DA928B4144A5C
:1055B000A60ACCC0228EE9D7D4984A52FA5F038D4E
:1055C0008382FAF960668A488CE344BB37284FB877
:1055D00060012C305C48D742FF0DCAC0C26DD6A90D
:1055E0006C12F3168B9CBD90012047AFCEB066FACB
:1055F0004B43BC08E6A2C022BE3205216A62306E6F
:10560000F040FFF360228C096713A8FF5B965EC52C
:10561000CA200ED92C3EA0C8F3BD0EC003DEC5D6ED
:10562000411CDF80FABF807DCD420F8A04E0CBE0D1
:10563000F2BD98310E0FB7F68080074C7A0C7AC114
:10564000F364F20D08A0F8BBFE3D5D2E0CBB82900A
:10565000A9C43A1810032EF7B27AB4C268850AEDCD
:10566000F2F03F66F5CF3097BB7B98211033C681AF
:10567000F319B9FDED26BCC8CFBDD29171396E5872
:105680000B8611A690FE2F37AFC2AEAE4D3A2AB3AD
:1056900049CAF028F198AF7BB316A04EF013200250
:1056A000B830074150F8A42019405C488222056EAA
:1056B000F724EF0A122802120AB80488E6FEDDB3C6
:1056C00006FA626ABB2011F778C00401E109200CD8
:1056D0008A5D91C523FC7F08681B21BD98F0B2F854
:1056E000BC9BB24ECAE23034162FB32E49775237E4
:1056F0002AFFFE0BC2D4D3D7CB7CD6FB609E63EDD2
:1057000098FF407D9810765F56D16E916DCB0A6000
:105710007E3D0BFA27E533AAFF932BE022C498ECD9
:1057200086258EDC19D3C970FD7704BCA4F9F30873
:1057300047E4D71941E29444D39AA298A7E57D099A
:105740007129CBFF68DCFA0F7330BF668B03C498F6
:10575000D3D214201986E66DA068BA84BD989A3415
:10576000933169BFC1DA0C244CF8B93C264442BBE2
:10577000B322F27B21300A04CF66782255277ABF04
:1057800014813D30B114A21357115024F30984FB46
:105790009421D4F6FD314060FFE001FE98770E3091
:1057A00083E280B95DB0031EC84DD80362B6AFF97D
:1057B0004079B30502300BD34B19315F4A9862E24E
:1057C000F398BF02195F624DD3F0FAA71A3DFD8C22
:1057D000FC50AF405A98837130BFCA9BF5F54030FA
:1057E000E4EDBD5E985D244759F9980DDA0A8229E7
:1057F000F3A9B33035F3C2B2495439E0BB28CB3EEC
:10580000349F03BD765E0E66BF02F42A03240211A4
:10581000EFBBA9913020350CA0FDEC168066DF0AA5
:10582000BEDEBEDF0EE8F86BB504983D48422FCAD5
:10583000C8153959B5F5EC5249200A85376EDF98FD
:1058400043DD53C067207BE0110942B49F1BBA17A8
:10585000B9EE90032181C828109017FE90D287B826
:10586000AF263B960C20840CAD1DAEDC4B5EF7479B
:105870005F13FF96F1DB96179F1123D3FB694D1140
:10588000C8FD7898DCF034689718DEFEECE08F16DF
:10589000E1878FBC88CCFD1E0FF3551B7752CCC51A
:1058A000E0EF7A9860100FC85C390787A5828C04F6
:1058B0003AC650FE2C359AE630110186A095D16E7D
:1058C000E244F17DE96B9B2C6ADE78095517E7B25B
:1058D000F562D7D06B8A08F2AE20FF8F66DD2F0805
:1058E00022EA448407FD8401772E3002CFC8812C40
:1058F0008209DF5FF7885804937FAC31102F3A227A
:1059000066347A19D50B7F097851160288145D0B1D
:105910006084FE6B2BE7CB98BD1C0C82307330F893
:10592000E8B2817C98B85057461DA7C0301799C57A
:105930005A17F6131D0B07AFE016C083785E782563
:1059400071C6F9C8951AD39FD80840FA906BE598AC
:10595000A1155787982EB6D9C4B37F6C602094B335
:1059600003B471CBC8F9302059D5779D9893C8C638
:1059700020950CE5B86EFD6E4B19C8C1BA4A6EB3DE
:10598000052D462773B34490048021FFB61DDADE4F
:10599000DDE345EAB310CFC8418CA0AD113B083F11
:1059A000C81262022C42F7113041C8F03077A4D4FB
:1059B00008FCA7C2E0C208588B4009030D20964896
:1059C000D94B662001DD0BEFC73079BB7B982441B2
:1059D000E8281034C7E138C89A81D304E37D4289AE
:1059E000322A3D9840B818F35B5911E5D1CEFB152A
:1059F0004AFF5E88A96C9F5D676D9BF18897FBFBF2
:105A000071307A0D06F57D82DEC581E11C4B1720D1
:105A1000CFBC5FBA329F7B0AC55BABD181411969AC
:105A200012703005A91F38F347D98154A541AFFF43
:105A300070775B405DAF963F98D6B81A8856448D14
:105A40004F687ED286CD6CEF0811B842F66A6822A4
:105A5000B92D367FAE9840E877AB589098F933115E
:105A6000872239F6180196DA248078C5672B5521EC
:105A7000F0983040796675553E7F8D1BAE8881BEAB
:105A8000AC7FEB180813601048CC8051A9066778EA
:105A900020F5BF808104BBCAFBF8306BF11EAFB1AB
:105AA000CBC8B85D75390179EEB8403C08D56410B3
:105AB000A4029B083E0AE801EF7898201EC0836785
:105AC000E06801CB0CA0F3FC98BE22040DDCF6FCD0
:105AD000B64747ED47C6A9BFC2BF60F2A790B3F56E
