:100000000C94A4380C94C3380C94C3380C94C338A3
:100010000C94C3380C94AB3C0C940F3D0C94733D82
:100020000C94863D0C94C3380C94DD3B0C94C3387F
:100030000C94C3380C94C3380C94C3380C94C33854
:100040000C94C3380C94C3380C94C3380C94C33844
:100050000C94C3380C94C3380C94C3380C94C33834
:100060000C94C3380C94C3380C94C3380C94C33824
:100070000C94C3380C94C3380C94C3380C94C33814
:100080000C94C3380C94C3380C94C3387F7F7F7FA3
:100090007F7F7F7F7F7F7F7F7F7F7F7F7F7F7F7F70
:1000A0007F7F7F7F7F7F070007047F7F7F7F7F7F4A
:1000B000077F7F7F7F7F057F047F7F7F7F7F7F7FBD
:1000C0000F7F0E7F067F0D7F0C7F7F7F7F7F1F7FDF
:1000D000177F167F157F1C7F147F7F7F7F7F007FB8
:1000E000277F1E7F257F1D7F247F7F7F7F7F187F57
:1000F000207F217F267F227F237F7F7F7F7F7F7FDF
:10010000107F197F1A7F1B7F137F7F7F7F7F0818E7
:10011000117F127F0A7F037F0B7F7F7F7F7F081015
:10012000081F097F080F027F08197F7F7F7F7F7F6D
:1001300008027F7F081308117F7F7F7F070C087FED
:10014000017F080B7F7F08077F7F7F7F7F7F080706
:100150007F7F7F7F7F7F7F7F07037F7F7F7F047F1E
:100160007F7F1C7F1B7F7F7F7F7F7F7F037F0810C8
:100170000C7F247F237F137F7A7F7F7F7F7F08110F
:10018000147F081908200B7F7F7F7F7F7F7F7F7F11
:100190007F7F7F7F7F7F7F7F7F7F7F7F7F7F081550
:1001A0007F7F072408057F7F7F7F7F7F080D070BF8
:1001B00007237F7F0713071B7A7F7F7F7F7F7F7FE8
:1001C000071C7F7F7F7F07147F7F7F7FFF1F627FFA
:1001D000C23C006088FFFFA0089001324006C8C6FC
:1001E0000019FF03050A4414012341CF068AF320B6
:1001F0000365FBA00C94290034FF7FED813250068B
:10020000CA54DC1928E0D398A9C6880004F2D36444
:10021000800CB937F90015FFE0025C800B70012EED
:100220000F04680F2AA0CC02F4F350F3F3C005A822
:10023000E6A00D9CB39F12E054800AD00F2A4068BC
:10024000E0B954D3743CD3B80017E1B960F8304832
:100250006CFF98FF5DE520030480B301D0EA8020A5
:10026000106002C04108BD01E0106537E4E8FE2FD0
:10027000CA055ADD0187D14CFB02400A28593625B0
:10028000E8B3A01C148002FF190A4101280085A0D0
:10029000E9351420EC4034D30AA349B302C29F04C9
:1002A000B6034001086C6EBB84E09740212CA395F7
:1002B0006640B8F881708241D46522FC236602B999
:1002C00085044FC9C080B8FE79C0EA750864F70498
:1002D00084A76A4453D509F30506B30AC905FF503C
:1002E0002565DC37B60888ADEC1A19E6088234BCFF
:1002F000FBF5F37E34F6F3683FEFCD1663944AD8EE
:1003000018DD9608B5F951CA0463EBD3089DD2C035
:10031000030189AEB36040BBF0DC06C0246A06B5B9
:1003200004407A0CDCD8F8BECB2601E555E680B255
:10033000C80A7BE909822011006797672037C2A0AD
:10034000211BF426C628FD70E1669630B358209034
:100350005142B37DF2CE63936002836633D71A4471
:100360007F2F4008D70123E05C02B2419F7D05301A
:100370000838FFC9F707FCF41ED0031839908053E2
:10038000A430E1CF3918ABE0812C0D9AB3A2E01A6A
:10039000738A1EC483F90F470C9E76DBE660413CEE
:1003A000CAFBF3F0BFB903B96144201DFE9769F29F
:1003B000CC93CE5C66416671D33666808153E6810C
:1003C000303495FCF7342504E0E90B6042F63169DE
:1003D000F38A39443D971132029CB3BB11FD32427E
:1003E0001849E7B38BD5F18B66E79FB398FC6BF2A6
:1003F00071C9FF2398D3C6DFF3026BF389CC8B4519
:10040000FF10FD804048080121B78A985A69C60D3F
:1004100020CF3CAFFAB7DCF21A0E26C932F3788649
:10042000D5F8066679719ADFDC28FE957F9FD2EBBE
:100430007241C5E51E19F342CE85C9F4ACB0091C62
:10044000795D34B76017EC3BB4D350FED87F5CA124
:10045000E95F1F6A69BB23FB7F108213531940D3E6
:10046000110C36C280FE982FF4F698E3FFD7B48EB5
:1004700018F0B2143D0B2329DCA6826245B4EF9834
:1004800098040B02DA420CA950187F84E780824955
:10049000FA89F96A10CB1E08EABCB83B451980DE20
:1004A0009836E62024B3AE90CEB102D30F625E6FD1
:1004B000C67FAEA8605263F90D10E3A0CD40FCC525
:1004C000F0D89B1008132F661A2EC320F3E523AF34
:1004D0004D6C2CEBFB8EBB048D3F9AC21020EE645A
:1004E0008830C48BB4D0981A35236CEB98458FF2C2
:1004F0004ACC14193FF3BBFE8006B9FC03D7084170
:10050000DDC2CA3048505C68A37B0438B8FED743CC
:10051000128B98F7FC98DFDA5E89216D8758FAFD17
:10052000C1021D99C69334FF67F997EB89B8CFB321
:10053000E53083BF9BADEFAB31086245B9E898C8A1
:100540001B72205E353069CA4081CDFCA30419D7E7
:10055000530B1BF89DFCF66227FB8185FC98B4CEFB
:10056000DB973018777D842877ED3AF87D3F184B7C
:10057000B314BBA52205751C71BD3BFB05311011E1
:10058000EF66C0A040F15804A1606C8C96932208DD
:100590003A6F83C0FDD849EB9A5D031A2F70228B06
:1005A000AFDC497805EB983C38B6FE2FD41D98E0B7
:1005B0001820DE986FED5E07E0370BD8FB9FA1E7B0
:1005C0008897A90B30385FD87F018FA6E530B6A297
:1005D000FF375BE57D18EB7C84BB4BFB7A4501E67E
:1005E000192412B850B93040A60207611496E9B236
:1005F00023DDFE84067B9811A3CD6821B329E2EFA9
:100600000C74B321442235B3FAFB3792F4948B1E59
:10061000ED6E7BEF081DAFD90FF9C85903764BC8B3
:10062000E02BDB98040DB3C8BCB2F87CC6B6EDDF96
:100630006CAD57D69880A5C2B6205F6EEB0C6D9658
:1006400068F9F9300379B3A2B0C0DBEC454335C893
:1006500080E99806ACDB18407030A4C5C70EA5E74A
:10066000B0FBE795F8981B0427CB984808F7C4D34C
:1006700067488F602D79FC989D2D60840DFC30BB00
:10068000FA37901066C893064420E373FD98A37868
:10069000B30B0939B3405EAC86A19DB120012CB7E4
:1006A000243009B3F069804130F6E9F8BA995E98D0
:1006B0005ED2B704F398B86DBC98CFCAC8CB9BB2D2
:1006C000C80E7A10DBCB98BC2778400EF7B03C10F0
:1006D00018ED96652E79C57EB90251B6661181F383
:1006E000FEAB6239C8DA06A0659B97C7300066A1E9
:1006F000DBB31BBB46D8852342148CD14A69023D2B
:10070000B38AB0677D7FCFC016414218F3480B60B3
:1007100010C04969F7367B980D809111B32BFEE12B
:1007200072ACAF1E7E984820212404B094A388693F
:10073000BB6CD6AB057FAFE508E7308A48021E21C7
:10074000162804DBD59860EC981080AE84B764EA74
:10075000523786E38A18F598060BAD46CD6CC4195E
:100760005905EB8630FC4B002E3D60E43D79DB0300
:1007700091627B4E6BCF301003702064EEB470EF4B
:100780004D660CE2FF35768816E2E5914E1AF610BA
:1007900030C9EDFE1079869DD5B1D86444108264CD
:1007A00023C5DBCC48723068B49A9BE53AF8B39322
:1007B000208DC018EB041144920C0560F734A16041
:1007C0000272C512CFE132FEC640A281140BE16471
:1007D000084CB7F14BD8FE808209300AD0FEFF42A8
:1007E00098F1F51EC00338A53FA795FB980278BB8A
:1007F00040EC0FE1B4E07F253012D3F9C87BFF1E37
:100800000477B8D5E0013D353897C813A366034097
:10081000656D17FF7FB331FF8081BB30D29814C361
:10082000C81796C697E6C588A6FC762040FDC14944
:1008300014EE840844FA9AED9913DC30B305D31909
:10084000A02D85FE1648420A80136CB9D75068B3B4
:10085000778A6E19F64BD8FCE7F6120104F00240D5
:100860004348EB09F1BA11771044723002B3C884DF
:10087000B1400F499884E0C6DD480AC67B9EBA9312
:100880001AD65541A020CF56FEDCBB48E310308875
:10089000DB0B30EE1AE130D37F02306464E4271FB3
:1008A0005C9DC80530DC3034DB0CEB7ACEC0D7CC95
:1008B000ADEEE0B1C0812E1D307D10027130B7D198
:1008C000CCFD1D4ECBF9FA9AC314017E9113201270
:1008D0000C88053B282CCF5167203A72308A0E11C4
:1008E00024C8F29822CD856FE5ABF867DCC008ED2F
:1008F00023411F8C90D109318F25DB23A22CC88185
:10090000F51A317A36A1BD981381240CB401F52D66
:1009100098CB3D2497F619717D7A9840EF71980035
:100920000F6043BF10D49883F85F02671119ED710F
:10093000307B9801784BD3404F4F9810632003646D
:10094000AC80DEC8FEEFBBC1D388419302DE8030AD
:100950004C5EB87E98CF878E98E906A1BD98027745
:100960005B24E4C894D303F3BDC31940BBC08630F5
:10097000D84C4B26B3F3C803D720016C9912FF4A19
:100980009805EBCFC80A0009CB6404B345905823FF
:100990003C04AD1BFCF0FABE771412AD951D65B397
:1009A0002010DC3040B0370821723022C539308247
:1009B0000488E0C9E4300875C0307A2228FDFBC203
:1009C00071D5196FCB300118C9C8FF47460BE080BD
:1009D00020C6E7CEC8FB6077EF7F20C8C8730FF54D
:1009E0003C78CE1902ED62DC30C007B2E816908088
:1009F000B0C9FE68200EEF6FB798FB2D54A249E3F3
:100A00005FA008C4301945A2EBFA213FCF98ECE46F
:100A10008858231582E6BDF97B160D67D306E5FAE3
:100A200084F509320226CF30010B004435D949D76D
:100A30002425B8A2F30BC59D3FFECC010646A4BCFD
:100A40009807410C4CB502C8AA25D767313130FF51
:100A50000860FEC0013C2007ACF2E6F58318C4E450
:100A60008B5381BA1BEB58FCABCE1614EDBC300196
:100A7000BF9F9893C819E0599BD758FF4D245EC07B
:100A8000DE987FDDC2D77F69FCE1F3EC205F963012
:100A900061572E30201C9CE6A8F880FA5FE0EC98A5
:100AA000612196D339DAFC22114B047C3F9130B09E
:100AB000711642F30A40868136B32884D54F210B44
:100AC0005728EB92FDFD371226C07B982008E28460
:100AD000292475348040F1CA1C8836EF06279CC84B
:100AE00092806948CB912149DCB75AC65FE4BB418B
:100AF000DB98CCFBD409C1262D2B765658A6C0FF17
:100B0000A3C2963396B118BC9E2FC1CEC820075100
:100B10009C7B7130A7D815C6D7E31F30E398797056
:100B2000B420F298FBBCF830EFDD45D0BC4981061B
:100B3000E7E34204AF214C2E45E57022AA7A8803F0
:100B40006CB6C8E4C228D0EB9099DBE70967C8C04F
:100B500010DC820452CEA020F9D3F990A40A4FB43D
:100B600098041338654C0851B07B10C242FC9DBEFE
:100B7000322411B2FAFAA260EDB15D269CC803627C
:100B80003A2CC95D5C2E90FE7F124417913001DF34
:100B9000C9F9E9C531ECFFC08318100F60803C5FD4
:100BA0001C409008F355E0EB7504536654AB68AFF6
:100BB000D3952FBD97C8FB9880078A32932978A3D5
:100BC000E4C0013CCBA8FDC3C63BE383BBB108CB6B
:100BD0004030F382C74A61645AA990ADB3500FB355
:100BE000D68F06A4DB2EC817F389FA3404E67CAB53
:100BF000FB1611219FD6821805034059F50AB0BA99
:100C0000B8B67C570C36300502C266A3DB9F3001B4
:100C100084168042F91200236C24D3B984B3045D96
:100C2000389E68F5825130606BF931A3FF38B38F7D
:100C30009DE2FEF369378FB32F48174B5D9DE2E6C7
:100C4000D571F3889BA2FD25E6D3E4A8F3779898A5
:100C5000243BFF98FF280A8C66603986B9F4FFDBD5
:100C6000B6BF03DF5361727010D72B7D9676F9DF24
:100C70009B71A0C7EC81936340661E7344F9F36FC8
:100C8000FB81029474FCCF7951B1D1AFD842A879DD
:100C9000B2458C249D399E8430B5FDFB5F73660D93
:100CA0003FCC41A621D338FCC93CA340F35C6D3C4A
:100CB0002FB2CF38AEDDC4F444CAF2E53765231C49
:100CC000F31B16FF6B23EBE5F9C5E64CB0B2B18B15
:100CD000E3FF3CBADFF795B89966B93B632B6740F1
:100CE0001A6C9FD8FA65D204628BC802166C4C3815
:100CF000FB127BB1DCB2FBC226BC85DD1B10625F40
:100D0000E2627FCB33520138B0B2F9FBE8015F5A9F
:100D100069E274CC8CF2441C8EC808E4C9FDAB8235
:100D20001F83CD6548FCB969DB56FD0C2D0485C0D9
:100D300006CAF20A417C4567B96928A0907F96826D
:100D4000E84F302F08503A404103CF9605A8FC49A0
:100D50006E5894A001E470B021145A397E1A43ED04
:100D600076850B605423E8A110FC224240072B98A3
:100D700081ED75BB62499C427550F884EA2B558918
:100D8000108EF564B960898EEBEAB8FDCDF3FB8E69
:100D9000AF258BF7801899EF9B429F66FDA041FA23
:100DA00085E67DE6B67EB6D3F0FD79D9867DB0BD09
:100DB000012AFE6141BB8FF79290FF5C6F62482A67
:100DC00020EF3094A4A06CB9CC534C627FEB31CCB3
:100DD00098478C7D6FB6640A249CBF08768F88790B
:100DE000E5FAAF2F343593CB53758C108D641D24E9
:100DF000CF64AD3D2096660847D86F6AFF6EB3D8C2
:100E000080FC8A7B40C356ACC8FBCD589E8073CD16
:100E10003038FF824EECE398B5B30186DE49BD4021
:100E2000EEC8B5FE412502B406CB500D176B019BF1
:100E3000B2AC66802F3C64D3CA6C8150FF5BEC126D
:100E4000316C6189FCBF58720575F33366FA65E948
:100E5000AFBFD8A86650B0A0BB967D04428E60CECE
:100E60006FE421F8FD2980A18869D08EFADB01D7D3
:100E7000A114CB24D6279B5B20029BF3C8F9123622
:100E8000C4EB0D0A7D8A6072ADFFDBCF8B59BFC00A
:100E90009C31B008B37795D01A6686B06112CD2028
:100EA000C63AD1B22EC2FFB380D7B604937499E884
:100EB000F863B9ED67F26308D3B28C10C3CF6ECC80
:100EC000E0FB37330AD6E0DA0F3F316C6143F6328C
:100ED00004225577DD35FC23C0F98EE0FDDA4D089C
:100EE000A9AB10BC0440CA1EFC67A9FF108E20915C
:100EF00008C548B9E5F712FBB40180C725F4D573DE
:100F0000CA1130B914480A1B40281A050435D7B451
:100F100080F434124090D90C05EC190C0890D6E0FE
:100F200013B34109097682460750D481833844813E
:100F3000C909EB2820FEB9FA5264B327B6D60814C3
:100F400099229F06D6484A421058FD2212C5539E48
:100F500019FD08500244200ADEC5E0CA0121F952F9
:100F6000068012F6FE18C01028218112BC4BCBFB64
:100F7000FFBCA1F0B305358B7A9A016CE00483F3D2
:100F8000720368D1B8F8F651BBF5E4C0F368BD96BA
:100F900081F733C63D9BB9D08240FB4B104FCA52FC
:100FA00002EEF97FF36182FF40C5353FCCB7FFF415
:100FB00027880D410892DBA501ECA08B19B3BEE296
:100FC000B5405913FA7DC52CC0C3D914CDBE028AD1
:100FD000E6A4D0C9CBC80AB55882625DCCD9B0FCB2
:100FE0002BF10828E559F3F91463D95DB790DB9626
:100FF00009F51A12018B3604A8FA35BB0E1010370A
:10100000CD58420187F76B78FCED7B95DB84011AA4
:10101000D5CA24E53EEB72402CB3D08A15FE928AE5
:1010200061879F91B60185C3FDB138FBB84BA3E53D
:101030005B0AB3848069E6C343CD0CFA672CDE40BB
:101040007D5D0862CDEC50F9191585EAC6A0FFF563
:1010500062DB46B280BE6CDDA1C8B3FB57A224AEF2
:10106000D450FDEEA88AF946179D1330DA11867226
:10107000F3528BCE73CF09F3A0672C1930930E1D5A
:10108000E9F9E07A4518F6F38801BF8FFF6EE42D89
:10109000EAF5350673FB03C06287B3A99083D3E0FA
:1010A0005CF47157E7D37BAE98FC66B01930121E22
:1010B000E3AD02B17E8119D41DC96610DAE8C048DB
:1010C000501971B58091B610484FF7CC60142E6658
:1010D00022575C013B832C04301469B3C004936035
:1010E0004BF784BD9C28B988EC4CFB0211B1085821
:1010F00027F7CC782EFB3C64FB1EC849090FD06251
:1011000089FFF02F9740D332FB0C10F30C0EA1A4F3
:10111000D30C9B2C7CFA2466F3194FD7C283987D9D
:10112000DF915213FB1794C00EF6730C3020D918C0
:10113000FECBB308D6B32334B3A302194E2F9CEFD2
:10114000CC4048FF488409B12D5AFE32FCBF07E964
:1011500036DD40B842DFC479B851796CDAB55B1B33
:10116000685CB91AE729766871E0B3CFF50F4019CA
:101170008666BCED5A06019FC20539D4EE76E5B00D
:10118000FA7F4B9B16C84009CFE971CD44B3E0818B
:1011900016836AEBB60639DF54E882FDCADBBC76FB
:1011A0008C2301963C292018BD213F1ABC013BC964
:1011B00067B38022FD0819B3F8758A3035BAC0FDCF
:1011C000CF220289F7B1800577BD9820400403AF94
:1011D000EBEA16EFA0FDE6887E7FA1CAEBB198E9A5
:1011E0003C2014F0D0BC0319CE2EB294BEEDE0B971
:1011F0001ED60372A3078E6300337EE60C10F0FF49
:1012000004CFED87C0B2D641C53C9E6DFA18FFB839
:1012100006473E04BE7339DAF964EE7A08C858B35B
:101220008BA737318088FEF118E319F5FA466BBEBB
:10123000434C900176AFC0F9E2CE29F5F511BFA37A
:101240008C20B10F5E98509CAE02533044DE8488EF
:101250006C525C30810678B2F87AFEC2ACDB8E202C
:10126000FE3218F57C882CA4B89E5ECA706D641896
:10127000B8976D1701B830F52230DFCCDA1C047254
:10128000300D8CB38EDB7D68F824B5D631C5356F53
:1012900010A3E48C0423F6DD26E7AFF03063F13AC7
:1012A000B3FEBE32D1BF2379F98A7F7FC02827776A
:1012B000761480A5026626AFA0988CE609B072FD70
:1012C000C43C981318F398D306F023405D6EA60F24
:1012D000D38807B803FE7F30E2813C10B0FC0C627B
:1012E0007AAFBC0313C5FC98E4C00C33D320775EFF
:1012F000B1F32719C631F8018A18B3AFAD98503C45
:10130000989AE0828C75D3020608B71CA7B351C621
:1013100038F966F1E51E99B8629E987AEED06FB200
:1013200045D2AEE22CDD9498FF7F5BE102ACDB4C52
:10133000624C29C574AFF3A9374E52C8286C9FEC94
:101340007F5810833134A3CF519103461D23DBD73F
:101350001CD43342A1D9A0FEDC7DB72033CBFECC18
:10136000ECDAB5022FD620E603B080F3CAC7567F69
:1013700010FB64B7666004996C1E98B1110FDA7F98
:10138000852B5F10CF984DAB16D898EFB4800532FF
:1013900008D991FF39C872763CBEA7C6B830E54F70
:1013A00020DE987A1990FE3F30CB9836C89051666F
:1013B00095E6E52B9BCE018D968DF27C98F7A9845E
:1013C0000130D908635CCA7F6D4409CBB38C78FFC8
:1013D000DECC51B3A5501982CAD3023FB3D33E8CA1
:1013E00099B00648D8B38FB7721F240426E3C632DB
:1013F000C8035E61300B0A3BD56B20EB9802F49773
:101400007DF7040680FF9BA532C6AA59198DF21CF0
:1014100010DF25C8AD2DE670BECCE3504FDE690766
:10142000E462BE3C6BF1CC768320E2F060D0B3BFC7
:101430007FFC466E53633012B506F3E53C19DF3E80
:101440007A14404820FF87CC8464BB8C04415253FB
:1014500066F683F6662240586AC66FC8417A6618F7
:10146000110260E292CE884601D006B7D721DB0A8E
:10147000987ECC1ED5B03C2DBDBD98E02CC6FE3F5D
:1014800030C0984C06B07807F1D4BFA09862411CD8
:10149000EDD0F9044D66BC988F14DB1C183F66ED47
:1014A000DD74DFDFC898650621FBD819D7B6C1B057
:1014B0008BF10B155EB305194BC760CEA9FD9F409C
:1014C000A7BE98103222F0FBCDE130946D91C8ABED
:1014D00020E8C5F5CFF0F38FE230FAA1C8389602C4
:1014E000BC30C7100430C6F91856FFB2404C89DF33
:1014F000CD45014DFB92EA66E6C86458F39BB4C043
:101500008077DB2FF6EE1EF4C9480828167856ECD3
:101510009608BCD1C84C398AE5386DF57F9F80911B
:101520002972191A7E532FD31252652DB314F6E384
:1015300005633DFC8281B0108A7D7F7030A7B88D35
:101540003011246DFC328289ECC738FCD4193C067A
:10155000DC30F60FE0013C7F2D30417D9883599BB4
:1015600035E00C9638BE983EF31C0850F9C5F830AB
:10157000FCB3F5F830C9DE1D8081C9E999E63B9CD2
:1015800061FA25D511662CB38450B3F7190860129F
:101590004D0CB020B7E95C24D322DFF0F8F7A80B9C
:1015A00056E8D4D4118A6D9BC80417E130D3477232
:1015B000FB98404270DA2A20EE0B68F8C4FCB3C3F3
:1015C00002FF0BA3D8B6FB21438E237AEB308DEEBE
:1015D000773910677517A66B7B1EC59861EBBD2028
:1015E0007FA6E90DFE04C932A3FC987BE21030010E
:1015F00013F698221AE519010D8CEF12FD6427F3FA
:101600006F8110D120FAF57D22EC89088C05E398D2
:1016100086185E987FF66F800877ED7F313930202D
:101620009A0B494C7DD32124C00850CC412C02EEAA
:101630008609D0F3E54DAE565F5D0FEB98F07CD890
:10164000C83DA652C819838FD3F7C2F4400601FEE5
:1016500098BB4136C808FCD69760E3FECFC0DF5B7D
:10166000AF301014F4981896CB768BD3C2CFEFF628
:101670006B08D85866C3B308B162BE98AF98EECD78
:10168000040C0E9397D305BDB349300120E71971BF
:101690001D9FFC7F8028602C11EFDA7F307A984103
:1016A000FF0D6B04C18120BF445FA62D20110406ED
:1016B00012F8D966086399DC67ECDC5797A3E32C32
:1016C00008B9C2024DF680FBE6B399C86626CF0280
:1016D000600CC4F5AFC069BB4603983304316DB7E5
:1016E000E428EC2088FE9D8055C8E57D0319961CF2
:1016F000316FEA4328EB99B3574279692D4442B3DD
:101700004F829D44D22BFAAA2F988F895BD00A264C
:10171000C28CA2B009D76A886AF8BC4966606C239B
:101720007F414C8485202146EFC108881FBEB3202D
:101730000111FC6BF95C1EC18A78C8E530837BC55A
:101740006440B63C36635EABE8F33C36C88318BFF2
:10175000E09B30F040FD0E0377003080FFCECBC819
:101760007E2D7DDAB680ADB35056B388DCFC5CC705
:1017700049B620A9B5C1F6988441769CA3FD71B302
:10178000A1C91F66EB8B0463C42FDE9850040820A8
:1017900078E0A00110F412F3699FC811302278B1EB
:1017A000FBBE32A7CCB37DFFF8BBFB2DB5B9100152
:1017B0006719F3E6D050E01672D398581956FFB166
:1017C0000163F3FFAEFEB028A866C71B3990FFCCBB
:1017D000448DBCE1BE8DDE0CF37376573057538CCD
:1017E00059C0F868C26DB6A341D58A91BD739FA652
:1017F000CDCDD358F8E66A41B19693629FCC6A2466
:1018000046F38677EC2C38FA461BFDCC9FFB32B8AA
:101810000B3E32C9CD30489FC35BB3FB018243FF0F
:1018200098FF608EB5AF02304B5B5A66107ADE01CE
:1018300058F759DAEC80FD2DFC874B75013BACB1B4
:1018400055D840626BEA2019FA21FD32F995D7E0AC
:1018500065F1B94B18FBAA9820F3D2CE27EBECD751
:10186000C9826EECFBC96DB31004C0B369120AD310
:1018700001626D501080ECF528205356A0786BE97A
:10188000C903A8EDD0B3FE0F3A078A01DE42044730
:10189000001627B8D0101F280240A418D30107CE85
:1018A0000A4805A39CB42267F5FE18736EFF5F7F9C
:1018B000B1080F23E64573F212CD1820A76C1C81E6
:1018C000B202582C0969E34B9B08623F16B030D333
:1018D000D4980464621ECBB0C84CEBB10795B340FA
:1018E000A11A95DBEF107DEC1978FE67B6D3802343
:1018F000D6C9359D6E38FD93D6FE676B6906ACE0A0
:101900006D5A80676712E0FA68F8618A1304CF584D
:10191000A6102B7E7F08C3E1B366B008485F6681DE
:10192000F6322DBBF7800ABAED70FFB0F918C1B2DC
:101930008EACBF28E6EF30FFCE3208B97610612FAB
:10194000DE27F760A7DBB1803BD7CE0298624BF66B
:10195000D5ED3538F985C68131D6B017662E80C6EB
:10196000BEC4B462C2BED81720BA14029BF949FCA7
:1019700038BFC26ED0F210A74C4008764BAD28FE9F
:1019800060F5B6E335ED1CF8F98C98C75A67D92491
:10199000D806B313FAA110C9FDA40295CC2AC0F849
:1019A000DA8008F957855EE5798E12C64102DFFBC1
:1019B0007C44F8C8DD931A6E0B01400C88CD337B54
:1019C000DB692008C8CDB3E07E778478CE34F1D3CC
:1019D00079FE668014A1305CF8AC109C0BE7029194
:1019E00016CB79A03BC6A8DB04E4E70263BA400843
:1019F000E0D91C859DDE0658C95E28A20847EAFC8E
:101A000003BDD9801B50A146F6AA720276DF48A01A
:101A10000A7A6701FD9914DD4297CE880187050691
:101A20002F1210024BE908D625FB86C51919FFFABB
:101A3000AAD8D8FDA6D1A58A89FD271FEEFACC81A8
:101A400050B8025DF6F0400804CDE878FBC12A1BCF
:101A5000F8ABB0B1B16803B2015B295CFB0B56284F
:101A60000133EDCA08FF88F96B8B79038F67EA4869
:101A7000FF62A699192DFF18F2C8C7F4C0C7C65E49
:101A8000B3FEC47E14C7D719107CC55669B37E77E0
:101A9000F8C536B458E6C901FFABB301498CF0284C
:101AA000B0FCD754AF08C167369718FC612018DA2C
:101AB0004CAEDC0A40B2B2A07EBF3DF9B7D8F97D8A
:101AC000FB35203B56FC01EB5F010CBD41D8B1FA60
:101AD00085752084067267BBDCB0FD2096731167A4
:101AE000D7D36E426858D5848FEBBFC2F7EE1A6F1A
:101AF0006181015C4849F39AC0DE6812A8D8C0FD34
:101B0000AA4861C6FC1502DBE310E77C50FB6023AA
:101B1000A22E16B7A925F6EE2066B83CD3B8813BB5
:101B200050B864DC0269FD830958F9FEA005302134
:101B3000B6B0089BF09B3412D3408122A2C22FC6BC
:101B4000B7EDFE4648FD9B960826964B6353CC9016
:101B5000604D9431B088B8A0210604FD98086379DF
:101B60009BFA76C3C08411C0B690A84FF9E0013D3E
:101B70000707F04BF6032F52C778A16CE60CFFA1C4
:101B80002F6FD3F82006C002187903080CE18801F2
:101B9000F2C11E72D360EFCE32FE66300851E3CA46
:101BA00094B300B1E36F48E310D31D180403693701
:101BB0001719CB77F352D31C19B3493053E0042CD7
:101BC00005B7B30262084DC8112188F415C3D322AA
:101BD0004C860484982179421514AD624084251600
:101BE00001D0A6F6E3C148BE7AB508F798106A227C
:101BF0004BF9A439B5A0BB01E4B02B9FBCD741B0D1
:101C00000530CFC010FF124220BF09E656B0FCD30A
:101C1000ECDCFF16ED3A52180CD5F88665FE214033
:101C2000E31925DFF85AAF5E98B3E0167F06BFF9D7
:101C3000B63C59B3085CA59DF0F9C0030C98243854
:101C4000F8F382801C08AD5B8BC8FED6D8D0CBB928
:101C5000846FEE9962813367F7DC4472842475E9FE
:101C60000360DDB55034DE409212D3F30397997BC5
:101C7000F17D79C596CDF7580890602CB8B0ED1776
:101C8000EA3C7FEC4218EE100B01E2E2EEF3C402F4
:101C900066D343138CE56C39FFCCED072080BCEF95
:101CA000FFD7EB1EAE982033198F6719E0191C1966
:101CB0009C7863E8018B8CB0B980D3107FBBF5B8FA
:101CC000FF048C66CEB6BFF2C5FB05132766E08322
:101CD00060407AF30486F36861D3FB7F0BFF96DDE7
:101CE0000661B4EBE0448CB3FFDCCC50B3D7801872
:101CF000F1CC0104A711E120C49F480C2160110C14
:101D0000736C48FB2EFDF6980801EEED444C24BEA2
:101D10000B03B93088623E00CF0280B3045950777C
:101D2000A798241C10208190825DB43AF32021FBF7
:101D30003927D29802538C657F8F30221995502E07
:101D400030D00C100886B3258838C778F8E04FF1FA
:101D500098DD9B03650E71CFE7627C7E297BD3E221
:101D60005F5F7BAB013941C652A67094790166D1A1
:101D7000FD84B3FE985CFA960D39A0C02E6CF35D1D
:101D800013DE0B06D09C660B0210E6680534C69085
:101D900046F75FECE9488805C6F8AF045EB446C86C
:101DA000CB60029765B390FCFA621D19A211AF795E
:101DB000E8010B4114F39E05B926C8420E20230A00
:101DC000E45485D6E638D749A19824A7617140022A
:101DD000B2603EE96CE1E047F3D181D8079E2285ED
:101DE000C80318FF569810CCF60C83E9700FE47AFC
:101DF0008890FA235AFA9862CAE37D14C9FE4544D2
:101E000019FC31B640DA2DF3C0C7E6F2A8FB5C8AB4
:101E10006BE7986E5684C9F6B08089C4D7B3163381
:101E2000F7A36061A1B985B348935860858CDD82C2
:101E3000059F2E20503011D71604A898135CBEECD5
:101E4000E7FF42488333EF0D172467A0B290569204
:101E5000ABAF19953014ECEB24A05ED00212BDE5B7
:101E600014D60921B5F4D4FEE7188D1946622D86E3
:101E70004150CB0336400C2D952BF6AF9FF828260A
:101E8000F85BDDEF4908FC5F7B2843EE950310A665
:101E9000BCA0D0344010B3D93C08FE98BF38C498D9
:101EA000BCA5BB0C3C706C091CC9BB70C75ED0C81C
:101EB000FD340435B969DD674CA8ABB342A034E901
:101EC0000C67B301FD9834D780408E98CF2004B4BE
:101ED0000A1D090A7108F498899BF1D4FBB7961280
:101EE000E9C6C018D7629B108F885DE7AE202452E8
:101EF0008409621C309B11BEC0BD98131A427AB18E
:101F000008B24041C9584C6A2C047F300609FA27B0
:101F100010A107E044D890DA0F40EC49F5F35810CF
:101F20000396AE21E5989AC820F69802381A4DE03B
:101F30003C16F4120C270F4EB9D388FC05412FC371
:101F4000C4F7E5200C026FBB0C2116E53010A7E5A5
:101F5000524272FAAF96C27CBAAF39F3E3FEC76B56
:101F6000ED8510617DD9ABB401108860963EB0213B
:101F7000E3984C467FBF4B20404C881130F812420A
:101F8000801018CE67B38228B398F82F4BE1281F32
:101F9000189F5CD545048A06D31028F4600CEC0D1C
:101FA000A001FEAF16498591E0E15C30FA22413094
:101FB0001134C89F07AF034816210D010B25196383
:101FC000727EB7D1EEF10130C4FAB1C825F2E081DA
:101FD000C459C2773762A8FEF24A20EF958C8EEF83
:101FE000982C0806B02BF28B5DCCB54BCB4BE58C17
:101FF000C8D9C80D7D727CF030661CB7714A1929AA
:10200000F7DEFF0410D03021B8A7E3A24C88018D81
:102010003406A2D022F5C58D896FE28820AE0AACC5
:10202000B1A7C8E52109805C93CE0813F6481035A6
:102030008830CB12FBE484F0C7E018F8010B610292
:1020400020D988307394C2D48DF1122C0430EC2244
:10205000E71905B240EE100120CEC8140878F3321B
:102060000026591858B1F461212080B3E5C0F8600A
:10207000460F2153880370AF40249839F007F5814B
:102080007AC50CCFCBC88FE0CDC838DC30DF0C2050
:10209000C1306B788B30FFC3A0F98841307F564444
:1020A0009F42E4D2595FD6AF83D8120297AB9831E2
:1020B000C46B66A6E0DC840160E006A65983608BF1
:1020C00000F8CC51F906320AD9B32C41C057D6ECEE
:1020D0005DB0E97810C667BBB33009269FD31360A3
:1020E0008280A07F1D30DF57600A8C80766615FFE6
:1020F0009F305DF8C839435F414C200434AD800FF8
:10210000CF40E4200A04FCB3D3FB17519C04FC909D
:102110004008425C4801817E8580104FB7F4401230
:1021200009F344012021F32CA5FA2620AF0E3D73BC
:102130000880F20CFA276CDA82014B963008BA4B11
:1021400069B44991AF101B3BC680F415FE145DF1D4
:10215000BD7E66C830E1C1BC687A43100E02E35010
:1021600030FFFE641007F440DFD358E5B3B3F6D672
:10217000C05FCC9802C90C7A90FDE25D3B73EF968C
:10218000CFC83180164566CF3604818045B334D040
:1021900068413A8A4680F7980B22114A3B047C72C8
:1021A0000211211240520BB3C80BE1F980096512EC
:1021B000C6A61D1994C8B9820605986FE10C2CCBF0
:1021C00082115D3BFF7F85302216C1AC42FE7B61F0
:1021D000214084113032C9C8C7F10B04822C4FE66C
:1021E0000209FC33460846F05B7BC3037159C88182
:1021F0000D07F730401EC87A98E0597DE21933FF89
:102200007598C80378CC30413837F9982BF30F9D77
:102210002310A0FDBE96029FAFA8DC0688B6EFD9BA
:10222000AC02FDB35A8FF0201006C29FEAB808F343
:102230008BDEC604030110879C0A7BF984A0B2C818
:10224000BC588FE022D02570B30A224170C050588C
:1022500086FB49100246BDA593F2601440A81902FE
:1022600039C6A602F22C889130D2EF00980DD0DF4B
:102270008C83684CFC8405348010D18E699DA74105
:1022800022859FF77F7F5226C0F3041B4008D3812D
:10229000D70184B5FD904891C8BD824D24847DFB53
:1022A0007998FEA549FF62266B97C8F99889713025
:1022B000F99B94C166D36AF0656FC0B0FE5E986802
:1022C0003E4FFC0EC00108F6880521208D16024104
:1022D00018AB87DDC9A782E77BC4015A1681E21CCF
:1022E0006EACE0F8FA24B833ED8356115B563B1917
:1022F00026D08765E22D808C09CE2FB657B8894C41
:1023000091C4118FF520821078CA9044520ECCBE31
:10231000029EBE6AFD8401072046C8D74400A5C5B9
:1023200022C3733006C2FF02180190600C2C84D8BF
:102330001131877FB3311140018098040D60227EF6
:10234000F93277F3C44265C869F435FAE8FDE598D7
:10235000E4A58BC9031844AC9F3CF3F0401CC8773C
:102360000E5D310C20C4BD98205F3C02191E03682D
:10237000EEAF772F98D7EC4026030176FF33BCB23F
:10238000D3CEE5F2F7E55DC17C120B61BC98C43891
:1023900030EE2603C304025FD3E598D75A6B1520AD
:1023A0000C7EF42CFAA0B3340308B377D7BA0C3000
:1023B0008908C9B321967C9648927FC0CCA10AF9BE
:1023C000E800E1B180B02F65A5C248D36B9E288498
:1023D00014DDD4A8EFE58180C04827EF66084C30B3
:1023E000A680E220632240844AA231FB6D3FFACCF2
:1023F00004806093415013935B04C224A087901A19
:1024000030BA4CE58DCA7E32F965FC31CAFDB14265
:10241000730CD5CC81018A97FF5A917A6B10F2F335
:1024200014532F1935CE40FB7FFAFD98E072EA7005
:10243000B8307BF30807E1FC9851A6F39CB543CE76
:10244000B3E072C17260FD644D3C40E2765C034AC9
:10245000C60A6EA750FAEADEEBBEFBB10D25F039D5
:102460006EC6025F42ABFC3553BC7EDC5C28B3A475
:10247000D0E011ACD3F8CB220246903F4044034851
:10248000822BF3C1A341F89B05B9109C9413010260
:1024900088EDD3FF3209A060028C1A9042C76C22EB
:1024A0006DF97FB230AE0106CA4EC6F350B00F10C0
:1024B000C04204E1956221DC8490F3F9E00109BD9A
:1024C000227EF3492002463D5E980E1CB3F5105E55
:1024D000C56DB210E5D5ABC8D7013C8998E0F8BB13
:1024E000102BC8D06BF1371E84F96B7F9AD8FF7F11
:1024F0001C3087BF83CDB8BC98941904F06AB3B57B
:102500005035B3F95FE0764B0BD36EDA0A616BAFEF
:1025100049FC5E9846E5E7FF8AD9E044448C962161
:10252000FB86B3E4DECDBC05B30271CA810530BFC2
:1025300046C048102108F9600A288451EFD798F95D
:10254000D8F1C9FFB9B38899E4C5C6E7E5AFCF10A4
:102550002F6F1B58F38096F340A6F371C196E005E8
:102560009CD3DB18F98B80B10F9DFFB8F924B1A083
:1025700085E6667BD3D8FB3FFC8020400282E110D9
:102580000908FB248004904FED4310081658127F71
:10259000E5BC81CA799D6E9D24F5E040C4D8C67122
:1025A000976C96462E4AB120C12B73673BD388FCAB
:1025B0000840518DCD51CCF344B1C933240FF3E61B
:1025C00007A8FDCD3CCFE2E34563863F4FF9EB0F13
:1025D000726636B5019BE0B3F878E9CA58F360D764
:1025E000AD80284524F5BBC918FD684261779EFA85
:1025F00071B3057FA7D8B2FD8C447FEC8557B6F840
:10260000088D5EC0FD863F3879826D0079C6175D02
:10261000D2D1F106EE51ACFFAEBAC010CE31CD42F0
:102620002133D3FB63044D2790FCA9C984DFD479FF
:102630007896CFB7084B7930B328EA29FE657D2517
:102640008B7EDB08CD0A535FEEFDCCFB80CABD411B
:102650005690818938F9FD7E992FE6CAE4A0C65CC0
:10266000192816F7238D5600129555EE98FF204035
:1026700092E714AD0AEE9781250F0C20C049DD10BA
:10268000F19B01E98012E9FDEB89820630E048F414
:102690004009F34C708442E6F80A03E60D6FB0F887
:1026A000FEBA0A1A52F68F288EF363F7D082A2EB95
:1026B00059B40CF97B31EAC08EB6076011B5190622
:1026C0009415FE9176608948F689FE0A27E7EEFDAB
:1026D0009CBFD921EBAD0212D8723DD8FA8092B8D6
:1026E000BC04BCEFB8CC5196B40824B5B911D720BE
:1026F00077446B663682C0FF2FE6293FE6D15EDF66
:10270000C4FBE2FE14F51F028EF567E04D1E42BCCD
:102710004035FCDAF7FE1A30F1AAB871B0E3C5FF14
:1027200008B0FFC9CA20629E2AD8F8FD5EB6B11073
:102730008ED845FEE7D89DDAE340DDA3206866B376
:10274000FED69801E6403E99B3101C0578FB08B20E
:10275000ED43DE330C2E61B3406ADE652C78484DC4
:1027600019024660306C62FC10C028FB61AAFF08A9
:10277000C41BA21CFFCFF2F39729654862BF83B444
:102780002033D3166340AD37D0FAFF8C6AAFB7025F
:1027900047AF01B81082C5CD16F2A38D87DBA248E2
:1027A000F812D3BE1431B8FDEC1F98FD2FEDC30213
:1027B0008C20B3F9304414FF4F12B1FF131D0BBB33
:1027C000EB406BFD88A8FC867D19B2408DF2FF9D21
:1027D00030B4FB30EE97372B4018CABFB62E58FEE8
:1027E000187E4A01CF23DE85FF68FD7F5F9FB4E638
:1027F000EEB70431DF5D48AF80EEA861D7C642E096
:1028000002E2510AC6F5ADFD8F7D988FF02176FF6B
:102810007ADE88FFEF677A5940B433C70C1AFF524B
:102820008740BEFDCF37DB581E20E74D182302FA44
:10283000B009B7D7C21C30E87806A5F8EA01941CA5
:1028400004B3EDC502D5039B7990EBF00827FC1B80
:1028500060FD40BD9D18086BD91A20F346BABFAE83
:1028600062E718657BEBA98027FAC258FA3DA9ED0B
:102870008428E526D3E25622CE08A2CFC92ED871ED
:10288000EDAAE902E3D4CDC6533E9C66839901EFDD
:1028900030F687D8182BB6E41CF53C8006CCF10343
:1028A000F6282D0C208870315902854F195121408E
:1028B000092EE005D150950A7CB599FB28F894AA19
:1028C0009625960319DB52FF185402622050C81453
:1028D000CB2170D038B23C04A78446C09011C20C02
:1028E0002939F3864085CF0508A88149003BA530EA
:1028F000FC15E1AACA01B9309EE45E466AE436A638
:1029000040FE6DDF0880D2B19282405B407C5DEF7B
:10291000860481CDE9218875632FBC802F80A02794
:1029200027370187EA29F0CFE8BCFF9AC63243CFA8
:10293000E94FC81A4223FA8488BEF34D6FA124A33D
:10294000623CFEBC0265C25EB6BF5B44C0F58CFE55
:10295000C177D31EE5D0FA40EF99E76E184A4CA034
:10296000B740EEAC69F98C9A27D3B219E950FE5EF4
:10297000DCB7FAE9E5F0B308CC8B5BF6B9025A494B
:1029800001D9FBFD62DC7E9620B53675B1400DF6AF
:1029900066A8F880522A02CB586B02EA1020DCF9B4
:1029A000F14F1F597B61BEDEE12511907A97CC195A
:1029B000E51DEB9B101FFB7F75230897B1041AAC34
:1029C000E3FABF37F258F3808E98B0FEB63E28FF88
:1029D0002B9411EA638BE84010FE1888F8CFD12AB7
:1029E000F16CD5B302CB618DD8BED1D3EDD4B6B6E0
:1029F000F55BE08BFD7FFDE667B860080110ED7DBB
:102A00005B804BFE90828B796068128DEA8D34C0BA
:102A1000B1FF6EBF2336E7102A16B5083F918D949B
:102A20009B5420583BD64B0C47E06F60311ED6EDCF
:102A30000C8D8CBDC0C7AC6E1D06F6202210B850A0
:102A400076CED8FA31A63523EA95203C04B8F27642
:102A50006FE044124A8701B059CD18CD19300AA34E
:102A6000F86001FB2C820930223B937F11E0263C69
:102A700019180813E7F44C80E041C01CA717B38471
:102A80004080832109B3B896663CAFF878400FE0E8
:102A9000D9413CCF66E0813C809E07F91EC0837C13
:102AA000FB0FE8013DD7F3F0372381780EF3D3C84D
:102AB000FBCE0066D466EFD9E230C7B32BED064BF0
:102AC0008E4D4357E0C2120FD3849BF340FE0F1785
:102AD000B3067F752341CF2488F3200448B3FF7EDB
:102AE0009FDFDAA54280F5E8219EB26FE4E0A71AE5
:102AF00084262608FF21E5D7F35DFE635ABB67FAFB
:102B0000CF06CDE8180DFF030242F319C5FD980367
:102B100046DD772DB9647AE2D7D5E030C691AAC9EF
:102B20006076F390FE085B3A0901637E9879FFBFF7
:102B300096984772B41167EE4821F3126266AD1998
:102B400040FD9824AF2CB37297B2809794A6982337
:102B5000294C9D861140C0ABC884490306F0B3FBE5
:102B60003DB8016FE098250FB6887A98418EFBF545
:102B70009803FE985E8BBCF4185CF3C6EC58FB041B
:102B8000C38627CEE5F3D8133766F0E53508E6E5CA
:102B900043E691FD662CD3412B76B33002A4AFB34C
:102BA0008C8201B0D91048FD17B606E2300A88C4FD
:102BB0007830F1F9B4BB02D18D342B40C298500368
:102BC000D3FBF1344278FE19DB1F16E53080BFA23B
:102BD000DF103CA58DD33696C5FC98054889713029
:102BE0002D1620FD9810EE20062225B3D3603BCE93
:102BF000B0FA0416E5302C18CBA151BF8E98F744DB
:102C000010E4B308AE7CC1870AB3FC4CCF8F479861
:102C100080B1450F6B981101BE24041808037CE6AF
:102C20004C8809017B80FF7F61F02120844536229A
:102C30003877197D3E98D8E201879798FA9707F17F
:102C400040F3984F73A58807F00EC047D3FB98E870
:102C5000FFB1087E587D8297007D46666F1E30D397
:102C60009E88F31020F9C5F9302CB180F7B32012FB
:102C700026BCC0D3F7F302D8F866E5D295A5159621
:102C8000DB79B2EEE09A0460E0D45C82C0060D40CD
:102C90001AD96F4301D130B3FE8CD370FFCF51DB13
:102CA0000459652FEB825031196065723040FF3353
:102CB00098C9E0CA08A384F4F2A8B93018BF80CB41
:102CC00098FBDFA0FB3FCDB8F6F1CFF398759840A5
:102CD000FE984369DC1125B3F3FE98F6A020FAF9BB
:102CE000623F05BC98DF56AF497FCC7FE0B0E0C7BC
:102CF000C088AE1530E093BBB3C1C04498315C21AD
:102D000017FB651140FC37D6B83DDE98BB10CC9858
:102D1000E318F3B5F06BCD30E241799835F350020A
:102D2000EA98E46CE638FDED3135FD1615666EB7B0
:102D30001588028ED3F779FFC326B35010D9B38418
:102D400020F3BB357B2CEA4B11D31515ED17117E03
:102D500096861312FA81FE80608BFF72EAB48806B1
:102D60005B23BB0C2D5C23DB41901919FC937FD8AE
:102D700054CF9B9DA5F308A1E3A618A862C366469D
:102D8000035EC5B310CF9DD933C68281BC78EE1CDB
:102D900073BD1E80300CEE42F0F30838FD58AA6671
:102DA000248368337649D8555AE9F33005108CC02E
:102DB00072FB0108E73A6C58A2F95B3A97228CF84B
:102DC0005FCCFE573030B79802180CF4E0091A0AAD
:102DD000572014AB9801C07EEC10A0FD32AFB93083
:102DE0003D673719E0817B98201EC1C4837BE0805A
:102DF00007FAF220124002F56BE47B5E08FE198AA6
:102E0000AEB210F0C56C5FD69801DE98B840666B24
:102E1000F3848230D8FDB7E97F02D3B062FE4BB5B0
:102E200022E230CDC808DE98BB889630F0FD64B54C
:102E300009E5AE42B7F1948010E80266C4B3A80277
:102E4000AF05DDB221C0303A11088064C41481C7D7
:102E50006E1274F8C2CE3C30E05F99E6A099C4BB14
:102E60002088BAF37BA38050FB7E331BF93060626D
:102E700059C847ED713DD99EA664F306C20516FFF9
:102E8000CCAF402F81B2CC3CC5CAE23DFBF613CD9E
:102E9000C804C198A949F488737E4480FC48080599
:102EA0000140412772300ADBFBCC18045F16B8EAF8
:102EB0008D5C048C722302CFF49831D6E0C0E8F127
:102EC000235ABE7230857A7D32676A84910E11DD95
:102ED000B31E6FE6B8FC309BE4F3083F2DC83930D1
:102EE000D08283FE563DA05DC8EB9820F3C848B65B
:102EF000FA3066AB867D20038FF3CDA804DE987888
:102F0000F33D2013866BB398B7E38C72F316D3D7D7
:102F100098210BD3F97DB5E3362EF49868C091243F
:102F2000D834018797E5D7DF30300804634D3BD4B0
:102F30009810ED5F5439FE8804BD62DC7D2FDA31D4
:102F40009E52E823ADFC2CEE9B8838FE6F3327574A
:102F50005F206E6611CE2FB33F85A86E196F686231
:102F60003BD3C898B152E9AAFCCDF5B404B9F771C6
:102F7000AAE68322E037E922E43AF5F386C010E5B9
:102F80009891C83E213004B0F8D5C2586AF8B7B05D
:102F9000FFBC0C024467961978B50406C1BD180140
:102FA00010247782F381AF027703CAA420D61216C9
:102FB000678E98FF3C10DF8F30F3AB3FDB988007C4
:102FC000B830ECB4C835F3E230F15E54B5FB5A8347
:102FD000189BD1FBE5200CD880419FABE506857D91
:102FE000F79196C89C309C04C60810B16646B34061
:102FF00004B201588AB2B313BB648473F3C8207F50
:1030000028304C860E58F9D8C3CDEA1725F5811023
:103010009E653CC1200440711DE0F607F1360210A8
:1030200018709000A209FF45A805804010FD6FF6BA
:103030008F23F6473EFF5A6C2E66F8736572199619
:10304000DE98B501D232CBED11E3308EED2F23A205
:10305000CDE06EDB01C0F29813B368E6E05E9864E1
:1030600071307AA5B0C8E3302564106EEABD04B8AB
:10307000407189FC2C7F2230604B44C0BAB1D5CF5F
:103080001869D87944560AAD7C012C1AA69E9CC6B4
:103090007A9345BD98C0F32258000BF42C7677D56F
:1030A0001602F03045E86D302337F59810B71B5005
:1030B000F330E841AE3CB43035665DABE8E8A5F1ED
:1030C0000D73C841778598F816C00278000B9E23CF
:1030D0001020FD08CDE57D0895C17D5AADB3505651
:1030E000B388DEE5B403F698100603FD9840AE04FD
:1030F0001B23C2FB339B3051B0338D304DB396113F
:103100008059B364D5DDF328FC5504843989E6D8A9
:10311000D0FEDFD90566B33EFFD7BCFF9758976353
:10312000DD5FF63F71F39CD1636ED38010FF030423
:1031300086FF89FEC120660EBAFDC124665AB3829D
:10314000A079A01AEE1893E1CA9FD7358DC6C7FAA9
:10315000B759CF9D6509A1449EBC6E240598177B85
:10316000E643FA6093FBCC980A7E32C7F95ED8B08A
:10317000FB49F97F6660B2B3B080B5C008657EAF29
:1031800090C2DF589802D79BDFE9FC87266EEDFFDF
:1031900090FF9CDD63E6B9137DCC6B941088647D51
:1031A000FC88F6F8409616017F8BDC1F43E32D194F
:1031B00002812005B7A0CBC9F2E3CFECFD90B3DDCF
:1031C0007E57B515405BA45AB0B3F91DD484A20450
:1031D000B2CA08331176360928014F5184FDBAA8C6
:1031E000210F0A48FAB00247F6990838CEFE32108D
:1031F00008DFECF5F399F8ADF3C93FC66CF340B5C1
:1032000044FA634B94101D2574B102BAAB406CB301
:10321000F83D5824042C7517814EB3B740F884CC80
:1032200057B51708E6314F6F0A41FB77DBC888FEB8
:103230000E8C75B18FAE1AFEC12C19C0CA59B3805D
:10324000BB8D61FEDB96FC05564E762D88FF2996D8
:10325000FAB9A36EF166E618A0D1641237F02CED2E
:10326000E4A3A820FC608FA4FEAC60B3F67F1E66CA
:10327000BB18C10966026BDDF588FC8606C525F71B
:1032800029B6EAF8FD6FECAB40A31D14D214E91780
:10329000D24673DEEEA304D3D69E702DBAE320F39C
:1032A000E419DD4901FEB39614DCA89E061342D34F
:1032B000E866981977AD54FCFB9BEB4B200E56B398
:1032C000B8721908C286C44240CC76D38050FD291A
:1032D000B6979BAFD98004C8BF240FFB923C839E56
:1032E000EA4810B8FAC50C7532760B2090FF776F5C
:1032F0001C082298B9ED16109CB3A280E0E92FFCBF
:10330000A581C984FCF246F7DEB5C0A4FBEC30040D
:1033100006F373F9CF880305306201564DBDA00551
:10332000BD0B01283CB980C011DAB9128DE6A5F9B0
:10333000FE82AF416ECD6140F6C0240DFD107FFBD3
:103340003E8001212004C47CA066C218FC0A50DE25
:10335000BFFF64AC80101A12604239F04004B9D04B
:1033600068FBC5A0E1A88DBCDCEF3070CB465ECB1E
:10337000C8DBC94BAE407921AFD2CCDC828C924BFA
:1033800097B8407DB0E4F7F8F4122008047411EB0C
:10339000A9FACCD05BAC7C747383A2B9774072304D
:1033A00030065CFFCC59E00125BFB65E24B6B104FF
:1033B0002E500E31F4D8CFFBCFD8F45CFFD988FE65
:1033C000E6871875A7BB81FB0C667AB704DCB3B43B
:1033D00079C54B1BCB55F47F09D26E85DC0802B34F
:1033E000616EDE96C2B74057BC40C59C76C1025E96
:1033F000A18A08DFECCC311EABB4800210DF25B30C
:10340000EE8BE6C808C255AD22B8D0ECAB98FD19DA
:10341000B3C80161766C1CFE304B7F102214E609A4
:1034200098F8C6FEEDC68BECEC8BD6B0D8FECCEB94
:103430007396D5D08BEF0D1DDB9910E6A2F0FBC47F
:103440003B20C068F5B00CBD00D06FFB7FC07EDBB9
:103450004B3098A6DAC5038CD6CF6DBF68F8D6C6B8
:1034600013CBC0107FB1E1C3193FF610F847EE7FD0
:1034700023EDA145CB5C444E58A188E7A8E54C66F6
:10348000CC59EE700419490260FFB5B86C866080B3
:103490006DB30FB302964508426603DDA9206BFBAE
:1034A0007F401DF3573DEFFA6EF5B993FB5072B3B1
:1034B00002D0B3C777E14067AD19109D1988048326
:1034C000DFD8BF08D7981AF99888EE8A08C6FD9801
:1034D00094B7F85CD903B345DDEB9818347BDFD69D
:1034E0008C06325659B06DDEFE1CC403E21E25B4B4
:1034F000431EB9BF9A6EB104BF5A98A9FDCC65DBD3
:10350000CAB32026662C9A02EFB805C6C2BE6DACBF
:1035100032F952F714B7FDBF79C098B08BBBB14CEC
:10352000023BF67FEACB6612FAB1FDC02FF0D80657
:103530000843CB320F3FFB7F10F870660DCD66CC91
:10354000E22DF698A3FDCB22E66276B32818048616
:103550001916FB9848FC6DFB284457AC8006D00236
:103560000AE4B30DB0F3B7DB98C0FE3FFB5C06C0C6
:10357000655901BFECC90223D5EA20B31914C46D03
:10358000F8CC070D7D9862639E98B30FFD9820B527
:10359000FA5FE088E9F1A0842719F942087FECCCB2
:1035A00048AEB3FED4B30D4466EF49F9046DFB3267
:1035B00003546680DAA7142CBF906FDB570C083BCE
:1035C000FB7F18F97F5F9883E598F9D610F369C6F9
:1035D00030177B9890FCB3088066DAC0F98B8EF7C1
:1035E000640C026736DAE0FE6F1ECAB3BC08D36C07
:1035F000C501F3AB1BDE4990F9D9F744B508F29841
:10360000E53002FE98D9A045D94D5FCCB2343E7F5B
:10361000CF5919881DFEB3837E9DBEC2CF5EB31104
:103620007362D9A8DB40F8F9981FB8F0CC57DACC10
:103630007DEC897A5D30CB33F3330B28B6FE6D5DBC
:1036400040207C98B5AF48730D2C808489CFEAFE6A
:1036500031B386FFEAFB033BF63216CD668049891B
:10366000766410C58B592D2EBE7F6DBD817D980768
:10367000B511F598E0C60CBAD56ADAB20A7FD60160
:1036800067E6C8D0C8E53082AA66068DF3BE7FDC47
:10369000D1C8F3AC19FE7FF9FDDD371169E698FC5E
:1036A000CA331911B2096BFB58023CAC59E0ED1951
:1036B00080F8B185FD172CC39F06988CACDD511D99
:1036C000042295C630634F70FC6DD65BF9C86FE578
:1036D00012C630DCE9B650EB3E33B6FB2066760C02
:1036E000E8FAFBD9647898269F32B1602DD8EA0CAD
:1036F000CFFBCCA0FF045266EBB16F5F9804E1985A
:103700002024B76CB38804FEA117E4D1B3203E3265
:10371000DB9030986D0B7F32266BEE98048005C4E9
:10372000BAFECA335C001A5B507B981EC877ECE087
:10373000609F0198E05AFC67A8193CBFDDED1C664C
:10374000F3CAFF086A190203CDF19866B181EED879
:103750006410BEAF62903791F398CC19F26631B322
:10376000861988FBCBF298FBAF7F5F9840C623F9A0
:103770008F67FDCCDAD16636B254F9EBF5033BBB6B
:10378000D188013F8C7CDD33227BFFB86C662D2312
:103790004DF7F930028060C47B643C642C9304EFE5
:1037A000769531FA08CB36104278F59824FE98C108
:1037B000812236F302A6E323FBCC403F7B495AF833
:1037C0006EEDB1010B794F26B4C1596620A6D42302
:1037D000DBF4B031E5F2B6FEF598C4FE985DFEB5B7
:1037E00007CEC8036883C733D6BD204BAA3C086602
:1037F000672EFA0465F61741C9E130374656E6F6FA
:10380000E6FF31BD9643FBBF2ECA905BB311F9981A
:1038100012B79805D4B3D80EC6F930406C19DF1A28
:1038200042ABAF01FD98126BE6982472633E98DBC1
:1038300058FAA36601B7CDD5088C79989C9E65F59A
:10384000A290B367F9988F71309FED9860FDB737FC
:103850007D08A07ECC51EF5F9814EC982102B1074F
:10386000D5FF049BF6CCDC3036E790BF32B616F3BA
:10387000986E3230BAF7B23BCAFD7F029866B2FA50
:10388000FAB1B2D5BC985FB0EB98E812FCCC3C061C
:1038900031ED9858F9AAF010398946666658C8D7AC
:1038A00099A5E4F3BCB6FEEB0DFE591545EB5C1093
:1038B0004E58614991B38CFB9848FC6DEB9840F5EC
:1038C000A0493DB020D044FFF5D821A289B39B96F2
:1038D000C86EDB49F517B126BAD1048CF32CF698E3
:1038E00098FAC416B3F1BF4FD98241EBBE113336FB
:1038F000C83C63B358FD6EB3BF50B56401C627A57D
:1039000042E6E56699C6B931810234662CB3FA8F76
:10391000DC7FA3FAAF814B85C1A6FF73884B5902A8
:103920006E36126C723004AFD97F109F32B6FCF540
:1039300098C8B7859881B01E7FA998E0A6076BFB51
:10394000A503536637CC985786CA7380DBF6CCC183
:10395000CB53017616D802D472C6FD9811647D321D
:10396000EA2540F04E6FE2412FFB88BFD46ED5B3FD
:103970000466FA9809CB6CB3D8F924E935B3610B26
:10398000FFF8FB5AC82B75AEB4DDF4019CF3677EDB
:103990003228C6D8D380FE0C121DFF98FF248D1943
:1039A00093C6D13839C4FAF9609066B5D8FBCCFE1D
:1039B0004DD7AD44F4B3C48066363C73F3CC6D662A
:1039C00090FDB830FFA34FB130A4033CB1CAEB5017
:1039D000377D28D1FF20823FD7CCDB7FFD0385E6F2
:1039E000FF7ACB98C133CCE52A58D201E2E188C2F4
:1039F00015B3047167FDADB1C0D6D7E8FCDDF54164
:103A000063599DB040894788B1FAE3690ABFCCFB8E
:103A10006141D489AC5720954CF891FBCC8160DA98
:103A20009B20084D31AFA5B1209DCA69205BC7F826
:103A30009E93E30A61BDC28068D9B12884B5800F26
:103A40004801400964AE6618FD1530BA6611DC976E
:103A50006FB20847B801B1606EE9B10201C40978DC
:103A6000F3464F7617FA0231E6263266627F18D89F
:103A700070F88F9B6E647BB1AB659808E66169E076
:103A80009FBB96801F316CBEB1B1EF30B04DF59841
:103A9000108C7DB68F72CA80C3866690FFC636B31F
:103AA000033FF64E203B9BC8FF183222FA23C2DEAA
:103AB000D817049F2CE30129580310DED996E61E7F
:103AC0003A19B0FB4BDB4903C8B3C3CED8A4D82501
:103AD0002C66DC0B1FB132FF585302C3B3024063A4
:103AE000BDFC0620C2F36625AD102CA09580018494
:103AF0005DB1B7F959F508DBF1D802425BFDCCD0D6
:103B0000FC8163FB32022FF6D384DF226FF6F223AF
:103B1000C6013FEB4B0219EE968008CB76E4F0FF2E
:103B20000808AA1C80FB48661908048C30CF51AEE7
:103B300082EA886E6588DD5C806AE0B4401D11C051
:103B400044F8B33253506ED0C08030A560F828B727
:103B5000820064FBCE14A86FABE2A055E640E9AC4E
:103B600080B3DBA0FFAD5A503FB1062D8E4654D135
:103B700060CFF1559EDD5402E730B6E1B52A8BECFB
:103B800042568E38F9C2FFD8E304C7ACE5FB8FDAA2
:103B9000BE401B6F755A2C5E104757310803E57302
:103BA000660241B5105A2B01366690FDABCF401A24
:103BB000ED1902A7ECE258754C14B0FC8541506B2E
:103BC000F6BB3FDB64FE0263B6640A1319D5CB145F
:103BD000203D0718B1FD2FD88C026866B1F8951901
:103BE0008097E6ED112DB2FFD64B016AC820D8E8C8
:103BF000C556B3020F9A15B504585C024415D8E8AF
:103C0000F8FA902058BB4BED4BB0FE896DA386AB04
:103C100019DC7E51CA0386FD116379DBDA10049E3C
:103C200051FCB904501A22D2346CF358FA2EDB63DB
:103C30003B366B40476D2B909019061FB0A2260CA7
:103C4000FD30C613B440E0106EAC8460FDD974083A
:103C50001E4BB2FD7FD82063FE609620B94F374FD0
:103C60000410A6D305A9827DE809324030B36698D6
:103C70000478669D6997C0188C361A21B08DF70BB1
:103C80000130F305190DD348A830EDAA21C8BDE5D0
:103C90001E6BFA053CD301187766E0013CB741C0C2
:103CA00003A8F324D34DC6C87832F3813C6FD819EA
:103CB000D9723046D633FE80013020D3EF0450F362
:103CC00021D3C8C6102CA7F3413036AFFBE2B3EDC9
:103CD000C223B36F36B7F9A2D30D29C6020C30ED5B
:103CE0000A98F974D9C9F598D0DF5666F9A19FC62C
:103CF00032FE98029A9F5484802208828540FE6793
:103D0000719189AD660CBCBFC4BC98DD49F0B5F8B3
:103D10002FED239806D4C9F0E862BBA0A344FC11A0
:103D2000F59810272880F8F9FB7855DB4F028B9225
:103D30001918D207332EFD9840051FB0DC978AFF73
:103D400046BF7F5E857F5106FC2C8F935BC0983207
:103D50007D9881BF18D39801C6048D4C301F02B2E4
:103D6000B4FBF5EF80BF82987FEC2F035BC598FC16
:103D70009FE3986378E4200EE0C60E50F808D04028
:103D8000DFCD987E05C7FCE5DFCF98F6AB0C8097BA
:103D9000C6C3F94B7DC2C6ED79B39F9B128211F663
:103DA000989002F6B30131DB5B1510246F2E98DC7E
:103DB0000E1056B1013FED3204085BE81002BE72EE
:103DC00057CAA49D42E36372024D8FE8FE9FC4016F
:103DD000DA679B21665605CF23D4FB768EE0FAD7AF
:103DE000CDC8BD9808637DAEB1401F5A9818A5098B
:103DF00030A9AEF74928021A3BACFC805FD6982167
:103E000023E098EB098F306D66B0F83F1520DA1883
:103E100004F9981265A723C53D538865FB98091AD4
:103E20007F9098D1590CC9B690CDC87095CD3030DF
:103E3000407AB801C22F5F982CE398FB78CF400EF0
:103E4000FB2C20E8B6FC3766F298E3C708FCE5BD1A
:103E500098117FDDA2F7926E9520D79B7DC0021C42
:103E6000F598108A723020E6B358088FC6D6788845
:103E7000FAD794301AB37F37978624F40E56279DCD
:103E8000691080B25C01DBFDB7408210DE988722AA
:103E9000B40064B37AED18CF332CCD19CC5E504A00
:103EA0005AAFFD7FAFDF7AEB9804BC98C556CF615F
:103EB000679E9816DE1808094D2279FCB8E2DEB834
:103EC000147CB182158102BB23301164F998E19909
:103ED00097277D84BF1182071AFC6C38B610F698BC
:103EE00012C1BFCAA3629E98D1901145BFCB32F3D5
:103EF000C93CF942B98CDBFAB5FCE53002AEBD1223
:103F00003C8007F0DEB8666E1582D5F1E1DA413CFF
:103F10007E02830BB2D59BFBF020BC98070EE40118
:103F2000813D48B4FE321A751506B8C086CCFD86B0
:103F300008AB188401D930103E981DEB6604BD987B
:103F4000809D81C67BFCA9DA91ED4B46C28D6EE364
:103F5000308CA9A2E0DBE3B6497EB3092011D8F882
:103F6000D75AFD0240EB9F5FDDE708C63058661662
:103F7000ADF10230ED580140B69741A6089AFB68B2
:103F800069F022D550625C30B2800D76562142AB8A
:103F9000B3063BE521DE93ED97A8FEAA2318D4EBE8
:103FA000E36218F398FDEDF06633190804381070D9
:103FB000F03E60F904D1538001BECBB1783F8D3023
:103FC000B752246C96DB22012E661457D401277059
:103FD0003212FD047AE0427B66126001FC9852F3D3
:103FE000ED0BD819CC6E2A812151D380A299DD9690
:103FF000220C35EE4110D7B1A74602907A1069CD58
:10400000307020DC3066F90593C730F978B3E7F0FB
:104010004059C85E98AFE8769890FB08C646FC7D8C
:10402000B1C0EC84C8E3A273ED5CFBC8413008E08A
:104030005ECE1748ED1061D8B3BEE6CDEDFE80969A
:10404000B3B2083629BEECB5FC402B19C87E66DB3E
:10405000CD98BF36922EAAFB4A1423B3F73F99306E
:104060000205A2E22480224186D884F99E982F522C
:10407000FF6C845EE0D9F8FD1E9815FE9865F96A1C
:1040800019297E88B1602E3930E90324EDBC6DFC1E
:1040900008AF96985A1B7E16262D48BF8BE5EA532B
:1040A00054276C82EE66309002F124BFB720DA12FA
:1040B000B3E5C8EBA004995C10407246E533F732D3
:1040C000E5C8E7F3E875179C2F12DA71FDF9D236CF
:1040D0002978109C30D730201B5019129F88C0E0DF
:1040E00041621C309008C6FE0EE4403C103AEBFEE4
:1040F00037D798062CDC83C2BB372E3366F93008DD
:104100007166CBD6737F379841B316AF1433B87D41
:10411000E5026226B34FEBDF409D303141F8B650E7
:10412000C8D2478DD1E2D02DBD608C19EFB4CBF64B
:10413000F34013D9EFD02B4CE6455C201604420B1C
:104140004FB7CCE313530C1F59FF809A94BD40FD29
:1041500078B3F9737B0C5B3D64ACD408C51160B2D5
:10416000C181DFDBDB20048619CE41BD57F868D161
:10417000B2043338165D6467F13094F8B51032AF8D
:10418000B4944EADE50AB2D019D3D701127C7FD2D8
:104190007CC1CD0BC5562249BC30B78873ED2218BF
:1041A00021B502E68090307148CFCFC88807F0AFC4
:1041B0008033B88CB9EE363015EEF39FC858100333
:1041C00060CC011CE2FCBC2159C9F3981EE530C04B
:1041D0009FEBE520BD98110B71FC6A0677ADD214F8
:1041E00033C8E8B04281B30AB6023FEED05E106B2E
:1041F000843BAEE8FC6E3630FFB5214092BB08EC44
:10420000415BD5ED04F77F86E06DC430C6C2828085
:10421000CB10065F5EB4FEE36F6FB0128F96380C62
:104220007BEE90FA647130E98D08361A40CEF3487F
:104230007CCBFA65E07F5A280F1EC6C91703404D94
:10424000FBE8FAAF97C5114E3E2FFC8031F55CCAF2
:104250007B08E04BB644DD20E6F279CA7856A9E83F
:104260009FFCC76A03ED7E7AC8868022EB1733B6BF
:104270006418BFBDF38C053011FA287AE0065DB7EB
:10428000CCCA0840649BD20C90F4A8BE7FFE3B6A67
:10429000C198B4E430701647AD98077EF2D7FD227E
:1042A000E8413C1AD336E0096085C6E898381F0E0D
:1042B000E0813C20B770E330CF4DF5988091EDB8A8
:1042C0008005A3F8D8026A665A2F7F6EFE03FDA20E
:1042D00081A792981C40FD6D15A0FDFC85BE11D7ED
:1042E000D44B88D3666EEB08D5B384DD013497D503
:1042F00082E04696FB0F4FB3B008A8F9639F00B762
:1043000004FBC4085DFFBCFF20139D1F02402581F4
:10431000659CF3677D327D858CB0D3C0FE1858FF55
:10432000635E2FEC98FD286866CE31D1C639A3FCB8
:10433000C2B3687DB34DB36C48A608B179FDE3A064
:104340006C965BEFFF916E66679BB51BE09BA8F6D2
:10435000F1A8D3C898518DEB8C375FEC42F391CD27
:10436000C6D5E34BF632085FCC01CDD398FE928AD6
:10437000018763FFA9885C3065800861BF8ED5F630
:10438000D8FDC225D002A1858F0BD76634EFCFFBB5
:1043900083B80AD7BBA908402FCCE8FFD8ADB847EF
:1043A000EB9840195C1D02ACBB01C3F3ECD8FB31A8
:1043B000F0512C4D920102D0DFED32F202C2455590
:1043C00010A9D46D1BBAC880DDB30434ED104605C6
:1043D000FECC4499F9630B0F8096DF84A315C622A7
:1043E0007FC364DB28FFF8D9BBB335FD05B53FA615
:1043F000AC2FCBDF015DCDB312E228E2C96661C606
:104400001A91F4B0A020ADFD9BB40260C7D56551F0
:1044100014633DB1DA09246A3C0282256F2150D22F
:1044200069D1DDF21DC6F81471309FF5A39624679B
:10443000F61648FFC7E1F420349D635DA5AD8034D6
:10444000B922F86ECB5375D804CDAB55FDA11BFC3A
:10445000F96ECD61815AA66C35FC47CC7434DFD03F
:10446000022478B1FFEE30F4A7D67D80177D7FFE61
:104470001462BECDDA98FA99DCC6CF24F0B120DE02
:10448000EC9930FD6BAC2C6396AE04496DBFF6FE23
:1044900090F8425AC0D898CC374133ECB92BC0675A
:1044A000F62CFEC2EDB3634D58D4E982AC5F3260A6
:1044B0008FF230B3C2D566048CEF419CFA629F66DE
:1044C000618103300DA0FD587EFF6FDDB290FE9D2F
:1044D000E5EFB6BB3061B340CC41ACEC56E0FF1128
:1044E000C767AB18FB018243FF89FE633E16617705
:1044F000764998F91269228FE63120E3D40D7F3294
:1045000001661EB695ED085CF8D6A78039C6CE3197
:10451000D617ED3DD8FC856B6F2014FD3580A28940
:10452000F0BE32C3EEB762DECD50FFC38EB3B1D65C
:10453000951837C67D156A4E4076DDD8FF7756E967
:104540006CA50149560168D967EE6F10FE3DB8C3EE
:1045500050D8FB1287199ACB7820752F80A65980E6
:104560008B485075E1FBCD9C02811ADB7E6D10F308
:10457000B165B2209A794AEE046FF008022D3589B0
:1045800001426A8627C1C6DCF87FA89E14DED3D418
:10459000BC05A534FE80FB9B18F66045B3C0B8246B
:1045A00063BE209D01F00210C9F328B4B9A0C6C8AB
:1045B0003CF40B28204D0518A7741732200A3CC57F
:1045C00008840152F8396244AFA6A301792BD95768
:1045D0000120891443E01034C384EC3DD82030011D
:1045E00038241402C15DA62A80377988FA9AD97CCA
:1045F00087B1C9CCA3E1B327F6D304CAD6803FC0A4
:10460000FBF518FF62D83CFCB2BFF02047A18BCE6F
:104610007B2C66E2163666FB1D624734C976DC5891
:10462000F9103BD6CC7E5EC6A2159CCC735454F8D0
:10463000617ED9AADE00DB222099E9DC7D462417C1
:104640001BA1FBC1D0FB67AEB301332C3A84D084ED
:10465000C7F7DFA0B3FE7ED9BC50EF8E64C7797D6B
:10466000016FD6924A9DF0C479308863DC3A66AD1A
:104670004512D666FF79E418C3A1F48F6BD22018D7
:1046800063DAFC6FDB1B801E37A931660E30C6ABC8
:10469000CBD3CF355A8990AC66016371B8205BFCEF
:1046A000345625AB09407682F0FADDED086101153C
:1046B0008EE656E0C2BEB1FE77B30108808C045C82
:1046C000B3669E068C82125033FB9D85C08024BB4E
:1046D00044AC10540667CC20E042509903E041F30B
:1046E000D1A488AEE72BB64248F9729710C7BF83B2
:1046F00006729A0376FD0C0276F479E0FFEA7BBC41
:1047000008027BE33010DC0434F89618A42AB3477F
:10471000E0A38C089471D071A6AB3BA8FD69FF772C
:104720001418010905FC2C0122BB80317FF71F8082
:1047300008422F3B83E4EF902B064F4201247A7707
:10474000FC94FC0ADD3752213FAB05310212C02830
:1047500048B760B68C28B2FF2206C8021009136061
:10476000D7200CF2230A40D39B666080FB2EA04A20
:10477000B33C75B0801EC8F2F9BD78F38807F11319
:1047800006D878D8200F9BB40C80FF07F02006C015
:10479000037A00A50FC68017D3EBCA18F5D081A7FE
:1047A0008711664311F0B33D24301006C17DEE2C15
:1047B000A90C4DB3303426C2E1A503E0040BF3A9E4
:1047C0006D26E266A8F88EE0DF255804A377E5EEB3
:1047D00040F336E018012EB3339127E00826D3E0EA
:1047E0004E9AC60126388679F0B38EDEE3860673CC
:1047F000E11250FC415F73D72482047CB810CA1BBD
:1048000027ADABFB7934D28014F341276808295FC8
:1048100088B48AF198F37AE21C59669ED2D8312086
:104820008F5B14A85A0639B2D993AB62E0022DF31C
:104830004DC65ACC78FB1AD6DC22F398C4ACE87487
:10484000E567ADB208D4ED304D8380C0AD02BF74D2
:10485000B4D832EAB583CE06C8FCE6CD1610BFD96F
:104860000319797A7DF979C5FE4FB1804FB87F750C
:1048700072B58060AD8BDDEE08FDFB60A3883BFA6E
:104880004F931216C402F580200840BD001130007D
:104890009FD81001BF162CFF0C0428982062609549
:1048A00002CFFE3210C122EF3498F66D21FBFF7E5D
:1048B000D2F0401EC0031A7D8CE0013DA079B8EB18
:1048C000900314F69890014890D37A781051E01C28
:1048D000C6DFE42FF368E4D8FDA0FF79F2040340BB
:1048E00010885E9847F398E4B7686304D36BE4607C
:1048F000EED05CC6C2ED6BFDCCF3FBE8EDC8509882
:1049000033832053A01710025E4BD84804AFD0CC9D
:10491000E881DC283FB3A1608240015D649646A631
:10492000E319BCFE7FB49810081C5E98E92004844B
:10493000BC447F6E1B0D33E0F79CA4F88010040884
:104940004289D32104E8909024A0DF9630789B49D7
:10495000D9C02099ACB2083CA4CB2F0EBC10C7DD47
:1049600049021D93CD30C8F8FE9885841871C0DFC8
:10497000CC46099F38820ECFF2985E4E38B4DEC026
:1049800003759B385AF1BC98D7DA4478FC1ED8B32B
:10499000401058B81DB87507922006A30277281951
:1049A000CB125A1CDC926F03F782A61BC6D0CD95A2
:1049B00015197ABF96B00816C417581033A414B34B
:1049C000095EC5F7C80418202C94024B33DD18BECD
:1049D000C8F222100923B54FD73C2026C115AF6875
:1049E00017092DD7C298AF3B98976A413BF3201E19
:1049F0000037D69812A9F8098FE08001F02E6E30AA
:104A00001940D3F95F179883F23048EEA5FEE340D2
:104A1000703044A0BF81C598F38BA5FF28667978D4
:104A2000796B1E5AC67F9D98E55ECBB4FEDFEDE83C
:104A30000498028B2F9DFE7F16C10D1A9E2164FAE9
:104A4000DB42BC7804232D218473CA4026ADC42DDB
:104A500012BDD6B370AEFF736A8106903750E10A7B
:104A600008116E2005CEC88842E6C92902CFF2E5BA
:104A700048B5848D66F1412548DD1759875F7F5C15
:104A8000305E35A5806AF907DE5B965F09BC61A0E0
:104A9000FCD9C808BD18B50A50F805E5AEB5AE8416
:104AA00034C734DF3C19E38E66D52106F9C87AAEE7
:104AB00031B693FFB1CC5DAD494A4620D3E130B168
:104AC0006FD8E6832EFA92F589FC30EE02863E829C
:104AD000180111212AFC1F101912E5440F66019FCD
:104AE000F4CCBFCA1488D0F9F82B44D2F0DA4604CB
:104AF000A9E1804B9A7FFD7F160482807DB97330D7
:104B00004930FA0A42C024180DE64C62BE98C42609
:104B1000C80F0912E841224C93FD9293C6A689C69C
:104B200066FD5C6AD7A0073B5DD0017AB830FCBF58
:104B3000F5CB982DE8F329946FFAC414F3A5B93096
:104B40003847E0679B11806B97C86A62FF986620C0
:104B5000062EE4306204067E6DC818FA17D9620189
:104B60006FF7CCF3030802EE60100C322C72C86EA3
:104B7000DDA9CEC802067CC31901237005D4640CDC
:104B80006BED4B4C04DF41672E171057C09C37303C
:104B9000010D2D791633C8047FF4CC88FC06A78656
:104BA000DD1A400ABB48D6EC84BE989608734FAD18
:104BB000E204466691845690719B4003330121F1D3
:104BC00034EB882014DA9801092F646D8CA8F9C59C
:104BD0008CE2DF1E5F245EB879BA93BB92427212F8
:104BE0002D9A5DB504C07DD93BCC7E5F4BC430F6B9
:104BF00077D2F9E040EE0233FC85BB0270E636A6C0
:104C000023AB6608BFCC3069BB090CB46205C21780
:104C100090901660E2D350FE3933C0C14498A2117F
:104C2000CF70B80522122D484B7ACD174C198F69D9
:104C3000980822EC11CA83200FE043680CE39546E4
:104C4000D91AFDB8CA2C103D22586A4541BF6CB034
:104C5000FB0806C0281895774CCB502255BB48BAA4
:104C6000AB180746C102D6401060888C95B3C623A6
:104C7000DF153DC61028FC78D2BFBDD0C51AD70EAF
:104C80006AF303F44EF3B87840EF16B8FD77AEE55B
:104C900014E210FE2F7A10E6E09001851FC6DC308A
:104CA000CD803C5BFFA66FC820E3304CD7C8C4D78B
:104CB000BF5D44EBB880516EE564FA98C28E232143
:104CC000E02C667A966099EF81300380F8FCFEC88C
:104CD00008980223040AE1B3395EB84BD3088DB3B8
:104CE000966E80678098F720A0604136E0041681B8
:104CF000199EC6DDD0FD9DC82411703064998520B1
:104D0000248C82074412016826D9B010E7B364A846
:104D1000ED4841897C78B8238DF0B3C8FD64EDFE81
:104D200017EF812B00BCE242E36612EA14E07C68D4
:104D3000B6C9FD1861A98D69AF7AE302EE0A30E4C5
:104D4000F0207B0472BDFB6555CBC093F2CC9DB4C3
:104D5000F9EFA187C6E046E6FACCD190FDA37ED953
:104D600080B830EF1043B6179FB8D96D40B7B33451
:104D7000CB68D1984056EB99216F84DB49FD16082A
:104D8000BD14E4FAB4FB2733EA0960425FD7FD3271
:104D90004006C02480CA882C16EA596E93FB7B44D7
:104DA000C40298061260058CDE5EB9C64C0B771300
:104DB0003080A0F87F216AF27B1EC88378BE0FFF87
:104DC0005F980699C8023967FD32F9C89D40D382C1
:104DD000787998D98E77AF9883E030E69CFCFE26F0
:104DE0006A19048351B666F9C8119FBB5004272B7A
:104DF000C8CB78CFA5FB5F5189147EB41519FDEDA2
:104E00005DDEDA08186A02113F0246C801FE54B896
:104E100040FBCF1B199826BF8F82AF603CEA79D741
:104E20008F30CEC8F910FF5798021D30FB0B10BD14
:104E30009888DF124197C87D9F9DDEFEA480047F85
:104E4000B54244034808093AC6B088FB727F3F98D0
:104E50004F62DA883B1E773A41FB9818106E6B67F9
:104E6000EE96088F263F39B6DE02577646B8F99E91
:104E7000989740C088E864EEE530D0AEACFC08FD01
:104E80005AFC2C7010C4B3404775F87E57F9E0CD3A
:104E9000D2FC0CDE98359E18C93044661D7A9812F3
:104EA0008E8623663939680149B81626A7486601F7
:104EB0002C085E7889A02442B8F3F71998FE045BA9
:104EC000D035BC88C330742CE08405B134FB25F3A5
:104ED000C830B50616BBA04F2130C807099A10C0CC
:104EE0000C744A0A16C4EA97139DFB98E0FF7FAD45
:104EF000D23039300F59C87F2530C0A6F9E8621F7B
:104F0000CCBB1C95301EC530C21082D7D49878B760
:104F10005F4CDF68F9CB3080FEAC79508801316698
:104F2000AEC22130B300464C78B396D846FC100888
:104F3000A2F36123C666B99BFB2BF83AD5C148E2C0
:104F4000302EF1813F260D70EBBFB38803D5CFCC57
:104F5000C842D7939CF78D21847E1107FF1798A62E
:104F6000A6B3E81904BD98910F1A40FE1208024139
:104F700020012419E1EF448040FB933CFFFECD2447
:104F800006B052742498DCC7347710FB98480C2480
:104F9000A37FCB84F9AC6EAE837B7C844030204E03
:104FA000B1BA86FF0204EE3D10D930667BC788FE99
:104FB000430391825AFCA202ED41DBA0771D50E62B
:104FC000984ABF0AD5F8054598F4AC93BB4020A891
:104FD00035F59850A77733A0FFF030D249185944DF
:104FE00045918230E3838219324F613DD34E802850
:104FF000D3C0BDA804797164DBAFD73F24275866BE
:105000008031C13009FF42245810214044888F0864
:1050100031E14286C075582003E6984F5F1F97B76D
:105020008952B866BB2837C8142F4622513C23FC4E
:10503000D93CDD78F8EBA507B3C8837F6D8E3C3D86
:10504000B80337E50F2DB707776F036C66D10C886F
:10505000D37AE2796BE004DB980312BD98382E2DE9
:10506000E06D55FBA45CE39A40B6833551E2303FD6
:10507000A9CBE5CD281BBBD8026266FACCD2CF5AA9
:1050800089207A9804D7C598C62FE5FE5DB3C19FE5
:10509000C860824C108C2803CDB38E1932D47A0F9D
:1050A000EF568516FEDF202362010CE52422FE98D0
:1050B000AC20D7C851D623587BB9FF9BB6E33EFF3F
:1050C000EBACFF20C9784802781B1680F35EF346EC
:1050D000E677EC322890D30CB2C62DF33315B89C8A
:1050E000F3C41E317C4F762780FE2C51A09C936721
:1050F0002CD1206DD3E388F8F3AC336C177BF6B971
:105100001069D3AF763541FADD676AEFB204807972
:1051100033CC6645F3026FFEE168FD08595E9FCC13
:105120006E4462C7B181846FF47DF36AE6ECBBFA2A
:1051300030123FCC88BCFF9351EC6E6A012096E19F
:105140000C39EBAA802D260C6537E590F8B4F950A0
:1051500001DE6A3A7E5833DFD87EB3E7C8FD67992F
:1051600088E2C79ECB3754FBCD3F7B75D8F83BD642
:105170005B2059B016E6DB5E2C7248AF3527009FE6
:10518000C8F6E1B0FAF3E17FEF47030832DF89A206
:10519000D8106A9879E38C7B6D20FF6776DF80C733
:1051A000FD434062DFC5D910FFA7EFED218E766188
:1051B00082D443FEA3F52D6224FBCC723B69EF0839
:1051C00081FB846A9962BA135AF95EAC88011BCFDD
:1051D000082559EF01CD5870F8FA8D7FA0E1E26003
:1051E00081296161906925408B100DE68C25DCFDDD
:1051F0003280F4D40A1860DB1A3040F622FCDD0A53
:10520000F894681848F91A38202CAAB8F5ACB56299
:10521000806C7E3D5920100C9EB44F22809098AF38
:10522000F903400A0882F51F06805E5D2361C01203
:105230005F15C1B8FF6AC42F46FB812BE8D434C583
:105240003B1508B810D3E0CE8DFE6AFFD67F0299D9
:1052500048FCF57E76C90280261624664E42CA5C5A
:1052600046D20195FD52D0F8C671126DA519CB66D4
:10527000F57EEC5C18BF31E55D59C220BD9066FA41
:105280000480DDE4FC67FDEB8A2C7308216C47A0E9
:10529000FCF3C80AD60E8253EC30FF6A56B40433CE
:1052A000800C7963B6750424E4D858FBA3D00410AD
:1052B000B320FEB6C4395A5067691592B5AD10B027
:1052C0009885FF01652C9E80975E20FE0A28BCAC65
:1052D000F346311C016112AB08CA6DDA68F9C13EB0
:1052E000D82055F68224D3DBA8FEB6F5C0023CBC1C
:1052F000637EDA4DA2F8FDEB20206FB512310ED39C
:1053000022CCE04184A0B5FBED9022E78EF1BF8E68
:10531000EA1508EEB517D5B0A098E5D9FF026B44A1
:1053200040193131F6E638F9030E56FF0467B685A9
:1053300050FB77D85772A4B5CC58B330AAB280C509
:105340003ADFFD33FFD6D2183C19B320CC9B63FB68
:105350005D88FE1EE3A2736B083D2C58B1FDAF0AB9
:1053600019C7BBF69065B2F190FE4FCAEE21012439
:10537000DD2D1463BF3DB10806A4F908DC31C68FEA
:105380005C59FC084BB2408CF1C6C4C0FAD59B10E6
:105390006FA66B7758C2C96319E24DB1C8FE8BACDA
:1053A0007002B5D1809658B1044FDC7FFCE16EC924
:1053B0007ABE0AC7BE28F399CC2ECF6BDCC8F83A68
:1053C000CB08023394C238312FAEBB37F55FB80437
:1053D0009429FE0310207BBEA8FC5BD48320416A85
:1053E000BCA140DAF16DFBBC0112FD4E801FAF94F1
:1053F00048D222F706F1F3702749E670FD9E60AFB0
:10540000300114D066020BE6A09210449E340A3399
:10541000E6A0BC287BCAFE89AC9093C350D612305C
:10542000884CA605B9062C043F0A126003FF02400F
:105430000D00F8FE80375A189191C12881985E5D61
:105440008F937098CA09CB01212C117C19836010AD
:105450002C2BCEF8A48F283069E00AA482BB05D09B
:10546000D781FBC0FD80C86D50F5B34004C1639D7A
:10547000C7259346E615A4FBB26FD9FE40E46FD76B
:10548000FC91E2D67CFE81FE2880203B11146686CA
:105490008A70D834E065FB93A8FAB1104F585C08C5
:1054A000BF2CBD02C358255E1CB6FCF5C5E0DF80ED
:1054B0006618D5A76D9710408F33FBEA70B6F937A1
:1054C000B359B880A6897FEDCC10C844D513629239
:1054D0006F7790FA31CCEDB1DEBCB7836D71D8FA3D
:1054E000127360F31B82D7BC3A5890C1658BF0F8F9
:1054F000ECC718FF4B8D8F7EB0C7CFB623786B56A5
:1055000041F8FFC4FB37206111BC9FBB3218334BFD
:1055100015CC37ECB3F0F87CF0F06FF5468098339B
:10552000DB70FD10A6BFBDB6D80C62DFD463591E78
:10553000A6C0F9E0FBC73DF704B512580609C69BA3
:105540001AAD15F074625949FFF8B1015CDB7608B9
:10555000E5802C8190901339D8F8CB6BD771B6C900
:105560004010ABD04012F39B736533B61704A1C350
:10557000ECFBC252309A87C49D8CB390F9FF015D59
:10558000FE62FE0A637982B10326EA88FDC932DE33
:105590000C2377333306FD606712DF2C28D466DFD7
:1055A000EDA6CCF369B382D90850DF2B7FD9983DA3
:1055B000FECD6002A111BAF324C65EB35804206088
:1055C000CFF394F87DDDFF783B68E04173F31A6C0C
:1055D000661EC0FCE9A3604066F86492F00701DC37
:1055E000F3C696B31828E9D878FE64B3F6800208AB
:1055F0006272EC91BE8EB4FCCEF6980240EFD8FDFC
:1056000022DF879867F99836C6E4FB11FA990CDB1C
:10561000CCEC6FDBC770FE3BCF98D2A937F6F38D89
:105620003F2F2B59AC61E9B001BFD9FB0C47CEAF7E
:105630001710586601DF9998C7B5B0989BFFD91F1E
:105640007F9501B6CE9646C224E3F31AECB198D802
:1056500087618FB69851FC4FCE2691E08177B007D5
:10566000F0FD028DFA98C4CFEEDE6080B7DFFBB3A9
:1056700008BDE506B4C0F37B0B7C989DC6B3FC1057
:105680008A2CB37073D6980A7FA99850BFF865F931
:10569000F1FF2E1228EFD8FD825DC43019B1FA0D4A
:1056A000583D42FF0B318C13D503F09FE29816331F
:1056B0008CAE6BEBCDE5F62D88ABB0B0EC7FEE6E2B
:1056C000304004586612EF2C300143BBCDA0FB27BD
:1056D000F72214FF7F26C0BF188C236BDB98048849
:1056E0003F93F705CFD0B2FF7C9802E230F59831B6
:1056F000FF02B120CE3330FC98E2BFEBFE3FC1E5A4
:10570000308396300325FC7F20F9067BB3E00272DC
:10571000F381C6FD9840625B49D9F0FA7D547FF66B
:105720000C12203D99C81AD85FAC67F8980BF91095
:10573000CD7B408FE6C818EDB3BE4953C6E0B2FA40
:10574000CFDDE230F320CC5D691803625A8FAFD011
:1057500033E59B6440021EC9C8DDEC130A1443D232
:1057600098A966CBE530217330C00479F38D3BB343
:105770000113603F67E37D41FE66723001EF0A98D6
:10578000E3F31AEFB002C480B1181F609858F830E4
:10579000D3CC98F2E06C83E2F944B3C21CEC7B13E7
:1057A000044798B7E8F96C9209F3D2F2C8C7BC98DD
:1057B00076DE100823EB4B1833D69880BFD663FCF7
:1057C0002FB1811FB26BFBB11871EEB66CC81070AF
:1057D0001958DA8FFB7FB8F90C2FD77350E5C88EB4
:1057E000F998710E9CB47B3772FB64F2CA046EB6F2
:1057F00031E53048841F7FEC220411DECEEC01A09D
:1058000098F8CBF198BD5E9882F1C7FD98C067EA21
:1058100012E09B54D0F93336C88111F9E519D7DA73
:10582000FC2B66B6B1F85E76C8C00512F9986D29F2
:105830008830B310FD197E98BB50CC3521F19830DB
:10584000119FF37F19F8667998E6D5E6E236B062E3
:105850000BEC903FC6985030C22F0A98C45DE938CF
:10586000FF089606BB10CCBF7FDE9880042009C4D9
:105870005BE9F9FF33B71705723008E5F3428DACE9
:105880006608EE531080A289FE66FA9801BD982042
:105890007E58BBE7AC9879DFACF89B8EAFFC372322
:1058A000C8B093C598E088E7C8D2FE662C190925D0
:1058B000F6980262C4797D106678E5AFF02298E828
:1058C00031E43FDA7E209019D8479B711F08BDF65E
:1058D000E0FE9E535EBD79C9855E98BD40FD70B304
:1058E000FDB3C8807F0B30F614E38451D68C15B617
:1058F000DEEEF068E5AF6032984D0AF6E86CF6141B
:1059000064190742030A683765EAFCD8CDFD7F11A8
:105910007230C1FF31982218F57801A376A360692F
:10592000EBFA1644C622ADFC83D0FC6666C841B9CA
:1059300030F046B8C6397F1A4AFB9803787840DEC3
:10594000D302C669FE0248F904C575154062666651
:10595000BE086F9BC8062BD68BF02D98C8700C65BF
:10596000B3182CF7F5B391662EFFCCFBA1FCE5FF35
:10597000589812D7AC9840CF1598CFE398EFD0B194
:10598000FF13CD087D9880625EC4B3583C98F3162F
:10599000C5B8848CF66E186D75194C09A64E90FD2D
:1059A000CD37D1F598019CED7930A9689DCB1002D7
:1059B00041B01965E6C801EF4098246FA0CF9B6500
:1059C00004AABA51D53C20B4646DEF460194E104B9
:1059D0009FB1FD1F3C98D0F146DD6A666AABB6E820
:1059E000F0982DBC981355D360055262DEE5B46083
:1059F00035765AB350ADB38896038225ED98D0FD25
:105A00008B2CB381A1667466F8981658B30924E606
:105A10009D08DD48FA8BE9799EB363EEFFE8FB2031
:105A20006ECF80E314B7EC016719F3C6D138D3C049
:105A300098FF6090FF36B32C090C66F2F946090B0B
:105A400066D823EDCC7C84DB6C1F4C6603C8D3F98D
:105A5000D8E0CB6CC688F98EB6E858EB80C69FFCC0
:105A6000D6F6C7BE99A44EC631FD30C123FBCC8803
:105A7000FF343AD0CDC2B3FF7666E8F8C405E994A6
:105A800086DEE5B0F94BF3980335B380626BEA101C
:105A900025B302613F2CDF0851E930AFFDB12B3354
:105AA000DC1CE36639650277B6AAC8F940B30B403F
:105AB00046F98002C7DBB4100A34DC67BC28B3188F
:105AC000F862197C2CFB63ADB0CC77F2E16CC210AC
:105AD000F9A3F1CCDD38E7B9B8F9026259C863E23D
