:100000000C94CF470C94EE470C94EE470C94EE47BB
:100010000C94EE470C94F54B0C94594C0C94BD4C3D
:100020000C94D04C0C94EE470C94274B0C94EE4758
:100030000C94EE470C94EE470C94EE470C94EE476C
:100040000C94EE470C94EE470C94EE470C94EE475C
:100050000C94EE470C94EE470C94EE470C94EE474C
:100060000C94EE470C94EE470C94EE470C94EE473C
:100070000C94EE470C94EE470C94EE470C94EE472C
:100080000C94EE470C94EE470C94EE477F7F7F7FF5
:100090007F7F7F7F7F7F7F7F7F7F7F7F7F7F7F7F70
:1000A0007F7F7F7F7F7F070007047F7F7F7F7F7F4A
:1000B000077F7F7F7F7F057F047F7F7F7F7F7F7FBD
:1000C0000F7F0E7F067F0D7F0C7F7F7F7F7F1F7FDF
:1000D000177F167F157F1C7F147F7F7F7F7F007FB8
:1000E000277F1E7F257F1D7F247F7F7F7F7F187F57
:1000F000207F217F267F227F237F7F7F7F7F7F7FDF
:10010000107F197F1A7F1B7F137F7F7F7F7F0818E7
:10011000117F127F0A7F037F0B7F7F7F7F7F081015
:10012000081F097F080F027F08197F7F7F7F7F7F6D
:1001300008027F7F081308117F7F7F7F070C087FED
:10014000017F080B7F7F08077F7F7F7F7F7F080706
:100150007F7F7F7F7F7F7F7F07037F7F7F7F047F1E
:100160007F7F1C7F1B7F7F7F7F7F7F7F037F0810C8
:100170000C7F247F237F137F7A7F7F7F7F7F08110F
:10018000147F081908200B7F7F7F7F7F7F7F7F7F11
:100190007F7F7F7F7F7F7F7F7F7F7F7F7F7F7F7F6F
:1001A0007F7F7F7F7F7F7F7F7F7F7F7F7F7F7F7F5F
:1001B0007F7F7F7F7F7F7F7F7F7F7F7F7F7F7F7F4F
:1001C0007F7F7F7F7F7F7F7F7F7F7F7F7F7F7F7F3F
:1001D0007F7F7F7F7F7F7F7F7F7F7F7F7F7F7F7F2F
:1001E0007F7F7F7F7F7F7F7F7F7F7F7F7F7F7F7F1F
:1001F0007F7F7F7F7F7F7F7F7F7F7F7F7F7F7F7F0F
:100200007F7F7F7F7F7F7F7F7F7F7F7F7F7F7F7FFE
:100210007F7F7F7F7F7F7F7F7F7F7F7F7F7F7F7FEE
:1002200008277F7F7F7F7F7F7F7F7F7F7F7F7F7FAD
:100230007F7F7F7F7F7F7F7F7F7F7F7F7F7F7F7FCE
:10024000017F7F7F7F7F7F7F7F7F7F7F7F7F7F7F3C
:100250007F7F7F7F7F7F7F7F7F7F7F7F7F7F08158F
:100260007F7F072408057F7F7F7F7F7F080D070B37
:1002700007237F7F0713071B7A7F7F7F7F7F7F7F27
:10028000071C7F7F7F7F07147F7F7F7FFF1F627F39
:10029000C23C006088FFFFA0089001324006C8C63B
:1002A0000019FF03050A4414812241CF068AF32076
:1002B0000366FBA00C94290034FF7FED81325006C9
:1002C000CC54F71928036527E033C688009E98D3DD
:1002D00064800C7FB9D8F80014C00287580BF8600E
:1002E000012C800460430ACD0270F34032F305A074
:1002F000E6180CE4B312CCE050DBC008286D17E020
:100300005026D334D3B00416E1B998FC30486CFFC2
:1003100098FF5DE510030240199EEA814008030141
:10032000201B048068E0B20899E4D8F9FC8020E042
:10033000E5AD99C78084FC44D836EC85A005F2B3BE
:100340001823D6D4D30A2328910416AF140DA02065
:10035000810A8110CCBCFABC882918F81DB9D109D2
:10036000EBAF8ED02130F516416EB3950290316619
:10037000400CE709C0D82404BCB3C7FFF7A49040E1
:10038000FB12DFFC5298400481C9F3442EA7085B9E
:1003900096DF042401A606200908F6383021F1EE84
:1003A000C67B210270B5F95EDD18EF7AD302D475F1
:1003B000C545FFE0BAE530CCFD9BD0B0B3B6917730
:1003C000B304B040AFF00333EEDCFF8007C08A8691
:1003D000D1F43C6C7672FB1C6E80FE40F8A65E8702
:1003E00041261CADEF2614083C4686C451B306BB1B
:1003F0008810113C667B7C1605884566013A76209C
:10040000402126F8EA8822BFD360D0410C1156253E
:10041000EFCDC0081801B4135EE612FA34D310C948
:100420009B3019F8C746FC1ED0023A100F40F370FB
:100430009806F978740F39B10817B301F220ED1E50
:1004400084033AA3D5ED7840B0263DFBFAFFD3AC48
:10045000010903202324B9F340D02018E3B1D64387
:1004600019FC4859D3A3527C01EF300838FDCC4623
:10047000DF32F7A3204124B8A6C10418CD56B3211A
:1004800024B3F6C010180261B3FFE18131E87F9D0B
:1004900098E538DB40014F464B902D847ED11B738D
:1004A000866F2EAF93D3DE670866FEB20DBD98113E
:1004B000DB3CFEFAA5018FBC51FF84CBC6334FADA8
:1004C000E50CBC9CE3FC3856DDDF60BFF8EF294744
:1004D000FD40684DA280F33674F3E029F70472CA38
:1004E00022061CC0CF3BB2BB8418FB99D826042F30
:1004F0005D5209FEB84B0A02CCC14FA6B133266C3F
:10050000981A48636FC72B4C1944C258DAC161F777
:10051000B1C218AF58B97F59B0B1201E8FB2C0FB1D
:10052000449820130135B682FB053209F1FE23D62B
:100530009818BDD195F0F3E7C5F5D188FFE38001A8
:1005400090F1E0EC03D7E903E0019D2C71FA04C7B8
:1005500092F6A161D485FFD8C460AF72B130204655
:10056000EF336B9FE882013010C9B9FBF6165E4B82
:100570009180C05A88B30BCD16B33425D2FF196CC5
:10058000D311E4B3209D4F86F8FEE7F5F3304C44D9
:1005900069FFF71420024022D33BCDDBBDA00A6ADD
:1005A000F8BF099D03208208AFAF988015CD20B910
:1005B00098411DDA78F97D5C77FE012066F5CB8FD6
:1005C00099FF5E8BD28401ACFCD7A5F27C79E4AFB5
:1005D00097982F50033C6CEFCAF2DC22703037E062
:1005E0003DB3661024B874F76168F8049746333059
:1005F0000861C3107BF31418EC404308E3BB74F8A4
:1006000020B6C0E230FB925F732C4080045BB047A1
:10061000B3F6171072F060848AE6934240B73C60EC
:1006200072F530037D379B2F5E60782298DA0BAF2E
:10063000EF467E916002448011B16F4FFFF5A50235
:100640007998DC3D78F3CD391A1979DFCCB32C8059
:1006500019B919F001703026BE6B69CF301003E86C
:1006600001873CD85EE569E3986562020CD380306F
:1006700033FD9810652DABC2F830F3C6DED304828B
:1006800001318D6653ED583560A38276C6B3898BF0
:10069000D0B3DBF62D145F003064733016046AB3F8
:1006A000CEC0058698FAD798CC1242D1095AE4C830
:1006B0000A02C8478C4BA81746B303422FFCF39895
:1006C000F823F7B32409201B0411D994F8A6D17E8E
:1006D00059C8FC3065F06406CC198801EE31E8FD9C
:1006E000FB54FC98DB28A491BCB8BEDAC573C801E2
:1006F000A3C02B3B53FD08E9201378FC47E13F538F
:10070000880408612240BB019E2308108048C6323D
:10071000C897D0889F44FDAC1004AEF3328449BA28
:100720004BBBFEB48E46F0E5011062A312BD8928D2
:10073000B9EA62BF22AD748C29BF529824E002D17D
:10074000E8464781E4947F113108B14B190CFD98BC
:10075000C4ED01781033C8B43B0EC0035E413005D0
:100760006565931FB3C610D9C8BF3CCB1ADBA82060
:1007700007B930F8A3F9534E7B308360100CFF9B10
:10078000C0B320FD9840B204F8FD8D66161910BF65
:100790000FF3200C880166F1B8FD908BB3D1C560D2
:1007A0006E0C799716C20818CF2CB3ADB8492BD967
:1007B0000920DBC1109BB3F7DE4480FA0530024804
:1007C000F8E6C290148BD12D584081D708253048C7
:1007D000A82DB68256ED48F9D9BB349B3002106E75
:1007E0005E301418DD684091C8F698FBBEA57F19ED
:1007F0007C1D292F59166BC9AB260151987366666B
:10080000C802D5CF0C79F9B65BC8E5D46473DE0CA9
:1008100004A75EC266F564EAAC22F378338FFE7DEE
:10082000862810D0F9087E54268DC38B99A5D1FC5B
:100830002BE042D66106DF32B584025EF3A627962E
:1008400030129D6409C0DC379AFD16954BC85C6771
:100850001B26C2029D186C402467B1302066926648
:10086000860AB9CA58DB0423723001F0B34B3EC884
:100870002102E0FCFF3B98CBEF8D7A73C8209902F0
:10088000F379F6E8E0013C75DC20DF26C8E01E1BAA
:100890006E0030D39530209EC81C08D0B6965F6B92
:1008A000BB3603F2D0F3A9FC988C1953B6B1C04FF4
:1008B0002D30040E19C9C875DD19FEDA1816FF03AC
:1008C00008030201B1B3DE985FC6C58134B308875F
:1008D00066B720C164F23002D7EE7FCEC81088EF31
:1008E0001498F579AD40239FCDF850FF2F982C6CCC
:1008F000B3C886FFA0065BCB71301ED3923AFB0DC6
:10090000A0CEC894FDD052CAE17CFF7F99984B6E6F
:10091000807F594B30DC306FF3B5FB50BCFACDF320
:10092000B16CDD7A81D484A736FD2079CA7724079B
:10093000C26571301CC877980EC20D17906AFCA072
:10094000F2033F65F4DD26F6D704039298A484CF22
:10095000CF213011205C3066909E199B66A95B9C6C
:1009600066091602877308BC405D5DB5FA7F60F7C3
:1009700098801130B30AFCE59C9DC028580D1304E3
:1009800094E75C90E08005B26D99FB7D981E5EA5B2
:10099000DF1003EB98B1BD98785E98AD81315215A8
:1009A00019F1FC3065F898CF19E0E60810FD6D9359
:1009B000C81B6059C86571307E1288CDEB17D2FF15
:1009C00042D3CFCAC8FC7F31AF1E68989040EDED8E
:1009D000EF562120EAB1F2B85CE012B319B7C13288
:1009E00064FE8EC0DF8930A70879B37FCC04300362
:1009F00020FB6BA9021290BC08E77DEA1110504061
:100A0000DF3977195DE7B3F23042D79B3030817F11
:100A1000FE7F2004051168FAC4BACF5AA9FD3FB081
:100A20007EB15B22D9DB492F3BA7D0F92782E8347E
:100A30004138A0B5162FBBB17F1F326239303C6BF5
:100A4000D3B0090E485008DAFE04E57DA675646C43
:100A500053769FF9DD1148D0379DCB300A6355712D
:100A6000F83264F23030DF93640DE7820360F95BA3
:100A7000765E055AFF8D0B217BE82281F0040C0283
:100A800063292416A06ABB667376C2048C18F346E9
:100A9000B6A9F2DED175A9BF31BEB10C880701BC81
:100AA000988D53393070F42016C003F35C5D622BCF
:100AB000199027963008BFB4F078100E603D2C08CE
:100AC000B8FBB7AE98043DE0F342BF208B508C7D5D
:100AD000FE3CCBE0FE3330809C664130A5FEEE2D1F
:100AE00082C5E3188313206AD3F90450108B200CBD
:100AF00059F5620DB2300497CB30404FE7FF110C2F
:100B00009F3001D7B0F89FB2DE0450A068036D4754
:100B1000AF40C10809A001C7ECF2B3F46BD006FCEA
:100B200030B48674EB602481B9DF028CD6B1A6EDB7
:100B300041F5B79898AED149E09BD7B1EEEE98DF7A
:100B40008C3093368FF3CD1C289994E1EC77AD98D7
:100B5000C0F930086FA80308EBF740987230A2E3A1
:100B6000D97FE5002014F6731D21014B460910D2F0
:100B700015F9CCE06E9CB5104FE940F61505E3B8C9
:100B8000F867FE763010622099F59CC0500490FB07
:100B9000CF2C8485A052C9FB617EAFCACE8C08E001
:100BA0000B01F63C1210D54E04AE01F51789FE601C
:100BB000E798F33001786BDB79F2FD8B10BB0F36D1
:100BC000F5078DD39003B1667B9830405E986BC279
:100BD00023BCF694400366B93DA7F98DA038305B7D
:100BE000F0FD9FE512F8E210B6058DEDD802B36670
:100BF0003020DB0602F23030DF7A810482CD9BF1B7
:100C0000FE987BB32362B44152E7C8498A11C77684
:100C10006DF5044F6E36B3D38975B3341A0C17E8EB
:100C20007D83310A70FF8AFD009FF63910BAFFF804
:100C3000FB20F378F2CB4B818A34F359FFBF32B3F8
:100C4000284DE0C5F330DB7D63676618B152E0ECF8
:100C500098FD286466CFEBB21769394124D3907FA1
:100C600000CA6C3779F3BE5889A6D954FFBC6F9E71
:100C70005AB8F920D4B5DC73C7CF285FDD0AFBCCA6
:100C8000A0CF66D8AD09F2FC6207C297449EF1C4BA
:100C9000628617E6F3EA680462F328FB30B7E0CC1B
:100CA0003C95CEFD3221CDE678FD979B9E12C598EE
:100CB000E8AE9FBCE24CF6C57ECDCF4B46D0B31F0D
:100CC00035FF042ACA59AA40E4DDFDDA50FFA8F531
:100CD0006091CA33C517F401185FFFB68C48FBCB8F
:100CE0004908303CC7FC4FD899C96F5468FCFB18C1
:100CF0001358D880A75E6F1DB10502D258B3FED736
:100D00006CD9016FCC4EF64198FCCA6D8D08043E3B
:100D1000050231FB9FDA70401162D3A8FBBFABFB29
:100D2000DBECFBC37EA059F508A252E98BF6D6CCCA
:100D3000012C1EA301C67564011CF7B3F422100830
:100D400080E97A668089EFD80AEB202B0C7FB4C04B
:100D500030800450766CC30148009FC03040501072
:100D6000807EB42F0988B2AF06FF8C6A03202D0461
:100D70000540BCF896B4A345ADDBA0041837BFFF0F
:100D80002E100184902189F76229402075FDE21C14
:100D9000D4E5500830F058FD9B0BCA602FACC16FF2
:100DA0008CCE53F4AC6066621DCC469AA6F8281629
:100DB0004735F559190C20D27055FC187EFF792B58
:100DC000EB52FF0B0CC96F76CD984FAF4B8430FAC6
:100DD000E75DEC90F91089AC8C04CFB33C3E7F8F7B
:100DE000D8F3773B7B13ECFAFA1CC105FF40038074
:100DF00078B7FD167CF31018CEE7B6C281FA4F57CC
:100E000029D91C4613151EA4F8DB48F98B68120B70
:100E10007E8ECF6CD998FF7146016CD41240C2050A
:100E2000ACB9B9668B2CD31023FB833FC8987EDF07
:100E3000F67709CBF1011AFD630499DD7CD0FB85BF
:100E40001E5663FCF9B1F8F1B364612812E0DE8844
:100E5000FF30482FFFB732580C207CB3B2B0332E8E
:100E600042635F9DB0028D66F9627BB4B140AF40D2
:100E7000D110B11212EC6CD3F8FC21DB5D093B9C64
:100E800020635F7FB304FD480863DF30B5FAF16E7D
:100E90007D08B3F3857BED84C7FFEB1EE0FA6CBFE2
:100EA000B71659E70540715BE98F039062C7408D23
:100EB0007FB1F99FF7EEE56BB9B4E6F0281E67B68F
:100EC00005C0FB18F9B0691A9DF7D2FB5CC8FD6537
:100ED0001F9AF044EF1036CF3C3C40F3F31A3DB17B
:100EE000E04CA3FDA975DD042C4B9022DA5ED96A93
:100EF0009FBC21F7859580AA19FE92F12073F0BB63
:100F00004F4F4E02F00804018021C4FB222078C01C
:100F1000D68C80D11DC7A1EFB7F2A80DFFF21DA09E
:100F2000CFCA50804061A62A73B00170E782523365
:100F30000A406628199FDBAE2DB51914FE02805AAF
:100F40001A2001CCE5E51209B8A8C0CE2228A8B81D
:100F5000FBBDA1085DC10F1362F72018240323C352
:100F60009012A8FF52853852CE73662D04D0C38CE0
:100F7000026D2246D8024AB74557EB82BC03811066
:100F800001055AF95EB388302604F002C27D116B68
:100F90005E9FE7EAFEC70AF111AEB6FAFE230481AE
:100FA00002360EEE1A802040A00D887DCDFF8F66A0
:100FB000F54311F0597FCCD8F9B61037EB5BDA2046
:100FC000F92BC6B225ABF74014F63BA4F98CDCFF35
:100FD0005BF712FE3608D828C7F4449BDE68FB7E18
:100FE000D1BC01E78D08CD4F2C77DB8350FC2B4221
:100FF000C7B3C57BBD8539C1EBE8FD08EC845C4512
:10100000C5B452CFDBC3DBF7C0FF372C6828CB4019
:101010003F86C019FFC31DD8F601ABAF48FE6498E8
:101020002EDE99B941045AAC2108C604F0FCCFF970
:10103000A3DE61B3FF08FF7993E1AF58F7DBE797D1
:10104000E819CD06304A72FFD8DF1B1DD32F1FFCD5
:10105000A602D8BDF8DE65D0187BAE9E857F63BF43
:10106000F9D219FAD6126DD918DADA12C653B511B7
:101070005A2108B1901EEC1706219FECA60401AD81
:10108000EC3712789D5EAF60FA2CD129F58A209753
:10109000EC14E8FA0D800C94C5E70C8007FB1408EB
:1010A0002C1F55B120630EA710C8FE037D96644522
:1010B000CB665AD6F72124CE8CB0D539447273084A
:1010C000C8FC67890E01B8FA74BD3011E96CAEC76F
:1010D00030100568D1E5D32440E088F3E73001649F
:1010E000F53E1BC6BFB3419008B0F860063C8FEADE
:1010F000FB459A8B3C804CD216FD782D03E29FE293
:10110000D69D5AE08B73E08CD3A4E60CDEBAF8B619
:101110002DA73E8CD8A988E3ECC4BD89316EC3717C
:10112000D3BFDEBED3C2C8F8D12930B9C21E0BD995
:10113000B39AA604D34881CF1EB3CD103008D4B3E0
:10114000EDC072B064BB19200AC84E5BCAD0FD6EF8
:10115000EBBF42C3A5D930FC498121B22FB03DF38A
:10116000AC3479E4E3F35C840BD8FE6996275980AC
:101170009FB5D1F6F0DE7CB730EB3E33E8ECCB6CBC
:10118000ACF9CEDA3981F5BAB860066EACA838FD94
:10119000CD7006EB78A34A28F865F795A00578F995
:1011A000B1367F576036D8A096FE878005100AD1E9
:1011B000D7367B425A9040E09E65E088F8980B1243
:1011C000559C22C7BE03D8781128517D1241FFB922
:1011D00003FF5C6819B91EFB03D8E4418797986345
:1011E0009101B7FDF60CE3197F4872E61C0E90FCE6
:1011F000CB594B805C0BD884019EED000416A940AE
:101200004FEEAF407BC6301088FF2821BCD2D3E818
:101210007FB96C91804BCF98FBAF7DDA0A0A29F633
:1012200020E645813848DBF9101FB4E8D2440DBDF3
:10123000C544EC2104304B8D307E8BDF8930D308E0
:1012400073C6302436FCFA672C42012DD3BD8D398C
:101250005ECA300860FDCC5B39817ECD50767BE480
:10126000013D9A303818B354881658804A6DFA3DBB
:1012700023146AE169E9F29ADBFB68014020483CEB
:10128000B5DFDB551361BFEFA47AF441FFFCCC045A
:10129000122122FE36FD838660FF35DCF4C024D99E
:1012A0005A05E3654C826A3D2D81B8306EB913E76B
:1012B000B5453040B438E964F7770E5DFBE001DBFB
:1012C000C798460360649ABCA0F8626F0C20ED34A6
:1012D00003BF093019F34A3DE05FF3B0E698F9C562
:1012E00046FD57073067F66440D79B3D036227D61B
:1012F00014039E9803F1FC6BD6C05FA74B5A9E68FF
:10130000118E842B11CD7D30A7B49A2360E32F7505
:1013100007C90377FECC50101230FC53B74AD08275
:1013200070EBCDBDA0DD12E25DF30701201067F385
:10133000CAA410AE055D5288F69BFB89D782209720
:1013400098FD6501224CFCBE5B0BE546C7E684F7C1
:10135000677DCCE6BD571E30BA6FEDD0C8FAFFE30B
:10136000B5C0D0FC2D7A44FFECCC6401F666844114
:1013700096F530FACDDE3810EB5F527F76EC28F927
:101380009B9647D29D9FE6C2BFBA8F2045621FCC75
:1013900098096306CD534C204F0278D5BCF6F30E66
:1013A0006BFCB84A7676C420ABB340F5DC984FA40A
:1013B00021408049620C660180D329C1B50B024BE4
:1013C000A6115E6E302331CF7B300149C4F8C03B9B
:1013D000DF07F04CAFC85C983CA9BF1E2BC8ACB16E
:1013E000EFFACCE2411C882FD32698F3E081D3D5C5
:1013F00098D0E79887C6AFFD2FF22388BD5E366A86
:10140000E606100C58798B66100828D3F75BB38B6F
:10141000D3E36F5A98799EB3EAA311237D4D8F01D0
:101420001921887ECC8576E046D141B3A71F30E0F4
:1014300098A134ECB0FA8ECD4068A9A030A686D031
:101440007C420820090D812291ABAE1257F8A940C9
:1014500004B582523B04D384E5EC1AA71330EFC8DD
:10146000FC647030800CDC59CFDBEB7F90C488DAF1
:101470008B80D32F8730FF70F964E9D2E1B367071F
:10148000B314D070CCB3CBF22EB9102047F39254E2
:10149000D30CF09F0FE030533019FDB608E230FB5B
:1014A000D9656602350C2240BB128043E27CEDD444
:1014B0008A017FED03B908B304B80A97BC98ECCB56
:1014C000C830F65DDC4918B3BC44D62F04489817E1
:1014D0001301F6242C8209781992CDE2FEE51B60F7
:1014E00077FB902069FD7F1334EEB30858F9DF2EA7
:1014F000C8C91BDD7FEE1C16E7500FE0412DF34DF0
:10150000BBB68C6FED3CE6A7C083E0D31738FB98E1
:10151000C8037E66C83DBFFAC8E3307D9FF3580814
:10152000036010BB0C4D08561902AA19843296B9F3
:10153000300864F898ECF851F88E6D307012B9BF2D
:101540001AFC010368048C84B3EBBFCC80F729300C
:1015500022127E7F0BF286EB847F52984940F9C9B4
:10156000F398BEB6DF39C82141F367A0FFA04585D7
:10157000DC441172920CBCE0F7591A4012B40AE52F
:1015800030E8652E9E196FE4AB596CE1679BFFACA8
:1015900019188EBB8BCD4B83CEB64CCB04565084E2
:1015A000F5C9EB6B641941ADE6234C9BD6E4098B7E
:1015B000E5825E0C30B27BDFC998398969A4FCD61C
:1015C000280D46CFF9CCC1F49210C044C5EB601190
:1015D0000CCF98F9ECD66BCD306AF8A95ECBB3414D
:1015E0006C949BBCD32CE2F223E43D30C6C9027755
:1015F000303012802D4032C821F87FB698026887BB
:1016000066EA3F78EE315D4CEDC84001FD9888AE4A
:10161000033430F57801AF0030BF489023106CFBE5
:10162000BFAF7F3FA5D79804765782B7C90266B58A
:10163000668130D491D34E960C8481D7D69801BC64
:1016400030DA91FF1EB419A382536FDACC686AF1C5
:1016500001D4BBC871190412C850B3CBD34CC05FBE
:101660006F981324E130BA721912BFD5027AD424CC
:101670008FF3E75D20690159C811E6E94BABA0047F
:10168000E23582205C88373046287A0408C0FB7F28
:101690005F7B980504E8FA3038CAE24833FF8FB31D
:1016A000EB0C1514FF19B32D03FE30BB9B0D7AF420
:1016B000C088CCAECFD1FCA45AFCA334F74434216B
:1016C000BC9BEAFF7B982808A8FA5DDAC8402D3950
:1016D00005D7661479989C82FB051002012499F7BE
:1016E0001309B85D24BF84D7B888FB982401E51896
:1016F000FC0460D9FCB958DD2CD708109DDBE95CEF
:1017000023B62CF38F5B9806E47B6F4012C4823EB5
:10171000F78860040C370830099926C4985B435455
:10172000A6021E88BDE53C2BF2EE0F5A360FE7F5F8
:101730001EC0DD0379F6027AFFE0053D659BFE9849
:10174000D7100F8B8BF3B76601699EC80870FAFD3E
:10175000DAE6C0177B2D3D30B830C4FE97BCB25FCF
:101760001790C8971110F3C04DDA7898E86D38F8E3
:10177000B3FFDCDB02B36B99A850D35E0CD8812891
:1017800083B39120EE0116D8E130D0AF0C5E3E015C
:1017900000DC2322B3F71420B0FDB77E10187409C3
:1017A000E5AE2084EA2EE01AFA40F598049FA30DD6
:1017B0002B847F0D8BD4207D08F9C7F78260124AF5
:1017C000F898D9EDFEF9E2A306D2537875E60A9FA0
:1017D000E699DEAE46BAA9EB309EB6F8EB64F44C5F
:1017E00047236AB3B1103D95F0EAFA12212599BD5D
:1017F0000C02347F9BB87B9838FC6FE46A272D9DE0
:10180000DA666801F900D86E826CD9E3200110BF56
:1018100065F5B3DC3D5EE55E6269E09832D3F8E9D8
:10182000D52E402F65E2CAFAD6E130E45F6001B7F9
:1018300076B11801A225B73620C2994B1362FBE19D
:101840008491B09435C569E198FA0231FFCBD54F48
:101850001BE2CE407CAE2B3B23DD980D1007A3BBD3
:10186000900378F9D650805AC8F0305EE0010CFF42
:101870004098D0B458F698B8FB8DADB4CE1B8DB659
:101880004BFF3EC808803090D7BBA1D80254668178
:10189000CB300689F830D089ED2D373F58DB98A141
:1018A000F8F83D1D0479D2001D5B966A7CC0022CBD
:1018B000DB05807ECB08D0B3B98CB03618C8E1B355
:1018C000B71046F130C0C68E00D0FCC57981406E9D
:1018D000F364F17599E6CE7FB57C10FCF56CF517D5
:1018E000E7E8F95892B579F39AB4B821D30353D302
:1018F00034C690B1F918243BFF98FF2828A0CE33B6
:1019000059CC356DD39081FF11203C311FB1CC6390
:101910008128170542BEDF20E772E915A9A099E2E8
:1019200011D5C44C66FFBD71D30868D3C4B0FA6A40
:10193000DE6AEB652CD1014BEC4C48A4D7F850E0A3
:10194000FD0C39F8CC4CC6D3F8FBCB14D374DF664E
:1019500099879FC04BCA087F96ADF55A0978DB2C52
:10196000C84829CF1667BD36FFD9C8FFFFDC63FE24
:1019700015B10166B338FDC2BF3369FF1808657F32
:101980006D48F8B208D64302C61E112CAB02DFD94F
:10199000FCD05F7F617ABF24CCDE2CD8FADCDE5825
:1019A00050486D5C4762A7FFF8E5B6E03C00AED852
:1019B000D3CCEB99274B74CDA4D75F043DDB2240F9
:1019C0000820C9B3FF14E0A080035D14DBA50AB6AC
:1019D000B46EAD11D624400B58A392B30470863078
:1019E000802D50F50484C90102D3D27F73C628FA32
:1019F000CCE0DE801073A3608B8D96BA92312FB34A
:101A00000697B4611FC0FD924899B3AF1268DE42D9
:101A1000082CD809FBD7AC6D086FD69B027B4AFD1A
:101A2000086FFBDC2035D182620DB28020B28B02C0
:101A3000B2EED8BC51EABD362E21FE1279EE95C623
:101A4000A52CE6EC18B0FC21F111746CC8635D564E
:101A50003B6688FD16E1027F617BFFB0FF637E116C
:101A6000616EACAFFD6396DB2016B6B420B0ABB3AD
:101A7000010B572E08FA6C10CCFEC5F0FACDDDB084
:101A8000088CF99BBF9EE1E1620D48D0FD6D79DDC8
:101A90008E1997FB88804D8C5FC40C35438CF58E76
:101AA000013CFE44C8B379B897F633BBFD6156F6E6
:101AB0004610FF091F3302B8C31DD949101C08B2D4
:101AC00080DB1118FA6FD836405EAB67F7EDA8F9E6
:101AD000018243FF98FF608EB5AF08B07F250F6687
:101AE0005AB301FE6C02C6F239DFD6990831EDB760
:101AF00078FA89ABE704CCFF4FACB56F3BF508FB38
:101B00002F2C187DAF20EC04141261B2FD61165F1A
:101B10003CE6762FC6A1ED52B8F8AF982A47E65DAD
:101B20003AE0B4A85966808B9B4014407D08639BC3
:101B300032C048FA610E85AE689015A7598CCB3437
:101B400004664A98F88CE9FE4BD728C115F2DECB23
:101B50000F2D55026CB1B980A0FD4789ACA710F5D7
:101B600025208A0658A240C50DB841B3405B59E014
:101B7000F856B60880D736DE90AABA4059CE20CCA7
:101B8000B02040627388B26B19D01DA8E1A2F8643E
:101B900061EBA0FE99B626FDE7540248DA0A064832
:101BA000AEA0E6BA08489BC9F261DD13DB0610401F
:101BB000C4CDBFE3A3800561A124FFD082001840FB
:101BC000426D03040579891DE7FDA705F0FB491067
:101BD0003A905CCB20027AFD58697D058301B331D0
:101BE000DE1A2120844069DFD0F64C9C44FC31A6EB
:101BF000A7C693422018BB28791BA0FCAE67FDDC6A
:101C000018E0F79A829B88754EA2D798D372E34466
:101C1000B7F3AB2F455DEE9EB3F680402008A49B42
:101C20000577E9AC84F981595077718338FD5CE31D
:101C300062F9296E9C4631A67A2A4B9D24FDDCFF71
:101C4000A9E288E484B37A85AE7EB7AC804067763B
:101C5000E3201269177E6822C6B7E3F861C699656A
:101C6000F962ECD8FB085F3652013EBFB30C1BF1A2
:101C7000C8FF23ECB06B6D49FE3DBAFECEFDE70216
:101C8000B7F6EFC0FC139938E6947E762809FA235C
:101C9000F69A625508C6FE65DDB4053BF948F9279A
:101CA000F2D218E8C9D2EFF35E12D3CB2FE19FB284
:101CB00052AE017F8DB3CCE1602EC7F6C1F65170F4
:101CC000F8C6CCD95D1E087F1988BFE2D8C0FF4591
:101CD000A4BB5CB710D3FB3D4F606FE9E5FDD2C0FC
:101CE00024A2881815433F1880010424A010398FBE
:101CF0001211DFC00C29623CCB813086D21402D68F
:101D0000085EE023347210B2BD288D06B5D8FB7F83
:101D100070056C7FD749069BE62CE5C09F728B58F7
:101D2000FE60F59BED8006BF33029242F396446657
:101D3000BBC068379ECF232E16FFD68237D303AEA3
:101D4000EEF0FDFB78A7FBFCA0F82095F944EC3AF7
:101D50002009192DF3B5B0F173ECD88430A6F7ED56
:101D600016086D8EB7AFDDD0DB49C7E6BEFC809CA0
:101D7000316F440878985A8860E41905DD3F42EFD6
:101D80003483604184B380C71A7B05302E1978658F
:101D90001361010CCD9B190B50FFB104FCF0F8E06E
:101DA000011CA05079401EC453FC2003E0413CA01C
:101DB000335B0E86C07B460FE2813CB3E5E007EE65
:101DC000BD78100FD0EE97F383FEEF3C1E38FA6318
:101DD0008010AFCABD18FCF93EF3BF306349D2038F
:101DE000F388C44866E0FFE57F0361E0BFED7F0351
:101DF0000666A7FD60E0B07210C102B304620C8CED
:101E000082F5D3084604A462B3B52C761908302BAA
:101E1000BE57BD15B313764340B26096B3208CB362
:101E200018F90E44A49040596DE198E9A2D452C625
:101E30000860060DD7DF9840462AFF3177BD039131
:101E40009510187B984404592BB2A0B83468D3205D
:101E500087754DA4FDE6235725F801F4DF354607C5
:101E6000DE98FB4EEE2AFE0D9DF77715EEC11D188C
:101E7000BF8D7E6660DA4F7F5798AEC542FA1DED82
:101E80000180006FB4647DDD1E66BBFF09EEB3DD2B
:101E90002E448F98CD198297AB2F50FE97BBB12857
:101EA000351302F78197F28B98B7BD41484653CF5F
:101EB0003812666FDE7377C276DC35728BD01611FE
:101EC000F3465EE81220569FE6DBFD800920F9010B
:101ED00040C00898089960AF817DA70AB390042399
:101EE000C841448E8D1D666778FFCFB3C057BC06CE
:101EF00077F47F46C03A5F7F6426FF83662CEFEB62
:101F00007FC1F9DFC58801F4801EFFC0007910038E
:101F1000E0810CC98007ACF39D03540FE4A7FDE7F3
:101F20009C07E81EEE7F8474014EE0D307F44D77E2
:101F3000D37A91D393D34027D3CB3C08E990FB8449
:101F4000930497C426F9C5FF6B7FD0C2D4B5F3D5EF
:101F5000B769E8F70A16B49E987FADF262CFB4F580
:101F6000980CCD6689F87898D11EC0C0DEC53DA614
:101F7000A0088677010403ED304288FD4B326BB830
:101F8000F9391481B3DD22C4D6BE51197998EFB363
:101F900040FC20108680B96B82DA50207A988185C7
:101FA000C76936E221109F4EF2FE673244E49E512B
:101FB0002239EE0849CED42E2D9ABC4C5B48FB98B2
:101FC0008410CB38FF456D17D7DBFD5979982DF27A
:101FD00020FD98BCEEEE326750CD52B3B1DDA6FFC6
:101FE00030FB88C66F2ADBA0FD9820AF081398F15C
:101FF00063106DAF9FBEEE36DD773E4442663DBB5B
:1020000044DB404733FC989EB8A0FE044874C526C4
:10201000C0DBBF1090309028065CBDC501DA802877
:102020003ED496FEA2DD0DEFFAE66E71BB26FCC231
:10203000A0A3B8983FC898CA0FFC04219E30C4C022
:10204000425871B360112281EF3021FF3283602248
:102050005F927BD4B6FFDE1675D4FF562DEF80114C
:10206000B00814BFC8C198B5F2E8575823D732FC5E
:10207000E72280F8E02F3C9001F23070D02179AE59
:102080002F301D98C61ED07A980B5EF3D1FB860ABE
:102090001316049DB307290E7B6B80018AF0B93DAE
:1020A000786A18B4F0E5300FDF4DDA58FAFBC5183E
:1020B00008AF82AE5E3F7DABB1957D20E6D8BB57C1
:1020C0008012F0B310292E85F46BC2A3F4E03FD147
:1020D0009820F8C0FE8067E026C89B281908F6E320
:1020E000520C7918CAE330B965126AF64093364348
:1020F000C05AB314DBDE981802F0FD05447D35218B
:102100008943A2CBE57FC07D287E644CBF2B907BAA
:10211000D2AEBADCC13BA9C31063C9EB080BD3BF75
:1021200001606A32F83002D72B0AA4FC69CB3A402E
:102130003B885C19D5F6B4E8BB41A3810654661E02
:10214000EE0A6CCB085BC794B1A8FF4050593C30F5
:102150002E842FF50F980C6A36F758BA53EB3BF8DC
:10216000417618F39B04B3317C986B09502BBB3834
:102170008EF8FD8B8E30CB805F5A9804F9C57DCCEC
:10218000AB7DBABFDD4CAFEFAA0D7606FE5C62D91F
:102190001022DE9846B88D6653F97ED80AB93018F9
:1021A000078860BB10DB9812429E5C2361820C336F
:1021B0004F7BE5B8FA57AB9FA813461AEE82F54558
:1021C000301126C6307FE4328CFAEBE641FE875DA3
:1021D000B0F120764BC8EABCB81AE530C8D9C8B40B
:1021E000E0FFBB9A1A45DD0B0ADFB107020FE5AF2E
:1021F00001C50FF45C3DB6793518F598027D2F794D
:10220000E5692271309394C8797E6FC882DA74E5EB
:102210003844FCFB152EFE80F3786F33E5F930B1BE
:10222000BFF937C8C07ECA62E2C0F28BF9EDE003A5
:102230000A8C26E6C302E4F350BD6A5B2808C0E0BE
:10224000B8BF06CC4B479D302118F8DE982EB2F36C
:10225000F44F6E988604EE170849272104107FFE7C
:10226000726C265076219FF8441A282310DD300422
:10227000E4E2F2EF0C040D42B7D071F3F9C8ED407F
:10228000D8FB8DA1F2C30B9BBD01607E65301AA601
:10229000B3CFF74C5928BB238B3FEE14EBC37CB76D
:1022A0002E6FFF38FA3650DD0642295004C6082644
:1022B00064FC4889F3F4AEF7A75466843A66113A91
:1022C000BBF2983F69C578D3EAC8E035B0CAC8FA0E
:1022D0007F1B7891019094092B2CCF9879A90189C3
:1022E0006010847852FAB3A61A67017BDF451106A5
:1022F000BB45D542DC3D8014DC19DB3EC8D2F984F5
:102300001105227230981588735D81058730067338
:10231000E72360FB14248205B09F79AA96149709DD
:10232000736610DAF97B8345B02069BB8846AFCB72
:1023300004D9190B69E398E7FA5C3D5E98BB00D7B6
:102340009810FA98075DE892BBDD8EF378D18EDEA7
:1023500014380E03B34AEF07E001F2FCF5A518921A
:1023600019B583CEC8B8FBFF16C5ABFE987A190421
:10237000B2BB23FC8BEE230B2ED7398AF89884FB53
:10238000EF36E5FB7F27DA9819FAF398BEC367B3F7
:1023900011C02C8270B3FFF358802320210C8828B1
:1023A000F381BF6F546B9B702A83B32E278EC0704E
:1023B000024CBC01B3C9CEC878FCBFFCA07F979883
:1023C000F50D0120F76D66C85090802D1A7B98A8F6
:1023D000EFDAD4FE07B482BB889448EE373DFE7F27
:1023E0001201BC9887BEE6CCFB5F6664EA4A40D720
:1023F000D79881EE5001E766A26E54B9EF6650EDB2
:10240000572ADF38ADFF3798E58018BF34BFB8F8DA
:102410001C71BAA78098D14108292BB9826DC67961
:10242000987A97E6B3EFD1042ADD9940EA85803B9C
:10243000BD2DA87F7F106BC330E6C881FD28407694
:102440005F942BD82F26C9C8F63AF34C302FAB7BBC
:10245000EC3EEFE1EE9F740B1036D9207E426072A5
:102460006602D91958B62065595BFBBCF9C8839838
:1024700003FF62120C8291300426455C94E852EE10
:10248000493006DEE3EEF433BF3253F9213ABD8022
:1024900009D3EE46C844F39852B356D31060C82C03
:1024A0002DFA9CA9FE6080CDC8F179A5DC3D36BD32
:1024B0003C99C83F23100FE4013C2B77D84B0EE02A
:1024C000C8547F360AB00BE0013DDA88077998AF2F
:1024D000FB9530201E7F609820F93F20C8327C9801
:1024E000B63AFE239DF343026E5E91B0ED6BCB30A6
:1024F00040756608B7B09889FD1679C810C104C048
:10250000B950B3118131167019810C881DA0B3ED3B
:1025100015248039AB126AB3B884B3DF5B340C0185
:102520006F6998B0FA3681E840182481FE5C3086E5
:10253000C7AF42812C2976934A19CEFFE9A7FA0149
:102540001943E1AC13223B35A894F41BE06DAA1F9C
:1025500012FB54F83048BA6688EFF54C01EBE320E3
:102560008F262F8EA12CFE5EF7BE25FE813B2637DF
:1025700012BB4F34A5371E3719F78B28F86029C5D1
:10258000E080477DED46FC50AD109784E913E66E80
:10259000C6BABFB6FE3223331B7BF4D380764E6DB2
:1025A000C830FC987EE6D0FC84290477BE4802EA55
:1025B000CE2DD79A2588486DE5842433BB16F4AB1D
:1025C0002CEE11F8F24B6636E6EF31DEB3C833C8B5
:1025D00018BC0266E4D3F84D1030DBA99918EE62FE
:1025E000B88A8197960466C860B96645D33012DB15
:1025F000E8AACA17FE87FFCC870B2ECF8005E0C262
:10260000C0045D995C03680CEB221811F9324C028E
:102610005C37B6FDFB98F4406DCD300CA00D65F332
:10262000837B8BE2017F3D30AE3A143EFA7CEB2A8D
:102630000A02901D8836F0004E4AC8F3F49850996B
:10264000D3F63C89770A305E16731A4F0A30C65BA0
:10265000F3847AE596D750900B1FC51DF77F1AE0DB
:1026600099663E98F0A8FF80899E5332166153B94F
:10267000304277854B4AD32C34C65ABB172DC844F9
:102680001DB316640496B39548F3D700EF49FF20B5
:102690000784905A7269C2305C57E2EECC80EBF24C
:1026A0006CFBC8603B94FABF6A05E8D10AFFA576C7
:1026B000C798105F9098DE77BBF840E0FCCCF88EAE
:1026C000342BF327FC69D5F356EEAA97EE7BF885F9
:1026D000DD0BFF537339FF6069F5BF972E7C2757D9
:1026E000FCD6BF89D4B8048944F34009DF72FB7873
:1026F000BBB5EED1DDB35AFF68FC58B2207D9820FF
:1027000042A3DDD3993050FACC4732EE7C0A5ED832
:102710007079340BD9D8FFCC68F79BDBDE10B7B3E8
:1027200047FF749984C3DFCD980D21B9F64AF2FEB4
:10273000803130B47AE0180103D2AFEE2409420BA5
:10274000FC98BB17512BA0D334EE66EF5E3538B33F
:10275000CD1A1F8811300226A5C8EB13B77017C019
:102760002411D3FE9817E8F95C3D3BBDF180FD983C
:102770000F7675C80302CB3083BC8BFE1F30891BDC
:10278000860C104FC00508030FAFE8729807F020C1
:10279000BD5BE0ED497A8B71FF76980860F999ABE3
:1027A00009BF0B301C5E533008F39004440CAEA0FC
:1027B00058B349F68C779978BE9879F3FEE5AD0168
:1027C00005FC225AFC4BB36145B346AFAB4B80C806
:1027D0004BBEFF5FFB08D345FF8473B3400262A288
:1027E000B319031B53FF04BFDF83BBDC9E3022AA57
:1027F0004177C6CBD4EF32D58F107D3FDF0A671CFF
:10280000F3DDF788DF81DC73CAC2AA0FFF28636D8E
:10281000D380F88D9E94B3F7DDD7FC013BB36B29D1
:102820005F1C76D628FE243E66EEDDB1DF7BB34624
:10283000C714751C0939FF118C9F95CF0B98DFF7D2
:10284000DD7B668FB9625FCC79C0A66DBB708D19D8
:10285000FA62DFADD6B5819CEE7FB01D7AF8220A10
:10286000580732F90FC41766C81AF3672BE8FF6ED2
:102870005109A851BCFF44DCB16D85B250BE191A94
:1028800091D3F3B75BAF93F3B1F0F9637FF96718B6
:102890002CE3D398FF4ADE80357425266F821EF222
:1028A0008FB70937BE37FF3800BACF6CFF98FA9F51
:1028B000B1B6D5FF108F36DFC8FB9FF0634ADC024C
:1028C00036BAE267E84EECE367754268B76CB10868
:1028D00093C32CB6C93624FB10165A8AECAD1940A6
:1028E000CCB37C14DFCCBBF679D0FACCFBD07F58CC
:1028F0009B40F736FF200121FB7FFD25F3402FDEB3
:1029000037263335D15140D09266DEA16AA85EE207
:1029100041EFCEA0F0F8F7C1012008C40480881070
:10292000F0E02F31B83FA2E3B432B3FFAD406DF316
:102930005D77B0BCFECB53B6F00A60DD294ABBF828
:102940001297DA09F9969FA32C80300231B6F1D79D
:10295000528486F86BEE08317A1880980CB1FCBD71
:1029600061440639E9622BA0EBDC448199940A8426
:10297000AC9120D9D88FA5CEB0E0AA4F1CE3FB4C78
:10298000BF0C31E1203BF0FB0A7EA31EED81F4B1C8
:10299000BF4BFD10743BCD1BDCF3F8F98096E226AB
:1029A0006700B5633ED84BE5403BCF7126A134BDEF
:1029B000FFDC8D82B23B8DE9BC11CA366132BEB8F4
:1029C000C9C9519E12B5DD1CB1FC53800C9BFF9010
:1029D000FF1233EAB883D3CCCE55970664E9629BE5
:1029E000FDB5801499CB87106EB61F77ED100204E9
:1029F000FDF288F7EA60FA6DF6BC791D79FC85ADC9
:102A000019A8FE8D2CE2803CFDCC01E6677859B018
:102A10003D89B348669DB3D6B115AC72109582A0BE
:102A20002CB3445B8C9965EA40625EC2B1184F30AA
:102A3000E5D35AF588FCFDD90493DBE18055F40118
:102A400084A6B356F68758FFE641147D368B36963A
:102A500058FE22D562FA53B140DF5898FA4281B04D
:102A60001097FB60D8FB1CD3C90ADBFF89FA113031
:102A70006DDF90C6FE2F0204C8D0B8C67CB9DF96C1
:102A8000B11052E080E0F3CD35EDB8B2FEBFA30146
:102A900067FF9D02206A52B010856788A5FE9608E0
:102AA00089E45B36FE82B560580428EBB320FD460E
:102AB000D1414E98F567F9DEE6ED2CE54B6AFF0C47
:102AC000398980B12056D930FFC57DED082C98504A
:102AD000358C7F5BDB3648F9CC605BCCF5FDD806E6
:102AE00040D7BA71D8FF2037D020B3D4A03DF530FD
:102AF000625E85B510F3E8156889B0F8E5FF9B3292
:102B0000A1027FE8F60804EEC496528051C4BF2D9E
:102B1000558155ED709D2E1020DEB20A818FFBF39A
:102B20003FD6D60131D415DB6F946FEE409E1A3F2D
:102B3000C75CFA604304B0732B58509A0BBD4A52DD
:102B400092A25A18B35B28A380AB33F7D6207A152C
:102B500014FFACDDC04021A10CE5DA81C0090205FB
:102B6000FECCFEFBA7926E828A01712602483A14BF
:102B7000954052EC8A9481F2C033C9CB1934CA18FB
:102B8000BC36741CD9B7CF28439D2C82233A65707C
:102B9000FB3CF25BE0C79680A07C4063FA042CD338
:102BA000AF956175AD2868F8EBF141FEFEF2AAFB26
:102BB000221BD5F9081EE4AA79D4E17ED0C334AD36
:102BC000DB60F91C9AEE6599CBBFD1610F761728AF
:102BD000FB3196D957D9C904DA7D62DD991EFDC54E
:102BE000B7190166186E45CE7DF8FC04C5BB2222DC
:102BF00062FFCA62CEE969FA0AFF3CD474CAF45192
:102C000080B11F4D2D25B6D033F19B4460FB18E8F1
:102C1000224CBFC7D20163ED19A8FE8FFCEEB04075
:102C20009B5B5450FA088CB923FA7B5894FAA3DBC7
:102C3000014062F929630DE7A8F8B8DD76C1A05814
:102C4000EEEC42025B9B2F70FC18F42510B1AEC372
:102C5000033BBAE354FA327B8B456D04B2BC0337B5
:102C6000ACAF7518803DD6F9200932D80180449563
:102C7000B841C43CC2DC2412B621EC02CF4BCF31A8
:102C8000FD6DC01B8C699A219A39F38530FB04587D
:102C9000FF80413FAC6C63F648804AA10CCDE574DF
:102CA0003068FCA1717BF78106835C0CB968EAE0AF
:102CB000BF20F0E90319E299E5C94CB30FFD3CF6DA
:102CC000FDC02008A3B3F37081FF117A46028FBFC5
:102CD000DA30356958E2208260A09BB346C89CDB9D
:102CE00060400DDFFB34FABF0141CD8C4FF378FE1D
:102CF00080443FF486C0289804F80360100801B4AB
:102D000002CE2FABCE4C0250C53F3601A224FB248D
:102D10007C2640A16619A65F8C73CEFCE04CFB07B5
:102D2000F03C1E4086A75CB0D9A3900CCC19FF9252
:102D300080CAB688D3F7E5D30212262C1E74FB187E
:102D4000400CF40C10D0FA4C32C3C0F08DD6853450
:102D5000DEFF9FB1824EA325D3CEA9146657B67964
:102D6000D3EFC7FF80040179B3C86984F65099F6A0
:102D700072DB4C150189FBAF46C4B910B32472B3A2
:102D80000199191021F7DC144C87F2E0FC2045C4AE
:102D900097295A7A6429D1D12467F23B10DB6E1A45
:102DA0005CFBD0E0DD6812A66CBA25400317F2BFC9
:102DB000E8F8F78846535173E39BC69A7FB7AC8611
:102DC000019946FA9FBF20DB9898FF60B31683DD18
:102DD0008AD8A020BF6F7184EDEB80B99CDE987219
:102DE00047409061383DB0FB8850AA66209720028A
:102DF000F11C8B1260B905E56604C7741FBB9C47C4
:102E00001810AF0CAF886198AAFD25E02636F402B1
:102E100003E666BDAA624BB31175584130F930091B
:102E20001A7F25040CBB10F17FFB9DE3C5F70E70E4
:102E3000C407AD6C9016C703225FD3E081FBF0405E
:102E400069E0989AF89852F313FD9820EFF804413E
:102E5000FB46FBBC080D9266D80C08B751171E1B29
:102E6000BA7D6B37196020B5F3B9F9F72B2EE284E0
:102E700059962C4B204C126B190902E88C8DBBBE65
:102E80004C1912141958EEBD5FB3C097FBB7F3305D
:102E90001A4277ECF820CF3798F5950AABF8250859
:102EA00020D667D01890136046C1FE987F21303439
:102EB0006D50FE8C536B4D32D6E802DE98D88060A0
:102EC0008EE81AD0B3FE7730081083FD58BF97986C
:102ED00058A182B382DB7B8382782BC9989A084CF5
:102EE0002068FCBFD89630984E5BB47030B3E89A37
:102EF000190509EE644840968A68ED9C18022E6A0E
:102F0000017AFCD8FC8405F14BA0DD4804E9980166
:102F1000EE7FD832BF29CA801A010DE7DCF517AF62
:102F2000B498212C660F40F9D7E0812B30F18D3019
:102F3000D62690BB692CE6F619E201FE1D03BD03FF
:102F400018CD213C08DE980CB463DE3CF0FF5BE258
:102F5000713025FF88D3B8660D82419FCDCA0840E5
:102F60002ED302358932EFF9300897F8FD96B3D1A8
:102F7000493BFA22B74031700EDC1711D3AF88BC41
:102F80004DE4FF39985C14AE80FCA40AD0FAA00589
:102F9000C1BC24121A5693B2E52104FB81F1BCB5E1
:102FA000BCC2CECD89211FE2915A376044E9AF2ED1
:102FB000F392F6D280044CB3A7FF177EE6C2E35328
:102FC00037363D0423CB300666EF016185ECC0E661
:102FD0004AAF49302038FEDAC00173A7D0036479C4
:102FE00098ECCC0E602630FFDA037AA49FC01DE96E
:102FF000CB7040C3383CF9FB2029D0B340AF4BA085
:10300000D66C01FE98AF4131FD0E8E1789C0E809DC
:10301000B6686B52149A683CE9990C22FDE076710F
:103020008908586803B308CE17660C25B10AE69FD5
:10303000FD7F04441DD3CBE8236F2D8A2FAF6F98FB
:10304000028CFE28FC60B573038A10FD5E3F0726E4
:10305000BBB029F583E0B301FF7FE9413D6EF2F695
:10306000981920BF4F046DE098B70F027330FA80B3
:1030700077AB98C1EC7F9D9796F3AD6641D6BA08C1
:10308000A2A9EDFEAFD1A3CCEF5FBF7F2F8E5F0C67
:1030900091EB9826BC98E4D484779E43B323EF3217
:1030A000BABADF78E306C20D9419305C5FEC59BB05
:1030B000BD0CE2F8A320194E2F6A3F98BB241028BC
:1030C0006CEDDB30A056B006AA5EA31319C08E408B
:1030D000F68260020D9C30C244422F3BE130DC801E
:1030E000FFC696FF80ABBB48541904A38673BD98F6
:1030F00060BC4073E3777FF15A58FB40D243C01461
:103100000456722C0A578059379F7F7FEE6DE05B23
:10311000EF70FB4B18C86D9F77F0FDA4107BC202C7
:103120004071F017169ADF6F4945018E042D05AFE7
:103130005A17B3118805E046BBD8F41569B3437339
:10314000C410B950E08C3FC6B008E2FD849A85F403
:1031500016FBB94FDCAC11394778FD3291EB4A428E
:103160006366BC981C82DCFB0BBE71663C282003A6
:103170006122473BCCD8FCE0B95D12131ED0AF836F
:10318000CA0F64C123435BFD9841DB3C209A201E9B
:10319000F9D377F23C8118BDFFCA7F70C6E323F9EB
:1031A0003008CBF8FAD8FA40FF2398E2FAD1D96672
:1031B000312C83F1FFD37FD9BB3CEA5DC47B0C206B
:1031C00071AFFB3FFE6CE3FCCCC80438B006696607
:1031D000DE1EDD2604C7741EFB197BC6142C5DF4AD
:1031E000F70240FC20667B11FF2398019675D0AD55
:1031F000BF280489652E66C844B930622DA073C803
:1032000092463B8DF3DCFDE677FD7C797D923DB304
:10321000053C90B8CAD5D76079C995C43075DDFC36
:1032200040C28819FEDE170330B6F0F39810E57D32
:10323000C01FE1FC1C0372ADFDAF561BA41DD05C8A
:1032400083C811C1F9A072CB44590F0BCE285F235C
:1032500098E63360835CA019D2C222C368D4E4B676
:103260000FFCBBCC7A966AFBDB99FC980BFE7FB413
:10327000FC6DB3084566F89DF77F2EED86FE4D2068
:10328000048D0D3B1799076360DC442C62F5A2FCAA
:10329000E041EAC511F5D28366D56452FC1920D30A
:1032A000D6986020199660AAF9C87F8A98D3F35EF1
:1032B000BC987DF53C10D0FD93E698FB296A666FBB
:1032C000F587963A579E989B37D3029BD38EC65963
:1032D000E9FECAF198EDB981E02269EA9880311BD4
:1032E00016FF10429A6F2302FBB8D51924B60FD9E6
:1032F000C8AFFCB7ACF59881DE987E57E8F1EC08D2
:103300002897D9D4BBE3BB218930E0237EAEBC042F
:10331000E3627F1598EAA6AF4A8A84D4CAF266238C
:10332000C8517DB79E5FF8C0CB9A103FC69864FB2A
:103330005FFCE798F130E2955889D0590A622B1D5D
:10334000E0BC981B97CE4097C20DC71DC8AF979899
:103350002F30045F3B24E198179AE51F19EB98443E
:103360003CB3FF5C98D2D6DA60107C6B164FBD98E8
:1033700070FC044879986B62030B79E4DCCABF885F
:10338000C6B06609F3D153534F3BD15B82028281B1
:10339000E0448C7FD37F102361D30C4C6C1128D375
:1033A000FC6066071069ED980362FE9870DDCBB88B
:1033B0000BE614F3989DBD037A10AFBB98201EC88E
:1033C0005E0730A8B4F8F3C55C8EC8DBD6988329B5
:1033D000D664A4D3895FF668D3597E6DEC9820FE3D
:1033E0000B507F3F98EF743CB3A68CFE4FCE98F005
:1033F000829B21015F2398C65F0B98C0DDFD20A949
:10340000EB12E273C241207F5A447A532176FA05C7
:103410000677E87F1151BEAC8B694D56BD98037F8E
:10342000BE98B010F8F980CBE53080E64679FFBF52
:103430006C1040F2E0FBE4C92C597094FA9ADC94C9
:10344000C116404BE701CD19379D62649B251BC710
:103450007998FEA547C07A98C0F2B3FF7F78FE0442
:103460007E6EC8223619E330C877EA30B62072B3D0
:1034700044D7DE9810644041EF3BD5C59866F9C843
:103480009D3469FB04D9F55FB92E8CF3DBDBAF8883
:10349000189FC328801131096A2046E29CD6BB845C
:1034A000F7328236F512809E98088DD4610E20F591
:1034B0007AFBCABD03CCC804DA5A20E4C8BFF3FCC7
:1034C00002E4011C0B0745BB90AF6E5CE8CDC8322F
:1034D000FE980D91E09817A79802971048BCF80144
:1034E0008B84CD6EB3C8202FF362184130B5D5AFB1
:1034F000D8AB5E8C816DE698DAAF472C9D4DFC9978
:10350000C8F99DBFC0A6C0E5B3CB250872E0DFE7D0
:1035100004301115AFDAD4B6B38408BE98C2236460
:10352000DA24047A98989B1D144CD040FE98D9FF59
:10353000E7B3984442FFEBBCFF2064AD92BFD2CC0E
:1035400078E3F33BD6E52834D3828058662436FFEF
:1035500089FE36666718D1E3D3BAFD60926646B33A
:103560006080B593FB401AFA6E3C7359BAF1CADD1C
:10357000C178D9C8651151ECE0F31E4467ADB401C0
:103580008891D3F3BE72C66CF399F8127FCC98B1D0
:10359000FFFFD7F6045E822428F7F3C606D8ACF8FE
:1035A000C35F6CE50804FE25600DFB89989BB8821B
:1035B0007790C2DF6622B3B2D856198011986CCFCB
:1035C0006CA0907FD69801729608CD6D7008409BD4
:1035D000D950FE143DC48680B10142A033B8FE1913
:1035E000FDB7BD5B66048B80F61AFC4D10DAC78010
:1035F000001B6EC779C52E4DFF2CEBA340E07387EF
:1036000063A616510A20AB7AA8021C1026A768F000
:103610001CDFEBF9E12D5FBA950C568760DA223694
:1036200037282223F32B0610E814A1C17BB3D54A17
:10363000EE28A5207E66036048515901BD40D8861A
:10364000FB90DEB0E510A421A31C96B3A464B7D808
:10365000082181B407C4246AB448F0BC3101386938
:1036600004EE44D575BF09F275FD1DCACBB01DFB34
:1036700025C506B30488622DE2B8F8EFF941800849
:103680001077513C6BE7AB8B66C612F932B67AAF56
:1036900008FE2FC432417F7A70BCFBF5D4EC6CE499
:1036A00082678C7F7FDBD978FB0C7A68D810CEF6E6
:1036B0003818FFC2C5B702BF182B8AE3C0BECCC200
:1036C000A52640BFD975C568FB2B582866BEADC777
:1036D000B9C42079D9FB976FB695EDA190FF95D528
:1036E0006DB7C9AFD32032EDCCB1789AECEC153878
:1036F000FA23FB903FB64D0225FE30F0FC0CC95971
:10370000D8085CCBB108E59B0198F43DAB50FC4078
:103710008D6D01902DB52031FAAFEC5010FF35CDF5
:103720008F0188B60DB8FC57D1AB1996CFB21056A1
:10373000CB2039E7802CAEC07FE57FBA99FD97801A
:1037400004E69861DDA3E438F9B0809CB5C7FF0CAE
:10375000A869B6491DE968BBFF98FD63E2DDFFC2B9
:103760006CD8F218EA6604CA3194EED9F0F8FEE596
:1037700061CB09B8FFB120B5850293E6A93FDD58BA
:10378000C8FFE6CD13EEE980DDBF21B70135EAF8C9
:10379000155958FEE5616FDB8999BBFDA7D9D0FAB1
:1037A000FF916127D929E43361DA48F8AC8610F338
:1037B000777D0253F2FBFBF3B6F2C6BDD690B1FBA8
:1037C000DEB385B8C8CFEBF37D2F24D832FE61E796
:1037D00014ED4993FBC5A067F768FF08653689803B
:1037E0004041D19C63721B80DCEF74600121AF7A91
:1037F000D481D919FC7A488182533FB40401E26A2A
:10380000F9B780E3D76020E6B104DDF0047AEF4039
:1038100042796BAEC3887CFDE669A0146095534382
:103820000A3BE58001D9DA480AEB8C016DF60517F1
:1038300078108C66ED18CADE052A0CB329F3C00394
:10384000449904DD50FBEB905A01535305EEC8A593
:10385000F9C106217C904052F203041441E18CD658
:10386000BFD1521882A076C5F9C07AF8249EA54629
:1038700084833073FAC06A3040C0424AF188090537
:1038800020FBE0FA8037EC68F2FF35C3CDD24097D9
:10389000ADF601420BF6EC25CE28DCFC203F225091
:1038A000171E19D93ABC629EF6B2010583CDC4F049
:1038B0009B5F92D30422D8E8FC614EADC2808DF5A7
:1038C0004C60E7F5B0FC02637D881E10D5140862D9
:1038D000B9627BE04001B9069468617F984BC73DAF
:1038E0006C20B8FE108F68AFBC7F7EC4B8FACD6084
:1038F00051BCF9304865FF98FF4F95FBB3040B7836
:1039000075CA76C48054FA62E804D8F7C27FAED193
:10391000B64F6C1040FD51D9086106ACBA21F6C90A
:1039200010FCCEE31B1E33B0D64804EDD6F0FF8E5C
:10393000FDF29C2D6701E364B6ABB0F9EB49084397
:10394000F72BF6BF8012E6C708D11748B1FAC37546
:10395000F5E1206BD250F7F50142897DECCD7B3843
:10396000FFCACE141BD2D50225B260019ACD6E34A7
:103970009721D7FF83012000F896A14602185F081F
:10398000100904401854C1B6FE31231EAEF6311999
:103990007F00E8CBDB2943F34ED66406ECDFC0ADF5
:1039A0001A75F31833F4FE2F94ED0CE35FB376DC55
:1039B00057F30E2188F3388BF357A6F80ADC193534
:1039C000F23339FC3DCFFDABC011D398DB292FACCE
:1039D0000DAB4145F3A715ABB3467B63081396F6D1
:1039E00050AECA8B60087B1A01B010390721CF3066
:1039F00004B3025820C00361CF0C84F31110C83FF8
:103A0000C6010B02810C1A85BB64FD73DD07020B36
:103A10001EC09403FB506A19CF0378FBE0013D6799
:103A20000D66ED3C7B64401E4DE0200F0AF3C6514D
:103A3000F3C8D312F348FDFFBBCC57C9031BA97FC2
:103A4000A0036072F330CE23B3EDFEAFE5E00C17B8
:103A5000F3DE95C671F37D3CEDB32604A8B31B28B5
:103A60001136B3DE939802D5B3446EB337EBC8AFCB
:103A7000A60A6DB320FEFB6508677D91AF51FEE994
:103A8000EFAAC02382FEF11804B480F7D000FC80B6
:103A90003C0488C1C64626DBF40941EF4B8D3C1936
:103AA000D1AFBA7FC05CCA88817A72F947D4422A02
:103AB000D4EDFFB73CE9DCA378F86DB8FBB2C5C024
:103AC000CE3FB4EF006EB3110142F7EFE58AD04468
:103AD000B92DD680BC9896DB304FB798C1FEFDCC8F
:103AE0008969C51E7C07373267A1F02965330CED63
:103AF0002D2BC4FC98966C144FB698DAF9FC30B3B1
:103B0000035DB38C820979ABCD66D101DF1BFA3F2F
:103B1000B0E87080EFD540C102F018031360D79C65
:103B20009872C208987F9398F3A2FB7F9C9819B370
:103B3000830BB4DBC5813C5CBF46FE30FE03280727
:103B400085EDB0FE98DD7920E6A567B798D8FAF93B
:103B500098889F66F705F594659CECAC80A817F9EA
:103B6000F291E498C669EBAB20DBF379FF4EB11715
:103B700053B333347124B3C62012B7C4F39897ED0E
:103B8000102FF3046DF3F8FDBF22607F5B37ADC4E7
:103B900001FD98145FCA73185D443FC61110069169
:103BA000041B18406FD3F2D5183E4D10688440BCFA
:103BB000980E78FEC20F2398B390FB8E36E411DC8A
:103BC000B5A310E537891B87D06DE898060CAE5970
:103BD00030C85E983764223EBF9D13A6EC42073082
:103BE0001004B784F3988E0907401078D31DFE04A3
:103BF000B7AF98133826C3B8AAC9F198E41A22EED1
:103C0000C0FED9E7F64626CF0114BC4098CBE8F4B5
:103C10008F6FD308FA4B4A02C05E3C50F966854369
:103C2000FB4CDF9B30148A9EFA0BA8A61057E06B62
:103C30006CC2963013BF8CE626C20886234EEBF387
:103C4000853005F8B7B8981EC4830DF830BCB8BDF0
:103C500098E47F1B30F3FC5119E36601E2763C9057
:103C600007DE98DDE241E19857B4987A20D3F63C1C
:103C70001070FA5F1F30F7CC99F39EE5BC04116811
:103C80001B8273032FCC98AE5F2320CDCA16012C64
:103C9000ED8B8FEC625804B5B340AFF9B515408990
:103CA000EDF62042C24473B340247BD3E0FF6FEBB8
:103CB000980A21B352AF08BF386EB77A6A444054AD
:103CC000117FF84555959D204804AFC2AE8C7CD835
:103CD0000812412248AEF5F396824490D2415CC16D
:103CE0008110FD6765EDBF9B0CBDFF44C05423FEF2
:103CF00093EBD54001EF4ACBFCC8FCCF6EB520F862
:103D000030EFF6BBD0FADFCC989EEE1718C4EAA1CC
:103D10003DD0A944DC5254C9FE3C10DD348401314D
:103D20001389536540492609FDFCC0201810036221
:103D3000B90CD398B4F9E330317490B24073C8121F
:103D4000F7444C54137B9883D7F3030805A0E90488
:103D5000954275D803881409E0E7800290DE40415F
:103D6000D38824D322FE79C97B98050379C5AFA6F1
:103D70004B13EE2CBECBCA7B660E30DD10BC193E59
:103D80004024EFC81242F4F430790B80101C3E81BD
:103D9000208883D35BFA7A98C0C9E2CAF1C5FB5E7A
:103DA000B8BD3C1804E94014A0F949C601C5BBE6FA
:103DB0009730F47A6B78FE7A108807F02038C6F3D3
:103DC00057D35B177998AFD9CC9E982DFD7C83860D
:103DD0004A8E45D3FA84C1203FE0ABB8ED11B9A3B8
:103DE000824B6621FFCC4677AC981395B309A8B3F4
:103DF000BDD7B30269D8A9615F8105300206DDC075
:103E000004EF98012C800576707B2258FB0B6080B4
:103E1000FFEC7071B3C1A62C489E2F30D7F9017BFF
:103E2000584484884F694B03425E92FEF7E1DD10EF
:103E30003034129D75424488E49463733A1068A24A
:103E400001D358A7FDC71B30714CAEFD4999A4E1C1
:103E500044B194B7D105F7B1D736DCC8FE25C230DE
:103E60009CEF19988531DD7F824AA790FA53ACF315
:103E7000AFC4450C082B6FD6A512DC787F0930F350
:103E8000D3830DD0B1F91E36307B881120120192F8
:103E9000F30A3A9EF283BCD55CD7833D6F0122378B
:103EA000B8DADBFCEA05EFFA28FD3BC1CF985EC02B
:103EB00050FAD798203C302C02048102E280811411
:103EC000C8A1FD91E5D1E4900139D5C028406083B7
:103ED000628CBF84F77F42FA8B0C7DD9300AB0FE2A
:103EE00091EB9802338B3034F53CC544B313193A47
:103EF00009A5D11FF1B275B9F0E078013BE03D882A
:103F0000076F568BE2419BB4FBD31512F3986CA557
:103F100015B340C2DB64D74E6E35E7E33D7E023019
:103F2000BC8BD357AF462EC02359DC297E4BDAB267
:103F3000907998AA9C25FC9FC8F84898081365B703
:103F4000B34081ADF3D0B2C8260820CAF398CDF9AA
:103F50007C1F74B31081F8E366DDE51DED8040FC45
:103F6000306AB4AD86BBC8D79820B6A78CFF2BC4E7
:103F700030F3706A168AB34176F533A8A5F9D4B741
:103F800008D830F680EEC68068F8D7C5F450922F76
:103F9000DB068064C8673AB3541001FF7727EAE56F
:103FA000DD2240FBB6C07F4DED08D630AF9C98E6D1
:103FB000EE21F80836C36597A0059BE6B8B9C87826
:103FC000ABBD9DB36FEF2EB5225965C01E500714CF
:103FD000D4764B80F9FBD322BFFACF79FB8C233503
:103FE000C858D50ACE301130023A17B366BD19351C
:103FF000DAAF421CEDB359D5DC6004E00340C8934E
:1040000022F3C624988CF3B05B4AFDFD980166E666
:10401000C8D09AF30FE8E53003A166DC75F5478D4B
:10402000A504E2987DB2C857D3B598E441CA3030B0
:104030006DC60379390310D8FC04EE5BC88DEBD74D
:10404000E5FE98216637CBD5CDD3DBF369FD7F5EE6
:104050004B03CE678BB3ED5EF655032025A6B34820
:10406000C0DBC614F898B728CBC84D36BCED176036
:104070003EEE08303481048F96DAE170199B649922
:10408000B8308420FF90248040134DB4A1057BFC00
:10409000102477B5980C0DA0F06DA8B41558F58FC5
:1040A00080937FDA15A0662C6F2540F529842DE8D2
:1040B000809601804BCBF0FE6DE798B6ED40418BCA
:1040C000E9C8F2C8779F880201B37EFCE16384AC43
:1040D000A40365905C70355081E098119465C8FE2A
:1040E000980D78D3DAB3FDFE7F025BC39719DA052A
:1040F000EEC102F5E32AEF492B99751B9F28DE815B
:1041000086404420E9BB323050B8B2C8EF41981223
:10411000A5229EA8FBE39E20E7981090E5B951A741
:10412000F5410483FD7F8105AA1910D3FD32C840F3
:10413000E030ED0146F32058ED60028CB9D709C795
:104140002608AE5844DD44FB82053004283336C8C7
:10415000E057173082AB64FFCC5F0DBB418630194E
:1041600070EF7FA57A100FE2013C8059C87F1E30A6
:10417000D364E5C811C024A21904D7D6E520FED225
:1041800001E7E0E4B8372DD3627CE55A2A7AD88873
:10419000ED5B15FEE6C88BE5F62897E898A00C9D28
:1041A00077ED0180117B984120AD44DD560AB9F0CE
:1041B00091C059BB7FA89828E66EA8FC5D9514FBBA
:1041C000D8635E0830D7DD5A80A1091187B5FAD0CF
:1041D0005E54C03E50F4A011348254899A60E06865
:1041E000212D7530B408EE3F1A400B0D0CA2D3FF01
:1041F000C9338478305AA086E4D31009F84FE2EB33
:10420000118804C5F1AA79E494CBAD10BDCFD308D1
:10421000B5FCEAB13CC1C0D3F7E988E7C84008144F
:10422000673ACC2410437CC2CC3B507D81AFC61B87
:1042300064CA844F2CA58007EF499360DBD39B0CA5
:10424000E7F97ED96E103AAFB4403D8DE80A034AD3
:1042500010BB113F7522A502085045F1DABE41E2BC
:104260003DF1A58673CA05A0EE4041015EF77A19BB
:10427000BF46A8C549508F5904E059C8838C50A344
:10428000B069D76611737D52FCA750B32240019AE2
:1042900004E00B67B38285A626C1A140B3DC9E2C47
:1042A000A83001D0D3C898CCFF5998603E8B77B620
:1042B000B808049FCC1D3EDFC427A505E857EDE5EF
:1042C0004940E0FEA57F9F989BBB20D2D3F866DBD8
:1042D0006B49267BB6418CF38F45E5316BEA9B58E1
:1042E00049E4015E525E8577BDA51003604079A563
:1042F00017F3E43110C607FA8BB9FFDC7F16CCB593
:1043000012FDC2061FC4E24B40B4D2D3973008A7B7
:104310001123F49120C301260A50BCA5144892C071
:10432000F3B3BDC822DF6004EC8BE8FB2636FFBF89
:10433000043726227FC4C201D86299E3D370FDB24C
:10434000207547016711F3DE3BB3022210BF6440C2
:10435000EC2311286DD398B1FAB394CBB3CEEB7B99
:10436000F824852AB11C76D630F9243E662F1A7BB4
:10437000B3E42BD71B1C6239AAFB3099662CEC5096
:10438000265177F6CCFAA4A0FF47A0FE8E10CE5F90
:10439000B302DE7ACA05E533155ABA0836F938FF92
:1043A000FAB079CEE6B14944E6B3DC77A324E01352
:1043B0000217D1F3A1B1FBBFB3F98C7D71D398B2D1
:1043C000FF0C54F144597F9BEE1F45A62879A19319
:1043D000AC15E0FD061BACFF20E5EFB889ACB310CF
:1043E000B5CE04C1F11180E64430D05E98661AE97A
:1043F000992CEB0404089B55D0FB19FB1513FB7E8D
:10440000FFC702A342DC3DE6B06FC27DDFC6168D5A
:104410000248F688B4C9378BD3F8832B59FEDAB932
:10442000B7800EF4C63FDE02649B6E79977ECCFCAB
:10443000DBE1F038BA2540AFD65D98C6AFD7D81EBD
:1044400025F96AF3BC11AF89F1D1C8B9FFFAA04AC6
:10445000B9122FA0411C65BFC1F1780246B10C14FE
:10446000B50308A61460C46AB33AC7145441F509E9
:10447000E919043084FB40255C44DB436291CEB6ED
:10448000C64729ECA480846B9021F0C4D980940E97
:104490004C30F80A030467FF20B0FF151CFAA9D9B5
:1044A00044807F7662DEA59B01494124D659F35DA5
:1044B000F8B1FB5F33EAFA70BC31C50CA29F350E30
:1044C000EBFE1F37D723A09F6FB3309B7880FF731D
:1044D000F60FFECC6C97FF68E2CD581E20EBD8B8E3
:1044E000F962C6C129B7E375B16DEEDBF0FC21209E
:1044F00004848010F4F542000AD3A6A1D390FCC630
:104500007FDE8061112595DBE3FE0BBFE724630EA0
:104510000FF8F90A977E08766444DC70619D42BB0F
:104520006C4AC3193B96260249F39FBB49400FFFD3
:1045300032D880FFC123FB31D8FD2C40C2DFBB8EB7
:10454000EC2B960A28F9C535170162CBB488626254
:10455000DBFF53C67EEC37F0FF9CB0A08BDBEB0497
:1045600040234DC057B8809768B69254F814AC26D3
:104570000879D8FE018243FF98FF6182CC80C67A19
:1045800017C2CE58C920CFB6C518F91571339EBCD5
:1045900036DB044B9EC8FC61521F408835BFCA6C95
:1045A000620220854F88843F32B104751410B29B9B
:1045B00008FF6CA6A0FB21F6E82080D4F5C75BD5E8
:1045C00008FD43531F587308C1B3BFB67F60FA1A82
:1045D0007A4F80CE5CB340EBB1FA9FAE07B1383F63
:1045E00057FB0159BD8B59214E6ECAF80233E29632
:1045F0004E805B7440106A95B9089302B5045BCE97
:1046000081ADA1081AC638FC3DE8D4906EE543E8B8
:10461000862046CAAB82082BF4B711E9B720E0CA5E
:1046200096024E7A0108ACFA0BE6018D80501DED22
:10463000DE2809FF7038A64A0166BB14D4CA5EABF7
:10464000EACE400894158030129446B7130583E4EF
:1046500060B8A081340AD3E029B4202890FCA0C51A
:1046600029A4D54649A9C0F7CF0C05F15002413421
:10467000ED0C5A657D15EC2530980F448A100C73AB
:10468000BC2D01D2203844500E400B30B991C8F2F5
:104690008D04F901BFED64103C1DDFECCC63D63E08
:1046A00008ABF610739ADBCE88FE65CA04DFB07FD4
:1046B000D7F983337E98658A664082DD0AF4F70471
:1046C000DAF01178FFA164C6A6EC08B8FF7BCD290B
:1046D000C5B3CABA6B02CCFD0240B24AFDC26EBF7E
:1046E00068C2E933CF0217F1B1FBA330F86EA16CB9
:1046F00090BC01CCCF311CB58C21A244F9D9D50294
:10470000627DF6B50258778145CB5EB81D3119FC44
:10471000C06841B710587FA8A6DF96F80802F64097
:1047200020E7B405F2BAF30127E5C9B0AF5E641A19
:10473000613EF20F018098FF56BDA06DD801D7DB16
:1047400080E7BEB0FA6FE68A516898B46EE46E56A0
:104750004B4C087FB7666D3F34F98CC07FCD94D643
:10476000FF122F96C829B5E3B62AAB6C101DCDF603
:104770000193BDBDC0FB85B9D5B140AF58E5F94E39
:10478000B96FF6DB2FDDD938F896D2B7205831084B
:10479000A0A276C9F702AB67FF14A8FE6429F460F3
:1047A000B60167986AFF99420DD3A0FD9FAB7606CC
:1047B00019ED7960AAE4C097FC0CF62220DCC78CC6
:1047C00019DFD17F90E68CB66620484A7184DDB847
:1047D000086AEA652FB31258E406D72DD9097D8FF0
:1047E000A34B66C0D75C101A4F99862AB3182DEADE
:1047F000B5B631F33466E006AA19035C922090B98D
:10480000F0F1786AEAB2FEFECCC78DFFD65003CB3A
:10481000F3C05FBD45ACFA662DD64496194026A676
:10482000DB804489B3193C66ACB3C8A36618F19821
:10483000A6669FEAE798ACD402844FECB06689FF85
:104840000C79FAE64A2683BD404990B3FF3CB8C5CF
:104850007D98086FD6C75FAC9808CF7698E9F804C2
:104860006196BFAC9F447BD9092084A4667B9822C3
:10487000F965B6B38009EB35421B5F088BE99830C8
:10488000C30E44C8F6984AFACCF5B841BF9898C907
:10489000B6BFAC983CCF6C98F8FBDFB104EEB21712
:1048A000FD9830667AE5F1CD37B3FD4E608CED387A
:1048B000BF9998ADB338FC847E98B50A5BF8259E05
:1048C000501966FAD5C8C35CBF7BECEDEE6C30F0D6
:1048D000FB57D6981827BD67620193EC3742015603
:1048E0006F2C30F9577B0B608012D6162148C9F522
:1048F00094809DCD3018FC9846B749F5981489F6F8
:104900006405DCEDFF5A980AFA9808D1B3FF66787F
:1049100098B539586E789A19E2C96C500160EF6CFD
:1049200098C8FC57D6986029C6CA575948FEE5D89A
:10493000F0FFB7AC98414BFBCC81442419CFF64B28
:10494000D0F9CBE5E5A0BB190804625CCAB5A45D4B
:104950006640D6B18B3818239B5DBCFB311A0165CC
:104960009926FC30B786DB4911EF8C8060FD65E944
:10497000AFB91918F3FECBCF0437963091E6194240
:104980006D04CB33267CC5CA33F2B9306A6CB37F71
:10499000196A59C8B1442FECCC8421B605B008CBB4
:1049A000FD7F6292B3A5784B408A723012D5F8E948
:1049B0006DF57FF481F577AE98205AC610198D44B5
:1049C00019B6B30156290267808165FD7F9DED9878
:1049D00071FC97F2FDD3DF37C824ADF9094D217D75
:1049E000D782B2457830CF47B3F8657DE7FC30DE3B
:1049F0004602F3B1202E6CFF10088D68AF250287A8
:104A00006CEE228F4B6BE0B30AD6FF4027CB2B40D6
:104A1000469378FFCBF2980B19071192C96A21B51A
:104A20000AFDC4E593FBCC04DB16C0808D1916D3B8
:104A3000D84E5CC83D9644B3AB83042BFB7F440146
:104A400037F77F5071C9BBDE40016819B7FA1AB356
:104A5000A02136D35873609F363089315A6630D9D9
:104A6000D102671F19E698EB83782FD6ED40FC1032
:104A7000642BF007C79833F04072D320D17FFC66D7
:104A8000FDA2BA6610CBE38438190B436631461891
:104A9000B3FA7C98DFD6F30126B3B3290D19BE7F94
:104AA000D1E150B3FDFC98D4F358B991FF93EA9843
:104AB0008059F4217C30D8ACF9DF9BAE9B6E98EA2C
:104AC000DE6CB7FAFF0A98D418CA16762C67CB7F2B
:104AD00019CCFDCCAFC859E5086B3D84757B0489C2
:104AE000116696BAEF01CFE63073FDC9E530249523
:104AF000DB170213FD7F8590669C4CE430421DC09D
:104B000008C6C68D8609FA9FE798F4B1B40C5B1904
:104B100005F1759FEB980F3F9D3050FC049FDB3AE9
:104B2000022FEC95574C8F4B9B7D91FF3FCC986F9C
:104B3000F6502935C03058BFA99842FBB0B3103E9B
:104B40007FB2A8CBF098A236F59801EBCCFD1A4BBA
:104B500077307E2C21CF5946208BF2FC2FE47FD377
:104B600072FDDF809C583CB999FE9864E6C802D378
:104B70006C968F5D9868F6C9E7192CE834E5BC821D
:104B8000B66CC890DF3D987E92B2FF7C98D3D60178
:104B90001687F3EA2222CCD215D3E627CB98FEF96A
:104BA0002216C002F5C68CFFAEB2F85619404FAFC0
:104BB0009878FBA83966600193E398B93C36D3F244
:104BC0009E98DC0F045184F9CF5AD602F1308E9FA3
:104BD000FFEBE5065F3DE589C9B2FE5489421964E1
:104BE000180C9ABE44D819C49BB3F0FF16F598442C
:104BF000DF9F6736B4A040C519E19B5DDB38D099D3
:104C0000DC6802D35E6DD8B8FA579BC9803BECECE8
:104C1000BE6C7C48FBBD6D7C80819316404604676A
:104C2000F0310BE27F5E9879166B91803710033B71
:104C3000A358FF082C858C429F59F230DA15D9A869
:104C4000280BD50163CE7593D093E2E5C0F5694694
:104C5000AF33232C04B306B502DB7B56C60C05D854
:104C60006668982C938FE179A1148C8211F4D97025
:104C7000F85B4965F998FC50B507F50F03AF6DDB9C
:104C800041BF7F485E987E5AC897D30D1648FF1BD8
:104C90005E99335E98BB20F60580AB76D8555E8C66
:104CA00091C60467257D0C2C2C95FEDEB7B173F3FD
:104CB000020C08D320B304350704B6495A1920B7AB
:104CC000B380482FA62458B3D8B69915BF392CB352
:104CD0002173FFBCFF20CF80772EBC40EB0438F35C
:104CE000CEFD32288DA5D380198243FF98FF6366DD
:104CF0009371D18E3639A3FC092D6689FE90A06B85
:104D0000B6C3EBF3201135D032D3BA545BD37E5403
:104D1000F0C9E33073B1CCF3AD33D0FABCDC245B23
:104D2000B171BB3BE6B9FA20047FAFCCB17FEFB2E3
:104D3000F778C5C79BD750FB0A793A40623E2D658C
:104D4000EC22B0664730FF8C196D82204D10D67969
:104D50004026D8B130A319733C1E2DDC3FF18C3CAA
:104D60001212190119C39ED96404DF2096D8665720
:104D70002CE480AF2F5533BAD4FF40DDB602F005E6
:104D8000161167B6C3D0F94AB340C9D148F67F9926
:104D90002AEDB30180EDD05002DA64B20D93B36016
:104DA00019FB717DB752DEBC608DF28CAE4F372B94
:104DB0005AEB4A402240E1DED76432B129FBF3C20C
:104DC000C1FFC96C9367B79280FF9B2D821C64F270
:104DD000ED20C60DAF7ECCD0C8DDA9E0B1F855D02E
:104DE00040E602163049D8FA18B9B285EBFFD8056B
:104DF0003EB0647F37B3FDAA18A3F148FA60F066AD
:104E0000B18073E63F96CA2057AC79012333180D61
:104E100066FC98C77DDD08B02081A5B0B1F9E5DE5C
:104E200081851E88D840FB53F6E23FBB8BFF1FEA0B
:104E3000FF322078E1C6B509FCB1FADCD8D32053A3
:104E4000ADF128FD85BAB3B10295B3A883276CB143
:104E500008632C335D33FB63BBA8667D8F8E7A932A
:104E6000F0C7561902BDF11D9DE6D026A3B0FE88FD
:104E7000413B5059ECBCB28BBEFFF6DEC0FACB5CB6
:104E80002C40DB6146ADA6808DF5BAFEC28EB132F4
:104E9000F6FFDCFFC6F88EC2C6ABD0FBC70C6C2B8E
:104EA000F5E050C6661476CE20CFFAC837ED05C5BA
:104EB000FC621DE0A3417C5FB079ADA110DB98FDE1
:104EC0008C2EE8108E2FB22ED5DF01B308C454E02B
:104ED000B79A1606CEE602AD6F9CFEA3E401024A25
:104EE0004C404CB905D92254D4A101B3D066260058
:104EF00008E028D94E0226D6FB602237CE76B310C2
:104F000088F8C497669D08BF218020BE06355917D2
:104F100008EB2BA1507B27E00916CE9022C7A058A2
:104F2000007A42100CC746A9B2FF8C012C59FF022F
:104F3000DECED9F8FF29B810E7A341E31937A6F967
:104F4000CC786B987E228D14198839EC98FE10214C
:104F50005A660198B5EEF6C2E4F82CC56A3CB51065
:104F6000582D089F999F47D66DE38A8BB7BB0C1BC2
:104F7000FF88FE15584790206A1540CF59A640DF9C
:104F8000AF61A6ACAF025BEC75C58101BFC266D94B
:104F9000D8FD2674627F04C235A2809241D828FED3
:104FA000B7583F65AB15FD062CBCC8FFC2DDEC2D24
:104FB000D8FF1A966608BFC0B204FD7880626FD42D
:104FC000C8F820096BCCAC1060A4FAF3122DC00213
:104FD000739F68013BF345043FF9698804B8C0D06A
:104FE00048F84020610289971077144292CD4023FF
:104FF000F90CCEB9F0F880DD9A627709F6BCB3B04F
:105000004087BDB0604004719D6D64646544B386A3
:10501000849BCDFB604F4C780664720F0380010CBB
:1050200034F5E0F14384FD81018BF278018594D35E
:10503000D93A0A1447F347273B7AFE8045DEDE9AC9
:1050400008136888F9E84039F318101364F8A0ECE5
:10505000093020FEFD81310406C40229F809D4116B
:10506000CE0220AE081A3394C8A0C6C028FB78B37D
:1050700090C0F13E204C90053082D6981108C01B9C
:10508000D81114D55C012BC2635DF1041082C0C736
:105090009CF029CEA228DAF9E03CCF1CC8021809FE
:1050A0000FF39F394030801EC0C003783D4A813CD9
:1050B000089DF0D63E3DA007F08001E022D399D3B1
:1050C0000C6681F01EC2D0834AF341FE32FA80D0D2
:1050D000B38BE3E6B9F331F4F304A6F33E0130CF2A
:1050E000256AED06C4CFE0BB082DE385C6D3A2B385
:1050F00051D3DD8F0413012FB30543C058E78B2034
:1051000004E04930B2087E286B05159E0030224627
:1051100040BF7F13C10201DD9045FF7F0499021259
:105120004CA18411EDFC78FD3F9C48830208E460AB
:10513000014DF38BE6D0F8409A442368068849DC99
:1051400066F7F7C415CD3B7A2401F3F762FB6002E2
:1051500081A049F5AC1BCD4012C22CCC57ACFC4B06
:10516000816FD20E60B501D780AF5E02BC686B471D
:105170004D7B2967D5C8FF06C3E25C02ED9760DA74
:105180001EB54DF20121200CFBBD1AFB7FE6CC3091
:10519000EEC00C70D7FB829198B229DC41F981B442
:1051A0003817993E3C1107775DEFCBC02CF88BED9B
:1051B000E87FAEEF1F92E48002504014346CF7A0F9
:1051C000F80411FD7EDDBE2563C80C89E6982E210A
:1051D0006081BD983468B38269F7C077B7EF4B89B7
:1051E000C280196B210A4BD9EBD9FED340440B691D
:1051F0008943BA7BD1FC045276BE98EF05C5081EE0
:10520000B090F24438041002CBCD9876DDD3FE5D29
:105210008E477CCF65FAB018CC191361DF2504994D
:105220008282D3DD0A44F361B249D1FEE01377BE36
:105230001E88BB03C59826FEC55E984D9E810C95C1
:10524000AFAB4A84F40D37FA3CFDE91AE0FA983026
:10525000F5D34017F3A24BFD3FAD247C988D397EEA
:1052600072FF3298F54C0800B70A57E003DA52EFA4
:10527000241808DA036134EB29FECD6EB3F4888478
:105280002130F3F2284810033BBC78DDB3047EA044
:10529000B019510619E3EDC002E3048880AE2FF285
:1052A000D76123F49F8445A9D2F9207906EFE97FDD
:1052B000200A95904A6CD0F7DE136408C20CA06BEC
:1052C000EBE540DE7D0E2319667BFA2481265EFD28
:1052D000A74DA25104127BE342485E98AE8D1B306D
:1052E0004AFCF880CCCAF5E10A395C5D5DC464A66D
:1052F000B35CB3775715DE80022D19BC616BB10129
:10530000F57382CD30B8FBAE6CA504A6B21888BF89
:105310009F0F2DF77D98587BFA4D778C1B6DD72CFE
:1053200054D518F96BDE2A900250BABDE7F3F9881C
:1053300009DA0280679E62404B9901BC98174103CD
:105340006877ED723478D4F7C0416F51CCFF0135E6
:1053500042769F715E2C8089EF099641F7136A208F
:10536000847330D2FD1690FFD76A189132CD71390F
:10537000799800A2DF8420F72D8B66239EB3E70B7C
:10538000FF04BF7F40689F3B250290FC981F090ADD
:1053900044F522800151EA7CF8F5DF8030AA1EC472
:1053A000757910E490F39BF2F3C8BF22282C63AF09
:1053B000813207EB090F02C098BFAB49ECF98F3C73
:1053C00098F39A6FFF843FB6F5FC83A762770A06CD
:1053D000027970FB1C658AB37D2D76B536FB7F8D17
:1053E00096BC8B895FEA797EE2E31027B3216012D5
:1053F00044F6B3F6C004180558B3DFEA13FAAA203E
:1054000040B1B06BEFE502089080AFA0FFF5041942
:10541000050362840C01762A50B830FCD3AD1AE043
:1054200081015D71FC1240C1021B61D6F301ADDC4C
:10543000B088B3A971E7ABE0815C30BF16D0836858
:10544000F68D24998FF192409308D1C67AE5FED566
:10545000D01844B3A9BF81AFF1CBE87E2530FF223D
:105460003EFC427760BB0ADB85305AA9E56D417D81
:1054700027A3C690FB6426B370FD64ED4DF9E0CE22
:1054800008CEF388413CC9D8981D2977A917D31EA7
:1054900030362FBFE2917505140881E73EFF1CFEF0
:1054A00080DA09028DB3468C1F0C90C874136CA966
:1054B0006DC230A5E7795D77A6BFFF8F302E463BE2
:1054C0007FC9FBE69A3EE040010C289AEC5AF83F6F
:1054D000F1E2ECA7DF2C84058730467661C8A0D7BF
:1054E00084CB5FEE256659F7672BCF11F130C1C72A
:1054F0004EB30890EF84EC50C35654FE592EDFE0B3
:1055000081FD490608DEA55C30EB8007322EC8E13C
:1055100023B66FFB0288BD358DEEA20D06E530F097
:10552000FE98BF20C0A57DF0401ED00329F362F491
:10553000E8AFFBB4C6C8F52FCDC830A76F0A83E12A
:1055400023992D5B7418DBEE79E25D217B32D3B7B2
:1055500041E143F37325D9F977ED2C469B7E849185
:10556000DDB348100B7E9588DFD24B02FFEFEB9541
:105570002801B5640596D59E98DE8409B3FD980888
:105580001261044CCE8AA8F9309B802201F5AF0449
:10559000E021A0052E1E5DE0600B6471CEA001111C
:1055A0006EEBB3489E7503A82308ECDAC8027703B4
:1055B0008980AE21033008BB0232C80DF396F5F89E
:1055C000E53BEBC50841F7466BC6505F7CB108135D
:1055D000A8BB077998E3ECE004BC84468FD8E2309E
:1055E0006EF3E8FA5EEF05B03DE80C8040FF8C9B5F
:1055F0001C57784EBDB1D0707FFD7F4913AA33FE92
:10560000986C90B8C8E38B272EC83B56F5328CCAED
:1056100030142019B45B8810F50880851A83A768B8
:10562000DB4130A07855D3234AE15F03DB8D83E56E
:10563000C833EC20A0CA112956470B91690F93EC8F
:10564000EAFEDE14305585580BCB022230F5CF2010
:1056500026D5FA84836600F5C7B0EF604B438A48CD
:10566000B604CAC84DDB2818A0DE9839C60A40C661
:105670000680B3CFFD6FC730736AE401AF392EC522
:105680006EC7031A34ACEBB15713420F8ABF042D17
:10569000C84E19D5D920DE98E4C8037AC6A5F30808
:1056A000FBE1E31DF5FC9A3B88F3984EBC17814162
:1056B000F36AB37EAEDA0A32EDBA1FD785EAA913D0
:1056C000D0DD69FADF8089C93A18E24096340531A5
:1056D000E05DD1BF219630B082CF3A8BFB77602A54
:1056E0009BA02E524038AEB31F036182BF2C76FFC1
:1056F000F8F9C8C91068DF9124F3F781A60B45BA01
:10570000C130426AB34F5E06626ABBAC20DAC8465B
:10571000FF7F0D2076B8CED04092D8204C1D2CB003
:10572000097230F8C8DDB0221D5FDDDEC4207FEFD6
:1057300042107879079EB30AEE50372AE2CACBC8E6
:105740007EBF9D86F742020ADA3C6DDBC8F97FEE28
:10575000062BD06F04F178648A1CBEF98D197F7F07
:10576000507BFA2733A5AAB32C1A7092B49F1093DA
:10577000BC148E512E1661BC68FB242616F8F64226
:10578000041320508C62111FDF44041A408C03BDA7
:10579000E549BF34A52DDBFC05E80F7330B3566730
:1057A0005FC8B6769C303D085A080A7FDF80052026
:1057B000F342FD8409FCC3C80538182C04E9D1C0A4
:1057C00044455828B3E70B52667EC955277ABF80F7
:1057D00091DB28C8036EE8802D5FAFF383AB504B9D
:1057E0000BFCC3309EF3C08278B8304EF6F3F14024
:1057F000B7B37823A42E346D3DC96605E502300B9E
:10580000E0BE7DC8100FE801DE981572307989C6B8
:1058100091983666419E98920409C3F47DC2064170
:10582000FFA791E5801FB3E2E9FCD72CC89E6D303D
:1058300080601AD349FAE330FD9801FA036414201A
:105840009077D742E0809BD3E5C8AF8C469313FB9B
:10585000AA883042464FFCCC040884111062DB2435
:10586000982C0360E98C8420B9FE5BF2442FCFFDB5
:105870000860442DA20129E290F30BAE09F1D48116
:1058800004809EB32964B043E1DD53672F22985909
:105890002F5477988089047103733068015AC23B92
:1058A000C5E8FF7EBD83534076D113FBC80C842C22
:1058B000B766475F1377C73247D696E09B8F74F37E
:1058C000740C4DF3D0F81FCAFA1CC4E14945B80165
:1058D000DBB4959DD30F4001AA1612FEFB7E215525
:1058E0001B77B830D34E4DFB4D8FE3D2D7EADE2F76
:1058F0007F6F980C88EDB1986D4902D94F63C0084D
:105900001850C103605F35B4B0DD916AEFFA0955F4
:1059100017E75F7BE9420614F3233AE080B0E230F8
:10592000D0EF534086140DCCD6C8FD0E043008B518
:105930006258060B9BEF0848FC98577A3CBD2048FC
:105940000901BC8D66F77347D50BAE7F1524E8A21D
:1059500062B3B2C8B80DBEFF0718010A40AB53EBE3
:1059600018FAD7E0408CC5F71E3765D5FC23ACF19B
:1059700082C8BC8B6C193CAFF4CC131D0BD84BD335
:10598000F1BDEF79AC10BFD5CF98E230EA814AB3D0
:10599000FDAEFB30F813FFB4C2F5C504FB2C5C234D
:1059A00065F9E56900C7D3F110DC507F293020E6A6
:1059B0006269FFBA38FB8021AE3091CAC053B38808
:1059C00084A6904844144846D36E5FB309F69FDB23
:1059D000917EFBE34106D1B93762AD11D725901610
:1059E00030AEF323EBB19CE4F9A085DDF826A702E5
:1059F00079127B3E1210FFC18858480B602100F6D7
:105A000028093402E7666B900BEF1167C846C4851E
:105A10004440C32061EE818805F598427898D6C24B
:105A2000498BA274F3C8065BC9699B2E812BBADE31
:105A300040103CA0FFF72D154AFF5E2D1DB219083E
:105A4000BCAED54C41D74004CE70C9FE809B6E07DA
:105A500030CE59EA51F8C96ECDC8707AC5815E382A
:105A6000B29432A9E1FB0AC55BAB08B3C8F07E8DE6
:105A7000AF9FC4BFBA9860200BF9F435A3FAD7F6EC
:105A80004976FD62409E5B83D01A0A53B95DA0DB64
:105A900009907512DB89FF86CD6CEF080431C27B5B
:105AA00066100929C5262043BEBF1398427C0848CA
:105AB0005241B39F321BC142180339B0144C7FEEE0
:105AC000B12046EC5888D70E2CC6BFB4022E661FF4
:105AD0004C978D1BAE08BB9035C818A3E0B8802248
