:100000000C9458290C9477290C9477290C9477290F
:100010000C9477290C94C52B0C9477290C94772990
:100020000C9477290C9477290C94742B0C947729D1
:100030000C9477290C9477290C9477290C947729C0
:100040000C9477290C9477290C9477290C947729B0
:100050000C9477290C9477290C9477290C947729A0
:100060000C9477290C9477290C9477290C94772990
:100070000C9477290C9477290C9477290C94772980
:100080000C9477290C9477290C9477297F7F7E7FB5
:100090007F7F7F7F7F7F7F7F7F7F7B7F7F7F7D7F76
:1000A0007F7F7F7F7F7F070007047F7F7F7F7F7F4A
:1000B000077F7F7F7F7F057F047F7F7F7F7F7F7FBD
:1000C0000F7F0E7F067F0D7F0C7F7F7F7F7F1F7FDF
:1000D000177F167F157F1C7F147F7F7F7F7F007FB8
:1000E000277F1E7F257F1D7F247F7F7F7F7F187F57
:1000F000207F217F267F227F237F7F7F7F7F7F7FDF
:10010000107F197F1A7F1B7F137F7F7F7F7F0818E7
:10011000117F127F0A7F037F0B7F7F7F7F7F081015
:10012000081F097F080F027F08197F7F7F7F7F7F6D
:1001300008027F7F081308117F7F7F7F070C087FED
:10014000017F080B7F7F08077F7F7F7F7F7F080706
:100150007F7F7F7F7F7F7F7F07037F7F7F7F047F1E
:100160007F7F1C7F1B7F7F7F7F7F7F7F037F0810C8
:100170000C7F247F237F137F7A7F7F7F7C7F081112
:10018000147F081908200B7F7F7F7F7F7F7F7F7F11
:100190007F7F7F7F7F7F7F7F7F7F7F7F7F7F081550
:1001A0007F7F072408057F7F7F7F7F7F080D070BF8
:1001B00007237F7F0713071B7A7F7F7F7F7F7F7FE8
:1001C000071C7F7F7F7F07147F7F7F7FFF1F627FFA
:1001D000C23C006088FFFFA0089001324006C8C6FC
:1001E0000019FF03050A4414812241CF068AF32037
:1001F0000365FBA00C94290034FF7FED813250068B
:10020000CA54DA192827E033C688009E98D3648040
:100210000C7FB9D8FD0015E002FC5C800B70012E4C
:100220003C04683F2AA002F433F350F3C0CC05A885
:10023000E6A03672B3127CE054800AD03D2A40A278
:10024000E054E4D374F3D3B80017B96084F8C590D0
:10025000FF1031024099E8EA401008310120B6044D
:10026000808BE00829E4D880F9C121FF9898FFFC31
:10027000201B048296980188ED80E5FC008B703687
:10028000667BCFA010F1148242D07F0A4021280063
:1002900005F4A02515205321FF500A51CD66FD36E7
:1002A000C021B61236142EB5F34DF221202CF408DD
:1002B000832172E15A8952261406FD10F3EB87B6AA
:1002C0008884C8B2FB0D8BD4C604688608C7972BF8
:1002D0008C19A56BEE7024B3CC587A20F1B3E68369
:1002E0003EB380306C6A837CB35913FF15D9E0FCB0
:1002F0002BF3207F25ECFC018F2CB381F5EE389495
:10030000B36BFED9C0225804030B841E3FB3F6F32F
:1003100006536178FF642DF4187F65F0071E502C9A
:10032000F378B46B9008F67F0759ED9266B760FBDF
:10033000D91F37B65937064DEF18FE92F3B6014E66
:100340003F18892008C790B40C19CDB368FF8B798A
:10035000988C7D7FB79957EDE7B4FE8F7998B97A7D
:10036000B9778C2C9AF923F59808B14C8DFB4B800A
:10037000F8B308CBE2CE9831C8767FC004C57FFDC4
:100380009B652D66419DD35808038D2D31420CF994
:10039000FED6FEB1D9E3DEEFF2F0201E40F3C63BFD
:1003A000B1F068F9620D9068F89E3163FE98B1C0B3
:1003B00066E7E3FDC9F54B2193E1982C4160B3D189
:1003C0004B4C67B719D8FA7E7A06CCFBFBFC98C673
:1003D0001B66904813F49804D9CCF93EC1B720F3BA
:1003E000980D1B1950FB219B70B710F198196102F1
:1003F000B30CCFEFA1D0FF046FBD836801BF889815
:100400004EB62030B3B18231B3B7C478FB6E20DA78
:100410006001B4D3241866B11485B344A6ACFC01C2
:10042000DEF7C712E8F87E7F013B378430D1B1B0E8
:10043000EF59980DAAE93CE5CA0891EBE54027D6AB
:10044000986033F7CC7DE989772D48FD7FD1DA6656
:1004500092C0B140D519028AB6B3F0FF4EAD022268
:1004600015F9D0FE7F13080CC6399688627E9881F4
:1004700034FCB1F85FD8052189BA8F7B7948F964DB
:10048000E5BCBFB6F206C035EB988046D80C02CE6C
:100490006C4EA8FE9EB70B72E24244A0CDC60D661C
:1004A00000D8B3FFCCBB657D7FB3B3085896046614
:1004B00033DB170813F74BB008A1BFF9CC98BC8306
:1004C000C820D804C0D7B698B02027F97F3CE7BF32
:1004D000F8ECDCBF22E5B631669EB1B141E519BD4D
:1004E00063194669EB4B4472B30AA3C2EE9D171918
:1004F000C0FDCD19220195C23012C779300262BC0D
:1005000030D940F91A3E661826CF9898B7EF1718D9
:100510005A19051B6E9139A38D789876261981306A
:1005200078D2FC08E214F64D6841DBA6A938A00594
:10053000128FF8981672B3828D66F930126C669637
:1005400058F4359B7B4814F87F1B28FE7E10305AE8
:10055000DB7F7F1EC45E8B62E8B3700C53DD9808AE
:1005600038FCE67E67177DAC4E836756AA802AE585
:10057000EC10B9FF9FB7854A1918EEDB3C17FBCC8E
:1005800014E9B1FFD9A8F819C8D908211E98B1807B
:100590009F589810A319B4089694B308C8FF201B5D
:1005A000B8FDCC9BEED8D1C4D9C9AF9998A9431C4A
:1005B0004EB9FAE31679B2BF168AAC15A06BACF14E
:1005C0005350FC343683FF4F6DB804956698FB2674
:1005D0000218F598048A7F7F02C1B3FDF2C8C7FDF7
:1005E0009830B1404F76981098FE86E75ED778181D
:1005F00030DE6CC840579B30C3FC27F613204219ED
:100600005158EC5DBD498008717DBBBA08016FE2AD
:1006100098FC58F3B1B4B2E488CE46660164AC19D4
:1006200020A573218FF22304CEF72808D0FA69F6AB
:100630007F58398AD88CA57B96300B68E9F609D0AB
:10064000F904FDB1DB201465C96C49B1AFEF3398F3
:10065000DEDF0568FA04DF4B626D71F562232CF969
:100660007B56624668B2EEC2A0FB5AF907F187BF1B
:10067000BB98C0831818401930628E190828FE2BC9
:100680009666045E92FBA903031FF3983FFD7F105B
:1006900050FB88F5B1EBB3411EE530489E4FBF9843
:1006A000D49826152CA7FF0898C57C98D336538C70
:1006B000ABF11A51D775BD2C660678C63657A89887
:1006C0000152C572E0D01ADD94186E66BF8094CADC
:1006D00007B0B3C07C98B4ECC734FC594183B34E27
:1006E00038B2FE36490514B1EADE98B220CD268C28
:1006F0007396668102CD77B30213FDA7E101ED0881
:10070000430191EC980103AEE5BCE781CFE690C0D0
:1007100010D412CC1B11C239C566D57BA503186451
:10072000E6C883B930E0B781F91F5464ADC8B0168C
:10073000F403AABB063463F698F0FFC8F4A540B2F0
:10074000C04FF30A9CD5B3506525B3C07C8977B000
:100750003010B2D34CB3EF2398B375CF028F713002
:10076000EB8DFB1DE39873B3085CFFF8FB20DFCF34
:1007700080978879969CF36718D1E2D3985819240A
:100780000DFFB32882426690C516660119B46688CB
:10079000FEAD6FE71E9A9378FD64AF636666795984
:1007A0007E7FFE88CFCBF3EB53CECCDE7C6059BE90
:1007B000ED9710F8897CF9261A7FCCB8FF6FE6AF69
:1007C000142CFF104FC784ACC8FD6097E6E51E2CC3
:1007D000C001BFB032C5B32062EB66FD156CDB20F3
:1007E000087CABCFFE99B0FBCDFBA77DB064C50CF8
:1007F00010B3FECC407D1B40652CF11196F4A9F995
:10080000C4348A0520DDF4631E5565EEE402C96C2C
:1008100028C0FD95D820AAEA80EF314B6F9BD7CC3A
:10082000302BF637264FF6BD8CF923E16F1FD6B17A
:100830002E65B510599614CD0028FB8FFD08891838
:1008400092A2E5B8DBEC7FCF30E9CB877C9E39FC08
:1008500060FDD6B13EB363FFC7610FBB2F18FD101B
:10086000048666CCFBC0A2FCCC80061EF61718C31B
:100870001266EB4415F34B07CFB1CC8EADB2B14944
:1008800043E20D722EC4F5E240619AB3C8C12FCC89
:10089000E50AE5B304866DB3D8FB97A6D4FF062C12
:1008A000F3316CB380FF57F63F2018B6B3DCFD2B55
:1008B000A0301822F66480E5FC408FFA3706CF6C32
:1008C0007EF9FCAEB0D9FBF632FE0A5EE55988B27D
:1008D00040171940E57B9FA6103BEBB9780CB97D1A
:1008E0000262ADABB8F9863F46B1205F6627F0FBE8
:1008F0003308CD2F8D9837EB22760417731A088CA6
:10090000DAFF20A99D038F0168EA838044030A402F
:10091000B1018DB14837130428E06BEC4B4811ED61
:10092000E308A804DFB463F705A3A0A4145AB50A2A
:10093000ADF781506E062F6041B354B2F9D6D7019E
:1009400015E9A7B120B77684C8F8FE4022B7373D35
:10095000DBAA806127E32B08A3B1DBF740FCCDF7CE
:100960004C143DF64B4CFFCF374916F2851617B4A1
:1009700098986E78B12005B3FF865BFB62B9B2C66A
:1009800008FE617F2CCBC05BFB0618FB0613190F1A
:10099000F5622061F3B3B8FD60FB9B7B100AF74959
:1009A0000161BE98FC3C3419A049FB5C12F0402068
:1009B000042292F60A03D608098DE2F8F9859E040E
:1009C000B20176F33BB3C302657A4BFCC303B3D0E9
:1009D0007211260EFB0CD79655188DE238FF858BC9
:1009E000B3518D2A7900047642077736A0680A9EB3
:1009F00057B0FEB1B32177696408AF64A702BF3076
:100A0000094673EA0B60B40130E2B3F7CCE035CAB3
:100A1000F020DB1478BF8A3CE9800702A3832DF322
:100A200039FEF86187DFCCC8CA610E0166067EAD6B
:100A300027601BE288FA0B3DB5914AFCD06EFC2280
:100A400068CCDE340A166DFA4003775BF02C663012
:100A500057FF44F980012240B10E80F4661003B2C2
:100A60000476AC62FC23DDEA0CAAF806CBCB8A380C
:100A7000EF05F918D6F8B4B67735C0E55580367F5E
:100A80000A604EEF3A02FA7FDB490C79CA4049A16D
:100A900005A66664981D19FB7D6C85BA2DA6C0BAA3
:100AA000236074668011B728C4F36EFD2C6BE78950
:100AB000F8D6D2101633B3F080B003FB791009E0FA
:100AC00081C81EF36E680F75AB98F804E6D2169FC6
:100AD00066E4A5662DBC7C98D7F888FAFE0C2F5CDE
:100AE000B3D0C05E986CB3BC40B3FED8171061AEF3
:100AF0002144024057F7A59884B0E3660E015E9842
:100B00006FB2E30EC2D5FF81B79BD8FD2F37FF68C8
:100B1000FAF58E856BB7308F82F59808FBE38180FC
:100B200060BD207288D8FC0C56B7B5506BF8110C1C
:100B3000C99864467869BDFE711AB9FD531661679C
:100B40000030FF18091364040A80918030BECCEF96
:100B50006E8B020C5DB210D517C66A128BB326F9E4
:100B6000301E5C300E091E0138BC98D397300FE65A
:100B70002EFF85190684EB19406F5D9861E598F6A4
:100B8000C2BC307FF0D3D1FB1856B3B410F69885B1
:100B900023FF5A9830FB9860127AB3D0C29D37AFCA
:100BA000E7C1424A40395E2248B1BF05C698EB0909
:100BB000B4A8BF72F4616E6DC88117AD0403C3673A
:100BC0002CE2882C5A666076F91E0E021AD7CE984F
:100BD000FBBC6ED861B059BD492044FFC8E3820810
:100BE0001134F6982601F3E94ECBEF3B660BFC027D
:100BF000607614770B64017A9842E166F385404C85
:100C00009E02E50A31FCC2F219F59812D9C8DB0B35
:100C1000E0FB981810AD0E8BE92861686606AD669A
:100C2000036295E398660C724BDBC2DD5E1550B330
:100C3000BB088130A3B36DDEE308B3B0E0BFDE983C
:100C4000061002423C40EDF82101383023BC9813D5
:100C5000FD9890BBFEEC61CE583002FF969847811C
:100C60006C0CBB40F632108AF4FAF3DF238C307B35
:100C70008B23A67B7B20BFCC02A318F3955831A70A
:100C8000A2937FE6A0FAB008B3CF98CF808808413E
:100C9000685F2DB31438817EEB340A22DDE5B02085
:100CA0001695D2E6F3C6581931B012262678661387
:100CB00064015C80093137BBB3234004B93012D7DB
:100CC00090FDB6DF800752D007C65F66E0013C901A
:100CD0000780F4FF7C9803C40138880D3080DE98CB
:100CE000BF20D79808E5C8BF187DEF1770E5AF3172
:100CF000E0FE9881610C64F898777BE508E984FA56
:100D0000C2B5B30917D38098C02360DF8C82EB98FB
:100D100010BD980473B301706167B24BA009FCFF6A
:100D20001D98BD214DDE98DA1602723020EF8597AE
:100D3000FD61672D3041BD98022E1933B83E53C274
:100D4000DEC0FE016FEB980C7E3B306F46E5FEFA8D
:100D5000858B66295F2598668C7030B5163456ED04
:100D6000C5FC8589B349FCEE46C008E730042C84F5
:100D7000CB11B0C04FEE32208C58F85856665E98B2
:100D80005E78B4F4E4300F3F8138880369C030AE38
:100D90000F58AAB05BA2AFB3D7D79862F998B166E3
:100DA000A676C809F8162FB3915DB3089D884482D2
:100DB000BAB3203D0D8EFD7FE67A22E9EF201004C4
:100DC000E5300D78982B20F36609AF81409834DA2E
:100DD000C8FEE509B1D58F8C63734290BEC59E26CF
:100DE000209232759428B4FE37F7E35073FFF2F582
:100DF000C493B304791436FA1ABC234A41C024F6CA
:100E0000D338CB5EFA9B0B49FF1C881933212C0287
:100E1000A880782EAF1326911960FEF6B3C048D58E
:100E20001A056ECC35D308C61622B3E916C0026681
:100E3000613FE08201B208467B3C6012B92C0D682C
:100E400069FB7FF06F59B8810ACB0FE35D13FC6833
:100E50003456BE9859C8DD0702EA9878F298770CA4
:100E6000D8FB0898668E9FFFA64279FFAFAD980227
:100E70007D98066866BF40F8A2A8F84C2E7BB32781
:100E8000E48408FE82BC98FDCD1C40B302FE98D8D5
:100E9000D8FC5D9FC880C01022AF528788815D1A40
:100EA000CD8A20211ADC301E04BD8B68B1FF1F3FA4
:100EB000B78C945F39C80240C2B60425D8FC18BB71
:100EC000E248F9625E072C095F26C8E20468AF14A5
:100ED000BDF3169AEC1EC815F616DDF720FE846BDE
:100EE0002210621A4CF7122D89046405CC66200189
:100EF0008A196EFA21E0CC3B13FB3DC74672DB2317
:100F0000CA370D2C0AAFC8C232C4A714690448827C
:100F1000EF0530017F3D2360118C800581D920C908
:100F2000E7B3E7C8C0036AC2B50435664AABE8E96F
:100F3000F2EFF0484B21C8F7813C8873F3C8038572
:100F4000790FE1C2013CD970FAAF6BE6C5A6A6AB3A
:100F5000B35053B3D5C3C29A2E83FADC3DA94D04D6
:100F60005FCF77BB8B080BFB1B16B3D76311804594
:100F70007F974BE0C6687B2082013495EC98FB821A
:100F8000819BB302F81DDB9673B31FF2806BFF7079
:100F9000FB8B634F8FF1C24C6719F3C7CC83E044DE
:100FA000E0DB4BE00CC1D3B8B5E6D3C8FC03048743
:100FB000FF98FF286151668E363990FF35F6F97F2C
:100FC000193185EDE68BFB0B24F3E66BFB43E25313
:100FD000A0FE8E8C93C3B51A3790FB5FF9CA0479D3
:100FE00044A9ECE6B135F242E0C90024D8F3DB5B5A
:100FF000ADFE200DFECC8D66C1F3B97BF0B8F8A133
:10100000C58C7A2A57FF206C93FB12FCE5C315CBE5
:10101000808A36EE04D81817B3D8B3AFE9E5A8191B
:101020004062BD6C63EBFF027DDAC82072ACFEC18A
:10103000EBF6CC014FAC3340DE8DD1FB46F7A74B2E
:1010400084DAB180A612804096D8102C97D190F8FF
:10105000CEB09957F92D8B747607A69501E030979D
:10106000DA0A07A66FDBB00AFB7FE8BBF86B6B52AE
:101070000D018EC2551A101E7D9914A4C1A51884A5
:10108000C7D519B061B72C302047BBD5B8FC615625
:101090009F6147AC5108BF168B55BC93D899FA682D
:1010A00067B680327EBF59387F914B03B9E3AF18E2
:1010B000A560134B9EFC07CEAE17313F3FD89E086C
:1010C00096582EFE6CB8205D66F960B81960FEB3C4
:1010D000B408EB640A4CB37FDB22A9FE0263F6CCB2
:1010E000081DF51A746476085DFED90420B9610301
:1010F000F8FF6069FA9820CE58B3FD24784C0B189D
:101100000C5066402C04FDDF4904BB49F80C16B3B3
:10111000014F99F36DE7A0FF875FDA66E772B8FBCE
:1011200061879CA0C20E81F35C31E6C02CB33F37CF
:10113000FF6CA989FF303FCBEDD4B587807F1A843F
:101140002CEA5032F3983D1F1068F9D888FF6DEEF5
:101150004F100408DBD6DD80BEE5E85CFC40A7E468
:10116000ED480B407E0009F38312FD434095EB559B
:1011700001F4A176C140088EF0C0FA2045E0D114F8
:10118000110FBE60758099B360F99B29FDA4117A97
:10119000200514800261D21020722C401CCD0C80DE
:1011A00043744B44CEA9C2F8F94B521025D222C643
:1011B0000120B124752221BE71C410094E6C078430
:1011C00060F542C08339BD0201FBB0D8DFAE6435A3
:1011D0007F417B8144B36BDC28FBEC613BBE8040EC
:1011E0006FD7ADFE8C085C6F596DEBD3FF163FB621
:1011F000AC414BDD00124002E5B3F649E1D69ED684
:10120000B08CD7506288189798975FEB98801858E1
:10121000E51869E24B16CFDAE677FF38F90818923D
:10122000B28504C2755C802E15C0FBCC376CC82714
:1012300033619BA848F90F37E308657BF328FF610A
:101240009EDB4AAC1E02A5E63086992E5E52622BCA
:10125000EB900D7BB140625A15B058AC19C77F189E
:1012600098BCFBE6C27FD935207F0866B7D0A8FBC3
:1012700022B510DD48FAF9226FF4A4805E3AA3E2A9
:10128000B334D5B408BA0B18E07F1D280C21377D84
:1012900080061BD37EBE28CEEE643108CAFB6117E0
:1012A000F55701AF0A27B3367AEE6440FFEED25904
:1012B00001CAC05F8EFBA888C14684C55AB30C2002
:1012C000D9AABD12781E0B08D0B32FC480186B9A10
:1012D000C8FA59CD810439B9634966807D1624FD69
:1012E000D98E010F664113481169972E7B980A1613
:1012F000AFC0F3D1236002D605F631404601E0319C
:1013000099EEB331300A7F7F081904035224BF2CB1
:101310006108A5DB03B71777BD983C8007F4335C01
:10132000837889E0CB011CF38D4F1BE00C0834B3AC
:1013300066E00C90F1071EC002974819E984EB198A
:10134000584FE9CCD8FC3308D306C0F5036072E3EC
:1013500030F146F3B1014E4AD781E0DC56183266CF
:101360008C96EEE94DB0FBB30264B7B310058BB3B6
:10137000331479B305300414313EB32320804CD5A7
:10138000EC1AF6091041088A66F8F6A40A20BCD7C0
:1013900096A1214EEC09084FC619D734BCA5F2E03E
:1013A000F39846EC4260FFBFA54DFCF21E5840C6C4
:1013B000ED6B0C5BF806807FB1F91E68C960F81907
:1013C000FF5D9880FBF64073C9D69D0876FB6504E7
:1013D00080385FDF1959E798FE52D0DDAFFE35ED5A
:1013E000A0B58DE650F9F26FD487F367FA9834D33D
:1013F000DB1403207D44F380B5105D59E3BE9622D3
:1014000006C098A30B607540EB9808254030B321C7
:101410009DB3110122EFE60850240C72F8269BECD4
:10142000082256E2D9FAFF6B98F140D8A57910BD91
:10143000E8013CAAE778E185F3623E987F43C7B5AF
:1014400049F1986B367681DC7DB8FE35DBD5E50C4D
:10145000E698DFB3629DB12DC87F7F5101EB660630
:101460002BF77BA3766405D9B34CB28116B308265B
:10147000B3970584F18A7998FF559E46F0481090FD
:10148000DB7549F9FB9989B8F60060622484760817
:101490003088BF41629E98AE842F303B4CCD98C6B9
:1014A000EBEF68F1D1A9A2F8DE5ACB803BC3020171
:1014B000312BD6C03033A65CE3D8A880B540D3FC2E
:1014C0009D19200634A7A1980FE0013836E3CB160A
:1014D000F64106B185E0C7A20907BFC9C801AF2B15
:1014E0003070E87F66FF3F988D587CB8DBCC53FDA9
:1014F0003432E10CE06FE498F22DD93930D0A4FCFD
:101500001D1078C2AEE630120A47F42596E32FF399
:10151000023387D7B31172EA82BF5250BD24F0164E
:10152000BF018D301BB3A0FFFD98F07F0330AF09E2
:1015300059B8885C30621E98C03D88B8B0D3B47E7C
:10154000DF963083AD19B0FCE683BEE5B60ADA76E5
:1015500031937E1B30D3208866F2DDD320B410DDBA
:101560001AFE3BFC1146C1CBB3B6385162B30ACF69
:10157000EDB134791EFD64B4805719080D30C604EE
:10158000BF0030F512200844F8A701FE80A04924CE
:101590006CE2D0632B492EC8F35E7F619880122CD9
:1015A00081BB6868ECD984FF29D540E7790C8C654C
:1015B000257D5399E89802EDFA8497C0FD7D00A639
:1015C00066C8102A805E84B3018AF8E606BD64ED21
:1015D00080035816F00753E350FB4633E2C5292633
:1015E000120551B39C8A9C19DEB8A07C1521A35723
:1015F000200125F480B75317663001BB169730835E
:101600007F32448072AA01D7DB983009391A04DF8F
:101610008108FB5F0B5F519805A7BFB59849FCEFA8
:1016200098A007F2205EA5D77840B2983C08BDDFAD
:10163000CC98FE5B3060F2304AD4A39D09D00319E8
:10164000AF9D7AE6E5FC30BF0ACDB83CE5C5383041
:101650005EB52B6FE49866F6181080609F69D9DB41
:10166000FB49B304E3D83041D8B3DF3002CE3013A6
:101670002280DB8BCB8D6C7D98D0B4FAF6980282F9
:10168000BD98843DE89034C0C3D3E004629E98BF07
:1016900031E652B360BD98207F8DD6F444B7F60A88
:1016A00098FFA48DEF789796E2B330FFB280BC81AB
:1016B000CFCEC848FEDBD798D07A98405E26D0B609
:1016C000C0E3433FBD640C2006CDE0025AE17EAF8B
:1016D000053641F236E37DB676FE136AF646B0462D
:1016E0004331D2B1C39729049A0F34E12201646CCB
:1016F00019C922F8EE69D186C01966C80AB4620316
:10170000FBD68B69FB7F0239B389B430F5982391FE
:10171000EF981801206278D8DF50FAE898F0550663
:10172000CF301009E041A33C1923D698102D9DC855
:101730008248C1F3DDED981CD0A6539BA9FB087F1E
:1017400097E59FD2EA9801D0EF8C63CDE5F2A8B27D
:10175000C88DF30B66ADC47A478F665FB348E498D3
:10176000D35EB8630FB3C09130047AE013B8305F32
:10177000D3F9CF18F36AB3AE18E76434915A420232
:10178000CA0810E5F6982481BE9FC633C8096FCDFC
:10179000EA0C401D2CEC98820436BF7FDACCFF6542
:1017A000D0A1D5DE980D95E6C078190A013B61807D
:1017B000AC3D46102CD89CD1E7F8B37A58248DDD87
:1017C0007C98BCDFC679300159C8B420E5300ECB17
:1017D000E0058D04BD9888B8F9CCECDFC809E29823
:1017E000E8B67AC6393080AC90EF99D188E530817F
:1017F000DE5EBB228D309B8B03FA9E9110C224408B
:101800002523DE9859E8BF46EF325919B0EEB3856B
:1018100030063B9F9C4350244C103A39200525EC60
:10182000C612A66B3EFED6B28857999859C8D93CC5
:1018300020DE98599B25BD48FF0245E0E7989AC6EF
:101840008A95193BA0AD74BC981B1AF0E50FCDC862
:1018500080FE98AE0CBFC4D49808C67BFFC3F85F67
:101860003B35C0C1B655BE98D810A2C8B3D62D34EA
:10187000D7A6FDAC0B20804D7BAB12025F8901B275
:10188000B3B080194E92FD4402BBE024E280A00573
:101890007B812004485E0830CF6BB32085765602EA
:1018A0009C30117F4F86143FF4426010080269ABF0
:1018B00015FF3385628595FDD931089FD5B1F611A5
:1018C000DF146F95C8F63E8BB3FCFCB2F5BE197DF4
:1018D000CC7A98052B5F56986099AFE8B3391B0511
:1018E000E0F830EF57982CDD32EB58185DC9E3FF74
:1018F00030FED72612A8980B28BFEB8246FACB847D
:1019000034107DB30412221848C70F789805E79861
:101910006FDD48116866D7FB043C4A20C10850F3CC
:101920002060110A5A32E90216C1580B7ECBF6A587
:101930003F9E30B01003C09DEA8B50246D791A3958
:101940006A1114F6E2A8FDBDD290F707F0200E79D7
:10195000D265C8FE8B1CBBF3D2AB81D0C4793003F7
:10196000B83019BD9804251990DE980A58D595FC11
:101970006BC930108EBB622DC8B408DB4CC2FE238D
:1019800030664CB6C81266FF26D3F7E970E77B468F
:10199000C25F6E6B9DC811A68C17B3273034C5D0BB
:1019A000043EE7A320800D12EA917B1D48101341ED
:1019B0005DC149FF5E559B26EE82BF2A88D7A0896C
:1019C00077370242FA9801C4B930055F909E18FF3C
:1019D000616048BC98D4EB6F69281AB3C1FA4BDE3A
:1019E00010C7F40FD78C286B2FC8F1ADB16BE2B3E1
:1019F0008CD7406434F5E5FADC1DCD0232FA902E26
:101A0000F20ACE740720FF2E98B1841E662F01388B
:101A1000FDB2051CAFBB98388007FE7F0346E3503C
:101A2000FB979B01209941416034C1440CB8144696
:101A3000CCEA6434867537900492BBB71B5F0D986F
:101A400012A640664510D7DA987AFC1C79C4C028E3
:101A5000CC7B234D0A9EA35906C182B4CFBC21BCC6
:101A60007EDD08016FC330EAC19F22BA0B52242CDD
:101A7000AF08D77F46924BA682F6E278FFFCDAC821
:101A8000F172300BBD988015AFA8980FE65ACA9A2C
:101A900066A7ABE8038005A6B0D30258BE0F74F367
:101AA000900119EDC8035A14E2D0B34BF0C2F930DB
:101AB00040657998FEB8B5805AB350A4B308E0AD3C
:101AC000A835AFF3986E5A03217FF9F9FC4CED0A63
:101AD0000493C0E3B301374709798BA9B317199968
:101AE000DE7A535C30EB0214C19E8E8B40804D79C0
:101AF000D23410A6ECEB1A2013EFC6FD9DFA8E79B6
:101B0000F49AB37FAFED80F3EE7E32933B4068CB27
:101B1000FB20CFD7E24079969CF367F94B9196FA78
:101B2000E0A81B97D35817243BFF98FF240A8C6624
:101B30007139D888FBC2E28032CFF919906FE01C6E
:101B400057D9CC5F9E6EF3469322B77953FFD95E87
:101B5000386CF315B3F308F919A044264944B0A42E
:101B6000B1F320B10D8FD332A49D7730F820875F79
:101B7000CC667F32B8FF64F9AFEB94288C4858FFED
:101B8000CE33E439A8A8B4FB30B68CFFC74BD5ECF4
:101B90003237F3AA3F65B71986BE4B657E1406D966
:101BA000F7F81DB99785CAB120FB853419EFB37FCB
:101BB000F295C5FFDE8046ED9EA50E40C47F63FE14
:101BC00064ACB410243C6FD6DBC314A3F36F0DF7E1
:101BD000FC7EEEB840478A204C1404084B01766323
:101BE0001008CF5B661075F8BFF0C80804169F2078
:101BF000CA7DF94DF2A5DD1432F4CA60B66CD9A0E5
:101C00009F6C2AA425D7B3A028043AD58081D0148C
:101C1000370AA46301D86E588008B7E2303BC4B8D5
:101C2000F95DDFBE30D25694B45E5E81F4626F1B04
:101C30002FE0069468E1ED0A18081E55900316403F
:101C4000D17F8896F99E1F1BFFB637B0FF8D982075
:101C500008A9EC7ED940C6732E40B410F9AC3EB54D
:101C600010F9C81EB604E6EF35FEC57D296063E2B3
:101C700073A6CEEE5F30F9D0A0D8EEDCE1C58FBE02
:101C8000E236F392CDF97878DF7649FD6FCB95DEB9
:101C90000E1BFF88FA0E3B651067367E88FF693A97
:101CA000845C7A62CBD898F87DC35E593180BF9E40
:101CB000DC90FBF4615F1ED5B9626D3038F979A50F
:101CC000856B648025FA2066AC19FC2931B8EE6C6E
:101CD000A299FE38F5F604887D7F857E9DB3A01617
:101CE000D98063CBA8FE65710D9BEB04401CEBF71C
:101CF0003FB6D330E619082D119CFF8CE93F855D76
:101D0000147F177D56645B1198E377DD5D90FD8746
:101D1000D97E67E67B05030436FF98FAFFDF71285A
:101D2000B6329F5B0620C8FBAA1CFB333C5ECC513D
:101D30001920D9846BBA0111E95EC2B2F87EF8822B
:101D4000D6DA44FD768D18AFC7D97F7E59B042EF01
:101D5000FBCC58F97F513B021B056F6181BBB67606
:101D600095B0FB30DD616F171C92E5B384051085DB
:101D70000BBC10196FED50FB5EA510BB2C167B56EB
:101D8000168079BE7D4ABBF320FA03010420F4815A
:101D900008DB48802EDB41CD53117E4A80B221C53D
:101DA00032C98BC7A27B340739016CE3A7FAEE3640
:101DB0001430F2948A5A0A6833D85F14801D085090
:101DC0000A23D005D925EDB4010526DD50FD18669E
:101DD0009589F3209D66085450AB66D8FAF9805176
:101DE000200C836AE71C12417884A347B2A65E41A7
:101DF000160A6CB228F41830A4EBFEC0C1DC60995E
:101E000048D568FDFCC011900312288600EFE3FB63
:101E1000FE409BE20156BC0841DBECE427D5F820EC
:101E2000A14FED0F88FE7C82771177B2114BAFE4A2
:101E3000B73E4BF40917F30252D4171A19FDCC0D13
:101E4000F24FFC8AEA9508589C47962053DB1CFA0F
:101E5000650BF29D1D3319D6A104FEB77FD8CC5B6C
:101E6000BA522034CC0AC08FF3FB0323F7B8FE2C00
:101E7000E601A176A861B3FF38FEB608F962AE6349
:101E8000FDC4796A8CACECFE8F5927207AB77F9815
:101E90003E57D55A967B23A6D331D7639F93E4F65A
:101EA000DF019DFDE788FDC65814FED588F3D0FEFE
:101EB00082CF6F0B18FF380A192520AFD812FFAC5C
:101EC000A2A0573BA540F8113000DB3B7688FF3BD2
:101ED000CC0675CF0C01B76DE504BE5FDFF6C10C13
:101EE000C6B3BD15A0020C8C7B7690022BDDDEF014
:101EF000FFDFB89C16A20321FEF88120A005020690
:101F000002E5A303DF9F611126EF590B0814417FFF
:101F10002DCAF8569410611B6DB98F990EFFA3CA94
:101F2000B0FE681AC66918E1D96FC1804076E0FF3B
:101F30000638F3C284B4600B0CF97DF9DE800153DE
:101F400019A06917105146B0F397FC34C00201B5CF
:101F500071CE43B8FA86B9F2C030A7C26044F40C1F
:101F60000140B0E0FE2218040B62080CC233B2DB61
:101F70007D2202DE7C48F9E04171B407F0261EF4B0
:101F8000781F0FE001943CE3F3D1C003F3846AB4FB
:101F9000F0D7EE035810DC0B08F4D6FA80F70806E9
:101FA000C013E8068081A030661018E803F3C2422F
:101FB0001976FC0321409FE2EBFF8009262CED58A7
:101FC0008919C009617AB3249E1A60022C08E4F4CE
:101FD000FDF30B0280060C1BB220F66CFD30D19B8A
:101FE000C89888B481BFD8FB677117BE993C26EAB0
:101FF000EB5A0628EBCFDF64C8FE606FE75E809B7C
:102000006EACB1021ED84E049EB29D0301FDFCEEE3
:102010005EF9284D5411EC04A7185C61E49874DE55
:102020006024F4D71AFCCE7FC4C8422D107898EFF4
:102030006E89B02FE9DE7F81256127786001802CD1
:102040008EF798FDE081647898277998EA9083F577
:102050009802847E988080DFDE6B40FC8401FF5D07
:102060009818E398A901BC30DDC2CF019861BD206A
:10207000D3E197FDC0FB98100861A9B3677C0B60A2
:10208000BD01D3087EB7AF20106991EBC1818B04ED
:10209000F9760140A76110B39E7BD6030902FF6F5A
:1020A0009830FAFA0EE330232C002E37FF6FCBA8BE
:1020B000F8F7740440186FE2339F8C4327E43080B4
:1020C00077EDE4EED360F904E26659C3025E980549
:1020D000851B99BB02570541B4F570FDC24A7728AC
:1020E0003FA1CE982769ED236008612FEE7F04762B
:1020F000B3110C10C719FA9808D7D59820C65D14EB
:10210000FA9830EE4B3038D3F796FB69E25BEDDBA3
:10211000CF98F3C50BB830D3DB9840F99EFA46C18F
:102120000858330D1BB34044BB64047AD3D8B37B47
:1021300034AF80E3818220B43B2929B8FA0A8412A3
:10214000C27E5A3088F2EA10B415827307106EB856
:102150006FC6A6121166D7BFE5A3FDF320B3C26D0B
:102160001890F9302044160CB00293C598CDBFBB2F
:102170006E18FE20F38B101DAAB8048F526C8E08C7
:1021800001243B66DB956124FD6092F9FE802130DD
:1021900011F88B8809BB8BDB9831B0FE25969344F0
:1021A00013E9AF7737228073B3E0FB5EA5ED8007BC
:1021B000F432D5134CB0C8AB883083E0C6AD3830AC
:1021C000B9E310B906200365F8E5B0EB9466EFC0FB
:1021D0004D62B90C6679DDF980BEE3C408180B3096
:1021E000B3B85DC26EAEB15F3041CCC948FA2F3092
:1021F00010910639685B08B498245F447512F5BFE6
:10220000F2A9F3BEF9C22F489802D39B0804FC5BE5
:102210000DFE19F03ED62C592E5CFF80CA69BCF227
:10222000A0FECC7B3CB421D6AA8492F91909D7969A
:102230001611117130BF432A78D32AF9FE250A10EE
:102240003AF33643665F6C980B0826EAFE5A2B90E9
:10225000BDF4B2FF84216679C441FDCA8B60B7EC3E
:10226000A402DF9308CBBD4C09146628AFDE20140E
:10227000D3FA30FDE00124E53020DE98B510F59862
:10228000407898B0F39729C8B00181580F737FB890
:10229000FCEF880128CAC8F3F28C4A2FE530407E53
:1022A000E420D1D3B159C8BF1036C8025FAC9853EF
:1022B0002727B3408B604278D31EFEA051079120A0
:1022C00010BB0855B024F7B4F99817E898984BF567
:1022D0007C9EC80C0221EF6F6B8CFFCDC8841BB1B4
:1022E000799386F9C8E28048F8892C5DB11618BE4A
:1022F000C9FCB5C8E230CB1C09D6B901BBB5CE09C3
:10230000F869100A2AE53048B99EFE3176D8764B36
:10231000B74905B572D22A40B3952877FDD9032372
:10232000DF7FED113001393060C6044C6127521750
:10233000B9023BFB3762B4FFF398B930795E98B6C7
:1023400041E230F0982C25F298CCC84057F324FD98
:102350008092816615E3730E33C82268F4C013FAC5
:1023600099096F16EDD898026EB359C8CA080419B6
:1023700043C2F9E9080291651BC6012077B59804AC
:1023800008C51BFD7669047CF9463FC380CF420334
:10239000400BEE090C205F63E0E498A86CC7B22004
:1023A0003489C2F6FFF8FB57CBA5982060AF91980F
:1023B00019E9162016613EAFFC01E277ECC6FAAFD0
:1023C000242E98DABC050668B51040DA14613EA4E4
:1023D000FC10B267BAC2FE8409F398BB04139C6078
:1023E000A18005BFE633F583F82C9B025C061E5DD9
:1023F000B416C1034FC62C80215F94EDFEE0413D31
:1024000098D05EA5779A98F9C564C8D8F93CF1B41C
:10241000648E54D3F419400FE464DD28FBC03017F8
:10242000EDCF083CE55A99FBE5400C5FC263EB1A1F
:1024300006D0D3422E0CCECE68FCEE653026C82ADC
:10244000B7AD4B0205B30884AAB340F6982024F632
:10245000B3B0FC71752291A114411A5E986BC9301A
:1024600002DF7E6CC89078B5EFAC83AF9B2D55AD85
:1024700093D149F8F09DE96380ED613E6CBF409FC8
:102480006B62F0FAC898B3136F3D982306BC8009BD
:10249000C23C8E7CDCB36E19F8F69802C1192B7918
:1024A000EBE246188C46FE3F4A8C1A406698ED23B4
:1024B00001E5C8F97BE08449285C42DAE7936001D2
:1024C000AD093076A98F586901AF8CB6ACDB911598
:1024D000650A3012D3EF9D1180840538D5E0F8DF0E
:1024E000012C8003F2E1201EC8DB78F030BBF39BA7
:1024F00030E2816EAD4E314435663C2B2520900391
:1025000038340FE091DD58FEE29819DFC89866D3A1
:102510002FBBF0C5AD56B35028B36DC5509BC884D2
:10252000BD4BFA33CD2019C0C182106226B3E666D6
:10253000E61120B3BB22FBDF82209BD3E8F81FF318
:10254000B673B31F6BFFBCFFF63F80DF3FB3018C58
:10255000F3E3D11A2DD3401DFF6090FFD889FE24EC
:102560000166D8BAFD7A72B2807F19B2B5FD59EF13
:102570000287E298FF446605E7F396E691AFEBE643
:10258000BEE0DE9906D116AC5A63127E320D9887F2
:10259000FF32B8102BE03C606CB8FD123CE6D5660B
:1025A0008061B9C0BFD646D65FD8497A72B2215B86
:1025B000F4A8FEFCFDCCE5F00186DFC1B6FA581A9E
:1025C00008893E8586B4DF7FB2407E03C7CDFFD742
:1025D000DD801A729E33EA97F8B7ED08A8AE44F78B
:1025E00099415A04E446672AB8B1806E5755C0D75E
:1025F0007F868FB980170C49C07DED9B14F910962A
:102600000A0A22B35A4676EDED03D46620F33D7DE7
:102610000B430134F3B0FFF15BABB711FAC925F0FE
:102620005C028B7E7A10EEB378BA478ED06CD150B4
:10263000FED3801FFDCF1018C4AEB409E8FFE55DDE
:10264000A1677E2F01C2EEDDAD02F6801E75B19945
:10265000EBF5D80EBA17CE6C3788FE3F0EB8DB8C80
:10266000C410797D206477D3B8FF6618E66DA7FBA8
:10267000ACFFB010F8308F1B5B19FE98EF7EAD4BAE
:10268000B30C0FFE37DDFFD0B1FAA5D70485A966DC
:10269000FBFC608E65B488FD32608746B2FD78DB56
:1026A00018F92FF310CB77CDF4B255C2E5AC509F9B
:1026B000F6CC1CFA9618DBCC4B10BBF79860B99B94
:1026C0007B100E5610FEFF2161F9FF78E5D7130A43
:1026D00082625AEF7EDA6F6E1DC056F3D88152B80F
:1026E0007FBB2148F840961A12BEF8B740D56D0856
:1026F00085BAE77A19F8CAF9D56161876DB440C621
:10270000C230FFC596DD201877FB78FB61F76CB906
:1027100080AF23E5F3FE8AD86DC315AC04ABCAB015
:10272000F96BBB3D080D8B62F64607ADF530FA1A22
:102730006B80EC71FB852B5F083B5CCC70F9808F64
:10274000EB04C34410C402010CBF50C993AB019207
:102750002143EEC27DDF9C10ECE6A4F9E0A3ACA51A
:1027600078948206501D184003C700FB50500B3B65
:10277000D428051C51B30CD5E93450801DCFA638A0
:10278000FD20271B2404FFC01218024260082439D0
:10279000BE300CF337DC03AC3A056D6E0872860967
:1027A000E76B424008CF8241F92270FF6BCBBF102C
:1027B000C96EDD04639E9E635BCBF9B0FB80402055
:1027C000BF4CFC02811B1081AB5701515F136D920E
:1027D0008462ACD2BE9FF178C280FEC10396CB4822
:1027E000DE907F277D14A7602065756F85899F081F
:1027F0006CA101662AB2FC7D38017824BFE650A99D
:1028000001585E5EDB90FAEDA485FB9267B2D48836
:10281000FE7DC93020C11B401DA1C1979B2E020F18
:10282000B465DF48AFB4CF58B28050B4DA0340E7A4
:10283000C8FA40712B653C9A24B008A3F6CD80CE2F
:102840001898F820F3F5F4B4D8EBBA64C33F6C835E
:1028500050FE502BC327B380D4FA7954B1AE87AB66
:10286000FFFE7FED860880891FEE0CB080A357AE77
:10287000401EC36CB2F91DEB6001417ECE1158ECD5
:102880006C67D9B8FC2BB3200F561AF84EAD1578EB
:1028900077C1C061B3ABC8FE64896602197F183680
:1028A0006C66B2FD95B380A951086661BA18F9C982
:1028B000D05613036C3C615719CCFB496512661F57
:1028C00030C39FD97FC862191D8CB3110719FF81CE
:1028D000A4B008EBD698E44F9F98BB4B0116CB9061
:1028E000D6FF0637DD64A0F896F0D8E001A79F98E0
:1028F000D6D23FEDCB91FA96F15E9861CEF68AFA88
:10290000FF677B4C0130090E3F7F92651719AC9829
:10291000013AF698D0FCCB6CF144013AF598CB968D
:10292000B38E80C3BF7B98E0FF204421F241B030DA
:10293000EFDB9818FD375601011CA619881940DCF9
:10294000A7EFB032EB9D30B8F804922AC04081B0B6
:1029500004E566C0C7FF04B602ED1741DE98B00A71
:10296000E3FD7FA0FB6093BD490308877E98366630
:102970000857113066872E1990FD805B72B6B3043C
:10298000811DFB9858FCD920480FF2012008344BD8
:10299000B3240D5BB350FA2BCB98D6E8311CB61993
:1029A000F0F85FB798480118EC6CB3C068FEB20449
:1029B000FA649BFF10280D58B38AFB0CAF0C986C7F
:1029C000661238FE7F48FFCBF098120158C38D6025
:1029D0001250FF33BC98C3866649FCCAF09816842F
:1029E0001DE77BD8FD0288DFEE73F59804855DB1A5
:1029F000B1048F1698661EF330E8F8647E7F70EF9E
:102A000016981914AC1608EED9B1241E8C7FA49820
:102A10000819761B3B19F8840921192069C6CA13C5
:102A2000ACB3B0CDFB6C70FBE081211903AF023079
:102A300098A7B6B13C77CBCC2923D2E50C66030A24
:102A400034FCCFFDA22875B19019DF4082CB30084D
:102A50000D5BB3F8FF23D69808BE980624C35FEC3D
:102A60007F44FE93F30F7D988002FEC8F59810878F
:102A7000DE98EC29FB2894E58074AD61C77DB1D266
:102A8000F88021BFEB7F12CC982CFB7F31D6EAEC8B
:102A9000FDE001FF5898206BEE98C0FA04C43C9802
:102AA000030D7DE573B2FEBC9802F3980E56B33069
:102AB00057B19824419877E0982CFC123C9876699D
:102AC000FEE051C17D32873AAFF628FAA445EEF315
:102AD0004240840580713086FA15EDFA8451DB6935
:102AE00002484F0098C35F6C9838FD8EECB11820F7
:102AF0003DF798A8FF88667DCCFE9861AF7B6308A0
:102B0000FA807019066E81C2CF599880AD0AF820FC
:102B10009299EC81280933F6986001D119FDD9808A
:102B20000146951A7A9860D06E14F91B400DFC98F6
:102B3000DFF6CD78DB486579A978980B0912F5980E
:102B400010B1C28A9A1930F922FA2D44DE5311804D
:102B50004101CDFD7F028DF79A3009658AB3663752
:102B6000F76C530340EF5A9804AC66024D663C6F15
:102B7000B7F6B2FFF0FFFCC67D98806AB3B150454E
:102B8000B3309819CB99FD837EF6C2218802721961
:102B900004CD3111B6B390F9C24F30B68FBC51F8A5
:102BA000FB20D7CF80F7520240657B9CF36718D19A
:102BB000E3D398FF018240FFD8B324243666FAF9A4
:102BC0004ACF21BEBCC3456C24A295FC0B72A0F376
:102BD000654E30F69C661373C6DDD380FD08BF9A40
:102BE000238BEBEC09D66F20E7C6B6FF51FF0ADF57
:102BF000322CEC3C58FF1825F9E5814AB3B011F5A9
:102C0000B3FE65ACF1013D30B35AFECC1008CBE306
:102C10007E16F3553F6E2859C9E04BB30A96C12082
:102C20002EC86E90669B91B6B3DCFA53DB80148E8F
:102C300020BA9DC36619B8FDC167F5CC40F1CC1828
:102C40006CB3D904FF7EF16091EB98800F96B3903E
:102C500004DF6C6402119BB3B8FF336CB83C586658
:102C6000F9115FCC607EADB340B8C2C2D3BC75C6AB
:102C7000C883891981FAB3B30416B3FB0919C903D0
:102C800088FE66FD1B876B19FB0293F67F041E2CE2
:102C9000B39C95B36087CD66F8F995AB6B200CFEBD
:102CA00080DFBD32F0FA0A8247F5CCB0FD963B4793
:102CB000EFCC02F4E1202B080917C2209BFAEB6D40
:102CC000B4FAF380030506150114177A4B08F54B87
:102CD000A0843C7AACC0964B83EBB328F562FA36FD
:102CE000A180DE4FE8A48214620D8B84DDEFB30473
:102CF0005B5CC0FC3CDD58BC73DBB14033F2FE08CA
:102D0000EFC36EECA530FD8FD8E1807DDE6384FBE0
:102D100002CAF0D0EC391EB57330FC04C123DB9835
:102D2000C9FA04BEEC170A2011DBB390FF0480B48B
:102D30001BB8FF11EB490DFD98FFB080443FB6CCA6
:102D40005D0F0CC07B10A302080E58B3A0FC1E90B0
:102D50000409102F089B400C40992BA7010C7322EB
:102D6000C8B5FDE7D218108300561EEB6190F981BB
:102D70006030C6200134B3D01B19BED8B862B5810B
:102D80002880A0F966642AAFB3ECD224013A4F68D8
:102D90001019FF80411B4046CCC0221E0B502D2C29
:102DA000D61923180FB371F0F9E0FF013C8007F446
:102DB0000006C09B81F20F7519838608B3241AE0C0
:102DC000FDD46710A4B65B82DBF00CACE6033040A8
:102DD000B320CD58FAB3B01669A55111198763B362
:102DE000716081FC04C0840810291AF287684D6B59
:102DF000E64D19FA44045617EE9621D4B81802A7E6
:102E0000CA32E5B4E5DC00583DDEB5FC70F8E09868
:102E1000179198D993EB4C803B8DA38C826FDC98F3
:102E200059FB240AA0FB81C5CEBCB27040C33F78D9
:102E300098CAF984051C2216C2572D1981C0B3D82F
:102E40000B65EF9832F8E0815E98E6F0001E3E7860
:102E5000C9F6980301C31F769810FF889E98706684
:102E6000061EFB982BFCF480013002B3CC5808B34B
:102E700001419877EC9880FDD7FBB6F844440845AB
:102E8000766857EC4169316F19E8FB22ACC2321900
:102E9000BF0560618B6670FAB940B4220F1CC42C68
:102EA00060AE58307063CE3060FA20956A06DC1947
:102EB0004013B2F77F3D68618B6618FBD38011BC6D
:102EC000C12285142307400C6EB296239E187B986E
:102ED00078FEF5E0413C88EF9812C0030865723037
:102EE00018C2F4662C0D40FE7BE52006CEC10066BC
:102EF00003601B0F797DB8D7F980741A16C02AB009
:102F00008BF5B32030B3FF20904CC1F848177B9865
:102F100041046EE62CA8306FFF74FCE5A602865BC8
:102F2000ED67F33038FBA660BD06241E14C40236DC
:102F3000192D663003C5B2594266BE31C5C88840F6
:102F4000B3ADD6664019BF5BD2FE80493010D74082
:102F5000C0F2320B606FC8F6986012C306B3F2FF7E
:102F6000FC83C820EC12C083BF5898786266D720D3
:102F7000FA8B98F9FC98C9D2B9F38B0C5AB393FB2E
:102F80003FB3CE9841C08C61DBB390FA03040120BB
:102F9000686E4810F4988DB0ADE726C7BFFCD8C363
:102FA000CDF50B01862DB330FCFEFABF22C5985B30
:102FB000879E980164C8DDBE06EE98086224230F40
:102FC0003D9890F3FE841130C5C0C408149D13666B
:102FD000200291EB98110C1AB3D8F8E330BD981683
:102FE00084C0C3FF759850F988E5E5A715FA980CD9
:102FF000C3CF6EE5F0F8F69846C22AF9CAC0842815
:10300000C3B6B330F8B93041E320080281838B683E
:1030100040B010EFFB7FDCFD6F23F4190F9BFF28FE
:10302000FCB830FFA5C9260290E7B012C5B3A09B3B
:10303000F9B504FD5D4021B359011F7F619319A3C8
:10304000FFF3800530016984AF58B27F7F3220D80A
:10305000601463B7967B98A007F4F1001EC411D8E2
:103060000F0277EE9828FB84D3CB982C8B3FF598F2
:10307000337998B1B39419B053C9B37081FC88C047
:10308000049289D002AE406E300D08CB66FFCC09A9
:10309000618BB3A8FA699DC8201891E6989C786165
:1030A0009366FD604C7406449EFB16614004DB761B
:1030B000E9C019F330D0FF34268074C41058AD2015
:1030C0002015B28C38DF49FAFE808011BFD024D79A
:1030D00018091F30DBFD1685FBF3865B48FEFDE01B
:1030E000411C9007F2051EB70130B407F3980C5548
:1030F0001880EB9810B3C818B608E5300686FE981D
:10310000D7D1FDB0980A26E340B4E3300EDAB328F5
:10311000FDF0981E2008481ABD98817F0330BF0239
:10312000C1983098BDB8DDD73BE6F8F955EE189A4E
:10313000DE614F9BE4EF0F98F9A140C81672B37897
:1031400003977280F99885C7B3EB75C8FC83283064
:10315000BD806620D90A025EF1B3040C5967CD82A6
:10316000FBC468E3F88085730846C06C09C46360DB
:10317000B92CED4672AD9303F830DF6C846FD38ABF
:1031800008DA067B8DF8E0AC01EBC8F12095C75852
:10319000C630DE98D903186560F6FF30665FEC2D07
:1031A000753649B9300877037DD980605E987926F5
:1031B00075A0AE58A1D1B3BBE720FA5E98BD0269F5
:1031C00020B2409BB340012FECC67BD7D704AC8D17
:1031D000FE7CDBDCB3C7DDFFBCFF20FA625D13764B
:1031E000990DC6F371D18E30D398FF18240DFFB31B
:1031F00028824366A3FC609266D989FEC0861C9330
:1032000046F5161166E673CAFC04651BEBFC3FB07D
:10321000F3B06BF6B1F3FCC137F63248DC6861F706
:10322000ECCC5812FCE5C0A558B30878B3B290D0E6
:10323000B3011877FD74C8FE826319401069EF541A
:10324000812010016FEBA7811458D120AF9A4D2B2C
:1032500036D8B76405A0DD507B0A40010875190215
:103260008585B3B81A601880FA572177BE48319B1C
:1032700002BE440F7F7760D8FA128AEA10C347B3C0
:10328000A8FC804A10025173043C87ADFFE5FEE1C3
:103290007858267A4B04C109B3FB60ADD6B11F77CD
:1032A000A618FF6418C77FFD7E90FD825A1980C85A
:1032B000CD5080A6D8016EB3DBF0F97958FCCD1162
:1032C000878B66FE025B7B96DCFB04DE2F3033E4EB
:1032D000FDEA806192B378D466B833C1016610B05C
:1032E000F925BF7F89B3FE3CA4C3EF3098FF8D80E2
:1032F000F3E7D899FFF610FDB2283650F5568086D0
:103300008666FD179604BF1F360E48FEC1759BF2F8
:103310007C01C35EED1180183A64C1139B2FB8FF86
:10332000048D81971073B34008BC0225C3ED685A21
:1033300070FF14F3BC042F5CDDFAFA677D8E861BE8
:10334000D97FEBE8287E490420024042B483011073
:1033500061A9B4BBAFF82003A4A002117DB35880CB
:103360000840904F6171B2FFDEC058FFCE4118F7A0
:1033700081903D2B75F7B2E9086CA442233727E50D
:103380000404EAF7FAFA3433F1CC99312F672FE5C8
:103390000A5742AFCB1002F927F6760139E64029E9
:1033A000DEDCA8F910DFC607BE02C3DD5BAFF98B18
:1033B000B4140F9BFF18FD051DD849102136B388A2
:1033C000FF096B6680276C873DEEFE18FADCF5C1BD
:1033D000033AC79CFBF33573780F7DE538BBFCC51A
:1033E000E615821B19B0FC6698EF745CB09852F633
:1033F000980140E2FBF3920EB78CC8AFFEB7CE59EE
:10340000BC0D6BE4A210FCC720C49AA14BE940D2CA
:10341000F3047DB7AF827FF43D2044F965FECC0C08
:10342000CCCAF830CA8B97C41093C6D3E0FD652C84
:10343000BD0FAFEC8803C04DB31064A69208903264
:10344000D76BDA6B062C2EB3742DC9A0622AB32871
:10345000D33590E90BDCA881044611FEB9DB2220AC
:103460007F3230106E19653B662C04303DB480818C
:103470005109B784CE0480B00740C0840A10F566B5
:103480003012F0B338C832269BC70F60104D67600A
:103490009080CDDBC083E9F33C4381F4063FF678AE
:1034A0004003E00147561866A79F54F6B579657D3D
:1034B0003CB98937C606C07DBB34898241F9B2FB6D
:1034C00085B3438F30B308A02E865CF893FB9C81B4
:1034D000C616C1CE1610BA0A803D112C1DFE63B56A
:1034E0006E20F69521AE79801402DBC0986B240221
:1034F000D798927F30292210D8D3D4DED9E3EB5A63
:103500000637F4F510F28E08D9DF40B0F8932D0796
:103510008F68F308513B6120199AFD18FFD34008CA
:10352000024DEF48FC8CF47AB1462F5C0D46FABD93
:103530000B1930A68563081190A58813F573F965FA
:103540002CB3807F2727C00906289D74E7D2093055
:10355000129C16F39808C7F204CE8205EF11FBCA3D
:1035600059D60362C143C4BFC280BB07CE98F7E5FA
:10357000E0813C3DF330201E7898302BE0DDE5689B
:10358000F8088C79F28A766406F58902DCF738B699
:1035900006C0B41866E91004842A8365EFE38C0240
:1035A00066757789FA4AA6E4F91317A7B302A60449
:1035B00058493C01B44B6BA8F830C48B75965D0834
:1035C00021CE30900492FF5CFB20F38F05A0C04019
:1035D000D0881ABFBE21D1A231AC8D71308A6A0366
:1035E00006CB5788C1A5E50319EDEF48F818BDAE25
:1035F000ACB9046797300309E419DCB9F0F37069DA
:10360000CE30F8FA08C9F6FE2D02CA1667FF25F279
:10361000CDDD850229CFF350100942BBC1F4BF6C48
:10362000E84DBAE2F895DB178C336B10CCC5FFADD3
:10363000CB3685F97F29FF30024604224008138FDC
:103640000148025095EFFEDB131013F79803E88052
:10365000623C30F61C880102BC3081E03C2EF3E76E
:103660007A03181015FC035DB1B1304F9B7FF381D5
:1036700012EDFE08FFA6BF83E9F8B6015D8A5E3E43
:103680007F2C3031BE59308D5FCCEC40810843FE39
:10369000CD50100220DBBF64801130101277F27819
:1036A000230AD3FE5930FC5D7CB38C3C98C47FCD9B
:1036B00004F605804008DC30BF888B30E738EE0D1B
:1036C00020416D2CF9B526049FC688791997C4E965
:1036D000B577DAA2FEDFE0CBF5980E96C8B1484D7B
:1036E00032FC3D72815C304A5BC03DFA53D065AC20
:1036F000660DB02DEC4FC54D26B8A7D75984F3DC25
:103700004010EE227AEFD2ED5B6206FD8C96B3B1EB
:10371000801EFBFE848020C06D7FAF80313012465A
:10372000C408EB582090D9838244EFD958FF79C858
:10373000463E43F3E4416279C8B501E230E3D4B9CF
:1037400030405A12DF18209DC8B0FC1866AED84A27
:103750009066DA7C107D5BB701305D174767FA9899
:1037600051CBEBB12DC244B18116B311808DB87F1E
:103770001680BB299830429873085C20778198DFC7
:10378000FD10C530A6A377BD9841A0010488E7C805
:1037900084446FEE988104A003BD980322EE12B218
:1037A000D32DFF97E6985F367C820131CB300173D1
:1037B000E45F2E989A6AB3FA37F7591602DF9262DD
:1037C000FAFCBF02F8AC31203432F84B610E9D0593
:1037D00040FE0C8B6ABE208C024BF77E862FFA517E
:1037E000FDBF90221010D750F5BE2182ACAE9AFAE0
:1037F000CD60B0A0C0A0D7B208BA178C4647BBAE08
:1038000012069A6A23047AD205300116F786100848
:10381000615E989E89F8A0FB08EF6D98F0400C035C
:10382000BC9BBB193D17CDC802A664C8881605EF1E
:103830009878100FE09A011D28DA49FACF3166BE58
:10384000B32AFF7F03723841EDBBE6B7A261FB6B81
:103850002029D9FC102DB34101959DCA084488A3A5
:10386000B310DC076ADF1304EC4B100601F158209B
:10387000CF3C4C82814B84FD2B36C821672230100F
:10388000B10CE3C8249136EA3B186C68D44BB26A99
:1038900008B39DFC01D8FA97E26E8BC714FF8039FC
:1038A000B202D79DC0FDA279987ADFC0CCE3302C5C
:1038B000B3FD33DCCC64AF4D7209FDC226B0805637
:1038C0000F86B0CFF91B2736C84963C80801678740
:1038D0006659D564073739DCC024AD4DF60D203765
:1038E000B94AFF713089E9FC19D4E368C730B720C1
:1038F000FFF4809130F50144C288E04867029A09DC
:10390000B002B8CBE6300F02CBF598409EB481E010
:103910001DAF8034EAD95626C13C9081F00681C89B
:1039200018FE4003E2413C10D0ED31154ECB170C90
:10393000CF11EFB33008046FBBB980FDAB1077DE59
:10394000EEF3B289D6B32D53C84C01B12807B32882
:103950001801DA2204E4C89CB9C640643177042017
:10396000F01E8BF3F935A70497B6F993ED75210690
:10397000E3D8E02CB1A00266FD998017C52E41085E
:103980007DF32402109004DC301F81014D4EC0FBFA
:103990009DE0B7175A3731198201D8C76F9E01E9E8
:1039A000BE7EDFC440D5A4B4E649B8FD5EDFB68E66
:1039B00060DD3745FCD64423E64ADC0ABC01A67725
:1039C000B0C040E77308684EB9B8FB0CCDE139A927
:1039D0006FCBE02912F44A21B622D7FC8130422570
:1039E00089F61764531AAC70F9325FA0F2B49CFFE9
:1039F0002198E09A7FD79FAC708447DB9808805F5E
:103A0000E7C3610CC28530FA1216C80440EC3C4191
:103A10002F82113006ED90FF083BB11E01CD26E448
:103A20000179C5AE76E802E0239DC8400CFA995CA6
:103A30003D7F8198EE07F020C8C81203D377B9986C
:103A4000F97D69B166659E7D9FBF0B504217CEB56B
:103A50008060FE2030B64E00C6FD6E8218F9D31885
:103A600065B30DB2B340FDB18C3FEE7F40A45CF86E
:103A70000AB3E90930826958FA10204201886BC6FE
:103A800022B0A5170AB7AC9829CE6C300436E2B440
:103A9000571CA1976AAE980AF2DACCC8C04D82488A
:103AA000DC3059BB0790FE5F28625C30BF018C435D
:103AB000401982D332974BC0F998FC857ECB960E85
:103AC0006F5BEF0E9ADD2CC5386323C89ABD40D6D4
:103AD0004206E0E5B31827C6016088FC652D99858C
:103AE000CE661B35E93472BE36FCF5A186B6E41FFE
:103AF0002028CD7CD06D116BEF2102914839ABF9B4
:103B0000EEF743DD186597199E982DB30233618057
:103B10008D4510DF4601DFD4082C8411F0300A16E1
:103B2000023F90040B61120C002E3010D05A19F98C
:103B300098E6BDEB1903F9300CDA20049A66B6ABAF
:103B4000E801BD91D782787391413CF3F0CD400EEE
:103B5000D3787B98803C0F58FA7151AF9BE5ED3FCD
:103B6000AFEDAC40F31D506AB3C78801BF2096F794
:103B700003BE6BD706C46E6803C8C8103134F0F8B2
:103B8000F809BFAC980494B34CB6B237A163118066
:103B90001134FC558B1B4187B30CC042388D236018
:103BA000B58CD3B10EFF7FD9A41FA06599C386B38E
:103BB0003EFFCBA4FD1BB40D6ED24036B538F3A842
:103BC000402F67F516B9D3B9E0E0F35A30F340FE61
:103BD0001870FF6E466BAE86D8FB2CCD379331F351
:103BE000F3663DD3E3AEF8414701B3809793027D7E
:103BF000468E1E6BBEB2C0BFAF31D7FD289E4A5560
:103C000047E29CC1936DF6743466019FFD6470FDBC
:103C1000AAEA10D893CBE3C8083ECCF32C5617C3BE
:103C2000F9B8E6C53EF90309BE32DDF3C0A0FEB423
:103C30002CFD237F8D08FE33CCFEF190FB03048620
:103C4000FF98FFE30D09CBD13B360401CFF735F3E5
:103C50003604E65D48FEC67AD7BEE1C456EA02C025
:103C600081D9DF31D858FC56376679EB19FF8B9133
:103C7000F918FB0A1B31AB1FAD4CB796FBF113F3E0
:103C80005C3FF9CB1020C5662B690284085124D40F
:103C9000DBE8FC9FD9F6AFFC3C6EF5670D7DDB21C0
:103CA0009267A202CB06FCF604C0F98DA006F6A22C
:103CB000403D01B9BE088AE9D6207355801881308D
:103CC000B4A301E3D38008A391FE820418010B4042
:103CD0001BEEECF5F0FBAF5988042B260213F9C854
:103CE000B8FA58040B6811E3E2D3595AA241FD0314
:103CF0001002500904EB70FCCCCBCD317CFE17D305
:103D000066FD9D19386C85C0FF1669378C9EF2736D
:103D10002CBFBF34F0DB99C6EF4BF9C35EDCC502A4
:103D2000BB66FFFAC8F96678C626DB77632B0A0202
:103D30002386BDDD80C9FDDD0885C666ABC304638F
:103D4000F3C1A6DF08FBB3500B46B37224C4BBDA41
:103D5000287BFAF0FD616966BFDD89E60A6FF65FD0
:103D600010F9097C3062FCFD2CF22E60B388FE3025
:103D7000ABCB4B8D1EF62A59F3CDE2C0FB8719332E
:103D8000B320BD2CD861AFECCC014BF6F2CC2C6645
:103D9000613697E55B58B6D3B8FE3BB6B27E65C8D0
:103DA00008FD8B774690FD66690485593067FF7C76
:103DB00098FC61C7D9D1FFF6D8D8FA61C6D031E2F4
:103DC0004B19C3A5FF08965FB010C7CC985FDB19ED
:103DD00088FF19FB0A0B4FA7581904A74DB6E90233
:103DE0008D191FC464D3D850FBA2D904C2D36BF57C
:103DF000283861E7EC7F04C3190B3BB1403748100A
:103E0000F953A6ACAF08CEEC61D8F86BF696021069
:103E1000296581FC807E6FB224DDE30886461FFCA5
:103E2000D3B2121B1448F965EB08922679E18DFC98
:103E300078BF1E212F0CCA72A248FE88FA82E7348E
:103E40005BC440AF8E01581B08BA0410D594217989
:103E5000DCE01538C0FD205114564CB4EC06E3F2FA
:103E60000560012048D334530AFA289B88A53015F1
:103E7000E1D7FB9318FCD40CE5100115D0012F00FD
:103E800014AB06F97AAB2450203C90BA04441B22B0
:103E900056110C088C9C4752FC0CEA89E06684CFD2
:103EA000D442F004A059C019A89E15BB0121206C72
:103EB00028FCEFB1F3ED5EAF08187A1C41DFE89300
:103EC000ECFCB17B6D6C2D100422F6580140406F64
:103ED000A681F7824065998866871E9B78DBB76666
:103EE000523238B340CADD5C40908B8E04C67A18DB
:103EF0003B53402BB60AE817EE4980C61BEC90FFF7
:103F00001B3132FED948024EAD50FD0AC2C3697F53
:103F1000232CF375AD20A7702068FD182417FF4BE4
:103F200017930D74B6CF6CEC10FEA5E90286FAAEBD
:103F3000231A1D0AA8FE97BB58401EEDF3408DAC16
:103F400051FBCF302BC7D6D70ACE8A8078FAD82536
:103F5000C3FCCBC01019B415C54C4B2BF58F80A7F3
:103F6000D8322318FFF9B381FAB3607EACB31012D4
:103F70001BB3CCFB08D6D90CABF8061B6CDA70FD72
:103F800028E3411FE7ED50FB0C609019ECE3F804C7
:103F9000121DB3C9FA088239B46915824BB3A3FC68
:103FA0006093EBE588039BACB112BE32C099301927
:103FB00049EEFED8FBC1F819C0FD6CB389FE188C20
:103FC000B31FDB19BAFD07BCCDC880FD18CBF84183
:103FD0001130E47EECFE30A3FD621258E6FD24E7CA
:103FE000C8F2F9617F3ACAC6C0026CFA600C451982
:103FF000F9B008BBF87F07F0A9F978622DE5E0F881
:1040000085FB49C006C0716688BBE669FA10048565
:10401000B360865EE5607EE6C881C18F8C301FF399
:10402000C8FAB0F97DFB3216F04C16F8040FAC98C4
:10403000C04DEA10B0FB49F5989086AB190B12F60B
:10404000FBA0F8C34519038936EA20F81A79988944
:10405000A5B3E8668243B3A8FC6193B50240629EB3
:10406000E5B0F92F76E3DB56D70839AB47FE1DFBE9
:10407000E255F80196EAB1584F589848EA6604D5D7
:10408000660265BB661ED00313F582FB8E1A47AC31
:10409000B350C5B3188A7BE580FC63A66669118DB1
:1040A000BBB350F91009CCB37DFFE8CCFB20CF8027
:1040B0000A10F278593C01C6F371D18D98D3277A52
:1040C000982CC12166F2B0F9C396CA802DDE623009
:1040D000FD28C2E3665FB17116D318FAC1277D4986
:1040E00081FE308247ECCC8836FD3204897E32FB7B
:1040F000C1938C7D1FD6B302090DB3B8FD814BFB74
:10410000CC080CFCEADF8C30316CB3840155E7C875
:10411000B0FEC1328062FA3C6099F6321818B3BE24
:10412000F617FCF8059F58B11FA6B307EAB3DCC029
:1041300099D5FC108242B388C0FDF0E50C0FD5B3D1
:10414000808C6A3890C09830194CD31507E4192038
:104150000B041358E8F825771799FE61E7D9CC7E50
:10416000D8B3387FCC03020696FA3034C681A01447
:1041700081500A2DFE7D89016401B3B0FAC97662CF
:104180002CB549E9D0B0F9203D4B40628BB3FB0C14
:104190003F321046B327DD634CFE82511981C9DBE3
:1041A00017FC1FF3E503F74CAF0FD7B31120025DE7
:1041B000918188220B20109801F704314240D809E0
:1041C00002B652C8E092D5F404AE42E85C5248CB45
:1041D000FED94EE81C30B201F29E58A9B28002838B
:1041E000E0B279BF0846C68CC558FBB5FC69F2023F
:1041F00011FB817BAB10C02CDC5DB30446E046862E
:10420000A523F3DA02F36B70F946E28D7021081AE8
:10421000A133638860DB0462E366E648B520220DC3
:10422000A8517451F5E4EE19EF300216DE01620C6C
:1042300066E205F8168150762360402CB34BE018F7
:10424000210DC0F78810092312A828989D663C907C
:10425000070C572678E6FB6041EA077D1806D083F5
:10426000188B09B490E0B51E4C181CF8F0E9F3C0A7
:1042700082F5E0AC41D0C8FB66BDC3666076919420
:10428000B6288608F3C58FFF3CE0F669C6107C1897
:104290002DC6755AC85EE5DC3480B30F03697853C8
:1042A000A7F38E400370B12064B346DAC98C8BF556
:1042B000799DB3200302E2B362ECC42E1177AB9870
:1042C000A0C898BEEF1C98F11009B1A985FF42ABB8
:1042D000F8A480C740088802BC59FFEC1EA0FFAFBD
:1042E0003798C95EE6662D670CCD1DFCE1F366F4D8
:1042F000A4DFF626504FAD9810DBAB108437D6986C
:104300000859BBBFAF9720078B037130CDF1FF0C6D
:10431000BFA99809A185449EC4B44031667FB72ED9
:10432000F5E5A0C5A9F74ABAD003F904FBB9FD9891
:1043300063B860A3F735580803D8610CD2B310D422
:1043400019738AC0027A0B6BFC3209F9EB3E3C8888
:10435000CEA5F198DDDAE0017B98C003B118A5661F
:104360000EABF81C80E603F220D383EF53988176DE
:10437000FA086FEB9861CFA0F2B8F38B1A36184C9D
:104380009630B6C29BFA390146C6A3FA6D71341A4B
:10439000B313682EEDB9FEB35136B30234B3B50989
:1043A000FC7801A369A66619B8FFBF5D097FBBD77A
:1043B0000801815F3D98D922633F83B5027396243B
:1043C0009106C902ED610A013F3188A3F9C70DF7D3
:1043D000A510462C4F35EFA8FAFBC8A096A6C0C77B
:1043E000AB98F3489E7F9798D1CCF5DEF5E668FC54
:1043F00008C882DBCF66F39863F317E27D0A1CDFFF
:10440000F4CC18825D6468669BF8FCB04FDC7F0BCF
:10441000A39D48FD2602FCBDB10873717EA785C629
:10442000C6C004366223BF3212FDBB87A07FB69898
:104430000379BE987319837862C3B4E004020EF363
:1044400096F7F6F0F62006C803BE98EB58F804ACD1
:10445000519E3530EB331DE3307E2F7D169813DCF3
:104460007DAF60EC32388084B34507BBF34003680E
:1044700018FDCC017591AFAB9005C0981119190DBD
:10448000B38408FAA08720811E28B2FDF1F3F8B1A9
:104490002162195EC182B3768A75CBF0980D756181
:1044A00078B2FFBC9858E349EBA00820F7CAF69809
:1044B00090FE966D08DEA5E5080481868F7A980443
:1044C00039E36AB259EF7797985FEFED98F8FF7983
:1044D00098EA704037992366F318F30924666C87CD
:1044E000129557123D66B0104602FE98F5800C8278
:1044F00011A7CFFA8B62C5D36526BE986DBE8E21FB
:1045000026C17687088BBF7FA558B30C79A5FE9886
:104510002DBD72C88CF363C998E1166FC530EC9855
:104520000EC006B9C8EC60FA049CD8C80C47E398E2
:1045300039186A495E5EA3C2F36E6930A9FDED22A7
:104540007F93A5C02C885E386AF3635A18B658F575
:104550004B02FC30B521564FA8C0E3B640F398FAA1
:10456000889BF3800819F298E003D611DC301B0415
:104570000236860ABE98D838FE5FCB3B022BE8276E
:10458000B5C86DF1E8F9B3C8802FE522FA50F3DD24
:104590001AF298E8B98DB93004B5303FA1968DFE76
:1045A000D9C8BF40963005868335EA98A236CAF14D
:1045B0000DD670D816DFB2771ACAEAAF608990E4D8
:1045C00016498603F3B1019EDE17188C7EEFF6C400
:1045D00024CB7951EDFC50FAF3C8837E47C877A805
:1045E000981EF3C5B4158443E006DC30E503F020E3
:1045F000C6652E1EC6B364F998BE58C8F7AD9808B4
:10460000B93004A1C2F9B36B9D2EFF10AAB340F5D7
:10461000B389EBB31A1AF59826BF8E98AB1202CA6B
:10462000E630E0FD036F66980809F020FE1030A721
:104630002C0863D798107D39AFF8278A2402FD92A1
:104640004810AE76C8BCF85E984747CB300424F4D7
:104650008B87CDA6BC89C8F398FD818169E6983522
:10466000CD3006011BB1F2303247D66DEA98A0CBAF
:10467000C86F6D9820149666023597C865C9BF2823
:104680003012D61D51ABF269FC5F6CDC0626F5AF2B
:10469000832FA522D286E45023B1F3956618B7C0C4
:1046A000AFF016C008582EA35727112BCAFFCBD244
:1046B0002EF5E63D18405F5397C8F9988B1E18E019
:1046C000647330F220ED1EC80279303065723020FC
:1046D000BECF3B08FC98037E5730C0AD8B037DE511
:1046E0007B80FADDB3704BED091FF34BFA91DF9835
:1046F0003013C4108C2D0B737BD0A4F971C0BF2074
:10470000D7982079C08EF998FAC0B652CCC8C2C7E3
:10471000C602AE442F1EA52CB3F8FF5F2FA9F37677
:104720000C57FF019C7718597BBFFA4D1D3C98FF31
:10473000B18CFF1798E0E9FCB116DFDF6BAECCA0BF
:10474000F8289BB54201FD980436B6853FE2988B68
:10475000DFA96433404DD80541AB29D0FED6803166
:104760009CE965E8936021ADD3F37F04F34162FFD8
:104770003264B8B30220C4A655836EF78C702F281C
:10478000FBE0B23C88F7FF3F988F6AE3301ACAC853
:10479000F56B1EAA481CEE69300EC8190FD3E8410C
:1047A00062FC84B201B93041610F003066E6C8088E
:1047B000B2C8FCE18E40F826B30702F5B3447D820F
:1047C000848BB3016FE98246C0F30B05E3B323FA90
:1047D0005FC68991017E60C82294F3A0BF0436C8E9
:1047E0002228B5E484901486B6FEF7982408021FA8
:1047F000610AB801A8969CF96E4BF5FF0AB82DCC5A
:10480000CEC8B8F956309113A51F5097CF9116F323
:104810008D766410C836F3F398F37BFC71FA716AF5
:10482000EA9E2CD085AC47CD98D4C208F5772D50A0
:104830001140F05712EB0102AF647CCB08FB8051B2
:104840003018C60FF49804CCF188F84625C230F32E
:1048500059DA5FFFB201191E4602E06E1AD226C075
:10486000AE2374E24C0490D988FC1E98EC78100FAB
:104870009F5B9810FDE3FD036C66940CE023B60487
:10488000F79807F120DD0EC0ED9860801FE2EBE5A0
:10489000064F1BE5D68237D6E580ADCA5002901987
:1048A0002BB6CCA5CF579802DD88D964FFB38134ED
:1048B000267E67C8685380212FC0CAC837F3326686
:1048C000FE10684F46ACCBF298CAC83B4F9B4DFCDC
:1048D000101FF3FC09FDC3E8DDFB20A91510D2A2CF
:1048E000808BF54B04C0F3DB19F3CBD120C6E5D3A5
:1048F00040E3CB38F30EF0FA030487FF98FF2C62F5
:10490000A69318B166C1FA00617F59B5FB796BEDCA
:104910001C51FEAFDF5CF49EA06ED562C76699E0C5
:1049200000665E66689BEF88FA0C3CDEEBC9168673
:10493000F312AC58809D76E542FF2008FFCC5F7FE4
:104940006BD6387E98BDF7D8B58E65E3B0B3BF9E01
:104950002FAC6C156193FFD0FB64ACC64027FDDA29
:1049600024E6F673C8D0FD61728180DC47CF6C7C91
:1049700058FBCF31BDF320D6C630EBF3082BFBE755
:1049800028FC31D421610F9F4BE66D47AD6148FF94
:104990004E18B3FC028ADA089833E01756CBB304FA
:1049A00072EBFE2660FFF3A0DBF14020CF184BFD39
:1049B00001EA08FCF1D9D90873E790F946C688984E
:1049C0000AF360EC80BD6CB350364B402EB3B72178
:1049D0003F6699438802D245D1BD6BD8FD924321F1
:1049E000EDBF2E4E3CF6D6CC367A4BBF80BFC934D5
:1049F000422C7B64124068C107FF0267FD088E7A73
:104A00000010CA0E5ACB6CC668FEFFB4E431A26334
:104A100066FEA38DDBB8EEF3D856BC2CFF8C623D4E
:104A2000DB9F763888FBC325C5409831B608F5A5CD
:104A3000FAE6F25F5823FF8B971B14F5D4D8860B48
:104A4000668073B2BCAACAEE6378FFC3031A17D696
:104A5000FB58FFC12F4C15DE30EBECB3C53FCC0843
:104A6000639F82B208B76F20DB02017ECCF8CEEBE9
:104A70003A1FFB802BEC31DF58DDFC227ED104D1C4
:104A800019106181C6BFECA690B2EADB490C967D95
:104A90000247ECE90C9614A0FB58E723B6FFB8FDDB
:104AA000097E98B020DCC4CFFE31FCFAC335BC08C7
:104AB000AFDFCDC62CFCEBC070FE623BA7D80280F6
:104AC000669DB728D16292B7203346F69BC24E6CE2
:104AD0007010FC35DBA87ED9F1010DACA0FC9E9ACC
:104AE0002FFC30589B8C22FF59E50187EA984D51E5
:104AF000E53DE6477F2C7D0136EBA97FECCAC8FC7B
:104B0000CFB010F3D68BFF672C7E062131CD77E630
:104B1000C8FE5047E1723848C9581008C907AF822B
:104B2000CA6E7F647FC3F8FD9802C5048CA0060D91
:104B300056D30412FBDC10046DFE2A90F84065CABF
:104B4000B0A1005CB5C0FD141212B8A5016CE660FE
:104B50006C6698F808143D400210B37EC8F978E3FB
:104B6000A6A1F0600881B513B6D850D80541B6D7D4
:104B70003D59765FC9FD128120802802066FC4412D
:104B800070D9C8FAFAFF448BAF612FEF810221750B
:104B9000CF5E39E6A8FE9709E4DC290DBE9882DED7
:104BA000970DD99A9E95B8022D79B01058F9BE4745
:104BB000098D6FEF20A8B3B15BAEB3173664C9FEA1
:104BC0005754FBCB58D96071E44E9DDAF8F9FD29B2
:104BD000E6614A42083B098CBD8FE0ED90FD2F0E47
:104BE00098CDFDA40418DE4BCBCC012BF663FB6102
:104BF000E38FF5CDFBB66C4A01E7FBA9AF20C308F4
:104C0000B0FF4BD36237ECFC3BCBC80B8F66592B04
:104C1000102DF30204BEF4A9D0FDE56BFDFD3010AC
:104C2000B9CE8EF51B8AB6E160FC5827B09BE9FF30
:104C3000B0B0FD54FD7F0287EBB3B8396634381647
:104C400042241540F6C91836B320FB6AEF30DBC1A9
:104C50000330C1B3A8621EE5EB06E220F07760D80E
:104C60006219B3F9D5ED14B22B69350187DDFE7FEA
:104C7000B49C46A0FAD8636063FDCCF0FC9AEFF3D5
:104C80000C800791FAC0EC037810306CB378FE43C7
:104C9000945DA4FBC70320618AB3FACEE75E104699
:104CA0004072B360C31F768908FD107F6B8901D005
:104CB00098A2586266D8B0FCA2E803CDFBB66F316B
:104CC000C9B6B370FEC4399DA04D6B027098EA6CF2
:104CD00048636DB3C8FC9AE05C62885096B36A186A
:104CE000F76471FEB3045D081046A236F9916018AE
:104CF000F6B1D1CEEF643C8007AF906C980178316B
:104D0000766648FD0C77771706A0662161C31FE021
:104D10003232FE33D7B3402CB36032EC64F906274D
:104D2000ED9892088587B3B6D220FF2D9B09200FFE
:104D3000B696FEBF17D6988216F130FF86B1E815F9
:104D40001950C81540CC3059B310CF19300216A1F4
:104D50004DF92261859D17B98C84F86736193C8816
:104D60009E98616F2E300F60FB58FA313F6C9802AD
:104D70002031FECCC0FBC57D98626162192CEEEC3F
:104D80006A60FCFCEBC82082CE98E3D70BDBFF6C9B
:104D9000F912CBC80D56FFE8239DC8A220DF196188
:104DA0008AB358CFD6AF2114BC98C3301A161B7FD4
:104DB000F73201267B988B60618BB3E9F9677F1C22
:104DC0009007B6B0CBC80FD6193099C801864B668C
:104DD0005B39B3B0EE08468058F86162B3D950FD34
:104DE000DE98801134280C4008705861CB30183F91
:104DF000CD9872270B0C7BB10867F4B1A09B19A268
:104E000030CB9D3018FD049AB395891CDBB1110B92
:104E100079304C77FB03A2FA043B7CE206C044F6EF
:104E2000FA136011187617C0CEEF171C8007A63151
:104E3000E983781B0C7930F966FF4920082C663627
:104E4000E530219DDAB108E530827BCD60026162F8
:104E5000B301EF5998F8DE98E084C0D030C39730A2
:104E60000D2CFB78FEB7B130F6C11920677A981087
:104E70006B19F2EC7F33E630F8FCCE75662114C076
:104E8000D6B119F33042FD673A660146C16CB703EB
:104E9000602CF54B80CDD1B8FF9D9FC89007F020C6
:104EA0007798985818BD03FAFF621C30B8C4E3C362
:104EB0002E6C3019FF439B30C0220BCBB3CE143382
:104EC000143E7F571F679C1163408B0608C7397BD0
:104ED000686DF69C4F3630E8FE2BF6FC197A981078
:104EE000CCEDFE4029EA0161C0B103AFB1806D761F
:104EF000DC40FB086A1980539F19520863CBB32129
:104F0000378E465905FABED1FF300926C002181067
:104F100023CD6012F3898C9BB370F7B4D3396BB394
:104F2000886677B1E081F13C8007F1701EC0A878F7
:104F3000F3C6BD48786BFD61F04091FE9CF8FF041C
:104F4000CD0066B930180C0B608CF321FDCCC092FB
:104F50001996A81926B30A61C796B3085AB320D385
:104F60004CAFEF75989106D0FE7FA00841C2BF5CA0
:104F7000E58DA4D98CFBE7E8ED49859D196BBDB59E
:104F8000B0FE9BFBF60CB4FC29F661765DC8FB2BEA
:104F9000703BB9641401B37F19646B6410637F17AD
:104FA000D31596FBDB63198051E03001407E021877
:104FB00005906014F3EFFCBAC215094CCD9941F984
:104FC00099EE98013C882D327B9800786FF70EACF3
:104FD000660275660F69D6B16FABE520E21256180E
:104FE00043FC79F0AAB350C78FB3FECCDBF8CEDC1C
:104FF000820505E698FDD146B3E6113FCDCA08FF0C
:105000008B98E056B37BFFBCFF6FC4D73CB3018CD9
:10501000F3E3D11C4BD398660481FFB3B0244862FC
:1050200066EBF830486C66C9FAB3A024E6C3106694
:1050300016F95F99C526DE18B66653FB0C7F32B0B1
:1050400009C16680B0FE48FB80155866406AB366A9
:10505000EE9602C3A666B8FFC57A6CC3E3660FDBA3
:10506000FF89FE3BEC037B4CC6653638672C661027
:105070007C80CF3790DE2988FCC8D31D5E581A1477
:10508000E1668A2E900376FB70FE8051538E7D334D
:105090008F6BA348F96523E408B088B3C5DB8E7C29
:1050A000FA04BEB0FE378FB3F78018FF1060906629
:1050B000D8CCFB2598191EABB3800E16B3901B2CD1
:1050C0006640479666500687EC32404776ACC80A81
:1050D000DCCA61FE6CC7D80A8F514B141C86CD19EF
:1050E000C8FB8AE6E601C2CCBDC0D180B3FE9BDA24
:1050F000100143D30C5B6618FE15D58320860EB4D1
:105100008030FDC18BF63210192CB3FE4052581D71
:1051100061CB78204E597D028775ADF8048CDD6C2B
:10512000C2CF6DFFE8FDFE47FF34A01BAC9F010816
:10513000B422CD76AB1091FEC278E53217E5F325A7
:10514000B206AB8F7AE0D0E5E2602D2502DD2920A2
:1051500038FD984EA701B18040110242D1B1526191
:10516000085FCECF0135081496B9D0083B96B788B2
:105170005118FFA695F936109AA5403F8185BE4B80
:10518000B904FD28B1FC6FB05ABCB37BFFB8FB0279
:1051900034B3C35D530E02CDB8FD098D18DD7FD247
:1051A00064A2C2A5638093CD7CA0FFB9C48207EC42
:1051B000C39818F8CAC1FDB389B3FEF9380160FE7F
:1051C00066BD04B3FB60C1F6CC1A64C6F066020487
:1051D00081223005080E80B880BDA30DF412400274
:1051E00048B5CD0124EF90883931802010E081420C
:1051F000097AD390DB573503FB4038F94DEA08852F
:105200000CDDE860580886F3043B4E09C50846E605
:105210007BB30121B980E00A23E0B8D382A3C01C8C
:105220001F12081DEB32F804CFAECC5C40487B6AFD
:105230006E2F0F38F3F5C7B229CE4FE0586615A090
:1052400002FFB4800A50012A4005A0A8F37754BF9A
:10525000F3C0049800136067F74717E0FF025C8013
:105260000BF0032EC0CD05B8F360B2F30F87F3B98E
:10527000E0FB130C94FF81325506CA401928D30372
:1052800065F3A932B850F31F836930EC0DA641EEE7
:105290007FDC0C9001324006C8F90419200364F346
:1052A000DAA441A9F313F314F10188FCFFD8040038
:1052B00011241FBECFEFD0E1DEBFCDBF11E0A0E0D3
:1052C000B1E0E4E0FDE500E00BBF02C007900D9205
:1052D000A230B107D9F71AE0A2E0B1E001C01D92F7
:1052E000A734B107E1F70E94292C0C94812E0C946D
:1052F00000001092100110920F0110920E011092F6
:105300000D0110920C01E8E3F2E01082319782E087
:10531000E031F807D1F70895582F8F37E9F18A3730
:1053200001F56623C9F5E8E3F2E01082319782E0E7
:10533000E031F807D1F740913902E42FF0E09F0106
:105340002F5F3F4F80910B0190E02817390709F438
:1053500044C0EF5EFE4F8AE780834F5F409339027F
:105360003CC08B37C8F040913902E42FF0E09F0138
:105370002F5F3F4F80910B0190E02817390761F0B4
:10538000662311F080E001C080E8EF5EFE4F852BC0
:1053900080834F5F409339026623F9F0E52FF0E0F8
:1053A000EF5EFD4F80818823A9F18150808388239F
:1053B00089F540913902E42FF0E09F012F5F3F4FC4
:1053C00080910B0190E02817390721F1EF5EFE4F25
:1053D00050834F5F409339020895E52FF0E0EF5E70
:1053E000FD4F80818F5F80838130A1F4409139022D
:1053F000E42FF0E09F012F5F3F4F80910B0190E081
:105400002817390739F0EF5EFE4F506850834F5F21
:105410004093390208950F931F93282F042F66237A
:1054200039F18A3409F44CC08A3519F421E01FE7B8
:105430003CC08056803208F046C08CE891E0A0E085
:10544000BB2730E0220F331F205C3040442737FD5C
:105450004095542F820F931FA41FB51FABBFFC01B3
:1054600027910196A11DB11DABBFFC0187911AC008
:1054700087FD29C08CE890E0A0E0BB2730E0220F38
:10548000331F442737FD4095542F820F931FA41FCD
:10549000B51FABBFFC0127910196A11DB11DABBF8C
:1054A000FC018791182F2F3771F0602F822F0E94F7
:1054B0008C291F3741F0602F812F0E948C2903C057
:1054C00028E017E2F2CF1F910F91089590913902D1
:1054D000E1E1F1E0E90FF11D80839F5F90933902D4
:1054E000089540E050E02091390230E02F5F3F4FB7
:1054F00080910B0190E02817390711F441E050E04A
:10550000CA01089520E030E09091390280910B01AA
:10551000981711F421E030E0C901089590910B0132
:10552000E1E1F1E0E90FF11D80819F5F90930B01B4
:1055300090E0089580910B01E1E1F1E0E80FF11DA9
:10554000808190E00895882361F41092020188E23E
:10555000809304011092030110923A020E9479296B
:105560000895E0910301EE2309F085C0C09AA0914F
:105570003902909104017091020150910B01652F45
:105580006F5FB0E069C0E52FF0E0EF5EFE4F408155
:105590004A3759F45F5F50930B011092020188E281
:1055A000809304010E94792962C0242F30E0F90120
:1055B000EF77F070EB37F105ACF047FD02C070E01B
:1055C00048C09093040160930B012F5F3F4F84E02C
:1055D000220F331F8A95E1F7822F80738E5F8093AD
:1055E000020145C080913A02882399F097FF11C0CB
:1055F00047FF0FC0892F8758823058F4842F87586F
:10560000823038F0909304017093020150930B01A3
:105610002CC02770307080E890E002C09595879587
:105620002A95E2F7982FB3E0F695E795BA95E1F75A
:1056300047FF05C0E45FFE4F8081892B05C0E45F12
:10564000FE4F909580818923808388E080933A0281
:10565000942F5F5F6F5FB1E05A1709F094CF90937A
:10566000040170930201A0930B01BB23B1F086E00B
:10567000809303010895E150E0930301E53031F494
:10568000C09A809102010E94132D0895C098F0E005
:10569000E45FFE4F80810E94132D08951F93E8E37D
:1056A000F2E01082319782E0E031F807D1F71092F2
:1056B0000B011092390280E00E94A32AB89AC09888
:1056C00014E2812F8A95F1F7C09A812F8A95F1F71C
:1056D00082EE0E94132D812F8A95F1F7C0981A95BA
:1056E000F1F7C09A1F9108951F920F920FB60F9273
:1056F00011248F939F93809106018F5F8093060101
:1057000087FF1BC010920601909100018091050156
:10571000890F809305018F3F21F49F3F59F481E069
:1057200005C0882339F4913029F48FEF809300016C
:10573000809305018091050183BD8091410A8B30E2
:10574000A0F48091410A882381F08091420A882345
:1057500029F08091420A81508093420A8091420A46
:10576000882319F48BE08093410A80913A028823C0
:1057700029F080913A02815080933A029F918F9153
:105780000F900FBE0F901F9018951F920F920FB69B
:105790000F9211248F939F9380913F0A9091400A1A
:1057A000969587959093400A80933F0A869B09C0FF
:1057B00080913F0A9091400A90689093400A8093AC
:1057C0003F0A8091410A81508093410A8091410AA9
:1057D000882321F41C98149A80E188BF84E1809387
:1057E000420A80E188BF9F918F910F900FBE0F906A
:1057F0001F901895F8949FEF9093650010926400A5
:1058000080EF8093620088E08093610093B912B8C2
:1058100092BB11BA8FED85BB14BA81EF88BB87E8C4
:1058200087BB9BBB1ABA80E888B908950F931F9372
:10583000CF93DF93EC010FE312E0F80181918F0128
:105840000E94132D2197C9F7DF91CF911F910F91DE
:1058500008950E94FA2B8091620088608093620014
:1058600022E380E098ED0197F1F72150D1F7C79836
:105870000E940E2D8091610081608093610083E918
:105880008A95F1F7809161008E7F80936100019B82
:10589000FECF8CEC91E0A0E0BB2780933B0290937D
:1058A0003C02A0933D02B0933E020E94C42DC79AD1
:1058B00083E785BD80E486BF87BF8BE08093410A84
:1058C00082E08ABF80E188BF89B7806189BF0E947A
:1058D0004E2B78940E94FC2C81E00E94A32AFACFE0
:1058E0008091410A882371F580913F0A9091400A86
:1058F00097FF28C080913F0A9091400A85FD22C001
:1059000080913F0A9091400A56E0969587955A9566
:10591000E1F7382F82958F708327282F26952695BB
:10592000282780913F0A9091400A84E0989F812D1A
:105930009927112482272695822780FF03C0832F71
:1059400090E0089580E090E00895282F809107016D
:10595000882311F081501BC02A3F09F44CC02E3F10
:1059600009F449C02E3E09F446C02A3A09F443C05E
:10597000203E21F481E0809309010895203F21F425
:1059800081E080930A010895213E21F487E080930D
:105990000701089580910801281779F49091090171
:1059A00080910101981749F480910A01882319F127
:1059B0001092080181E08093010140910A01442383
:1059C00031F4209308018091090180930101223173
:1059D00049F480910901882329F01092090110925D
:1059E0000A01089560910901822F0E940B2A1092EA
:1059F000090110920A0108958091410A882369F4EF
:105A00000E94702C882311F00E94A52C8BE08093BB
:105A1000410A80E188BF14981C9A089580E78DB9E7
:105A200081E08EB908958FB9779BFECF0895A82F96
:105A300020913B0230913C0240913D0250913E0248
:105A40007091460A6091450A90E0615040F44BBF66
:105A5000F90177912F5F3F4F4F4F5F4F67E0872FDF
:105A6000881F8827881F990F982B770FA15069F7F7
:105A700020933B0230933C0240933D0250933E0200
:105A80007093460A6093450A892F90E0089581E05B
:105A90000E94172D882341F184E00E94172D209148
:105AA0003B0230913C0240913D0250913E022F5FFB
:105AB0003F4F4F4F5F4F20933B0230933C02409348
:105AC0003D0250933E0221503040404050404BBF79
:105AD000F9012791806F90E00197582F4427822F7A
