:100000000C943D260C945C260C945C260C945C2687
:100010000C945C260C94F6280C942B290C945C26EA
:100020000C945C260C945C260C9490280C945C2612
:100030000C945C260C945C260C945C260C945C2638
:100040000C945C260C945C260C945C260C945C2628
:100050000C945C260C945C260C945C260C945C2618
:100060000C945C260C945C260C945C260C945C2608
:100070000C945C260C945C260C945C260C945C26F8
:100080000C945C260C945C260C945C267F7F7E7F0F
:100090007F7F7F7F7F7F7F7F7F7F7B7F7F7F7D7F76
:1000A0007F7F7F7F7F7F070007047F7F7F7F7F7F4A
:1000B000077F7F7F7F7F057F047F7F7F7F7F7F7FBD
:1000C0000F7F0E7F067F0D7F0C7F7F7F7F7F1F7FDF
:1000D000177F167F157F1C7F147F7F7F7F7F007FB8
:1000E000277F1E7F257F1D7F247F7F7F7F7F187F57
:1000F000207F217F267F227F237F7F7F7F7F7F7FDF
:10010000107F197F1A7F1B7F137F7F7F7F7F0818E7
:10011000117F127F0A7F037F0B7F7F7F7F7F081015
:10012000081F097F080F027F08197F7F7F7F7F7F6D
:1001300008027F7F081308117F7F7F7F070C087FED
:10014000017F080B7F7F08077F7F7F7F7F7F080706
:100150007F7F7F7F7F7F7F7F07037F7F7F7F047F1E
:100160007F7F1C7F1B7F7F7F7F7F7F7F037F0810C8
:100170000C7F247F237F137F7A7F7F7F7C7F081112
:10018000147F081908200B7F7F7F7F7F7F7F7F7F11
:100190007F7F7F7F7F7F7F7F7F7F7F7F7F7F081550
:1001A0007F7F072408057F7F7F7F7F7F080D070BF8
:1001B00007237F7F0713071B7A7F7F7F7F7F7F7FE8
:1001C000071C7F7F7F7F07147F7F7F7FFF1F627FFA
:1001D000C23C006088FFFFA0089001324006C8C6FC
:1001E0000019FF03050A4414012341CF068AF320B6
:1001F0000365FBA00C94290035FF0CFF9881325059
:1002000006CA5419BD28E0A94EC688009879D3645F
:10021000800CB9FF18FD0015E0025C80F00B700146
:100220002EF00468FC2AA002F4CFF350F3C005A816
:1002300030E6A0D9C9B312E0F054800AD0F62A40C3
:100240008BE05493D374D3B8CE0017B960F813166B
:1002500040FF20EC048001F4EA8008101802C0106E
:10026000086F0159E0104CE4E8FE06090DFF98FF05
:10027000CB7D05CD908384A6FB0240F583048926BF
:1002800050A2D302D1E028BD0CDF4085420A43D3FF
:10029000EEF89402F4B69612F6E9C704D902285390
:1002A0003E3A20096EBBB74024B3895043C3219224
:1002B00008F4DB4ADAB766EE0820E08868D1FCC3B0
:1002C000038C753D531D20FCD8FF609BFBCC0804BC
:1002D00066B318FF8C1910D4B644199BFBFCB0D63A
:1002E000AA08081FCBCD28FDFC3CDFC3B01EF5B427
:1002F000604AFCE05EB3306661EBB380414B19FCB1
:100300000443B3FE392DFD822FF47FA001B7B0F86E
:100310008DD50C6AF8B10682196CB3E8FC22F3980B
:1003200075DD048DBBB348FA080FCD19DAB37BFD38
:10033000F598108211B2356D51F9E6980848B4600D
:10034000076558FB36AE3008DD64C0EBFB6090B348
:10035000BB989B3080060C9BC50C102FAB655B8453
:1003600050FB8CF63433B315F141F72EFA9801C3E4
:1003700025B30E96F2BBC0DA4BFD043019CFF6DE82
:100380000D671D7EAADBFCF932F6619F193F84667A
:10039000FCD750FEB698880119361803025F531730
:1003A000FC78FEB00844F5E540377080F97A981083
:1003B000C3236630CCFFBF88C598FC87E7B36603CC
:1003C0004C58B322ABFF406C4938CDC8029FFDCCDE
:1003D00028F8DCC3608219A5A066332C66B034FD12
:1003E0007F2C9FED98E1FCFE986192660FCFF69806
:1003F00020FAEF58E50664B2B30CFFCCE3B9F8B3CA
:100400004661FF1FCAED9818FAFC306089ED980824
:10041000FE826F8D98AE018227B898A0F9081EB0B1
:10042000801601C10FD798627E3208C33E59304C06
:10043000FE98BB3098308001EC10FD9838ADFA96EC
:100440009616089E98BF89D6984008BE987F363089
:100450001201089C305EE546B108BE98BBFB9630A1
:100460000508BC30B9FD19146089EB98B3BD980A32
:1004700061A7AC9802EF6C9801FF38F0980CFF3F31
:1004800098C0E53045E530FE82778098B02041E2A3
:1004900030F6EEB8FBD4E7C3E5FF8005227657C8F7
:1004A000D87F7E19A760BDD0FD0461B6EC490CF67B
:1004B0006698F9B9CA02B006CF2CC8FF2D982CFC5B
:1004C000C0C80761FFAF98E0CDC808D9C8B002C85E
:1004D000B2CF6B6638FCCC9834F5E5809EF2DDB087
:1004E000FEEB98260FFC98F570AC01662C193CF3D6
:1004F000E57515FDC6EA18FD7F9FBBAD404EECB11A
:1005000084887FD69810ABF80816FBCCDAA533FFA9
:10051000FD7F09750D8EFD4E88ADDF208DE4DB98E3
:10052000D9F8FAB1C79B351002105966039DB14B3B
:100530001990B87DC67E01D5B350622BB30C3066DE
:100540009BB313F8B649C7FE9B5811FFAE9811D361
:1005500062093E4EC23EF5DDF8FB20C5CAFD5202DF
:10056000402C3C01E3F338D1CA00E0CF6CD388FEC5
:1005700037DDF1089EEEEC90FF28363366C8D3B322
:10058000FFB0EF4464FFB8FDADB0A241FBCCBF5457
:100590005888FCE3EB041FA6CCB1C0FC8C6611BFED
:1005A000CCD880FFC121FF98604618B31FA8B320A4
:1005B0000C3BCAC1EBFE7E3093FC67C9F59810185E
:1005C0006675AA5B405919FCDA786192B040D1F99E
:1005D00099B3FABACFC3AE32CABE7FC3EDECD80925
:1005E000FE09AF58984023B6B3FB10090C66CCFB4C
:1005F00006091A61B0103C38CAC3F6FFDCFBC0D054
:1006000030193F56B30808ABB390D6660108A6660A
:1006100009DBE35C7B6049986624647CB0B346EDFB
:100620006420CBB3FD0263D64B081E643A06BEF2CB
:10063000A580FC28868666287FC0EDF8631E97B1EA
:100640003095B32899A75AE78318F9689BB048BF3B
:10065000BBAE01063DEDA0B0FAC01EC5FD66D8B028
:10066000FB4BE9B1B5608EFFB0CC47D562402C1989
:10067000FF099EB0FE4858B3901C9A15D8CDFA3B9E
:100680009866FF58B1137F7FD280404D09076008FC
:100690008119DC2236F302C63635DB478021182863
:1006A000BD0CF95864E6C860DCD9C35DDF89F0F998
:1006B000CC06755C1581780C7293015BE5988CD241
:1006C0006603DCF68FC65FFFC8AB1514556628EDD0
:1006D00069D082B019B0109166086BD7B1AB1946DA
:1006E000744001B3BD8C59049628F3A64134B3B2CB
:1006F0008C3B2A506BBB49FB937307C31E3025709C
:10070000F70F0225F330F3AA181CC696190F5F10D5
:1007100034FFDA2DFFAE32185E190466EDC04018C2
:10072000B461C690B30C19CD6638F8CDFA1604A39F
:10073000B32C0878B32B1A51DBEB6346B37FF73247
:1007400088FDAB5901CF9833EB3D98A40184BF7F5E
:1007500068A7D9F8FC86EA678B9819357A06636D25
:10076000ACC0FFF9AF6BD8490E0CCF5B9820989BBB
:10077000975923FFCCAD68BC4976F5260D9BED98C3
:100780001012857DFEDC99F9FAAE26B9A8F82C681E
:1007900035DB28582C1922E3C91B6F6641F8F59800
:1007A00002A7A1A50FB9F3312DF356291C13E5CCEF
:1007B000EEFFB0FD04F373FCFABA64FF00E5DFD688
:1007C000982015B0663AFB1B1BB3BB19C0241A6FE7
:1007D000D8CC0157FECC48F810C9F0983704F998E6
:1007E0007D42B7183057ED98D8FA89710987597B3F
:1007F000B580F3986E32307C64C2BF81CCFFB20CFE
:100800003846DF8D30D65D2015FFCC02F9727316A5
:100810006E65985FF24CC323AC18B603E3300ADB75
:100820006638FAFC98035F5A9802F89816DC306133
:100830005FBB9898FA0C27C5E5AF9BEB98100ADBD5
:100840006609FF27CD98B930206CB301859A62DF25
:1008500078FCF78CE5C818FF6FC73082B06465C8B4
:10086000E6187F183054FFDAA0F9E5C8E0B95AF16C
:1008700030B941859E98DF88F896C8C6B8DE986181
:10088000A737304BFAF23001B2C8DB7062163B2852
:1008900098080BF930809D11BF29F9B7AC9808BFB3
:1008A0003098BF9430E073DBC0FCE5C8B16679983E
:1008B000BFC07F61416636B373FC99C865BBB32284
:1008C00040106F30DA9FE5CCB32D5FFB73C88072A8
:1008D0001981035F58E704FAC101C47930F0609FC1
:1008E000C030280123DB86305020C20567C089FB59
:1008F0009820F9B20857762817FBAD985ABC06C263
:10090000CEEF6472F8FB8C6CDAC8027130840DC1D2
:10091000130188B766C0FBFA9801D78F304DF331C9
:10092000A3088F2C19034B9D3020FA048971308F56
:100930008B66B3116C6601FE479D30289A0285468E
:10094000B3FFCCBFD0923040C32548B3E080105DE8
:10095000EE6167D77E9B98F17DB993E618A64D1896
:10096000FB98B8F86BC1306880B30B5C83BBC06187
:100970009E76C8F8FBBC300740036E715DA4619F92
:10098000B7980AFC9D66C430B3B42CFC3202ECB3B9
:100990002301315B6648F33088036DC830F1B60639
:1009A000FEB8615E76C8F0FFFC30B603E17D4A71A7
:1009B000F3862D66A9FFBF1B3093B3961003619792
:1009C000EFCC58ECB10689B4484DF74104A78298A2
:1009D000004B0880DFB097DB91480C4CB57BEB17E0
:1009E0003DFF01618B6688FB7AB330BC98DF8830AD
:1009F000F3C34F7698D0F904AB66407E4A301003BB
:100A00003F21411AB0AD6650DCFE04F3E0C888987F
:100A1000D28B6602ECD3BBC0FA63407AE802C2B55F
:100A20006698121926F0161E84EF0298D7DD98C832
:100A30000338CD921C10856EB388FA08FE3B13CCA8
:100A4000E59E77300403602CB3302C60B380FA3716
:100A500037B3E0301D1A0103F980B018B3BBFED0E4
:100A6000F86CD7C848DACDF23004B9304926ED64C5
:100A7000A4C70DC2D6FF60AB66F92CEAF21816BA0D
:100A80005E15AD19601BD8B0FB7C96C82BDC30E836
:100A90002010C08496902012AD197857F9FF19C024
:100AA000BE09FD0888040B2224DE8EB51236E73716
:100AB0005EE318135E191B66A7266901A360DC229A
:100AC0004C65881601F333E0449C05ED3022028C1E
:100AD00099672DC8D6B3F1F9C8ECC403788CC0C8A7
:100AE000C49E39F6E0811CDB5BEB1002536614CD2B
:100AF000C870BFDB7FEA1560DF857D2A7998DD5AF3
:100B000015AAB350CD16B3E02419DB73FBADB35077
:100B10009FB3404248100BD02101B31B116D3651D9
:100B20003111B6B3C8F8C47EB0C9CBCA28B3C7DC8C
:100B3000FFF8FA20D3CF80C202404B3C0150F34D66
:100B40008CF3E3D12CD3CE03F3B880FFC121FF98FF
:100B5000D8FF289193868B66907166EEDB0121FDAC
:100B6000CC8FAC7B02CF5A3F212C66FEB38073F34F
:100B7000809331826632E08159345D6668B6964969
:100B800051E7F39C86DE616E7B7BF8FF20048FD8F3
:100B9000CC9824FD32832AB340F32A0B1BB3B8F957
:100BA00007131907F5B301878BB3FE18E59F048F70
:100BB000F95AFBA16BD08012EAF9D4F02259AF0A9E
:100BC00088C0081BA005185BB30A1BB320A3A16C47
:100BD000A8FE53B639203BB6F2E6B3535D01FC6084
:100BE00041FE3240C456B3FB0C4B6610FE7DC2C6BC
:100BF000B310FEC09DEBFE3D2B026192B310C1838A
:100C0000CDE5FC27C2C5B350BF96E5D8367C66D883
:100C100010FB101F32607E9AB3FC3C16082BB318F1
:100C20000377F6CC085819DBF204F5B8DDF461A6B9
:100C3000B607C0FAABF7202F4C1B346C5FF8FD45AC
:100C4000EB60EC120481325EB390B3B602306EF307
:100C50007B4950F85DB3F3CF1430AEB1B208B3FCAA
:100C60004F6E6C6C024033FDCCE993C37D681C6110
:100C700009CE8CFF17F0F87ABA806D5D8492670216
:100C8000D72B63080B1DA314FA40E76B11BB11BEF1
:100C9000E88C80E0C6D66D1023FD61F8FAE9B83023
:100CA000B8B5D843D61081125603614304D8F30572
:100CB000B3B380022CB6C5B32AFEAD94FEE1BFF8F3
:100CC00040180804024D7F27A13AF0291216F7B305
:100CD0002C2BBFB2E544C719345E0CDAD0FD8B4B28
:100CE000B37C96CDDB1ABBFF60FF2065A60195ABF8
:100CF00058018C335DCA027AFB08CE1BDDB310CCE1
:100D00006710DBFFDCFAD61A01518D185845DB1548
:100D1000203DEEB8B1FAAF5875805866D880FE9184
:100D2000BB2FBAC03083B1B3B0DBF808AC69207414
:100D300071C7DB0E28FE03C7362E026FECF9042CB8
:100D4000DEE338FBC68CE22DDEDCD8FBC177F7CCC6
:100D500080180FCF5B6280DD66E7E1E8FA5DB441A1
:100D6000E559BFC6E02001247628103468CFC0E9D9
:100D700030E4A01011F85657A72D48FD2181622BB1
:100D800066042FB60B417ECAB35033DCBA40DD7E19
:100D900078DCF860F5B63037EEE182AC87030167A6
:100DA000F0B2C0ED0CB506598C024B7F0C9BF6706F
:100DB000F99B5326022188806DC42D33B1810166D1
:100DC000DDEDA4C0821B8B8089567E13098FE7E876
:100DD00017D421C4DEC022E8CE4C045C1116E7A66D
:100DE0000B600CA24CF933DA7F99B09108826798B6
:100DF000B560048C2CD147583D0E608104CCCBE00B
:100E0000FB6901AEDA07F126D50FFD3C53F3F7C0BD
:100E1000839E78F3E2813CCE19B4D33DE0EBF4201D
:100E20001EE1E0F70FE041B4EC1ED0D3B90BF65051
:100E3000D3FD805F06C079E9090666F373F60360A7
:100E400079F388793920EDC44A18FB17E0C6A8ED7C
:100E500018D3D3FB7390FA9BED26C1127BB38009A4
:100E600022203FF47F3086B5245AB349A8B393F3C8
:100E7000E60DD0FB4BDFFE7F5CB904837FD772B6F3
:100E800098A0057ECB4383B247BFB408C00122B20D
:100E900024357F117A5BFCCFEDB11091F693FD659F
:100EA000474D91FF4A88ADFF08BB3C68B5F837F75E
:100EB000F59880B7AD9802CC4F8CDC43444C4BACDA
:100EC0008033D69860AD49F828C68F4F999839C5B8
:100ED000EC843011EEBFB156E1408DE08081AB7EF5
:100EE0000341DC228C91F783F88041FDD4A78E98D2
:100EF000ED3010D7D898428C065A40CEFC7F85EB57
:100F0000FC4602F58C13E29893DBCB98CE156FB3B9
:100F100039FCF0980C47CB98CCB8FF3D98D3F0172C
:100F20001EC4AF836D98E4017D9803977AF3FFCCDC
:100F3000FA8477C0FC625EE55EF867F9E5C2D31912
:100F4000BCA5CBF19809B90C248BBFFFD698082714
:100F5000EC4B01310626B3B6020EB3D1B30BCB6115
:100F600004D3F8CA59FC7C30DF8010FE7C200A11C3
:100F70007BF810054210F798A20698BB02F1862173
:100F8000362404BC30F7086A0C2D367160FEDF2170
:100F90006597F8D830DE6C2E084F7D77F0FC60CB7B
:100FA000BC3037D298C09A68F3400CCFD59E0C79EC
:100FB00080B7AD9801567F02BBD7D0D8FAF9D9E6F1
:100FC00008FE981B440123DD5922A4B3CA5B2EB549
:100FD00028F278E388DE7E08041480139D10FD84D7
:100FE000457F7FC0286FEB9811FF7F0B3DDE8C8221
:100FF0002119D7FD17191AB77A9884DBB017132F68
:1010000014FEEFB0FAEF0AC5CBE5300132190379CF
:10101000F376E63C2021CE30900771D7CB98EDDFF8
:101020003D98805E6B732470FCB1884E0230DFCC3B
:10103000B8FE597D40FE987F12037DFEE5ED828863
:10104000EEE320EF584B0A8BB344C4B5045AB320E7
:10105000BDB341402288DC93DDA0FCE398B4886BEB
:10106000F60DFA3DEB6A4020C09833FE7F9A851456
:101070004043F702EF8028907EEC42446008122142
:10108000E6CBD4FBD3EC6F2639FF2640798BBF8BA0
:10109000996CBE6CFCB47BF598329FEB9820BC98A1
:1010A000C47ECCE7374004C064FA981865F6610C3A
:1010B000CDB250FCEB56103FC098D7119998FC3038
:1010C00002054EB5E30802D39130105E66F7112198
:1010D000400AFFD94BFDDD8011ABAF1027F77F0130
:1010E000FF32218CCB8289C811DE2B06C2B5AF43FB
:1010F0006FF4327DA393829ABF71F9D7028005F015
:101100006BE398453CB288393001623C3038700757
:10111000B01F1EC4037810DB0F6266C802BC8BCF01
:10112000CBC81FE2303C7ED3CBF0987B04035FEE4C
:10113000A1EBFB6CED46C2F6B3400AE3B33BCB49EF
:10114000E9ECB304B4195BB34577B16001B94C194C
:1011500038ADF9DB3680EA76087D99224002883F77
:10116000F701442DA2810401896AAF1045CE5F14B6
:10117000DA4D2072AB1A77A86911B60EB8F879D19A
:1011800084EBFF8233891E2AFD281146D77760033E
:101190000B1923CB81418E3146BBC0205C16E05B2E
:1011A0008F68B9A3837E9D3B40FC2493DAFE015BEC
:1011B000668565C819F2FE98D78089B7B84202AB38
:1011C000BD206D1E3D840901A6FD212AF984412D13
:1011D00066C117228C3BA716C140B2C89BF644805B
:1011E00012FF3210C128F3180423607588B545FC3E
:1011F00032A30D44200D9FEFFFF9F564FA98A05F2C
:10120000F3EB981014F398D7D31EADE06073C8C009
:10121000C003787E768630FA6F0A304037F3F39851
:101220003FB664415F87986FCB3004BF7F09BFFC36
:10123000CC4B8F4098B06CB39B48D4313BCFE4F596
:101240006BC1FBE3232BDA11749E7F0341440C7ABC
:10125000F6FEEF5A9840FE7E419AF820403BBEE7EA
:10126000CF5C10B567FB9804815F399F88C9200166
:101270002481B622E27CE323FD98A4BCF8C6D7B64D
:101280002E087F5928FC306679A698F2BF58DB9863
:10129000042053196E0630FF231C8C3C19B985209D
:1012A000766BC818EFCC1471C3D369EDA2B0FDCD35
:1012B000D04214A8A174E56DE298CB8CDDF56605EB
:1012C000EBC5408DD376155B8B325B1BF893FEB676
:1012D00044773A30021617F7A5B88CE69FA36194BD
:1012E000B00346C0DD029899C840666DAB626446A3
:1012F0000091FBFE6D30F120B2C8B930026BEB9863
:10130000E213C9C8E0DAF44066C8E8F3944E5F23FC
:1013100007C630A666A6D3771930ED664030BF8287
:1013200098B28272C8F6264BFFE6B316C1D7F67F95
:101330000162B320CFFD7F0990B3EC4C808185B36F
:101340002CDFA206FA87119004420609BDBA4D09A6
:10135000F9C876E72D08C7A809B1040D7DFC01A0E6
:1013600020900822C66A418037F3228222DE68423A
:101370005BD9A8FB6BD4022F8F54EB1810FA7CCBEF
:10138000D937D67D018DFB70F91F03E4C5505C5D34
:101390007123E419FDA3800C3F97CB0CFE9FC84737
:1013A0003FA302F3C5A3D62E5F686F2BF904F35D4C
:1013B0007DB599F7DC5260223DAB48200588EF7877
:1013C00044C4DC04593B2D7E90321337848CA0F545
:1013D000FB5749CE32E0980809C02BE7BB1726011E
:1013E000DECA114C084859F0FAAFC43008CCC0042A
:1013F000DE0B6F128C8009BFB0FF7F0113042280C7
:101400001D368838FE9C5DCA201EF4C8D56DB3C851
:1014100003AC7AB1C81F6F98413CE530C4D9A8D15C
:10142000E281E0FE984AF3E4FE2598F9D79530185A
:10143000F6264EBA15806010FBC23FAF17F2853218
:10144000D37C78C9CEBB40FA1325B3486DE598B973
:101450004904A69689F322B3C046C8D6990259A872
:1014600028B344FA8C846BB9C8FDDBC58044239B48
:10147000B734014FE0D70A124028D8144187A69804
:1014800092FC4857D877218028EEE3881F502069C6
:10149000C42221A590F4F8AF5906DC59B1408CDB89
:1014A000BB4299583E99BC0266512319BFCD1A8997
:1014B00008CAE5C0590C02A6B3F9FD35BC04F2E92F
:1014C000E0FE49AA30F3F6BF20A657E4FCE6CF467B
:1014D00012DC9D5AEAA7C944028910B309778E2805
:1014E0004EC5404888FF9BF7E011547E2154E059D7
:1014F000AEDDE2FDEEDF26C884F5E82CDFD3B916B9
:10150000AD932799F344105DED65EC51CDD3B0A7B1
:10151000C23F698B60012C80097735534058DED17A
:10152000440C01E790F8E0816666C880D3CE98F657
:10153000B8011C5A779A66BFABE8413C8803B0BF3C
:1015400020883DE08EEEF68B827850B0B93D48FCA5
:1015500095C630FE984593E3C592886AB3B5505757
:10156000B388ACF2028F0298DFCF8BFE49F1FFF512
:10157000B3C8BAB3203B5E4E3024D3519059669C19
:10158000B129D393C1B62238B319E70C402084D2D5
:10159000882140F8231A32FFCCB37DFFF8ADFBBFA2
:1015A000F34F27D36F38F3CE31D1C6D398FF03045E
:1015B00081FFB3B024486E66D8FB00CFC2B17FBEB6
:1015C000667883B5B168F350FCB5CFEB73CEE230EB
:1015D0009BA8A877D3D0F8F574AE6D0C084037B54A
:1015E0003344CDC30D318524D3B1C6AEECC5F91358
:1015F0003E3285CEF2A22721E59612FC7737DA201B
:101600009955E227E76F4F414B4982B8FFE0143705
:10161000BD11FFDF38FC67795DB92F89FECD44CB62
:10162000D356377BFBE0FE4E309EECFFDC40F1B33F
:101630005061D1BDBBC2B0FD667575B95AFF1C1DA6
:101640009E4DB2808CD3E5AA1085BDB17AB340CE51
:101650005A5D20367CD8FC383667EAFB20C44D9FA3
:10166000BD6F95B3FCD4DC02BB5A3533DE42372064
:10167000621EE7B808E0C4878BAE90FA6812B580A6
:10168000E0043760FA0010E4B3280B0C39B320EE05
:10169000800CA033E0549E09ED72B3F976FB60062E
:1016A0005FE8A88457D736B7307F9796850C4E767B
:1016B000060140E049CC85AF03CBFBFC16F3EA18EA
:1016C000CA7B0F3701669E1453DDB0FEF6F957D67C
:1016D000605F64D72FAC781057623633B20EF6A530
:1016E000D5F8F3E013586B40FF19879D8236AFFDA4
:1016F00061EEBF292388F3027F5976AB32808C7C60
:10170000D51B8813C51858F961CF596CDDB0B0B836
:1017100044D4AF2077EAAFFDD420CFF31518DE4ACA
:101720000220DCDCDFF7BC083709C8FB2CF20931EA
:101730002379B46CB6196C8BD0FCDDD8EA0872132F
:10174000CBD0FFC218582F089AE880C53414964DA4
:10175000FE1C1977FF96B088E3EC32FEAF92B032F0
:10176000C3CCAB5D5D88B0FDBF56AF0176410FB60F
:10177000083056EFACFEE519FF85FA636FE6547F3B
:10178000F62B90F809E6667FCBCA540BBC42F3589F
:101790001BFB323FCB4C6D56CCC4FF2DE133FC7BA1
:1017A000BB8061127A03D840CC778BBCFA802CBF07
:1017B00040FCBC2FF3B4C9CFDB018173BF6C298E11
:1017C00035C3D54E208DE67BA0C572653320F5CAA2
:1017D0006C5C30FF12FF3220B001475FB3B8C6CA5D
:1017E00022B0A080EBCC47EC3157CF43FE95B0F947
:1017F000CAF53B10B1DEE6F32FA412E6592609B173
:10180000A0BBA6A0F99608EA1565337D949FE4BEB7
:1018100075BF0897CAFE8DE6C408BFA4E502F3535E
:10182000E11134F322F367929DED4192D701E30673
:101830008280F1EEF36CE3C004FADD0318E49590C6
:101840007E6FB60419F34B3AF3D828058FE6CD0422
:10185000E81460F8504DCBFB28286EC0A32BB86A63
:10186000EF6999B8FC1506EF868B10F47384F3EAE0
:10187000300486B632052364A816B126029110E31F
:10188000BB224208F46A5DB2F1D18CD248F7F80667
:10189000C8FA28DD81FCD01E5703982355ABFC10F5
:1018A00037784908881622BA049802E304F701122F
:1018B00034E982C43ECCDFA6888E10C93CEF817B20
:1018C000CFF0FA5027AD89D690802BBBCE8043C095
:1018D000D68626FD1A9740E8B2D26CFAF3F36D2350
:1018E000F49411E7E98008109101622B678893F95D
:1018F00044E03001948C78B3D865FD53E69DE6ADA5
:101900002AE8D8F8FFCFD8A05D9D7198FEE6603731
:10191000969978C76B083B7BE40801D613FA30919F
:10192000B1C093173D450872B3FFC3951B80B8B68D
:10193000B263D466082C621A59B030AF9B3020FED7
:101940001431E8FD58161092CCFED0E5C53420C203
:10195000DFD831D85BABFC041A6F92D8FBFBC60A08
:10196000BDA51062ED6490FE9BE92A04A6FA9028BA
:101970000802A0E4C2211B903F49046A20A3D0D2F0
:10198000CDC27B76445E994FF30520C8FE67FD8E7D
:1019900079A0B6EC8911E57A80CB3CC110DB3645E5
:1019A0007538B2B306DD830137CF1EA00862593CFB
:1019B000DF2CC8E001B0AD7D33036FC9A903057BFF
:1019C0005490F9671284FD227CE513020A207B8083
:1019D00018ECE608D2480DF941E7CE100A021F4C78
:1019E000243BF722606FED3218217D5904C5164261
:1019F000951495A3CED52867F6B909B9380199820F
:101A0000FB63FDDA0C02FF4F100BC64022FD842160
:101A10002041C8FBAAD91ED5F80CF9800770201206
:101A2000839878436876247FA01C811BE030446350
:101A30000F169FF9F306C08318F3E0C3013CDB885F
:101A4000FC1B66A6CF06011461B6602FB1A905661E
:101A500001AFE8A203898F392FC6A4C27C01D9F354
:101A600060CCB33022CFB3488F4360024140D9FDF0
:101A700025B62818B3E14CA6D320EF87C10B3CE86C
:101A80002CB001602CB847ABFED4B842F95E98B3D5
:101A900080CB19C6799D84594C1AD49E82D3200AD2
:101AA000213AD07CBBA8F81AE53801B2650CDBE816
:101AB000FDC2FD58468197D619587B8AFF14F1B0B4
:101AC00039D92C08BE2EAF6475980530409678DD64
:101AD0005CA53009800C92EC3CECF4FB084F948040
:101AE000902D462E23B3F1EB488C080D111BAA3321
:101AF000EB210882845EB6D812AA9366021472B3F0
:101B0000840B14F498443F201821134BAA029F0819
:101B1000C488400420FF44020C8401B00818B3FBC1
:101B2000CBB5F75C12FAB860C53D980381F11EC8C9
:101B3000C002660E645607E0B0F0D318400F304183
:101B40000C74D0F80667AFCD14F3B815F69804C13D
:101B50006EC310F0A52FF34ED7E91078983D41FBE6
:101B60008A6E4CA06CFB8C57DE9840C044981513CD
:101B70002D8D021CB35A20426E010CA17BB302A032
:101B8000FA12FBCC4F6C9820484FC0987850408296
:101B900010AFFDCC24FBD5F542080901C3934D508D
:101BA000625E98B740DB5D1038652BCFDA8A6BED4B
:101BB00084016C49475D62E02014FC9AEC60012CC2
:101BC000EF5DC860CB30F0FC44514057FD17738B7C
:101BD00003C05D170AFBCFFA7FF56E081D839B0DCE
:101BE0001213F798012448BF50A8F7D6F1EC1A0059
:101BF000A019D29BFC0413F49893F6FA4C80892721
:101C0000E09820A274480423E05FC03C66C0844092
:101C10000F0A42220CC708302C5747F57FF0EA988C
:101C200003F698E201C53930905E98B483E2303F04
:101C3000D3C098600E601CB068F8562DEE980480F2
:101C400041C53930A22DC3B8308E66343676F320C4
:101C500048FC23F83208EE47D384B1093F66984622
:101C600050B34897E00DEDE3DE9883A08148B3B010
:101C70005BF8FF1111B396A9A3D321D810A18788CF
:101C800098501E104012212F08208C30F1A49FC7BD
:101C900030E9A7723040C4456633FB695BE5623DBD
:101CA000FD6FB569D491666EFFA604F350FCC4FDC8
:101CB000988042B3611311F6980C109C3018900371
:101CC00055D6B2BC3035B81AA5D0F17FE0FE313F11
:101CD0005E9803926249670147C5249892900FF776
:101CE000B20DF1383B5D844DA91AFA88FDCC64C869
:101CF000AE95D8371097B8980116A81F58100B2228
:101D000012CC8001C00AAED3472160134C889D11CC
:101D1000E6C8FF8BF1306A122CC43D983CBFA0CBC3
:101D20009829A8431C2FFDE430700A0EE7301058A4
:101D3000FB627AFC6BF69F20665C4A5C615E98965B
:101D400061F3FE98DF83609EC82089FDC44F19EAC5
:101D500040E6304820C43D98303003513E9C482333
:101D60006082B422BA647AB31A082056B3A0767B94
:101D700098FE6938FCA86BC230ACC5BD985139E2F9
:101D8000080DE00E04BEA3BE3752F7C7041EC8F903
:101D9000C632C8ECB17C4F59980839B45A0828AFFC
:101DA000B5969680621960D7B7648009D3E08F67D3
:101DB000F9987EE3A057C1D68CB78F8038F6AE086D
:101DC00071E9400389CA12A3FFAD3CFFFE7630845F
:101DD000800422673F191651248808FE090A810DE4
:101DE000801084E2D85F1A22FDE001BA99C23089DE
:101DF000E273F6980B028B66CC6DFF7A9830102652
:101E0000A1D0629E60044080363021BC9870D10819
:101E1000647C8C800510D9EFFB9DB628B446D79220
:101E2000306094C47C986090904C0EE018CB26E80B
:101E30000C5E7E3078400EE4412C7605FE0861662B
:101E4000AF9F98C850812C47C598FB7CCC7E83609F
:101E50002065D34189A72030612FC0B510AD313343
:101E600062DBB32208D4B3019867FA983460B6589D
:101E70004348E30B68019AD3B0F905F35E98285CF8
:101E8000F30EA8F8E0DD2CCF469828B842F53F08BD
:101E9000240167F99830FC90401DEAA40CE58A8083
:101EA000FE98DD1001C830055BC4FC4D33BD0DCC80
:101EB000106D842C014F973041F130FB5646E0F90C
:101EC0009B3B0190F92DB3606BD664BD172C584B2A
:101ED00035C8B0EAE003E924F18738067ED7E05C34
:101EE00054ACB309BA64D7F5CC90E5C9DBFD401119
:101EF0002E677D301A459008816AFC345DB39DB72A
:101F000020090803CD3BD2FCCD76DAD311012FFB9B
:101F10002598172C7E9806C473C84680A0734D235D
:101F200061FC0259C8F516C242409F04048C88091E
:101F3000375CDA7898D94B047E98E94016C07D0F5B
:101F400089621C6279C8AFB135A5D112F35E988160
:101F5000C871AE407B303C1008FAFEC2C53C980503
:101F60001089E5C873300803BC62F0F1A93AB46186
:101F7000E530F3FB962C4EB5B3286DFF0EB3F2306F
:101F800011C473C80681909AF740236820B5D5160E
:101F9000C4FB31094E0D30A8B9FCDD40BD12640808
:101FA0006D9DC81A40FE98D80434A72030843F9B0A
:101FB0003C802197E08231F4204C838624DB561547
:101FC0004057363040189E982C664F8C308339C568
:101FD000E0A3A70E50F348FEC834B32EBD9744F6D5
:101FE000F9987D7588F130DF5FAF1E1598ACD6D9B2
:101FF000BC30AE4165EA40307AFC7DB220FBFED0B9
:102000002EB32DA4D875309067F5C5084060EB98C5
:10201000215F392D1A84F10C801130B7F8FA9EB384
:1020200045DB6022B7CB020B6BAF21B0623C301AAC
:10203000207CB3180103608DC081597B81C080C9A9
:10204000200B4F9ACD44B0E2FEEB0332968D78F927
:10205000C8EF06C083F6983C10C4B930F01706C428
:10206000C6001ACB03E00C5CFFC8191002E4013C67
:1020700020EC78F908DD23FFFFFECFE31713E530EE
:10208000047E5F085D66C53DF684B9C8326F81E69F
:10209000D358AF1444ECF2B3EFAA088220623C306C
:1020A000D716C8B0C5236A398DA291917F393013F4
:1020B0002012E6F6093822D8BE980979C5E7767667
:1020C0004718537E208122969003721905BC98B35D
:1020D00084480D7CC5EDF2340A3DD7088021BD98B7
:1020E000020595A6FCFF617FCA490033C98C66A52D
:1020F000A102EAE140E973B42BFB743480666FD629
:102100009BBE7519BAD30CC47C9866BFE0F8C87B37
:10211000D3200AC2BC4B2AE323F8039B7580FB1033
:10212000F398B312887058068608495E17E9C98A81
:102130001B1AFA2204212090EB44FEE09F65805197
:1021400010224068B3C7C018F711036224B4CF4609
:1021500042ED774539ED05B108969A01FC30C7216B
:10216000C09F24F111201444E08285302F1F985C19
:102170002340118C0480F33DFDE826F25D1EC00370
:10218000FE985C507E9F3F99C83C3C6A666AABAF44
:102190006827982306D08334D30BE0AE20F8841C44
:1021A00080031A3C0EE00100FBF8FC08BECF688DEE
:1021B0001809F3D07DE6A20C02C980D5B3506AB3EA
:1021C0009D48ED1006A680DFD00484F3BF894BFF45
:1021D000953041F7CCF7171204B20255B380D8A955
:1021E000920B200EDC316665EB8E2930FF0216D192
:1021F0004010118B60E2014DA0CBB2EF4DE78C1483
:102200000C4390205B966346FF71B3FEC15C2E7F4A
:102210001A2FFEB710DFFCAA4CFA20B2CF0CE2E373
:10222000F338A4F3B573FF40D30D47A8F3C8F90101
:102230008243FF89FE6159668E36D3BAFD1EBF7296
:10224000801810031240DC0C481702F8F3A07FB787
:10225000BB587308C7DB6E9B73FEBF02D1D0F8BCBE
:10226000FFF2D0DEF3B150440F33D18CB5E3243309
:10227000FBFD53F90F3ECCCA01E668B1FE03363FC1
:102280008C3ADE38FA2EB9030267A596E0B3824392
:10229000FF98FF619AC904C4CCEB58B3C6FE2CB8B2
:1022A0002DC916F4FFFEF26819B040AD68415F1306
:1022B0006FC61D4FF65578FC24D2B10265B9209047
:1022C0006E6779841AAA69AF8A2C33025506206793
:1022D000FCC4BDB4D38064F717122041902F0821AD
:1022E0009AF7FE67960352EB4941D52A806AA27796
:1022F00084925FB82CCF9FD77F0A8D75EA20CCB32C
:10230000440A2F4A02A440D9A105EF1901901434C0
:10231000DF8050A51CAD1F15146973783B3D030C7D
:10232000349F38F9DF666D51064C7FFD6E22200424
:10233000509E04397D4084754670BFD4FF80148858
:1023400003164056D8A6092CB8F9C25F31E8C1D9A6
:10235000827FE87FFF05CFFD6004AAEB01CFFBCCB5
:102360003FD5B840F7BF79E5D921D858FB63EB00DA
:102370001015EE3C80FFDCDEC107AC6467B6174089
:1023800014AFE80A5870FDD758315A66D8D8FBD236
:102390001C01C5BAAACC5A9702ADC1B8327BCE5C3B
:1023A000AE80B8B3447E9EC7DB0F98FA0C746F867C
:1023B00065FCC08847B2897D58087A5150DBEF7FB1
:1023C000DB29F24EC20F37E65ED304C66BF8F21477
:1023D0000C36DD490289170E58B126E9FC694D8695
:1023E0000BC62037E9B70DD8B1FD63D40BD2A2409C
:1023F000B3C3C51920F903D780081C50F2B0FFB74A
:102400009480107D77DDE8F60877B614E0F819AC13
:102410006E084FD6461818717DB9BE9FCD7858FF0B
:1024200085FE00631CFE2C666396D6803BB6DF7B80
:10243000F550FA6386323BEB99102DDAE8B1FC9542
:10244000B5018DF6B608C95EDF80A3D810FF7DB751
:10245000EEF22310F65CC8F8C5C16DB1DFB77A5B48
:102460008620AC53FA648DC63D9E806B96D6528111
:10247000406C66F931EF711040026ECFBF40812190
:1024800041067319FA0A631AB1B140712176BD4051
:10249000DD2047EE9361160508DBE0FF6E8688E3DA
:1024A000C492F302F2B6C311DBE204402033FCD441
:1024B000967801E4C0B478AB0B10DA9614FE42B8FB
:1024C000269B90DF53F7762802A586EA480A7ED637
:1024D0000308C00520CE47B405818584C702824C1D
:1024E0007F2808690CFAF374145404C64A872880BC
:1024F0000E100DFFCEAD128A884BC0D6F9B4818480
:102500001030BC03622086DE6CCE07EFF26C2680B2
:1025100086B710659303F4AD0273FA646041F62A3E
:10252000333AC2710AB470DB9613E9D1630D8A792C
:102530004B94502E851A4FBE22FD2430A75A641B9F
:10254000063D3420100481039E623C2A76AD690169
:10255000FBF908B7803985F6B080FDCBF1BEBF6EC0
:10256000A39601A2794EEAB72037E034596E3B8139
:10257000205FBFE4EF4B0920015046DEA6B3A991CE
:1025800018FDB16123197CB7CE23B19DDB7ED0FA53
:1025900016E5A201849E406572A5D8C28DB1E39E66
:1025A00051EE2086FD17B30C973A02984D5BB74069
:1025B000B63268FE8B2C201BE33A1FE55D20EBC092
:1025C000F817CAC8FE08C120C6F6C7CFF67878FF4C
:1025D000C5D6D404168062EC8010FE6736E7023B55
:1025E000F6D157982BC9198FE8E9066F9EB7EFB15E
:1025F0008843661D576840DBAF1B10FC40D8EEA433
:10260000CA6620C25CDBFA08ED3502B346F9686B96
:10261000763417A210B6F3723CA9B649F309098CB7
:10262000FF71D3985EE5F60C8001C46A2D08C5CB16
:10263000CFBBCFC02033D625C0CAF79068B3048083
:10264000FCC5B234C2ACD25C4819306CC5C2DF31B3
:10265000818634300AF5768894ECB5A367F8B8FD26
:10266000FC3C88B30756C3063082AF3CBCCA26C9BF
:102670005A1903B7F738FF79FC8C99C3E66622EC48
:10268000B6035D66F9FDDE26C198E2D88808C9B3B5
:10269000EB6982126EB318F8CB6B3FC09831EF3103
:1026A0009836E544FEC23F5B980C7DB38D3DD380E8
:1026B000F8FD60A798C5E1B3B20904D9D380624D93
:1026C000DAA1FA19DEC527962637E6982CE2CC1255
:1026D000FFE5B06293CEFB6018FC7F09B1D36F6653
:1026E000299AFE193D58F969E6987BFFFB80B141B4
:1026F0001E31949EB1FE97456BF98096114D7396ED
:102700001801637E9862D9F5D8C8FD69EB98886F87
:10271000B2CAF32EFB46EA08DC30CB88FF6712F31F
:10272000981EE13044623C30F170FD0410988798A7
:1027300034B118BFA86BA022CF7D5CB0FB0444303D
:10274000855E986AD39B83FD4C75EC83B7F048FC9B
:10275000602C3C31F598012C8F02EE7630F0F808B1
:1027600023CD5D18048F7A9883E30E3938E081FE1B
:10277000917798C555BBE3C063C039B3B0F4FF206F
:102780004434E0B0029BCE981DD36D406078AE1605
:10279000734088F87893B0E29C66DDD30467F378E1
:1027A00050FB69F6C5131BB497D3F67EC48176AF90
:1027B00015FEEE191028CCF3981ACBE2C2D326DB13
:1027C000A011CD68E7FAF851CCFB7F1D5E0B04D356
:1027D000BB42F6DD096BE5A8F99660797FB6E206A3
:1027E0001032B46FFB2F60398C5081FA8161978071
:1027F000E5A301183BF9CC11FE01621E4BB198FD17
:10280000D7E320ECF481E71968FE20BB08ECCB2766
:10281000E33082D33F9D30812408AFED9E03BFCCCF
:10282000FB2C5225331FFF6080019BDEFED8F84051
:1028300051462B855FCC15B6AC6240DE673008F997
:10284000530102614F0B30CEF99D204BFD903BFFB1
:10285000E0B8FB040830620BCE051BFD3208E36BC9
:10286000AB316C846DAEAFF86040E39F09F8309BEC
:10287000D3F0205F3398B74968D8FD088FEC7F18F4
:1028800058B5DDC30272A840CDD99619B380CE19D0
:10289000DB211B3419592684FC30CD48F80506C6C7
:1028A00096167898AFCB0098DBCD98B525CCB5FFC0
:1028B00030EFBBCB98CDE5BEDFF3F3DB52FE60FC1F
:1028C000C5C28F5B9820161699AAAE3639FE28FF2E
:1028D00030C5A3D49801D37B6420B0D90502991BDD
:1028E000FB5AFA801131BCC5CD31CEBFA67FBC0BDF
:1028F00001767D9045ABECA357F852F8E0BF01CCD0
:10290000C5CF589804F7AE9803F3983B3EC870FBC8
:102910008401C4379618B10873B324D359C6BEE5F1
:10292000F7FBFF8001FDAF854419F9BB90F6A611B6
:10293000ABD92157F8A0FC202C4634F198BE01B742
:10294000ADD602B87DC4BD98081D845E9867EFF6C9
:1029500098FE018979988CF5B1B816B3ACBDB7C0B3
:10296000F2FD040801C53309FECC0509B78098DBE8
:10297000A1897536AA10788FB3F3C50B7562235EF3
:102980004BDA8051ADEC8BB749FC5C30621E98B1DC
:1029900010FF11984462E2337D98F8D8F9888F804F
:1029A00098611FAC9880EF0398FD0290C35F769802
:1029B0000C0804ABD9236F5898FB97AC988263CF6F
:1029C000E4FB944E6C302108D73818FF806DA64A7E
:1029D0003E6467ACE040D6D348FA58058FAC98C047
:1029E0006419F3E02F2D73BFCC589BFF4E8010E588
:1029F00030108AF83B96D6D3EBB9086EDAB143A60D
:102A0000E2E2B344C4BE7FDBF6AC026137BA3C0BF2
:102A10006DFD28D63083CC66FA600623ED98C4039A
:102A20009BFB9002656604A11936C0036277F6EC41
:102A300060FA25FBDC10656D80AAB350D8B3CBD506
:102A40002241B1F3ABE291FE67F998FD45B3100561
:102A500066A49A194DB320109D9DC8D0FC8BFD48EB
:102A60009EB363EBFFF8BD4B804D2802402C3C0128
:102A7000E3F338D1C718D398FF0C1206FFB324C173
:102A80002166FA88F9C12166D8B4FB33F84093B1C6
:102A90006366F607D4E00339D318DEF908BE46DED4
:102AA0003BA66079B175E99AD3D8B1F925FE3260B9
:102AB000F39D0ACCFF59CEE8627EE52C483358FFDF
:102AC000B825F998870BB302105866FD262C66804E
:102AD000313FC9CC9B4336FCFA16ACBA106966FE8E
:102AE000EC804010FFEC16084061CE88628BE9084C
:102AF000B7F9FA812005464D66EC910261B308965C
:102B0000A0CC77AD9B5A59B324F9F9CB0104E00965
:102B1000DD3420080C8BB6E448FC177A5F08C61B2E
:102B2000E5B0FDD6E040138BCF4B186C8254FC32DD
:102B3000F3E7D683017EB6D788FE0EBDB163FFC230
:102B4000B0104BEB17034DB340621A62B1023E3036
:102B500054347FCC8063BEBC63F9C86FF6EA286644
:102B6000B00CCF5BFAF0FB04B3190399B30161B267
:102B7000C420CFCD7BFC896E0E08C346A218FE058B
:102B80004086DDB267ACC6F839FBCC3FD613900661
:102B90007FACE5044BFE9DD8F98004C7BE0BC7FE91
:102BA00085DFFB32FD0804721AFC7F800B1010CD0C
:102BB0002E448DF1D42947811602677B65A4FF9BC3
:102BC00020EA26BD4803652CD0506FC2EF9483AD38
:102BD000ED01082856ED50ACB330F80B218CDECE59
:102BE000EDFA14023803C4FF85D073D042C036FB1F
:102BF0004173E5A8FE6097EBE580BED0252099FDE6
:102C0000CC04018BFE4D08F64F8120C47B8B108CC9
:102C1000FF58CB5FD7BCACFA22FF66ACCCF9A02141
:102C20006CAD802DE915D0657EAC0AD5EBA896FE7B
:102C3000A008EDFFC9FA825FD87F69DBFE4012FE73
:102C4000F3F0FDC383773FF646DC1CF27D10D9AC70
:102C5000086CF7B1FE4FB152DE31844EECE048FE15
:102C60000F0CB07BFCB3D3F5CCD0EBCD0B7FEF9F3B
:102C70008882F8607010AC1225F4EB20ADFEB5D45C
:102C800052B3C0FC83DFAD68B22EC2F54BFBE8FA4D
:102C9000301D06C003AB9B013069ECBE0340B1ABF5
:102CA0007ED917029AB644EE8705E2B3C296460370
:102CB00085A9A3ECBB027069B1441E31FB844C02B0
:102CC000DAC4FF36191858CF8C0846C8107BF32C8D
:102CD00080EC9130025866CC65B36021EE6B7C705D
:102CE000F869D05DB61EC49E0A833C0737F3163ED2
:102CF0006D0FE2013C10C5BE7FCC519A78B036A171
:102D000028FA8A6620340972190806C003E4B30C55
:102D1000D88130C699108466541D2DACFD16B302BF
:102D2000EBB30296B3013CB3B301D6B305FD17B2C2
:102D3000D07DC510B602FD3B8484FE985EFB4BFC43
:102D40001C50194CACD97A80DCDF2D5A56F8063766
:102D5000ADE708FAA1231FB0F7F8F9EDAFD9E93EC6
:102D6000982CF7C5A08089FF19D9FBB604F59808FF
:102D7000A9D8FE4D617FB3988011ED72DAFA04791B
:102D8000989019DA46C83EF84C90913041C6BC98EC
:102D9000CFFECBAAFCD7C598B0A9927998A3180FFB
:102DA000E0D8013CBED902E219D39BB0F9083BB789
:102DB000170618F355E698EB54A35E51CA28FB8D0D
:102DC00098B3FFEBCC51CB91D74B347B9808446D33
:102DD000E2993DF23BE45E84B0FC9D1920BB08CD36
:102DE0004B7CE8C2DCD8740192ED88BB173873F5D0
:102DF0001C046DE6AEFE9863DC3067F6EB98E319D1
:102E0000CBC56FEAF369BD9818B021C78930FFFDC3
:102E100071BF206F145A1376F409BD988069EC983D
:102E200011B206147998373A90F8F7871080D912C2
:102E3000C01C30ED201E047C98C5BF7FC0621E9868
:102E40004BC1B85D8596142D92F4F2581963E4E5F0
:102E5000EDDA28F988B35ACC86B35804C33F524BF5
:102E6000586604FE5A3044FE9110565B5CFDE1D773
:102E7000A44598984CFFD7A031EC9AF9E346F67E2A
:102E8000C337FF8088FE7FE978C071806DEA98C003
:102E900039613680614F9E367ED191FD19DAAFB52A
:102EA00008152DACBBCE19CB56ACAF2C52650A1908
:102EB000B0F36656B3B008EDDD6509EE98105030FA
:102EC000C292B6CD476A20193C232927DD98F140EC
:102ED0001EB7183050182BD3CB984FFC578014DAFC
:102EE000DBF8E5B15C9F31988E9DECB2F3FD99C79C
:102EF000CAFB98081819FA6ED8113152195FE6B654
:102F0000A8F59810B70F30A8D1228269FEFA1005F3
:102F100001C276B42010BB64FD6FDB5803CFC63608
:102F2000A458582053E5E4CD7D88FFB7AB98C4EF93
:102F3000CC6523064059FDCE8060C2BFA2CCB3CB86
:102F4000C8BD9842ED0840105168447B4880084E47
:102F50000D30226142B2849937FE0480BF01D698B9
:102F6000A39E985D00BF28BC178C8005B0A5A06605
:102F7000BB2F40B5FFF79816C00169EE989007F097
:102F80005F16EE98E2413CC2866760019BAFFA088B
:102F90006F3F98EECD6DF3C140BC98C28E3FCA7BA7
:102FA000F218F85F1B98648957B31680081E10D179
:102FB000B3B06157CE7F73E0FCD3CB984D74BE1D88
:102FC000BB1402700DECE2100527F3E5DB3C9CFF1F
:102FD00075F10390E678663718DE56FFB690E2305A
:102FE000DA533D7123202F0C4BF6400C0B1DB3D050
:102FF000FE08FE98922419BCDF37C84833B28828EF
:1030000066056147E7CC11741BFA7653D566181034
:10301000B503F598467517E9BB81E1614749647DC1
:10302000D4D771FB9DA5BB591E57193CA007EDF1E4
:10303000201639304159C8615F3730F904FDE66622
:10304000D583C9CDC808B7589150199B41FC9B6FD7
:103050002F98325817B3983EF64C8201B008C2BE82
:10306000ED1740FB7D981AB540F6F6A0266EE78274
:10307000FD7F4D799884D97D4AC9115AB3FAACF3D2
:1030800018ACB005CCFF6DC910BD98186A169B0C22
:103090008921C6F64F42C5D6C80422194BB3685FD2
:1030A0007B981418408B6E99B01C8838430B0A30FB
:1030B000B0119819F59F72D9C82EB0CF3B03612487
:1030C0002BFA9F2340C002180473B3901162D92DCC
:1030D000D85810A6DA46F9987F3C03787FBD9888C7
:1030E00007F420AE58C8BF2C301E4BC3989B85FEFA
:1030F0006F019883B2603D98106399C8B1184CED88
:10310000C8E1FB7D98580203D5B3A46BFC754881D8
:10311000D8B30A4CB37E75C870FDF3C5ACD0F418B3
:10312000024013A17F3B89D40213FF8728B1484E88
:10313000587C1097D67F4AEA771766141B93E5C828
:103140008FFA8FC0C5BD98A0BDF8B3F04A7D83DB70
:10315000E0FFD6407F4964F3F6629F335A8F628A5C
:10316000B1B8F298714A100458AD0BF5E628B4983E
:103170005B9689F963B798F5CF685450C8E5660A3D
:10318000FC301CDDAC8CC93016F47FA7B84CFD3187
:10319000021D88A50E60DF9FD74BB49888FD264599
:1031A000BDC7307AA504EF4B98F1F34CF6C8013C4B
:1031B00008A26497C95866909F93982E58FAA30462
:1031C000DD80665102A9FE986FDF5A403080046AA4
:1031D0003C652CB3804FCE98FD01FE71C209F5C746
:1031E000F96CB3F680441811DE4BB1041ED872405E
:1031F0009AB329BD66FB637CA96598B3FBFFBCFF4E
:10320000BF204B6F297B3C016719F3C6D138D3C06F
:1032100098FF6090FF36B328090D66A3FC82126DFB
:1032200040D1F989D7FA20D97607869EFA9362644D
:10323000CA8068D36602666BF8CCFD8E36BE335109
:103240008CD14CAEF3D3126CE7FBFD147E32825569
:10325000DA02B689010282C7DAB820C2A6FFC0FD31
:10326000C6FC4EC2C5FFD889F6FE12C2D5BA20AF41
:103270002C30FC12FC4BC17DB30161A3B388FF620B
:1032800080012F02FD1E10857DFADAD8FA2DF62076
:10329000CD6DCBAFDBDE04200913B7088B8076AD94
:1032A00062FE3769802FC715EAFEE4A5F341E5A663
:1032B00048F930C254B340CE7F80CEC8FB0B56B223
:1032C0004044C935E36C582004542FCFEBB1DB2CBC
:1032D00004FE1031D3EFBFD5AC444CC9D5B3206741
:1032E0009EDC1262C6AA7966ED3345FD82A7ADE584
:1032F0000896704080B48D8144858DB3B8FD826F8F
:103300006CFE0447AC46336CB3F8FF38E3843D8170
:10331000D8626B19080D16191826666DEB53400B11
:103320007ECCC4D666021A7BDDB8FE60BFCB3020EF
:103330000D16B389087B49B5105866FE13FAFC6177
:10334000FF9F4A96C808AB6A80BEC5C11D19015CC3
:103350007D6BA4FCA5B002A4C6C51BD410FC12DD75
:103360005304B745B3615F7617C8FC208A1DAAAE27
:1033700080C2BFCE7924C930FB03046FB37EB9CAC3
:103380001061CFABDD01D6E5FE729F08EFB0D2D160
:103390006390622D191040B1A785ADB30CFF9FAAB1
:1033A00020085C2402AC617B6678F99612BB1AE5B2
:1033B000C59E41DAB0FC67D52008028122F23C5B51
:1033C0006702FE8341CF596320C1B86C2097E36840
:1033D000FE4042EE2D2C02CCF80AF628DBFDA0269A
:1033E0006619F605C6CFB36041944136D7D0203078
:1033F000FFA480DE84337C02A0436A180420D481B9
:10340000A470D9EC5E0CF04FD6E540574BB22C4F70
:10341000D09722CE3BF82FEC45A3F317FD7C4096C6
:1034200054B2403F9CF0A1FACDC59242FD6EFF60C0
:103430005C1008DB419786D8B64FE44DB2ED70FCC6
:1034400010D791108B5049CC472FF2E46CBFD4FDBC
:10345000FFDAA001826746A6166625A0C16F56FC5A
:10346000201CB6B3B8FF31907C585DCD7D38FFA1EC
:10347000F697F60E197E7F40BF94506472CA08C357
:10348000FDADE1B0E3C3CCFA5B3B95D8FA28EFC3BE
:10349000D55A9099F67F1E365988FF27FB68020C93
:1034A000DBB338FD1CD3C30AF367D89DF9FAB4081F
:1034B0009668B640EB440BD4B150B3B330B8FEC3FA
:1034C0007FD1CCFDB3E6666911865FC8D1D0FEB36B
:1034D00098C9D842016C5FD988FAFF85B646CBFA05
:1034E0000BFD93B05DB1B31C3DE7016A57B00FBD52
:1034F00066E8B3FBF9E206B5023066C3E932B30809
:10350000B3123ECC030D95B380FD32340489665E60
:1035100024C30FDD7FB4E6983EDA6E5AB106B6DA00
:1035200070FEBA273B11F54C1897EB980808FB8DF5
:10353000D09BF9E0B03007C38EF2F76BFA0466CC8B
:103540005E43266DEC60018C2FED06392C193CC5CD
:103550006607EDF97840861E98EC68FC08EF977FC7
:1035600058986663EBE54BBB1722608AB3D770FCB3
:1035700099AE8B19060DFF7FB0A3FC660FB464DF14
:1035800089CAB320B3083F7F0161B73B30F8FE081A
:103590003BAC17385D19D2DBFE0833CD9856BA8C98
:1035A00017B6B270F97F20300730DB9A30A8F9EBFC
:1035B000FE35190161B72E7D31331939301661BFDF
:1035C00029304019046BD67B6EAC6A0D2F6CB3307A
:1035D000FE432C66375D1920A66267DB327898B00F
:1035E000AAC32CC8E6CA8020D8F7C2F6669AFDCFD7
:1035F000F59805AAF88CC2F66660FACEFDE380B7AE
:10360000EC71032F686610FCFC031358660C5E66B1
:10361000BB71367B1227EBE52C0C3F32F936683450
:1036200061ED871AAFBBC86C963E37BAE530FD9E98
:10363000EDD805016DFD7FD8FD9DED17802286EA4E
:103640005FDAC8C8160A616686FD17EC28FD085BBC
:10365000DB980F020BF5AFF8A318FA04556649DDA5
:1036600017B3113C98C375B3302CB30411BD98D86F
:1036700076C796608BED9898FFDC30608BEC98D025
:10368000FD06091E98BB926CE3578C3030D4AFFB1B
:1036900006091E98C0B8F86091EB9851BD98126069
:1036A0008BE0981DCB30062F56AB04137D7F9FEB2C
:1036B0005EA83F8530A986DE987AB338E5F70682A2
:1036C0000FB89858F80C1B2405045F6698E8FF08AB
:1036D000B0E4F71806E666146BAFB01066E52E711D
:1036E00030DE4BB71E58660551EB983C31F148DA95
:1036F000FB1864C8161879989FFD45F0FB2CFB2237
:10370000B5B30486EAB3F8EEFE2401966302E61927
:10371000DF28BF81CC31F5FF128C7356A8FC765997
:10372000766BED06735D0CB930084250C6CF6CB3B2
:103730000302D3161F680310FF7E85B7199EB3B22C
:10374000458DD956F8083666D0A0F969ED02C04417
:10375000FE7F5A0BAEA84CF5B8029DFBDF307FEC24
:10376000FA8C01FDD796FC8CD290F02B1E668B80D4
:1037700001DFC598E6B102B2AB08C9F5A50F9E6698
:10378000BF08A417662B183819FFB6B5DDD650BA96
:10379000B330C67EC2BE326CE005C3B3546540068A
:1037A0004FDB681811DAB3E0B830C22E304E8F7C90
:1037B0003DACFF20DDCF80EA4B40593C01C6F371A0
:1037C000D18E17D39898240DFFB32C824366E3F86B
:1037D000118AE5FCA0C40679B18CBA66E9FE28F32B
:1037E000A5CDC2C87393C64CB56566188CF9D4DEF6
:1037F000CFF93FDE6172FFE3C096FB320675B3205E
:1038000085EDB3B8FD8C18C562B360A019B0404413
:1038100058B3FB6CC6B14055B308822B1990FF67B3
:103820007D83BEEF474030F9ABFD1368F88095BB50
:10383000F582D6F9881AFFB8D4F9B2105B7F082850
:103840000EDB1928FC049F6CE5DCFB09DEB0643F4D
:103850004CB30FD3B303F5B302608EB45AAF60C854
:1038600019B001C1B3FE609A66B0204758B3FD336A
:10387000FE3210C416ED0447D9ACEAE0E8586644BD
:10388000A1B7861F7FD8C8FA135DB1B30416ED083F
:10389000C61817B6B348FE0CFF32B001B7BB64FCC4
:1038A0000263233FD6FB0216BBA08088F953F62D96
:1038B000C63002607BFB1908801E59B370ABE3F879
:1038C000FD7781648BD4F2545401B1F58F5C4B20A9
:1038D000D566B677F8FEA6DD172CFF0845EC50BD7F
:1038E000FFE7406E906E982C9F25DBC970C33BF0BC
:1038F000FD02577B49803004C566108243B3CCFB80
:10390000B00A4858B3B0821902C38D6015FF08454C
:10391000106286E40F7A62EC8010FF19379602601D
:10392000FDA6152DA61A2BD63235FB539004CDB02B
:1039300049398CB30FD3B307FDB0E38DD90C6AF8C6
:10394000B106B6DA70FDC28CB1DAFCF6A050FB0C01
:10395000090E19E3F804C121B3C9D8FA08243BB30E
:1039600090FF180486B3B3FCC333C903F7ACB1129C
:10397000BE32C099301949EEFED8FBC18D190161E4
:1039800082B388C5F37B206182B3B8C58C6632EC04
:103990004D18B0664858FF89B3B360446189B38B52
:1039A00072CA78C32519F88B186662B3D8BAFB249B
:1039B000B6B398F9219DC8C0028E18CCBE6C96484B
:1039C00047FBCCC0400D7F3218622B19F00DBDE5CE
:1039D00068D8FF0C816686CDB332F988F1CA8EFFB4
:1039E000CCC01862DFCCB1FD0DEC96308071B3F025
:1039F00062FD31B1F8FEB07BA3F8F919FA0C12168A
:103A0000B310196DE381FB9BC881063DB0E37FCE07
:103A1000C8FAF9C13BFB3280061CEB713FAC7C5508
:103A2000E8707F8D4BB340821266D8F6190730C21A
:103A3000A5CC308BB719F808981921AFFF1058663C
:103A4000C0D6D80951ADDCD0FBDF7FC501F061499C
:103A5000B38BBBD318FE04CC9310F97DD82C663DF4
:103A600033B3FC98C2FFD89540AE981527F6FE01F7
:103A7000C10CB4BE7FC24F35BE31F8CE5E0380B3F9
:103A8000B54631658CB3BD96DF0B27FB66FC96AE61
:103A9000072E93B5045966028E66C00302C4BDE5C5
:103AA000F87F5817B947AAB350CD03B303631F3249
:103AB000B106E36673111B6FB3C8FEFBA408CCB359
:103AC0007DFFE8CDFB20CF807F5202404B3C013888
:103AD000F3CE31D1B3D304ECD8C82C243266F2F93A
:103AE000FCCDEB62CCF35F6C386BBD3558FF28E63C
:103AF000805193E0F398C066062C66E880FF18E3D7
:103B0000C1173BC491FA0257EC320E66B3DCFBC01E
:103B1000AD3119CE31B57DB23C96B3201F2C66FD78
:103B20004F36F2083EC7625DC8B3904C192B59B1AD
:103B300001C6CC0F7E98635F9DD8FCF916BDB160BD
:103B40007E98B31FABB3100485B3888139FBCC805A
:103B50000457B318FF02609066D8B8FD2598191C69
:103B600086B318FE7F10C5FF7FFC639B2360FFF6C2
:103B700032FE496EF3D8400160B3D880FA259866CA
:103B800063FAD920317B4ED8B112A1CF865D9AD885
:103B900099FC5ACFB101CE4E3003FA148094DC0662
:103BA000F140F36CA06CCB76E8A0802C4ADC48FA9C
:103BB00002B011ABD49A20CEB14037E6A0FB206012
:103BC00093C27D19C123BBB198FE049D6CAFCCFBA1
:103BD0000EFE3030FDFFFCB0F93DF4AFC0FD31B357
:103BE000FE60A998FD70503480300210764003BA10
:103BF000EA8004EE6B9D0824962E047AB80894E4BB
:103C0000D0FCE0200A020C068410D3B00A687425A8
:103C100028D3CDA8F8F530A1D7A8B3D8EB01D1812E
:103C200028E3C2F9CCE42D60068BEDFA94F706B0D8
:103C3000B6C06FB3070231E762B2DB6BC5AB67BEDC
:103C400053E7610C0400EF4B58F8D1C2DF4B190465
:103C500043E3468D2104C4D6B590ABF808C55C3A61
:103C6000B2F22C4FF5F488FE8081810AE916C0403B
:103C7000A101648311D2611165B0CF4EB385FD26D9
:103C800001937320668C6AAF7B854C80CF053060D2
:103C9000FCC001F40C8007F1196C394441F38458DD
:103CA00096563C71147CECDCD310E087180F049A14
:103CB00023F5303979F362C0803CC328FBFB013027
:103CC0000806C225CF057B666010CB0C02D6125EBB
:103CD000160689EF41200C17F22CFD9E2BF330C401
:103CE00098B3DC3316E0B293B3812383624C01882E
:103CF000ADB38052B3211E9BC0100A6CF3524C042A
:103D000090D308DCFF10A76FF6924E76070D0229BC
:103D1000E550E898029D1049087ECF3429B0A204EE
:103D2000D94FF4209B1278F862F94B6839662DF46C
:103D3000068845C3025246108318BEB5D17CD8B35D
:103D4000FDF34105B302C5B385B79D2FE598F3D9BF
:103D5000F86112038857B324188AE30383A1F4C8D7
:103D6000FF0CE065AD674256F82C23E796FAC0C019
:103D7000429230BC441AFAC5188794F182483BAF8E
:103D800013F996CDC686D6676CA98C48B395EC1608
:103D9000EFE80922624477C1124CEE1911D7FB44B7
:103DA0008F98A621F8087799C55F506DFB880F1191
:103DB00069B46080D31177EE2F784CE03CFD700A37
:103DC0001E1F637E64410C10D0B0FE5AB2E3FECCDD
:103DD000DBEC8B57574806305F02611FE5A5FB23DC
:103DE00018DFD3840120108380FACE36B358BC8408
:103DF00097741A11026977345E6081B3DD3820F759
:103E0000CC3C198C8001911BE89DB3821402299E41
:103E100081F6A0B2013F7221625E98A440FCD80DE9
:103E20009A44FD16EB90B410B706537F7F29245BAC
:103E3000F85BE346E1FEA12FA031F7E5FF18A9F8F2
:103E4000DC465EE86DEDB8D0FB11F719DC30B3014C
:103E50003C985810A70533E6C020107562BA41514E
:103E6000B3EE79987ACE0C52E66BFFEF5970A65BF1
:103E7000F2B64231C7256C4937E9C004F90BDE9828
:103E80005B12B9085904E78C8850FAB8F94E5312FE
:103E90001604DBCBEDD66B03FE0A622A6651E430D2
:103EA000C10F58041061BB44953D22CBCA98BFC1D5
:103EB0008CFD8445301190FA79D2FE987EEC7960C1
:103EC0009F5898038B19E0017F2F301EF798E2016D
:103ED0003D6DEC98200FD7E63CE932040606657A82
:103EE0005305031CFDCC06FE5BD76140EFD920FBD8
:103EF0007FFD9888CA81304F4219349446AE557A76
:103F00002402CE33BCD51906B87908FA600448B348
:103F100030B21582F07FC5A00C0C37A87ECC84523D
:103F2000BF1980EF5ADB90FD8866C80DC4B38008C6
:103F3000F2068044D2D43E2069EFA6E87C9008E7E0
:103F4000D3122104FA100522E0FC33B376E6D7360B
:103F5000C80C2A6247BE1173F69D9DED10FA74EBF2
:103F6000DD4601F6CCBE4FB505CBC8144F1008B3E3
:103F7000C22006A310D77CB7C8CD6CE07A9834D3A2
:103F8000D7A52112E69842D12F04626D6684047190
:103F90007DBE5BC8EF0E1080AC28EE8F7AF95E71A3
:103FA000166672B349DB9D3060128C8931B30132E1
:103FB000A802B30C121B81969322AC6742887889C1
:103FC0001D1280FFDF29647A9801DBD0DD58AC0F29
:103FD000451960033C90C00712D706C490EFE0B6C5
:103FE000B0CFC807E0019A1CF8FD1B59E3026566D3
:103FF00041B7AC986057973031FC9FDA1A0265D50B
:104000001D23F1ECF508849A8159EA17FBF92B96E8
:10401000CA028DB3212C8912B4C0265C19BF7A69FB
:1040200020D42F56FB4E819DFD1057B3C2BA6BE6CC
:1040300098FF6236842425E298D3B930185E98B987
:1040400009838423C974421209D3C4892836E648F7
:104050003198C804EC5BABF9CC98CCD1F9609C7F6B
:10406000FFE8FB7E5C7003B30279300E79CE888D59
:104070009419062DAF40FC5597FD4002D40FFC0C5F
:104080002DAA162621BB1CB442FCCC84B1F03218F8
:10409000D6604402BEE9235E63044408A671400171
:1040A0000C027BD2B9CA01AC1697A86682246DCDEA
:1040B00030080A89F6FF30361641B6EE6E390CFB31
:1040C0005FBF505872E8280C501D22B877FE3C881C
:1040D000D107F249CBB3E07F429878B1092CD7C819
:1040E000402B037095C701E398790CAF086B980ECD
:1040F0001059F907E0F339BDF818F046E321EA98C2
:1041000010316636170640843F4106DB755AEF5D75
:1041100083CE8401F749FB23CDB3BD98116FE69898
:1041200025F733F591CFB3818960014CF990109751
:10413000EE0D6A9B2C0584DAAF4A9980CBC823CF59
:104140009825BB8920892B6910DC981828407C129F
:104150000860F40290D55F767FBFF02085A41084BC
:10416000FD67ED69B782DD626765753A799865E844
:1041700097D74DF5E46CE3AFA831C81F58980A9F54
:1041800091987B7DC91D8E96C8C842600B673C4ADA
:1041900028F9A4087E2656BE984602FE98B125222C
:1041A000B4DB49BCC03409B594D48C44A2EC667A23
:1041B000B33102D9FF5B600AE5C81BFF7A9814C4CB
:1041C000FF3210E7310126D55808FC2302420C8249
:1041D0000132CC8EF3E7EA8C8409F63022E1FB6EE3
:1041E0007BC80180031AF398BD6B3259C85E985999
:1041F000D5DD0C20E9F510D34CF3811C1D88FD9B07
:1042000095C8F6F437E498D33C88181003470A267B
:1042100057CB2E8119BB40085D7BA6154E6DC8108B
:10422000FD9801627CCBA141B3DE9098F86914C07F
:10423000B07FC1C94F4F8C88113135F8F8C75DEC9C
:10424000D24B82FCB88DB5BC983B12CDC8257B53B0
:10425000025A3797683282248282B24999F38920C0
:10426000F3EF4210F8FB6BCC66E3C61324659DC2E6
:10427000B21978345FA4CC308201EF2BB8FDCDF5B4
:1042800002BE59C806CA29EE9821900175B11804DA
:10429000FBD903B649F1D0614CBC80300D98FB1BB3
:1042A000B565C8BE5FADFBCC2514EA186BC52818F0
:1042B000EED95D48B0E78BEAA0844E230F48F9762B
:1042C000E43009FF320E05DDCA42B80AF3CF7805A3
:1042D000112226C07A1809D3BCB4AF058613CC3E90
:1042E00044489F04B901C0FF60CA803CCA5FA2C0B5
:1042F000E698E566EC98E0017621EF981C8007F2DD
:10430000D2401EE020B2C8BD5E30A24076F28B1AC9
:10431000B9ABF8D00F6C85660190C92C66F3B4F880
:1043200042B8505DC3E6A5DE8B7EA60802F310738B
:10433000668091EDA671F0EDB31001B3B30804628D
:104340004DB341B0730380507F447149C0067CB9BE
:1043500018198C139030EB02F0FBFAAE8240F35444
:10436000F592A0819184DA22027E0B280B12F69836
:10437000A410BC982AD5FA447480AC90DDC81AB851
:104380008C8175119B81FA8BDDCC98ACB1CC8C986B
:10439000C8C3110BCC98FCA1C828E57E6BC80CCD16
:1043A00098F7E30C5D17633C305DDC5E982D23BE0F
:1043B000E9568397B2123079086516FEFD79F9BA8D
:1043C00086456FFD241B62E0252BED899A7A90309B
:1043D0004426224D754401E26AF2EE137D1E050467
:1043E00076B0FC30B0BA26C044E338BBF981ED307A
:1043F00010C2BE32FFB36A5301847C16FFC1045859
:10440000080342124C5E4BFD2046018018027330B7
:1044100008042099EBC8FD9D5DA005F17A9803FC86
:10442000DFC83CE7557AB80BC9EB606ED30068D3A0
:1044300007F0CE401ED33800BD980C5E9801DE8B8D
:104440000D67C83C08DA48FBF9D2A919729D02D45D
:10445000195B66E8550B5051B3292F46F398B830D5
:1044600092C608C6D3B85708840966F93626349A26
:10447000FCBF88A6B1ED24D11902B60832664B11F3
:10448000B23102B35626747B810C1959BBBF44FE6E
:10449000CC8C80093275B1F910D64428FF6718B367
:1044A000FBFFE8F945B5F55FE777E4B5B2C2CCF3B9
:1044B000E2D131ED96D3D8FF030487FF98FF2C2C6F
:1044C000AD119866C1FA963169CBB9F38B6CE306EE
:1044D0007F57849CF4B1DB99FBFD9EE4A0F66A93C0
:1044E00079798C1AB5FD14E6D3CEA848FD0CDB769D
:1044F000520271D18A1E652479849E39C002FC6003
:1045000091FDCCB8FF92766142FF10C4CBEA8CCA11
:104510003C37FFD3CBB55BFE66183954BD67B6FF99
:1045200030FD67D8B9F9A969AE8C79CAB799E5BDEC
:104530007CB1044184E0671793DB85B6E630FA78F6
:1045400068B0EAD9FFF8B1FF3FBFF4B604402BFBD7
:10455000D4012BBBD6402021E5B8B6FDF0EB7401A9
:104560004540FCED043E0858F8C76DAD088D8ACF74
:104570000CEFF838F98078F4E9FD508075483290F6
:10458000A06CFD76896005407965E553A12A8D8A86
:1045900022FB369C05C76008CEC528E789C07E7718
:1045A00068FC022444CA0C9DDDF60C02098C35F22D
:1045B00019DC2910C0B782BBA07B202A045FE91F49
:1045C0004001F6E8B1FA633543031336B333F77CA1
:1045D000BFB51512679B01F1757DBE8AFECC04E262
:1045E000AF37E03D4585FC6176EC96205FABEB365E
:1045F0002EFDA74C18494FEB9040146CE958FB2D49
:1046000023662F18E1BD1962AB70800979830264BB
:104610006E3E3840B3614F6CB320B31AF649C96C93
:104620009E88F957E5F3E0860DFFD8FADBDE2C62B1
:10463000262DD0DB5D068B298E7253EDB110B7ECC1
:10464000CC12AD3017E396CAFA7F98D05EBC6FFCEF
:1046500099B0FD06088AFF80581030CAB301C2E63F
:10466000AF88FFFFB0B7FC67FFF693C8FA2017FECC
:10467000CE40C5BBAE70D8FF106FB6097FB6FFC87D
:10468000F91B2FBD01FBE02FBB515CFA1FEB301F64
:10469000E37E75D3B8863EE57FD8E793A598FC0105
:1046A000865C7CBC4018CF58E7FA61E9A380CA62F7
:1046B000BE98B1FE5FDAE1C01894D71971FEE1D857
:1046C000B8FF67EBE94013DEFFB8FBC3DE976E5F10
:1046D0009FA4ECDCA0F8B0A5C7A47A0072C1F5C80D
:1046E00020AEE59041FB652EA7EC62207033CD37FC
:1046F0002A5B81441EF5AFEB08FF122C27E5C102AF
:104700008D1B6C1ED6C08080DCEFBD98F8A52255AD
:1047100002054C6AEE01C398F80921DBB12553105C
:10472000F92E22713C70CAE7E7100870CCFD60CA10
:10473000A05C9101D7F406ADF2603FAF0634B80A31
:10474000D046F17AB30598B2800222C93841409927
:104750006CAA26AE72262840EB1308FEA620A022E3
:1047600090D4D485F3DB9292B32249B42A0680C454
:1047700071CA024E4FFF158012F2840410603C3F54
:1047800050A008C880019A37FFFDDC84D9C62FB33A
:10479000368D34DD360CD14937B4FD30F5A372DFE8
:1047A0008800BFD34128B719015D6C2F72CB90C52B
:1047B000B9CA1863DA71B1800E6C67B0FEC52A847D
:1047C0008F712FEBB9142B8DEEF9BE80B0E8B79640
:1047D00030216171BF975D92D3AAFD0B09CCB77FE1
:1047E0003BEFB2FC2FF63F404658ADAA1E10C4FA6C
:1047F0008DFF8B7F98B0FEDF2D8CFE71DDABA8B0F6
:10480000FAE38C31F6FFD8FBCDD5E6018E7E34017C
:10481000BE96F31160C9ADD56108B749AD9A22D6ED
:104820008C083BEB4701385EF3D64DD9EBA0AB19B2
:104830002109F6E2DD450C6F9D7440FCA178821BD6
:10484000FF90FF6161D079FDE21568B810C95C7B0B
:10485000206EB1E88CD17B0DC585B915B1FE75E52B
:104860000C85ED1910FB8D18B35BDB95981B6CB3B1
:1048700034222C31B28219DEB03010C2B5B4A88C0B
:104880007E3203C2FFECC910F864E3C2F3661BDD9D
:10489000E38085DE4B62EB83010BFD9888635C7DD2
:1048A000595B66FA8C06C6DBB3E0FC1AF97FB26589
:1048B000F16F8F365550F971E0873B86D8C9FBBA46
:1048C000B34C96E61115ACB35163B6FE0F17FB98C7
:1048D00098FC62E2CFE7C2EEEC63FAFD63AC6430B1
:1048E000F9C8196091EB98981CD3150B56B3FF319A
:1048F00096A3187617F9C191190C8110306163B332
:1049000020F9635E98B03CB3DBE528FF19F3E50BB3
:10491000D666F80C85B3FB7F240B3D4BECB1FCBF96
:10492000D8142059B6E330B3B002BD19A8B1FEA522
:104930001990858B66B31856B34C58C859EDE5D11C
:10494000FD8DF99885A619095E98D813FBD9B38512
:104950009B49D830F924FB98A8F860C9EB98030C60
:104960003D98FFB00448F598E28C66C88C030BBDF7
:1049700098E8630D190F0285DE98EC88FF08123D58
:104980009839B1F9BF58980556B3B170BE58303454
:104990005BF632306601861EE5637BE3B03C47DEA2
:1049A000492002C2E5668A8C2B668CF6CB08167A03
:1049B000E5FBC6BBB10C616266105819242CFF8957
:1049C000637B4980020B96B3B037BB96040B4C193E
:1049D00064B3C2F66630FBC6B4AF030BBE7FC5FF3F
:1049E000020D469516361868F931F97F08B3B009FB
:1049F000B3EC7F676C4930EDB1FB8D363630101665
:104A00006D968E72CA02C11B56620117FB98DCFEBE
:104A10006093DBB1981BF54B08858DB3B8FB8D1BFC
:104A2000E29A19FD778EB0A2B3F918CE60C8B05BD8
:104A3000027DBF844B660119E9B1798B3C046A663B
:104A4000B0028966D0B1FABD5A1580ACB350235874
:104A5000B3A3C9B369FCBFD8CA47ED8F60FC8D987A
:104A6000E158B3E6BCFF20CF80BF5202A5403C0115
:104A70009CF36718D1D9D37998825FAC4B24121874
:104A800066EBF88C121B66C9FA172093794C2DFD42
:104A9000CCFA8B79C5E6B11636660BFE04C7CB326D
:104AA000FC03F4B3C2FF587ED83E1819CEEC3F1079
:104AB00069B380616A9F18C5CBB3D6720533BB0654
:104AC0001034B8E5FB708BEAFC020709142161631E
:104AD0006658FA2CCB11DBFFB8FD184BE402340BFF
:104AE0001BB3A8FE0397B6B110090DB3CCFB8339F5
:104AF0001985AB4A8804CFB03238D6B389077FD83E
:104B0000CC7FA3B0B3FB6072FDCC8169DB17400B97
:104B100016B3D80CBF32B020BFDB95B8F91A58E2F3
:104B20000425FA4B08C2A6B48090C5921901FDC2B3
:104B3000F69944FBC6561C8025F1B858C36681FA25
:104B40000203C543664002B1A123B316F47D600D94
:104B5000F0F98BFF9709152DCE4CE777EDF5D6527E
:104B6000F81C7D809ED85F7F62C86602E8DAC2BE0C
:104B7000F6E078FD101F9B68ACFF4C0E6DD8E30289
:104B8000D7D8075BDB17FC0553190FFF2F18B0FFB1
:104B90004801B401B0FE28BCE5C3F519108277B115
:104BA0009810809C7BC6012004C2F32111763D44FD
:104BB000966C0423CBFF80C47FE855E67BC9FD8259
:104BC000EA6DB949FBBD180D848237B00240A3AE2F
:104BD00004C0C070F37D088019E6FF4F9930B6819C
:104BE000E08F026078D3CCD280F30AEF813808CB13
:104BF0007B04C319906E48107BBC9B6E3508E6F3AE
:104C00008656166BAA58F80315A0FF02B4800A5006
:104C1000012A40D005A8F33B54DFF3C004980013E9
:104C2000B360FB4717FFE0025C800BF0032EE6C089
:104C300005B8F360D9F30F43F3B9E089FB0CFF9497
:104C400081325506CA4019E9280365F3A9DC3250C0
:104C5000F3FE488369300DA641CEFF7F0C9001FF23
:104C6000324006C8041920039D64F3A441AAF3133B
:104C70009FF3140108FDFF1D804011241FBECFEFDC
:104C8000D0E1DEBFCDBF11E0A0E0B1E0E4E5FAE5A0
:104C900000E00BBF02C007900D92A431B107D9F715
:104CA0001AE0A4E1B1E001C01D92A036B107E1F71E
:104CB0000E94C4290C94282D0C940000109222010B
:104CC000109221011092200110921F0110921E01DA
:104CD000EAE4F2E01082319782E0E232F807D1F79D
:104CE0000895582F8F37E9F18A3701F56623C9F502
:104CF000EAE4F2E01082319782E0E232F807D1F77D
:104D000040914B02E42FF0E09F012F5F3F4F8091D5
:104D10001D0190E02817390709F444C0ED5DFE4FEE
:104D20008AE780834F5F40934B023CC08B37C8F0CB
:104D300040914B02E42FF0E09F012F5F3F4F8091A5
:104D40001D0190E02817390761F0662311F480E80F
:104D500001C080E0ED5DFE4F852B80834F5F409367
:104D60004B026623F9F0E52FF0E0ED5DFD4F808109
:104D70008823A9F181508083882389F540914B02D3
:104D8000E42FF0E09F012F5F3F4F80911D0190E0E5
:104D90002817390721F1ED5DFE4F50834F5F409397
:104DA0004B020895E52FF0E0ED5DFD4F80818F5FB0
:104DB00080838150A1F440914B02E42FF0E09F01E9
:104DC0002F5F3F4F80911D0190E02817390739F080
:104DD000ED5DFE4F506850834F5F40934B02089546
:104DE0000F931F93282F042F662339F18A3409F477
:104DF0004CC08A3519F421E01FE73CC08056803250
:104E000008F046C08CE891E0A0E0BB2730E02056D7
:104E10003040220F331F442737FD4095542F820F17
:104E2000931FA41FB51FABBFFC0127910196A11DC5
:104E3000B11DABBFFC0187911AC087FD29C08CE86A
:104E400090E0A0E0BB2730E0220F331F442737FD5E
:104E50004095542F820F931FA41FB51FABBFFC01B9
:104E600027910196A11DB11DABBFFC018791182FA1
:104E70002F3771F0822F602F0E9471261F3741F06B
:104E8000812F602F0E94712603C028E017E2F2CF25
:104E90001F910F91089590914B02E3E2F1E0E90F29
:104EA000F11D80839F5F90934B02089540E0209115
:104EB0004B0230E02F5F3F4F80911D0190E028179B
:104EC000390709F441E0842F089520E090914B02C6
:104ED00080911D01981709F421E0822F0895909187
:104EE0001D01E3E2F1E0E90FF11D80819F5F9093E6
:104EF0001D01089580911D01E3E2F1E0E80FF11D2D
:104F0000808108951F93CF93DF938823E1F410925B
:104F1000140188E2809316011092150110924C0240
:104F200010922201109221011092200110921F0173
:104F300010921E01EAE4F2E01082319782E0E23240
:104F4000F807D1F7C3C080911501882309F097C0F5
:104F5000C09AB0914B02909116017091140150913A
:104F60001D01652F6F5FA0E0C0E8D0E018E078C0B9
:104F7000E52FF0E0ED5DFE4F40814A37D9F45F5FE9
:104F800050931D011092140188E280931601109233
:104F90002201109221011092200110921F01109203
:104FA0001E01EAE4F2E01082319782E0E232F80773
:104FB000D1F761C0242F30E0F901EF77F070EB37C3
:104FC000F105B4F047FD03C0492F70E045C0909350
:104FD000160160931D012F5F3F4FB4E0220F331F76
:104FE000BA95E1F7822F80738E5F8093140143C0DE
:104FF00080914C02882399F097FF11C047FF0FC0A2
:10500000892F8758823058F4842F8758823038F09F
:10501000909316017093140150931D012AC02770BC
:105020003070CE0102C0959587952A95E2F7982FAA
:10503000A3E0F695E795AA95E1F747FF05C0E25E84
:10504000FE4F8081892B05C0E25EFE4F90958081E6
:105050008923808310934C025F5F6F5FA1E0942FE0
:10506000B51709F085CF9093160170931401B09392
:105070001D01AA2359F187E08093150127C08150B3
:1050800080931501863061F4809114018823F1F03A
:10509000C09A80E20E949C2BC098809114010DC0A0
:1050A000882371F0C09A80E80E949C2BC098E09100
:1050B0001501F0E0E35EFE4F80810E949C2B05C04D
:1050C000C09A81E80E949C2BC098C09ADF91CF9132
:1050D0001F9108951F93EAE4F2E01082319782E075
:1050E000E232F807D1F710921D0110924B0280E0D6
:1050F0000E948227B89AC09814E2812F8A95F1F70E
:10510000C09A812F8A95F1F782EE0E949C2B812F05
:105110008A95F1F7C0981A95F1F7C09A1F910895F2
:105120001F920F920FB60F9211248F939F9380912D
:1051300018018F5F8093180187FF1BC01092180120
:105140009091000180911701890F809317018F3F83
:1051500021F49F3F59F481E005C0882339F4913050
:1051600029F48FEF8093000180931701809117013C
:1051700083BD8091520A8B30A0F48091520A88231B
:1051800081F080915B0A882329F080915B0A81502D
:1051900080935B0A80915B0A882319F48BE08093EB
:1051A000520A80914C02882329F080914C02815050
:1051B00080934C028091580A8C3088F48091580A70
:1051C000882369F08091560A882331F08091560A2D
:1051D00081508093560A03C08CE08093580A9F91B7
:1051E0008F910F900FBE0F901F9018951F920F92E6
:1051F0000FB60F9211248F939F938091540A909130
:10520000550A969587959093550A8093540A869BE4
:1052100009C08091540A9091550A90689093550A5C
:105220008093540A8091520A81508093520A80914F
:10523000520A882321F41C98149A80E188BF84E1E3
:1052400080935B0A80E188BF9F918F910F900FBE82
:105250000F901F9018951F920F920FB60F92112466
:105260008F939F938091510A80FF31C08091580A9B
:1052700081508093580A8091580A882329F180919F
:10528000590A90915A0A80FF02C0979A01C09798D4
:105290008091590A90915A0A9695879590935A0A47
:1052A0008093590A8091580A8B3041F48F9A88E292
:1052B00092E00197F1F71D9A15982BC08091580A3A
:1052C000813039F58F9825C01D98159A22C080919C
:1052D000590A90915A0A9695879590935A0A809305
:1052E000590A879B09C08091590A90915A0A90687F
:1052F00090935A0A8093590A8091580A815080935A
:10530000580A8091580A813021F41D98159A1092FC
:10531000580A80E288BF84E18093560A9F918F915A
:105320000F900FBE0F901F901895F8949FEF9093D9
:1053300065001092640080EF8093620088E08093A3
:10534000610093B912B892BB11BA8FED85BB14BA44
:1053500081EF88BB87E887BB9BBB1ABA80E888B916
:1053600008950F931F93CF93DF93EC0101E512E0B3
:10537000F80181918F010E949C2B2197C9F7DF9141
:10538000CF911F910F9108950E94952980916200FD
:1053900088608093620022E340E058EDCA010197E3
:1053A000F1F72150D9F7C7980E94972B809161009F
:1053B00081608093610083E98A95F1F780916100B3
:1053C0008E7F80936100019BFECF8CEC91E0A0E08A
:1053D000BB2780934D0290934E02A0934F02B0934F
:1053E00050020E94502CC79A83E785BD80E486BF97
:1053F00087BF8BE08093520A8CE08093580A10920A
:10540000530A1092570A1092510A8AE08ABF80E329
:1054100088BF89B7806389BF0E946A2878940E94F8
:105420007F2B0E947F2A81E00E948227F8CF882369
:10543000D9F477FF19C065FD17C0CB0126E096951A
:1054400087952A95E1F7282F82958F708227982FCC
:10545000969596959827872F829586958695837041
:1054600089279695892780FF20E0822F0895282F8D
:1054700022952F70282730E0A9015695479556951B
:105480004795422753279A01369527952427352794
:105490002170307020953095322F2227280F311D32
:1054A000220F331F20503C4FC9010895282F229509
:1054B0002F70282730E0A9015695479556954795B6
:1054C000422753279A01369527952427352721709F
:1054D000307020953095322F2227280F311D220F52
:1054E000331F20503C4F30935A0A2093590A809121
:1054F000510A81608093510A1D98159A08958091F0
:10550000580A8C30C9F48091570A8823A9F4E09195
:10551000530AF0E0EF5FFE4F8081882369F0E0914D
:10552000530AF0E0EF5FFE4F80810E94562A80917F
:10553000570A8F5F8093570A8091580A8C30A8F4DD
:105540008091560A882389F48CE08093580A8091D0
:10555000510A80FF06C08F988091510A8E7F8093F8
:10556000510A80E288BF15981D9A8091580A8823B5
:1055700009F06DC08091510A80FD58C08091580A91
:105580006091590A70915A0A0E94172A982FE09147
:10559000530AF0E0EF5FFE4FE081E23FB1F0EF3FF2
:1055A00021F0EE2309F442C02FC08091570A8130C8
:1055B00011F49A3F79F58091570A8F5F8093570ACB
:1055C0008091570A843090F12AC08091570A813027
:1055D00041F48091570A8F5F8093570A9A3FD1F424
:1055E00025C01092570A8091530A8F5F8093530A07
:1055F000992321F08091510A826003C08091510A61
:105600008D7F8093510A12C08091570A813039F4FE
:105610009A3F29F01092530A1092570A07C010922D
:10562000570A8091530A8F5F8093530A8CE08093CE
:10563000580A8091510A80FF06C08F988091510AC4
:105640008E7F8093510A80E288BF15981D9A089535
:10565000282F80911901882311F081501BC02A3F07
:1056600009F44CC02E3F09F449C02E3E09F446C04F
:105670002A3A09F443C0203E21F481E080931B01C3
:105680000895203F21F481E080931C010895213E7C
:1056900021F487E080931901089580911A01281759
:1056A00079F490911B0180911301981749F480912E
:1056B0001C01882319F110921A0181E080931301D3
:1056C00040911C01442331F420931A0180911B0165
:1056D00080931301223149F480911B01882329F022
:1056E00010921B0110921C010895822F60911B01E2
:1056F0000E94F02610921B0110921C0108958091C7
:10570000520A882399F48091520A6091540A709148
:10571000550A0E94172A882311F00E94282B8BE03B
:105720008093520A80E188BF14981C9A089580E7FC
:105730008DB981E08EB908958FB9779BFECF08951A
:10574000A82F20914D0230914E0240914F0250916E
:10575000500290915F0A80915E0A60E0782F71504C
:10576000882341F44BBFF90197912F5F3F4F4F4F73
:105770005F4F77E0892F881F8827881F660F682B67
:10578000990FA15011F0872FE9CF20934D0230934C
:105790004E0240934F025093500290935F0A7093D1
:1057A0005E0A862F089581E00E94A02B882341F194
:1057B00084E00E94A02B20914D0230914E02409136
:1057C0004F02509150022F5F3F4F4F4F5F4F20933A
:1057D0004D0230934E0240934F025093500221509D
:1057E0003040404050404BBFF9012791806F90E01E
:1057F0000197582F4427822F90E0482B592B1CC02B
:1058000080914D0290914E02A0914F02B0915002B2
:105810000196A11DB11D80934D0290934E02A0935D
:105820004F02B09350020197A109B109ABBFFC012F
:105830008791482F50E05F6FCA01089520915C0A5C
:1058400030915D0AF901EF5AFD4F80832F5F3F4F82
:10585000377030935D0A20935C0A232B21F480E09B
:1058600098E00E94B12908950F931F93CF93DF937F
:10587000EC01062F10E00DC0E0915C0AF0915D0A8A
:10588000EC0FFD1FF770EF5AFD4F80810E941E2C18
:105890001F5F101788F3DF91CF911F910F9108952B
:1058A0000F931F93CF93DF9310925D0A10925C0ABF
:1058B00080914D0290914E02A0914F02B091500202
:1058C0000196A11DB11D80934D0290934E02A093AD
:1058D0004F02B09350020197A109B109ABBFFC017F
:1058E00087910E941E2C80914D0290914E02A091B2
:1058F0004F02B09150020196A11DB11D80934D023F
:1059000090934E02A0934F02B09350020197A109C9
:10591000B109ABBFFC01879180935F0A88E0809357
:105920005E0AC1E0D0E081E00E94A02B8823E1F074
:1059300080914D0290914E02A0914F02B091500281
:105940000196A11DB11D80934D0290934E02A0932C
:105950004F02B09350020197A109B109ABBFFC01FE
:1059600087910E941E2CDFCF82E00E94A02B813005
:1059700079F0813028F0823041F18330A1F629C0DE
:1059800083E00E94A02B90E0886F9F6F61E038C099
:1059900080914D0290914E02A0914F02B091500221
:1059A0000196A11DB11D80934D0290934E02A093CC
:1059B0004F02B09350020197A109B109ABBFFC019E
:1059C000879190E09F6F62E01BC00E94D32B63E041
:1059D00017C000E00F5F81E00E94A02B8823D1F365
:1059E0000830A0F4802F0E94A02B182F0E94D32BE8
:1059F000BE0102C0660F771F0A95E2F76E5F610F66
:105A00000E94342C90CF0E94B12907C080915C0A7B
:105A100090915D0A97700097B1F7DF91CF911F9138
:105A20000F9108951092980085E08093990010924C
:105A30009B0088E180939A008EE080939D000895FA
:105A4000982F80919B0085FFFCCF90939C00089538
:045A5000F894FFCFF8
:105A540001FFFFFFF3C8F364F350F2F30AF2E80224
:045A6400E6F4000163
:00000001FF
