:100000000C942E280C944D280C944D280C944D28BB
:100010000C944D280C94BB2A0C944D280C944D281C
:100020000C944D280C944D280C946A2A0C944D285D
:100030000C944D280C944D280C944D280C944D286C
:100040000C944D280C944D280C944D280C944D285C
:100050000C944D280C944D280C944D280C944D284C
:100060000C944D280C944D280C944D280C944D283C
:100070000C944D280C944D280C944D280C944D282C
:100080000C944D280C944D280C944D287F7F7E7F36
:100090007F7F7F7F7F7F7F7F7F7F7B7F7F7F7D7F76
:1000A0007F7F7F7F7F7F070007047F7F7F7F7F7F4A
:1000B000077F7F7F7F7F057F047F7F7F7F7F7F7FBD
:1000C0000F7F0E7F067F0D7F0C7F7F7F7F7F1F7FDF
:1000D000177F167F157F1C7F147F7F7F7F7F007FB8
:1000E000277F1E7F257F1D7F247F7F7F7F7F187F57
:1000F000207F217F267F227F237F7F7F7F7F7F7FDF
:10010000107F197F1A7F1B7F137F7F7F7F7F0818E7
:10011000117F127F0A7F037F0B7F7F7F7F7F081015
:10012000081F097F080F027F08197F7F7F7F7F7F6D
:1001300008027F7F081308117F7F7F7F070C087FED
:10014000017F080B7F7F08077F7F7F7F7F7F080706
:100150007F7F7F7F7F7F7F7F07037F7F7F7F047F1E
:100160007F7F1C7F1B7F7F7F7F7F7F7F037F0810C8
:100170000C7F247F237F137F7A7F7F7F7C7F081112
:10018000147F081908200B7F7F7F7F7F7F7F7F7F11
:100190007F7F7F7F7F7F7F7F7F7F7F7F7F7F081550
:1001A0007F7F072408057F7F7F7F7F7F080D070BF8
:1001B00007237F7F0713071B7A7F7F7F7F7F7F7FE8
:1001C000071C7F7F7F7F07147F7F7F7FFF1F627FFA
:1001D000C23C006088FFFFA0089001324006C8C6FC
:1001E0000019FF03050A4414812241CF068AF32037
:1001F0000365FBA00C98290035FF0CFF9481325059
:1002000006CA5419A128E0F3A7A9C68800983CD3D0
:1002100064800CFFB948F90015E0025CF8800B70AF
:10022000012E7804687E2AA002F467F350F3C0051B
:1002300098A8E6A06CE4B312F8E054800AD07B2AB8
:100240004045E054C9D374D3E7B80017B960F80942
:100250008B20FF20760480017AEA8004100C02C013
:1002600008083701ACE010A6E4E8FE030486FF9816
:10027000FFF37DCD908384A7FB0240209D2836A00C
:10028000159ECF81A014CF8202190A4001D1280007
:10029000E0E9DF41D32956F050D2FD024D040412AB
:1002A000222ED92C04A112B3F2A5309C08BABB406F
:1002B000D995049810D34C09B3201A056EC51002C5
:1002C0008648D39CA7E560FA668E86A82201C223E1
:1002D0002D6699D020DCF35922C7B3186B54FFB2B6
:1002E000C05BF478FF3D8E07B001ADB320716DAAFD
:1002F00066FDCE6C1980202C5966080D1918F99AE4
:10030000E381B005611BBB602401A971CBF344D626
:10031000F54877BB4B3CA00408D6B378ABF8702502
:10032000F380672C6630263666F5D54090F3D958B1
:10033000FBEBB3020ACBB3CD51DBF340FF3FD698C2
:100340002015FF32D010647F7FCCFD611ACD0CD513
:10035000F806637E98B3B087B39B0501631E1067F0
:10036000FC63BF25ED2EBFCC08677A9822C2CF5917
:1003700098840D9483FE9DED981005856DB340180B
:1003800091ED8BC1FC9DED988004856BB3F027DD6A
:1003900098D8FC04869E986E1964FBD84BFE61AF1A
:1003A0009B9899B33E4BDD08FDEB3A060E3D9890C5
:1003B000B848BAD5F4FA621EC161BF373058F9EDBA
:1003C0008A97E69815AC66809E573070CB7FEF0E0B
:1003D0007D9880B2021D1930FF04DD5261C7F732EB
:1003E00040287E7F21D1F4FC72A201C86C263C8893
:1003F00027F3983F9B3040FDCC5D3932667DE5F0B8
:10040000BFFDB657011BFA9840CAE430F8066FC02A
:100410007FB024AFF732107E3668D79630FB1C656C
:10042000C89FBB89B84D30FCE3CB98CDF6FD97E073
:1004300082FCC3CE2330827F6C0A5BFBDFD87FB0A7
:1004400067EB9814DBF4D1FFFC980327CC982C5F62
:10045000B3309635A7F3B66606011EF998A7EFCC20
:10046000CBCD2E469496B004B3AF64F39846CCE05F
:10047000FFCEE6308010C2CCB2C875431069A61515
:1004800008BC30B3FF78306C9A04305AAE18B45AB6
:10049000FF0819B216BDE52263C6192F9C5C32F91C
:1004A000066F36300886162CB7228FEC7F88FFEE59
:1004B0001630F3187A9878D3DBE5C8FDD6AB014A3D
:1004C0006606C2CEB216793061BCFAEFCA589622DF
:1004D0006FCBCAC8DB19120127CC982C6CB8D01886
:1004E0008FEF7FDCFD30BE45F398FB6405657D1A18
:1004F000859F7FB2E07D98E0B9FB191461C3199024
:100500001464361963F877AC980A2CFE32C002C81E
:10051000FE7F91F8CFF59807859E98BF20CD98BCB7
:100520004BCDF0981606177999BA66ABCFF2983092
:10053000B3DBDB4BC8F9BDE720657130858DB39027
:100540000891FD7F48F9A9198666FF6B2AC8FB460A
:10055000A857CD7FF3078619C9B618DDE30498269E
:1005600036F14615A35910B21519A8CBCA302F5B26
:100570006202460B3BB10477DA7F29C048193CD9A7
:10058000900759C8B007AD66F064F8982DFB08C60F
:10059000661C7AE5C0C9F09817FCEED304C92DB3E8
:1005A00030EFA9B3146EB33719FF2CB62638F6987E
:1005B00010480540B6AF2ECCE57D06927361875B8F
:1005C000B1F2D688BD4B0C0193FB7F0C0B45B3B841
:1005D0007FC9181068F47759174D268408891AB313
:1005E0008BD330103BE5967D289C4ADDBBFDCB3D8F
:1005F0004027D29809E1CC31D5DECE9028FD23608A
:10060000D1D9F1B3FD73D5086666C804D566026218
:10061000CA6630FE2F0379F146F77799E566E35F06
:10062000ED728056B3502CB37FED7E037B131B67B6
:10063000B6B30A162266018C6E350880B35A0A2CAE
:1006400085FA5CDACF31B3F7FFF8FB2076A66F109E
:10065000D240ED331A8CF3E3D11C60D398FF3048BD
:100660001BFFB328048566909E66B004E566FB7F99
:100670005BA991A0F4856666DF647BD3C0FB11C6DD
:10068000DE49D185A7659AB1FA9838CEF8324C394F
:10069000FECCD8FBC12FEC3209A5B3408239B3811F
:1006A000A3FBCC101158B3FE7DDBBA2071FBB3B6AF
:1006B000F9E34F0CCFBBEBFD7D4B0FD0192B54FF53
:1006C000024261C3FFC4F866EE7C20C395B3309844
:1006D0006661E7EC32D44F4CFC35FEC098FDC09803
:1006E000F54B108242B3CCC090EB645F6CEE88FE99
:1006F0001056B504FC7D6091A61606D698FC7EB314
:10070000607EADB3897C4BC10F962C102066B00182
:10071000C1BA806AF8B3FFCCE72C59B8403A09D97E
:10072000D0FE9A6461DEACAFA83EFD7F3093FB98AB
:10073000280D0CB30FDEB0FEEB3687082266B02022
:10074000FB3B3220104FDB32FD2CB31039016640E9
:100750007BF970FE68B4DB4801E616048CF32CEEDE
:10076000B60240D1AAE0B0FE4BFB7F351F102C989B
:100770002FED6401AFF0CCF8FD187474663676DCAA
:10078000FB077F58FE7EFFB09026B462C3FF37EDB3
:1007900058FF887FD6FE04C7AC980193B30FD619D3
:1007A0004042F5D8CE3719CEBB0C41C6D6BC28572F
:1007B000F77E600CB6F950FD2E42D80802DEC0A3C9
:1007C000651AB3ACF8FB40B9FE4B0D18651B5866B3
:1007D0007888F31BFA3F6DC5BFF788B0089F56B401
:1007E00068BFCCB3F9D7D9463DFB0B6024808DEEB2
:1007F0004350C45B1958F93D66075FD4E1C0037AE2
:10080000D80F4DF53BA6B6A65F21FB7F0697FB03ED
:1008100018935C66D8A8F9BBB34C01617FEC32FE3B
:1008200057B23801D1C732CDC47B1630B1FD2F335A
:100830004BFF4F0C6C4A636D9FD0FF8A7998B1AC27
:100840009AA8B204FECCCFDE96FC08C5BC98C6FEC2
:10085000CDC4FFFBE962BF329D0BFD4C048898D0EC
:10086000DB66B9F8621E98BB01D6980214F998BFEE
:1008700036CAFE0429E7E57D8B85CC6642FB061A65
:100880002CB320499FFAB310D73F0218D455E598EE
:10089000C630BCCA6326D036B2623DFED818F9FF16
:1008A0009898FFDBCCF330D8FFB00CFFCD98DD6615
:1008B0009AFC048BF998861CCAB1FB8F5898045D8A
:1008C000CE3098F90CC3FF37986C6679FE10BD984E
:1008D000606A9F80FCCF3418F3E90C793074B1F86A
:1008E0008CB10AFF3398D69FFF7967861E986EEC0D
:1008F0006206661C7330CBFF62FF7FB08CBF9B30FB
:1009000079FC14F498830618F330F0FE0182473620
:100910003013FE097C30620BD9024F5C9821A7612D
:1009200027AD986879C3FB62FE98D808045DCD3086
:1009300040F98BFB980C04634B165011EF1710FD18
:100940000862DF54B128EFB3CCDB19FAFB17CCC82F
:1009500020EC9930222BE5CA908DFA983CC2CE58F3
:100960003048C652C8FF30C2CE6C30C9F963D29845
:1009700002B3C2CE583040871BCA2E3A0DF3B60AD6
:10098000FC98B8CAC3F3FF7566989E197F2837C0D4
:10099000F9EFB0B3B3D6982821EBE5166FD8500223
:1009A0005DED981AFC8A2BD40BECC32FE6CA48F9EC
:1009B000C632C82B09F93018B410585FFF24F23042
:1009C00031C41B19160446B30801C2EE0030C43E00
:1009D0007F5A4DF1308DB6664810579A8BF230F839
:1009E000C4FCE5FE0030C2E566208A66C8C0030A82
:1009F000FFCC186AF9B1FF5F3064CBFBCC60F93DE6
:100A0000B34672FB23D3EC0326E5CA11EDF988F84F
:100A10008C723008C275B378A3F9E0F8B1089E0073
:100A200030C2CE5830A0C7B64B2C0413F6FE60CEB1
:100A3000E57D0895ED98481379E38DF66208C45B6F
:100A4000F3C8FD14F198B8618BFFB0FD6C23657895
:100A500098BBF3D6E96413ADBA18BC4BC5FFED2CB7
:100A600066F59DE63036ACDB5BFF2CA3029D9AE376
:100A7000F39057B0809BC22CEA01FF595F244BF3DF
:100A80001243DB6ED9171E5E98EB1EC003DB98E2A3
:100A9000817DEC441002E5667888EF4978FE661F98
:100AA00009F2C2F3FE2F308AC2D5B3506CB3637A19
:100AB000AFD873FDA2B3227BC22C8201716611678D
:100AC000ACBF1241B3B02C1964FFCC31B3F7FFF8BF
:100AD000FB2035CF80FD5202402C3C01E3F338D19E
:100AE000C718D398FF0C1206FFB328C12166906285
:100AF000CB664017D3CA12F58624AF5A6482A0642D
:100B000019733AD5630266F5C90466F2C6D3AF6FAE
:100B10003269BE3F80DE38A4C26E5B7D40717D814C
:100B20002BF6320629B381FAB36FED8DC9FE86CB61
:100B3000BD10115866FE7C707E6FE90A6CF730F9C3
:100B40005F76F011131FA99B9808B78FFD6097FB84
:100B50007F083C97C37FD8C2B16BF6CC07EF58FE35
:100B60001FABB3020C16B3FD072FECCC081216B363
:100B700090086666AB6F1803B7D64B04EBED0165C2
:100B8000F34085CBB3C805D51902B7E55F015E8593
:100B90008DB339FA9EED47BBE841161764C90B9037
:100BA00010D3FC0CBC3AC5FD9804471682142C6087
:100BB0002C6CB3D0FD532C51336C66D8FF53ECCD65
:100BC00034EDAAFF8AFDB118165EB3D7FCF8DCDB62
:100BD000B50DB0A2DABB01F94685FF76D270FFCA27
:100BE0002000CDD378041E8433B640B2109103B3F5
:100BF0002C0565C580B301D6B3FDDEC82F6F07B6DF
:100C00000CD2060AF84047A2C11501621FAFB120FD
:100C10004FEC508014BE2130C7BFA040AFEC37F579
:100C20009830B36608106E5D6CA5B12815D00189A7
:100C3000FDB7AB5128FE6CBB6083DCF644FB0609B4
:100C40000BB31018E57D0185FE96D8B8FCB19A86E5
:100C50005C30D8FE08C91887EB19809223401CC36A
:100C600016FFF0FEC57C21BC8FC2FEEC63B0FB35E5
:100C7000F55F4088FF9FD8FA60A5ABAF020425B3AB
:100C8000FD82E6AD150874F72B0DF4AFB9CF100354
:100C90004120B628FEA12008FDB1E00EED2E244132
:100CA000BF8001657E7481FFDB7FFB19AA9FC9B0FD
:100CB00081A72DD0DB3088FC7D271EB00380416EDC
:100CC000E22BF36CD743D78020F291C01A36E35B56
:100CD00083C036E3C8FECE6601080CCA6E97014495
:100CE000581909879867A65FF5D0CDEDF89FB32016
:100CF0000861114C646E2801F3FD3F765B4880B3B8
:100D00002CA3A54983AAA2B8DBF3CC1E5378030F0A
:100D1000286E46D21840193CCE4DB460ED08E4E090
:100D2000E37988B0F3572DE958CE1932E25A1762A9
:100D30001058F33086AD6E300853C0CBFBA2FF07CE
:100D400010B6F8660B0811FC0C8D19FF4B4C10D92E
:100D5000B308FF4BD93201DF627AF344E5F8E0BF14
:100D600092980641DFF4DC4049980DF9840CFF1D90
:100D700098631001E684AD191042919DFD34FF94F3
:100D8000A062DEE86EF4B106BEEDFEC8F99AD9C0E5
:100D900003FBC96F0098D5BF10666D8BEB3204332F
:100DA000CC989CF657E8FC0849261BD6F5DEFE8950
:100DB000B302C819C2D1E021B220D4981009B62BD1
:100DC0007C66980420601206FF7FDE2302F60D9DEC
:100DD000F532EB3A2690EB932E4237935C81404BF1
:100DE000DB91FAFB98807864795B220C10CB023699
:100DF0003BF932E081B0BD03E0786A97DA30407E9B
:100E00009C649BFBA0FE55271898CAD18360A89FBD
:100E1000D7FFB74606040BC3E02F6540892DF8E3E2
:100E2000FC4BF3E874190BBC873CC480B33DB302A0
:100E3000B50CF3607F9BFF84FFFFBCD00B9A480189
:100E400099ED98010489F3301402BD80DF60B40489
:100E50004088907B642128A531AFF9B75974DE989A
:100E6000AD2031159E5A2F60B6F8C040E34C6DFCA2
:100E70007FA6AFE0B3C8E3162B96300F27A81F302C
:100E80001707AD83707D98C06DC430C6BFE8E97F99
:100E90001918360309DECA6FE6607A18207BB3A002
:100EA000460492AB6887D0660B469A81109952F936
:100EB00004E0A10143ECCB1360952B94300AFAB304
:100EC00012BF7F11EF300416F912DFB40C57B3488C
:100ED000976B0918E6FBAE5050CA38902F06C480B5
:100EE00078B2103E7F96560923BE49E0413C4790B8
:100EF00069E6788B88F084F3F55DE88034CAFA08F7
:100F0000B67FECA883BFD17F40669FC47D464689EB
:100F10005F0BEA19CFF3FE92A8FDDB71FD08D95EE5
:100F2000983AE0410431DE1DEBE30A46EB876DA6FB
:100F30005B49E00846B3C804881419F5681A7DAC0B
:100F400036D30501DE989B210C9011F498048AD4C5
:100F5000F1E0B37BD5902229F30E4177ECDFF49CCE
:100F6000D9C860A6C621E698514697D3B29C844D55
:100F7000E668FFAB8E18C0794BBAD31AEFD8CC0114
:100F800082B1315E799B05B7AD78804DB2F22E57B4
:100F9000E5DE42ABB55040CC13D20804DF42C43981
:100FA0007D82B546E6398102F2665CBA505F4B1429
:100FB000DB4666C00265B88B779439980166841663
:100FC000127B19320ABD268A616BED988048F9C8F8
:100FD0000610BB5451B4F8F5D2206E49086C60601D
:100FE0008F66981009F30CC473C880DC0701E0DA3F
:100FF00078107EC970D72EC85AC6F88B66C3CDF05C
:10100000C866D0EFD8CC1087B2E508063AF3C355CE
:1010100066401F66F5CCEB46FD56B3580859E05EB6
:101020004BCE2002E109B0CFFD3245E6ED8676FCDD
:1010300030797E3488D8F8AB73F6084010564F17D5
:10104000E2804B625C30C5048469A7AF9EBCC64792
:10105000D366C8086D4F887C98BE435953FE98B339
:10106000308CED4FC5D259E4D320BDFC5E200A1C64
:1010700059166B1978BD980CB1106F204819AD4501
:101080003BBCB6BA0E98FA042692B1020559EA2F73
:10109000C50B6912046243788A9068ADB6605AE461
:1010A0000292E819AAED8AE342A383148B65B46621
:1010B00060126667FC7FC7D520B44668E0142CE058
:1010C000948144B64DA304507E7FFE8E33F7981270
:1010D000C001657D7F7AD509C45D1960801CB78326
:1010E000989B0F753CF98DC0475BFE2210B830FF0E
:1010F0001BE5668237C56166897E7F21FE3930C671
:101100000C47E0F130BEF4F6A9F8EDA110B3ACB392
:10111000110E19E196EC673DB409302006AF5A91E3
:1011200011B3C775377DCE734378FA6BE798F9C56D
:101130001BF4F130FFDEB341FC9859D31E98795F60
:1011400066C820750F8124FA7F6437B3E3BC3FD6AD
:10115000981023C67D7E9B02F076DA57F9FA981430
:1011600050031956EB1918BECCC496B2909E98B78E
:1011700012F398C589742DB2B8B930089B45061290
:101180007D0362839708409991C618CBEC08CD1A6D
:1011900088F4AD9AD173FD1ECDDEC02414B2C8EC24
:1011A000B6E82E6631CA2FAF7FB50CE0CA568CEA7E
:1011B000B602399BFAC1B4FAF1986AEEC00309CBC2
:1011C000E8644478062595C8CD87A007A2E010BC46
:1011D00098EFDAD8807A9862E3F36F4BE514262B08
:1011E00046CFC9108C6647AB66EFEE37BBE030EDFB
:1011F000896051FB775F7EEB980B2B67E339010425
:10120000771906FCCB71B295B4E3C75AFC451BECC9
:10121000ABE8FAE512B008DF19FEBE9871D4896414
:10122000C8B39F3C98D3FD308128082B84FC6F768F
:10123000239FC71CCBC873E91456E880A525FDFA87
:1012400075517898B2FBFC985889A7DBCC08E06E02
:10125000ACC689800C7D19FF041030FE98AE05B233
:101260003B3C98B74904624518EBB812962190FEB2
:1012700098B4485CE9040D85F830AF80DE32226610
:101280006665C8896FE34830C601247FEF7F11FA95
:101290007FF35ED0F928B38430B0FE97606B7A9804
:1012A00016BEC9CAF6981820EF599808AEB4E001E6
:1012B0000CBAB1DF8030323930625C23F638FD0879
:1012C00080BC300597E2980ECFE33033C57896990D
:1012D000D4641ADA08F90B53F6351940627E985C2B
:1012E000489604E6DE986FA4CFADE6800881D1FD74
:1012F000D0AB251AAF2D30051A91230A0D1D82B3EC
:1013000020FD9806D1904076C6D3BB8F9180D3DF65
:1013100095C8FB6AF855DA188879618AF998B7593F
:10132000B1FECB3620FEA5C4B873616DD5DDC0D942
:10133000570AF3B13C1F5E980870B703F4BA40DA5D
:10134000EC02B6B330FCFD9E9720542FDE125FDE18
:1013500010EB983473336F8ECDBB64014B2A882415
:101360009F65D302B5CDD67AFEA34828580223EF55
:10137000C17F05B706F198F3DB30080B15BF6F741A
:101380005D1120017AB503FA01CBC8F5AF4C76F7B1
:101390003098F9E6E230161EC403F830D7DF750244
:1013A00018200BE0DB010D76FD10D5AB682BD3E4E4
:1013B0000F8FB6ACFD9C30FFEC7F0D30F7FBDC30BF
:1013C0006FF27FD6D52E035E985CFD15AAB350D47C
:1013D000B38F1A1BA02B606306273AC871FF27B38F
:1013E00048029808A2881934C004C94827C7B6B073
:1013F000FCB4B702E5E5417A98585B930A07C63F0B
:1014000086E9B2E9FE018D99FF46B33EFFDDF8FBA8
:10141000C410247FAC7801E3F338D1C804E0C4528F
:10142000D31019C345FF4088BBECD8FB240A8C6657
:10143000703944B320DEB0A16F01634EE398FC2005
:10144000CBCB4753931BFA6E32E0C059BC66E5190B
:10145000FDFDCE6C516C866C4462A6B15F01C86E16
:10146000A4D180FFCF823FD8CCDFD132839EB1633D
:101470003E6F5A156090FFD898FF2917B35848F16E
:101480002C8FB7FFA8FC1810212E6920EB6463F4A1
:101490000415B0B886BF7FB280BD9D816AEFB6EDFE
:1014A0007B660804402027D70581F533847DA9B7E2
:1014B000046D2808FE7F84020B800A6FE22AB99D22
:1014C000A9440128887676280505E6E0C0B250C612
:1014D000856B407B8718FC6DAD2329B11AB5F7BE2B
:1014E00018021E40B5D709631C87B542F52E901B24
:1014F000FEA553501994266FE6D819ACFF08AF5DCE
:101500004B10B71CFEF908855EF38CADC881BDAFEA
:101510000264FAF9F5C2DFAD323342CD06FF29E8A5
:10152000B0FA247B64027AB3FDC53F8E08614E9BFE
:10153000B6B6FF50FE47180946AFB2807C50CE6C5D
:1015400078E0F910561C08BDFDDB30FD177E9D507C
:10155000B082DB07DF718A9C525DDC2C645FDB7537
:1015600088FF278C7EF5DB128898CECEB645D8FE54
:10157000169B2D98859E582E2AFA9804CFE69B80BC
:1015800040C2CE581BFE9AB680C3366618FBC5967D
:10159000BF10186AE308C10BF6CC01DFCCB0FE2007
:1015A000FB1708621A15D938FF3C6E61FEAD15F9BC
:1015B000D6970110F0E0D8ED0CCF367AC4FC5A561D
:1015C00002C77CE06EDE140A20C4178EA02C66FCD5
:1015D000557640629C7B5D1662BD9E4BCF580B7E5C
:1015E0007FB8A8C63DDFA861CF99E5EB31D8145884
:1015F0006680C1C38A0DE503026DE39BB69613E6D0
:101600007710CC5A63012C662A5FECFC794E047784
:10161000ED8644C6EAA148E56620A6595B393BEE53
:1016200004012209850863286504E523E7AEA0CFFD
:101630008227A7FF402BC91026BB7987430A6CA9D4
:10164000330350F340A502DD209FFE91A005B4D5E1
:10165000F501810C6C26B2C402E03BD428A6D1600F
:10166000FBFB0CB3FA0307370421208E32DE40085F
:10167000EF33F9F5AF4295803EF391F710ED02118B
:1016800001940740EEFD01048052A0F9B14A855E45
:10169000F6B10854E3FA079C970377CBCC8E6F4BD7
:1016A0006410F315FDCC01AA6F02D9A28047C23B9A
:1016B000F318F91013D6830820C31D6C6104F95F79
:1016C00036F001A62C3FE62BECC370FEB07DA97C62
:1016D00004677F9F800264360378FD2AB7618F56C6
:1016E000E7ACFC0A61E020616BA680FC62DBC963A9
:1016F0001C95631B496EB3B0C0991702627B20A092
:10170000015916FC5ED8C4FEADF90156240877EBEA
:10171000F548FB64E0FB73E6040DD8DAD0699BC89A
:10172000023BEF7BF68528FEDCEBC3856B04ABB395
:1017300018FA0D8D1845B7A90340FE01677F1F10E9
:1017400098CBFB20A7D76805FFC490349801D248F6
:10175000B320D48472E011CEF78684040A48F99A43
:1017600056108D172240FF90D7680417E7A8EFFCAA
:10177000B7DB8CD6225811209668B6016E9A3AE0F3
:10178000F8DAEFD9A5F394800DE620B45201F3C046
:1017900058F3A737488030ADE8C417F20C89B9C6B2
:1017A00069D30C8475D8FAF280091042F8B6A5F313
:1017B0008842BF023CC53B1608D9A0405FB45C0D0F
:1017C00047C6ABC29093CAFDF1309C091228181E7F
:1017D00003620263E305700846C12198EE8360232B
:1017E0000BE63FD74A06AFBC23FFCCB00816E1C0DA
:1017F0000299FD0B002484823E8768FCE0412C6244
:10180000F9F0FC1EC0037810FE0A813C8007F0400E
:10181000E3F3BFE33C672FB5E01DEDD3C803E4F16C
:10182000D3B9F2C6790F0B609D41F1E8F97CDCBBBE
:10183000BBFADC0360258DF306B1F31966FFCD28F2
:10184000319BE0E00D0DE04BD3441552C31CFD96D7
:1018500049ED4AB3A0031B65B31130012DCA02D76D
:10186000B3D03ED340212C80098D0A7796487F8DD6
:10187000AD8908FEA19C42F70C140FA0110241672C
:101880007AE740DBED77FD4D84CE8010F241018692
:10189000B9CFFCCCF4388181B102595266FA030CFD
:1018A000D5F8062CDCBD5A1410765A41D548F96C8F
:1018B00050470CFDCC09AC4616710CC6CC62C384F3
:1018C000F2B3F37863E9FC9851D368FAAFDF88018B
:1018D000C65CAD7521A0C5D8EC8640448AF9C43CED
:1018E00098FCBC3971F3AB5F0D9801E74C8129F18D
:1018F000FAFE7B01C084811823B9049480D010467D
:10190000A71B0BCC78DF3798FF6D180103BC04F2DE
:101910000506DE98B503DF8368F9E02FF7F598C474
:10192000DF5F3EF33D800702FF51C520F3887998C1
:10193000E3CAE0906BEE988807F103FD6B0FA6E811
:101940001FD0F8BEF9D7CDE57EACEF201DF30FFB1D
:10195000BF1333FFFC9874350C80B9CD49F8FA02F7
:10196000B8B3F4C0093202B3F458100360EAD905E1
:1019700032C3BAE00266ADB3D03D6B8CA782E6906D
:10198000FE20BD3070408B0401AF2475B734028057
:10199000C750F1A7725D12C4397F414DE04048A3A2
:1019A000F1340A7F3F2820091201210876597BFC77
:1019B0004F64722B81C24D16B7B9BCB6DE30FCCD78
:1019C00005FF1A6BC530FA2CC82F43B1CC1E4B3023
:1019D00008EA7E2D65B5A9F398C6B378FED5E7026F
:1019E000479EAC690A86C62104CF6FB4050433D381
:1019F0007830BC6BE788F0FF84BB09FC3204180325
:101A00007D620C0C73E22644DCE9A360117F32B3E3
:101A100009DE2B301216017749090B8FB0BD06C0C5
:101A200048AF18756B214084AEBC50F9600397AC89
:101A30002079D27AB841B85D0AF28B31F34F3C98E5
:101A4000E05BD3F230F1D3803069608028F896886B
:101A50009757177DC112633C7DA341E011F298FDB9
:101A6000BA01DA6280800B29B320A622D39008F550
:101A7000F3519EB32CE0B1B3D36BEF98240C9028B4
:101A80004EE9FE20043AEC74444911118724A10B5D
:101A900005084250F371EA820D1886BAAEA0090516
:101AA00023FAD05E5D5E42B0FFFC9368042D9EE693
:101AB0006C70FB806CC610AF3399F83CC26F2E93EC
:101AC000567DFAD0F023AF43931A50FB307FA9B86C
:101AD000C0F30C6239C82CE0BE5E300C0945BEE490
:101AE0009354C2D0FDAE080A42D8A311206DE38BF7
:101AF000D6051D88367DB020571F30E48BD4941056
:101B0000F5F4D6DAFABFAF0A26C0229804FA0360C9
:101B1000142C02FD6A467FB6081385602C369AB1F4
:101B20007AB3485FC6CB3063CEF2D43548DDF3805C
:101B3000A9E488F1C660F9FA012C8007F4F6D28393
:101B4000781D0F7B98A007BF01DAC5100FF3AB30EB
:101B500018DFDB851ED027CF98F26BE23052F0FC05
:101B60000920DB4F22E36A7F1B98F33111F5E5086A
:101B700089E6C80CEF7B51D1F8809124ED0E11312C
:101B80003367B3408105621BE3BD21ED18B240F914
:101B9000300AE0442128E005027DF8FD208404FCA1
:101BA0008C9805098218A0012400D2EA1A99243ED3
:101BB000A8090D4288735F41409202D3FD1BC057B4
:101BC00097D377166841D78120F667D8FF7983B716
:101BD0000B309C0A8EFF7AA3A8FB80412E91223005
:101BE000162E953B2F8E304DB10FF30C88F9637D87
:101BF000C9B79A9897F3C7332FD656B3849C4FA68C
:101C00006BDDDFB080E441B00F0204679D63E662E4
:101C10007F8A98C60DEA083FEB62FD8441803FC78A
:101C2000C02018030BA160A1EDBB2035C804B9C3C7
:101C30000AF3B3B2FF32893C7646C0187B01F83014
:101C40008D7979CA205D204BC3FCFDC5F07F9F983C
:101C5000E7B8E4C8F4F6781009F30D887A9890EFA5
:101C6000596BC419C89420F3C6DD0BE4FD96FA88BD
:101C700079C595CB3008FCE5E166F3629C7DB1C087
:101C80001F69980484F151AFF95B650297B3AF986F
:101C900001E03088E0B2C8C70DB3F3C840EB084C90
:101CA000809F7D28FD201005777C8C825020014587
:101CB000F89FB48FE730100422CD2028FB0A9DFE48
:101CC0007F500408BC783505FE9842D8D378F64199
:101CD00020683240D370B31CF8195ED65F6164FF90
:101CE000D90121670B66ED4CB2A9FD6C08BB02CB94
:101CF000F1597988FAFA7F8198325318B096E588BD
:101D0000DC30B10B5FA5CCE01895E498199A20C699
:101D100080CE8129F91610B28BBDD1AA2288D85164
:101D2000055AA05B084284EC212022FEDC64A0B8A6
:101D3000B85060F337D2F3421169C905C9FF2BA32C
:101D400093D8C00B081F6414AF2C74D204060193FF
:101D5000AF239B32F5023D19082BD326A874131B21
:101D60004F649846C06CC8EB04C6A9D32AEEFD6048
:101D700041F298FB5CB96AE46995E8E6C52DEB98F9
:101D80003D7CB7C8F598D0CAC6E06EA298FF14098A
:101D90006616AE80327DB3C80A465979FF7E420688
:101DA000E32027C998EB6069DF6453F88045D2B01F
:101DB00010B350D377E39165C8AF9278A60ACE5797
:101DC000B40951BE7D97EF980503400137C6896578
:101DD000C875A83990448210788384210F042001AB
:101DE00078B8E2EB0108ACB1A97EEF16080153F117
:101DF00022569A04EF406844F6CDB8F9CFF3B80EF6
:101E00001DFFA8FF40655811BD621A23F8B84A8823
:101E10004BF30BF914E0300CCE0730844450C04D26
:101E2000E2FF247D1FDE98BF425B3B2120BB4E5862
:101E300043CB0B828E05C4401A33B930404E7184B7
:101E40004C8198D460F81301C7068BC1400E23BFA4
:101E50006C0200BF678730F3020A309F30D9DF7F02
:101E6000C005B25E788658D781306416C0CEAFD335
:101E7000AEB7ACABBFC8D5C5F0A712E4C8DDF3A0C0
:101E8000CB30C0BC98C533C88877AC9884AF259850
:101E9000D340FE98DDB8F8C73072AA10FD2D15B7F3
:101EA00030F39814C9C8666279C82BE6B6A7FEBCA1
:101EB0005DBC48ED6F39B002D3EF2F9831ABF2B370
:101EC000F6981011B830B27B442FEBFB2011714013
:101ED00002380151133008301020E2229D241A02EA
:101EE0007B9828A8629E98151D04F7A426F1A2FDF0
:101EF000424FF3B481012126E6B3FEBCA4D48ACDBF
:101F00001BC8B7812CF0C63C6FDBBA8898FD111353
:101F10007993438118769E4A8D0E80EE1630F62511
:101F2000E498E06B979BE6A032EEEFED60207DAF8A
:101F300030FE8491B01EC5E628D83AF55F44FE987D
:101F4000688F656EA528CEC9C87C707E6D0180CD76
:101F5000EDD8FC7B980226E1C222587F9060012CCC
:101F60008005B102469F0E041360120A0B08306C04
:101F7000C96FFEF5913009B930983749626CC8874E
:101F8000F3C0DC44583CBB40384FE0FDD5819BF5A5
:101F9000F0B3F578BB108D30BC9860DDE0763D087D
:101FA00004A666ABABE86E1710D312F1F3E1FE4066
:101FB0000320A7E04ED0FE885EB26DE6D2FC30BFB3
:101FC00008D8984030AD56B350ABB388238C10AFCF
:101FD00012981802FFAF7F5EA540EDDB0A641FB3C5
:101FE000C523F97A10F36AB36C11B38096B3868F68
:101FF00079024C88515DFEB1FEBE33AB80B332B284
:10200000E8CFF6AF1CFDFFDA3F10F9EA9CF3671B3F
:10201000A401E06ED30594C680FBC121FF89B0FE08
:10202000AC66C719D3BAFDF861937B02416DF6CC5B
:102030009E267F365492FF4F5932E279FFC24EA35B
:1020400062B59A6668F831F453441136B132E0B69D
:102050003A8DD35BF1FBFF048FAE321630F25E6C2B
:1020600046099DB1F64F3388CD5378DB8CB8123CCE
:10207000E5BB00FE6FF66015ACC64049F1B883FFC2
:1020800084B040466C6490FFE59504860667D9EFFE
:10209000D950FBAB19200B0D20D4CB027BD8F8FD17
:1020A0009AD980C696A6202CEDDA58FF2DB720B617
:1020B00016214C9541F3A66725D599D2C3E0D7C820
:1020C0001AF3C9D3DCD781C076FE054AF3F45CC2AB
:1020D0004CD939B61480E92F49D35A3C7E45D44BAC
:1020E000FB08FC4803219060EB4421284891196EBD
:1020F00012C4DD1A80E5C3BC57011A1C8242D8F411
:102100009893B201A04EFB184029FFDA9E0F75EF9D
:1021100069B1E6984F8B981511F50710849E516DA3
:10212000FB32FFFE365FF1A1781EC072388176F86F
:10213000040225FB3410CF7B51C080F7BF1EEF6631
:102140005C3071BDFD44615758C49FA8D5FDE7C5FB
:102150007AAFC2F6A498FC58A523B4FFD8FF046058
:102160008CB3D810FF20BBBB041020DB15B8FB6E6E
:10217000DFF480DB4E050D0B6DEE04F580FD9FDB7B
:1021800044087FB1AA63C53FA83CBEE0B330FE98C7
:102190006FB6EC7F4B14190CD6288027CDBD30FFCD
:1021A000C62808ADFF18FF8D18805BED4B08FE8C2C
:1021B000EA3402C2D60770F9C4D6740417FD7FFA58
:1021C000AFD8FB209E589562FFAD0223FC7305FF3C
:1021D000D87F4059E78FFE7DC8CAF3980BFF84086B
:1021E00066FECCFDCD58C21069FDCB0120CB66FA4E
:1021F0003BF689403A60BF404C67AE9AB8F38426FC
:10220000B2E940FFEF01EF102BF76E335DA082F9CA
:102210006F68F3BB88F6FA4471B6FA71469BAB8ED1
:1022200080B5640A23F3346CF2D0F8D501A0869E01
:102230004B47C1F27D02C5FBBA206302C364C47977
:102240005948B2FBD6A320BA55B10851B4ED7AE093
:102250000ADFE9527604B6406F2990F9CBFA52E5CD
:102260003603CBEDFF2A09610E99154D36F80A0A9F
:10227000A4F03672511D01A9B1108B8A64DD32C9F8
:10228000C908EE60DCFA20C2A31156B23B40977039
:102290004D03EC22003982C60D88FE9502D9000458
:1022A00073BC4120647F8B58FC48B3161034F50A88
:1022B0004BF9AB0173D30520A406405F0FFB5D29EA
:1022C000800420106EB4A001484E5178520D75263E
:1022D000C014D7F9EE042887CCE0FCF3211EE28578
:1022E0001827160A600380158F20041E4173E1032E
:1022F000ABE10CCB2B05F33BF3173085028B60244D
:102300002DF77FF681A4A0F760949DD79DDDF8FEA0
:10231000AAA68123FC0B55CE21FE7236DF0129F5DA
:1023200087F442DF627C4BA2FBCA2FC0C4A801A580
:10233000101608D9FE1102A55FCC0208C7F8D2BE5C
:10234000CCDBE0046050FD317DECE940205F81D7BB
:10235000313E6C998CFF49850261772F83806DEF48
:10236000F0FFC8A754C3D6FFA8FC8D758CB735D332
:1023700067FAAC03F796089680F614EAAF01C53504
:1023800017047904A2194083DB3FEB6AC91E0128B8
:10239000032480725040C43FD340D1021893BF68D9
:1023A0001728FCDC34B415CAE78660101871CEB764
:1023B0006C0908E17EB579BBB9A5A23820BAF0E571
:1023C000F7FF8CFBB84402639F3867379498FDACE5
:1023D0002F0131CB8D3F64D35F96B3462F95DCF64A
:1023E000FD1393E570A8FA6598EEFFD92BFD6B6598
:1023F00066DE40F1B3157AC540F6ED0820DC48CF23
:102400005A80806C6926FD8FAE0C962DC6AC9AA8BA
:10241000FF06090BFF980673B303F4B3C0FD6CB35A
:10242000DCFB235AD90CACF80669DB80D8F8FD46F2
:10243000B3B108FDBF7D5609FA092D19BAFD831104
:10244000B383FFF632ABFC096666072AB304C121E9
:10245000B3D8B0FB4B30B34B581908242CB3901FA2
:10246000BE32C0FD2EB3307D38DA1989FE30FB3F15
:102470007CE5C0FDE33003F79630DC093FCCD88023
:1024800010267564824FF67FB2FD0C5BE360FFDDC2
:10249000B1EBF8833FAC98042D3FB3CC980FDE6CC2
:1024A0003030062B58B388DFEC323C2C766620F8AF
:1024B0000834666163B3A0FC018242B3A8CC30B398
:1024C0003F737B106AF8639C03B1A2DFDACC02ACE5
:1024D000F80123FB7F1DE53004AA6602C22666E0F0
:1024E000FAC734DCD5B350611BB339FF611866B04D
:1024F000118919F8B0FB4B4DB320CF807F520240B9
:102500004B3C0138F3CE31D1B3D304EF5898242497
:102510003666FAF9095BE36099FBCC0804866681AC
:10252000FEC095FB321A30B33F4CB30FD4B301D881
:10253000B3FE3598B31FBF7F607E98B31FA6B30765
:10254000E9B381FAB3DEDCFBF9607EFDCC81FAB33E
:10255000607EACB30A59E508617BB338FD608E68D4
:102560008101DC81FA034DF780019AE69860FD0253
:102570001605102CBEC0A6B3B8F9C656D60516B6B9
:1025800064C8FA0CBF32B040BDB3FBB010487666E9
:10259000CCFB0208EFB48030FD04632BE1040B1B7D
:1025A000B2C9FE055EB0FEFDFFB0635DFE607EF168
:1025B0007D81FAB3DCDCFBFAD910081BA9B602DD79
:1025C0009C01FDFE615EEC78F9EE51DE10F386AD04
:1025D0006688FAEB7B20288ED5F303637AF9B15035
:1025E00015EC68C9B38071657424B6F3581934C703
:1025F0002C602045EC587FFB7F46C08466EF30415D
:1026000006C042F5F64C2CF3115DB330622DECB8E8
:10261000FFCD6607F1BAEF3C6DFDF013F60F1B0C12
:10262000630B194812DD65FCCDFA06C0948E6AF37F
:10263000A30CF30B372C18B9FE6606B7D04BEF345A
:10264000FD43F3D6692215FFCCB8FC67FA9880D712
:10265000F63B0D17FA9844C63D980C709B06415AFC
:10266000FFF0637AFCD9F0FDFE9846F3EBBF10351E
:102670007804637E98ECA1F904DF2398F32472C2F6
:10268000BFF7CC8AFA042C42C48D813816B5C151EB
:102690000602A5857E98DF22FCEB98F076973C90A9
:1026A000D9F3030985DE98EC30FB08DF329880F31C
:1026B00030B3DB98FBFA3FCC9890F3160A15FECCAA
:1026C000D089B3B210B324BE7EFEEC1724022B6C6B
:1026D00019A0FC584BFF308CB39BCAA8F9D67B805D
:1026E000EBB20C7F25986A30859C30BF48A56466A4
:1026F00090306C1A29AB6620615B6610F969C6CA16
:10270000EFB3300A06C8B4024D5C04F301857E982D
:10271000DFF8FBE89831ADFC98BC8BD10C0F46F389
:1027200031BB4858125A05FE2C6640FF3F988C304A
:102730002C6F1958FA42B3E0626BB3B00B3D4B708B
:10274000B4FCF5982289FA9804C2CD6D154CF8CCEA
:10275000983F1BFF6DFB4F599820FE987E58C85834
:10276000B2DCD1F8AD651C661A61AA1922D35B628E
:10277000C2447FF67F0246C247EC32092B5EB38A21
:1027800066D9073019C8B688E6300F0258F3586684
:10279000DA50FDE5C88A7998858BB30B5ED8B1888D
:1027A000212BB3B0CC4BFD58AE0853F67F57365BA8
:1027B00090FE61E4877E8AD9D8FBB9C85E9846232B
:1027C0005E58844FAD0D58FC9B92C8F3DDD9026171
:1027D000721940E0B3164657F63216C09FCCD88C1B
:1027E0000145FD7FC08290F4DF60F9ED98F1209300
:1027F000EB98F27CD8C83C41DBB0F0295AFF631952
:10280000C8B0028C66CAFDCCFE887A4BD0DBECA542
:102810002D2FB3BFCC8CC49FF6B8021008FC30B08B
:1028200034B3FB7F64FED6BF0124E2617F77FEA84C
:10283000FFF90A93EB98802736C83C167B9870F80E
:1028400077F67F421129CB30300B1719CBF71726BB
:10285000C86E17F1300846C25A6D2EE6AF3FFB7FB7
:102860002821F48170B3C226F06565C8BF2C300CF6
:102870002DF298EBFE18E0300C2CF5E5BBFF32DBB7
:1028800007C2B6EF34801C2FB3A0F6982001C8FF12
:10289000B8824010B402E964FDBC24F6CA58D101E4
:1028A000D7EF7F10DBE328CC76B54120896602F4B0
:1028B0001D9D96E537FD6EE0FA9DE7986D95A7D8CA
:1028C0007F8F8BE5B31AF59808FE98B282764A0698
:1028D0001241D3F4120D5AB3208CB36D192AB4FFF0
:1028E000ED17089195C8E68B898C08F367ACC40492
:1028F000E6EEC024C9F5D9FCEB90F2279D300130FB
:10290000808BF23060C6FD98E8BFF9D698C45F9A14
:1029100098E9AF85FC7DB52132193C980607E2C8DD
:1029200058A61156B3DF30F9FBBA08213082EC20EB
:1029300010227B36C80229FD7F28F99D95D5E6989F
:102940003E71B1185E5F71FEFB7F302BD69881AB74
:10295000F6021758B31EA3E9B0FB66FC4FF62642F9
:102960004008FC70B3044C33739BBA40FD3BC998DC
:10297000F34469D964089569F6E27F2C270C5385E6
:1029800030199F9DC80132B757B1AD9804BEB7CB7F
:10299000586612A7B69870FF21CB30C4768130807C
:1029A000D5B350662CB31053BB63B8F88B662DD5E6
:1029B000FC9896A6889B49597BD90504FEF36EAC1A
:1029C000620DE6A0FD8E79FB94B363EEFFBCFF20A1
:1029D0008BCF5A2202402090F86CA3F33FC84BEDF6
:1029E000B442D4E0CE03F37880F9C121FF98D8FF38
:1029F00028819386CD66A3FC824B6689FE68806E33
:102A0000A009B1F3FF0B628766F535A866064B6631
:102A1000D8FD44B5EB659ED1F779B18A1E7EB16DC4
:102A2000B6374AE9FB3D208247EECC98DBE317E35B
:102A30004A0B5BFFB8FF3FC82DF3C356FF10FFC121
:102A40002BCC980E32B3F34B2B6E89FBBB0E5BB3D2
:102A500088FB17FB650AFF280273D580FD64EA1620
:102A600020CA40C04A62B9C85A33620BEC019BC805
:102A7000A4FB386FDC9462E010B0B11938B2FDBC31
:102A800018C3DFCBCCA8190486FFCDFAC098F34B4E
:102A9000048E81189060A066607EACB3042D5DB397
:102AA000FBD69308AB6618038BEC7F0FD5B301867A
:102AB000BAAF630B660234F0DF4CD95F7B65A8FECA
:102AC000BC4BC976EE0480011BEF4650FA637B07CE
:102AD000B010453F192CFE2C6F66D8FBFD8F40824D
:102AE0001F6C16D8F319CCF33BFE320801C96C26D3
:102AF000480135E07D16FB23FB0D200D1E6780107D
:102B0000FD50CD5AC1082DF2010CF42BF67AF8FDD8
:102B1000C5BDF310D80480EF9FD2FBFB122566B829
:102B2000DEFD40664B730647DE100280B9566650E4
:102B30001A206C66055FB6FC01AB481425E558BD4C
:102B4000FB4C40B7046D870880533809A7181988D3
:102B50002FB4263701FDF0A0BF4E31F388FDD0B36E
:102B60001320B3C63223C7D6E8F92FCBCC021347C4
:102B7000CA086492AE4740DDCB083177F8982473D9
:102B800030CCFB67AC4908376CB390FF3AEB6F3F32
:102B9000AC17EF760C4004201B7759A8F862E8E5E3
:102BA00001EC2FED17FE82E698AF71FD735CFB8B95
:102BB000ACE5202FFE2730FDD5C60161FF127D193F
:102BC000FCC41670801B7ECC38C14346AFCA10CA05
:102BD00030BDD966C8B2FB7D0E246DFDD21245CE44
:102BE0000F280480233FF7FB0673A7024911EBF37C
:102BF00004B341824882111CA004020DF0FD892C0F
:102C00009D18705D9BE80102238FA05C2A80FCAFB9
:102C1000FC32FFCFBD52E1C0D8036CF80CF1B8ED27
:102C200044C56172B460E6F031205C22B1D2E001AB
:102C3000BFFFC4BB2750DF0410C15E5886A87F01C8
:102C40006714481B519FF304014110D021A9B52EF0
:102C5000712F303C944D939641E01169D79B3E4AC9
:102C60002C02453008C43A4F7EB2C044080563E1E7
:102C7000B3AA5A899E200B1361216B9E91753DF971
:102C8000E6E1BF35A5785381EDF60EC426FB0F397A
:102C90003CCE21B4EDA081F01EA2C08062263C880B
:102CA000CFF00C9003707F8D0A9AFF1B6699D6199E
:102CB000D0BC83F459E6EA66302FCCE9A203026661
:102CC000419E30B6C0201069F36004017799988B5B
:102CD000B31046190220819406CF1CB3CCB020FB60
:102CE000B3101805138619A6203DC87DB8C0B39D42
:102CF000AB56FE2FF67F209F8CBF1AC8EB8CCFEE11
:102D000003040598D24802FB10095FC08C121A48D0
:102D10001E0A0286E6FC94C6BC98DFAD5BFCDCFCB8
:102D2000D957C09E7BB7085AF338F998B1161E6779
:102D3000D062BC28BC04616D7090879016801871B9
:102D4000B3EEC698F804CB1619734A8910C43747F6
:102D5000449E10B5D0288041E0BC4444638908C536
:102D600011DE22023ACB3BFCB52BF69911ABB41322
:102D70006FB326FE7FE7604820031A12F7F026C4DF
:102D8000088D98885E8F77B49841FC15642D18E003
:102D90001D6D06C483C20CF3C47D981000FB26167B
:102DA000C0837847EF07F040CB1EC0BEFC9876AFDB
:102DB000FD08E6664B73040362BD17BB80C198D75C
:102DC000089EA5F1779798EDCC423D985B7759B175
:102DD0005D6A6AF8B1034D1CB1B930040FD0021816
:102DE0006036B311BF213EF308092021FF5D9850E2
:102DF0009BC8093FF7E650F1309DF7CBF23D06BC8A
:102E0000987BAC100124B7FF894CFB0240DF8A801D
:102E1000E1982CFF4B6557468D9BFF99E0BDDED9AD
:102E2000B0FB7C4A6BFDF61CC4DC3062C9B5E061C6
:102E3000ED840310085658BA57D7DC5ED8F8080658
:102E40007E971BDFAFCB30283CB873B90105E4880F
:102E5000F71A41200AAFC80240B390BF41DA98C2C6
:102E6000FD376236B0E53040C8B34C16097FCCCC94
:102E7000E021D7E4C0EF9213F962C6C12602879819
:102E8000238440FF5798D8AC983C953E41EDF91EFD
:102E9000C430970F6218979798CDD623C0FDBB1604
:102EA0001C0D073DD3C0033940FE98D930FF7DFE8D
:102EB000B680F598839FA6FF47DC8CB69703449AAB
:102EC000F37FCC62107FAB9841F632347AB3180DA1
:102ED00020CBB38811FDCC3274640F1A420B69BB4E
:102EE00002BC430A1608E3D320235F04EB9828377B
:102EF0008D3017F9587A9829C4B930485D42E0906E
:102F00001880DF01E19877914072030885EBB02CBF
:102F1000A2FB5FCBB3CC7551E8C064F2FC0239660A
:102F200047FA96F499AF9C302DDA7C9896E96225A1
:102F30009A803807B31CE1800318BB6DF23EE9BEEE
:102F4000BCFF6C9888FDB619A011D3C898D6BEFAFC
:102F5000C4793008D704223D3D02612001C2CAF382
:102F6000DCC3E63A2AFABF6C0A647D7FA76E5998E3
:102F7000D1628A623C30AC109C9BB3188127B5307B
:102F80003006E39E330ADF620CED9850FE1953269B
:102F900019DC30AE0331553E56300D7EC8800644F4
:102FA0000218FD14E58FD386C8D737C878E5C888DE
:102FB0002EFF033302CEB35D73109DC89002A7AFFE
:102FC00098205A0583E7C861FC662DB3803C98EDD4
:102FD000ECE34C01FE2F305DD0B4BF711A410168A3
:102FE0004520BD8C40042D191173C828D9FB101F32
:102FF0007FB524FA05F5CD232CDC20F266CCB5058F
:10300000F9FB90081340E2D7248978C4A106D07F49
:1030100042441002110A219BCBC8FC3F8B30F005C3
:103020001828834258E2A2FF406D46084B0C6C49B9
:10303000AE5B30F8F47BB5DDE430F0DFFD84C65DD7
:1030400025FA310D1E2ED6D00270E52E38110C8ACD
:103050007EC00357D376C7F80C7F68B1C08382B3B4
:103060004704623D641D07E79E982A090220FED3AB
:103070002AD0A4080A69FE93F2FD145A53B64B6095
:1030800041BE988282EF8A16150588FB983212316C
:103090009318F9A10260AC4EC909160109A73DC6F3
:1030A000844C487A98F8B415DBD79878F130FFF65D
:1030B000777BB10FE28114E430700F1E400218DDFF
:1030C0002007E098DDF0C98DEE0EFC30ACFAB7C8F1
:1030D00037D6E330FD6E82B1014E2F308ACC766652
:1030E000400C9A1577A58F62D3DE98C081FE6225C9
:1030F000B3E7C22C8949433AC8883405E29CE342CD
:1031000001686E8C0827B3CF05096045D3FDBDA8C3
:10311000FD99C130DA72A745BF7F21B1200DCDE303
:10312000A0C41166C812303A01824C8E346912353F
:10313000B600B9C8D990FDE6CFF92E67F998BA461E
:1031400008C533C880A3FDE5113FCB2CCB4BEFCC9A
:10315000F6A510C0BA172BD7A32079B5AE74C868EE
:10316000FB1967E42E2B44BD9884B3108F64E23DB5
:10317000C8C8FF022161240170B398F3FC500D739D
:10318000C812A3FB5363CC713FBAA320C912F698AF
:1031900088B0035E62CA044C27BEC6C024E5401056
:1031A0000BA8FC30D298FD4608CFE430C0AC1DB16E
:1031B000C82E57300CB7B5400E7A980FBE0F1E07B9
:1031C000F056D3DA3C66C850CDE3301FF398F3C80D
:1031D000105E98DC200C3D7F761703409C30B39145
:1031E00016B380BE0BBF05CC98479CC80435420C73
:1031F000D0087A60F5980DAB3C58108103227F36D9
:103200003040FFFC304AC501CEE88006ECD7C890BC
:10321000ECAB20FD2F1522B2D3FF8C4802018C2489
:1032200014914EA11018B2C82BFC9876C8E8FE7114
:10323000D0F90E7AF784C4BC7FFFB43C43F98867A9
:103240007A2DFFDB9730C09A6228B31EF98CE94BC8
:10325000DA4B0C10FDE91CDE98AF03A18AAA864266
:1032600020F7FE5930FA7C300244F4B31ABB9B8C31
:103270004547BAFC050243C5828F2101E40A242890
:103280000F3F20C0141811B6B8C3D0FB1416B09E5F
:10329000E59913FD2CD3B701D46C2CB1D41066D3AF
:1032A00008DF22D65888B862048201F2098F149888
:1032B000D3F562CA91300F08F86DCC30C0038BDFB4
:1032C000E470D005C7307A9864CFF298E210E2300B
:1032D000F2A51E19E0E0013C60D3F2621EC8E4785A
:1032E000100E87F3C8B7FBE33033B671012BFACC6D
:1032F000313B898F30F278DA5C07F3037E66C830A1
:10330000E2FADFCF98CDD528AACA129BD30150107C
:1033100073B309B020C022FF5A480268822CA01162
:103320009FB2EEC8241801EB936021D3983048F97E
:103330005F96255C06EED4812848D38030AFE22822
:103340002D2033F4AD5FCEEF98024920095BBEE734
:1033500090B488D8488216401AD2CEFD65D819B3E9
:103360001C456CC4B408F53B808AE5C7B9E81BA9C5
:10337000719316EC522ECA805910BA7C79D179C15A
:10338000882DB80CF3850E0C9AC9DF2423ECB4FD0C
:1033900098E8B2F8B8306D464409CD120AF140827F
:1033A00004209B1BA21C4DEF3FE74810090224C2DA
:1033B000812884322A57E651DE9D66D310F89601A3
:1033C000C6B5C07788020401F04A3A8BC8F21931B9
:1033D000303966F3B208315FD30C859460FF210C5D
:1033E0008811301014C10B5004C563607F35302044
:1033F000FACE308807F0FF2CADB51BEF61C403781F
:1034000030F364363C10A665DB8C8268EF7D982033
:103410001EC48318CFD33D8001F021119BD310DB54
:1034200019A8F96FB7FCFB7E67A90C0281DA10803E
:10343000ADEF504BB3CF6BF59810CEE08081306587
:10344000CFC0971AD37330B0FD6496B35AEE789814
:103450009D46E0080C2D6F124DB3DA11113660B3A2
:1034600002197F8360208DA40530342FD19E35D37F
:103470008294E6C996FAA734FF6717B39F6DADBA79
:1034800002402C5A01CD197354FAE21190E29620B1
:10349000E259F39AA579B59895B23058D3C8FB0C88
:1034A000121CFF98FF2CB0ADA466C6DCD3E3F81461
:1034B000266806B037A57304BB82FBAF4120FC32FF
:1034C0000EFA288EA835EFF165936565728E196640
:1034D0009F6435B190B6E3A473DE46B1FD3F6ED173
:1034E00067FD7D9CB16FDEDC33FE2058EA71F7CCBE
:1034F0009B880BE6662B5615086F5929E7B4E9E05F
:103500009ADB46F8CD1118F885DF00B5080260F3A4
:10351000602DAFF81D9A3863ADB54002983A5A5302
:1035200046ABADB280FF99C09D59C61E3494673634
:1035300017B8FA1EFA0A02C96C76B8FC12FAB1CEB4
:10354000361B4D09088B2089F94A9DDADE04FD728D
:1035500020E9BE506601BEEF1F403CFAD32520CDC6
:10356000AF10088D7EC740F38AC6D7FD809AF22837
:10357000FD1694F54AB3205DBD9B460AB9651467F4
:10358000A964A8E2305AD47AD6281605147469546E
:1035900048AE8C039BBB18FA27E0725211EE539988
:1035A000F8242BA8CE0908DDE05ACEF5E609B7EDE0
:1035B00089403D40C4338B32C0424481F0D118FC75
:1035C0000B8D795E8F9EFF7568B312FEC4F982047D
:1035D00024E567D86610B64B349B6E3BCDED569B09
:1035E000F328FE0F7C99CA6CF3B8FF444D5E96F346
:1035F0006779CD8FF4EEB3B3D498081A61A35978E4
:10360000FD679995E63C38ED7F9A6636C918FD79D5
:10361000D38EE5B82E0240068CCBEBCFDB7AF8FEDA
:103620003FECCE7FCBF661646B0190EC0ED2CEF313
:103630009875DC409A5F627B4869B556E6C725CB32
:1036400050900B39CA807BBA40445E90ADA0A391E4
:10365000F32BBB4088F819DBAA1F3CA5425BF96B32
:10366000AAA0F80582473630FCF91CACC304DF6C15
:10367000B2D8FD2AD2B15905019CFDB202D6E3FBB6
:10368000151B75F521B9F097EDAE98FE859C837FEB
:103690009851994DFDFE6097A6AF362B63EBE780FE
:1036A0006369FEB4C32FD83201A7D6F4D896BA7492
:1036B000016C900457D6F10229ED30F8FA185B56E8
:1036C000697EDE5A21AF02BCDA1BD97CE0B1FA85F3
:1036D000CA208C2F99201645B1676E8630EB640B9B
:1036E000FD9501623CCC7F1830E698D9579EFA3898
:1036F000FF08C293D2246BECBCD96845EF2FD51BD1
:1037000019EFFA19587A80924B40CC0C1D43C06CCB
:10371000D8F650FB122072C610F3FB1CE5D581E4ED
:10372000E0C5BF246F6D78550850FD425B1004B7AB
:1037300029021D1ED7BA42FE433D400019637A0C90
:10374000A588D002B22782EDFC49FA20B30528F300
:10375000F90102D0F30A2400A6CFA831DD5060128F
:103760005C93D84514877BAFA01814D03911A628D4
:10377000C90C7CF8A601508486207EF280A010D867
:10378000F80D482FE540F1D6E3395D8052BF991816
:103790005960D63B66218010FFB92A06101D7CC7F0
:1037A0007347800B04241384C0CE0188FB50084F5C
:1037B00008C501B8FC440D0F667C3F0611E908C737
:1037C0001EE957C18C1CF4B3F83EA3F5AA20FF5F95
:1037D0002CFCFEB7FFD273CD3C10ED8B0221EACF5B
:1037E000104C6E08C3FC062DE6171836FFCCF96F97
:1037F000986EC1F1EBFF244020CC4FDB2638FB96BE
:103800004C0467D89BFA7D0CD5B80466363478F939
:103810003FF69D3EE36FEE1DA8FF0ADC6FCF6C63A1
:103820000121FF0FE610633D45D888FEC76C6A8210
:103830002ADB3EFC2FC635AF10D82040C726FD023C
:103840009104CF2FB2B07FC1FF8162BEB1D818FF03
:1038500057C632FB59627E762C662633BEFE44CFB5
:10386000FFC78008FE62FC4A5AD0098A76E710E357
:10387000F711608128FC30CDFF026DFA0B30360C59
:10388000CF2F08F820B8918002D8719A2101686D75
:103890001180D5C5D10E84DDFBD11A55F334375ACA
:1038A000284225F541CD2CAAFEDF584E1045FBD00D
:1038B00018CFF523697C82733FFEFCFF80410C8F9B
:1038C000EAE3B1FEF48C4E5868FCB943E51EBC0433
:1038D000F350C97A279EA1AE9AC8661135F9CE1762
:1038E0008C046D86C21BF3602414E56790E6B986EC
:1038F000F3AB6609800EB9B3F9E680453093C0B5E5
:10390000E56376C12D85B0267FCB364713F70605D4
:1039100030207119E2E3C61412E8C68258655CC50E
:103920004F13FEE0CF013CF9F0201E85C038030F95
:10393000020F2C88BD073978627FC3DFE041CB825C
:1039400006C5F3C6FFDF7AF303E7FB68FB80A5013A
:1039500053C0DFACDB622028E31819C53A6C5BD397
:10396000E5C300F36AC64766BDA2FA800931CFED10
:1039700098040860C6024C32B30AB386F3B312C48B
:103980009EB3A0013842C939F3BF10BB1CD7EA8EE1
:103990003C37D0FCB001FC9D10020412491C4801C8
:1039A00077259044E3DE8B629B47D784041A00326C
:1039B000B02004F3ECDD5882FB702199AE1CFC535F
:1039C0006DED9861108BE9A9E73AFDD39CDCDB40F3
:1039D00080F898DE2FF9B8A6209E024111706AE89F
:1039E00044CD912CF1EE48FE44D6ED889E418BE803
:1039F000570C84F5BEDCCAE9FC8C05C41268CFBC48
:103A00002C946B5558E57FFA9FE7E1AD8B029963E3
:103A10000120B64ED2040841D9D693E6FA9411E1BA
:103A2000C03C08ED990B60D73D809788EC2509EFE5
:103A3000F232913011D2E27A2F868CDF70F3841843
:103A4000720304F3E74481F9E85F7FF803F0400E66
:103A5000C84BC898ED0A60E51EC85C78D0B33C8FAF
:103A600066F1A5D37BF40FE4AF412F556DB5D003BC
:103A70007D98B0EBFA8881F4A8C21BDA036079382C
:103A80002088186F0361EB3711F49820B573FA6B37
:103A90002E66D1C440D3AF7AFEE3F980573526BEF7
:103AA00085112122144CE6DB4604BD7823D86081C1
:103AB00092B3A057B39AB129F40DF302490C587987
:103AC0006BFF1178FC20905EA55E98E2411008889B
:103AD0007AA0048014EC5811DD8C01E6AA7F9FD3F4
:103AE000DD2F4202AFA098A43DF12071F3FDFE7FCF
:103AF000CF1AB0181001099DE69D3EFF5C707E9BB9
:103B0000527214FFFE13DEC6B3026BCC6A0602AF1C
:103B1000F3BD0DB308623A6A64FA9838D3B6588296
:103B2000BB39E918FD08E4229D12F70191EEC5307A
:103B300012166DFB4856BB802FA7B0F898DEB80967
:103B400029B601ED88FDFF7FE1C204984093AE21C4
:103B50009217FB66FDBDE39406677D32CCC2C008B8
:103B60001721AB8C5F89CECF58040B5FD4FF45B8CB
:103B7000F9E04135DD07CC30D002D7E503AFA580B1
:103B8000E2303B09AC46438830FB5ED39CF70FE242
:103B9000011416F8D1F6F3DFDFEE90F884F598C043
:103BA000DEA5B501E330D7B660F9989BF632FC3D4F
:103BB000B404F59828FFD66FEAE5A8E230F540C4D2
:103BC000CFED2002840802B02A2689192044E5B3EB
:103BD000019FE79871497D9FA79A986B5580434054
:103BE000F31CE7F8F82011018082FF0482480009E5
:103BF0002141238E6DA02032C82314F5988005ED55
:103C00006BE198AD843D98086BE09876FE808B4020
:103C1000087DDA720266FC40C67DA018667165B741
:103C2000B05E40FD2D8178308EFA389DF70B16F48A
:103C30009860071ADD8D8BF32899EE98D8F8808B61
:103C4000E6534D48DC021D1B29816662476D8EB824
:103C5000DB1A05D3762D149E98B511F79821FB80B9
:103C6000A60579C4224B4610F32409DA260169AF70
:103C700089FB98113077AE98984B492CC6C111F644
:103C80000113029BA9E5B1FFE0AA70303C16C418ED
:103C9000386BD7820C20A31EADB1934F6C983C10AB
:103CA0008F5A98417A98C8E3F39837C8FC0FE130EF
:103CB000A0771B30E6AB086C664053D6983025EAF7
:103CC000980139C60FFF5F382EC07AE04160082C9A
:103CD000DE1F222653FBB76004629E98B934B31AE4
:103CE0007FAD98807C985A2FFB9838FFEB30050108
:103CF0003FC80892502048D72441E96481B68277B2
:103D000018BF9E7AC8208090FC7E9817ADE3847D12
:103D10009822DE0121D6D910F81E989021B689EF9D
:103D2000D82066848FC931C4FF32989B8D48FAD35E
:103D3000F531BB08D183407132C10601F382193CD1
:103D4000D4C53C98FFDB6703FB98021969EE98F82D
:103D5000FA8CEDB98BC8090B224401176690EC660A
:103D6000162790C81AF998E6F57FBC9842FE148190
:103D7000059FC8221801A38A60BE7FBA17B27BBD17
:103D8000981477EC7F21EFFE32053001C6C002FFA8
:103D900042174CBD111198FB101361202CF926FC21
:103DA0006991C8300ED0FA78100BF375B93016014E
:103DB0008AE5C87B988807677A98C05AC67B98D8E6
:103DC000FB6B93C8440381620CAF043BA58030AF0A
:103DD00031985CAFC823B8F733CB98CF5EECB1FE17
:103DE000BF463EC808110B30845319A169E0982CD6
:103DF0000C51B33472B302F3B37E5A3089B2B33884
:103E0000FDEDFCAFC85D5608D2F3F7BCD42202B674
:103E1000FF312C2EC516108058CAF6985020D7D9DD
:103E2000E108FF937E5FC8A6899F5471E98CE5C3C2
:103E30007162FDB16ED86E8CDFD0FFF91024FCB931
:103E40008846022B26253546C6AC2FEE98804004C6
:103E5000CAF59806BBB108FC73CF12107E6EA01491
:103E600039675C48A320CB17F598406D2DE649DEF5
:103E700098471CFB9829FDDD80519FC80818112325
:103E8000DE044466A4C66605DD7C21FB7F0210E1EA
:103E900030C984C0596A7C305BB7B98CB279C1FF34
:103EA000E07E7FC806C00338000F6D96C8DE98B369
:103EB00008FC9857EDD91CBC30A301F39EF6E8F935
:103EC00084013AFB12FDD220A20CD6F36E2320C847
:103ED000B14E013010627C30DD52FBFA3243CDC866
:103EE000117DAFFE98BB066C9969B3E0D908835E7B
:103EF00098B71AC87B3CFB2080AEDD44D082D70A3D
:103F00000292BD8840879DF84841633E98B482F68E
:103F10009820A4EF6EB01209EBD3FF9DFDBC80E8A2
:103F20001508A7DB2F18BEDF8B98D34FAE19374883
:103F3000F3C0951FE8E79897306F6411CA363419BB
:103F4000EB6418F698201CE3B3BEE9FCDB8E883ADC
:103F50007FA8FC883F8271A3035792D23A2213FBB9
:103F60006404633E988092D566094A7B882289C69C
:103F7000601EB0FB5D899CC80218C1B361868C5F6E
:103F80005CD617DF7FB309FE7F9BEDC082FB648C9C
:103F90007F3E30C002980813B82353E519F8E005B6
:103FA000DC30D720161F6AEC98A007CE9A1E5B78EB
:103FB00020C57830869DE004D3CB987A41F040E468
:103FC0003002DDF362FDB3FB04AE6BC8088D303206
:103FD000C84BD65919E230EBFE6C80C8FCB5BBF279
:103FE000E5DC5FFE0B04F3C8586F977B9819E7ADCB
:103FF0004B1A76E3EF1BB611046F7A98A0FA2011E2
:1040000047B208AF02609421297520A4A0D811827C
:1040100006F322C4F3C884A680BF4292FF4BC904B2
:10402000FEBF7B82778DADC821317CFA80DE8D5F4B
:10403000156ECE69A630339BC8082FE519A1AB8851
:10404000E8FD2B53CFED4D30025364DAFC7AE140AA
:10405000F33638BAD7EDF6BC98F2912377F3BD4B1F
:1040600068AEF90A15D5D5817F746426020F36DB58
:1040700084598399BBA60A5601800881E6DA487004
:1040800063EBC938F83EF50626C40809D7C7010C0A
:104090002BF3F6320247ED7F02BBA501657A980249
:1040A000F5194C17732123046E110357F3892B491B
:1040B000F9CFC5E630D000B930E4EE813C90C9C8F4
:1040C000D3B958733C6FD67BABABE8BC98BC6BD70D
:1040D00092300C1BB38EC05C7D29F391C8F7FF8032
:1040E0008130F030F94E62200C888636A904426691
:1040F00080D5B3506AB3BF88CDE5051239E7F379AF
:104100005ECAF341519AFAEDE3B3DE60B802E0FE15
:104110004D3004B311C6B3FD626AB3ACA080C86E63
:104120003C1AE58F0D2D1908BC4B8BF3B217F831F3
:10413000C68DFFCCB3B3EA156BCCF8FA941180E2CC
:104140005E4B5EDD6719F3C4D1E837E02091F8DB00
:10415000A0D3379CF3D306F8030487FF98FF2C61A4
:1041600051668E3939F2F914DE6DF6E952BE40C35C
:10417000176690FF28677D9EE793E9D08997CE5E0A
:10418000D1736EF379CEFA96D1C0FFEA1851A173BC
:104190009EB1799E1F24D6A5E4F3777BA4C1FDB020
:1041A0002047FACCFB7F43A81D316BCF36744B8C74
:1041B00050B30F8DFFC68966FDFFB0B8E4B4761822
:1041C0008240DC12CBF8821033F631081BB6A88887
:1041D000FD2CE6B001A5BA016A19B3FECC49395DE0
:1041E0000CFEDD4B0210DECE61221A088CD7CF37D1
:1041F000CCFEDA18F8C9FD69409ADCD8201057F0D7
:104200003337E8FE7A3C0D66B850F8091D019BCBA8
:10421000540512FA42DBDE554103BF9AF63654606C
:10422000FECF5980010510BD24F60A77AF2905E5B8
:10423000460C9DD667BE09BB02C409F3D9F4844E6F
:104240005E78FB02DFE66DDC04D49CDDEE206718AF
:10425000B3B9F3FACDD8FA129750DFD8A3862D3F21
:10426000EDCB4366B866E6930402C95866349ECB2C
:1042700096DE0CDBFFB8FF55520811BD1EB70BA22E
:10428000970B45B75C95DBFE08436E6E0261C28EEC
:1042900032CB3591FF6418EB7A1B5A15B3F90CF049
:1042A0007C6EC6B5DFC8B3FB7AD4030E79C318B3EE
:1042B000FFBCC8130EB2C8DBF6DA80177187B93DB0
:1042C000BBCBC4F86EED61FFC080B030EF4CFCF5A5
:1042D00019108242B388C34566208A2C66FDBF321E
:1042E000337BB8406119AAF97B6DFD9560FB97E6B9
:1042F00077BB4236DE01193450F4FD7061417771AD
:10430000821BD57158AA7A088F7CDE6C58F9C6FDDD
:1043100057046110180BC06FD87FFA99DF858B2185
:104320008056D090FFC2BFDF9020C60DFB8BB70830
:10433000FD7F01CD2378F8A23161E5FA218875452A
:10434000889879A71FE7DBFEFD2FB6BB041972849E
:1043500002DF9730FBA85B028EDC41C77879C63755
:104360002DD8B2FFBE8C1B33CF9131FFD517A0B72C
:10437000DF09F6CCECC70508A30BB3967128ABECAC
:10438000040B77E3FC6FE4AEC0BF028C6273CFE234
:10439000FBE914F6B2E8F812C91BDE7FC5CE677ED2
:1043A000ED20CF5B1E408D16CA82E6BB4F3B0069F5
:1043B000FF4083CC0A47EC6CD81A10F083C5F78E07
:1043C0007FCD0440499302346E38EB48FD60C7E06E
:1043D000FEC080DA5A06257786F311D1DB2C34092A
:1043E000F21C5FE5A0F9EEC0DE814CA53EF6A4010B
:1043F00006048DE81B37FB80BB4D410F0C2C72F17E
:1044000081F6862818BEC4C51C19602008A2B87899
:1044100069C10A82660443372CC07835DEF4FC4A51
:104420009B41C304203D58CFBFA5EA40CDBF8B467A
:10443000B335E2E0B8FB03DFC0FC3CAFDFE0353171
:104440003EC72C207A66018FE0ED6C84AF8268D87D
:10445000B0FD5BB7FFFDB08AF7EB10FF71E69C295A
:10446000B004C9B302EC8070FF49C740635BCF67FB
:104470002DB210DAF069FD3CC676C27CBC2F95E304
:10448000313DCCC0EFFA022011EFDDDFD2B5A7F34A
:1044900037CCD42423A6CA55D2A085DF7FB1408D66
:1044A0002CD6B22EFEA3C3C5FF10DD64637CD76398
:1044B000FC28B204167CFFDF142FECE8494FFDFD09
:1044C00024A0A54610AC182086E9E0FFDFEC19ED2A
:1044D000B095C336B508FBE379F2AA97046CF640B1
:1044E000732C88F56501DB49B7FDCAF639206F04E6
:1044F00068621601C78DB7CD08FDBAA8B4FBCB74AE
:1045000025E3125BBD61A3FF78F969F6674F174693
:1045100018626AFFDAD0FF717692EDC7072061AAB0
:10452000B360D11910B244794E12B008D5B328B493
:10453000F932AC5EED05C00201C345B318A2665066
:10454000C9F62804F0C36FEDCC20FA321BCB3066DD
:10455000DBBB5C88FD3BABDCF632041B7BE5FF106C
:10456000677B7510D42CFC38FBCC3B2CDE47D698EF
:104570000CABF8061B6CB390FD43ECCC4BAC3D7F11
:10458000AF1AFDCCF9EB8B4027DB9812020D9D1979
:10459000EBFB149FE29804C357B311FD0867FA9828
:1045A00010C36766C8FA08621E9861B3B3BBFE62A7
:1045B0001E9861BAB378D7AE1759FC04FE98B004C0
:1045C000DFD09803187CFFDB88FC7998756E87BF75
:1045D000CC5E98B508F098ADFD98C2B014D5B3483C
:1045E000B7FDE6300804CF58663059FDCB70FEB7F2
:1045F0002C30C047D6983C163B66F0F90410EB64AB
:104600000DD6FFF9FE98B1881F58980A56B4B150DC
:104610000F5A9814FB988C010294C2DD5915FEFEC6
:1046200098B702E13CA06166B658B0F923E6989BC2
:10463000D6AF0EB07FB33BBE98F811F39845F70D97
:1046400085FDB1DBF2FBFA980BCDF29858A2285801
:10465000B3DBD8F8FA9803D566056BEC9803020B28
:10466000240B1BB368F87F599803DE98617A66893A
:10467000C8F6982301D78D884919F110616F2D7DF7
:10468000F973C81ADA480B8119B7D058B3845D960C
:104690007BBE988118836226E1167A9810DB3DC8AC
:1046A0001808029B947BF0B028B3DB9840FC5C9B1D
:1046B000C8665375B32486BFCCDAFAFDE7C8180282
:1046C000B6135A53C42CF84C2FFE32B0F8D73DC85D
:1046D0001EC083AFED7F0156700F17FB98B0FBB57E
:1046E00008FDCC10B7AD9806BA17C2F566E1B78DD4
:1046F000986423AF76B146C14718CA5DB796ADF945
:1047000090F8307B1926D0480D7D983CB4FD326678
:10471000793006B081DBD698F8470B307556B3C4B4
:1047200040C35F6D9890FAB830DD7A16D880046B7C
:10473000EB98797E3730D65E4640D756FC02177F1D
:104740003201FA6996C14E76C80774BE9836FD24C8
:1047500019E6C860C96CED064036F698EBF8DF96AE
:104760003008BE98D822416DED9878F9B1F6BEA018
:10477000AF0658826BED98F0FC9EEDD806C06DED4B
:1047800098B8FF882CEC2035E230DBE3758388B7DE
:10479000B69811281AFB98C0FD6EF5B64377B3C1E1
:1047A0000201F13085FE98B508FBCC2BD698F01BA2
:1047B0007B9830FAB1040FD87F806BEB98502119A9
:1047C000A06CB3D8C1046BED9810FFA1ACA72E303C
:1047D0000D5A194092BDF3A4C213BF2BD64BFCFE59
:1047E0004DA30373DBF4412073660B3D98C8B7FEFD
:1047F000EA17F5A70F97E69717FB98E0FB69CB2917
:1048000024FD128D11CBB5013C3CDCF7C71B5630A3
:10481000FC421A60DA0B045C80D3ED2401183CDC06
:10482000EF0898DB8C555FD6570242F418D1B3B02D
:104830009540EAF1CC5F9BC8308FEE40F32CB50475
:10484000586602B366F04064EE49FCDF4BAF2D7B47
:10485000CF77FA7F5A6680ACB3505DB3C0657D32C6
:10486000A78B98CBD7764CB77A0114ABEC2CEDC163
:104870008D66CC9A6DB340B1F96F3C677ACB31B39A
:10488000F6FF60FB9282807269D240C201649EF39F
:10489000686718D1B1D3E0F37098FE18243BFF98F5
:1048A000FF2C173093BD66C169CBCA8012FBCC0BBD
:1048B000DB66C9FACFA0FB9E7FB7D9F8CC4C2C6D34
:1048C0006690FE3A23DCB10232DE0CC42C6C663AF0
:1048D000F96093C30FB2327462DCC558E569FD32EA
:1048E00088FB825F98E5142BB3417FB029D9B3E8E8
:1048F000D8FC10242E66885866207EB9B3209619FD
:1049000001FC6961B7B5DFD8FEBBEB1028BDB682EC
:10491000D5BA08617366B8F96FB66FFF887F982AB9
:1049200065DEB140FA10D7CC0110BF7FFB6E6FB2CD
:1049300001564B08866616FE1694C14BCD4BCC191A
:104940003AF5D6B8838F58177E19B001C119FA60AD
:10495000A6196FE5DDB6751B755EF97B6089ED48BC
:1049600080108199B64907EAB3DCC0ABFD321087ED
:104970007A157F6CB240105666F909661935CB90EE
:10498000040B4C1913387DC0E558B3022436B3B874
:10499000FDFF46B58130F7E1A2686FBB495055BABB
:1049A00080B2EF18C2F5B308A79D4BEB0142576BDD
:1049B00005801068E5627ACC67F58492D8DA20F831
:1049C00098B370FFB2023ECCC8E57D81BF6C5A201F
:1049D00063D6018034A9EC40F8109EB0B1F7FB7D9E
:1049E000DCF803CBB6B1021E2CB3FD38E33B3DFF30
:1049F000D86FD2646AC094D3AF07FFB332FBED180F
:104A000060B066B3208C892C58B3B0826640C2CFA8
:104A1000AE295FE710D826843BD0FD0FD62318427D
:104A2000F6FECFFDAE0185CDB30803E8F8305B3864
:104A3000FE040F818922BF02E08FD89082B316C294
:104A4000D4B3580B2347660248F967AC19072DFF0A
:104A50007F1EC8837BF83C08B1D80DD8E3065FF809
:104A60007F01EFE87AFB78FF0405B311B7FB7F48BD
:104A7000FF10040F5A06A03BF91280FC08D6D10C97
:104A800011AC4A7024F24BCB971FD401381E68F842
:104A900004C3D31C7CC13E34D8B9FD2000B3DF234E
:104AA00002FE7F11E9F9C101B4C0B403F0985DE0E2
:104AB000FB0C8201B2B7A5E5C266823BB322886BCC
:104AC000FB32480E16B502BE98F60422F8FB0A1C0B
:104AD00030B030E5B30680C4DBB6B1FB08DE995CCC
:104AE00030B4986CB3C0423A5AB38B2D660175FC52
:104AF000F061D319C8036BC630BD17B0C041F4E5EF
:104B000010706CF8100DB3F9302080FAC103FB7EF1
:104B100008014E60C30CFB304776FF1098FE08FD7D
:104B2000B19B08B2FC0412B3CBC8F7C7ABB0F841D5
:104B30005AB393FF7FA1FF6091CD3008608217D6F2
:104B40007F5EC866B08B48F97FB39BA8199012E4CA
:104B50003010D893804BABE21AB8309D6404200823
:104B6000822F1F30BE0390FA60C4B930C0714384F5
:104B7000ADB30480C0B39CBC60819BC802B92F4C0C
:104B8000773D3052F98431CB760235DE6336FD2C29
:104B9000132999013C8C3FFDB00860F9E0BB0196F8
:104BA000304021EBC50F09F930834AD304CFC82820
:104BB000FE88B1012E237DB30A32AFF2D3E73099DC
:104BC000FB80624BB3400A0BB3897ED32C77EC7F1A
:104BD00088103BB11ADE4060F89B8064F8048CECCE
:104BE000C8101810166604FC30B05040E53002BF03
:104BF00036309AF908397BBD83F8B002A8D7AC6487
:104C000010F2C83B04AE5830A920EAFC11DF8C300A
:104C10008DDCE320A0AF90DFFC02C430EF622BC735
:104C2000306F5F1F08E4A6D75D1768B3D8842021D2
:104C3000FA9803D9F6FD65703D05E634DDA1679B62
:104C4000FF9BE09AF3FD7FBEFB4978FA080F8F6661
:104C5000E8640EE530989019800BE18988BB16FA5C
:104C6000CC130459F385EEC78011016F76044B69AC
:104C700044F3F6F600380410CF766608B0F8471211
:104C80003DBBE0B5B8076D92F5F3CE37B404E05AFA
:104C90002DA5E0F0A3AFE0EC3CDB70EC49BC066670
:104CA000BEFCDCF3CD37B331E04FC7A210C020FB10
:104CB000624BB3400A96B308DECABB08D54B1296C6
:104CC000C8FE98B512F38B1CFB8B6EBFB5B717A04F
:104CD00017CFB68A2CFA09BC30A30C5D7F2398F35A
:104CE0008C43245EB80CB38088D7B6ECF0126EE328
:104CF00010D4F8C4BD6B98B640DEDBFBF8926911A6
:104D0000768BA2CBE5D4B8B1E97F9A98F106B719B2
:104D1000E7DA6F7BE7B0107366011377F16509314D
:104D2000A941B33C5ED26FEDA53C20AE5AC89A9122
:104D3000AC6602A36675E03CCAFB1ECBC8C6C66A59
:104D4000FBD3EDCFFDE5306A866BE6F5ABB35034AF
:104D5000B3DFAE7137666CC6A3F96CB38C66C31152
:104D6000116DB358089BC648FB15D3DA3CB3C21784
:104D7000FFBCFD2037CF80F11D2D3C0180F3B53302
:104D8000F38CD1B3D338F30DD88759C867FBDBFF59
:104D90002462669319B166EBF818B7D8CC9ED7CACF
:104DA0009B9091CFBE95E32FFF71BBFCED7685C242
:104DB000D5E6E2A6B5226671B5B973E7C6ADB5080A
:104DC0001CA870FF08B7F800B1D051C2E3FFC9C6F4
:104DD000845B88FDC123F6CC98093F32604C36B322
:104DE00004D80CCB668009B6CCDF9613FE7AC804D3
:104DF000C3756650862B192014E19FFFDEB8FD585D
:104E00006618216FAB58FE96C21456B66DA01016E8
:104E100020660C5A0AEA1008F5661089F20001C7EC
:104E2000CC75CD85242996F9BC1F19FFBFCC01870D
:104E30006666EDFFB9FC87E67047362B88FC04C731
:104E40006C1710121BB3CCFB040E37D3FF42D8FDF6
:104E5000407EDA11F908FBCB619FDF36FB7FF80457
:104E6000BFB0CC4BF34B04B3660360B3D72F2C58C1
:104E7000F6FE18061907E9B3BEA03208D89058B359
:104E8000B220B3F74067665038C10819D9ABD86073
:104E900093FDCC80108267EC7F2049E9406111C40A
:104EA000B2C644DBFA7E50F9EBAD19FBF91F37FFB0
:104EB0002689B988FFC3AED921049943E3ACFE200B
:104EC000B459E58044DADD2C4A70B3CFCF051080A9
:104ED000208CFCE4F4113B50475005A02031A9017F
:104EE000B1020AAC107357AC18FDDACD690C40E280
:104EF000A559B5AF20C0024412105A04AE0384D69F
:104F00009A8040D54252672EBC0149ED4892D03973
:104F1000DA5402F39112F25E38732068F961FF5B94
:104F2000B698FF5DD2B166DFED3ACDF5FEA4564EE0
:104F3000592E4BEB040A7659CF6D5AC0FE3E26130C
:104F4000544D04B0D987AC7A4F3E0CA08060F9C1B3
:104F50002FB6B104090DB3C9FA9FDB7402632E0B9F
:104F6000FBECA86085AB150863B103EF4C6231EA36
:104F7000E9ED63A9830A6680EF30DDBDB318D7FD84
:104F800082B2DF2040C58153255410EA4E504DFCBB
:104F900004FD9088F5B0718210DB265643874802E5
:104FA0007BF720FB22EB058442AEB167DB0CF328D4
:104FB000041E84D1F30846E621FAE12119B1E0127A
:104FC000E0120894F3A0F3E5180A82D4FE95D8A85D
:104FD000FD267DCC287B487B8F8E0D6E0879F3A152
:104FE000638E19C3CCE058F80F15A002B4FF800AF5
:104FF00050012A4005A840F3EF547EF3C004980006
:105000001360CFFF7B17E002FF5C800BF0032EC024
:10501000059BB8F36065F30F0EF3B9E0FB270C9422
:1050200081FF325506CA40192803A765F32933507A
:10503000C806CCF37F8369300DA6B341BF1A0CFFBD
:105040009001324006C80419E7200364F3A4416AC2
:10505000F3A713F31401F0C7FCFF601011241FBE67
:10506000CFEFD0E1DEBFCDBF11E0A0E0B1E0ECEFCB
:10507000FAE500E00BBF02C007900D92A230B10725
:10508000D9F71AE0A2E0B1E001C01D92A734B10740
:10509000E1F70E941F2B0C947C2D0C9400001092C1
:1050A000100110920F0110920E0110920D0110923A
:1050B0000C01E8E3F2E01082319782E0E031F8077A
:1050C000D1F70895582F8F37E9F18A3701F5662314
:1050D000C9F5E8E3F2E01082319782E0E031F807A9
:1050E000D1F740913902E42FF0E09F012F5F3F4F4D
:1050F00080910B0190E02817390709F444C0EF5E56
:10510000FE4F8AE780834F5F409339023CC08B3764
:10511000C8F040913902E42FF0E09F012F5F3F4F2C
:1051200080910B0190E02817390761F0662311F494
:1051300080E801C080E0EF5EFE4F852B80834F5FEB
:10514000409339026623F9F0E52FF0E0EF5EFD4F62
:1051500080818823A9F181508083882389F540913B
:105160003902E42FF0E09F012F5F3F4F80910B0148
:1051700090E02817390721F1EF5EFE4F50834F5F13
:10518000409339020895E52FF0E0EF5EFD4F8081F6
:105190008F5F80838150A1F440913902E42FF0E0C9
:1051A0009F012F5F3F4F80910B0190E02817390737
:1051B00039F0EF5EFE4F506850834F5F40933902E5
:1051C00008950F931F93282F042F662339F18A34F3
:1051D00009F44CC08A3519F421E01FE73CC0805621
:1051E000803208F046C08CE891E0A0E0BB2730E0B8
:1051F00020563040220F331F442737FD4095542F4F
:10520000820F931FA41FB51FABBFFC01279101960E
:10521000A11DB11DABBFFC0187911AC087FD29C03C
:105220008CE890E0A0E0BB2730E0220F331F44273A
:1052300037FD4095542F820F931FA41FB51FABBF9E
:10524000FC0127910196A11DB11DABBFFC01879107
:10525000182F2F3771F0822F602F0E9462281F377E
:1052600041F0812F602F0E94622803C028E017E2DE
:10527000F2CF1F910F91089590913902E1E1F1E091
:10528000E90FF11D80839F5F90933902089540E0FC
:105290002091390230E02F5F3F4F80910B0190E069
:1052A0002817390709F441E0842F089520E09091F0
:1052B000390280910B01981709F421E0822F08959B
:1052C00090910B01E1E1F1E0E90FF11D80819F5F19
:1052D00090930B01089580910B01E1E1F1E0E80F5B
:1052E000F11D808108951F93CF93DF938823E1F40C
:1052F0001092020188E2809304011092030110923F
:105300003A021092100110920F0110920E011092A9
:105310000D0110920C01E8E3F2E01082319782E077
:10532000E031F807D1F7ACC0E0910301EE2309F0BA
:1053300097C0C09AB0913902909104017091020116
:1053400050910B01652F6F5FA0E0C0E8D0E018E03E
:1053500078C0E52FF0E0EF5EFE4F40814A37D9F488
:105360005F5F50930B011092020188E28093040169
:105370001092100110920F0110920E0110920D0167
:1053800010920C01E8E3F2E01082319782E0E03104
:10539000F807D1F761C0242F30E0F901EF77F07002
:1053A000EB37F105B4F047FD03C0492F70E045C06D
:1053B0009093040160930B012F5F3F4FB4E0220FE5
:1053C000331FBA95E1F7822F80738E5F80930201BD
:1053D00043C080913A02882399F097FF11C047FF9C
:1053E0000FC0892F8758823058F4842F8758823015
:1053F00038F0909304017093020150930B012AC07E
:1054000027703070CE0102C0959587952A95E2F7F6
:10541000982FA3E0F695E795AA95E1F747FF05C019
:10542000E45FFE4F8081892B05C0E45FFE4F9095BD
:1054300080818923808310933A025F5F6F5FA1E0D0
:10544000942FB51709F085CF909304017093020152
:10545000B0930B01AA23A1F086E08093030110C052
:10546000E150E0930301E53021F4C09A80910201FC
:1054700005C0C098F0E0E45FFE4F80810E94062CDA
:10548000DF91CF911F9108951F93E8E3F2E010821E
:10549000319782E0E031F807D1F710920B011092BA
:1054A000390280E00E947329B89AC09814E2812FD3
:1054B0008A95F1F7C09A812F8A95F1F782EE0E94C2
:1054C000062C812F8A95F1F7C0981A95F1F7C09AAA
:1054D0001F9108951F920F920FB60F9211248F9370
:1054E0009F93809106018F5F8093060187FF1BC009
:1054F000109206019091000180910501890F80931F
:1055000005018F3F21F49F3F59F481E005C08823B6
:1055100039F4913029F48FEF8093000180930501D5
:105520008091050183BD8091410A8B30A0F4809168
:10553000410A882381F08091420A882329F08091D2
:10554000420A81508093420A8091420A882319F4CA
:105550008BE08093410A80913A02882329F0809160
:105560003A02815080933A029F918F910F900FBE23
:105570000F901F9018951F920F920FB60F92112443
:105580008F939F9380913F0A9091400A96958795BB
:105590009093400A80933F0A869B09C080913F0AFE
:1055A0009091400A90689093400A80933F0A8091BE
:1055B000410A81508093410A8091410A882321F455
:1055C0001C98149A80E188BF84E18093420A80E1AC
:1055D00088BF9F918F910F900FBE0F901F901895CD
:1055E000F8949FEF909365001092640080EF809391
:1055F000620088E08093610093B912B892BB11BA3F
:105600008FED85BB14BA81EF88BB87E887BB9BBB56
:105610001ABA80E888B908950F931F93CF93DF9348
:10562000EC010FE312E0F80181918F010E94062C3A
:105630002197C9F7DF91CF911F910F9108950E9493
:10564000F02A8091620088608093620022E340E04B
:1056500058EDCA010197F1F72150D9F7C7980E9478
:10566000012C8091610081608093610083E98A95BB
:10567000F1F7809161008E7F80936100019BFECFE6
:105680008CEC91E0A0E0BB2780933B0290933C021E
:10569000A0933D02B0933E020E94BA2CC79A83E7C2
:1056A00085BD80E486BF87BF8BE08093410A82E09E
:1056B0008ABF80E188BF89B7806189BF0E94442A80
:1056C00078940E94EF2B81E00E947329FACF809199
:1056D000410A882351F580913F0A9091400A97FF33
:1056E00024C080913F0A9091400A85FD1EC08091A0
:1056F0003F0A9091400A26E0969587952A95E1F712
:10570000382F82958F708327282F26952695282756
:1057100080913F0A9091400A892F829586958695BF
:10572000837082272695822780FF30E0832F08959B
:10573000282F80910701882311F081501BC02A3F38
:1057400009F44CC02E3F09F449C02E3E09F446C06E
:105750002A3A09F443C0203E21F481E080930901F4
:105760000895203F21F481E080930A010895213EAD
:1057700021F487E08093070108958091080128179C
:1057800079F49091090180910101981749F4809171
:105790000A01882319F11092080181E08093010128
:1057A00040910A01442331F42093080180910901BA
:1057B00080930101223149F480910901882329F065
:1057C0001092090110920A010895822F6091090137
:1057D0000E94E1281092090110920A010895809117
:1057E000410A882369F40E94672B882311F00E94E4
:1057F000982B8BE08093410A80E188BF14981C9A13
:10580000089580E78DB981E08EB908958FB9779BAF
:10581000FECF0895A82F20913B0230913C02409189
:105820003D0250913E029091460A8091450A60E007
:10583000782F7150882341F44BBFF90197912F5F66
:105840003F4F4F4F5F4F77E0892F881F8827881F72
:10585000660F682B990FA15011F0872FE9CF209385
:105860003B0230933C0240933D0250933E029093A2
:10587000460A7093450A862F089581E00E940A2CFB
:10588000882341F184E00E940A2C20913B02309150
:105890003C0240913D0250913E022F5F3F4F4F4FDF
:1058A0005F4F20933B0230933C0240933D02509364
:1058B0003E0221503040404050404BBFF9012791FB
:1058C000806F90E00197582F4427822F90E0482B5B
:1058D000592B1CC080913B0290913C02A0913D024B
:1058E000B0913E020196A11DB11D80933B029093A1
:1058F0003C02A0933D02B0933E020197A109B10979
:10590000ABBFFC018791482F50E05F6FCA0108953B
:105910002091430A3091440AF901E15CFD4F8083F4
:105920002F5F3F4F37703093440A2093430A232B55
:1059300021F480E098E00E940C2B08950F931F93B0
:10594000CF93DF93EC01062F10E00DC0E091430AE6
:10595000F091440AEC0FFD1FF770E15CFD4F808170
:105960000E94882C1F5F101788F3DF91CF911F9141
:105970000F9108950F931F93CF93DF931092440AD2
:105980001092430A80913B0290913C02A0913D020B
:10599000B0913E020196A11DB11D80933B029093F0
:1059A0003C02A0933D02B0933E020197A109B109C8
:1059B000ABBFFC0187910E94882C80913B029091A3
:1059C0003C02A0913D02B0913E020196A11DB11D85
:1059D00080933B0290933C02A0933D02B0933E0221
:1059E0000197A109B109ABBFFC0187918093460AD9
:1059F00088E08093450AC1E0D0E081E00E940A2C53
:105A00008823E1F080913B0290913C02A0913D02FD
:105A1000B0913E020196A11DB11D80933B0290936F
:105A20003C02A0933D02B0933E020197A109B10947
:105A3000ABBFFC0187910E94882CDFCF82E00E94DF
:105A40000A2C813079F0813028F0823041F18330A6
:105A5000A1F629C083E00E940A2C90E0886F9F6F16
:105A600061E038C080913B0290913C02A0913D02E0
:105A7000B0913E020196A11DB11D80933B0290930F
:105A80003C02A0933D02B0933E020197A109B109E7
:105A9000ABBFFC01879190E09F6F62E01BC00E944A
:105AA0003D2C63E017C000E00F5F81E00E940A2CEC
:105AB0008823D1F30830A0F4802F0E940A2C182FDD
:105AC0000E943D2CBE0102C0660F771F0A95E2F7C7
:105AD0006E5F610F0E949E2C90CF0E940C2B07C01E
