:100000000C9461450C9480450C9480450C9480457B
:100010000C9480450C9487490C94EB490C944F4AFE
:100020000C94624A0C9480450C94B9480C94804519
:100030000C9480450C9480450C9480450C9480452C
:100040000C9480450C9480450C9480450C9480451C
:100050000C9480450C9480450C9480450C9480450C
:100060000C9480450C9480450C9480450C948045FC
:100070000C9480450C9480450C9480450C948045EC
:100080000C9480450C9480450C9480457F7F7F7F45
:100090007F7F7F7F7F7F7F7F7F7F7F7F7F7F7F7F70
:1000A0007F7F7F7F7F7F070007047F7F7F7F7F7F4A
:1000B000077F7F7F7F7F057F047F7F7F7F7F7F7FBD
:1000C0000F7F0E7F067F0D7F0C7F7F7F7F7F1F7FDF
:1000D000177F167F157F1C7F147F7F7F7F7F007FB8
:1000E000277F1E7F257F1D7F247F7F7F7F7F187F57
:1000F000207F217F267F227F237F7F7F7F7F7F7FDF
:10010000107F197F1A7F1B7F137F7F7F7F7F0818E7
:10011000117F127F0A7F037F0B7F7F7F7F7F081015
:10012000081F097F080F027F08197F7F7F7F7F7F6D
:1001300008027F7F081308117F7F7F7F070C087FED
:10014000017F080B7F7F08077F7F7F7F7F7F080706
:100150007F7F7F7F7F7F7F7F07037F7F7F7F047F1E
:100160007F7F1C7F1B7F7F7F7F7F7F7F037F0810C8
:100170000C7F247F237F137F7A7F7F7F7F7F08110F
:10018000147F081908200B7F7F7F7F7F7F7F7F7F11
:100190007F7F7F7F7F7F7F7F7F7F7F7F7F7F7F7F6F
:1001A0007F7F7F7F7F7F7F7F7F7F7F7F7F7F7F7F5F
:1001B0007F7F7F7F7F7F7F7F7F7F7F7F7F7F7F7F4F
:1001C0007F7F7F7F7F7F7F7F7F7F7F7F7F7F7F7F3F
:1001D0007F7F7F7F7F7F7F7F7F7F7F7F7F7F7F7F2F
:1001E0007F7F7F7F7F7F7F7F7F7F7F7F7F7F7F7F1F
:1001F0007F7F7F7F7F7F7F7F7F7F7F7F7F7F7F7F0F
:100200007F7F7F7F7F7F7F7F7F7F7F7F7F7F7F7FFE
:100210007F7F7F7F7F7F7F7F7F7F7F7F7F7F7F7FEE
:1002200008277F7F7F7F7F7F7F7F7F7F7F7F7F7FAD
:100230007F7F7F7F7F7F7F7F7F7F7F7F7F7F7F7FCE
:10024000017F7F7F7F7F7F7F7F7F7F7F7F7F7F7F3C
:100250007F7F7F7F7F7F7F7F7F7F7F7F7F7F08158F
:100260007F7F072408057F7F7F7F7F7F080D070B37
:1002700007237F7F0713071B7A7F7F7F7F7F7F7F27
:10028000071C7F7F7F7F07147F7F7F7FFF1F627F39
:10029000C23C006088FFFFA0089001324006C8C63B
:1002A0000019FF03050A4414812241CF068AF32076
:1002B0000365FBA00C94290034FF7FED0133500649
:1002C000CA54DE1928E0A7A9C68800983CD36480E8
:1002D0000CFFB940FC0015E0025CF8800B70012EA9
:1002E0007804687E2AA002F467F350F3C00598A84A
:1002F000E6A06CE4B312F8E054800AD07B2A4045B3
:10030000E054C9D374D3E7B80017B960F809824341
:10031000FF98FF62E8E5201D0480019EEA818010BD
:100320000302C002080D01EBE01029E4E8BCFECA9C
:10033000F3DD60D1F04009F3FC852805D9B015E95B
:10034000B3A023E38002D4740A4101E0301914D32E
:10035000D3C0500A0A9CA310E0FE98BCE311A7EC9E
:1003600081086AD1BF22F29780E343FE6EBC2DE084
:1003700093F704FD42A4C86609528E162018887CA3
:1003800077896FB850E0FCA0443533CCDD7B0104A5
:10039000089E0578FFF9C70B092489BCDE309198C7
:1003A0009F618401A09130EE10C0F958F10699B315
:1003B0001863BFEFAF0359FA3043D3F38884FB9639
:1003C000F7072AB32C93D5ED60A3F918C849F60CAA
:1003D0004915AAE91A79F6E20138F83666812C82C5
:1003E00077D8C9A31918413B24110CBFC01043DEB4
:1003F0000C084CD305350C38FD0A08314B46B208C1
:1004000091CF5AA051FE72102D04FE3C6891C0613C
:1004100022CF90018528FD609B81DD04131BB4363B
:100420003C3BF6CBE089551E19E83A100719FF73DB
:1004300077C0027071609D0156F0FDFF1162AB172D
:1004400010103606F4E020B7B657EA83EEB5825CAA
:10045000E2F809B10256B33004C510B3187B10643A
:10046000209BCA4146FFCC684BA4454ED9B1345EAF
:1004700098B2347F9208B18407A0B0104633FB9243
:10048000FD48E71189089380067771D3036A3F8D91
:10049000A411321284B2FDFCD2CC4BF341B143F72C
:1004A000752D0604E0475111E8F9A797C5F7CF402D
:1004B0000C7B9870FE152CA005D3B33FCD9885AB6F
:1004C000BF11CA197D62CAB33C26A2D80372070FB6
:1004D000E0813A8F10F81653562866AF21B10736DF
:1004E000FF18027BB3814C0189599940FA23680AAD
:1004F0002C826ED55BFEF5D203927164BBF51011B0
:100500000212E37D5EC660404BB806D14804E22487
:10051000CE01FFA1FABEEFCAF6980C20C9F4AB3C9D
:10052000B3C7F648BA01040EC5E838B903C6079F39
:100530000263C0037820D30F60C6A0FEB1047F4BD6
:1005400098806513F58402FFCC2FC3FA7F2E610ECD
:1005500035F6BE53FAF34D146CB3113057CE32EE6C
:10056000B44408EFDCCC16F176C8D615817C88FB44
:10057000A009B43688DD683B81021EE9FDC0DF06B4
:1005800026FF9B480249105E8B7ED26BC6017EB966
:10059000301288FC800521BAD604CD317F126BFD64
:1005A0003F02FED6B420FB05FF106226A8B93161D8
:1005B00002FB7B811088054EF627100802676C1736
:1005C00038F3B4FC985AB3FECC3C5DF3FEBF037025
:1005D0002087E9D3E0FCF184112002DA2CC304EE79
:1005E00040DB3462BE989D21D3080C7DCC7D5D3FFD
:1005F000B3A268020C08853DD3A0FA842D9603BFF0
:10060000A81066724330C47630B422FE4A4C1260A1
:100610002ECEC1A498862212DFE30120E08DF8419E
:10062000ED2C90040D900CABAF0098C53C98869CC7
:100630002B07D50C1A86C8BD98620E0C98668840A8
:100640007620BF87018CE9FC9FEB9840FC98D15342
:100650002245D3DDC550FB1BA37FCC0148199AB3BB
:1006600062BFCCA65089028032FD3226CFC50B4036
:10067000810CD650057B2EFCA041B830F69D080DAC
:10068000B3F51264B6CB04097E9FAFF8B9020786B2
:100690002289A321B3FD98238008B93025E506D42B
:1006A000F95B93F6EF6F9B989908FCAA7F117D196F
:1006B000E8C2036EE130F4C2F0FEF740308805AEC8
:1006C000DD1859B33824B4D3621A9C78D6CFB770EA
:1006D000B380410C7FBF98880361100F8226B385D9
:1006E000FF59A41C305FCCD98420262C2397C8AE98
:1006F0008950EF842C880905DE98317203B3018C90
:10070000A932E1020BFC4F88DD03C01873892484F1
:100710002CAA9E25D646418869AF7DACF985FA4260
:1007200020020881FA7F012F449042C5E0806BF1DE
:10073000FA400FEE04F043D678B20BFFC9E0B38164
:10074000FD98E0BD41E00EBB04DA6BE001F28BFFE7
:100750007FC003385B49FD010D0868F980DF4ABF9F
:10076000C0E8EFE76C3920A366CCF8FF12D275E73A
:10077000818937EFEB204004A680C66BFB1F11B1C7
:1007800008B50257B32A6C7101A5C604882FB3229D
:10079000FA5518FF28213741B5190A61C1308F7AFF
:1007A00040FBA086515A05EE298DCBE67A204458AD
:1007B000978FA9E526B3087726CA04F311D3DF98EB
:1007C0002A140DA489EEB01030E8FE4D85C2E099E0
:1007D000D62C25CD301006A74BB1D37E5A3003B3AB
:1007E00099C0F8B3086B99C8109366E6C808C4B9F5
:1007F00030077A41705B6E723088ED06A5B9301013
:1008000085FB119605E8B9968A8CCCCBC813D5FD2B
:1008100006FACCA3686CF830BD2313C4644231C21D
:1008200035647266B5EDCFC860422C4BE00A216694
:1008300090D830028F1D309BD009BD981047B87CEE
:10084000BF15A5B3E08B44F230FC6040535A7EFAEA
:10085000980259467C30B1082E2330635E3F03ABCB
:10086000B1DB985810BD9800F2B0FE048026236ECC
:10087000D144021390662CE64B2DC8F682C8E230B4
:1008800053C682F8C9FA2DE2BB64602E4A32E67282
:10089000C8C4F930465B5CBB20E4D5B6B5E0F4983B
:1008A00014A67D5CE8F98DE8FD984066EBBC040A6F
:1008B000677A4B81FE5D3052A8828CC6D390F6CA0F
:1008C000086AB3C891F62422A4FA578B98C21CE395
:1008D000307DDA8310EC491B065CBFDBB98408F974
:1008E000F96FE79821113831AE5630C09DC9D6B1A5
:1008F000DE98596E5DF19F83F30CE04110007AFAA7
:100900003733F59801C61935CB30A046EF5820D7BC
:10091000D49809925FD2FC68224C8111301FDBFF12
:1009200000882DFA7D98245FF965FE7F10CF6D1841
:1009300044808FF6F59802F97BF112010480D3C749
:10094000C1FA5B76B690F5980F1946022646CFE2BB
:1009500030EB219BA00E08FC9885C6B97998D9C8C0
:1009600087E40CD1082819BF8B98D68C136B8F3075
:10097000FBA6F4FCDCF4FE2230D366B9E3F8EE32D9
:1009800059A308B3B40C6B8D30480914FF4598A0E7
:10099000BB20DF981342214C0488052E48FBBFACD6
:1009A0008105DF365D54157E7222DD8F2036F11110
:1009B00022B35F3FDD1A01F552E12BA946D250DD8B
:1009C0000B68E99804E2B8FE52DFA830AAC7783075
:1009D000D3B66710894631F3A604A90362EF2498C1
:1009E00095FFAFFC2F984B82C0DDFC98B87AC638D3
:1009F000308E45E5301EFFECB462E423163F0370F1
:100A0000400CAFE05731985717D96F0B75A41BE313
:100A100030C01919CA04B3DA802C1759FFE35368A0
:100A2000028C8891F8B008C0F8049C32060310CFFD
:100A3000462362245A8F5E58DBC0487E9931CE69C6
:100A4000178045620237C001FC3DA12DF36123BE32
:100A50002F2E98EB1ED0FDC79819F040ED1EC00355
:100A60003C986CB0F0638530ED100319AFE840A5F9
:100A700064AF0D924219C6FF79983C1060F9A1AF9E
:100A8000303B88CF7BF6E510085866C71130B6E1D9
:100A900026DFDB368043F35F259802FEFE4B6EB304
:100AA00028F519C638305FB3CA3050FE7F018C94E8
:100AB000F041F38B100A07840CFF01053109D0FEC9
:100AC00020882EBF3B984CDCCF1698FF27EF982646
:100AD000D04052E460130A70BDBA701ACE409163E0
:100AE0008D2482BA5EFEDB629E98B1404F5D980213
:100AF000E6A5FDF7442CD67F336690FBEE0D461637
:100B00009C1D66799875ED8897197C9B4008D003E9
:100B1000DED30C94BF01206E5D0FBDC928FCBED78B
:100B2000A2DAF9F9989FB687EB5088BDD4D0C102FC
:100B300018FB9360042822CFE7E8643F2C8401313E
:100B400012CEDBFC813022D7DBA50C8C4F0498D56C
:100B50007949DBB008F931B86686DE61FE0891EEAE
:100B600000BC31EC780D204024EEF69649F9665D24
:100B70003DF0F0F3036F5B9840F998E6644F7442E0
:100B8000E841B0AEF4FD8403792007E2C10C13F311
:100B9000823829C6D310C970FBDE9F6BE6F26F97CF
:100BA00098C5F96AB3B5503DB34CC244895EA304FD
:100BB00059756504CDE383F965C8ABB360117FD97E
:100BC0006C46B3C666FD42BB50F2674457B3D50CC2
:100BD000BBA4CE3E7FA18B600128880532EC023099
:100BE000FCEF32B6CCF2B3B31F74FFD8FB20507EBB
:100BF000DBE4F5E8B8F3B3E6CCD0A3D320F3134499
:100C0000D358B019ADFF01626BF3405F6CC7FA288F
:100C1000C566048DAC66206DD39080FFC109FF844A
:100C2000699B64FBBED9CC0086D493C235B91095BC
:100C30009D10F80496440194A42C44E3C511322479
:100C400058F380FD8C3FFBCC7FE53218FFF3B9D61B
:100C50008B799B8F1BEA37BDF8FF182968FF67F374
:100C60005F98FF635F97B104BF408E3066F307F073
:100C7000FD62C6D32C4E6FF0195B0E63D82128F0AD
:100C8000EE56FC1A971CD885820FFFC27FB1CEFDAD
:100C90002FE3374B23E1A008FD5701B384FE371D36
:100CA000106D6D7A4FF9FF590E01C74E98F58EB44D
:100CB000AE401022872004A242E1C99DBC78CE2418
:100CC000D477F332FB20E08021AABFB0E628195F79
:100CD0003FB1882EFFFD0520012280025030C00A5E
:100CE000382805A0E5F83FFE800330432528AE08EC
:100CF0008BB19085A2846BFBB328B6B4C7141C08D3
:100D000073C41C827B2227A0DF5084FD7740A46639
:100D100070122678FAC2FF31553FBFA8BA5C80FB3B
:100D200036FAFBCC631C1EF18503BC82F30404CAB3
:100D3000C681A234BE6C9929FF8DD60948918AF3E9
:100D40008FF6BB41D9AA407FEC450485E6F895AB08
:100D5000B90228F358D4BEADBA0C56D20867B6FE15
:100D6000B0FFA6101F2EFF40D662FA10C6CCDD26BB
:100D70005CB511FAD19CFFF68E698A9FE5E2E41317
:100D8000E59720F9F910BADB28B462CD58BA80652E
:100D9000C83580ED16F9FE7E98DFFAFF20D0DB0B18
:100DA0003DA530619F167DD80896ECBEB81132C8BB
:100DB0005FA2B849FD0C121BFFDCFB17FBA70BF26F
:100DC0007C6CF3FE315F7E01FA810235C25A8240AB
:100DD000367790FA092B1989193066BFBB9A88FEBD
:100DE00004436BF75DD861D7ACE521E566FD87FA72
:100DF0001CB7106EEB98FE305CE7C853C4DF7BFB7A
:100E0000B8FD30E4CCED7C0884DE035A02725CFC51
:100E1000C10BEB81CE906C2150FA355CC202BF1A37
:100E200020CBF538382F660435E3C8416C77D2A261
:100E300008C888C9DBCADDAB08A6ECF8A033F49873
:100E400020B27FFF239468A9CD60F9FC4A8C187901
:100E5000589CEFB0FB083311F817F37F12F5150813
:100E6000F9D11DE2D31422358E1ED7F338F940E4B0
:100E70005481D9F188DF612C476C4E24048AC7471E
:100E8000DCA310A5F4C479CB68FC60EFF806143439
:100E90008050E58EF962DB051405B3B1B026B810B9
:100EA000A0B982883CD34101244C0C803804A9AB02
:100EB00012D71028856BCF60F9FA248098131C4054
:100EC000365442A16AD13E8B7F2831109C0C39AA3E
:100ED000088A1971AE80383F86848B882C02F3060D
:100EE000C001205D31EC0CC8FF53CC2A5FF1CB046C
:100EF000CCE32066FF34B280008E7708C0FD8B7D86
:100F0000E0CCC57FF735807CD8477DDAE5B2FAC7FB
:100F10008152A001C68278F910B0FFACCE59F080A2
:100F200066C4127ACC04E4D520DBD324E9AFFDE219
:100F300066982DE76CF510AFD2E848FB60C23EB171
:100F400017F59F01FF9896C8B3EB71103C3E58F31C
:100F5000C2AD40CFFFF204A8F86698D06657B4201F
:100F6000FD00F085F92E67F9CC7913AA6158801934
:100F7000B0BDB40A7F19756C1A0440D85BA021E497
:100F80007BAD1CBFF0411530B36D9C7E41CCCE5B78
:100F900090104F60FDC8FB4061A6DD4AE502F7C531
:100FA000AFAA4240A121D9F1F85ED26147D87FA70C
:100FB0006CE2FD26F84C0CEEDA8920ADF308DBEE8E
:100FC0001CFF8FF9D6E103682BCFECFEAF60680FF2
:100FD00081A050623EA89306FCE90AA508DD4523DE
:100FE000E006DD52EF9F284101A0C005341191CBEE
:100FF0007D03CDB4766D51B2C7892F0930E3C5CBDF
:101000006E86C5B280E5412237EB8130E862E7F7B2
:1010100007F0FBC00364892AF3FCEC0B8801F5B2EE
:10102000C0CEEEF02018E7410FE0419A3CC6C00B5D
:10103000EB780F0C844BB340FFCC06BDD0660A6939
:10104000F4EA6677EC558447FC6F201082CD8D90D2
:10105000DF61C0F4790480C0669782CFE7C809B029
:10106000EF1018FB53B3C2C72021B781FE9D0813B0
:10107000711B0A806C02FDDEE3911F2B1EA46B74B2
:101080006F300106404CB78B50E76680105288FBEA
:101090006E190258D0D093230619098D20E06203FF
:1010A00066ED0C811030CA2016D3FFF960013C9226
:1010B00008C68444D32774E60D20DAE8F89266194E
:1010C00020DFB3E318F360009666947966E4432961
:1010D0005FAC261BA91047664BC650BE6ADB85CAAB
:1010E000966FD7A340B6147A191802836059D305B6
:1010F0005DBE59818115A0D30980F22458C84803E8
:101100008E9D080931686757A1790C7D0930113827
:10111000FEAEB9A619440390BB25F7B60635AF213C
:101120000896675F8FEFFFC415CDAF182498941A07
:10113000DFC02AF2B0F272B39B0456BC981185B698
:1011400090EAFE3526F3338BD12C569DD15E018774
:101150003D0267D5FF069FD9F5C07747E5F9147DB5
:101160007FA3ED401E3DB361100CCB9107BFE4039C
:10117000F662200BE8DF7FBD119A07FD775DEFC4B3
:101180000139095986E07AB33CBED84AF3B0FE3241
:10119000E40177F3E8F989727A46980BFB2C0D93FA
:1011A00019207184B6A05AB36977DE77B79BEFE94F
:1011B00034BFBC988942616B93B9B619AE60AC5923
:1011C000C1B031DA41FC264C48C3900581655129F4
:1011D000D401DA025F326FDB3D51DFFA8E477CCFFC
:1011E000808C098539D11DC1FB52B0BB6810D30575
:1011F000A3664001F23004E1F9F1F7EA06C4038185
:10120000180F7F9F98D3FAB709D960807FE1FD4A14
:1012100084F40DE0817B98F080C31EC8825AE519E2
:10122000082F1906F598203B1960FD0427EFB2F44A
:101230000D06371F66B6175AB3088F1D2F962F4E0F
:101240003F78F71B109DE7E49866ED1012FA3F7F98
:101250002273210A4C72F426FF923FD39AC8226669
:10126000A440FC19D7A1018FCFB31861031A08D588
:101270001942BF40D49880F3DEE0F8A339FB1A404E
:101280005A7F2B8C80AB0AEB7FCC988366F7D90E04
:10129000FF231966A8400480222B2DC5984877FFAC
:1012A00014905E5EA41B6441AFEC6D9830FCFC981A
:1012B0005EB3A85FFC6BB23D65CB4E665CB3770A4C
:1012C000E3E9C0D33240E035E5EF38E5B3FDB91EC0
:1012D000C4DC6A69D43209C00262B70BCD1458FF6E
:1012E00028E34D771B77E0410CF0EA3D037969ACC8
:1012F000740D8486D3D59862F27F66F4BFD0A305BF
:101300006653B3B923210324846E87BD607B41F506
:101310006F51FF02AD2E40C1FF6D931426C202999A
:1013200006E518F84AFE80F69892FCE3D8F9FD939A
:1013300036252C8B73105F37982266EE7EB3E70B51
:10134000FF8884B006C2C0B4FEBC9869C0090B42D5
:101350008E18162352FF6F9806B01F199D4006D0B5
:10136000038618FF0998326BE6984FDE7F8EF307ED
:10137000090F6933A0D205F02300BF7CE43183A0BC
:101380004EA31EC8DBDD9850FD0CBE8BAFFDFA648A
:101390005946FE986BCB7A09BE3E5F6AE398270CEC
:1013A0007FA28B415B18FA98D9D3CB98740F05B301
:1013B000BF4CED32BC98C9CA3E125ABBC0EFF8B45C
:1013C0001124C442196153E1CC0DA8712268C016E2
:1013D00059FE98DED0F926FCC0181A408368169E84
:1013E00098B510F0988C83B39CE712ABE06E1110A7
:1013F0000444E4354B50FF5F8C803114AF101198DA
:101400001B9FEE9891106CDF282E73D8F6DFCC98D6
:10141000B7FF427760BFBBAEEBDD1C8295EB980354
:10142000418E66BCFEC6BA44513936EB19205F378F
:1014300098E53030FFC0F82977A9FB45143C995C4A
:101440003D5CEA870E01BB3065F6F6B7B798D0F879
:101450009719F2620911B5F6C24612FF5B9808F1BE
:1014600030AF3E755D77A6FF2A66D4A0D32067E132
:1014700090EC41B0E80531426094B320BC5D74DF6C
:10148000C3F9D424D09E0482140C01FED9B124BC2B
:1014900030347F22FAF059672BCF6B88F3B0C0E766
:1014A00002F20961428027FE4D5358D954DE9883D9
:1014B00028B1BFFA32C834196D4B193830BAA4DFDD
:1014C000833035ED8A44049AF38DA20D62CA90D61A
:1014D00001347EC802700003682C2DCC6DB0C6406C
:1014E00007F9982D7DFD3A24915702F6100C9C7057
:1014F0006DE798F17D93D32C6082BB01CBC5E015DD
:101500002EC384887EEF5018CBC89166FBDEB33CB7
:1015100096180509DAB10C19F33E982FEB4A358479
:10152000F37FC72801A609819016A60226126A7ABF
:1015300069A011227786441820F998290B40B3340A
:10154000779F98F68C67B698A044A268B38747D374
:1015500003A8E7238011AA4690EB22820895308CDD
:10156000FAB4866B2F81409C308528040E10F0F869
:10157000D7209EADB3F3BC98237EDDB112FF2C13B0
:10158000A8BB047F9998630419106FEB24FC4D4CA1
:1015900002406E83B4EB5A1922FA9888DBD7477061
:1015A000FFC24913EBAA33C0D9B20734C0FA84038F
:1015B00078100E45F3805AAF334D51D8625FCCC6D8
:1015C00008FD599B5F8C5DDABC08B3513996370C26
:1015D0002284652911E26CEFAB5F038D83F820480C
:1015E000308010F324D30838EF4121950295C8D7F5
:1015F000F37F7880049B11CDFF8661C908EF62A557
:10160000812C3FF67F289E982DE07DE7B0D30148DE
:10161000FA4B43838A10E7883012BF24085BE7C780
:101620000280FA05300846C12F4AEE3204402F6688
:101630002E4B15B490FB9A7837D698E0C21994FED9
:10164000F2640F8A049D9026B4F016C4271A23E88A
:1016500081AD3C8B3C069244D104EF749850F80461
:1016600066EF06C2806C730C08AF169885FF72286F
:10167000EDA8BC868689D3C4497DB664C90C84F3C1
:10168000395A082DE75A66F1FD15C696B7767AA540
:101690002CCBF198396BEC49402267F2D72A17A07E
:1016A00009B2AF80721E984023E1BD98B1017484E5
:1016B000AFD45D9804ED98E8FDCE26165128B80504
:1016C0002540AFAD9820793010A30271C0B353020A
:1016D0009B626AF0BBA048343C465042026991E0EC
:1016E000E20582117E860650040A45BC9857C2AEB8
:1016F00098E023B3A896BA402DC7308FE734372A35
:10170000FF2DE97834BEECBE4C829E59201CA6DF2A
:1017100038F9D917C1500F82784176DFD684BE9848
:10172000B581EC1750073E4C2733AAFFE0040C0E9E
:1017300007F220EE07300FBBC2CB8B95BD04F13210
:101740006B60E0CCBF913044933811488E01F0B308
:101750002FF6980A84DF977D68BCFA0F7330FFFA82
:10176000D080A0109072D48860046C75C9C006EC5B
:101770008901908882EF5F984ADF17124008983BF2
:101780007B2014CB302DA87C9859D94F6655277AE9
:10179000BFCA808489EC75483F09610284FC0188D6
:1017A000300A0640BBF357622C7E3288FD1E62462B
:1017B000401E44BD98031116595A0BF13091D7645D
:1017C0006B2A0502CB300BED4E4E30C8D3100B53B5
:1017D0009019F040AE161A304922F69820FDD39A9F
:1017E0000340183566E130EB6BE09851BBBFC97F11
:1017F000B39A2FF01346654C6014861849896665C4
:1018000046459B96DE69FFC25C305EA50DA6F64993
:101810008008BE98B5515A6602EB7C13405FB4F362
:1018200091260224D3123EEC48A88930EDDBF61055
:10183000F33008FAA22090D5028BDB18B20DB93034
:10184000895E98DE8004B329F0B043E6DD5367D7A4
:1018500034714B012077408167C81114CA9006C6C5
:10186000F5AD48A7AD98C0B3C81832F36019CAF4F3
:10187000980476A66BB9FBF7475F13FF1A1891A07F
:10188000F7FE984276B6D3DB9860FCFF3FC2FD407E
:101890000E848270109BC630DBD1BD12FA21E75551
:1018A0001B777B30A0D207F1E00375BE0FC8D96467
:1018B000074B861EDBDA98C0FF20A0A45090B6111B
:1018C00008BAFC69CB304423D0986A2E14D7F1555E
:1018D00017E7A121F83277970F720B2050A6BDB8F9
:1018E0001A2DF67D986087FE884FE041805884F677
:1018F0000260404CBA556DE6985B6647D5D30B7FC6
:10190000D302C2EBC00840C8982088C6A953C2665B
:101910004C407366F86077A8FFB0BDEE0830C9E2AE
:1019200030F0ABECAFFA32131D0B07F7A58805F0CA
:10193000ED2006C833C82CF9A001314006A5AF50F0
:101940003F989730087AC44123887376CBE0300CF7
:10195000DF5FE50BCF3002C040187E6FC88416935E
:10196000B5FE98CB18FC4EBD9824D0800826B2DC7A
:1019700078306D9A410DB455AB01BFE3A01131022F
:10198000FA24C4041821CFC84DA005A220B6E459FA
:1019900003169E98DF58F8EFA551081A40DA036045
:1019A000739F02117FAB98242CFCB76620010BBFFC
:1019B000EF33C8D0EF0359C87F9398E31B610E60E3
:1019C0009FE205A11030F969CA302034390619FFA9
:1019D00016B8075E6EE40A7BB0154AFF082F2DC8C3
:1019E000084DCA94C688F80AFEFFDCF1C0E8A27070
:1019F0007D5F5003E498F55AAF68D19732563DAFFA
:101A0000C55BABC1A73C3D188803190F0EE84130F8
:101A1000AC10F9C81808037ABE77F7CC98FE3319D2
:101A200046819A105C497EEF4924F6984041EEB613
:101A30001ADBBA9FED86CD6CEF2831AA9178C420CD
:101A40008026EF1443DF5A2B32A659E0BFDFA05E99
:101A500098DEF3FD56AF424CC503F92CE22A302242
:101A60001269B8B2A183B3A354C5667E3EF18D1B43
:101A7000AE0888B83056C077C86002FA98164A6F28
:101A800067FE924C428266BFE7CC534006A2C8462E
:101A9000CBC8B2F5EE5130581991A7F86F2F200836
:101AA0000E0A57433730F42064C83778983C073023
:101AB00035C93070C6E660012CA3FBD389017703DA
:101AC00085610C77C83E664D456637B722CA58A275
:101AD0008E43448C7E96DCCF09A00C808125FBF3DD
:101AE000DC4FB460F6981BF8F4B4C4E5C3040B46AD
:101AF000C6B3BE9872B311DD660847B33FA0A40514
:101B000081A046C8F302184043C04DEFA401A0E1F4
:101B1000301842B3CE703038FF18D1FFE6B3DC7A0C
:101B2000DFEE40A615A2539F59F3ADD350F9AE5145
:101B3000728819E286F3EBB522BF32C69AEFB3087A
:101B400038EDE0D0E9CE6CD3D0FB6469DD8E227332
:101B5000FAC46FD96ADF0BEC40102FD9589828408F
:101B600066BD28B344ECE758FD713940BFFEAC3583
:101B70007466F729CEEFFA657E9F08C415D848F63B
:101B8000CC49FF1BF37DA1FFEC653EE4062E580F08
:101B900020F387FE278F7332D559C8A8FDCF651E65
:101BA00051F3629F5234ED18BE68E06280176EFDFB
:101BB0003113DFB7CC32FF41883116D390FFD7AC59
:101BC000FEDF06A514107B8028065ECAD8649ADD65
:101BD00075D8652ED9AA7A018858B358FFB2028DFC
:101BE000F3F48DD7F60AFE4AF381C53F5320B510B2
:101BF0000EEDC9F59A42C6E76198657B85876B83D0
:101C000018661B8CFBA5B0F90185E6FFC6247A385F
:101C1000908C1963D6490167AD9340CFE9341DDA42
:101C2000C5FB2F6EBF01AFFE2FE4D9670825BDB6F7
:101C300067101F66DC0802108AC51D826B2F18FF13
:101C40007FE8F201E8BE6582E594F35A09DEC8B187
:101C5000421ED0CC21EDA3C9E062B23BC68F027414
:101C60009CD0FD085633E340BD0AF71A2081017A63
:101C70007812ECEB5D182065C54F9FEC4B11260DDB
:101C8000B0A211E0C43F3520A184010E0C170360FF
:101C9000FD024480AC1020EA661CF90156F4400CA9
:101CA0008414F30CF2B1B88204D73C810A60337F0C
:101CB0009FB152408A4823F502680DA2A4437B0FCE
:101CC00018C0DC29EB23F661042C185FED7F02FEBF
:101CD000EAC678B4CFF95C1C0DFD53EC20D4FB8D23
:101CE000967B628AAE22DA0D435504623EFB78226F
:101CF000064F11F306FE13808076F3D9FD21F69A84
:101D0000130B69C8359208B1FE55D68898ADB1015C
:101D10001DB353FBAF685C7D6107991286422ECEDE
:101D2000A328197F32CD4FBFE34F1E4B1A22D92D66
:101D300096B8B3FC3EDDC796BCC0DF0AB604328657
:101D400056055018F5171875AF680DFF99C40C6A41
:101D5000A5EB2084FBCC28199AF54C8084C07058E0
:101D6000AE567D597B9B49614170B7199E4D151048
:101D7000FC93E6BF29C68A147B2D41FF7BA010028D
:101D80006617451823A863B7D75AD5207DE191FD82
:101D900002A0FBA99884BEE56FB0BE588BE648FF51
:101DA0006E222CBB3C33FF33C8086718955FAB9697
:101DB000FB1F3CDDAAC2364388FBC3832A3D9F98A4
:101DC000B2FEBDAA0365FA0040C60FC5EB666DB74B
:101DD000E458D3E0B79E4BCD6266ED300CB8C866D0
:101DE000B422DCD5F0710C58D1B2DB0588BEEC9A78
:101DF00002DE5805F9EFF6CC1804803B5AB6C780CE
:101E00000833DD9328FF8CFD59C1501AFEC648C225
:101E10001FED2F58FBC241B33C91C6B8FF6CD504EF
:101E2000DF20C8E9AB4CAF698F0263BEF37AF222C0
:101E3000DDF5B8D9FF80A6D932C0BC20058445396C
:101E4000115AFE4E80CA594AF9EB270296C68133D1
:101E5000CA85403FAB2E760613F0086F6BEA28FB6D
:101E60002E29CC700875963BA0A70BFEF22E206C95
:101E70005F74EA818BA528F304E6F3AD4EA9FA73EB
:101E80006A10021A804DFDF340EA4701F48A900C73
:101E9000094003C90579569215AFC0E3000260A45A
:101EA000D612CCE32CCEA07F024050440322208DDA
:101EB00028808708E8A4FCDB524B84D2CC0BFB8241
:101EC00087246803ACDCF6B82120047319842AE067
:101ED00004C40A4650FC5F4DA016153112F3782C4D
:101EE0003810891DA52A02369228FE7F6CD2022264
:101EF000E8290DFBD9102D5999F268FEF66DF6B15F
:101F0000FAFC4A0601FCBF82067166E2C4E460E1A5
:101F10008043212B31FA91014136C7767ED8FF10DC
:101F200039DB1740739F1ED9C5D2D8ECFB97D80375
:101F300065AA55415866FE41B67311F599EBDEFF6F
:101F4000503BCC26D918316CF667F787A8F863CBDD
:101F50002D80756D011B8BFDD219CCFD83D8B8FB8C
:101F60004BD222ABCC26DFB644C1CDFE6668F8C2A8
:101F70002FD990206ADB022FA644E020EC40100805
:101F8000B6DCD8FAC77E89DFB66011C661EB178070
:101F900039CC60B1FA9D31C2C54B049EF7B3C83C41
:101FA000E5C777DD086E6EBC01F42337DBE5FC4046
:101FB0001F37BA0264E0B8ADBF260367A919D0661F
:101FC0004078D8B152EFB3C216F0012009DBD8F83F
:101FD000F69411764B81209A7BB81AD6C21F5138DD
:101FE000341892A5D968FA092B620B5B4D7883B03F
:101FF00082B5FF0C7E99151F7F9983BC0C6064FE2F
:102000009760C7D6BD30ED8B0304DF66B7F94CE6A9
:10201000230A886B085E304B911930B201F96FB812
:10202000643A660901043DFFF58869EBFD111F3331
:10203000B200B337EF64C00318ED100F6017EB1652
:10204000B666E0413CB4B22C0E19F6B948FDC82C76
:102050009AB20BFFCC80B001938D15D2CD40B3DC8A
:10206000A3061140D5C190B2025DB3083005A7B6F2
:10207000B898157F2DFF21CCF5DF26E5A34520D1AB
:102080006602657B5ADC47EE04FC317BF77715FE70
:10209000181CF589FF96F1B18217DDDE2085DC0181
:1020A0000C9EF677D5EE0636B3D938FB7B6EB4843A
:1020B000FE8C1E08C9F7985A8994D3A009F8C777EF
:1020C000EC5DFE046DB328D9FE082B19242FD6F23F
:1020D00020A0B37766193DF8C376B57E8E7F703346
:1020E000FD64F3241108B480F8943710ADFA453B31
:1020F0005760DCD1E0F8F6EE777C7638B3D979F822
:1021000008F4781B0BE443194FDAE5E07F32BC0793
:10211000DCD00FF881EAF4198EE7BFF90464176682
:102120006D1740F6C3DFD0E51CAF511BF849341DD5
:10213000F68923FB0325B3886FE63FE7B3ADB920EB
:102140003DD439098E7A39F0C8E530037B98821185
:10215000BB018D7F1BC4A008D875FAA917AA7E748D
:102160004E1F39EE10623AF9DB1A20FAE5FFC9EB8F
:10217000FECC73FCFBD51A2188ABBF0D5EEC66B9B3
:10218000FFDF3FE58C088F6C37D8FC8EAF176E9859
:10219000E4016DF6401E57B330BBB3220CFB9E9793
:1021A000DD66BDFFC4B3AF186E51ECE8FA049619B2
:1021B00028A0F1B3EDB4115C87B0D8F7B225ACAF6D
:1021C0003DDB416EF1FF1900EB451821F1FDB7042D
:1021D000579A601E329A0280D193847FFD8F3671A8
:1021E0000DABCFF0137EADFFB1081D32401BECD01C
:1021F000FF70191E7A200B64EF43E5B0B506FE228E
:102200003C08E766328D0A7F3D9F97290F109BBBE4
:102210000620FA84C8E3CA72F55AC304990E7A09F3
:102220009616CCAB7A2934688C6AC519F997E6986A
:102230009C38A30821D607309FC4ED6A8012569AB5
:102240000923FDCC5820BABFFDC8CCC8686E80A851
:102250000191F7D42D1A3D9801B930A38AEEFAEA1C
:102260003A76A354778077ED3214D7090D36FB3CCC
:10227000FD4E59C8BE982FF3D7352651EBB9D1E999
:10228000D48766EE676962999BC8982193832F195A
:10229000371A2FB0B97FF96EC074FB73216D76ECDD
:1022A00098FE055B4FFC59C6083DFEED600A013FF4
:1022B000F8886DF711F7B19653DFEF12EF4B768682
:1022C000FE0166AC6621BEEC333BF98CD2C82153CB
:1022D00004BF4201A328AFCF96F7900E70FBB9312F
:1022E000661FF6761ADE0469B3E68BBF4B4BAEF879
:1022F00023BFB158100F624038E9073096069B495A
:10230000C6800C4E418612CA3544DF67F605820D41
:10231000026E59C80729F6F4FEC8CEC820104966D7
:10232000B3B62CB0B4CE0E0BCAC409E8B2B5CCB368
:10233000FE6DBF73FCDCF1536002B9B3CBC02D213D
:10234000F41490BA242DC279932867F23012DFCFAB
:10235000A7E37D238930C780DFA830E6989D175D0D
:102360000A7FFB32EEC3BA9FF0C453A8BB086719BB
:10237000717F7FD898FB924C18D7CF987BDB3EC9F2
:10238000C38899875C59B362F9C8BD0CCFFA647AE7
:102390009810060EC0E0C0605B1C93B310AEC9DDA0
:1023A000E789BF844519BABB67794B9BFB7FFC74F7
:1023B000550BFD3C0DA009018077DA1A0864BE6652
:1023C0002AF9ABE98A9FF1471186BB0566ADB20ACF
:1023D000FEDBEF59BBE21B76F70860244022C246C1
:1023E000ED0498D48702B3F4D8A3CE01ABECD71197
:1023F0009ADFB2EC7E09FD598DC01B49CE8378531C
:102400006401EF6D98201E3C98F1D2B3E8CA233ED8
:102410009A7B9B14CA1F30B4B810CB0119FF6479A2
:102420003B1FC3E698572E5D02F59822E2113D59F5
:1024300013FAFC65F22699C86946236053117FA000
:10244000989932FF004A6AF6B32A96B43067AC3BDB
:10245000B0AF2E98A4FB5F100E881A02D32FC87D50
:1024600066C6ABCABB413B6654FFEA3B9730349B20
:1024700043F330BCFB65FAD280E331741980A4FECB
:10248000F3720B4BB26507507FAAB1FFCE6C30C818
:10249000F98F52D5189A40ECB51A5AB3607F53465B
:1024A000C0DCCB5066F6754EAA9B6AB338FFB2F912
:1024B0003830C8DE960B098875261CC03D1109FF0F
:1024C000A2BF10FEA8560DEB14E7665D3CB6B1F94D
:1024D0007319FBB1C3B2FA37C960BC029902CDC807
:1024E00008AE5CC864FA62A05F904176E5577BBA9B
:1024F0006919FF062E393D65CE81B2FA3930798BE4
:102500002064AF404008346D97C8BBFF900ACADE14
:1025100009578FB00FC4BB6E1E6FED9860F890E541
:102520006BE698471B4B6A9FCA5296FA0504B006A1
:102530002FC7EAACFFFB9D4DFC61C402E85C14565A
:10254000084FBB6D0E404A46E02013C60FB3EE6441
:10255000F8FCC8F6986811778310017B985A487A7E
:10256000B409FFFDBC8C77CB32013B9A63BF532B80
:102570008CCACFDC374DF5B3D816198457A3988091
:10258000BCD67AA74BC04078F8073713FB4C6F9B3B
:1025900030C0F82B35C804F57FE375B3D07AA3813A
:1025A000FFF732CE18DBFB206937D81BFFBFE87F6F
:1025B0000C7D59291C30FB1360422820BBBA103710
:1025C000B3019A6673425EB3DCEA22F8FB49F7373F
:1025D000FF0616FDCC4CFE3CB2FA393020372E02F5
:1025E00021A0C0779804832DB33177FF03D38023D4
:1025F000F87FCFD94BCEADB8B008DF9371BEEDBA3E
:10260000B8FB91CF3058100BE0AF417BF2F4201EA5
:10261000C0BDC8E069AFAF8E1A823A7EBB422F0BB5
:102620003D3B8D30BC47050FCDB228F891CE302010
:102630001004254129F7C2460372EF81D736C882BC
:10264000BC00D80B02975E176ADC0C08F1B2F83DAB
:102650009860F7028882050D5CE511E0B39AEEE020
:1026600021D35232C40FC496B380FF75D9A8F93E66
:1026700098CC0221C0015E46D100BC98B5A2206969
:10268000FFB1B27DA230B901CBDDDA4BFFF543B922
:10269000B30DE83902B7B69878FB4F8998C2BD658B
:1026A0007A9840F78AD6C421DD5045DE09DD0AFF5D
:1026B0003335661071B3BB66F8FD64261962716824
:1026C000ED4CFCC1E080A2A6E053F308DD77A2D375
:1026D000BE099E8EDDDE5BFF26159BC630FE98B2DE
:1026E0009878306366805D08E0E5E919764225F464
:1026F000DFEE90444811E77E86DD465A82B1304EC7
:102700003F30D6986A4F233020EB4482F3FB22946B
:10271000185F7F0E805EEED6FDFCA4FAA31001CEFA
:1027200019DBDF084907EB9365E86C0B1165613035
:1027300095C530FA2F40F508F1799872230F5E0C99
:10274000DBFDB04F480B100231B30D42A508306ECF
:102750002980DFACB1CF6C9858FE864B6120D382C4
:10276000402D9AC966403FD655AF12AD1558020BA1
:10277000E9EB5EB1302EB9175CD9B2FDB3C888D78A
:102780008251A6DCC01910BD8B4C0648F166FD9B3A
:10279000443102CF0E33F14BB3CD13FC98CFDB297C
:1027A0003F9E4E9403C410EE7630E2AB403AD3EF36
:1027B000F8FF20F995887E597BC7F3FF6780449422
:1027C00022EDB387EAEEB128B6D3D0FA031E7DFF1F
:1027D000980A556201DD08ECEF28EE71D648D8FE64
:1027E00024F3661857DCAC37F8F6E4EE946E38390B
:1027F00012FF231E776618A04CF3C9EACFD8B8762B
:10280000BADB08FEDB21FA1AA09BEA11A493ABF60F
:10281000942BBFC83E1FE20FD807F0D38DC173229F
:10282000C638BCB5F566FEA79B3180DE6491A4D1A5
:1028300020FF145A48F27558D7CDF4C870E0DF8FE6
:10284000BBEB641BFBF93832C716D39827E6C549A2
:10285000BAB1478CFEA510D9D8802CB311CCFFA5F6
:102860006682B7ECEE08D5DC22AAF811C7FF08FC97
:10287000018D9B18FE1A01C2166688F8C554E780C0
:10288000AF61731950FF627FAE61A3FF88FE7F8442
:10289000D3824033CC22B5AF40891800A29402EF16
:1028A000E83070FD2FD5C8089B10D58165CD109FED
:1028B000F674243DB20847816B78F97EF8A220C0F7
:1028C000082062C8505A2DFC97DCB518B3D8A12057
:1028D000976C7B208359FC28B5360A49660CF8B6FC
:1028E000F8C97C79150D52EF06A6AFA302EBB1082B
:1028F000BE3C91B302DFDDE340FE9A8861D3FF1056
:10290000FF019BD649E2B01AC27FDE2901C2EC105A
:1029100088FDB3670916BB402BE6BB33ABDC10BEAA
:10292000B7D8D9C6CDAAD6F1FE57980B68FF6FFB72
:1029300022B0CC663D37AF303454E37D3C43C30511
:10294000B3B818B3EEEDBC2856F3053EB3ECF0FE79
:102950000A6BECA52C6C53B0FD157ECCC3FFD930AF
:10296000906BB3040DCFB8DE22D8F9DFCC415FEC19
:102970007A5B8CFBFCD77618187D2379E3652E9162
:10298000D6051D1E1EFFD8B9FF92B308C34FEC75C4
:10299000C4FA157DE5505FD96167ECD228C5F1C056
:1029A000846B66400933B0C8B1FEAFDA3940FCC869
:1029B0000612365738F976C934FB7FB1022CA3844E
:1029C000EA1E5866FCFEEFB9040E64C2165EFCFDFA
:1029D000C9F1EFC762676EF9B3844D1970F989794F
:1029E0007986BD03B2185366102C024576F6CD3DAC
:1029F000F68F2BAE15F8FA0AC96CEB04807C2A59C5
:102A0000DC3DD81994F13DF658FE20DEF60DC0BF2E
:102A1000022EFC40B240D808104222AC08B23C87DB
:102A200089F178FF120399A3B001BD22E2E00248C8
:102A3000D2015994051804F91630133796612042D3
:102A40003BC060D6244DAC6506E7E826210CFDFAB4
:102A5000DC2A9CE0400121F4ADC480A8EF89300558
:102A60003B5E792612F52F802521C2FCEB62029F86
:102A7000A360D203080172BFF9CEE58210B27F02D3
:102A8000C637F0046CCD8220CBFD71F9968BD282D3
:102A90004059418DD216221078B2BDCF0B802FB392
:102AA00035E54B0909CB99CE98F8F3637AFAB0C0B3
:102AB000A77B89E4FF18F5C902986D637CAD2F945C
:102AC0003166656B01A9EAAAF8820D088FAC66F839
:102AD00047B6174118E9A8EE76E8FA02CF58272042
:102AE000D6AC9D04B3F33132A86FB6E3083973D97D
:102AF000D8FF9FB762798F9180545845BB48F03C0E
:102B000066DC20D0BFBC25C9319CDE587DFF2A6A17
:102B1000150AC7B22AC7FFA3B0B2F84C237F6CF5E1
:102B200077F6C98825F5CCC6F36F981C4DAB1520F8
:102B300066CE0902D3949F06FCC06081F021050295
:102B4000902C10499954B51851F3901A72F4492BEE
:102B5000DE0E8110B8FBCFED75068F9114ACB9D2A3
:102B6000FB640DA642EFDBFD8076C203EF5EF2014F
:102B7000B3BD04CC6446CC7F652B0CDDB68FD4F39B
:102B8000300801A5C0D3037203609BD3F0F975CE62
:102B9000830BFCA6D3B302E009024CF39111EF586A
:102BA000C040026BCCD63081CCF322D312B8D39E76
:102BB000607FFA5A50AFD7113D06B398FF08906076
:102BC0004140820530670FB36932022613041806AC
:102BD000032246F331F81026820858D312D32CE78B
:102BE000804930AAFF606DBAFA0344A2E00F800763
:102BF0003ED81EC002781F0BE081B33CBE7F7FE051
:102C00003C8807B0401EDAC8030EF3D3F02040D34F
:102C1000F37A000FE8F320DB58F8F8A0B7B8F476A1
:102C2000189E0C9C0C8201C453663046C046E0FFDF
:102C30009FCD4020F3811CD3E6B2403FCC2342FC21
:102C400053FF49AA1869E0B82CE0CACE5E9802D5B5
:102C5000B3206CB3E5300406E91AF386B3BFFFF482
:102C60006812FC6FA537E0CD3808012180B4DAD8AE
:102C70003DF9AAC0FA2382FE1884F285F5A5096BF6
:102C8000692D04B79064C62480DADBE6B86D968DB2
:102C900076DA815387F947D496426A4743EEB70CF8
:102CA000F38B7E5E30FA50B6C0F5E50117FD80ED7E
:102CB0006567C888117EA128EF728AD044A9975D04
:102CC00080B4E00C44E0BD01461278D3DCD7F8D8DC
:102CD0005ED26BFBCC814CDB804093D8FB88677A5B
:102CE000AC2916330CFF1785B49CE0F37F81016C8F
:102CF000D3BF3A92CA16BF8DEE9F4DC10258101332
:102D0000E761088CE230207A66D1FFFA173FB0E81D
:102D100070F598223FB3191003640C8CF8810930C8
:102D20000826D884587E1062220C21D3EE0688F93A
:102D30006E7007F2F59802A785985EC53CF378009F
:102D40000FDAF13C762340FFF9E5FE032807E0485F
:102D5000ED70AD06E0F33D68C630F32B57D368F84D
:102D6000046676240160F3C134F912F37FA0E51400
:102D70006F40016FAC80A8F1E5F11DA2E084FF2552
:102D8000D8F380AAD309EFBB7FCDC57F7F094B0C59
:102D9000C024B3CB5AFF241AB3AFE048F38B29D336
:102DA00098B7FBF568202B80A09E502204480A2883
:102DB0001B01829723418066BB88F9B55D44B39FB0
:102DC00002E0201012406FAF904240C2885C304059
:102DD00099A584D388E6C802C47C9680AF408EED66
:102DE000E4110AF459BE2FBE34DCCDFFED0770F9B3
:102DF0003A1A8DFD8BE6E5ACC295E398642273FA2E
:102E00009D13DFA6ECCC30C020B7B9F5C03091C51A
:102E100030DBB104C5B3F1E244D638B92011036503
:102E200078988DAB2272AAD907F6462270226B02DF
:102E3000CDB83D23D0772F300A01F3B87FD03203CD
:102E4000DAFD43FB9805C0CF8040F360418C9601CA
:102E500095AB668A9E050BA8A610BF3F0AFF268089
:102E6000041810036221EB0C8831DE9802801803ED
:102E70002761410CE0908130ED38FB32278E63E111
:102E8000F7BD5E6D3BF316D05F5A9810FDDDDFD4C1
:102E9000FD51196601E081723D72D7CB78CD8B3C34
:102EA000980347F320C0FD2C74AD51FC41667E129F
:102EB00004C47CE56062265D82E2F248DF8E8AF31C
:102EC0005E23963090BF7FB54251B311CB2CB30136
:102ED000B5B340AFFB1E154081FDA584652CB3281A
:102EE00087F398FA206DC5309EC801A031BD9004CB
:102EF000F048400810C401715DC0E37D4440542196
:102F00003DF84555959D7453FAFE50084110F770F1
:102F10002028804FF3544802412BB4E96FC768B2B0
:102F2000FD4C3955FF44E0C054133BDDD1D540067C
:102F300095A657F9676DDD7748FE0BAA5D5EDDB19A
:102F400002B529A66C5F0030E8445254E9BF72DD37
:102F5000EE348041DBEDC4E023BBF3C1C02FB59F4D
:102F6000F68BA8F8F5CEC0FF7F39E58029E3D9229A
:102F7000119C30FB12444C540DBD9883CBD7039663
:102F80006C94C8E08929AB8F5059C869E99872667A
:102F9000AE50EF170210CDC80C6D5E7F320299E083
:102FA0000813613BCC98A7660E30DDE1100949A3F8
:102FB000BAFF320C802CB3D5063D5D900412FF7F22
:102FC0009A3119FDCAC8D302F2C8EF3BD2CF98E5B7
:102FD0005010DE98DC08052BC540144E0C4901C585
:102FE00035E4DC1D59C8D7C483A2A5E2ACCFBB3100
:102FF0009BC001799010F3C9D3197F1F3DFABF021E
:1030000038A043CFE57D40E810071045348180EDBE
:103010007E9C157349E006E38E08DBDA9859FEE2E0
:103020003DF5C528FAFC34C08529652FB30447B3A4
:103030000278F8AD05A556B308AAB3298BB32DB114
:10304000FD98D0D7FCA0D7F091C58135102410F998
:103050000C14C332F10AC119D7B4105D6603FFD74F
:1030600092F7E1DDA70440401808124207291480B6
:103070004A33C2E909C3F241082001E630B7F0E95A
:10308000AF1B46ED4999EBB801C1B3399699E8A455
:10309000E1445F5EA0887E596265FFFB91FDD7CF5A
:1030A00040E4C8BF50CB98F0EC847A601002171946
:1030B0007CFB4A010A4FF853ACF3C47F9DCDD94441
:1030C0008393245D23BF194703D30C404ED3D0FD17
:1030D00004FF576648119DA9393A80228122A040F9
:1030E00072E862E49702850D847393BCD5CA5C22B2
:1030F000C567274290ED60025EA545989380C64261
:1031000013282402A007CAF904B550E9ED405EA5D2
:10311000A74566802850CD0423B38CA69DEDFDC540
:1031200001103EAB91E5D1E48807301216C98084C6
:10313000E0E8D7110C7E0A0614C104189FAD1128CF
:10314000820520EB2178FBCB98D7C58065C879989C
:10315000D950AF7079C58338200FF0DA1C801F98E2
:10316000FFCC03A5D11FD7E0412E3D71F5A5591322
:10317000D3F303F0171EC4F302380007F31C3832F0
:10318000FE08ADB495DBCB98E6E7C6203D0C1F5397
:10319000D702970189C064D97F173080A59460E079
:1031A000F337E0C279B8DB3F2342E861FDC6E17145
:1031B000FC80139AB31101F69814982603600BBD96
:1031C000988546B3FF420225035CC3D598EF536050
:1031D000045DB326EE6B93600AEC8D6EF81DFEFD68
:1031E000DF508291C869A4B3248E041E5020BE7E95
:1031F000DB8630F510EFF17266DDE5935B2010EBB6
:1032000052424082305B206BAC500901263390C2A1
:10321000E45B661E1AF877D9429E907AB3419CEB24
:1032200033A8A5B1C4A7FF8030FC5A226D95C8C74A
:103230003071CADEC5CA83100CFD8480F9A1DC544C
:1032400010A5F727EAE522E5C8B71B30681016D9A4
:10325000BBDAC1FC7230285C81715D577F02305D42
:10326000AFDB281065C81319F66F2EE8B522208051
:10327000DF963020DBBBB50BCEC87AF9F0BA9704E5
:10328000FB4B4C827F17CAB0C50261E788DA3082F7
:103290000912B366419FE835DAAF4280F811300970
:1032A0004602FF18012360043FD311B00046C0E27C
:1032B0000819019FF38C800530F7025AF960E6C8BF
:1032C00040D7843019FFEAF0201EC4017810BB07F4
:1032D0008D304E667BDC478DA504FD98B0157030AF
:1032E000AFE02E986B30F100CE98E43041AED3BD04
:1032F0006466207ED749DAEFF0300A60144966F040
:1033000044FF967FED77E53CE5DF8F3032F373BB0A
:10331000F3BFFAE57726AAB38588CBE0650C610C8C
:10332000AEED49043E20BC65DFCC98D5B38BABF342
:10333000F8FE5C306DCDA8242079D27ADA82DBF5F4
:10334000618192C4D0D73FF8479B6499A07678708A
:1033500014088A4EF498A8589424F31F0A04232AC8
:103360009044EFA215EC98FB6FC8C5C581B3BFD0E0
:10337000892C362540CB88081365D3D8FAE6FE9809
:103380005C9D4743E9A2B7EF0D6023CCB34DFA90A3
:103390006384ACA4F1853047D3F998C73B648E555C
:1033A0009426D35C29EEF9A409FDCC44FD6401EB1D
:1033B000C3103326C8B32A5333F82B99FA751B88E8
:1033C000290477B61498420098E7093085FB021863
:1033D000AE48A737D33005C8EEFC048410CEE29780
:1033E000BAD22C82017038C10818710B607D2C8014
:1033F00041B09466FD04C840E0011067D5810829FA
:1034000075E00CAE02F44D168024608E0256D37720
:103410007718FFF998F9C8D67A2047C83039F01FD5
:10342000E7B8E5F5C6B3BF32F35F0D411FBD3DFB05
:103430008807708016C9E090885C23C516D0BB58F9
:10344000DE982C08E0FC2D40B75F58F41FF7B2C19E
:103450007E05DF4FC8F3C56E6D30180485E0F302BA
:10346000D3DC6210F3ED0878FF7D98016AC05D8DB2
:10347000B3C00DB3F9B8809B11B3514F5EA501E005
:1034800032F322F32F18052069C823023AFDA00B5E
:103490006652B484EC17A0AEAB3B3CD8982A142BF0
:1034A000D6BB0687B5F3CAC03E805087DDD75844E7
:1034B0001750A168D0C59242818850070440CF853B
:1034C00002C620B0FB2CEECD2C03B7B3E35F5D8DBD
:1034D0003210A791F84FE211D18805A793C6176B58
:1034E000FFE0FF5A2C4723FDECF9C87F1EA5BBA3C4
:1034F00040C6F9CA2406039EE8CC3B507DFF3FCD71
:10350000909C191F95C8F6459967A764E618FA2498
:103510007F9298C28BE574492EE6116BD860209794
:103520005D3020A40AD14AED6B3022A5D102289843
:103530007C9F05E66B9C3DD2A6D093436EB84C6E43
:103540005798FFF59846AE77C84C80730CC122A4FB
:1035500098D302BBF32F6C1466B3AAF24752FC5007
:1035600018B2C865F458D36A8F8172F31120804E67
:10357000F38601400E45B06FE9FFEEBEB240D33A8C
:10358000C8E281F902465E986BEBC5044F8ECC9F72
:10359000ABC427A505E87F1730AF7882E130F3DDB3
:1035A0000531CE307A100BEF6B6BF8FDCE98FB1225
:1035B000CFFFC8C80D3CE5FF5AC588FE9B58FEC02A
:1035C0001424B68CE58A83B784986BEAB8825FF3DB
:1035D00070E298E0B7504342B353BCD8FF354BF08C
:1035E000C54D3930087A112305841DCDE2A5F5D5E6
:1035F000B346279EF3A3602E9A6CF348FA73887D36
:10360000B3BF4D2277BD93C20162998E37D334F98F
:10361000F9F7B719D7C7F38E04F12210EF7BCE402C
:103620002311281A6CD380107066F2B3F2EB1EF9E6
:1036300030852AB1C71BD621F808576622BDB3E4EE
:103640002BD71B8E36D3EAFF13BD662C5026518E26
:1036500030D612FC1AE5208AF58FFFCC7BE3CA0531
:103660008CE5F5EF108B36B390FDDB616DB65459E8
:1036700044E6B3FAA4B524EBBC166C17D3FD6BEC8F
:10368000F9F3591B2ED3B564E3922B8C79F0BE0D60
:103690000C21E3E3CD937757084DF3A8F89D96D816
:1036A0001CAEFFB83766C92D7C19892CDB1025604C
:1036B000B3E8FC31FC8A2DD421CE3396FFDFA0B0D5
:1036C000FC8984016EFBB6805BC128ACE30A853EB1
:1036D000FDA2A120F1198446CD1C37FF40FC844394
:1036E0006147EC860844BBF1EAFDD1F0F9F5E7B299
:1036F000AE6C042FEA00C8D3EC6D4FFB730201D708
:10370000BF209BAAA97C80BDE02F19C88778044000
:103710000F5C8964D0CD0A14FA5018CF8B0C04903A
:103720005BDE71D6EBE3886FCCAC02B50CDFCDFC71
:10373000D1BE06787907AE9C8ACBCF156B082010D6
:103740004E654B67C0B184C78764CE7F664C60C24C
:10375000FCF0E40CEFB7F0331ED6198031EDE238FF
:10376000F819F6AB7A4119FD8120AA8F4096F7022D
:103770009C8F6E991F08FB652F740421A90104E634
:10378000300807F618CE35B4D53A24751F1228CD67
:1037900001DF893ED358B1FCBF590780EB0A08739B
:1037A0005C10651450F9A68A18B1F718FF8BC8F899
:1037B000FF63ABC7010AB8CA8C19F5C510BF191150
:1037C000E782EDF1FB6A23D532F6E431F3D988FCC8
:1037D0008B7F040C0D11CBE78D7DFF9F8062DEA0F7
:1037E000B10475B71099CD7BA8F9981D637E4A6323
:1037F000AED50488FBCD308AEF7649FDEB50801EB4
:10380000316FFF6CE358FA32587D10A30A88FF61CC
:103810006FE94540B5205E02B681F2EAEAF53D2B3C
:10382000A1D8B3F8B2DDC3FFB3CCF665C2B3BC77A1
:103830007C18FD80613F5866FB4818FF67FD698B67
:1038400098A2FFAD7C50B830CFEB7C2F6C54A5BB59
:1038500004892F1C1058B3FA9E9F7FF60F7AC81068
:103860008FC75AAC02692EBA8D08D19B7065AC66C1
:10387000012E3226DD5510C8FF85398D67FEAA104E
:10388000DCB2F2D8EB641430CDCFADE74066183728
:10389000020C25E5818096BF64B6E350FF69C398AA
:1038A000D862BF627FEDBE2116D020E39EE9FA6D9B
:1038B000F6879B7D47F680E1A308E43875FDB2BD2D
:1038C000858BDB9631EBF8FC086C4077ED4BDBDF4A
:1038D000088021D6086EA86FEDFB58FF0AE9F25B5D
:1038E000BB88F964EAE40259C620CA061023E4F151
:1038F00076E820086DC280DC088008FA0C300DCC18
:10390000F011F553CBC250EB56DA036051DE4EE4B2
:10391000A97D6FDD836005FC8E73A83C81F84105AD
:103920000420C01080F2905AC8F6ECC0FDEFFCB73E
:10393000A180A208038BC3859F21DB5E2240384B08
:103940007E08296B3079F3E895103009301C3C393A
:1039500060650CF0F405202A8341CC15629D8A3302
:10396000FC06B688F3E54CA4FC78048EAB58988F1F
:10397000EDCB02C8F55381D3B9F70279F7B6F496C7
:10398000FC409047A19E7AB271A68A6C5916A8B7DE
:103990002088CEBA57E5EF4429ED81C2824CE61863
:1039A000FBB1EFB5FF8098612C15B1A5AA797DAF69
:1039B000B6F85CFA2798E8240F1609DD7A6202CE81
:1039C000E3F2CD331B9890F8CCC3C57B0292BD6C5B
:1039D000C4B1828DB74E6CCF30FE23CB4718D58A49
:1039E000209240ECF8F90C67F6D6042BD6E8166E58
:1039F0004940C21558019FCD0F94FABA760AC95BA7
:103A0000CE02AC5F4151A908662886083AEE307DA7
:103A10009325ED8A8C8B5CEF46EE78F9CC5A2880A2
:103A200018E3E1A08B7B7448FD6719E8E7F0832E6B
:103A30006EB96FEB8D023DCB20B2FFD6464037D634
:103A4000FAD9C1BC42B53310DB7A3466CC3CDDA474
:103A50001B3922045DE12FF204E7FCBFA3695C8CF3
:103A6000E8FBFC20300481D6CC88F962D84402D728
:103A7000F3CE80D00C429DA1FC0502A34C1A019EFE
:103A800010AD0C284476ABD0FBEB8C02202AC77B10
:103A90000440661B23FBD9D8FC3BE41C20751E6048
:103AA000A322180462EFB60C8001C0D1401ED6A735
:103AB0002B38066E814C2D0E7E30CDFEFAECA09B8D
:103AC000A626FCE662B9B7948026FCC1012C78B327
:103AD000B9C8574DCC024508B8CB6644F14DBBC1BF
:103AE000F7FC81AC3818611C30D60216A3BC08DA8A
:103AF000647EF2C69DC8100B0131F30402F3A8FFE7
:103B0000262C2946B8C072E4E0886D50C67F7F3C01
:103B1000E68807B470C0971C0B278307FC16C09F6C
:103B200003FB0F64010CAF104D4B40E706BFDAA456
:103B30009820C866DAB64066D40CF519022D6603E3
:103B40007ED83DF9682D68068D97190199EA6E199E
:103B500008302BD5F71579B3246941DDDC2F8C4073
:103B60009326FDD303766B6C415CAFFDA004B2BD20
:103B7000F5BE40D914029E46F7462AFF317F69916F
:103B800095479A6AB98215422E198D25362C4268BE
:103B9000A0290DB63BBC74FAFAB5C6BB5F4EF7EE72
:103BA0002AFE0D3DF77715EE06B9D3D9EB711993BF
:103BB000EE5D8030FFCEE9BB1666FB981E66EFBB5C
:103BC000FF0977B3DD2E447FD6C020BB06C598F62B
:103BD000AFAD9880BB8B01C9F980DF47633CC80358
:103BE0001266DC6FDE70FBC276357220FC98F084C2
:103BF000974829CA86C345775DBB990B9A19B34488
:103C0000795E46D901227F7FF21E6778FFB39F6FEE
:103C100057BC068021ACB0FC7F029804206097A9B5
:103C2000F6E650500AF198EB8D1120EEEAF8603775
:103C3000263B29CCC5DF7B989C07E81EDE378474C1
:103C400001E0343CFAF770201EC0DD1B0BE5D3DA2F
:103C5000B6C4F832BCE2810CDEA9FE126EB36FF678
:103C6000AC566EC5692567C1B4288930AAFF16F223
:103C7000CCAAD3082CF3A6A8E6C3F90334B40134C4
:103C8000B3107BB1326A55BC39CD70100219F023E4
:103C9000612E4C669D4602A61189B399B0E410F8D6
:103CA000F913169F7177AF4B20F3983119FEE8672F
:103CB0003244E87DCB2239EE28FC300DFE98B581E8
:103CC0005CE01AFB9E0DB20401605819F3FFBCEED4
:103CD000DD3267EAF95223B32AFA3A8D26C9303920
:103CE000026BDDD5FCE0DA5811AEB750E081F5AEDD
:103CF00097EF98BEEE36DD29EC7266F73DBB80414A
:103D0000723020FE2F30B4325EB388275D65E1301B
:103D1000FA24BC22D0FB4A0CFDFBB32F7DB596FEE6
:103D2000A2EFB3036E71BB31E00457E4CC1AD34960
:103D300004D06AB370D24A306D7210FCCF7B4A97C0
:103D4000104EEB0A2FFF7FB6FF16750577B85A564F
:103D50002DEF9130F00926C8D6CBD098805B667DD8
:103D600003FF1F98DFC0FAE0417F8B989085060C17
:103D7000DE982C89A7B3860A13BF16BD8D07290EBE
:103D80007898F5E0F04006E29856DBD62BC8BE984E
:103D9000F610B0FC08FD44BC02054B66FB377257B9
:103DA0001276F4E129BFF48C7DC6E01808D3C798D9
:103DB0000578FF45DFE6D2BAFCC0800946D3611919
:103DC000369E8012ADF68941FC300305209661EAEB
:103DD000BD2EBC985C4F226B50FFA0A3404DCDCEB2
:103DE0007BB106F6D00218114BB5AEBAEEC13B015D
:103DF000439363BFEBE658BB1A7ECC62142108885C
:103E0000F6E09A480B5E683020F81ACCE12D866601
:103E100073C7B4BBDD41A3FC5A54663BEE4D364834
:103E20003346B52A60ADFE23955D28AFB2E8CA7B64
:103E3000D358BA53EB9FCF417618FE68020CD5EAEF
:103E40007836F642BFCCCA0483FBE7843010688121
:103E5000FD456BE6E3FF3C5F28B2055FB3BABF4C9C
:103E6000AF1073367606DFFE08E2091BBDE8141AB0
:103E700020D5B301B503F75A5AFA80FB48B0202683
:103E8000028D5BF37C0465BD39B8FA57ABCFF813EC
:103E9000461AEEEB808530FB9F4840B5AF28DE82A6
:103EA0000181D60809DF3FFE7FE8FC60B95D07713C
:103EB00070BEE29630B234059FD19A1A450B44AEDB
:103EC00001F9B107020FE2D37E6BA8C4B52107E761
:103ED0006BF998D9C814FBE60D10B8FEF442D3CDA7
:103EE00036F830CB1B6675445F1A98FE84E37D4C30
:103EF000CD0E620F88E5CF9BC880FC9870F761F902
:103F00002D8556B310FC30B224BC4EBFDE502FB905
:103F1000762F2801809C3028B313BA0DD7F6CC0B2E
:103F2000B941E090F92035F39895E5A0D7B16D2817
:103F300095EF986C26507643F0601AEB282331E415
:103F400096A45A02FF7D1481080112D30144D39331
:103F500030B493F864031E6B962E6F72B11AA6B339
:103F6000ED79154C5928BB99630FFF2008A0FC423E
:103F70000BBDDFCE895A19701B093E9AAEA7546655
:103F800080E666113AEE3430FCCC8354D379E0DA23
:103F9000EF7FBC983C0848FFA393912870060488E3
:103FA000CBE7CAAEA61ABB67DC88451106DDB309AC
:103FB000C2A0E112FB6D4CA6BDB3028386CB0D24DB
:103FC00007C8F904EF443001EA173DE1E206369AEA
:103FD000185366AA96EE149791738410DA7BB43264
:103FE00044EE73CE2060F8904160F616AFB47FF4D3
:103FF00098103E88F9608F60F198C74746F8980B93
:104000001E5353DF868EDE14384070B31D4A07708E
:1040100030F38CB02002D37ADF1003C603FC30E308
:10402000013D08EEFD88E3AA6E6F3080413717220C
:1040300066ECED7214E35E9F8A7ED1618911D789A7
:104040007998F9C87A2D824C66F7FCB860B3CAE15A
:1040500030BE6EB37FF6E50154BA769B2AE005992F
:10406000B32018E85DB12DC6734E937FA398206BE3
:10407000A8FC2DC83D98206C26C05042B2115F1993
:10408000A8EFD4FE4178B479BB727F7F2E0240083E
:1040900004140D4BF5804179AACF0D20401264FA2B
:1040A0006FE598D64926FFF4A26E54EFF93D9C5770
:1040B0002ADF95FB080C5E9684B4CF8628FFE0814A
:1040C0005E9866756499DC177AE6DDB340FE63049A
:1040D0002A990224BD6F18CBD41AF65F5B98046D41
:1040E000B476642859F29BCE03840465BD5C3EEF30
:1040F000E1EECFF80B1036D9B820D3019C0B200885
:10410000024C023C930CFF3B01320CFDFCB2F5E388
:10411000F56CAFF95B98589366C4BAEE8DF4404FD6
:10412000A153213ABD8980B05F7F9A186611C9C832
:104130002FA2025A2C59A1C8BA5AF692FBE041BCF0
:104140003079199BE798FB4B0EE018AFC877B50A9A
:10415000B00BFA98F032F79879100F94E4EBB06B4B
:10416000E9986209E610F8FBC831DBAD74CC70BF8A
:104170005B9808EC7CB46AE37D96F46147027D7E2F
:1041800067C88101E3FC0204D7D69840EB190843C5
:10419000B376F02480D1A8126CB3BB187B498C880D
:1041A000B8998DB3F3C81885FE118B05062BF6213F
:1041B000ACB6E5304491C43010F7CEFFA7FA7BC906
:1041C00043ACDF1322AAC6D0F88C51291FE7986EA2
:1041D00076044E44A6284477D570F999CD821AFD0D
:1041E000CA7D1988BE25FE01DFCCEF3712BB5EE425
:1041F000C0E8D9400C47DAFF7E78FBEFE0810C5134
:1042000019C0D0FD64CB06405629A8C6EEBAB6EE5A
:10421000FFFD23331B9B7B230CC7192D3810D90CB2
:10422000642DDB0E823ADD08FD24DA5A23191D5E67
:104230009674D767BD9816AB2CEEDFEAF24B663664
:10424000E69AEE4E3088D9200ADF3B715860F74974
:1042500011F9801078FC0460DB0106AE5390FF8FEB
:1042600042180164BDB3E8AA17FEDB49FF43870B80
:104270002E802130022BB3E25F8322AE8C3FEACE48
:10428000C4F6982004477EBB90D898A0070D7E0FF7
:10429000B85DDFCD98F7963AC0143E73CD2A0AAFC9
:1042A000027A981000F040F498581E0FE441FD6E19
:1042B000CC16C4F79860010C8F20FAB108BF3F9864
:1042C000D6E596AB470BBCE5D7CBBBEF27E57D0228
:1042D000FEE57B0C2098AFFB1798A3F5B1CB4E28D9
:1042E0003FC998BB1768F7DB440BF898FDC740241B
:1042F0004C9001A6694E04B34CCE01512DB0FAB9D1
:10430000728A1602909108DFC365ECD07F99081A73
:104310004EEE3B94FA7AF305D10AFFFCFBA0ACE029
:10432000C06D43F7142D1088FF371A407FCE7FEF02
:1043300010F858E091FFBED3D4A956AAE997EE8AA7
:10434000F585E8DD0BFF3ECFCBA85539803B76FAEB
:10435000E001F44A8EC8FB7A8C46D7A978BBB5AF8A
:10436000EE274BB35AFF415D6EA00719AB2FC8E58E
:10437000300736B31003B98EF6B0F82084BF45700D
:10438000754B90971648FDDEB3B3689BEFDBDE10EC
:10439000776647FF283F7DC004014913082BB3EB24
:1043A000C1CB21F628A39EDDFC087AFE8009B02748
:1043B000F8E9072FD751E0303404346C199DEE66CC
:1043C000EF10CC66CD1A0E88213057939D98B78890
:1043D000FA9820ECDAC860F717B0FA5E9844F71E36
:1043E0002DC7BC98FFB75CEF17601B86BB0CFF5E48
:1043F0000508030FE8E2013C88D7F1BB98807810EC
:104400005F3798CFC80D1058AFFEB6123C2FA0FCF6
:10441000D1C8048CB6C896B8643534A849F68CD394
:1044200044E14BCA8360F03CD321D729C8F4FFACE8
:1044300080C77B046A2D37460166C858F3F2CF6601
:10444000D2CFEBC245EF84C0B3D249236BB348C58A
:10445000980CCB3C8BC77981E8F8018DA9FF04C487
:10446000DFDD83DCCF3022AA4177638ED350FA2080
:1044700088859FB59C082C58D3F3DE4F88DF81DCFC
:10448000EDE1D3C2AAAFB132A5D3808E1E66B3F7D9
:10449000DDD7FC013BB36B295F1C76D628FE243E9A
:1044A00066EEDDB1DF7BB346C714751C683902FDCB
:1044B000CF5860D39098DFDEF7DD66D88FB9EFF77D
:1044C000CC78FC90F9A0071BA069F19466F79C7F5B
:1044D000B01D3DF8220A580794C579D319C6394052
:1044E000DBFC082DCB0288DE44CCFD2FB2AF60F39D
:1044F00019324D248DB1C777E631FD71B58BFDF9C9
:104500009C37639FCCDE18FF5A6FA71EEA5D20CE52
:1045100037BED12FDCB542763C411020AECB4002F5
:1045200001D526A880FAC2A2FF31BF9FCB503866C2
:10453000CC6F68BE8C77C5DB1098F06FFDF3C8F9BF
:10454000FF726122B620C79748FE98A57EFF7BBD0B
:10455000D8FF641881E90F8BFED108D9CB98B6FC3F
:1045600037DC3113F5B41296256E733DC1B0FE8071
:10457000B7AD0E804B52CFC8FE9B0804C4F44B3D30
:104580000266F204238FBEDBCFBCE3D5A97088F9A5
:10459000E5F530CAE5D2EE2B2860BC78D444C44798
:1045A00056D4A5A0022667DD50F50A057BBF25A0DD
:1045B0005BD1AD23E0DE400C6DE8FF1B224A417F5A
:1045C000E5448410FF8A961A7D5620048E8031D8E7
:1045D00062404B926FD68580E98C14F6A4D9FC0218
:1045E000FF6B6187ED7D017930F9621EA6D801204D
:1045F000CFF875100882A98B81251F2D9CE5E870E6
:10460000FC4093C2D277FDD5409CB777F6B060F8F6
:10461000416E99F6E271378FA5FF089C981963FDEA
:10462000AA636B9DA8BAB1DC01C7D6D18079E5BF7A
:104630001C48146EB32C275579206FF6E9EBC304A0
:1046400073F0F205D9DF386DC630085D14D898FBD9
:1046500042DA6120EBFB5EB8FD42403FF640103E7F
:10466000AB46D322B3D8C8FE702867A58C88B38226
:1046700043FF98FF6FFB72080A3C59B420C49BDAD1
:1046800080FF7F04C2D7EBF52CFC30D34ED6C16837
:1046900008DEE5B81019C133ECCC5FAC86FF31F809
:1046A000FEEC1188F91356660808CDB318FF8A1876
:1046B0002AB75815DF36A2C8FD9CD86177EC478829
:1046C000478B682CC8C5A380B1779BEB3604387A3A
:1046D0008CDBFF6D7178FE96EDC0EBD410292D3088
:1046E0006DF6F023B6587736F794FD39A4C16EBF46
:1046F00021E6F8E510CCFBBD751544BFF69708F927
:1047000035F6843FFB6580249F72F4F8FD838C2688
:104710009376F44AC57E31F25E04D1C47F0F0277EE
:104720006C648827F59704E07688864D4D19CDADE9
:10473000B5AFFA7FE88F81F6DD4D41D12004F3005B
:104740005162F9DD7AB92859D89914E078FD604CA6
:1047500014B215CBF4134389DFFC14D78002124F37
:10476000B3302B2C1A918A40C40CD1EB54192383FB
:104770006D5E055F7FA75B424D2098A6F8E8098132
:1047800065EE08D7AAC7804DF2CAB611F2B1E28E23
:10479000D32BCE7169FD3B21EA10E3184080700AEB
:1047A00094498FBF06016839D1C188E684956E5857
:1047B000B0E8B14CCEA1D596AE63DFC221ADB881D1
:1047C000503149309ECF3629FC5E5E6CD8974198B7
:1047D000EE9240D4C6D54B0242496FE00D685B03B0
:1047E000F745A06DEDCE02047FCCA0F911E6BE3FE7
:1047F000E7A5FDC88C254D03B121B9FAB730448C2B
:10480000B1CCF9F23E64BDF28020F9048479E4B1C0
:10481000081F3308DB7B99FA0B787DC6BF6330D95C
:10482000FF08EBE1401C31B561B0B7CB58FF090B75
:104830004D18FCC6CF6C1348FD752C0179AF1EC214
:10484000AFB1201FAEECB5F1EDC57898B32CD33ADB
:104850006CFFB8FDDDB2713ABAC7F92F02672CE6DA
:10486000D83FC9C803DB02807E32FDC213D2550394
:1048700004B3532001629FE4F440F980202D619736
:10488000ACA720F60D80FE448F0F4612470CECF1CA
:1048900018041F22D1281A025D159B45DFB439BFC9
:1048A000A09601D29B24A26AB25CC5126FF823487D
:1048B0002280211134B490FF88DC10043372E2842A
:1048C000E39B8B7789C9EF300D9C5CBC0131F367AA
:1048D000216D836AE2E9C8FE40B9069430FD924931
:1048E000B801F2C007C1A1189F891CB3B3D90F4109
:1048F00030D215CD076040A1F3C97803A129ACC01F
:10490000A8597B3BF01411899E2580839182FB205E
:10491000C08418445F595F04CEB3113002F164B310
:10492000B801591D06CCF20A62268F4EFD80053073
:10493000FC0A42C0245800F9E0048C8109C0C40577
:10494000C09C99936210A318003C657A3D16C2245E
:10495000D5CE60DC4010B9DBBA2133F64C8280FC46
:104960001060FAE0013DF3B0F1001EC878FF200F9F
:10497000E0410C8004F03DF3C803780043B32C877A
:10498000B4D33C809007E032C083D397F30CEBADF7
:10499000C002F039100F68260D34FB6453301CD070
:1049A0007318660B0CBEA471668008F60360DD21E7
:1049B00067FF7F06C077DAD9FE8006E0669262C69E
:1049C000ED6E7968F96DB346C49CB3043022F4A649
:1049D000081001B3CB8002953B8718CD300968B32E
:1049E000CC4084F3290D4216CEEA126011865C6D2C
:1049F00058D3B2B1D06D877A9AA009FD340620D180
:104A0000041AFAADECA03180EE6E77A801D1B6E0C1
:104A100087090AE34401A0681481B37CC5106902C8
:104A20000DC3C604DD6CFCE2989EF2B4F927865FE4
:104A3000FCA2405944F3846EBBB50C50F8862A960C
:104A40007EC2ED9B0604FF391E0CB51090DE58FFA8
:104A5000B9E2802004BFD39841B305D7C1209F9805
:104A6000E88B092CDD94E5A0D333DD181660C31064
:104A70000C9D018E0602C80C600419FA791099FB8E
:104A800024E9EB732F5C11AB06B0C0224DD348E58F
:104A90000BE6497FDECC8BCE905073040C4D7FA982
:104AA00026FA18FC41010C0405203E72F984909608
:104AB00016F04298FC0B60014C3C4190A2663AFF14
:104AC00032122C8036D3117AB2B07FC0C4200804D1
:104AD000A340498288A7BF42B2A622184FC8D4EA91
:104AE000F9E0FF413C880770001EC4F88378100F7E
:104AF000621E2C8804B057F383B825F3E688FA9831
:104B0000A0BD9816F1C003381079E8012CC6BB028D
:104B1000D39858D3603EE61080F8889066064A26FF
:104B20003F06E4986616CBF38010EB6492D3C0473F
:104B3000BC983BB7F208BF0646A1F30C9D020813D0
:104B4000FDE3E0C51968C0FE50200A028022182348
:104B5000D6F30520B3BD51B3189521E0FFAD8430E5
:104B6000024673EA2260034C829F812F38F8A0111D
:104B70009D80AAD004A79C989113D108A30A62969D
:104B8000F4B476FBF7B14934F83079D328814DEB92
:104B9000F0349140D4E2417E1208440D200441CC0F
:104BA000BBFEA0F8ED40207C98EF5760C0DE7EF39E
:104BB0002119B12F3598DDB70CFDE12B59AD1D59E9
:104BC000DFD8F819990DF944C66BEAA508F09841A9
:104BD000CB8436B2F0582C976F64317BBD400C8487
:104BE00041C90C7F61AF109DCCF3F0FD78B2EDE7C9
:104BF000C0247C98B7692237E050AC8420479E30AF
:104C0000090111468E48ED378C73432244ADC1C46F
:104C1000E80B9801A6493109A6FB793035207FAC15
:104C200001135F8C3087322E05FF52836004E30C42
:104C300090815908BDFE9D04F70AC07829BDE0F2B5
:104C40003291102D49C6735D9E9F49DBD0FF6041B4
:104C50009D3C70F240733D7A109F0FB03C9004F081
:104C6000CA4016F3F68BE001DF96300AAEF8E50194
:104C70000DD399300358E0AEE80123B1FA001ED0FD
:104C800081382FD3E5C988FFA9DD246FEB98307EEA
:104C90004B300C9C10E030ED3E8C8ED32D5A8F1291
:104CA000809F185920400C828F0110C908FFEEC068
:104CB000C086C06BEA9820DFD6A0045801A1B3B625
:104CC0005B92FEC40945EFDE46C1B33DC5800920B5
:104CD000723002E47901ADC66EEF90FC6D90161053
:104CE0003441FF572924AF981116F2E77E658F30C3
:104CF000A8AE4FC8B4A10104F8882650025AB500E6
:104D0000BA4C20D6EE54F98FCEE56A08FC3D9D41A1
:104D1000F302C01BA7798BAABC12CAFB77FD1F60E8
:104D20006BBA4984D9D3F37FBB8B90C0FF5CDFC8DB
:104D300004DB61404F0998C847F3E9039AFF3094B8
:104D4000381FD434C0398B011079BBC46BB68430A2
:104D5000D5E8F321FF7E65E312E5EE71A00806BCFD
:104D6000988EA72DF3360A36BBD4F4210A343F3788
:104D700032C8244439DCF026C00250166EBB8C7C4D
:104D8000E2F2F88031B0E601C028A023BD7881FCB2
:104D900031302205C082AEDB4A308C48CB8E33588E
:104DA000FC8889190916D3F1580423204C7388E034
:104DB0005626424689C72002178205F70111D2F90B
:104DC00067F505F06BC630ADF306C8FC30033C0850
:104DD0006BFB31A055F8E467D507F47F1610519BA3
:104DE000F3FC2317784070F31DA8FADC7D06C4DBC2
:104DF000C898F34B66F06F338BBECAEF5B850679BC
:104E00006BFF7FA242DDF5D804DA82AEABB2177D2C
:104E10004B80AF88FB75A00201098BF34DA2BDE466
:104E2000486406B36AB39184B34F8724C088FC9862
:104E300010036104089DE6D420F9704A1D46127ED5
:104E4000AC6367D82D319488FA16D2080A4976F3F4
:104E50008DA131FE52B5022D19DAD1847AE468565B
:104E6000E0B975A246D0F41A1352EDC604608DFC69
:104E70002E224ACDD1BCA6DD0C88E7A179980AF391
:104E80006633467AFEFFBF6F304F61DA7EFEC4E3C1
:104E9000C6F29BB5DEFD2BE6C8C89B49C043465E03
:104EA000D224394F80468519121BB01ECDFF5FDE1C
:104EB0005C302BD334C840E05AFC771E30D39E813F
:104EC000F3B8F92482882DA1E8755B29F8B7C25F91
:104ED000ECAE08E8591004D8D0BBD8ABFF386BD380
:104EE00044B3F588845120F508CC30130A0F2C8286
:104EF0000530FF01D8F98409100212FCC2481801DC
:104F00008960ADC3F47D2042C1D43FF301248250B7
:104F1000B0B3207BB189CF09329CC804188F0360DD
:104F2000D78284D6CDBC6210180920D3C64C4D223E
:104F300018FBFAE0012D88FD9802F478100B62430B
:104F400022F3D316F3400B59F5667DD3F9C85EA55D
:104F5000BF203EA80BE4011C5DF39F9B0379200F4B
:104F600033F33DB0FA84888ED5FB12FB44404F36B4
:104F7000C080181045F3D69E2790C825C1D3FC30B9
:104F80005FEA1DFC30A201F3E7DD08C0FB5C4ADDEF
:104F90000A46E04BA664F10245DEC3208194984D99
:104FA000F30F09302CD8F2B3F30EF9ED24938C2FC4
:104FB000694477273042B388803DD302F0FE704ABF
:104FC0007D46D0ABD3A009FB358606D020402B2DE3
:104FD000C6214F01D8E04B92E2BC983F442DA8FD7A
:104FE0000134A14054243732684270301D0CFD1743
:104FF000DD02B76B94C8865F2F67F130BA6641F364
:10500000A58FD3EB91D4D308EF7F75A468FB97BF2E
:10501000EA0280D720D56807C0DDD780300CD5667E
:10502000046C19AE31BF41D898100C64F6D179C127
:105030008C75640EE4F3B8F9B6F272B30228B8F6D0
:1050400071898001E0B510CA4C33E6782FBFCC8857
:10505000765053A14D0C2464E84EC080028DB319E4
:10506000E26BFC819E30DCC00459060B601F8C8211
:1050700050F9100826C0426F5C23A22C93FB6F5E90
:10508000B7BFDA48F87F7F98041340143F92881026
:105090000244414FC6202221801F11011B71FA8159
:1050A000603CAE88B440E2301ABD19F12209F3E544
:1050B000303D754F94FF5E98F73D8807F47A983835
:1050C0005783B78B9003785E5978635C1607C8FBEB
:1050D0002484B6B608E27D377DE250CBAE3C193B66
:1050E00063E0F437B3E8427691FCF3DCEAC25BF9A3
:1050F000BB45963024AAC004CCF5C1BFF385304629
:105100009FE34B25B0B5207E93018008843042890F
:105110000CB3613AB484017398FBA0119112100E84
:105120001A4391E79E401482075080101991C97963
:1051300077B7DACCB466A041EF5E9859C8FF422534
:10514000A201B4A006D0FF085B500A091080A1C2DA
:105150000414C100F89281E6DEFF2EF5156AFCF515
:105160009DC478F3778BD2F863B32B8DC232C823FA
:105170008B19D75E101F88EA8FD0DC490DCCED214A
:10518000B31009194370B804E89508F3E48B166E60
:105190002065F9981716EEF9C2F298E6500883B226
:1051A000BBBFFE10EB30F8089087461E92499D90D9
:1051B000264038DEF377D99DBB965FB9B68ACFC853
:1051C0008C20803EA926C040901E12606B8380D840
:1051D0006C0AFB5820B03F22C8188804F10862010D
:1051E0000C97263016B34109F30B4C842DC67A6D0B
:1051F000DF555B03BF9716C00258E2048320FE44CC
:10520000108830414270A548043960028CF88D80C6
:10521000A0AEFE5A4A88E9027A9840B3F532713955
:10522000D9BBCB813CC43FD79880FA9803B2C8FE63
:105230005A23B2E7C86841830C58AFF92E9838302A
:1052400036FF01A520BC06768BF3ACC4FE0E30DF22
:105250002EC82F05EBCC0280B60B229A82C439FDF2
:10526000AE41425DC88150A07F96984AE8AEEBD629
:10527000143BB3ED82B3C82C8B0220CF0146779844
:10528000100B0D66244572F610FEC0609122BC72B0
:10529000B3C8053E8306D0021AD38C6F45FF303762
:1052A000D216F3646A20BB0DDEC3C65028403AF61E
:1052B000FB8D022414CAC5F9FDF59801E2B4531C14
:1052C0004105A715F1CCC6D5FC300195FB7701FC53
:1052D00098FE173D59F030AD342526F8FB0BEAED6A
:1052E00055430CFEDF47F69136F39BD565D4C8D6FF
:1052F000151A9965C87E9FC45FF093C8D3380BF820
:10530000FFA6084A2611D7FAA03089053D484BCBA5
:10531000084CB3DB536628FD118C06BC30B3C80CB7
:105320005ABC5E984CE50309092CE6F53401A0FE51
:10533000FF991122C808FF98002360122480108171
:10534000B046A541D42373238089DA3001AD6D18AE
:105350007D8F8C9F851B46C04298F20443608295E6
:1053600017021226BB42903062C5CF8209D468FB77
:10537000E0B441CDF5C465F567C83C90ED07B020B9
:105380003923E2F6013C08078BBB905E7E28E801DA
:105390000C8807F2EC95D5D3E598E76B7130A7BE82
:1053A0008B2C0850FE845F6697C8EF8382405FECC9
:1053B00011765703D3C2E5B5DE47D802D466ECDADE
:1053C0009BC2F110FA75BF422B8E27C8E608B0A128
:1053D000FDCD06BCC8E0EFAFED658B8214F3A9B339
:1053E000B7EDCA0849B3CD10B614CFC88291B0004A
:1053F0002EC002191D137C9DACD3C074FA636BFFE1
:10540000047FB03185FFBCB5FFF5B002F9F3671931
:10541000F3FF32636CD380FE06090DFF98FF8D9970
:1054200093C6D13839D8A3FC548565EDCE97C761B2
:10543000FB1C29FF679CD09363E7AB9EB56664E7CE
:105440005E38FBB1043124F362DCC76AD37959E7D3
:10545000F09EB1F3EC6BFE20123FCC986819B603B6
:1054600036D23F4B8C4C93073FF6DB80DA0C69B7A2
:10547000F6ACCFA08FB2CC4C78C32172ABF3181C22
:10548000FCBAF8B1AA256D482CF68193726C967B14
:10549000FE5AEC808DD3545F20CBB1F893943C78C6
:1054A000DC4C0B53AD3101B02C19386CFF2002CF0E
:1054B000EEDCF8FF597E108DDB03048D91BCBD97A7
:1054C000E6E7ED4F48FC69F71BB1ADE808C930CB02
:1054D00010B3088E07FEA71220D1B58179EEFAB07D
:1054E00012020420EF7ED0FA2EB73C597219FEB496
:1054F000084D8910DB04889227C5021D1000E04486
:10550000F6A64AB710F09784E604C699FEF609EEAF
:10551000E4A40102F0672F686C2D4EAC9396A7F1BE
:1055200068000F6080148503B3E14CE049017944C1
:10553000DD810521E78006105460021B850DF920EE
:10554000F0FD8024DCB62CF3217FD03A097C96D183
:10555000457F4F17C318C020170641C8251CE073AC
:1055600014DF80EB884802630AE7223481B8FDD952
:1055700002013DD464F1E28CF8CE9D18250840C6A6
:10558000F7FF9A290327D0BFFEEC954FD22E84E572
:105590003B12E37DFFB10108309DDABB403CC2867F
:1055A0009BF7F1FD37EC9F2C5BFF0490CB6FD81974
:1055B000FB8ADD10C656C142C648572DAD111AF9F7
:1055C00070FF31A16E80B9C4387DCA380EADBE20DF
:1055D000DCF36CD0FB506CC7FAFFBACADD17806BE6
:1055E000FD7BC0F9E24CEDC25FE5C50204D39887AC
:1055F000A141AFF41DDF7FDF88FFB4D6C065ED2F7A
:10560000B6D8BCAE766B20085186BF253B70668845
:10561000AC6B08B3EE6EC645016586EA66EA851096
:10562000BC4BC4CC33DF37A53506EB3772F432D52B
:10563000578CB8E62E82CBD8970DB491C54CFFD2CB
:1056400003EB0CC0AB98B0F8CCEFB1EABDB31A5481
:1056500000046064F9D79C19B101937538888C1DDA
:10566000B616A8FAC50CBE70618C6F43B02FC0305F
:10567000F8FC182396FF587BB12C9E2E67FDAD19C0
:105680002F8D00B9F888F6B902C35666DCF8C7F466
:1056900030C7397C0164B67FE8FC62D301C64C0F89
:1056A0007D45A8B5F9581C01DE6C2C40236F1950BC
:1056B000FB5CD708C7636B8601087FFD8CB5FEEDE8
:1056C0008410FCC26FF472F39B0CFA308CA97B76C9
:1056D0007514EDF638F890E3B38496D502C6132915
:1056E000E743AC5212AF5998FAABDC246240E311A5
:1056F0007536401BF19BF3F9019FFDB2D8F986BACC
:105700006846657FB739F0FD86E96E27B28085D897
:10571000F78C1AB46E6802F5138027AE02F1C0FF51
:10572000BB902865C93D41AE5E68F9BC01D1133C10
:10573000BEE0E36E3F252D778F8E1DBDAFF8FA6575
:1057400064E0F58916FD40D89CE58350227A05086F
:10575000C4797D01593379F81E20C779B000EAEE8B
:10576000A0FA60CCE212C2A9989909CB24FB91203F
:10577000E27084D2290ABC80D96120A9B340E3FA3F
:10578000800124E0027A922003482824EC20089823
:10579000EBF1681814181FFC8048200CE74481A81E
:1057A000EE8240E8118C02C20F040608C2100214F7
:1057B00012D7CB5C180CFBFF610450B26090400321
:1057C000112419A0AF4EC6CA103E03E007120C8385
:1057D000FA41000540FE2026CB0E1B07C0027FA326
:1057E00088F312FA425B5B02E681015E1A4A088F77
:1057F0000801A22146E130F52F78D27A08E2CBD316
:105800006D3DB3802FC23FBF28A9B064FF2279212C
:1058100052F6429DDF50FC10E68FA6BD1172320198
:10582000C5F9F074B4FF32B779690446A425AB51C9
:10583000021059AC849D5ADF18FFE6DE499B9AB5E9
:105840008E20D8D6CF3372F3EA20B1FA8E2FABB3C5
:105850002845EA788DA3FFF896D6713A7D24A9BC35
:105860009FB6E07911BFEE528058B3FD8F2C9A603D
:105870005C84FF31F7253B02E947FBF8679790DB33
:105880000D65019873234DA0B4CD4CEB854C08A059
:105890006F7BFD1CFD0A108CF2C104CE6FD718FB84
:1058A00037472FB63D3EF10146D4A0BF189AAE103F
:1058B000D4D18D40FBEC78BDFF5F2167F97D008975
:1058C0006A1E6FB6947E6CFA18B22AE33012FC9806
:1058D000110633F67DEBF821F886DC4B6CEE286F71
:1058E0002C2E78ACD5B60C37F708393598FFA0F6D2
:1058F00036305088312C4DFE8BB967280224CEFFFC
:105900006EA0413476FE73584891600471F31034F0
:105910003046C0F90A4413F4FE052209241030FC75
:10592000D1A180689D6576F50C83A9B10F5A6008F6
:105930007FD4602038CC81301A06C45FF103E9E8D7
:1059400010EC84FCBDC50747E07E170FD34F9B1DAD
:10595000B3F380419EB435ED30FC98201EDCFB7023
:10596000F19430C6D3D39003708840F71008A8FF95
:10597000721D061E4440C85F66D0DCFA800C6D09BB
:10598000309FFE7605202270B3041A34136CA602F1
:10599000326766D00C40135FDFE68005B0AAFF15C2
:1059A00048FEF6B2187BAB08720614961A817B6625
:1059B0000412BB06F38221130247D8ECDD34D05A1F
:1059C00073AF04E884FC60660C3404E44B0304CF3A
:1059D00043F1BDF3ECE4010CEF7507E0013CF3F992
:1059E00070C0EE8218404F43A0C62016C45FCCE7BB
:1059F0000B6040D318F9B28038D8CEEE138030CF88
:105A00005A6601AC07039DD3ED04370C820CFDD31D
:105A100098FB800902DB2B657A3342EF53B708C647
:105A200020046738B311A02019C044F7B7A3F9F1D7
:105A3000B30A0A64BE8C06E2D3C0FB52440AD0ED1E
:105A40001B685601256604720F10CDE63C2190F7C5
:105A5000A1124821AF64208BAB4F1E88E10D2009B5
:105A600077667CFEA119C0337839BCB8D7ECC2BFC9
:105A70005B7F06653FE6E05663AB809A86C0EAB17D
:105A8000F0982EF49878B7EDE22A24F3FF38066FE9
:105A900035D08481C4AAF136D3704AB603E4B3404A
:105AA000F3D3C8FF045B80E906C014EC68656AB5EF
:105AB00068E5FB349FFB7F05D66F589E98B5095368
:105AC00084A21581093FD3F3FA0410024BF448BFB6
:105AD0007F82B380B7D741018AEED1A0CADD65626B
