:100000000C948A410C94A9410C94A9410C94A941E7
:100010000C94A9410C9482450C94E6450C944A46F4
:100020000C945D460C94A9410C94B4440C94A941E1
:100030000C94A9410C94A9410C94A9410C94A94198
:100040000C94A9410C94A9410C94A9410C94A94188
:100050000C94A9410C94A9410C94A9410C94A94178
:100060000C94A9410C94A9410C94A9410C94A94168
:100070000C94A9410C94A9410C94A9410C94A94158
:100080000C94A9410C94A9410C94A9417F7F7F7FD6
:100090007F7F7F7F7F7F7F7F7F7F7F7F7F7F7F7F70
:1000A0007F7F7F7F7F7F070007047F7F7F7F7F7F4A
:1000B000077F7F7F7F7F057F047F7F7F7F7F7F7FBD
:1000C0000F7F0E7F067F0D7F0C7F7F7F7F7F1F7FDF
:1000D000177F167F157F1C7F147F7F7F7F7F007FB8
:1000E000277F1E7F257F1D7F247F7F7F7F7F187F57
:1000F000207F217F267F227F237F7F7F7F7F7F7FDF
:10010000107F197F1A7F1B7F137F7F7F7F7F0818E7
:10011000117F127F0A7F037F0B7F7F7F7F7F081015
:10012000081F097F080F027F08197F7F7F7F7F7F6D
:1001300008027F7F081308117F7F7F7F070C087FED
:10014000017F080B7F7F08077F7F7F7F7F7F080706
:100150007F7F7F7F7F7F7F7F07037F7F7F7F047F1E
:100160007F7F1C7F1B7F7F7F7F7F7F7F037F0810C8
:100170000C7F247F237F137F7A7F7F7F7F7F08110F
:10018000147F081908200B7F7F7F7F7F7F7F7F7F11
:100190007F7F7F7F7F7F7F7F7F7F7F7F7F7F7F7F6F
:1001A0007F7F7F7F7F7F7F7F7F7F7F7F7F7F7F7F5F
:1001B0007F7F7F7F7F7F7F7F7F7F7F7F7F7F7F7F4F
:1001C0007F7F7F7F7F7F7F7F7F7F7F7F7F7F7F7F3F
:1001D0007F7F7F7F7F7F7F7F7F7F7F7F7F7F7F7F2F
:1001E0007F7F7F7F7F7F7F7F7F7F7F7F7F7F7F7F1F
:1001F0007F7F7F7F7F7F7F7F7F7F7F7F7F7F7F7F0F
:100200007F7F7F7F7F7F7F7F7F7F7F7F7F7F7F7FFE
:100210007F7F7F7F7F7F7F7F7F7F7F7F7F7F7F7FEE
:1002200008277F7F7F7F7F7F7F7F7F7F7F7F7F7FAD
:100230007F7F7F7F7F7F7F7F7F7F7F7F7F7F7F7FCE
:10024000017F7F7F7F7F7F7F7F7F7F7F7F7F7F7F3C
:100250007F7F7F7F7F7F7F7F7F7F7F7F7F7F08158F
:100260007F7F072408057F7F7F7F7F7F080D070B37
:1002700007237F7F0713071B7A7F7F7F7F7F7F7F27
:10028000071C7F7F7F7F07147F7F7F7FFF1F627F39
:10029000C23C006088FFFFA0089001324006C8C63B
:1002A0000019FF03050A4414012341CF068AF320F5
:1002B0000365FBC00C94290035FF0CFF9881325078
:1002C00006CC54199928E0A0F3A6A9C6880009D342
:1002D000E764800CB950F9FF0015E0025C800B70F8
:1002E000C3012EC30468F32AA002F4F3503CF3C008
:1002F00005A8C3E6A06727B312E05480C30AD0DA8A
:100300002A402EE0544FD374D3B8001738B960F8A0
:100310004C59FF20030480B301D0EA802010600212
:10032000C04108BD01E0106530E4E8FE182437FF45
:1003300098FFAE7D8236900E8498FB0240142836DA
:10034000B30DD0CFA03914800219FC0A4001280057
:1003500005DC1914EC8E408956F058CCFC02C21012
:10036000714BAE76B32081E133E09622F94A194011
:10037000D4F860CA907942E01028F78130060F2542
:1003800010DC8202E5D02128CD6FE8FA20882DE824
:1003900089D8C40400885B9DF36084018AFEB8405C
:1003A0007CC118432009CDD321F30A209A1AC00B2F
:1003B00072E6842E60FBC457CD4018B389E8BA5565
:1003C00018CA1BECF30365C8FF79C4B9EA2D6808A5
:1003D0007FCB7862BF9BD23008DB1CBEABE4D32C52
:1003E00090F3132DC0D2E3F95FD9F568DE228019AE
:1003F0002CD761664501DFB4B41A66F3293457106F
:10040000C8FFB12160FE36C1B0ADF360202868B0EE
:10041000E389B350200588B1B321309DE8A5097563
:1004200062F03DF330226988372F0BBFE401065894
:10043000FA6080B5385C647803983CF370ADBEF622
:10044000CF4EFF60E08003777106C039D3E2013DF3
:10045000EE81F01EE8C80302E6508219DB77309285
:10046000D6F030DD490C624F660130100468E83B7D
:100470008E8801FECF948901E69C81EE70FB201BE3
:10048000A0B3125E02B36856B68CF6A6302BD5F731
:10049000153DCD513002FDBE00FCFD4480413009C8
:1004A00019D0B3DC050B990B1002DF78FDD690DF75
:1004B000BDDD2431EB9842D66380AF6640462AFF0B
:1004C000BB31FC69919510CE7AB09611480C019D14
:1004D000A67780910D607F82C5DBD3D54CFCB9F93E
:1004E000F50679CA94A9B2011E1C4EEE2AFEFEFB47
:1004F000A97715EE06C639731085D7BAAF91298052
:10050000A7ECDF28BEF617088881BDF22DB4FF7F67
:100510001EF766BBFF09B3B3DD2EC83C5E48157DF0
:100520007F03E041F65AFA9B0FBE45659CFBC2B7BC
:1005300097F3F2D98004D18B18EC04876612666FAA
:10054000B9DE7CC2E6763572FA34E28CE2F95C43BD
:10055000A0EA9BC0AF08C919E69380FCE3C257C567
:100560000C8409A030F5A6DA6296A604AE66677818
:10057000FFF7C957BC0673A416881E987C696224CD
:100580008C0873E94684C4F5B320CD3299FBB75E7D
:100590008E53F7E0013D10F5DE2DEE0E5EEB9C076D
:1005A000E81EFFE8778474EA73C60730A0D0CA0358
:1005B00078D3E9DBF3D1F0409E270C047608B8BC71
:1005C000FC801B5266F3B86FB7CCE94DA2BD6993AE
:1005D0000A02B40B5FF252180803A4E2E0F241E30E
:1005E0003F51D719B4FF36D05D1989E298416DAB00
:1005F00002C6B3FF32D5DF392F6864B3145876B51D
:100600009105B3586477E0FE2077ED56D057B320BC
:10061000F230186BB0A0ED9F3E9207FE6732944413
:10062000A571FA2239EE8109786811841841504881
:100630003D812411017B980802CE49104B2122B93B
:100640002340CBFF80E76E6DBA200CBCC51343F886
:10065000DE0CBCEE3267EDD26252B38AD793301013
:100660007A406BE26BFADDFF2878B3B4B949130E18
:1006700021586EDD5EAB7321BEEEDC36DDBCFE4282
:10068000663DBBE0010CEFDF521CDB3F68BC98D538
:10069000850B77FDE908FE8409E7B8EF490D80DC9A
:1006A0000904F77F2D59805E6696FEA2DDE7DC0324
:1006B0006E71AFBB4EA588F6141A175360808D403B
:1006C00011720284FF5CE54DC9F660FF8431DF31B1
:1006D000E6600120B330E27CF5B2010B9EB09E9B38
:1006E000B6FF1675E77F02562DFCEF110831044660
:1006F00063B0091760810DC93A16C6F11008406051
:10070000262C6C201E78FB5D46F7E3371878407185
:100710005DB6DF76C7233C98860A1316573CB307AD
:10072000290E45AF332F98E73C0338E0E0415E984F
:10073000E532200ED3788BD6F30CB1158801DBF0AF
:100740003006479798D2FC4120F54B12AFAF852970
:10075000FCA606981FFA838FF114A947229CD3D4D4
:10076000F7D0FF80052EDD22D2FC6EE08530E584D7
:1007700001C0205BFF2B408079B1DB5147EAFB0EC3
:100780002330F412888249B3F440480805C1C12CD3
:1007900002F51141A0FB96C8FF7FEE012030F198D1
:1007A0008A191BC93E4FAEBAC13B01E4DC6339EB89
:1007B000DCA7069E221843024988D38FBD008AE237
:1007C000040860992E48C6D84CFEA6992E397EF7AB
:1007D000B4BB41A37F4F54660FEE046BC23026EFCB
:1007E0003898DBFFDA58606F6450F96528BD03372D
:1007F000DF2D76B97B58EEBA53EB7AF8417618FEC6
:10080000FDA9907EA90476D64210AB8D80FF7F08AB
:10081000FB64410C20282725C8D11A15F0305D61F2
:1008200002B363BABFDC4CAFEAF90D7606FE26C40C
:1008300070E1E298226023D3FF6912AF48F345804C
:10084000A005A57396FE63DF7F00F70B0245B07D20
:1008500040784B4D222CAF3DB5B8FA57ABCF8F1334
:10086000461AEE5F52E10416C04E987E61082BFCDA
:1008700011B7D82187030895840CED64F9E0BF7A9D
:100880007B18200FCBE8F278FF35C577669A1A45BA
:10089000E79A4207F8020FC0010D00D7F41D30E2BD
:1008A00098D3B8A29A0CC003CD78E235E608F9A433
:1008B0000FC3B520CBC8F3F5406AF37F97B5203856
:1008C000445ED22F3BFE8501B88AB93080AE4051DC
:1008D00050413B0A09A93BF83BBB3BFDFBA5C07E51
:1008E000BEB8110D808430F1F30487600C6DF27690
:1008F000F38FB9E6EA0182B41CFE7A3D1320104C56
:100900002796EC2410054EB32C80517A4538FF20F1
:10091000E924D1B524F6988804DF6BD525C8883E34
:10092000BA6C265076519EC8441A282353E5E0013C
:10093000089302B39581D684919658689B41C6B5B9
:10094000A204329CFF4FC9E06B0C47D9901AA6B3A2
:10095000BBA3FD625928BB1FF9C54FF6CFFDB12DD2
:10096000A099D3B0FBD04BECA05F2275E0321C35D0
:10097000F9104DF2AEA77A51049D66113ABB757B12
:1009800079982FB8033C008094E560F35AECCA8054
:10099000FE275F2890E5E5FD6211B12DF948886BCF
:1009A0007E9EB3A61A67819FF3451106BB04684477
:1009B000CF9842E8844021699A3002E223567111AF
:1009C0006BA6FE7696068555C56AC23074D5632C33
:1009D0006BBF7EAA961497800B9C6610DA7BBFFAD9
:1009E000D49840D38602FE7DDD04281811100FC66E
:1009F0002CB000D8CBFBE0466E01300FEDE2413C5D
:100A00004BF332C808E6E7788EDE14DC3840B307D3
:100A10004A0705DC3085F21E81C41A771F03EE9861
:100A20001CC083E2C6C88E37FE7911B696FBD21F72
:100A300066C0F335D79C10E6C014F10C43BB8ACFD7
:100A400021F2981A664088F25EFD9918FF72AF8411
:100A5000FD9209FC80203005CE7EE6050DB331E322
:100A6000DF65B380E1BB2D547F1A2A47FCFB9898C1
:100A70000434B30A197F93BFB36240AF200198F0EA
:100A800096FD6CD9C83B6C2124BA17BDC5401268CD
:100A90008DB81EA8A8EFD4FE5C2FB41FBB80DD0963
:100AA0003698C81AB96308DC85A20559C802826065
:100AB000CF694C0D8C84D9FDFD7EA94675ABF662DD
:100AC00077ECA26E54BFEF9D52572ADFAF1A3D1E3E
:100AD00026F3B6C0F49840EDA770FC7C79DF6D91E9
:100AE00057BD1A9C13A4CA7AE6B31F1927042A9982
:100AF000C0D0013CBD5A16F2983BB028C8B329C6F5
:100B00001F02C24CD678F94B8496192288B888EF18
:100B10003B99CD45DE5C3EEFE1EEE7F80B1036ACDD
:100B2000D9DCC805D6AF441B98B6209066446B0844
:100B300032712DE60740B3FB77DBC67898F47F81EE
:100B4000300AF341B3435C307FB821BAEEF4CE7A79
:100B50005953213ABD7CBD022604481835EF988CC4
:100B60008821300716C00A501E1364072C844507DD
:100B70000639A3FC037F4B9807EABC988E90E323C9
:100B80005766AA0EE019FC97F50AB00B40C5109DF8
:100B9000C80EC07B980FE047F373238403CE782000
:100BA000F3010C6DCAFF3E09D785308EAE5FC8A435
:100BB00084667F6DF0607DD2B06995C8F77F97D36A
:100BC0006FC420F48B03922CB6981E5BFB5FFCE78E
:100BD000FDE6C84C6B1E31E968EE225D58B402197F
:100BE000E8C3249001FB1271A166D514B3D56094BB
:100BF00081B3D84EB3595003630C2C2FEF7BA0FA6E
:100C0000657EC004BD3D7B2CA20105FE8B23F3E570
:100C10008241FCEF5CCEFFA7FAA741F843AC13B4C6
:100C200022CDC8026D07EA3234F7980243509F4044
:100C3000ED8D201034ED08F0FF3DD2207826BC93D6
:100C4000A6E5FB21E27A3EBF1EBECA25FEB36CF5C7
:100C500037128E343037322DFFA5CB5898A7AD9878
:100C6000E03D750F36A609DA09B540E0763DC6BA13
:100C7000B6FF32F523331B7BD26EDDDCB4BA61D311
:100C8000D2C071B4B261602DF9971496269722E113
:100C9000AC05A5664807838A04D5CB16EEAB2CEECF
:100CA000DFF44B663694E6C4E04D7D0253DC03DD91
:100CB0002934A04B6B04B384403F3032E8FCCBD9DD
:100CC0004661F522808409D70A6AAF60ECDE449160
:100CD000B3F7E8AA17FE3F5043870B2E8491F230FA
:100CE0000426C801E7628C08301F220640C639106E
:100CF0006014EE22F3ED48F83C98FC9FD546E001E5
:100D00003D085E8B7FB69803E08F3CAE3A143E7E82
:100D1000FA8B2A0A02E8B11A07F0E43083AFF02117
:100D2000A5F3639806EB790ECF8E1030FBB608ED75
:100D3000C883FD4471A9C95962FBB4841BE783963B
:100D40005FDFDC0BD6249EA501DE985C232BEDAB88
:100D5000D26EF6FECC28FCDF5AA3116851B385B3DE
:100D6000FEAB2BA62D0E56BB178BDF44D7B3083A2C
:100D7000B30523027CB31130090640EB1B00935FDF
:100D80000280903005B85C3022B257029798BA2B97
:100D900041241066A59028F38895A722E7B877E745
:100DA0003B94B9FAA905F7D10AFF207AFD1463A094
:100DB00042570CC7C8CD8008C64468EE181192226D
:100DC000E62D8C79E5BF43B12CBFDCB9C7F156EEF7
:100DD000AA97EEF75B85DD0BB2FFB2B0DDFF086DC1
:100DE000E994D8E07FEFD62021F25B8E5AFC79237C
:100DF0007EE90DE7D778BBB5AFEE27CEB35AFF0239
:100E000059E229E5CE824381403847C66B24501011
:100E1000DC0E607286F8FF5E98049E38DF88844B93
:100E2000CDE55069092E11EF4D9BDBDEBD10664705
:100E3000ADFF8B2A109AC018457B964C0110344D9B
:100E4000E5AE5368893EF9097BFE808179CD16C0F5
:100E500028F4AE63FABD88493009EB57D2DC8C8F99
:100E600052A297EE7A66EF100160B3CD1A77088828
:100E700080174075070121F83932DF26C00298102B
:100E8000773FBD82918008C1FEBF6029F5230380B2
:100E900018BCA5976AF07898EBC20EE88E5DCE0478
:100EA0001B86039E420508030F567D7CF2F2200E3E
:100EB000C8ACD38AD5BD98E4D6801E5FC8C33009BC
:100EC000FF6B97F5FCD9DF6641E6419A154D4C90D2
:100ED0000412E9AE581A1470F6889E31F8C0200842
:100EE0004989C67369A4087C9A616382F693DBFC26
:100EF0000E283012F2856B260844CBA57A49C0240F
:100F0000EA8E22B3F322BE2B35CBCEA58405695FD2
:100F100080C004E68B6002E021FF423E1A9913F381
:100F200020D33BD9F8FA23EB1DC0D03394FF04BF84
:100F3000F4DF83DC01B6F022AA417799E6FF57B7C8
:100F4000B498FE79787D90AF1B10ABF308CE6B2779
:100F5000B505DF81DC77F02AC2AAF6FF2869E0A197
:100F6000B5B3D368F9018F3EFF88DDD7FC01E7B345
:100F70006B295F6244E0A46AF6D928FDE6937B669C
:100F8000DDB1B9DFB346F6C714752036D3D368FB9D
:100F90002406C46C7B771BEBFEF2013B4FF7F6DFB8
:100FA000F7DDBB668FB977BF0624653A69C4800454
:100FB000D36356F3F0FCDB687BA0FEB45D32935E36
:100FC000D09C7FB01DE7F8220A58B607FA6BFBD910
:100FD00011FF7EE8FC046EEE69F67DA6E7A7A4ADDE
:100FE000C4B27975195D1F6C916BF28AFFC96D17D8
:100FF000F0FA0CEFF366C5F3B88899FF7FD965FF67
:101000003290FB652D55028FD21B5ADE10123FB471
:10101000B6EC08C5CCE507A64EABC8FA3CD5CDE387
:101020004C3FCD3A949E208E68F36CB4B1F045B33A
:1010300080967766ACA30859D608B2FCFEF3C7CCFD
:10104000FFF1B35F7951EDF758FE8A8369669FCF50
:10105000F61E30A75982AD14B29688CA9ED82DDCF0
:10106000F3CD3379D2FF422FDBFAF34CFE2290C549
:101070003789018780620633C4E5B047C392FDC15A
:1010800008BCECFF34BBF0882F5A660197D6C50E1A
:101090006A1FA320D3135EB204B635CD40A735FD39
:1010A0002E659F04B6C44020C4A0F9BFC0A96DBC82
:1010B00018810A08D60504EEE440766760048A24A5
:1010C000B4EB1138A0777318665A240609300F1252
:1010D0002004805018D303A90D1760F87A230BD190
:1010E000D62245D3B7ABACA50D4FBFFF3130068537
:1010F000804FB542200CC8737DE484CF0414F340C4
:10110000010C188F79E0D9FF089E602D97FA53C51E
:101110003AB4C53CB9F6CBF8FFCBFBA21EF78B80E7
:1011200040103446414C9181E0113D035DF20804CA
:101130000121FBED6CA281FAFF3316CCFF719C01FB
:10114000647BCDB8FD62A2CB48C263FFFCFF23DB0A
:1011500097FF2038BCDD0E086141B0A36218FD6620
:101160002D48028245B1FEB365DD3E0464FF9BF667
:10117000D625D7AF1890CF5FEB9513EEAEA048FF02
:10118000DCA558064C2FB3024BA8AFAA5FACE1CB4D
:101190007D062C972A586A828F1BE718F9C282FFB6
:1011A000C23FDB9901F2CC02C538BFF7BA18FE4046
:1011B00063FC986EEFB7106C7040014BDB87E0F872
:1011C00011FD4880927F614FB8914090FC0C536CA8
:1011D000E36156026682D16C60D940E85E4B6E4690
:1011E0006E32621E9E635F04D268FAA580C8587092
:1011F00022A163B85BB2D3D4E780EDDB02C01AF260
:1012000075178B71C6851F177B3088FB661E87EAB2
:1012100061775B68ACC1FFD39850B94F30F8B79B8A
:101220006C90FE0C967D1029ED70A8FC8FE5379F21
:10123000F53DAB4840963B606FFB9808A8FE0B3E1F
:1012400087C6F367C9B1FC54DDA00610EE7D02CC61
:101250006DB370F9CE3E59EAC0E29032D8E1CF3397
:1012600010FDE178B1FB3E0B11846C848110217A72
:10127000C30833083FA308B3F83F5C80629BF26C5D
:101280007E67B6E1012043550448B0FC8B8DDECD6E
:10129000CE92C08086F0C9180190A5FBB391A8FD3D
:1012A000B2208F2101608078CE5638A49740766EA8
:1012B00004810BF64C039AC7E0FA53F620A30848C2
:1012C00047F103C047D3F63202C4484ED88DE579C2
:1012D000BE84C680207BF501101DDF400339F95B19
:1012E0000EB9284B5022FBC10533FE30EAC09802EC
:1012F000E512390308EE159BE8F4A01FA4080204C8
:10130000401052BE61D82CF80D8003623854505CF6
:10131000584102CC6F1CA5FC62B21D021E248794AA
:1013200021B64B11FFFC9B489A943BF27A40997F7F
:10133000C5A010442862C08F08429F80A8829A925C
:1013400018FF68004509048320B01370F92CB3EF2F
:10135000967DB3FFE363DA0EB680E957545F9AD9FE
:10136000E8F9ABE010232C7D5BB49D41341E20D303
:10137000E49F750B08C481B4E2F728FF314CB10932
:10138000E56C221C76B265779994FC65ACB901B323
:10139000CD113FA092D110FA88FEC0D5CE406A731D
:1013A000D8E0FFB751E5D48CF5C79C5723AB9DEC33
:1013B00050FC8FEDBF8F9BE8A6FF986620C6F5D83E
:1013C00004625CDA5D0A6DAB2B4025D428B3FC3295
:1013D000A8CFD558209C6E659A9BED8CAB9108FAEE
:1013E0006CC909CBCE0428D1F5DC819AA466995C3E
:1013F0006D7550FE889BE9198BCB09408D1E4069A5
:101400003C72DCF6F6F3A8FACBFEA32040C5BF8FF2
:1014100008796192EE060259F1AD7F90F9907677E6
:1014200018589EDF0ED654FD96B7805E5620B4B78E
:10143000046CB1D8F8735626015E98FBDFE608C04D
:10144000FEFBF3801A2EAEBD761F206C53671BE0A7
:10145000B2AE14F803831F10CF40ED0122418D0E70
:1014600016928829B72EF01A47EA971251F3B2B6AE
:101470007772C8F96D309FFB31041BF310D67420CE
:101480007F57468898A98E4D5B06AC1819F18BCC16
:10149000081AD2A057E30CD9D63DBFD9E8FB5DE8C6
:1014A00011B99CE6CC5FD9E1F937820C8DE0F8C523
:1014B000FEFEB1FB8041301116BA5B2F236201653D
:1014C0009638B638311126B3B944DD224C6D300858
:1014D000B96685026BEF98FDE0013CCF8007B91E2D
:1014E000C403C578106A28BC06F88CE64DB43045B4
:1014F000FCF9EC0F6C4AE01032163ECC658030C32C
:10150000CDE303609BD4B0E662BE8279FF1919ADCA
:10151000E088F994B3B628EDE80294B3B510FD1E47
:1015200098A995EED920424C8D5C166922A5E7B6A4
:1015300096FE98072240DC0488EBDA8442B69604D3
:10154000219F9E7BAAC023CB82FE8DF8A4DFC0988A
:1015500032FD9820B2FBBC98DC0359D12C6C8881F9
:10156000A72DF947D4422C3D9CD9F504FE2EED6001
:10157000FC40FC988D5D7C715E84CB47F6B7B3115F
:10158000017E6FEF168AD0C8F3D4C05C333D98B0AB
:10159000DBFB28F898B6CED54148AFAE64901BBBB4
:1015A0000567D0F129B6330C4FA1C61123E3CD1046
:1015B000FC980FFF80497FFF7F98046360020CDC7A
:1015C000823193DB48987C3267A066D1B9F83FED51
:1015D000B0E87017CB84EC7DBCE166C9EE8B49FBAB
:1015E000BDB28877AB98C0DB980FE096DFF0DE984D
:1015F000DA410C660540F7F9FE0328B207BD9803EF
:101600006DFBA9C06F76AE70FC844FAFE50C4B92BA
:10161000C0F32BD39814290169AB6DA815ED4602D0
:10162000ABB342FBB18025B311AAB322CBFC522449
:1016300006431960018080D419DDAA108DFF08DDF2
:101640000501E0985FE098AE015D4681C423DB6947
:10165000C50DF7CA7BED5D44B42434302D04364308
:10166000E330CE625AECFF7113963F677193794273
:1016700020FB8E76E4110AFDB0625944E4E0FB6081
:10168000E9AF7937FFF198D479F31B36374014224C
:101690003D739D13A6EC94C5B60CE030ADB96AB0AD
:1016A000CDFA0CC881C6F2FE98326628F3DB2FE033
:1016B00017D80020F2D96FF64634EFEE3D420CD039
:1016C000E0B50E806BEF9652F98409C7300631EA17
:1016D00018700360BB0C8011BEAC0798080BAC619E
:1016E0009644E6AB668A9EFA0BA8A610C9DEC51121
:1016F0008C76F9300ADF7FB90CECC8AFFF57B280A7
:1017000097C0BE9879100FE441EF5DB840E78B7B3E
:10171000983C0864BEC2511966010503CDE038301B
:10172000136E65300301F3EDE7FE8C89F898B2F390
:10173000F930127A3026D78330BBEE80355A2FE04D
:101740003F41B597B1ED98B0109AB3B74433B33F6A
:101750002115DB4009B0572004066DCB308B56B302
:1017600028F9945721E67FA29841BFD0A5846F0540
:10177000F59888FC9A0F4440D35423F84555DA95E0
:101780009D2FAB48F49881DDD534D6379C3073D685
:101790007CFA65660804DF4C63A7F744C054BF01B8
:1017A0003D6DD5400497E67D76F74928F879FAB77C
:1017B000B6980848BC30B784F226778C4452547FE0
:1017C0001B3C10A3DD7696BD804E6C7BF09D7402B1
:1017D00018FF20B86DEB98045E513088F3EB840558
:1017E000BF8344EE4C540DF79883D703BC06E0D872
:1017F000C1F5F328FC307FBD982BF98089A7E3322F
:1018000003CE60CA8051EF857F980B0B6020E1C644
:1018100011B4083D66190EDE30DDB920E0B7371887
:10182000E5302CCDF4E9FFBF30308378F603E4BC1B
:10183000309BC8F310B830D3FBB640149CC14901AB
:10184000C56B12752618649B86E6FFA52F5A0F0EEE
:10185000572FFE80C67C988FFDF3E5D08007284582
:10186000FAF3466368CFB63D0E89DBB2FD9BB38CBD
:10187000886E343040B32069EB98024FD13A61C989
:10188000BFB0980A4851B3A20F015EB39AADFF5D95
:101890007508C930484DEF424008E730021209335D
:1018A000FC42DC4416820BC5B3A53AE992F7E1FB92
:1018B000CB6FEB8C0822CE98509C48E11699BBCB9D
:1018C00060FEB95ED94181DC3AA380C8401954A4B6
:1018D000FA8799E12CA24DFF036A52D6D0FB57E25A
:1018E000D2E69B82DB8830BCD32B67ED7F3C4AF786
:1018F0007C53ACF3B3C4738830B710EB619CE6B093
:10190000FC28B4C8ED3909B70130E8141861BABA37
:101910009EF18BE6E90A018A9183EDBCD55C17B391
:101920002490419F96CFC34BA45AF95C4ACB1246F0
:10193000F7BDA504DE8C80145D69D71360EFB9058F
:101940002F893DFE1391EDE5D1E4FAB183055F08DF
:10195000F03291D3AFF7E6B8FAF1307A98C42F7A23
:10196000100FDCE2014345F3E598BD493D080466EC
:10197000487F80C95BA5D9D11F1DB1EF182007EDA5
:1019800034F06E4983BDC8047F56B16CC820CF02C5
:1019900098DFD69831A779A4EA0664B2FB75AF0840
:1019A0001DB768FE03A9E5F3F193EB986250B37D90
:1019B00042980889F23025D5F10270B43647A64B1B
:1019C0000BCA4CFE4E65FD390504EE473010F70A90
:1019D000122128375210400AF3F805E602438BC261
:1019E00010A7019B66DDE51993C430516BE598E6BD
:1019F0004B9D089628B3E7FF71C0C17B1EF31DFE07
:101A0000DDB40453B341D433A896A5EC36FFDEC849
:101A1000F9305FEE0D37BB08028D1957C00ABFFDC4
:101A2000FBE8F7CE547FBD4427EAE522BFDF7FF411
:101A3000D6197A1603D7996FA8FEFC7971E3C566AB
:101A40005079F60AE5AF2356BBF2E7F7F86F2EB5EB
:101A500046B3FC3045EAD7BAEEBB93D7FE5D12FC25
:101A6000804906091661F7585D83EB9805BF5F4210
:101A7000D718039D8BF87F9248B35E6619F235DA6A
:101A8000AF42FAFCB4A834B3D5AF02FAAFBF4C3DB5
:101A90002EFDE001AFB898031840B4689D45DDC243
:101AA00023F3DB883066F774478DA568BADFF04012
:101AB000EB98037F2398F1F930F85C300595C1303D
:101AC000D979C8DEA0087C477A2CC6E59E2530D39C
:101AD00002E6F34E72C8A9FCCD5ACEBAB3212C84CB
:101AE00025B44619C7F3F998E4BBCA1536CD2025AD
:101AF0004EB64C600A47AD988359B370FFE5DD01DF
:101B000002E898486EE53088CAEB84FD78017DE0F4
:101B1000C7F380497B199B64B1991F0098DF26C8E1
:101B2000B3F8EFB3613830DFAFBFFA2C3CB366B522
:101B3000CC256DD6F586047BFFD8FA7FDED6CD2284
:101B400016DB6073A38218423681F3665793638471
:101B5000ACB2A4B3C8026FB649A3670DFA6FCAAAA4
:101B6000893570C9C8E5B721CA1E41B32ABB143DE7
:101B7000EA99751B93EA98043F362DF5F2C87FF178
:101B8000FE84113002465E985C30032C805ABE5CA5
:101B90005D8559239561E1CB1611256604F6C84091
:101BA000E009DF3F426618F3665CB9C865E8EBF808
:101BB000E0412DC8F930417E70E81ED05F9BC83CE3
:101BC000CD66756C5FEC0D411F9F2D98BC5646D7B6
:101BD00020C839B3FEB1884CDBC862F27D04C9D39A
:101BE000C97F2698710C08DFE3CFB4F6E550FECE2E
:101BF000E3302FCC4B9FADA2A3910B232BC8ECA0BD
:101C00009FBD7FB368A5F90EA1DC83810801F7426F
:101C10004024482B8C449A30012206CBD5B5107B4A
:101C20009C3E502FD55E6C84AF5C616FC630BEB5F4
:101C300094FBEBD02D8A766FCDF5BE20E1B39EB339
:101C4000F64FE21188E526E6C878FFEE2FFC60D259
:101C5000813C1623F49E80A2F0F323ABE6F7BC246C
:101C6000D31085E9CC3BDA507DF93488703057AF1A
:101C700001FEF05D0D3280805F22BBDB207C98E6A8
:101C8000FF0A3D4A1011D975D722A59F58D791E573
:101C9000F0CBA709F930A36BDECE73FE80EF459839
:101CA000C0FD98040360012CB72F3011C9C8E64766
:101CB000A9A96611D347ED52FC5001B33DB30C65A1
:101CC00076172CE6ED61FAEF7D9801F4401EC067AF
:101CD000D50F626FC630BE98B404F8CCE9ABC4EF40
:101CE00027A5055FB930E598C63D570A30F55FF482
:101CF000FBEBE5C015E030AD7D9B58A102365E2CB4
:101D0000DF9FB864F4CCE07D17F936B316C2E6B3B2
:101D1000FC300195CB3008D21123F4FFDF1228E705
:101D2000CE19199BE3D830F8E6AF42045DD822FF04
:101D300068C2016299638DD370FDDE4F771FD7E6CD
:101D4000F771F3FE233BF12210FB2623D81128DB89
:101D5000D398FA638793AFB344D71D24852AB1B1D2
:101D6000C7D630F92863E2661AF7B3E42BD7B11B64
:101D7000C639C0FDC277662C5026B151D566FE9A91
:101D8000EF2C93CD3FF9EFCCEFEECA05E519E773E1
:101D900075D1AF5E47F37F9C3A66C4B0FC661151C3
:101DA000E2A9F3AEDB3AF9A475F697CBF20834B1A9
:101DB00076FF28FB37F6F971378E30D398FF187EFF
:101DC000FF6FCC4CD8FB0608E6FF11AD6610B64895
:101DD000C796D7B81078E5B7B5EDA5408E36D7D8F9
:101DE000FD1B9B2BAD5740BF58C8B0FAD9B4201D7E
:101DF000DFFE65BBEDA8FC80C83FFCCF58D180AFAB
:101E00002CB810E3BBF6839BFD90FF715AF736DDCB
:101E100048E6BC26A12CDDCD6C421008C4E1FECB07
:101E2000E50501C3A41BF52A29BB48622724286BBA
:101E300030D3D491E4155006DDFBDBB0F89B789BE2
:101E4000852DD4014CECF50110CBD7A06EB7B11B9A
:101E500057B3FD352B0168B3619BFF48FE6266C72F
:101E600035E55B96A8D9AB2C5DBF58859063EB98A0
:101E70008017EBD5042ED9170842B395C111FF186E
:101E8000B1FF2F58B020C1CF87FD64B310FE6DC5E0
:101E90005631FE27D6CD38A3B14256DAB8F9C7C5B8
:101EA00068CB8F989E55BB96403FECB553D426B077
:101EB00066B128EF3758FBC41EF5DDFD853ACE63C9
:101EC000ED19FF0869558786BBEDFFC1FCBF30BF28
:101ED00085203714809AC1E480B3F33CF9C7FB0036
:101EE00078B1F92F5852026BAB15FD064CB0C8FD06
:101EF000B30461E2B3FBDB2C9632CBCE35C488D879
:101F0000FE808718CC43B64926DDB73058194041CA
:101F1000E04C18A95FB270C15819DF2DC9185BBF1A
:101F20000C202846F2A73523D35F8FF632E77D9841
:101F300009626BA8021AEB493C19CF596D504BF35B
:101F40001055BA088E6D24ED8CE8FBA9459D9B01C8
:101F5000101DFD8B8088B4DE28FAFC2F7D5BD540F8
:101F600016D24B51FD73C2726232BE8CB3FFBF6E8C
:101F7000372E01A55C40629482B121DF583C408F2E
:101F8000F702B4F9A45081BB711107BA8501F1F3CE
:101F9000EA627FE27E662E08F7401C90885ED85E7B
:101FA00071F711FC338004C51430E6D0A512F8FE99
:101FB0005099806A44E778F3567FD13120EC1D18A0
:101FC0006028093905A07605284008DAE4F9FC09FB
:101FD00041ACC80261EB81822508713DA298825B09
:101FE000F3FD2899A92004C119E9DB01333FF3C4AB
:101FF000811090A906D073B80321EAA894FAE9A940
:102000007FD1DEC0BAB380F0B38C7F768580FEB915
:102010007203FDDB74BA043911843AA69710AEFD41
:10202000CCA74C25281077F632019B70F8FF288248
:102030005B102D98014D9DC562F59AAC622DECBCEC
:10204000FC88EE4A01C7742CC5B94AB8A2FD79FBD9
:102050008241B41469F8F830AD16A7A0166FE3E812
:10206000F97A4E80CD308CD37D8670FE088E66E185
:1020700004C4562C102BBDE260F98D1F95F657E66F
:10208000F5E6EA2DFD15A8FC8EAD45817DB04063D7
:102090009CBB7B8CF0FC623B78635C456FD6762200
:1020A000E7B1A0141920B0B3D1FFB0A5FF9C04CABA
:1020B000C202E231E823C9671079F325AA44F694F5
:1020C0007AB110DCEC9CC8FA4BD6720156DC49A9F7
:1020D00046FB10B66658F87FD9DD3B0D0D9BD6E167
:1020E000625E01CF2FCBDA7F84B6790824CBEA1A5F
:1020F000187A8294802212D237F8F1CD99D34123F5
:1021000034AE20F6CB12E0FF23CD9640181889B7E5
:10211000AC0110D5F34016D8DFB8AAAFFBD31195A8
:10212000E006EB3F20653018FF6E6299E425D6C5C6
:10213000FF4EB503C97BFBDA8110676E68FD6FD374
:10214000319C016C917E6C380151B312BB26ED06B7
:10215000FE5E97770579F9C0F928FFE086A9C003EC
:102160005A66B328C022DD1330F98CD89BB30826F9
:10217000E0C110584E23F64C0466F301D34070D3EF
:102180002064FC4C8008B01AC05D193CF9091EFDA2
:10219000B5784EC2F036C0036CD90F4D663CE7806F
:1021A0000730D3C88310A5E0F31026D31ED3787A66
:1021B000F3E4413CE3CAC85666E30153664FC1EFFE
:1021C0000C628A660635D351E030D3C9F360F3CD93
:1021D0008041F390DF7FBC04B3BE7FC227B30246C9
:1021E00001B242D1B310F40262B3D109306693FB5D
:1021F000950420F8BCB8B2B0CFDFD22108028D80A0
:102200001177DA0E17E3BF8D481A602301028F2081
:1022100009F60040ECF84F6CD5205B8DCAD65A0603
:1022200029A7A2762041965AFEE2E65AD8368DB109
:102230008C72D6C3048189AF69C071F399E098C0EC
:1022400031F6FA1BAC22688F31296F529880EB86E9
:10225000CDF498402A08F598806A734BEFB57F5A01
:10226000C960A933C06C133BFC2C08112FB37766EF
:1022700046C148F898BFFFDF988040201061174C96
:1022800008C041B0BBE1CD987FD4786ACECCF04095
:10229000DD030627EC98E041069E98A3038F2FD21A
:1022A00098E0F36BBFFECF3830D88FD7E5807ECC77
:1022B00001D3C19836F59810DE982617F33BBAB1D2
:1022C000DDB3016101B37AE916054296B38050FF90
:1022D0000198310308FD6DF595C030191C7BA5935D
:1022E000C72488E9E135E94204CB300827C57CF4EE
:1022F000737C30490B1218647998B65873E65B6B9F
:10230000008F6FF1071C9B7BEFA0FB71309DC730E6
:10231000E6D102C5F419B47EC9F298EB77FC98EEC9
:1023200023304B3B8F302FD90CC5CCF39573E4335E
:10233000D198905FCA300557F3FCEE320AEC1709CA
:10234000B5665274C0B680EE31304CA53A3C587137
:1023500010FF7FAF22249818604F4C08043203F816
:10236000FF5ED2159BCB30204F6C98E001FCE7DC80
:10237000E0409903025EA5B483E2233CD3C6E1D3D7
:10238000F3AED8D8B130970C30B70CB319FB6489D1
:10239000B84066CCF2983BE38930F3D8BCF9EDCF76
:1023A000E130064BE0113FFACC8205F598089BEB33
:1023B0004B01D3B328F3C859C8AF34BDB936227F17
:1023C000AD680678308C7BF56628DE819B14AC0402
:1023D0005E533040C88244F013081240781006095A
:1023E00097FEACA04091C6B36FF6547FD9CCF9C428
:1023F00069EB98424F6DAEE8FA7940066EDDB106A2
:102400009E5E3009A7EC2018C0BF6198816045022C
:102410004DB9C0F8A26682DCCE8CA9639630028DDD
:1024200059904293E89850A26B4001232C6812BB4C
:10243000660C11EBAC2858ED7F7E80E589137D7F1B
:10244000888066B990DF1881406364FC328DB708DC
:102450005F521B1009BDFFCAB00B1E105E9869B514
:10246000B3E798E6C802CFFACC2F905D9834C43D0C
:10247000F37E4E8ED31ED0EE6E30E241F39845725D
:1024800040DEE56319C86FEA98012015A6ACAF26B7
:1024900098F3100C4D9BDBDBAAB302F3B308793041
:1024A00002772C3058BF01980AE661010CB0B05792
:1024B0005AAD4B84523808A3CA5C274DF966EB1D10
:1024C0003080CA24A1C92F7AD2EE0DDB2074F72206
:1024D0001AE80E210AFE85F0FED78C0DFE31983EDB
:1024E0005A7C101F98CBD90C65C708B7EEF8E0F1FD
:1024F0004BDD15BE9BFC8DA4CC02897A5A20B844D2
:10250000FCA2C8162FC6AD92021C89A6B0B09AFBD9
:10251000F5A033D33830F364CDA556ED84FFCB4618
:102520001EE24CC68BEF8924B848A5014FA2733038
:10253000B00837A04820661135FA2535890819D426
:10254000A0D5AB839F04EE10C008180A8B8D8F7C3A
:102550004A03B8CA73535030F5FB69C66A5E52C865
:10256000B083C573C801C51D90F431401EC49316D5
:1025700004C8E730100F605E8BC570F928AFC3FF49
:10258000B3F17DE5046E666E11818010A5087118A7
:10259000B1E0DB6CAD18AE962C63D0C8A1662904FF
:1025A000C062397BB2288DBBBFCD8981B0426B9AA6
:1025B000C88CEBC74CBFC8933049B3906F97C879AC
:1025C000D2A797ACB51D40A0A05F2C88F766A005E8
:1025D00035AEC14B30803AB9C0887F3F30024208E7
:1025E000012240AF246D9834F9FAD3DFC55FD419C6
:1025F000BB8BEA103B4CA8BE3730FD23FB19E66EBF
:10260000CE800730D7F6CC4023F3CCC5085C3076BB
:1026100043C82DB9B93003B4106883F8FD57CC5CBA
:102620009106AB9D52FD4821887FCC05084B750271
:10263000B3C86046B8D9C8D2120AD84875F34BFC63
:10264000F67FDCA0B501E2300BCE0131D484036704
:102650000066CB8480B3B5BC13057FC6913024E1FE
:10266000D3F9532060048CAAF53202D1FAE698A679
:102670006DFC30B640CBC811F7983C9003FD32801A
:102680001EC48378E7F3F030FAD37A100F626DB985
:1026900080FB8C66CE347D2EA9B5D3FB9A7F4B98F8
:1026A0003053F3C86079F3A8D3C9B60CDDF3B11386
:1026B00055B3437E7F84C475FA218F2026DC044203
:1026C000B3B62175B358080BE79836F338FF9C6A08
:1026D0002E93CBC8276B5BD694204FEDD402B9CC98
:1026E00005A690581A0856CF9DBEEFE8D0041A41AF
:1026F000036C0C59C89B3672FE55D2189FC430B07B
:102700006FFB3A0C75AC20C6E8509ADBEF0872F20A
:1027100068EFBB32F6871E47996659C80D99FBB919
:10272000849EE3248008C0E3D3F6DC4340C4040362
:1027300039D86080EEDFE0FCCA30C0FBF92FCE292B
:102740004684806C815EF86A531E222C40812605E7
:1027500070D382E02BF71312F8021401A0113E0A85
:1027600018F9045F93E937010DB5122E79DD98232E
:10277000DB37443FFA8081116B28C0284B6FC66B52
:10278000E0B025262BC609FC8C2C8051EDA9B8F8A9
:10279000793006B308F930E2623E98FA413CA00174
:1027A000F4CFC883782077B8988807F22EF0986E17
:1027B000F19830B4FFE130E5621A152C39F1B2ED31
:1027C000699B9B08FD988192307CD3FE5D300CFBA9
:1027D00085A06E313025B3099E665DBEFB111201E6
:1027E00008507F434B069E14F323420A73B348A05C
:1027F000BFFC7FDA19F50995EC9820400B8838B4B6
:10280000B8D03D82A664C868F3C60F343CCB04023E
:1028100051E4EF224DEE0E1160FFC9E562209DE606
:10282000987F2630080610D337C861800C69C43001
:1028300003A682FC50F8F1B4E77ED9493E98BB1854
:102840008C984019E03B0ECBC8D8191088AD793070
:102850000490E2033798FBB67EC002FD326E642C12
:10286000D84C665FBEC7678BB3F76E633080201BA2
:10287000B992B32E0944C2E8BF60CD651EA61360AD
:10288000242CBE7FDBB6FE18AC980C30E0CA40C2E8
:102890004659AF0B9097B97D0A46C1026F8360011C
:1028A000898088EDB00028FC98C9C9C86D5EB877EA
:1028B0008D98CF07E3EEC90368F8DFE801C5E1C9E9
:1028C0003018DB59D5DF8007CB30794CE8C8A8F841
:1028D00066EF2F9832D2F2C8FE1BAA420546EDD809
:1028E00002D466970304F130AFEDA206B930045C60
:1028F00030B5B96EB30898FB7F38B3DBED2EF9E73E
:1029000084CE0110290842D9B320BB05D54B02C99A
:102910003028DD48B9F90C6DFF046FC68410B5FF8F
:10292000F8FBA59CE57CE7F771AF9CF3059AB4B181
:1029300021B6D388FC030487FF98FF246346937174
:10294000D18E3139D8FB18A7DFD9E649287F62EE4E
:10295000E0D8FA20BC35DCE28CA09FB1DD436634C0
:10296000EDC9EE89E8F85E5DB1B610EB207D58FF49
:1029700008B16B1ED3E0641AA4B117A8FE1823FD9A
:10298000CC7D7FBE9930FA14623AFC46707F8B8C06
:10299000B062D0DB96712FA36181FFE644CDBD7894
:1029A000FD825F989823A0B5016CDCFA5BCCBAFF7E
:1029B0002CB9B191A2B458E348C166F94B79F8B18A
:1029C000A68EF8CDD9D2FCC6BE3DF577E6F4A0A31D
:1029D0001B1BEFADB3FD97DC848B83B6D6E2042BD3
:1029E000D7B6E874779BF7FC3162BBD57CB0B5FFF6
:1029F00060A502505AC26FB4C0305A4B62EC6705F2
:102A0000960B06944509B878B3A2F1C34E7705F644
:102A100059F9D47333F32F8173E180906EC580220E
:102A2000CFF87BF1886641C582F361DD1130030682
:102A3000E8F7685DB8FF08963A61378BF82611DE33
:102A40007D70F9D519087AE001FE31FADED9F54139
:102A50009EC9BF08F49F800FB0CDB76696CC14C452
:102A60003CBDD4A5B6E3C5D63A0231E5E3C6D27F74
:102A700093B8F330F86197D2CE9710C456EAA86F96
:102A800058B15A0B6670194BF81EE3823DE1086796
:102A90009BE50159B0FC9083F0BD8C77F8F150FFB5
:102AA0000C2EDDE6848BBBD5B0FB0A8CF9282F1ADF
:102AB000B1E26D2E45B1FE03280DDBFF90FF0D56F0
:102AC000B91025FBA0FE15FC8C020B08182E113640
:102AD0007857EE841BDF990846B333AB26048CF499
:102AE000EFB3D3FECCC2ED206221AC12B4628C12E3
:102AF00053D63B188B66400AFAC0C59BB398FB536C
:102B0000920A7CE3C5DB1728FE16E1E9CE61125577
:102B100004D463F661C0FC8CCA25311CFCEEC738B6
:102B2000FE30A7A1B403B320FE9C5BA0F664F8C2FC
:102B3000A369D6B9027FED23037F8CB8A3FA1933BA
:102B4000F60D0135FD9C20408A0A059B6DFBECFBD0
:102B50008CEF26F3E43D6502B704ED17F9966A663B
:102B60001BF3845747BAAC51406FDB4178FD53CD1E
:102B70001CFB3D71A7B2632D36F8FADEAE67ED306F
:102B8000F96F6E3946E7E7C1ABE008E2DC36D55DA8
:102B900004BBA710FD69A1A36E0806C2D7FD4F04B0
:102BA0001002BF9B47F0DA12E7DCF3160108F1F5DB
:102BB000D80D05EB11268120BA4CEEC11730D08418
:102BC00081C65D2001E586CB52D097B4888D54F143
:102BD00006A2AC0CF5F20421F414C050D31820EF77
:102BE00008A05B3A5B38B90AD60507E0FB726F8034
:102BF0003A38C487F73DC490182FF25F5B30C6F4B3
:102C0000ABE70C88D7A560B190A487A0F8DE03904D
:102C10005214672C02413FE38E0B051156D980FFF9
:102C2000FACF4BF1022BF2BB043DC8F1B2ED651EA9
:102C3000E5477EE88901C96EE2FC1489666E6ED8AC
:102C4000D14020E0A1A795E2417ED3EF83523D0120
:102C5000A380D49E254029D682E63096F8DF1991CC
:102C6000FFB21E7B8E6BD5EAFB7FFC7321CD7C8C83
:102C7000635FCD85FCDADDCC40426CD3861BF9F86E
:102C8000CBE3A51CF33E1F5B3BFD1890F9FFB94E4B
:102C90008BEF7650FC628B8B0114D22EF3217F06D2
:102CA000238DCA79262234E990F311A9B3853AAF6E
:102CB00067F665880541A3F7A0F9467D59D68FEAE6
:102CC000A602DCE80355A981AFF69A40FF25F4334C
:102CD000E86718088AD940CEF5D58869FC8579C699
:102CE0005E55890804679E9E5DD8D8FBC12F9FF66C
:102CF000E02888B7106CDE30F87F2C01F14C2D6293
:102D00006F94082040FC71C389FAE810C60851CEC0
:102D1000EE3D3D9803643E0C68FC800134CD7600A6
:102D200040225A339B3D80665221245CF36ACA12CA
:102D300020BA6BA00106E6CCB331CFFDEC189BF6B0
:102D40009E325D7FAD43603F8AA0D9FCE0FD76F600
:102D5000E0201E08107C2AB5BB56B316D1C07E3BBE
:102D6000B988F88031B330810510D80892C0BBDC37
:102D7000E0A6F99E13FD2C842988ADB65CCE6A9C32
:102D800089E610FFB3E13F970A20E85898CF6FAF6C
:102D900008D5D6A0DE2819FE9E25841930ED1182B3
:102DA0007350F9100C652B2B3C20675806C7FACCE2
:102DB0003C800767FAC003FC0BE0DC010CEEAC1EA4
:102DC000C082103BF33C08FD4B10652839088A236C
:102DD0001917199633F903027C80AD41BF20F9CF52
:102DE00060404E9D81E6A8FF9BE801B00FDBC5184F
:102DF0006EB30A462619668C845CF7F5DF9810F9E5
:102E0000320979A348663D2C22B1025DBC9C9BDF50
:102E1000C498C86113F81A499508ACAF0E3212E88D
:102E2000FA611FADB00C56F80631D9430119D850DC
:102E3000FD832CA020671B549BDDF005B7C42CEC50
:102E4000B973EE01AE39D91708EA1950CBE5087508
:102E5000F42CB604CD7502CCD011343D72FF7DAC9C
:102E60009C6603180363CAB22317BC79FE3240E3A1
:102E700073F9E858AFFC33C579C990021EC795B401
:102E8000C0EBE50B5FDCB51EF35E98FB0D20D0FDBB
:102E900004123166FFDB6E03FC6BDBD310731F1172
:102EA000FE461921C6CA3DF57FC78EF6C705E62046
:102EB0000123EFCE7F45FCD8FD96DE113FE698CE8C
:102EC000EF810902D59060EB820108D198264FE48A
:102ED00040220AFF200930013242B8F8611FAD9844
:102EE00014BEB1DF969D604FAF8701D9CC1FD1A032
:102EF000FB039FEB9806165BABC1ADB37217F907E6
:102F0000271E02150A40CC013819FEEC5894087BA4
:102F1000CD98D619A1CCB31368077A25859F8998D7
:102F200042132402FD2DA85134001836B330097F16
:102F3000EC3201575B4F108454F7880D2228DA8B4E
:102F40001DDC28FA1204842808E630F8FBEE333D35
:102F5000FC98CEEBEB65F062BFAF9818F7E280010A
:102F600004778D981E0F73232010BBFDCC387FD6BD
:102F7000980469F81BB6F9D129A940A9813BF6C884
:102F8000FCBE72C7FD980267658167D28C08371A4C
:102F90002000B3FA2322218C88F5A02888F3308002
:102FA00022B1126E7E30888930062608FF07980904
:102FB00080303482AFE678980B08202DCE51B9FFCF
:102FC000DD8FE5C8BB2D84016BB249B3BE33B61C9F
:102FD000D082D544E0B1FA2F47981062AA19C1F502
:102FE000B207E8C171130BB23869D97481607E7081
:102FF0002468FED88F363010012BFF7FA201348069
:10300000BD0643680B4C80C129347E4EBB1A02803A
:10301000ECEEAE52FED3DC34666CE2055B5BFC8406
:103020008047F4130122E02C02447D1220C12818AD
:1030300074B5E15582057608B8FF7F9698AC5F0EAF
:10304000E52012AA55690F0C9001BF02C598117AAC
:10305000A5801DF0FE98AF2062983D005CF90967DD
:103060008766610F163057C86817C051EF3B98F656
:10307000725123C3304A4863BA157F35302482ED3C
:10308000A516C17FC012229E42812830021AF698EE
:103090003480D756DC2289D7D0E2B5055AC980B62C
:1030A000194201DC30810626B502E73080310493F5
:1030B00021F1D360F323082041A232D812988EADBB
:1030C000AFC0CD77F313406CF02DABBC985E26F308
:1030D000B90489015F664DB9E0FB90BBB21896B3A5
:1030E000185FED7F045466C2F8B507E63003C0F1FF
:1030F000F3164EB4100C48BD7E28BBFC8FB7F5D23A
:10310000539066B788CB93CD12F43107A001305CA1
:103110003D69CE304CB00169F0068905FA80200285
:1031200088A0E630FAFFFD5C6201C7B760D6905018
:10313000086C39104BB9B10990F578E7E5FB240C20
:1031400050FC30A2900DF44B85CAFDA819F5C507B7
:10315000FC5DB5785DCE30E698ABF30133E7C4C9CA
:103160003C807FB0988318F00F622F0DE530D0DEE1
:1031700098FEE8010C10F0FC08BDDF0673CC8360FC
:103180006C195D642CC94F4D1CFA24B3880CB20431
:103190003930200282B93019BBFED70E169BE08C65
:1031A000B3BD01B1B333667FDF0523FD1E2005F9F2
:1031B0007BC11222BB2CFB25F8FA8B8A8D5DD0D304
:1031C000123410283766AD6E025DAB893002B73B12
:1031D00030218411B2C8BD9808866AFCEDC88CF80D
:1031E0007402DCB3C4F984406CB3ED013020B83014
:1031F00083F3A1C63937DB60E4C85DF0FDDC30B293
:103200000716C238502CB3F5BC30C9E0302D7D987C
:103210001409770A0A604DE609FBD97264A966347D
:103220007924677137BFECC4A09E773004A401E70E
:10323000C81A059D02480D9078980AF8072610656F
:10324000BB74C0445817E5D290AF3A300301242D27
:10325000964AAE02ED050C28E5080980A9DC30DBB2
:103260008801127F0C1056A358C8AAB460BC6B5AD0
:10327000D3F23068EF02987DD3C8037A1072300D14
:103280001DD089F517B8FFB3D34CEDACD6C8025F9B
:1032900017EFE58060400CA588D6EB9FB7E365107B
:1032A000DE54629E9864F230445EFAB29798A67239
:1032B000BD21D35A6234112E068644FF18E5DF1271
:1032C0001A8204D3AD124DB320E086E490915C30B5
:1032D000BB30FDBE1A6022DE9802240DA8DF7F6C91
:1032E000467AB310CBDB8B6F599801FE78771F308D
:1032F000D9A418A95E9833FB11F6FC47E0FCE6362A
:1033000089B338F35963B1C47FDA3138A5560183E4
:10331000798BCE54169002BC9861C92DEBD0F997E9
:103320007D09AD8303BC986C648A59B5887E5FD5EE
:10333000DAB10AE2301EF3D348400B7CA62D04110B
:10334000306D08FEDBE37F5B17671546C2EB18584C
:10335000048CEAA5FF22BF252780C2C83843590242
:103360008CA502120FC1081985026402280E10A054
:1033700035907F321C80BB07CFC52FDB34B8CBF52F
:10338000146B66E0412DD53903105C307E6EC80E9B
:10339000DBF6F3C890CBFD08092BAF17CEF510086C
:1033A000C54FB3D2BC3FFCD7F2042ED3C1E230F1FB
:1033B0009806813038A5F9450A9CB32C1459B345B9
:1033C0005ABF7FB7DC6111EA4E16B8033E23617F16
:1033D000A68111300A40F83D063410461BD92B73E4
:1033E000112BC8ECCF53252C3B7030669E98F34CC4
:1033F00088110486103CD342220A0C01A065E7988C
:10340000F7FE06027ED9761AC0677564B0E5AE1E77
:1034100032303C983ACBC88DEA7BC84893F803FA1F
:10342000074623BE985A5EAFF0B720CB783B4BF5EA
:103430008D3057A10EF130B78326022C6BB0FDDB27
:10344000989006FC98DFB2172894CD5919101E9851
:10345000B480CFC8600A0D6D9EBB4803045718FEA8
:103460007F11E8F98431F57958AAC1B086B3F60521
:10347000066040CA6D2018015A254480D346FFC318
:1034800011301A88200A60C2487908120482691F24
:103490002101E298FBE0573C175D1A6A32053C10A7
:1034A00019BEE9DB36C807BBEC6A4959E259D57643
:1034B0004DC8E003F9BB7F969867BBE8B92098DB5D
:1034C000FE887551BF573716435A2E7AF505D1EA53
:1034D000D86A5EDA8C418DD9B610A9D3671D036115
:1034E000768EA2F370F84BFA2635B3224B1D602F6F
:1034F00056FC08ADB38411ABD94360B904D30A4973
:10350000B358A6312B4085F63109B8F92FC6E07EB5
:1035100058C8FBFFBCFFBB204B0CCF85E31038F332
:10352000CEFD32288D20D380C0FE6090FFD889FE6A
:10353000D9669CD1638DD3BAFD824866B2B3BEEC26
:103540008DA0CCFF4C66D0D3C5BE71BA17F3CBCCDF
:1035500051B33728DACF319E45171B8257F6CC98E6
:10356000FF248023E330CBFBCC90FF0B8CCE67D6BF
:103570003A982FFB320110E57F808DF5DB75788658
:103580002666EB9940CDF3DDF60858FB88FD058CE7
:1035900017B8D88FCF703A48FA1B9898645E23A268
:1035A00034F8532BFB16F8FC3FE5379C8EFD34BAFC
:1035B0006241E3AF2B726EF9F28CE4B56120E74C07
:1035C00018F79FA4C9047A5781C471F395AA8E781D
:1035D000591905594F9909FA12B46DD6A122B39F12
:1035E000A0DAC102135A4FF6608010A56A666B9A82
:1035F0004BFA32133FBB0163FE537669EB112A90FD
:1036000001CE7A5404C007322826AD8DD35701016C
:10361000F80A09923D615F99E6FE84D138FDAF85D5
:103620006BB280BE9BDFEBCCB7670403A17A12FBC1
:10363000C204C12077102C8B7B081CF5B9A8FE981A
:103640006087A3ABE1B82C663733FFFFE518A5FF11
:103650004C108785B2D6FC9B5CD888F8F2D540DF49
:103660006CE87CFFB37B806FF60C1F7328B0FC61A5
:103670009FF68380026986EE4750FA08C78C907CDB
:10368000FFDFFBFC90FD1DF54E108C2CE301E2F3F7
:10369000FB3209BE7E0B1FFE0BC8FF8CDB2DD374E3
:1036A00017FE2130FEC78CCDB56980AFEFB0C0FBEF
:1036B000633F8C6229D3AF1FFEF398FBD593086A52
:1036C0007B5CEE61BFB68C80FE1DFAE610F36CF9F0
:1036D0007C807ED8497EFF6E85D8B8FD6EBCB31065
:1036E000DBB288FD8C149F58B10CEFCB24315F0006
:1036F0003BD9F3022D1A5BC670FC0E162104C55E81
:10370000BD4C018236F820FAE650299B25801DC960
:1037100010616BE9F242DED130F8F88B1B8CACBB48
:10372000016F8D31C58F6684FF97B22896AE48240D
:10373000ACD8C8FF998D8559C0D2200A1908F391D9
:103740001CEB647FB1CEE343FDE170624B19201C9A
:10375000500F02F8BF7525AF61AF43817AE0FCF1ED
:10376000C385467A67F67F100123C8C540F708F481
:10377000C4280204FB4A4169FB20100F112BFCD91D
:10378000E580EC669630D4DCA46C2BB852FBCF2CD1
:10379000B39CECF7058080D834507F180C0128E1E9
:1037A000C00D80C530EB044050F4CA287EF7E8FE17
:1037B0002030765A89F5B611EE6B108850C5FB7C27
:1037C00009020E67FB38724360FF08880329205402
:1037D00082A09C18F02F424CC82179206EB0FFBB0C
:1037E000D70E08FCC4A362FC55EC4093BAE3400832
:1037F0001CCDCB0E19FA220A0D60BD41E60801FC72
:103800001069D712F0015DAED242409DFF231EFD2C
:103810003141AAB820CCEAE3FBD954F714A655806D
:1038200040012E4CFED7CC7F3A65FF0A80B7CD4AC7
:1038300018FC84DA7CB308F83959C1ABD4A80E3629
:10384000E359A2CEA910FF04C7FB1A046AD3B10240
:103850006E5AA540B641E0FFC69A12757AFC4566DD
:103860002D1D0C9DCB2030F986E11C59FCC0B3986E
:10387000F8CACFFC2609BD1475044BC1402C005971
:10388000EF9913D8DCFA73A61D77AC239036FB3280
:10389000F8E3B8C6D8332A6EEFB0F9FBC10F0DFFBD
:1038A000DBC0D8FB7FDBFC02188EF65EC67465FABF
:1038B00041045CE9AEB1E83EDAFE5873FB0130B179
:1038C000023ED214827308F2BBEB4FF8BF0B801A92
:1038D000B14F5EE518825C06B110DD8E04595D2B98
:1038E0005EF01340B31C68B3B13C35BD302DFC0312
:1038F0001ABD88054BFBD083BA146CA9D84FD6E506
:103900001AABB334124AE316C55E280243AD8114E4
:10391000D61A0C5E7B466635E5E5F6ED25FD43C11E
:10392000221A6634914044FBF808A360120649103D
:10393000B8626B6606DD8960800C896F9307F04280
:10394000AF262BBB6980CC0304D3C03878720989B9
:103950008CB328D3FC7596C4E6969ED77B8A036009
:103960002F1BF598FC860BB3C0FF7F0A7FA791221F
:103970002210054BB3049B1978F812F6341A02F39F
:10398000893F2F34357FF59812FFABB806F0DBDBAB
:103990009804FB12DAC233F9784CD86ACF3259BF97
:1039A000B21065FE3203DBCC4B5B765D04FE98659E
:1039B0001F48EA9841CD3CF889F6FE11F5F9848C50
:1039C0006C350D0102FC148016F394459AA297FB06
:1039D0007F2C6EB164BCEE74C0285E6602ADBD265D
:1039E000EE60BF11D698125A660FD756DB1EBE98EE
:1039F0006286B39E9873603C90BC0766EF3398FD77
:103A0000E50C6C19686CB181536674133006DF32B3
:103A10007BCF8BFD624BB398531914FB7FFD98202D
:103A2000B801B31426BCF911D3D698FE2BA730F2F7
:103A30003004DCEFCBD3937E0030FE51300966EBCF
:103A4000198019E91793635E98B71037A1584DF89C
:103A50009F8BE5E55EB1817E6D3083583500057141
:103A6000A9B7BB9828FF04172519C909AAF70AD5D1
:103A7000F8056EDDDE6802B35C3011FE98735648BF
:103A8000FD058BE8FCD8DEB0A7EE3208E5D704BA16
:103A90003C056F3C02F5981889FF7F1E1069E89875
:103AA0003C0C4FD59880FB7F78CFE5E03009F30BD5
:103AB000BB20FB4EF90812EBB17FB1E22519C0E63D
:103AC00096FFA2B710E62870FD131876B390302049
:103AD00025C47DB346199D415C30709E2B08811929
:103AE000B2FE32DBCDF4F270C4FD98D001BF8D98E8
:103AF000F704CAE468510F81F397A61576D80CAF86
:103B000059FEEBE16053368C19F57E06B1DD8A75FE
:103B1000FEDE98677A28C096F6D85FEC32205919F5
:103B2000046692AB5522CCDE74205076FCEAF92470
:103B300066B458588945AEABFC40ED7F54F506CECF
:103B4000A3114EDB5CA0FC3F6D49F930E0B7016C7E
:103B5000A20401959310FC306B94BBB04B9C10FFFA
:103B6000EC90B1F8136665D6018CFF7F6020686623
:103B70007F2D036016D3C16F59FE86B331B9E303BD
:103B8000266CB3B798FD554089E62E52DBF67F8050
:103B9000AB55507119ED7F652D81E2B668C80247BB
:103BA000D3F674E826B34631666CC640F3DE12CD18
:103BB000B77089A8B31095E34314FD7FC036BD01EB
:103BC00018479F1BFBCC409BE7F80412F50F019AA6
:103BD00019B54039B3F9165F442F082591F301EB6D
:103BE0004212D20A30B3C637490967AE09084049C4
:103BF000C1FB180301600C9BC208204E3430DD8CE1
:103C0000E099E64B67AC9841FEBFB8D3A510E0C081
:103C1000DC0178F4C03C801DFE9868D313FE086375
:103C20003EE5627F7FB806E05B66F31018046DEB3B
:103C3000B8C013FE7F9802D8E02B33EF2AFDD9C21B
:103C400092B359C12D97BD4BD8B1F92E5B30127983
:103C5000989FD61EBE983BFC0120664D02118F191D
:103C600058D3BC9E911546E6C826662CFFD3807FAC
:103C7000ECECC0FBBEB365F80DCF2566C1C27DE29A
:103C800093D2175ADBBDB119F8089C997EDE7319DF
:103C9000B1842275595B241B49BC06EFE40628EC6D
:103CA000FD9AFABDDA49089E19772CCF4D1906A75F
:103CB000C4FB1360227AF32694DA09667AD392CB96
:103CC0005A190FADF80E16198024195E984D1983F4
:103CD00078AAF302D7DA986040DAACEBFE3F45AF42
:103CE00066A25E81C57C98FD32154DF3F781FB65B8
:103CF00099197D642CF94BA6FECAC2C965B3460169
:103D0000DA7517AFECC9FEAF8883CBE630A005C9E2
:103D10003366BD98096EE7DA4250F13071CA9DB73B
:103D20006691F4F3F9A8632BFF203C4D0698FDDB68
:103D3000A524C0192B7D64D9E081FC7D6FE49864D3
:103D40006FE098D7DE8216ED58FA044C42A6990827
:103D500004CDE57D029419286B22DF4BFC683CF30F
:103D6000F55718B2B398E5960CB1F3A2C908CFCDB8
:103D7000C811C7C06AAF0BD7F4E916E4E8030B62B9
:103D8000D39BE5D8FC2BF60F0F6718309FCDCC26C0
:103D900012DE98B718F198A3B503E630F8FADBCC39
:103DA0000BBF3398FC09CFF6984020C936F3E430B6
:103DB000FA06E6197FAC4B894CB3BC98FCB6C8F444
:103DC0009888B518E63068F9C57D980836F32076EE
:103DD000D97BFE98D734800033B660E63090FFC6BA
:103DE0007D984064FD7F9EDB7E8071DA02C0811980
:103DF000650BB3033BD6980C2D9985C0E815A3F647
:103E000038809C03DB1EC08619D0B3DFACB1EF61F4
:103E1000984240D810A8662705997B194201DB0417
:103E20005AF3D5A2FB6C7372494CDBEE724B674CB4
:103E3000B3755418AA990CE320976993F88D0C2256
:103E4000048FE584BF018C30AEBFB1D69808FE98D0
:103E50009778F32D43077FF2036C665F495E982DD8
:103E6000263FF680C00531ED0640027930182CB3AC
:103E700053DB986020BECC5AD336EFD802E366C33A
:103E80000264FA980277DD180401EF5E4BD831F92D
:103E900092B398B85D5DF3F1C65A9A6EAEB3043230
:103EA000B3BF3F14AF0197FD19F5B175178CF19AA7
:103EB0009BA6623EFFE5F8FB20CF7878DDD240E696
:103EC0005871F39DFB32281B60D380FE304876FF8B
:103ED00098FF2434936718D1E339FAF911824266C6
:103EE000D8DBEDCC325BCA58F30189D194532C73E3
:103EF000AFAFB29754CC7130B8EBB6F437F333D1DF
:103F0000CDFF8D248DA4C717F6A9F8B02047FACCB1
:103F1000FB7F09FEEEDC48C5B8B204D0B0B3E8FFC1
:103F2000CC5844D844B36F96283AD8D850FB25795A
:103F30004B862B19101730B38BB6B12028BA67F215
:103F4000FEA8C41BB380201EFD4A208B7ECCFFC67A
:103F5000FF8808624E7401800420AFF32BF9180427
:103F60001CDEA21086B14815B322B37FC01067A72C
:103F70007C039D02048BE0102FDB505FA0B3F7F3AE
:103F800050084016A5592E3E8C5BC76675B18A7FD6
:103F9000808070AF01340A6F2704A017DB3E2C55D8
:103FA0007832F3E53450DFFBA0B8FB1259DC087E11
:103FB0005467A5C88025B0E4B25D5B35E0F91BED20
:103FC000D510A19AAA1090DC8B58E497F610D0FE79
:103FD0003FE264C7C25F014C986A195F2262462FB4
:103FE0005082B16FE6FFB8FAC8FBD80FD6FF18377A
:103FF000D664160D6766F98B7D848F99C3FF805E4A
:10400000E5617E6F2E0432FD7BE31047FEB6A8F813
:10401000FD765807FF5BFE9909EDF1A8FD852B326F
:10402000201FFBCC057DD896205AC2A380CD27F651
:1040300053583A19B5025DD801F6B93DFDB6DCFA20
:1040400083EE9EAFFFB1A01CECC5F0FD1F8C667D1A
:10405000B304633DD3B110DEDBDE402CB3FA35CDC3
:104060008108892CE1FE77B6D501BEAE611E6C23B6
:10407000FD55B3106A07B580043BF39E1CCC6190DC
:10408000B066F1FF026575648257B6E5DCFB2498E3
:104090006A1DA3011213FD90028A7F9F58F86EDFFC
:1040A00062263D177B98FD0A619E682E0142CF6D06
:1040B0008CE0FA7E61CB5E3808D7D88040CFB1540F
:1040C0000210839021D76E01081AFD8937E02F195D
:1040D00076C88102034F0DA5D6606A47A058809725
:1040E00089AAE99BFC900122500328CCE0A5AEA050
:1040F00082AE33DD562040F8B9579264208A405092
:10410000F60A4080228079194F1D0401C0103E83B9
:10411000424518204E6BF305802BD02A20232140E6
:1041200006B1F8FD23C69A345FC4D4EA0120B1FE7B
:1041300035C10410CE51067F8C10ED10A4F1F08132
:1041400032F84D66D802B1E43DEB0878FF1085DA0D
:1041500066B1107ED8173461DBB10818E3AB08F7FD
:10416000E34062EBB9012CD9C70CB34BB6B00430B5
:1041700056A3FAF41DD8B76C47B6A280FC55464941
:10418000E6D5279B2E0A3D89046116F68B68FE3B17
:10419000FB99201FDB4E7F1BBC51FF087F4210683C
:1041A000636779899FBB33D8055CB72E303FD34F07
:1041B00050D3FC14DB971F58BE208EEDBDE8CC66B3
:1041C0006B4C0D6BCB53AD629FF1B8FB200526CD38
:1041D000C124A21AC9F281F3DA0602F71C810DECA0
:1041E000201104F2A2E370C2671CC10924AEF35E81
:1041F00053446580219BF370FD8EE3E06C4E4921B2
:1042000082F3D047B67EC30CC47796801D8AFE9F8A
:104210000CFF4A98FF5D429132B4186DEB4120FFCC
:10422000EB032C5751212046ABBB24012DC306DFE5
:10423000A6F0FA805010D60416EE5B21F7BE810876
:10424000904ED544481087C9D611B0019C662629E6
:10425000DB12D3DF952C802130844788FE7F24E455
:10426000B290FFB309310142C0841805FAF5E9059F
:104270003102B3984CF4224CB366F4134ED3A0161B
:10428000C2946D23DA27AD5F46C0DC2418529F8CA0
:10429000ECB02048FA85E03CE19007F1DC1ED4C97F
:1042A00003E0909D813016A704090FE401B33CBDE3
:1042B00087E0CC413C26F0E268C08399E0E2E0B8B8
:1042C00088C650D3F312B96695FD80306D09C07F62
:1042D000CC0440F310F30436E50C8041F39C66BC3B
:1042E00001D38589FD1BE08DC6F3043E7C88FCC0AC
:1042F00010187946C800982E43BFF3305CCEDD28F5
:1043000058AF7A0C8811307204081505A3979815D8
:1043100034B34549BCD2B37D3C82053008B2B32EDC
:104320000A66B350F91624E4959A05F86E0D6B4BA6
:1043300046F7AC9236F301219DF6C1DC47DCFC3137
:10434000F7F77715FE387E33145DE5E0988A76F648
:10435000A99248FFC3A7497261FFD78DF60C534B52
:10436000DEBDDE20850187E7CC77D5D9EE06FDA737
:10437000B7C0E97F49C978F9FC94285DE9E2D03CEF
:10438000F3DC3BC843E69EFA5A8994A0E711C7774D
:104390005DDDFE44E495C079D968230801C2B21EF0
:1043A0009FE1FE840477E146127FCC602495011AD8
:1043B000E7A5856626B7ADB00381B3EE66197BF835
:1043C000C376B57EFD50402218B7EEA4C002FF5C54
:1043D000C184C9C17AF9FE09014110C10258E767D9
:1043E0004C800577B90A821808A6F002208801A936
:1043F00042F21AEE60D1E079D0EE777C76E0017D72
:104400003F2D4A0B3F2520A306C69B1D88089FD63B
:10441000FEE0010C80C507F09D1EF27810FEA52B72
:104420000CC98BF303EE60803C7BBBBC07D00F90C4
:10443000F8EA23F449E094D388F2FF049869F33C46
:10444000C62069E75E3BFB38FD885F489810731B08
:104450000C825F069880F32F39C5431C0651D3FAAE
:104460006A80343973664046C3FE8B5F456DFF4DED
:1044700043FA8011FD300516C1009834C0112CF3A9
:104480009108B3610DA4B328DAD332FD23AF2028FD
:1044900039DE81B3B2025DB3400418BFF431B0F924
:1044A000F8FA011090488201910D77F1AC06D03DE9
:1044B0001349A368DF9FDD36019EA6A908AAEFFE77
:1044C0004E4E2039EE24013F800090BF42943020B0
:1044D0009D800231B40DBEE849FDCB677844E2040B
:1044E000035DBE47EEF5D1EB19804DFB951A21888F
:1044F000AB9FD05E66B9FF0A65E9CE9DBA75F064E0
:1045000066302091C4061019A6E8B307BB6E8F620F
:104510003D38D41AEE220CFBF798DD66BD5C0369CA
:10452000B1DE5AE5D1FC306EB3A5C0B3A0DED281B6
:104530005023449608A480668194AD66AD7E7D25A7
:10454000B225ACAFCF98416EF1FFD7882997549F21
:10455000A6BD088021FB3CB20233C8FD73FA168069
:104560008D2808EB03648483304340A2C0DF2DFD17
:1045700082E3E7B336710D7B19137EF1ADFF0104C1
:104580008DD382AF01CA9C482C46C205B6F6DCAC7E
:104590002BB38B30DEC51EC003786393E03B8B509A
:1045A000F5C983E4D5F311CE66328D0A53AB6E970D
:1045B00029C90FE5B4E0A4703603277110AF9B98AA
:1045C000AEB3FFFBB6BDC504AF033B9881B73BC894
:1045D000C5F39BC931108549E9AE6DE0297C98D4BB
:1045E00066D79623184219FE93C002ED04F2180113
:1045F0001061E0B5A5215E98871811AE6144EF0502
:1046000069FEF06A8014D795A489DE92A6C028D5E9
:10461000B35166B8B3E8F9201A3490D4F11A1D23C7
:104620000973300436BB89F9AC4022275D16BB06FE
:10463000FEF18AFAEA3AEFE43B547739BFED9D3058
:104640001209807D7F7B571110B8124D8EF3D57003
:104650005C1166C3D9C87F982B8E7E2E2651EBD174
:104660000D98F8D4667AEE8437BDE310D6D2C056E2
:10467000A845FD19459D3753C012469408F6D1024E
:1046800019519DE6CFB26E74FB3C73EC6D76A29827
:10469000864D7B2081C8CBF744BC986DBD06FBB12D
:1046A000A981F890F330422211B361F50360084C00
:1046B000D1B2D28759362368E543A1CFD99653EFBB
:1046C00012BB13DE4B7686FE805D9AEBA558F66929
:1046D000CAE230E99BFBC1A2F9F885301246C45208
:1046E0001801626A0CCF88D2260108F48104106098
:1046F00073E9090211D80EEE70FB317D661F761A40
:10470000DE05DF32BFC4A08475208201AEA2C122C3
:1047100018F6B38285BF57FE8660EF2FD20498BD8E
:10472000986077AE8B30F48B79AC88B9AED886C6FA
:1047300012CAA748BB400582CB0D627EFCA5FCAE29
:10474000C85C3090C6471EF8B5D922FC1ED2D16095
:10475000109E09F3FBF3BF83C398E82002662DCABD
:10476000C4ACE838F308410F3FD3D6E5824F1F3081
:10477000E97E6B19FB21300503C2F5FC045E98D776
:1047800020113E50180523601477E008307EF02495
:1047900025C2E5D593B05A114AB3D025D3B38CE2E4
:1047A00079CED379E39011DDAF78FF3234C104982C
:1047B000489A20BB098130CF26C6100803D7402273
:1047C0009D9EE47EB2FA6EEEC3BA237FD0C453A896
:1047D000BB208434F480041282774C09041065CB2A
:1047E000A144FD9809E63081049CF98826E78B46B0
:1047F0008DD53423FFBB00EDFC39ED3EF7C9C388EE
:10480000A47A6D5957B399D23CDA2DDACBF6E72862
:10481000E6B8FDB940C0840B10809A033D0CF3BB91
:10482000F2545F8FAB22309EFBAEC9E789E7C945E2
:1048300019BAC0BB8246C8BE55AE023778E430080C
:1048400015A155B3FC24CD0507C002E7984210EF2F
:104850004C810F31824820589C0B0824F4D6293013
:104860004279FA2AF9ABE9407CBE471186BB840342
:10487000EF228401D069B344844743BCFF44815094
:10488000B00FA8FC8405AC30FE6904188102608476
:10489000B8F762671626B18A6057C14A37A677B360
:1048A000D8A3CE67D9D711F39AFB8045C216D68418
:1048B000425FC8F07F350A16C8DD0529F3820B3147
:1048C00008D720F9B5D2A001EDC54802DC30BB41C4
:1048D000D59840E6989C300DCEB3CA233EEFFB320C
:1048E0004614CA1FB39B03BF702BC88E30CCC8F1CF
:1048F00057F030077B6B70FF9B881310BDC5902D60
:104900006674420BB930627F0A304EF198276BDA39
:10491000828A2EED6DD4C020F930086DCD7D0C0259
:104920007FCCD0F94FED0246C840959869BFE3C0EF
:10493000443041F90640081811395E98C605307AAE
:10494000BB4AF2B32D5C81360596033CCBB3B07EF7
:104950004F302CF8320240AFFA2EC5EB5A4892FF86
:104960006F040D200105BB8A406F93F2BC209405B3
:10497000FCC8F2C6ABCABB6FB930FF8DEAA0F8899C
:1049800004804090D21AAA50B45CB7FAC9C8B95E84
:1049900076BFFBF52840E2F2E6138DEB5A2D62104C
:1049A00069CF11901972064B05413DCF507FAAFF88
:1049B000FDF6B641DAA332B4B2BB52DEB3218BE9C5
:1049C000D59802E798E5BB25A784D0D91E7BA646DB
:1049D000C0DCCB50BCF0754EAA9B6881C0B303C04D
:1049E00070B9164E5FC8AE0248FA0845B9EB86C0EA
:1049F000026009AFEFB950A0DB9387B69E9190A7F4
:104A0000208F560DEBD314015E5D3CBBB6E09F5F7B
:104A100012B4A3D32D7BF2C85CD2C9CA2BFBEECC57
:104A2000E281DDE488E2981A8876B9062360B3C88B
:104A300041A130DD0FF4A05F9041F8E6577BBA1931
:104A4000517EC9168402190466E0405E097BA626E1
:104A5000C124F7D64CAE886B1541FF8F3DE65D4013
:104A600002DB8730E51EC8DD033AEB982CB73C909B
:104A7000F70ACA188039B38FB00FED7F173D2C307D
:104A800078CE1430F3D6EED0FA04E43DC132D0D360
:104A9000CB982BBB8B1A85C8B3C72C17D71C3034C7
:104AA0008105B001A7AFA520CBA8F830DFCE98FED6
:104AB00065F3FDB4513392ED026998ED113228B3DC
:104AC000746F032019EE49B008F64B404AF1B3ED7C
:104AD000BB13A651E0C897D30319D383B3DD50FDB0
:104AE000F82004262210DEAFC00A48F90D2008364F
:104AF0009052FD04034412692478C54BA2BB897708
:104B0000DDCB32FFCC63BF53BBFA2009259004E014
:104B10003DFC104920A0FF9C1B12404CBFC8969B37
:104B2000FCB95431B0811A713DFF082D59F3E648A4
:104B3000034BC073E50737D713FB9178C4AFE81078
:104B400004F2DF2FC8DDD1FDC4EE505D64DD4120ED
:104B5000EA9810FC1A183A02D2EFF37E9EC6CE18DD
:104B6000DB0DE78669371B81FF8191208A5090BB5E
:104B7000C7EBF8C2986D400680A37D28FD089030F1
:104B80006C56891011F160010C04F43282D68951FF
:104B900009AE620B7D30A742DD5EB3EAB9227249ED
:104BA000E6F737FF72B0061211E1C3D32EB8F282D6
:104BB000371ACF033AFF809985A316C0078802BB36
:104BC0002059AF3122F399188D137447B3A1D70A36
:104BD0006E038078C07FCF4BCE1F81900816C47FB4
:104BE000F272428CD35D2FF0255DFCA78431F7FB78
:104BF000E8F9E07A98F22F1EC00297781EFA8BF13E
:104C0000ECCAC81A53F3B89E908E1A823AE78453BE
:104C10002F0BB93DD3038AF013FD98E47724037179
:104C2000D366DE98E160FE845D31C16ADFE0986F93
:104C300081CAF50886FE2223B3E330B690EE6B8A74
:104C40000B02ABEB8F30CD8B10A783E564E7C8690F
:104C5000FA096D4909B353B3930A19F3403DF308B8
:104C600058A06480E0E00932BFB63C219B0CD3C45D
:104C70000AEDB010DE03C8B35B8CA541B340717C74
:104C8000CAB49067D5F8FECB24424D791A612BED5A
:104C90004D31D59113F3408AAF08EEAC04847266AF
:104CA000B27DA291E7D0DD4BFF43F0E09029D1CF58
:104CB000225D1B8C04DB99300D204EEB0150F94B2B
:104CC000BCCFCDF29C3BEF4B22AFADE1583E7B6EAB
:104CD000D6C4BF219E7D84DD0AFFDB36D208BA210F
:104CE0000594FFE31060FD10BC90034777E80F02C6
:104CF00044AFDDA318234DB9DA4377EEA2BE85FF9A
:104D000077DD5BFFB942B9C2288C43FCDBC89072E7
:104D1000300CE7B3F0F908CB80B04FB213FDF4BC10
:104D2000083240DCD118216578D232C39DB34448A3
:104D300011CFF186DD46FFA628B81280BC5089ACA1
:104D4000B8106FCD302C083E8028FE809120BD9891
:104D50000237B39367C88530270E7258080E6091EA
:104D6000A3115DEF52FCA4FAA32E447F19DBDF8868
:104D700011302016AEC47E3D1061408C800908DEE3
:104D800026C0049813FD9881ED8010083930F27622
:104D90007BD578000B89F3C81E430C8860DC800C3F
:104DA0002FFDB04F480B100231B30D42B4E841D390
:104DB0005C3D8BD078766EC81CCBC86E4E300CEC48
:104DC000F884D736C808BCAABF20F5CC03F469F72D
:104DD0005AAF2B295A15580212F2EB7FDF8F8A59EE
:104DE000D3205C7DC62010AFFEA2D9EDE13DB35AC1
:104DF000DFC081309E14E5980223566C89FC6FFA5F
:104E000049F744E742B3FD8E6266B3C822C053F649
:104E1000B3100AD9B38CA690E6B0FB031B27FFB3EF
:104E20009403C4D31001B6E2ABD840FFE3D3BCFB7C
:104E3000B520D59C40DEC8671FF3EEC180442252E6
:104E4000EDB3EA1EEE28E0E02C59D3D063A0661340
:104E50000C0A55BB62DE62E0EF28EED3AC7959D67E
:104E6000C0D8FE28F3661857DCAC37F8F6E4EE94A9
:104E70006E3839D85BF8A29302DCF677B3A04CF316
:104E8000C9EACFDAB876F6BF10CF3F6BBAA089FD7A
:104E9000FB9B20C2F5731094F35F7FEE2BC8097B58
:104EA000F8E20FD807132322664FE25450FD5B014E
:104EB0001BB19BEB9EDEFF8114486A53B8589EC419
:104EC0007E7DDBBB3A63FA1BFBF9387BC71AD398AC
:104ED000FFD504201B789BD28098B1814FA0E6BFFC
:104EE0000CAE3587F2706FB240FE33C0C5E3FF9A57
:104EF000CF6E93632DFF90FEA2A702C53F320866D6
:104F000028BE20EED4F18C21F6B3C8FECD598480A2
:104F1000E62967E8C621F0C510680138D0F820EF0F
:104F200031F6262B0140D8F5C24719E8FA80782BD4
:104F3000A3C9D729682062EBC40C3FCD269B72D849
:104F4000FA5F3CAA6D59ED4BF30216E3B8CDE3FED0
:104F5000F82376A8A0FEFFBDD87D4037D788714CD6
:104F6000B36C048167F4C8CCD520B314D1E950B038
:104F70002ECF202FFC35D76ED8E0F862DE1420B893
:104F80009D16012C4DFAB0247BCD0A08812A2C2CC9
:104F900057411905A738B302580ADC0140F3AE1097
:104FA000535F06A540027A30FC4FFDF49040221D6D
:104FB0000C5AEE81E6C122C96A0882E41EAF213094
:104FC0000CCF5FB368DCB1024BC0C1084E434E81C9
:104FD0001F65AF16F0FA50DBA0FC8B4FBC7FBCD135
:104FE0004A8EAEFB1616F3F8C5FBBA95EDF970FCC8
:104FF00097FA68813CAEDCB2664BFD623CB35E9DC5
:1050000066DF1042C3F7DD042C798CED27D8FDCD87
:10501000B37E7ACF378033FF7C28FEB3193D98F9F1
:105020002CB74BCC036521806C8467F67FB85B1985
:105030001E98EF09AF9B4D98A655DDFD10FF189502
:105040008A3B08C235544098F1D1D8FF45E69052CA
:1050500043088FEB3353F96A04634DA4D0FEAA0EC4
:1050600040C70C2E7FF7B402F464C03582A312C689
:105070004EC717027B411008E1208004B71670F676
:10508000A85880EFDA59F22CEBDA2C16EFD22698DA
:105090001948EEA38DCD76E30108D74C9DBFB60627
:1050A000FB3818EE01C0FBCBDB5F2DF3046611E685
:1050B0005FA19596D3B52039E5E6A1B4FB33DA8C30
:1050C000AD6FF6C3402DFA23FCDBB0D6C4804F8D04
:1050D0000BC2448A92D0D9145BFC99F32A0901D5FA
:1050E0001CFFFDE934F506F0647E794089ABA90523
:1050F0006676E408DB201BB14FEECB38FE30F8B803
:10510000FF58989E75AD1CFAF6FFDE5DB110F3BA3C
:105110004E31505E8118D0B0FBBC69C61B8C98FE26
:10512000123750F56F0C8D79A99EEB67AC66205C49
:10513000D3CF338CD6596071B3BF5823D919FA95A0
:10514000B302BD8CA8B2FAB9950162E47FE663DCD4
:105150001F656EE380589B8A6B08D5EA04B320F77D
:10516000700867E7F690FF6AF7B54659C5802BB817
:10517000023BACBD57AD17D666F9C0769946C8EB71
:10518000C3052B6BC7AC17591A02738370FD771ACE
:10519000C599754BAB408CFD6F45951B9DFD0B3044
:1051A000F9C6C74F2EB41276FB6120019FBA1D9637
:1051B0004BB16035AA02BBDC50FE94129DB1657CF8
:1051C0009145B6B2107898DED6849064B40F28FC6E
:1051D000937EDD96BB620453EADB9502043839D432
:1051E00097E64A8120DB24E3C605C73BBD212CFBA3
:1051F0002080C012EE02EC3E0347A5F360E81DF3E9
:10520000BB43053B4062680580BB93C61AB24C3F66
:10521000088001A08102B450FF921920B081FC41A6
:10522000D60154A4E004C34C02888FB2067FF16714
:10523000424009A0B1B351C8226EED16ABE08E9A80
:10524000868015673D09F60C03C220A0DE48FE0AE1
:1052500028B34ED7A0DE36F8AC4C20E3C08F375FC2
:105260003204FDEEF980B939E6ED834D662022EB7C
:10527000B15EAFC2ED1C04815DE3824010FF9694E5
:105280000828EED8FA10EF1B9EFDCF841B92D8148D
:10529000FAA6AC8A80712040A3049A3FBBF7E0F9DC
:1052A0002B6FF430FDA36CF1FDD896FBC9C62C36EC
:1052B000022ADD30E8717D6E6308C83CC93FF3F314
:1052C000B427C28D265B2E70FCC57EEBC5BDE30204
:1052D000719B94B064B68FCCFD33B81B80E8FCC2E0
:1052E0004D3F5B3B4488FD24C1C634C7BABCC21CD9
:1052F000ECFEC0FA758B017924EB5F081EFD6E0889
:105300009C19B2204CB34BADFCF90608D90240CD34
:1053100034F0F894CDB71058BF80B758FFDEA9FC21
:10532000FE44205A846E2C661BB47646408C9A6BE1
:10533000CF3E599338DE4B7AB802F3A611717380D1
:1053400009066E4074B523610CF3B7014E8B25FD41
:10535000B020E0190C28EDBF80B344036071F392D4
:10536000D330863036E0F824D09618252FEB340859
:1053700045417869A093FBE60F9BE758F93CB3D40D
:10538000FCBEB6C4F932014419ABB46859EF165DDE
:10539000F6D9C0FEECCF2601BD667A02629E7E94ED
:1053A00020E879BB61E5BFF6B23D0AEFEC9660FC00
:1053B000F56607AFEC7F0340B5B5BE0CDF90019AF0
:1053C0004970E5410104D36FFC330C1072B3C2C5C0
:1053D000FF30A902DF7FAD813281406659A0E4B37E
:1053E000396A19623B675B036990A2E962B3055FA2
:1053F000CCB50427E8F140A0FE679119D2E8192145
:105400004C47D6E511AB9E037FBF522591D3364C56
:10541000066C59668BF66D0CD5F8866FE698A6F784
:10542000E7A67A9850C43E7FBBA1186BB6F87F2DD3
:1054300062448CDBEF50B30ADCECF7FA04F2195C3F
:10544000BA09F763264CFA8ADA460401F373FDB30E
:10545000FF67FB650601D90218E6137F11BB19BF70
:10546000ED5A207D9899B1FF0F6D9830403D98041A
:10547000623E986A51B7C03DD3F30169ED98B8F91F
:105480008971E4851C3DB506FBA2FD98E3B1FE0FD2
:10549000EFE882045819449F2DB501561102DFEC44
:1054A00064F8986BFD3C69DB25C9D9897130AABBCA
:1054B00063F2F3FE07C14803B741217398B8FD6357
:1054C000063D37C630CBF3C07F459820B1D01F4092
:1054D0009830D81804AF4B177B2BCE065A41202E9C
:1054E000B00AEF4AB0FE0867B719C002838063DED6
:1054F00098BF20EEEC77CD600A04762C52C433C8F6
:1055000046B401EEFE2C04C7BD988476EEE3426EED
:10551000AA120A6C9EC8FE43D598F0F77FED768EEE
:10552000FA9860E5D334CBF379BDB93C0750FE67F8
:105530009B80FA6E02C27F409862BF0A6C8247DB92
:1055400098C2484E313025C30895E298FB97B38244
:10555000295C146DB002D8C43562066BE898212C22
:105560004B9630058CF70B680B01BCE525C0DC3091
:105570003CB3218081EC0FA8FC5446BD7B02635EE6
:1055800098B861F39BF2C0404CD7BB8898AE88B303
:1055900008F00D7830C6BD98705D907F9A983CF306
:1055A0000AE00108D8C9FB82CED0D1B820637E982A
:1055B00036194CDE9843F339A08A010DCA9E663B2A
:1055C000E1C2401BCAC83FFF3DC8800284D99BB8D6
:1055D00042EB140AC0EEB0B1601ED817F0DE4BC823
:1055E000C65CEFC80F60E3039EF31A4008602C3CD2
:1055F000D8E6FF87D77FD8ACCE6DC8084DA9759B7C
:10560000016FC330A9C1B1FB13B319CEC80831D59E
:10561000116237B301FA9382DB9F30302270FC10A5
:105620007799A5B9C8B11A7EDA1709FF7F12687F8A
:10563000173024EA04F3D75910A56B34F4E6665109
:10564000B32CD6205F764E80C09D6D62B83013FCBF
:105650009853CE5240FA67A7B306801C0462DF7FDE
:1056600068B45F36A370B85D0066EF2198B4F7D9CF
:10567000F90CCEB320010238AC5B764929AA43531A
:105680006919A001F711012FF768D7FC086AFB28F8
:10569000F9ABCC5E6602F0B18C2E5A3011AEF82216
:1056A0003CFBDFDBC998F9F0441903B204BFE930D1
:1056B000D84006B73630E041BC5AEB831810C98B8E
:1056C000C63269E798F33038FD6259C86856637D81
:1056D000176E3964FA98E1BCE5CFE1CA5862DC3054
:1056E000DA8049ADF793CD38FD9820EC41F0F953BD
:1056F0002CC87FD7980897599C988AD74802BD989C
:10570000240190FA8599C86FEB9802F830D7D598A4
:105710002092787C108C47AB64AC4420F59810BF85
:105720009298FF5AEFC0CC28D8A8FB86E8FF1487D0
:10573000C7FD980869EA98462ED3D3FE2482340523
:10574000D832F98F771704196E004CC4BBAC096AC4
:10575000F8ED1260023E8AEF7B982340410AB37B4A
:10576000D0B1FE2E303087D698709E98D907311967
:10577000C81230CD3619D3B31FF59860A939EBEFB5
:10578000604F6C98F1F84756624431EB984555F7F5
:105790008BAAB3160D82371F621173300928D8FE09
:1057A0001053E598CB3D0646979308B956804AEFCB
:1057B000906BF70B09EB679B30C8FD0B3D980167B9
:1057C0007FF440807B8904084B19E013CD7B048B68
:1057D000E9AFB0F7B5C05A41B02ED60ADFE148FEB6
:1057E0000C67EA320158D8BE8D158010B0B26D80BA
:1057F00028DDB15E97E80B010A81299582FAC41B66
:10580000662258D6B30424196BBF2E8860118C59B8
:105810003C5DB24BDA13F930B0EC1098FAF2D05884
:10582000031EB77BB1E0013D4F60980378740FE031
:1058300040A3D2F020F31A1D0ADC30D9D8FBFE18A1
:105840007718F7C71A30E6C80365E30C70F9E84D1E
:10585000F34240FE98B3E8FCE59BE0288096CE2C0E
:1058600025FD328130B6FD49080C80447B98C22268
:1058700045B3F73367C8D8FE623C30E9080205F744
:1058800081624EB3112504D1660837682188D3148C
:10589000C2400AF00CA00104ACE04B8B308CA97F15
:1058A000ACB1DF732D0C8201CA38623CCAA3A09050
:1058B000BC6CC4FD9828B408FDA91879A793D9D861
:1058C0000F995FFFB1F807CED108807F9BE59B83DE
:1058D000E5F436C00401E55AD4BC1AA714EA020A5A
:1058E0000C9E806641A8FDC47BFE245EC34046D961
:1058F0002B15013F93CA1229447F9D6BE119E90CD6
:105900009821D8B8FCE72D30044D665EABE8011D48
:1059100010D3D3987AB0E4A501A372EF0C200E60E7
:1059200040963CF223FA7FC0FB7F556680AAB350B5
:10593000D5B388ED013020146661E3B9418420734A
:1059400080400C7AE2FCC4B74910A511F88CB96606
:10595000B9117A9890D1F70B816024B988DA41AEF9
:1059600008E91A2004B330E542F8FD498B19FFC657
:10597000B33EFFE5ACFF20CFFBF076AC0501E3F3CF
:1059800038D1C718D398FF0C1206FFB32CC121667B
:10599000E388F8C2C58220BAF708CAD339DBF7C159
:1059A000F8133873F30353F312D38F14CEEEA0FE23
:1059B000CFE330C8A4FFCF32E7B44D5A849FF3D66B
:1059C00086AE77A3FD30C123F6CC8827FB32400D8D
:1059D0007F32FB625F9C61AAFFB8C2FF31988FECF7
:1059E0000240D82D59B3C07F769602A5523890C494
:1059F000B64958DB65E587FBCCFD0E561B216BE3F2
:105A000088F961517AB91E9EEFBD085DFE0280CD16
:105A10004BE1028FF616C21EED980820D65302BB4A
:105A2000E3D901809DD19B94E7508C905BCD7E148F
:105A3000340AF3D20420DA02ED07E7084C6398FC3D
:105A4000B3F17D5A84BC80E458E39974A9EABF6D30
:105A5000210A7EB482BE6DB0FC7435C3D5FF08ED5B
:105A6000BAFE429FEBE8418C8E7FECCC417B2063F9
:105A70007E4B61376D4905BD98FE625C4E7A8E089B
:105A8000C21ED9B2806BF2C804BD30FC5F58B302AD
:105A9000EF1876B6EC78303A596680BF6EB1508D0B
:105AA000D8E3025FFD1AB8F98BF535861CFED8885D
:105AB000FD12DF32D8DCFBDED8F87FA662FFC763B9
:105AC000DDB167FBDE18FA6097F6CC070AB3200554
:105AD000B8821FAD98403F7410B0FBB082C9CD278B
