:100000000C9486310C94A6310C94A6310C94A63134
:100010000C94A6310C9476350C94E0350C944A3649
:100020000C945D360C94A6310C94C8340C94A63113
:100030000C94A6310C94A6310C94A6310C94A631E4
:100040000C94A6310C94A6310C94A6310C94A631D4
:100050000C94A6310C94A6310C94A6310C94A631C4
:100060000C94A6310C94A6310C94A6310C94A631B4
:100070000C94A6310C94A6310C94A6310C94A631A4
:100080000C94A6310C94A6310C94A6317F7F7E7F10
:100090007F7F7F7F7F7F7F7F7F7F7B7F7F7F7D7F76
:1000A0007F7F7F7F7F7F070007047F7F7F7F7F7F4A
:1000B000077F7F7F7F7F057F047F7F7F7F7F7F7FBD
:1000C0000F7F0E7F067F0D7F0C7F7F7F7F7F1F7FDF
:1000D000177F167F157F1C7F147F7F7F7F7F007FB8
:1000E000277F1E7F257F1D7F247F7F7F7F7F187F57
:1000F000207F217F267F227F237F7F7F7F7F7F7FDF
:10010000107F197F1A7F1B7F137F7F7F7F7F0818E7
:10011000117F127F0A7F037F0B7F7F7F7F7F081015
:10012000081F097F080F027F08197F7F7F7F7F7F6D
:1001300008027F7F081308117F7F7F7F070C087FED
:10014000017F080B7F7F08077F7F7F7F7F7F080706
:100150007F7F7F7F7F7F7F7F07037F7F7F7F047F1E
:100160007F7F1C7F1B7F7F7F7F7F7F7F037F0810C8
:100170000C7F247F237F137F7A7F7F7F7C7F081112
:10018000147F081908200B7F7F7F7F7F7F7F7F7F11
:100190007F7F7F7F7F7F7F7F7F7F7F7F7F7F081550
:1001A0007F7F072408057F7F7F7F7F7F080D070BF8
:1001B00007237F7F0713071B7A7F7F7F7F7F7F7FE8
:1001C000071C7F7F7F7F07147F7F7F7FFF1F627FFA
:1001D000C23C006088FFFFA0089001324006C8C6FC
:1001E0000019FF03050A4414812241CF068AF32037
:1001F0000365FBA00C94290034FF7FED813250068B
:10020000CA4CF419280366E0A7A9C68800983CD315
:1002100064800CFFB970FF0015E0025CF8800B7081
:10022000012E7804687E2AA002F467F350F3C0051B
:1002300098A8E6A06CE4B312F8E054800AD07B2AB8
:100240004045E054C9D374D3E7B80017B960F80942
:100250008B20FF1063024033D0EA40200863012066
:100260006D048016E00853E4D8F9018242FF9840FB
:10027000198020F398547A8094FFFB8BCB2028368A
:10028000100119A0031480FF02D0820A4021280027
:100290003BE0251492EC41D3E0511958FDBCA0C0BD
:1002A000B35110593FE75F9770341B242821D59430
:1002B000044D865010C9C341F39703F3B37C01305A
:1002C000A680ED8220FBD7D210BBF984A0409668AF
:1002D0000311B6288440CB2E0196FBB0E0B32E81EB
:1002E00036FB16E7B318B6FF18FCEBF582DDFA30E3
:1002F0001004A1AE84ABBF2025F468642DB3217F28
:100300009F12B801DCC244B504B21956F20847ADD9
:10031000982318660226C75009136121B37F42044F
:1003200058BB08EF685B7EFF2DE8C03FB63CA6884F
:10033000E91EC0C244190CF068F0401E1B7E9CC030
:10034000DCB35EF0C037E1062CFA032324B3D2C03D
:10035000BD39A9027266FAD9E8806826DFB020FBB1
:10036000770B08D0B4901B9FB3D7B17ECC119DFC06
:100370004240A0C5A4D7FFFA8B128CFB2532643F04
:1003800003D4B7F859EA015F14B3837EE3D5F806C6
:10039000636AA748F3E5FA066F5382EDCB38E79B13
:1003A00099F35F0B6DE6F537EE98A8FE085EDE6701
:1003B000DE2011E5B434ED5C2285A719A9FF9B1955
:1003C00030BB0980C15F13EED13112C6E5E88984E4
:1003D000CCB3C042B6FCF698F9FFBCA5E6F21EC449
:1003E000E420E04E3C8007E0DD0C265AB3F0F9A88B
:1003F000FF49CBFE0466FEEAFF1D989F3010FF9B6D
:100400000184E666BF5EB904AEFD4719FF7F022393
:100410007A52B0D3FB4E09020B17B32C35FB38F9D7
:10042000C36AFDD07F1F03BD8B1002235050308D57
:10043000B63481121064F340A0FF5F6F5DEB71185A
:10044000A87316138B1D2C2BA80DB38B66623F97D8
:1004500023FAED60B93007A50116808447B499C628
:100460005A62D7FF04519E531E1819C4A0806146DA
:10047000E8A5B0C6D4A9E6F858FCBE32BE8D171860
:10048000056377FA7F113001D16EF3B0899119229B
:100490006DF97F805C4BA7FDFB8730EE201EC0F717
:1004A000D5E0413CDD8804C630122B663CCD98086F
:1004B00037C38BB3B0B130DFDB6403FCE55CF466BB
:1004C0000C06137D7FB189FB919BFEFCB8BA74D9F1
:1004D000B3B0DC2002B3840AC235B309B2B388FEDC
:1004E000DFFEFCC9F510F737A402F130A641BB616D
:1004F0006F6E17296E83A4FDF398CD58C5E21D8653
:100500000BFF04D7BDFAF9D21AF26D9E28AC05B3E1
:100510008CF32CCBC8DB7538FC555602AF8D98ABED
:1005200022CBABA10B57198C37655BF879E8DF7FDD
:10053000DD010BFC7F9130BF66EC1527E5CA02A1F7
:10054000B3DFE4DAB9F978982E1ED0830BF830BC0B
:100550009896DD83121BB5FA9807F528F9A780D283
:100560006DE6E5AB66020BB830FDD149FFB372CA48
:1005700008DCB3D1B850616AB326FF5F07FA98C8A8
:10058000D05B4208BD98A0A2891B6CAC481378BB15
:10059000FDEC09A408BCECC880FFE3DFFC98B63C86
:1005A000C2DD3F658D3033C8202B5DCDA535FC0500
:1005B000117123843F32A003C9E8FCC95F75FC9F19
:1005C000C8D02210607BF185A069EB9852093C9B52
:1005D000DFD7E5403536A2FEF47FB216581D8BFFFB
:1005E00022D7B008CD32F323840CB64C04A3D2B387
:1005F000456648FD084BB33C278630F380FE30301B
:1006000087B3B00FFD1CB608CEC80708EF568CF8AC
:10061000DF96B6329E0BB641E3301FFB7FFD141010
:100620006C66B908B3117F934BF31802B803050346
:100630005E1630E4109FB3F6CC4AEEF8B87DB5BD37
:1006400050B422CED7A0216E2004F6980A01C23EF3
:100650003787CDC821DE60DAB4FE7D2BF9C869E5A5
:100660009896C81AB4FFA8FDB9436E9BC079ABFC3D
:10067000305C78613F063264EAFC1889665E90BFA0
:10068000228630B345FE1D30F32001859C307A82EE
:100690001BEFD17F02AFAF303008B09F9BC80B0972
:1006A00007B5C6C02868B377EECC49F59808DE9840
:1006B000BFC49D30813C882CB31E25E4301CDB6810
:1006C000F0F5A47914AF9BE5723041FE2330F309B5
:1006D000161C085E76C803FB86B34F2E300458B351
:1006E000534FD6644EB56250FD91D54FED040209CB
:1006F000C6080AA001F3F7067898D8A60C47A61FEB
:100700005FB69828FC9BD0B3207E6158B360FF5A37
:10071000FC59D55F877F3930200360F303070179E7
:10072000168599C87B1850FFBF248130BB923002D8
:10073000E596F316146BB180402CC8AD7D56FA8453
:10074000013009DF32FE041340440C820969F326AC
:100750006908EC906024223BB34D750EF66BF930BE
:10076000FCCEA5FA2FE4303A0F0FE0413C4419F3D8
:100770001678C225660CD9C864FF9CFC882F66F1E8
:10078000D8F09740E37AE50623BFCF606111B30B41
:10079000C6897E183061F8CD0BB39B306082D7B329
:1007A000467E82A08CB323F5E4C093DD6438F8283C
:1007B0005911EA56696BC801FA7F8606DEDC5010D3
:1007C000FF96575A23F4D8946EB4B20A72C876A72B
:1007D0008CFDDF1E6FB7A4ACBF8132F79850FE606E
:1007E0007EEF3320E63D0260B62982B3B431495E24
:1007F000D9FA301E1F9620F34BE770F87BF9D0042E
:100800007F123019A05EB656629945B308F97D1083
:10081000B2221FF29BF980513077386A98046347FF
:100820000B8149EE300AC0CDC888F96E5AA26AD849
:1008300064EFD426C2B68457F5B0ED3224327B9FE4
:100840004F0621F8E001BB3C4F02CDC80F16F391D3
:10085000F9F3C4DFF30604D566026E66ED8007F097
:10086000D6A83CFB499303D7D388BFF9D7E5C0F19D
:100870003DDE98961019DF5141E65AACB35081B372
:10088000E06FA722E5C8AF8941DFB9DA43FA7A9869
:1008900014D8B35D26E54BE7D89BB31B66F5529A97
:1008A000B301B6EE492C6CF3F8FE7F8D4ECCB37DD0
:1008B000FFF8DDFB20AA2710D26F593C01C6F37167
:1008C000D18E30D398FF18240DFFB3288242669052
:1008D000C597664098C4A7193A7E3FB2401BE77897
:1008E000FD3CE2DFA844B5C4C0663C73CC3DF36672
:1008F0006088FBE3CBC051B63CEBF3C26DB246BFA0
:10090000CCF861C7D932EB668804BFB0325A58B30D
:100910000474B3DBD8FFFC94B006F96610AFFD3168
:10092000D655B68085EB19FB0ECB74ECEA9DE8C278
:1009300088FB62CA587720540FB7103DAEFBA8A3BE
:10094000FAC02926085EC361B35858FD6BAB7C50D2
:10095000D55620B4E090B00497F12B08DB1E38CEBA
:10096000ECB0FD80962A04025EB1B80185CB6B0124
:100970009ACE70FE596F0406961DFF7518FA668BA5
:10098000EB660E3D8DA1B1FA53990CB9CA5860AD12
:10099000DD641040862BBF20275C4188FA100B4095
:1009A000046566CC8139C730FD439612B002CDB3E1
:1009B000B8B0F9ED7408667608FFCDF3AA0F769605
:1009C000C121FFDCB0FB61FD3201866BB3FE025B2F
:1009D000DB9889FE2C23C3C5B388864B1910165BA0
:1009E000B3FFFA0C80C3F61918FDCB5794C0AC2B9B
:1009F00002376CB378FADEB0E6A45FCFEE2E50FF7C
:100A0000D4691B4D3515CB7B0D391D0CB3F87733ED
:100A10001061C75F0EF67F2CBA61FF6CFE012BE5FB
:100A20002F0494C83BF3C8FC1223500B0C9C57892D
:100A3000FF48CAAA10C432BA561102AB63201EF690
:100A4000470801CA68DD60FF5EF55250CB498064FB
:100A500040018AB5C7BBFA0828D990C9F7E019FF49
:100A60006037BF3028ED58FB8F98698D04506803BC
:100A70005E2D633E12B810B31C0180C4F3A9D3F9F4
:100A8000FBBE2446A0C2A1B19AE8481918B40514C7
:100A9000568422BAB580F8F7CE4A6150F139B6F0E3
:100AA00042A503BAFF8F69D88FF40E36FF27D148CD
:100AB000FE96B18DE789038D63FC73B302FAB19A98
:100AC000CED0FDFB3512DD4908E691287062DC03CB
:100AD000D9D4FE9E7FBC0196C25EB7653579FE2BE8
:100AE00028F9CB3046F33BBBF8F96367CC493DDED0
:100AF00049FA08C5BA90F3F3087E32C8FEA240FF57
:100B0000C14F561540082BB3FB3434C2BFD97A0805
:100B10009F42D990FD1BE9B0019FCC035532D04BC9
:100B200019200B1633027141BB77D8FA6798D36846
:100B300065B3104CB33FF396F5AF90C24418AE4284
:100B4000CC0B010E094B807FECC62405476C0AB71D
:100B500022A4A0062FFB39D5FC01BF5854FC06C1C6
:100B60001C8EB6F3633C55C612ED30C6C977F32030
:100B7000D0F9EDD869BFA7ECFF81838212D947DD98
:100B8000B20C96F120ABB318DDF308A0FACFC31670
:100B9000C2020834E7605384115AF3FC4FD90F5056
:100BA000A6B57FF607B0085066DCBCFA53942662FF
:100BB000A3A6605F0902518296DFD2B14C1D7B1162
:100BC0008011300129B310B4C0D56902EAB3A8F787
:100BD0004B3C9007E6F2201E137873C3E001D00768
:100BE00037AC1E3BDE0FE2413DB3E0D9413C5E2A0B
:100BF000DE1C80A537C6202BF3104E15FCB9C0CBE8
:100C00007304A0F68B5AF3FFFC0C806203B3C3306D
:100C1000624B0A604FDECC1019F412C82458ED4420
:100C200069B28226D9B30963CDB3180A92B3819809
:100C3000A0BBFC23855F12E1A3DB78984726974091
:100C400088A4CFE996D47FEE17112FDBDA0A8A3A0F
:100C5000EA48848177E50A28FBF998B0A0B286F8C3
:100C60000AD879DFD5EF0696A77E90A5C6D3B60839
:100C7000F318FD79DC97EA6C0423F0E5B2AACEE51F
:100C8000944493CBAA0372CFF3FFFD65E0B9FFE272
:100C900016A2C8F1206866E5F3A9C17BF8310A679E
:100CA0007998AEDA60BBAD90201046660844E6F352
:100CB000E1FCEF5ED2464FCB6081C0FAFEBC987279
:100CC000F3414CF759E6DF7FAF053598106AE02B0A
:100CD000A0CF156BB34248FD9041C1FF7B988007C0
:100CE000B9F2ED384457D08207EF5D9878EB981C45
:100CF00015F59806FE78BB02CF9850A478A29AF317
:100D000032FB2F483698E56301B7AB9860DDE5010B
:100D100020088AFAE508D3E96BE00164FA98228793
:100D2000191CA6C08242F0E502CD02B301B2B34164
:100D300005028A2DB388BF1E01B446FFB581420863
:100D40004EF370FD10BCC4D7D2F50CEA89D0899A55
:100D50005E9C8942280284CE1966D424A0F79008AC
:100D600019013EA7240525C214D3DB9820418B89A5
:100D7000ADB1B630F3B6881519D441599CE9FF31AD
:100D8000EC775B842D59044F195AEF50EEE380D76E
:100D9000E0CC36F473120B0213DB0CD6441C9F2EEE
:100DA0009B41F3076F3F115462F905F70522C20218
:100DB0002B6680A8DDB665F488F93D6480919020AB
:100DC0009FEA98B00B661A7F9751367084208D6623
:100DD0008124CC3B3AFFF8C8301106014D796A21D5
:100DE0005E1A5E98EB030864DD981020049FCA30F9
:100DF000B0FB5A4FFDF30C82853001FDF95BF6BD67
:100E000028F9FC7734E107F07D7F1A3077610EC056
:100E10007FB698011D7FB398813CFBF00206869B4C
:100E2000E0E0B7F6026BC530B5FBED3CFB0C3627B6
:100E300006C2CB0641FE73BF9F614B9C8112F498A2
:100E400020B666EE0341300505AFDECCD7DC31FEBF
:100E5000FAEE16C02222ED6167054602D88101B183
:100E6000605E3B305B870203DCB3C00490B4F5578F
:100E7000B324D793DD32CECAA12414BE63FCCCC800
:100E800005D014F8D042440801FF4020882442676E
:100E9000EAAE80BB2E822FBDF498506D9010A7ADA6
:100EA000984133C2FE6FE799E4C80B0165F240AF89
:100EB0001930E2B119D8598DE0FAB1FDDF94FE92F4
:100EC000C8952A0EC1D3EBCCEF2EE130D267EE9756
:100ED00060FE34652391146FDACC40AEA2F96876D7
:100EE00044C003BCE5FF534C124509407F6CFC3005
:100EF000EF3DE549C0B522CEA804B15AF51A662DDA
:100F000012EB3462570A722C6012B3B91B429FC0B5
:100F1000F521106141FB0C0111310010E43009D6BC
:100F2000B342978232300221C6D7CF980133D9B469
:100F3000F8CBC84E343DCCC8F15B06FD986036E670
:100F40002021C330FB702CD3DF5A9838EE87F9E4A8
:100F50006602DE19185359D53059C166101B62FF5D
:100F600031B83D071520B518F39837FBCC7BFCDB77
:100F7000B3C80889B369097ECDD6390ADE98EC1169
:100F8000904044B3BEA4D5B308DE3010665D6F7ADE
:100F9000F9A89BB33481FC98EC93C8FCD0C4C4106E
:100FA000881523F320E00424312F6D9810287D98B4
:100FB00011A306D7F7F6149E21C72442B88519A0BD
:100FC000717DBE8B14596171AC629E98B7403859DF
:100FD000D0D76EF66F1FD8FCD540C0BF9F56974B39
:100FE00089F3812C627E987E91DC3536B71005F945
:100FF0007228B9B3B37509EE264104F81C4F6F9DF2
:101000002244E88E7E018088B01B12F6984082F15F
:10101000B3E08C212D22A16669857B6BDAFD4F60E0
:101020000646C440CD1809DB8178B8F5B826C2223F
:101030009FC840444C80EC513002FE1330D3FB106B
:10104000B9186F2CF4820930427C7E526B38B0069E
:10105000F8FE0AD60203F0EF5F9838E698E5F3CD84
:10106000303C108971307998F9C83BD30D806F2DD1
:10107000989C41D3D0F8AD483FE9C2985720DFACE7
:10108000E7E596F3A11530B14F389813EC80A8DB53
:10109000DB98100C9AB921FAFFB10A03C15EC55B57
:1010A0008378B3DE1942F3AE0CB1C44CE1C80440FE
:1010B000BCB30582AF0D301B8C7A004035FA35E4A5
:1010C0008A20D5E9E6989A12C810D8DC2B8723E845
:1010D00010A467F1C9116BCAB7AD98057C98FE7B67
:1010E000EA2410B0F8DBA701802F403057101E23F0
:1010F00030624BFFC028592371E9F3DA58FB0BE843
:101100008F7F2C4BDD7604FAF903C8DB6C4BD69845
:10111000C0BC30BF80CC9896B380FFEE0F3E44DA5F
:101120008802F19D376AC2027123C12DAC024F8F34
:1011300030D1FC8935D382E698EF7BB040DAFF737B
:101140001A244817982037C00CBEE944C428180553
:10115000B9230CF68109320125EE98C00898E4F411
:101160002C83F3066BCA30847A333022D8FAFF69B5
:101170009003F0B520E530817EF6F0FE2F232FB8E6
:1011800031982E6D30F0403930E2DA810CF898A1B8
:10119000D3ABE6957066FDE604C1A71F5DCC3004B5
:1011A000C40779E5799869288979E5FE6B7F8D9880
:1011B0004705B7C94CAAE6A551B3B01FE0D44469AE
:1011C0004EE346C010E0B30E31B31E36303BD3239E
:1011D000A836F698014CBF7F05D0E8FEDEF5649096
:1011E0001842EAD2802E5B1530B4EFD768024D204A
:1011F00096058527E59895C8BF69802405A5DAA0DE
:1012000014E5C8DC30EF0128FF56DE44DBF3799C9F
:10121000CB9310961984BC57679B1467D501205E49
:101220005E79CAA6778968FCFA4080D7886ED78035
:10123000853BCE980AE9CE23B803FC78D3F28C81A3
:101240002ED7A864C6862AB304B6F276F28408EDD7
:101250007B2204656C39E5448221E4626D660802F4
:10126000A3661120B402F198A24373F378BBFBBFCD
:1012700011C6C04218085C3D43E0E326D782880FC0
:1012800023D38C8111B1321E9517EDA48F9AFD41A5
:101290004C84813012AFAE9804FF3240C8FC7E5FB0
:1012A000C8C75DFD3C7130EEF3382007BC98C473AD
:1012B000C808779798DFAAE278D3D3D79840FB98ED
:1012C00090FA5B907F2F3D04FAB9FE400682036FCF
:1012D00031E54CDBC84079E51AAE1EB38C38F38893
:1012E000F90F73B3481801C0116B95C8E56B93F5FE
:1012F0001109B13255B319AAB312BC98D335FF24E2
:10130000ADB540C07B98A480EE201102F2984EEA61
:1013100031D01410875FF30241852204623D181911
:1013200029FB02D301A580F6811E70B0C601A05F23
:10133000D8A0FA60E79380087EC1E579CFE5A8E2FE
:1013400041DDCF3DB3ED80B5184325016BAA0840C0
:101350001B4CEEB8BA646DC582BD980140B44B1603
:1013600063C711F3987F5736039A75E4CBA2FEB397
:10137000FA666B6630026DF53C984E5FBF1211F74E
:10138000DD2480847131BE5A9B6D60AAF31188738D
:1013900069BCA112266AE92084BFEC5B7FC07F9400
:1013A000C853EABF44BD1702C004713078357F09C5
:1013B0000111026C226FF87F0904E024E0E0440C84
:1013C00081F9324110C0B75F4527D9B4B010D7C9F1
:1013D000FDBFDFA001B0201E087303E0803DD007F1
:1013E000F120DE8B0F03E44B2C04536655ABE8FC75
:1013F000305FF947D3F8985FF440060877A198600A
:10140000CD3DEBFEEA66C0E2303450CDC8C1A66BDC
:10141000C808D61EA0ABB35055B388AF1A7DE5C837
:10142000FE5E451BF7B57A51A381667B4106C40871
:10143000F6564AB328E330FD4B019B2C0CB0616695
:101440000465F1300589B408F12B864B19684D60AD
:10145000AF38FB31A3FF2CB3C7DDFFF8FB207D9530
:10146000DE857F198CC6F371D1A8E00668D3278981
:10147000F32F196189FF9DABE4405FECAEFA282A97
:101480003166C63990FFFFB3E63AD2C931C47DADAB
:1014900049A3A3BE3197F0B8FDEFDFE8F9A8D0D596
:1014A000C60C1DD3E0CD665AA8D8F8DB0D33EDF994
:1014B000CCA44FAD18C5D3E0B12CBBA408FA6197FA
:1014C000DE3273678DD3F4FF8A2F3340232EDF097A
:1014D0004FFFF67818F9D0CAD848803AB431F38370
:1014E000C71135015B19FCFCDAB772CBC575611009
:1014F0008DFA9920D36E75DB8881ECECA8FCF57928
:101500008084C6257FF70BD8FF2CB70C4FA870D36B
:10151000C6CB19ED858F803B546C961195FF80D614
:10152000FE5A1B08D5F3486366CA25F432317F4B57
:1015300017E26FB724CAB0D3F51610B892D1DFC046
:10154000871BFE5F40D3DA3AB0FD6DAF80024BB32C
:1015500057FD0CB798D80A2CF928F5B320CAFD30EE
:1015600025B3F901C6FDA92F40664BE6A89766543E
:10157000B4BF4520DD379C80B9F3A0C00C62963122
:101580005E73B205105B1C77B8092001089009E36F
:1015900004BC678ED96CD670FC8FBF5C2378B2BE5A
:1015A000E858F28964BF6C1502FF5BD6F8E4F2B22A
:1015B000B2BCE24D59A44189FF840440716610F821
:1015C0001AB265762BDB719680D9467C39C6302EEF
:1015D000D70D7D7F8D7E0D10C2BEECFDD0FADF08E9
:1015E00026C35D3FF956FCFF7F6CD60237EEFCA8A0
:1015F000FFC6BD160261421C04E552F999D64DFDA5
:10160000F3BC20E9C27DBDE3B350A5FD9E8093C429
:10161000F7B669AEA8081040C74C71FFF70D98FEE9
:1016200008ED6192ECB8014FC7F414F6D80920CA4E
:10163000749D20B8FF7A625B2E5BB9617E6819C821
:10164000B3C616820115E9FBAEB66203407F984728
:10165000CEACAA20D3E07CECB818FB67D6E5203DE1
:10166000F63E6A5360D419CBCB670DBD4B90A3FBFC
:10167000BC2B379102988D68B3C070FD6090FFD885
:1016800089FE59F6D42D9734FD68FF3261C2268059
:10169000CEFBCCFE85C10D1998B1FB1CB6FCEDB399
:1016A000218898E4D23ED894193010651861C1544D
:1016B0006B420408627DF3B904CFA0B6FFCBF2758C
:1016C000BD048FF6C902C412B209FD966AF8FDF195
:1016D0002CAF25DD02208B77F0A8FB01897696449C
:1016E000F17FE0631B01765B9CADE04800B3A3662D
:1016F000D6261223C1E598B26910F3943D39A82B80
:10170000B32DB4D66502A6D32C69D980403BC9B3AA
:1017100002BFB98CA5FB8004A6C6A36E827AA9017C
:10172000C7751804C608401282D3D74640B9B249DB
:10173000FC20F4BCB0DF4DBEBB0612B9E20465F379
:1017400003FE896BFE80086A789810930C1E05A032
:1017500014048BEBDBCE02085D57AF30CE27DB02E3
:10176000A071B4C0030AA4116DF3F040182C5445C5
:10177000B141786B39808AD00C0487448980149BEE
:10178000CD44439655FABFAC9608EDDFF946DA2F03
:10179000E6E4DFCC67787062F2966AF9C0C99EEA27
:1017A0002F6622F36631A27ECB2708D7C8D03DE34F
:1017B000F3540620D866105BC6CC32D1DB8CFF1AFE
:1017C0006BE583B7986CF29D40CDF3819BCFF0FC25
:1017D0004EB365148C10D32DB0CCEB532CA843BB67
:1017E000A770F8049DF74998FF0819783E28B8803B
:1017F0006BBE76F30E165F1E04F0019B9AC937E9A3
:10180000B0F979E01EE6256E487BB70282633D178A
:1018100046DCE71B1C83B21D1219B6035AC6F584B9
:10182000EBF924C5B4FE8F652D9AE0DE68FAA81D99
:10183000E68EFBE347149848EAB3C0DDE02077BBAF
:101840008F1821FB37CC6EFFB0D7A3C0E16D90FAA3
:101850005674205AB902F3500BBF32C0B4FA3304A5
:10186000F3FA046359FDB601368C2EE0A615D32099
:10187000F8D34023355CEB42D541681EE2671B0E6E
:10188000704367ACAF809DBD3F289081F9887A771F
:10189000029DEF228D10CD0F0204FC4AB040BF3BE9
:1018A0001B10FD2BF6830CC6F31A3BFF58FB60F4AC
:1018B0000E8E52DB94FEEF6FF3063004BDB320A30F
:1018C000FF217F6DAB84020069BCABC30EF764FCE3
:1018D0008011F8812803265C8CE46546DCF319B797
:1018E000B04CBDB368EEFDE041E3769D267820075D
:1018F000DFCF0EF1151EDF84B00FBD18A8EFFA8000
:101900000169661004660C42C0A96FF318FB720BE4
:10191000DB6640FE54B35824B38286C3B6B360FA84
:10192000BC98FFD74409AB98812B38CB985507104A
:10193000A62A301962ADE6ECFA8B1BD0E9FE945A68
:10194000B106B76650F94066F10BFAA9B380385476
:10195000DDF404636EAC58FC28DC75FDED9180C0AD
:10196000BB3F84617F7DB1DBFD8005A7EB7620F76F
:101970007F80276726BB18119B13608C18F64A18C6
:1019800005C4DAE951FBF39857467810033AB80CCE
:1019900090F7931EC0035B35630B7D1E15F64BFE5F
:1019A00084D57F082866FC9416068643B6A904638E
:1019B000066628E9DF23F9E798F4C3EBB32C04ADFE
:1019C0000D96B32E3066B11A46E938FDDBC898ACE7
:1019D0008D0F393040AF10C026211185BF7DCB3827
:1019E000FFFC3F4FB8FB780B4FB659C8FADE98366C
:1019F0000930BE98B002BFBBAEFA2455F72193EB75
:101A00005A024CB0C0BD63F9DB84096DE36D8CA74D
:101A10007D17821801237C32ECA330112CD515FDE3
:101A2000B78C98C578B618E630C483FF58983C58F0
:101A300067ED08F988FC17DC66D7CB984CE52C6D70
:101A4000B3E8FD7D9810B309D6B3041735B320FC75
:101A5000E698DDFC7F9DF1BD8C4050712B8619C846
:101A6000DCC4F9C16AA72CF83C76FFA8FC40FEED67
:101A7000ED401002B830C34CF2C868FA20C5D80D4A
:101A80008DB8B3C801B004C73EC893FF8081DBDBCB
:101A9000B26002F462FED717906C05082E7DB3B9D0
:101AA000FDE0013CB737A7400FFA9802BC988E6959
:101AB00030F3B7D7E5FE7574AB66200C01B2660251
:101AC000C32D6C156BF986B37002C858B38964B323
:101AD000C0E8FADB040577F240806FE7987E700873
:101AE000C5BA17B803C5337BFE64F93F85067C2968
:101AF000ED6EB8FC75BB8AF9988B971618EAA72B80
:101B0000CAF8AD7EBBFE02647A980346F5633CE1F9
:101B1000628DE45AFB72300AD50D846DE89858370F
:101B2000A0AC69B059B304629DB1EDF8E041FC98F6
:101B3000034F1E98891EC803BC9876A63C0815E77B
:101B4000C850FBF68801300821EB98831BE530185C
:101B50008A3E66A9F88001B0DF6CE385B30B8DACDB
:101B6000B35851E9B081FF04DA0112FBC52240727B
:101B70001920EF862840F15AFC098AE92C8A36E9B7
:101B80002CF85FACC508CF6C6E30202BF79810FF97
:101B90006079BE1A266C5314562FFDF3E018D5AFAA
:101BA0001C8A36E9F8FDBE5DB788FD4742AE52C8D3
:101BB0005F34C556B3422866F7DBF98005F230186A
:101BC000087B6004FD98C64DF311237130C6AF2B1E
:101BD000F63229EDCD21FCAFA1981EACBFC8D49838
:101BE00001F3DFC083ED980C108AF5B18A2DE9F07E
:101BF000B97D18647AE502DF25C8FF856D66CBF8EC
:101C0000ABB358086CB38217C7D6B31A28E9CB8890
:101C1000FEFDFF179A5EFA8841E51910FF7CAF09B7
:101C2000319862B4FB5F14F54BFBBF5B67F89877A4
:101C30007537864DFF48F8AFA19810255F02AFB603
:101C4000981080A6F32DCB30C014ECE7FC8C7BD52C
:101C5000660869EAF6225EF645F36306192B9E2EA6
:101C6000FF8401D3D69804DE989806F6983C23604A
:101C70000C763014EC1801834FB600F925EF980666
:101C8000D083786359C8EC1ED00349E968D9FD8830
:101C9000FE9877B6B8036037E09818A2B3FCDBD69D
:101CA0004B094FA04B9C31C5B31A8A35B310FC9A2F
:101CB000C84252F752FC41BCC1FCC5C8825F2380B8
:101CC00040C5F3C880629E98DB98FEE9DBE6FBEB3B
:101CD000F4020C73C830DBFE608BE1FD6CEDC810C4
:101CE000C47FE90862BC30B1804DD232FFFB0AF2FA
:101CF000B236C6CDC848B759E08676EDA3425089C2
:101D0000BDB3E2FA8011FCAED75020EE7F4CFDDB74
:101D1000467F722123DD6014ABAF126512019BFB7D
:101D2000324313EA64F398F77B0E5E98B520CAC875
:101D3000EAD1F398B2C8DBFB7D10022D6606B1C86C
:101D40003FFA32E0FE8001FA460493C47D9830B534
:101D50008059B35082B3E0C4D7B3797998CBD69881
:101D6000332FC815B348C6C125DB725A14F698D86C
:101D7000FFC738AAC50CB3577C32E8FA20BFCF970B
:101D80008F407D329CF3671AD180E0628CD398FD3E
:101D900006090EFF98FF24C2A3661C6C39D8FB57B6
:101DA000B68040189F66FB7F807D32DCCB734CA1F0
:101DB00058660B14FECCFE0888F8B1F373FCB9DC4E
:101DC000D18CC4507EC5B5DF085F32608DF5CCF68E
:101DD0007F1CFDD39FFBCCFB738B041F59E5FD5E7D
:101DE0002B0DA9AC86AD9F98FC825F994BDFDA6B17
:101DF000F42D59617BB308FE65032E61F7D9CCBC85
:101E0000DB77988B46C6463077B2C578FBEACD5B68
:101E10001B022CDA20DDB153FD5153B06605CD31E4
:101E200071029FB8E70C3BB46051E2B3B1A14CDE44
:101E3000CA01E2718699AD98F0FCB2E728B642F586
:101E4000F422DD56736114016386757FBB1794FE1F
:101E50000210DBA30D9BFFF8FD14FD1B01A1908573
:101E60009FCCD8C5FE607F62F916D818FF99968678
:101E7000BE9879669BEBA4800D06B47CFFC12FACA5
:101E8000643A3325CC193358C904B6ACAF20DFDB34
:101E90005C80663F01C2E59D808287D9CCFF3561B9
:101EA00098670D90FE82A16687FF8036B3FB7AEDBE
:101EB00088C3766690FFC19D1910615F4018D811E4
:101EC000FFB1D0862B661805A3190FD6B310FF12E9
:101ED0000D182172B3DAD0FEE67C0AC958EB20F760
:101EE000ECC60853DB9758FF2376F6A08AF9023038
:101EF000D3D1595CB7FD1B9211010F755F582C1996
:101F000032D515408A7230FBCB58C20277ADF9D07A
:101F1000FDAFECE6101000B479A8FC4840B7623F72
:101F200047B0028DC1206626F1F97B01F5ED509C8A
:101F3000E1A301F31BE8944CEFFEA028FD608301B0
:101F400036FFB2757F815070B564F3B10544B3D2EA
:101F5000DE48C0B38230CA7BE930FF8040621F0C8C
:101F6000F7E4740AC70802BB60D6D4092DFE330219
:101F70002005C4799DD896F9B32BF6F2170EFF838E
:101F8000D0F9C95B90100CBC6601521CC2FE7617DA
:101F9000F8FE1079D786ED64ECF889FDEC86BC7DFF
:101FA000B6FB30C041DE9450FBC12F76E34A21FBE3
:101FB000E310FAFF2B0BDBB3E0FE30BCDBCE46E0D8
:101FC000728C2DCA7BF3986FB0E341EE17B8FDC554
:101FD0007E8CC3FCDB2E10AC610432DA91F34B052E
:101FE0003CD8C82020ACB3FD95B840BFF6CB100854
:101FF00027E6E73A87DAA8F96D42B3DA082449B050
:1020000002A982A09DF3300402883EBA8040521893
:102010000226206896F310FDC3BF0CF69C989D64C1
:10202000B7C0ED6A3003F3639F21433FE862018844
:102030007B7658FA620B843094F860FD67F992124F
:10204000EAFFF00610D059B84BE0185FB3E35DB378
:1020500044200A0C4FD6A093F6A8470A678DB1E535
:10206000426C6F2B21BD261065BD3F302178FA9858
:1020700030AD51E955C0045F609E12FB499010C419
:10208000796326F8A0101809811322B3446AEBDEA5
:102090000B6010ED0AB8F8165F40CA391C5739209A
:1020A000EEBC7959F33CFD359C01BD07920F16C07B
:1020B000031879F3E3FFF37144C1D3D970FBBF7FF9
:1020C000A010B6AE3FA9EC72EFC87F806E1806A4D0
:1020D0001D181083CBF34165E962E0193650FD62AB
:1020E000B3103C01AFF377EF8260412CE001E4B321
:1020F000110369401E581403A396F365CB60EDB33A
:10210000228899EF98A0013480BB06B76208FA983C
:1021100080CED7E82808359B804318C5E8E0B64B49
:10212000F6D34FECDAC8F9C68601305F39EB980177
:102130002DBB0C6AF8A20633F26232E8961980FDD4
:102140001766FDCC7F9F30202FFB05D10C677A43AB
:10215000044DB390B0BF2DAF0156B460AD28FE085A
:10216000EBB3147F8BEC16AE12F4B1136C08C56799
:10217000717A7AA532061244CDDC2E40DE0F24F7A8
:10218000B3323AB19D460120C2CD3861817A98B010
:10219000CF4FB321B722A110B4186CF30901BF01CE
:1021A00098B8B2F9BEE4BDC50C8A88FF5F9818E6FE
:1021B000987793E5E09007180D1E04E6F3CD9E0393
:1021C0007AA3C028FCB3043E7FBFE1C05FAFEE033B
:1021D0006020F3983D660138DF06A00D4D66486724
:1021E000D3D1F859B3FD1319511906A5C1A043FF66
:1021F000A36CB36FDD5C85057B984240B41A5BD35A
:1022000044AFB3816DF8B0FDBD98017AE00438BDEC
:1022100002D12875F70D1F64249BF57EDE04118220
:10222000143E18025FD3E673FC6D1781245F1DB561
:1022300058D3FC6F0FC53028DA59C6337D101E06FF
:10224000D0D3DBCC7395D3C8AB19200668F83EE138
:1022500088078240BBAE1869B6877FA0983D6006AC
:10226000B025D370C6D34E57DB3B6810A0F88F362D
:10227000E38A47C202814070660774D5B3F3C96030
:102280006D4681424804CDE422D388BE771E1420D7
:102290002F9760FB32BDF5037801FB930905C00859
:1022A000BFAC04320C457DCD70661001283026A8E5
:1022B00091BA73F780316CEAC74004FD8291300215
:1022C00020FCAA8F1ED16601EE0C8004F79883785B
:1022D000107F1923AFB3F18124807F8B98835DBD7C
:1022E0003C7619FE400BE0013C2090BAB1DF6F391B
:1022F00000665D66FB1261B943101D9FE998285284
:10230000BDA2B62064FA98405D1CC1DD9AFD7FB77E
:102310009778B9AD02C042FADD1360D657FE98B582
:102320001470F88A1112310740E6186668B5D89122
:102330006AEA032012C84C84F076406710309EDFB2
:10234000B011E7C5F13088E7828204DD1218CAAB0C
:10235000025A93013C3120040C8155FD7F88FD9A7F
:1023600038BC3026D859D9F3026FC28CED8EF42ECA
:10237000B43353B778A07966DB096BFECC38080517
:102380005AD2F717400C676E96680428C07EB2D9FF
:102390001CC09E98A21091F598E899CE7DA0088661
:1023A00002FBCEC919DC046E026E5EA1116C153AF7
:1023B000C70A22DB1C6FD1140CCF36DCBAFC58B331
:1023C0009B663605979783735D50B06FE6A0C9C9C9
:1023D0005066FE16A410980488608D4A86E23C423E
:1023E000BBD430D906187C305E98F73C8804306541
:1023F000F5FE98963C79A6BBA87BE41E248003904A
:102400000506AFDBF97A9872B4529BD3B0F863A299
:1024100037D79860FC72066FE37F81AFAECC4B304C
:1024200008B629C96224921BD9D3C9BB4900F62634
:1024300002C048A4B35C66B3FF88114F42FE484017
:102440001A4113690A5B3926EA11D32C9DF9123817
:10245000FEA78A98A7204CE113B0B0D1A708F34893
:102460000C203DF2849004A985AA6520B4FC2710B5
:10247000180A34FC08866467C8222026DFD5708FCE
:1024800066E3386F2F4CBFC1C2D838F31B3966865C
:102490009C01E00604A3C207F63CCCCEC830FAD1BA
:1024A00019807AEE03FF5D98C2ADAF6010FCB96A87
:1024B000D1B78AEC64290599C81CD0BF186DE1BE5C
:1024C000DCD1D3187F0A7DDBCBD57F3B98E5BF6B92
:1024D000FC30B70AF39F56B305102E16414EDD2788
:1024E0006824DFF7CC408FE168213AFF46D1899B11
:1024F00023FDF58C410130CA304870CA60020CA03F
:10250000455A829BD06BC58209A62A8E1014BDE85D
:10251000125CAA6AEAFA0B41240C026F3A78FB5D5E
:10252000F170E3A5F00F69C7303D4678100F64895C
:1025300066C82460169257121C3DF36D99C818C6E0
:102540000131D378FD5B1266090CDBCB98AEFEF649
:10255000AA3088DB567F04FFCC766CC814DC9BC89D
:102560000E0CB3E89984FCCA4EB380ED08021AEA57
:1025700062E703408110B6303737FD94117FCC48B5
:10258000408D0A03CD09201189B8B3AC2FEDCA10D4
:1025900090387D0528ABD00504B588E43004C4919B
:1025A00010B712E3845F409809FD82401018026062
:1025B00019E059C872E0046D17FD8C86BF04908F36
:1025C000B636BD32E805E0E8C60D664BC83A45DBD5
:1025D000FFA8F1B7F5ED64027998A27120DFEDE96B
:1025E000DAF82980F5981679AC19DBDBE3DA11F912
:1025F000F905AF9798ADA542009A1EFC0821043B4F
:10260000376B77589D124413482824AC04B7C8E3AD
:10261000944FEDA43AFAF53423A10166731DFE9898
:10262000A21074D58F0A9C19C00529DD02A1EB9870
:10263000228DE0B85F74A12C044ADA1AFD76AA4014
:10264000BC98EFAF3C3F988130641840F335C630FA
:102650006219E00BF3C81277997839C8EB18100F9C
:10266000C1F5EDD8FBC83DB386669905E5F383FE59
:10267000B88A11CDF0E52ECDC8A17A9803CAC8C892
:102680003742BB6F100BFE7CB5E7EC2702DA7320F4
:102690000EEE5C1005CC2FB3CCCC12B340790A8D72
:1026A0005C6BDAA005A6B213D380EDDAE310FD323D
:1026B000761703BEC8FE3B3DFCF50B68448FF33430
:1026C000D98202BB95DD0820C430FC779178A3A1A4
:1026D00096AF2D30B8732E407966A65EEEF3BF211B
:1026E000F65988CB66027FB501F298D35C3DFFC8EE
:1026F0007F5EB19BB50362F6053225F360E68DFA85
:10270000136DF594FACC07F598807998EBEF0642B3
:1027100048E230CDC8F0717DAF4DB1F00AEDB24264
:10272000100D0CB3117DCCC63A66B942041180DF9E
:1027300002483C4024C8A328B35332FD55E869B28F
:10274000E397EDD31724EE1009B805380D6020FB90
:102750008933BD1C84AF11BB32983088206F5C9DDB
:1027600016B9F50B44242C9DC80470A7974B9AA565
:1027700067F5800C1B05307764B17A1CD9160CBC48
:102780003059D5F72C800191F9987A8B416F430726
:10279000F3984E0330A0D9F9085E1D0641BA645F74
:1027A00033C77D71309AB35BA34866A40EDB96F8FD
:1027B000306DF3027843866F09FFDFA5B1E03696EE
:1027C0000520BB09B960EB30672B19A0AE04F09867
:1027D000BD1361140DD3B646A7A81E44B376502886
:1027E000FCFE985A0135D34595C8F70964C8EC5FDB
:1027F0000804FFBB00DC74901812477C8C3B11C7A7
:1028000094C6200CA2812EF598F9BF919822DD2460
:1028100059C847A89BF3FD8093D45DEDA544E1031F
:1028200097E498D37330F0FF6CF247C429B33C03AC
:10283000208006B2C888F2A6DC6FF4FFC4B5B4F5F8
:10284000987195B2C463FFEDE3D8FD3D982244AF83
:1028500016ED808534570C20ACE902DF7698280409
:10286000019E98E6030822D344D99504DD02219203
:10287000C866DFD098A32F14CFF5460288F0180160
:10288000236192BD30D920186A7BAE8CEF0626A258
:10289000CDC8449050D690404A50C4EB172BCB98EB
:1028A0003CF50C8807F7F31EC8037350403CDA2050
:1028B00007ADD10312F868C9FDB449CDC84191CB29
:1028C0003007B3C850B7FDF198FD6FC35DA9032E63
:1028D000B65A9C80F37CD8026A6647E0FB98036195
:1028E00070D376FC305EF65F9F6FE798E9507CF915
:1028F00083532871B336D74830DAFCB50866B3A4E1
:1029000081DD46364012361368968211DCB634A259
:102910002086E10268FA31B5FF049FE7E4F546FC42
:102920007E67F746DCFD2BAC8FE323E26538F3CE00
:10293000E5CA08E6B5C6A878C6B066486CFF89FE49
:102940006C66CE31D1C6D3BAFDC1056E02B441DE8C
:10295000898AFBE3A05FB1EFF3CA5D33BC4D66FB30
:102960006F9069C6CAA6EB79449EB279E088FD32C1
:10297000FA26D813F9207DCCB09B0B58BC4BCE3334
:102980001A7238C7CFFF3FB18CCA59DE1062C2E756
:1029900095C5C8E666C3F3FF6FD83D58F1B3B90DCE
:1029A000842D6150FFA12CC62BBBEF639FE165AC6A
:1029B000DE01B0F91B88FE0B0C2F6D919866ACB34D
:1029C0004027FB3B2FD19808E904F318B6FAF3BF70
:1029D000D23D80E943F9B520F4AE40367F69EB2162
:1029E000D9814664E6CBA7F6AFA7C8D3155EA5DBB1
:1029F000EBC07E673097F30A7B6B2D05159FE94B83
:102A0000A1E38F1402BD043A286A653DD660024CEA
:102A1000376128FBFC25A394D7B75D2441A8E110BA
:102A200039EB319B40DB0439B3318144F09E808F18
:102A30000623025E2B657BCDC04976B68E52681A9E
:102A400072CA50C53F7FFA7858B29C7E7FB8AFDB20
:102A5000AC02FFDACC412FFC02D941276C4FDC10CD
:102A6000040ED9F8FAFF3367F86FB3EA787F86BAB5
:102A7000AE28C95AD70825A990B39FD416D2611F92
:102A80009942EDF320FE9DE6C433E65A790BBFDA96
:102A9000F191F7B39EB161B2FF88DFAB17CCA7BF4E
:102AA000D8CF20E76CAE1844EA5819A1468AB75F20
:102AB00020409A13EAC822CD6CE2A8FE3D3C24FFD8
:102AC000C37E31CA9FEC7310FF24E5E6808459F978
:102AD000D830FC55CB3E082C9BCF58F3186019B169
:102AE0000476E698FBC516D301DE732B438FC50D24
:102AF00063026388A90C16B8112C66207F4D1A79E1
:102B000038F9615A1D80F14AC81C4B201160A5702C
:102B1000F830486CFF98FF29FB351FF38A153FB347
:102B2000ACCB2EF68990FCC7F94440611E69C340C6
:102B3000EED8B0FAB11B4079627718201046F36FD7
:102B4000F61054F9328BD882088F9EDA16B3028FB2
:102B50004C6CEFA0F857C3FCD988BEA4D84810C766
:102B6000AD50401B4310FA15F36F753A2093A6AF92
:102B700069449E49B0FF8BE8CD26C74CD9FE47304B
:102B80001063DF2E36F90227AB5B204CF6C3C8FC7E
:102B90000AEB19201059D704FE986CFCBC40C045C4
:102BA000CA6FE333D370DFFB40C3EEEC4872F042F0
:102BB000976102E5939270B208563240B97C8A80E0
:102BC000FCBD12D7844A6B08EF4F88A4FFC12030A8
:102BD0009326DAECD37207286FEDA04EDF60CD1894
:102BE000045E80070190B39A40ED800CB27BFB1A23
:102BF000400198AB1432595450F8E74A6909D9306A
:102C0000987FAE98C0699D0260FA033BECD080B516
:102C10003815FD48042060100E9DC27CA169CC844B
:102C200036488D2080834930CF2A04EFC06942F3B3
:102C300048501C03F358D920F8DC496FF4A9118ED1
:102C400008CE2EE632857F6D08A304DACEF70F1981
:102C5000285E9864FEAC80E44541B6FCF597089F79
:102C6000F42AA70C5716955D4B97C024D842E90764
:102C700031F7F8FA195F54631B9EB34016DB085313
:102C80003C082068C7D88CF8CED95AFE13B1014F42
:102C90005A0182B6ECB0FDE29DBBCB2FD53FF94C7B
:102CA000AFD3ABF8C9D48BCEEEE7B8FFC12F7649CE
:102CB0000C869A2DA1C118C699A5FCBAB17085667B
:102CC000017E5410C47FC30662FBFEB18822B3FBB1
:102CD000C0FAADCF377A58E9428E97E3599DFB96FB
:102CE0006DE67926E8B140BCD85978B21902D01601
:102CF000C9EB643F8C81FE6C6FF8FCA237F32AD7D6
:102D00003810F1E5FC9D67695DE1E79E2867FFCA21
:102D1000A8FB626B4AC08C72FE3131DCE57210D8C0
:102D2000668DE5C78D7AE720CF587CFD93D90243A5
:102D3000638BB402D6C504E814081D4CA44076FE8B
:102D4000F8C53DCC036798BFDB0E400C707B2BF9B8
:102D500038E1C225BC14E69043D36010EC0FE001CB
:102D600047BB6434059B14088808D66F04DFD3C5BD
:102D7000020D7759FEDFCC7F4DD24CA08DAFB30C46
:102D80001DFBB53021AB66080C76B6ED78FB24D878
:102D9000D806C8E21912E4FB0FDAFD3CA0F0785D1A
:102DA0000EFB747039B3306DF62B3F9B3F0C71D323
:102DB00066BD406610B3FD97B312EAE020C7BECCF3
:102DC000F5B334B2B302FF8932FE0D88F3670240D7
:102DD000B190BF5951029ACB7F5779AD98ACCCB323
:102DE00077ED8EFF6210627E98799875FE8A187F63
:102DF000B79EF4F6B3145DE9602003DFCCD8E1FFA1
:102E00009FEC56115D5C04625E98DE400482B3EA7A
:102E1000FF32117A680AC585B3E0B90A93FE320120
:102E20008C429B6682FF14F39817F5E53CE642C698
:102E3000F3AE5D78100FEFEC7458FE53ACD55CB375
:102E4000F573109C66BF10DB9883F911D1E69DD80D
:102E50000408D9B3B1E2BF8098B90D8228B1FB3F15
:102E60001698D137EB98123BC0985D0DED98B0FFE6
:102E70008B65CA8D76B508C43830E5FA509C666318
:102E8000BD65667898B6BD5DB30EFECC18FD04C472
:102E90009B1842530AFC98B830FDD896FA9BB301B0
:102EA0006062FF7FB202456EF3AA6714FFEC32F84E
:102EB000FE2DE330FDA51666FA9818D39D3048FD27
:102EC000089A86BD08E383611FADE530FA18F666FF
:102ED00080FBC4FF3920B0238FD64B34FA9E7F3657
:102EE00030A8F916E6C880CFFBA0DA564C24F69835
:102EF000C8FAC47CB8C7364DC6390F10672CB30862
:102F0000E37F0933A80F7FECCCFD4B20C8318D3314
:102F1000FC3DB6056C037FF6CC22FF279DC8080B4D
:102F20008B2CB3B0B5F211B1F8FF32D890F99FB63F
:102F300098C08031E69859D397ED98E0FA85B9C8E2
:102F4000B1304FBD6A6639B3FC97D3097CCDB0FB75
:102F500088B3B29BD7973004FECCD8C4FD98822C9E
:102F6000B12CF59882F9C8B1904F589808DF183005
:102F7000B99789F417809CC2CF3498CDC8F07130CE
:102F800088FB9840536127AD9812BA2FF70170FE65
:102F900004623E980221C6393001624EA5812C425E
:102FA000EF5898FEA78098616F9F989DC8E8FB89AD
:102FB000703000F6030111FAE510DB8F2FF698C888
:102FC000FFC4903908EC2324F54B02AFC1807FB6D3
:102FD0009818F977EC9F0632F0980FCEC83CFACFDC
:102FE00030D1CBC59819CD98D0FB89FAB7C0C73C72
:102FF00098CF5FA6209DC8E9FC9C2FBF02AC9373BD
:10300000CC98FF5FD8049AC8B2FBCC3CB3B830C6AA
:103010003D980967F96BE79D366612FC77AC980816
:1030200077CC9849F318E9400302B3B0D8FF04976E
:10303000C79BB08393967D08D9C87B665BF8671AF7
:10304000B86E2903C245B301B7DF69EDCD38FB9DEA
:10305000FB9F09BEC8C22F5298202C01C8F5984189
:103060002CF9F950CCC25F37983F8CBBFE10FB1691
:103070003180FF519803F3BF5F17EB98B83F977DFE
:10308000042CB4426FCC98F6F36822FF5998E0EB19
:10309000B3024D31DD7CB2C8162602F9BB9760BB86
:1030A000E6C8FDC4FD98C8610FAC980F8E752378F3
:1030B0001003B3E312FA6E966DC6B2137AE50CDC18
:1030C000F36F66204766F8672ED205FEAF098BC204
:1030D00035B33493F403B3D8A8FA97F638026131C4
:1030E000A131D92B3C0475F401EB2EF91EE3503DC0
:1030F000E006629A574DFF98FC8F65E89DFD5F8062
:1031000007BFCB09F350862FF99C1980FDC4B3C8C3
:1031100011B388CC51F5950119D326E927CB300698
:10312000FFC7A36C816777A2300AB603255C190A32
:10313000AFF132802C93DE50FB6279C8B3C87FE8D0
:1031400010B602767D3C80044F9A98A0F570730EFD
:10315000E281F9F0B3FCBE05CBEB6365C650BAB3B0
:10316000305BA09B89F23060D17C79B3FE8EB37660
:103170004688022061661B11AD9302CBB3ACB185CA
:10318000B3480B5FB31A33FFCCB3DEB3D11CF1D815
:10319000FB2099CF2C10D2BB402CD3E3F338C2CD07
:1031A00004E0D8F3F1E6B380FAC10DFF087FF659C9
:1031B000FF241B9966ECD3FAF9461C1B71FFCC4027
:1031C0000270B00D58FC89FCF9162C666BD7F1FD26
:1031D000D9BFDECCF54DD3A8FF9DC6307FD942E4E0
:1031E00017B16775A5E0673B21FA20041F84CCD195
:1031F000D318B0FFFBEF3C5A078020F9FEB0486CB3
:10320000FF98FF08D3B37E581088302C666035587D
:10321000B3F97622667F2844FB6245E0E6BF149E40
:10322000ADD45E928E20CE5A6664ACAD027CBCB347
:103230003C0868F75AF4D74209B64878FD26411E83
:10324000023B0B170F016B8EB8FD2CCA11C5FFB3E3
:103250008A76D901C2E3B7966C38099DB1607D18B2
:10326000B35BABE7405CB0C844DBE345F99081D386
:10327000F6321FADFF807EC5C385B3049D95B1D6E0
:103280006406F7EF7F0458B3FB158B19200936F15C
:10329000CFDB9639B3147F6C8C402DD41580060992
:1032A0001FCCB4286C357CF94C3EC31F2548CCD8C4
:1032B00087392E67F22FD8C1DBCC4B7F766FD808C9
:1032C0007F7FB5206C66FD083733BDD4C61819BFA3
:1032D00001D4CF40FE46FA8AD98058D602C7AC4303
:1032E0001051603C81FD03DC0106E2BD439640B90C
:1032F00011E982A242F3589C04D7A30304B24F639E
:103300006C85F0FDDFA46FEB80C8D828B2084DC4EF
:10331000968180579B533791088836A9E8F90BBEF0
:10332000E5728481E30D1FFDD110B24340F65E507B
:10333000FFCDFDB324CDFB1240855EED6FFEEFFCAB
:10334000FF02C4D6E00218FB97803096FF5F08EDBD
:10335000FFC9FA825FEC7F0A121BB3B0FD14F51DA2
:10336000018DEDA39FDB16014566FA815F967B0711
:10337000EAB320CEDBE427389850FD308820116472
:103380001002EF7804F0802E88FC1040F5F360689E
:1033900084FD08340688F3F92011C0281AE4600877
:1033A00001E043C62039C75A50EBE9418120D1B032
:1033B000B4FCED0A80E6FA1269BA24D410D4565A45
:1033C000D008EEE83378FB79EE608A06C04018B981
:1033D00002E1019A30F380583103AECD61D6406FDF
:1033E0002960208203FDA271FB53C60CC81038B8B7
:1033F000FE60F3988BE5EDEE8F5C31B72D6692841D
:1034000080CF4465DE02901B5B77F94881FE09306E
:103410000218FC809111F2E1C02218FE8360828CB8
:1034200080117C9526C42458390BD2A54CDC09891F
:10343000E8FE8D9D233FFD8C82853040A10687F1FB
:1034400099617A04E9FD0A80FAE0013C745D5F1E2F
:10345000C00378030FE29C016607F0E8F3C483F32E
:103460006C843C44B582E0A4D37AA1E0C6F3A00406
:10347000C6BB704087F3A9FE805FDC296609039212
:103480006006F3BEECD8F376F530102666EB201814
:1034900008F7AF0C11C6662BD361532F41F3E0B48C
:1034A000FB59B344CDB340242CB3204B9EC316C06C
:1034B000045096D382CDB3501017C6FCDF3021B82C
:1034C000FE05E7D20142AF2094A5F38819DF59DD4C
:1034D0000921FBA5013796870888F3423A6068F511
:1034E000660479981357C1414D77B6337CF8F9E1FA
:1034F0002DEABE2FD7F2300466DBF6320CDEE96A25
:10350000A4779EFFFD49DB107768990728FE717943
:10351000C9EBC0EA4423C9444316B960A4306776B6
:10352000C504D197187FAD78603D98189288FDE763
:10353000E7F5A1FC2468DE7A2401DBC8C5CF3A4751
:10354000D820625F7FF5C008104996F1BDF3377C43
:1035500041F5BD7BBAE2FCF784913002740E4C4316
:10356000600F0C8811310F26C4F320180503A22C1C
:10357000198AF4FD0F2840080B35B34CE89806EE85
:103580007B13136204209A3ABAFCF2DF2FCD60A5B8
:1035900003783BD7D2907B98C083E678200FEB3C32
:1035A000C4CEB46CE003798F6B98D003D498E23723
:1035B000E138FF883BEDE6FD98306BE2E51DEFB1A9
:1035C0008B421937FC23D3F47F61ABCBFF3143B37C
:1035D000FD4BB0672FB80857B328F6F9400AFE4BE9
:1035E000BB02F9758845F6CAA0FB13518010D82993
:1035F000FC80F30201711578EB23F2041DBF1989D9
:103600009A125FB2C06841E3281001A4F59A4733CB
:10361000C7A409DCA8B2F9BAD9E0866D177E427159
:10362000E189111BD8BE4BD6D3C8A3D8F5EE48A765
:1036300000305C3D2D50FD98045E983AF3E0413334
:103640007BFC9886CBDA8889B9AC092916E48476A4
:10365000DDF6BDCEC0FAFC3004A3E2247F2F980C27
:103660008B82C0AF31CB0E2FCA579818A4A514B8BF
:10367000069E6BBD419E503BD3F0F9F8303F2418B5
:1036800001AFA3FF8C8411311246C422E3580043DA
:10369000074C9142DE988A66261AF4020BC8F88C11
:1036A0003DFA40467EEF050B60228C10BFDC707740
:1036B000979899C51E987F2E30C8E42320B1F31E39
:1036C000A364E0FD9820940F83D3B901F3710DFC3E
:1036D00030DAF8FFF1309FEE98100C406CF3084F91
:1036E0005DFC201810AF1F10EBE50857C620F0FA5C
:1036F00068B3B322FD98012CF38F5A9814AFF80ADF
:103700006BB30298F35508B3297BB310017BA60570
:1037100031E00290F87704824064C89850F62002A5
:1037200092EE22EFDF7469DB384014F5E4037CBAD3
:10373000E5A02030C864C8A5FE042DDC52DB7CFA6D
:1037400066C81001BB6FFA9B08238FB42FCFA5F377
:10375000B475F34193E736F2308171F960FC9B65F3
:10376000C8B7AF98062F1668B86041E6CFDB96F76A
:10377000C1885E784B610DCBA2C85E8741B3DAF198
:10378000FFE4C8B691F50184A3C81101D98008FDF2
:10379000B147DA173CA39840B6E6309850E325B716
:1037A0004332ADFF2FF6CD7F02A3A37D8C7F7F092F
:1037B00000E0C22818C293E6440C42F304C45C66DD
:1037C00046C042CCAB233D4C3C20B02A161AB85C14
:1037D00064EA5C7AD5B2FAE041F6B2B020B96A7810
:1037E0005C6AB3413C98CEDA4918ABE0F20FCBC823
:1037F000BD9888DD0702ED5E7020789882AFD7D63D
:1038000098204782E5BFC1D7E5207898B6F0E33D20
:103810007FB27FB910312DF3B843E53C53AE6D7BD9
:1038200004C5B346A7E57504F3B699AF9B414DB304
:103830005810EBD308FD9898A704F3288005385C4E
:1038400090FA1B048642D3F57A207B0D06101244B1
:103850008B298B31F6A0C0BEEC2D5B7E6A9F631076
:1038600018045A200369449780D2F225429E6B4186
:103870002DA28577F9D8F9E97CBFD7E9DB1FA52F01
:1038800008B1B7AD964A57F8057C0FB2BAFFB7102A
:103890006EDAE6A8FF403310E343F72680BF81507D
:1038A000100612CB03BC98CCF352C7BEF5C0400E35
:1038B000C44AE116E330F3C8C07F979879B9E8FEAF
:1038C00024E83AEEC04868D86024E14AEAEB1B29B4
:1038D000F304FD980368BDB78420B3E0C23F8304BE
:1038E000B6CAC82FD07D5704300268FA29D8068F8F
:1038F000980A0B63790C6910B05C88CE1804F32128
:103900004CBE32D8BCD4279D573004163362110305
:10391000B38CDF0421F37F8C63D060229DEBF8E051
:10392000F9CB989E30401EC483FE7B303D8807F162
:10393000F2C81F0F2801DA3C20AD19808B11843D9D
:10394000E05725E040D37998A7263070D3E44ED3D2
:103950005CFD88B681DF853051BF1F7DC63021A454
:10396000ADE02D58383D5D63E6984E41BB5E4B2B74
:1039700026742919ED9B12ED0571B30C25B6B39B86
:10398000E4E5B3772D30503830D7CF98C8C8FF055D
:10399000B110C8FB8E20EF9B77EC61B424B93042A4
:1039A00011789DD7FD69ECA3054B9330816F02AF71
:1039B00083C75640F520100584CC391A5104D4AC85
:1039C00024E59B54FFE49ED0B440FD8C889E1B7A76
:1039D000E804FFA13FDCB85C8E64809BD778FB9C39
:1039E000A5F471DDC703F9980B1689BC98D896C861
:1039F0002EA99BDDE018F2A8D7B26408F6B2C886FB
:103A0000B982FD2509F9C8870223B809715B4E7593
:103A100077FE98678CFFED848DE0092E6647652060
:103A20008484800EBB3FEC110405B3FB2EE6CE95DB
:103A300028984DB7932C73230206F9C8885800A321
:103A4000F1FD4C4801308204A907BF93E5D3C204BD
:103A5000DF4008CE3030801087ADF32160E3014CA9
:103A600004FAB020C9FFF5A50865C8FE98772D3087
:103A700088F83065DD3C7B9DDCB13C90DFE080E682
:103A80007899C82792F30272BB40C65E05FB5AF2D2
:103A9000F23083CCD0150EF0980D8D66C919D3C4C1
:103AA0004513F4CFD37F611418805FD3CF23B3F9CC
:103AB00080517ED949D9C88E4059E000B31B9B196B
:103AC0007310602434D328F335AF90B40FC6830548
:103AD00012C6A0FCBF49CB98E1B20D80D7A109F076
:103AE00009081817003077D8948E6F2E90C9C897A0
:103AF000D78140F3549026B31A9A43EF41F1FDB2B7
:103B0000D9D0FC39A465283041FC8CA28FB17FC389
:103B1000FFD90F80FF6871F8AA2380E323BCE0FF80
:103B20002EB83316D7CB0CF2BDC8EDBB9CC16BD100
:103B3000013C79981290B9FC22EAF8E130F36FB4B5
:103B4000C9D823F32E2E23361635BD52F809FCA60C
:103B5000B2C8EFBB858F30D251C86D060C10370547
:103B6000BAFF2BF8A717F05804F40361118CF3FE89
:103B70000846C08898108368D78CE9C40422E009FD
:103B8000C140FE100B60224C8201BC8B22DFE81189
:103B900064425BCF3FB9A0FDE0013C7FAE98C0F42A
:103BA000A5E2DFF380C73064BBECD63C20F3B3B2B0
:103BB000A8D79710E0786B177A98701014E0D3EFBD
:103BC000F8F984D015ACEF35E531252E2C30DBA883
:103BD000109AD3FA9804ECEBE8A1FB8E1DCCC8191F
:103BE00006FC1068A6D2210CC611C454B346E0B638
:103BF0000147B3045ED4CF2361F3810902E612A822
:103C0000FFF0366F0810DCD120E2E104065116996E
:103C10007A8B811CA0B1F203B3BD78029A0BCE0956
:103C2000FE81443412F8AACBBC0C802D280A05DB97
:103C300096BCDCDB8D9CB8D1D3F68588FD6F6768B8
:103C40000EB2B0CDA14BF8EB7FCB014BFCC531439D
:103C50001C9BC75E98BBC085235891E66DFC7F7F97
:103C6000A57810E0E235C6F5DD0366C8089D54B0BE
:103C7000FA2817C19E1EB84FD83012401142ABC16E
:103C80008B5F8C5BD383D33C104C04372D0A790DAA
:103C9000163C5EB9295E98D758FF695E0A66985D42
:103CA00051C8042CF3C7A7C188FE18012360422C19
:103CB000846DE6214520EFB7BD43300926C0246F4F
:103CC00013D9CDD3858F26DE365E98488232BBB8B5
:103CD000F8B2C8FE5930037C30AF7961B8811CDA84
:103CE00007F62203D866FF77780ED083F96BF9C800
:103CF000AF0E2C989EC8E610A0FDFF1698664FAD3B
:103D000098C2B3BB80ED1088051BBBD8027266F168
:103D1000C5ACAC04B8A8D31BF4FC0389C6E6709DFF
:103D2000FAED200465C8BBB308246DE53E9DE802AA
:103D300004A96EAAB304D4B3D7D798A07B4B580478
:103D40005E98FE088801021250F9C6F8A7CBDBE3A3
:103D50001F6DFFBCFF346FD7EC3FE3F33BD6B528B4
:103D600036D3C080FE6090FFD898FFD9939CD16372
:103D70008D39A3FC820A6E02D7782AA9FA2FF32B79
:103D80000956C9207FD17166C7E8BDE628FE040147
:103D9000C6F82C440989801767FEF708E6E6E3FABF
:103DA00023041F84CCD1D318B5FFE3A430CCC77E45
:103DB000DC59C74BCF806E6CA8E8FF3EFB83257FA4
:103DC00098B4FD14A3F55163666B3F937DFF78B102
:103DD000F973E00ACFB2F5F1912C1940E3E61A2FFE
:103DE0005EB18505CE01A9E49E662C0DCDB12750AC
:103DF000E04C40372E10FEDB9BE402802796DB4828
:103E0000108D2BFF211BCAA7A801EB94F86CA69874
:103E10000426108B69F05220CA0884DF59F340E26F
:103E200061C0969141BFFDB282944004F3DEC8FEAA
:103E3000AA38B7021818094006ED659DEB8052D8E4
:103E40007D247EF705CFFBB69BED1480443F6803CD
:103E5000F0017B66400BCC5849712869FCB64AA931
:103E600010729CC1405407996FC0801AD70312404A
:103E7000448B090662BFB0EB0602A0A5FD5DA80C4D
:103E800052CE7DA8600A58FEBFAF8A81084BF30C62
:103E900010EBE937287A5CCFFC2B087DFA80C7DD70
:103EA000A5C0215EE9B741FB7F6D0280CCAAF51366
:103EB00042CBB0822486FFEC9FB9FCBFB21B4DF30E
:103EC0000C3D63CD94B894F1B2EEA1846F1966985D
:103ED000D7FAB48096C648524C08F101E914D8E7E5
:103EE000FCB798B563D59EE74BAC47014F96F604F7
:103EF000C75A98E1FEED70988D197812DDCE819742
:103F000001F39B991809C65EACDB77B68D80FDC6C0
:103F1000F11899FFCEC5D8FB20FFB23E7783101D64
:103F20008F8AA4E0383654237328BFE538B1F97E70
:103F30003C9436C5B6A13233C9D6DFF88B1960166A
:103F4000167DD3769823BA49226C19F922D8BD6818
:103F500038C73CE4828BAF30E5E34DBDC9919C018D
:103F6000B921F5FFB280BA24DB2CA0BEDAF404AC90
:103F7000CB02B3AFFCB9CC6FA628FD3DC2E51472ED
:103F8000E20A8FECC84BAE0AE9C4BAFABC6EE4E0B0
:103F900003CBE30CF6295190B6FFE3A42C46C2FFF5
:103FA0003D97B2F861166C7B50734D4ED8E698F889
:103FB0002C73ED56CF59FB991C168B192FF6153F14
:103FC000F62F7BD4D8FD63A6BB2E50623FA8D18CC0
:103FD000FBFB85E86320EBEC89D559402166FFB0F7
:103FE000A78CE84F7BCF020457DB10F0FE63ABBA1F
:103FF00011463180083B17379F6C63A0FE93E24067
:10400000C84C57AC177CFFBC98DD9C806E8FB320EA
:10401000B2D81324DEDC5EFD3967E5426FAB94FC59
:104020007FB261743DCE16B3D97659908B48604704
:10403000C9E8FD106E7446FBA99404C262AB250169
:104040002B253FD8EDCB88801CE8A1DE38FB440C43
:10405000BDE5C0826A3FA004DB7B82403FEF93E373
:10406000D7B6232003ACFB3B200802808F9E1DDEC9
:10407000EF74FBEB70309A79120AE3CFD36606CD6A
:104080000930F82C2C61E5B34071AFC9FD50D8CE92
:104090004003B20DA081C67CC80A01402A8DF328D6
:1040A000E938FA80F0843FEE4829656015038124E1
:1040B000D0080ED43F8353D04D83182465FDC06DC6
:1040C000087088CC8022C990F13D201E280C410B3D
:1040D00089D410F985813040927BF6902628F8BB70
:1040E000F528A646B83DFF96AB4327D9ED20667E5E
:1040F0005F6FF36E43817FC077257511A2BE68BCE8
:10410000988FE95AE0206D9A177FEEEC21FBEC3F87
:10411000A9809B206BF15A1FB296CE5BF7F79BE00C
:10412000FCB010BB74F980942DBD0C5FCF58877420
:10413000BF5E17D3635E002C3ECE1D0CF198FE923D
:104140003E28F083CEEB3971D1A16E306DA6965129
:10415000B236F3E0FB4A8480C5368FC7B95B886905
:1041600098CA124D7B17106E23669ED1E76E9C6332
:10417000BA8BDB58FF17459B74BDAE2002044889FB
:104180001BD2AEA804FB3529600228CB5D8F6630B8
:104190001EC756F680575FE0DBAFFB0AF69DC735BA
:1041A00014F8B3F9F6CECFDBEF73F01ED653F8FD5B
:1041B000C6116D01D8B659B7EBD208D90918FBF66C
:1041C000B20CD6BB808BBD48FE94C47EC74CE02D9C
:1041D0001802FDF5A980B2E024E6F7B0FEF1F20C7A
:1041E000611659D56BA501391940647FCC424465ED
:1041F000AC47202AEB4E6508A8B74DB1490394DFC0
:10420000B081A0B4DC655BBC6BAF060866799586AF
:104210004BB3B861190EB20BFDC801618BACD0FA7B
:104220006DD0A82C23A5C0108526B3FD47B6D86C49
:10423000660EC4AFD8CCC0546FB6C06D19C8FE9B13
:10424000750403336CE430F8CD1BE8FF645501B20C
:10425000B18C1932FE7F20FAD9F040B2135B734063
:10426000030ABD98226AF7D8DCFCA79998ABB30C77
:104270006F33BFCCB6AEED3BC8FD8CD9B5C0809DC9
:10428000F65035C61FEDC6E0FDABE04208B2238C08
:10429000192BFDCD21AFF6CC7BFFA8B35816905259
:1042A000E023C2A5B323ABB3E1FF6C19B2C0FDC5D7
:1042B00003B002A7CD989D1930FD08B7D97F6BC117
:1042C000830A9B66030153F866664004CBF5580BDE
:1042D0008526B4EBD39823CD98BF370661779B989A
:1042E000ACD3F09D32AFBCB4C2A3B375D3F8BFED6D
:1042F0007FC496E5071319BCFE6BB6A0FE7F1A01BA
:10430000DC19C2E3B37F5B6B12EF49028B6CB261C5
:10431000871A30ADD388BB641E5ED26BA635177684
:10432000FEC0DF6B61ACFE4FAC1732E67D41FB0394
:104330006EB0B1E4B3DBB6FEFA77ACD28030E330D6
:104340007FD832FB707367B6C6A8FF7FEDB9013A1C
:1043500091C316B310FBC53D7D1361526613D7FBA5
:104360003BF2FD3F973D16989365CB30E8211983CA
:104370006A66D807015DE698CD8648FA9E06B006C3
:10438000DFFB7FD9FE2106016AB361BB19D8FFBBF1
:1043900010A0F86C040239F2983DD377D0B4FDD563
:1043A0003D8087BE98BF0C5715FBF62430BB050334
:1043B00065F99885BC307BB3B0F905B1BC9419019F
:1043C00065BB857DB1BB0CD79562F3CA16C28F1849
:1043D00001B52058C0265FFC7F20020B2C95B958F0
:1043E000B596E8A5F07806C80C37F2985FFC0FADDB
:1043F000AFFB08F97E61DF9C981973B951FBB510CA
:104400005BB304769E06C325190CFB49B7FFDDD3C9
:104410000187FC30DB80FFACEC813FE63008FDDB40
:10442000FBD680830DBD98C06DADFC50F9B319402B
:1044300020657A9883C3265E9AF8DB52AF80A1D7B5
:10444000D69801168B66216DB69676B31E4402DEB1
:1044500098617E6DC88056F790F92E2C6637F398D8
:104460006F6DF7C9FD85B3EEB9B386CE19F8FC10B0
:10447000DF2C6B21F6988005C6BC9805FBBA6680D8
:10448000C22E589281DFAD98FC9B238882087D98CC
:10449000E0B101AFDB7F087030D9EF215E98B10B3E
:1044A0004E5830A09AE920DBFBCCFA045F6D98846B
:1044B00002B2C8C6BD98506266B3AEC5C8F808D58A
:1044C00019406117AC98605B8F3076FF28FF081C9D
:1044D00079989EAA6DEDE5400486FE986E19B6F8AF
:1044E000F6E59804D5EE81B920A523018DFD7F99CD
:1044F000E46BB37BE8E8FC6FEB9881539945E702E6
:104500008A79988AE94BAEED96F9BB1780B682524C
:10451000EA0102830B0C56B3B0C8B31A16214F44FC
:10452000E2B3100DD496F18826B34719E7C830FEE0
:104530006CEE6BEE98300640DBCC98A512018AFA3F
:104540009816E5FB12AE6FC8883FB34D5F17C83CA5
:104550009A3696F39A4C9A66ACF068E60907049688
:10456000D301B9C8DBF8FE9AE88B66FD256680B5F5
:1045700004356F59B308CB1E06D6410199C8DBD864
:10458000F89BE82CB314A521049A11626BB3085F61
:10459000F67FC8FE1028DA6798B342FFE6ACFF202A
:1045A000CF80051069622C9F01E3F338D1C718D37F
:1045B00098FF0C1206FFB32CC12166E388F8C3F301
:1045C0006F7FF6AFC9F828E7809FA0E211E2C540EF
:1045D00066338C66B7D378FC086EDE6C37635F4257
:1045E000B101A75E7BF8306091FDCC88FFB041B38C
:1045F000EB4C7D306CFFA8F957ECAC33F5E5FD8250
:104600005F98981426B3081E42D8D8FB20AD6E8060
:1046100056F8D4CAB308F3CC25FF81619A66FEDB55
:10462000DBF4100A27D6F140167AE401DB2D2EFDCB
:10463000A6526CF74659122DB4204D1A9BD2C8FDD4
:1046400012589910621C7E9B62367C10811775B2DD
:104650009EDAD87CF91DBDFE6FE67E1C36B390FF56
:104660004718096CAE6FFB7768053FB07F3F76E374
:10467000C1FCB3CFF3F20CB37B10B0FE4B58660213
:10468000242CB3B80EDF57E508D8577EFFBFFEBB1A
:104690007611207CD8750870B4D860F871D6267F62
:1046A000B68788FC083EE5B604F3E5023F56AF80C6
:1046B000FB49B008481BB36612048719A8FD2A6895
:1046C000F7685FAE40BD05F7816193B340F977A00D
:1046D0009EA0601402D106F71CF3F0D83040FFA66C
:1046E000D5C023010560AF9AE1B67E78FABA168E7E
:1046F000028F69585E06CF9289DD22CA5FF088EF8B
:10470000E60105020D73F7C8FB6ADA631C00637BE0
:10471000F17A8001D583D0B7FDF38665AF02E6AEAE
:10472000197A48B8C10B769601AEB398FA02D44F05
:10473000C395B308A7FB498088FE042DCB490274BA
:10474000FD44FC61D9BA99FE42D8FB0ADC55C3F698
:10475000FF38FDC57EACC33E30CA49CFC88010FFCC
:104760006075E915FED261FAB3FDC15819DF3BC38C
:104770008204156FD12008EA86F35945F78097EB3C
:104780005BD83466C7BD3E806598F3CA6618C8E337
:1047900059166E666001DA784BFC83D3F79806BD34
:1047A00004C6106866B0F8AD6620B85095F4DE1106
:1047B000B7F35AE96836F9D0FE5189B9508D704582
:1047C0000AC0577203F40480456668C66866099299
:1047D00066B778DD44068B7222E0EFCDD9F06D40EC
:1047E0000C26F301B5B035C6EB172866C8FAC231FE
:1047F00018EE56FF409961ADC668FB892CB39C5FEB
:10480000F73348F9C60A19D337B35A19122CA0FF47
:10481000D42E04772CD220D36566DBA801D7CC98A0
:10482000CF5EE308C6EC029CFA4FEC32EE5A2F0C36
:10483000B6F8860135AD0860FD8964F54B8415F145
:10484000D4496BEB980354AA0606FDC43DDB60FF18
:104850000C9FA5E39B574016FDCC51E6917900A72C
:10486000B01B3BFA19BE69BF22D698132AB3BB0905
:10487000D49822666DE6BB8BF9149DE408D9F99BA8
:10488000FB951CDBDDC88315F59881DE9867FE7FFC
:1048900018FF98A818FFCC4790E818EC035466CA94
:1048A000FB7F3FDBAB03F937D7E5B0AC9601D5B35F
:1048B0000AABF885497F98989B19200AD818F99770
:1048C000179C1851B7DB01F23004C9E53068FC963B
:1048D000EC02F0FC48D196B4013993437840468706
:1048E0005219806CCB78BF374BF533C08AFA98E405
:1048F000DF8E3037BDF59878C8F32C1BB0FA352F12
:1049000004637AA5BF80ADB157A020195F1C30ECBD
:10491000342170EDEFE33010F598238A37668491E7
:104920007A9824EFD77F419B3EFE7F0C60F3896C21
:1049300009B8EEDCB13CFBEC1EC4836419FF40985F
:104940001864F130E9F33C15D9FD04A66686E32F1F
:10495000E69830F338C658FA0C68B3CFE5CA91BF71
:10496000839864F23008E4B3B02DB8FC9C84B12085
:10497000AF3F98B7E0D0A0DF225EA0196FE94B04EB
:1049800066627A6267FA9804DB6E4A58C2C0B776EC
:10499000A408FE27E298CCC53796686CC08083CA0D
:1049A000E53010A7E5F56066897A9840C55BB328C5
:1049B0005075EF0A9E7E02F1CFFD7F08FD17B1937F
:1049C0005F5A4A31A5F8030E798ABEAEAF2276C689
:1049D0000121FA27ED98D003B6DA889A77AF21E85B
:1049E0003FF321C8AF3202F3C83CEC10B0FF73CCE8
:1049F000E5C1AC717E5A2E9917F9C8D88AFEE1B389
:104A0000A9D0B6B69F8248AEB3034004C9F59868F2
:104A1000A7B1AB10F99897AC9810BD237179566582
:104A2000A848D792300BDFF51902A26604FCB3C880
:104A3000F87D03286DDFCD6BF60CCF0007F3B3F6DE
:104A4000CC1EE0FDC6BC98DDCC0A6A1182E5D01907
:104A50002D83FE4B79E091CE6B50F80CC6FD980487
:104A60006AAC6AABDCA090FA972256F23888D9007B
:104A7000086BFDAEFF0488EAAF58051398296DEB6B
:104A800054096F9B32BC2424665FF592C8192B37FA
:104A9000D79808F130650199E6ECBEFCBC412B9635
:104AA000B0189F7FB203B2C802CB7B14F3E51CFDA4
:104AB0007F0279A59FBE1F19FC10C6D6B302A6B30C
:104AC000DE60B5511B195C42251908BF44FB5A40F2
:104AD000FD3BB617019C30627AAC5C3D6F95C8A671
:104AE000AFE84D602FFD54B89DD6FE9E512CFB7B48
:104AF0006549B692186A0CD988F8DBB4720906CEFB
:104B0000E30053F070F3A86C8DE396E0709F7FECA8
:104B100050FC08D366CD91CD764BE2AD7617F051BF
:104B20009A8FAB2248ED6FFA649B19C9FC3BB7170B
:104B300006F9988B723008F366F2C8F56946A2E967
:104B400011E0C67859FB2CED3F78CC98DE5BCA802B
:104B5000729480D7D69883BE98DB0701FA983C768A
:104B6000E7FE0476592E7C7D6CE2B1025556069420
:104B7000F3B35ABF32B8018D9AB3F13079C5999722
:104B8000C8F343D0F965F1D12DC2093830C5567547
:104B900010FE98B720F3987D6CAF50FAF3D21B3219
:104BA000FFB449CF6C00E8F9D4032077119B368914
:104BB000F617E0036F2398D97F2D98BFE8FB457067
:104BC000FF3BD6980233F0912D81728C935F82FD6A
:104BD000446DFD1A0801A119B76DFE58BF3220734C
:104BE000F30413676DCDAEADA7217F7F0BDE6002AE
:104BF00069B726E964C6B702EE641E10CAF298DBF4
:104C0000691316FF19DE98D97840FE98ED2030FC24
:104C1000568B183396C8E6FF765BD5E52EA076183E
:104C2000F92CD5B3108DADB391BD9862B214B3C851
:104C3000047FB69828FC572ECE0DEBC7FC98C739D9
:104C400030025E980195EB9812BFA822D960F87DDA
:104C50006762DE97B7023119AF5998603D17A21805
:104C6000B332FDBC98CDE8E11688DE988003CAF621
:104C7000985010F627A0FBCB3666CBC83FACBAA144
:104C8000B3BD2622B321EDB21DBC9876F448FA4894
:104C90005A8CE4D330C8986C23C63A1801D492D306
:104CA000953058EB9811D669169F937AB308CAFCD1
:104CB000CC78B790CBC86F5A980736F99003BBAD44
:104CC0007F0F30E0D0031965723058FE9BB18DF92B
:104CD0002466C475150568F8DBD802FDF8B2E0203B
:104CE000C9F6982040D3F614FD34B36FD5B8E6D694
:104CF000E7F1E631A359F55E98B9024F0AD848F8B2
:104D0000E71B8CEDE3845C67E6E8FF20CF80DBD611
:104D1000780171F39DFB32281404D3D5D3FE0182B0
:104D200043FF98FFB12CA36638D1C71839F2F98C2C
:104D3000121B66D8FB5F84F9D40603C0F3B150663A
:104D400008D3DBF771017D61B966FA26B4F8EB8907
:104D500061B13779F38B7D42E7CBADB140C0B1375C
:104D6000767779F830091FCCD888FF6DFBDF483D96
:104D7000EE14D858FA25F9E582D2B304C3BF31E561
:104D80005CB100FED875208A66FDC169192064AC4B
:104D90001380275AB91071769C19B108B5CB80C120
:104DA0001E362010C7F3F947BA87F0CA3FB36D83A8
:104DB00074DEC51D66A0400136D98002C6F3C93C29
:104DC00020F34EFED0FF10CA777280900298AAB7E7
:104DD0004BB2C15ECC9242FA120D2120B0E9D2C78B
:104DE00014AF788866A2DCD3C3DFD87F1096EC536B
:104DF000085BEDCC5B2B5080D6F309507CECB7A45C
:104E0000FA25F3A8CDBBFE90C53F13B0B0F8D92C5E
:104E10000162014A982DF66410C393B31FE4304039
:104E200076BFD01D8D98DA4FDB64042BAC946BBB3E
:104E3000CF18F91358C502AFAC8F2073967DFD04CF
:104E4000C6D8E336EAFC08C5B83DCFF33E1E40B3F2
:104E500020B5286DC41402BE7FDB362C426BD4C053
:104E6000F871E98F18AF4BED2FA8FE824FECCCDC28
:104E70005FEC7F7FCC9930D3623C23C6BDB6C8B30C
:104E8000FF7F6B0861922008D04935FC8307AD98FD
:104E900008CDF77DBE846113B350FE619F2C3404AE
:104EA00053B6B1FE3AD4B0089FB34C4066FF636678
:104EB0008BEBF20208BDD9F8B0FD8B41C934D07735
:104EC0004C26FB7F1F3138FCC75B10E488FF5288FB
:104ED00017FDE388AC6E2027EDEE08CE72F1FB02E1
:104EE000DBEC28225E6680614DC5802029C3407AB4
:104EF000416FFFAF100440FC18BDDF66587A150300
:104F00000506B2CB18D95210642F82A039F0C2CA5C
:104F100072430D60FDD4A3A3DEB00C20C8F88D53FE
:104F20003FD022B8B5492BDBC90281147A66C02074
:104F300058044F96426F400820BB023B3B045A473F
:104F4000B2810220EC0448FB4BE5FE848AA8B34002
:104F5000E5DFE2AC33BFFF68B8FC23338DF24CB819
:104F600073F425408D11C2D266D5AA2071EBEEBB39
:104F70000890F8CAEBBC73AC093C4796EF0853F3B2
:104F8000ECFF63DC327988CBCA282BF6F08023DE75
:104F9000310860FDDC8158E7B76C0E1025DECD9836
:104FA000FBC4B8831A3084C77B3130FD14D262331E
:104FB000EA3C9CCA316B6CECB3E4FA2C5B7C027E5D
:104FC0005970C456E360112CB3807FB6191087E086
:104FD0007DCC86DABC67B6ADFF02249CB004CD9FC1
:104FE000E8B1F92FAE67B3358C1E226CB338F816D2
:104FF000B51580631ED9B101EF895BFC6566E84099
:10500000DBEBD48C7B5B561C804F656B80FFC6CA84
:10501000CBD4F80B7F3280625F51B5825AF2882C74
:105020006620DE58E8C0AAB46093FC06DA1E79F662
:105030006DA3EECD800301D7EF7FEB177E300D8B94
:10504000A97BFC1A4BF90A7F5BBE40778CA0FB68FA
:10505000766841B78C58CA23AA1A498B6656E11163
:105060008B6630F527806C7CB468EDB1F0A3F20F4D
:10507000026C19B18344B3E0A1C889196BFF7F3C6E
:105080009001044066DB2C66F8AFDBDC0CACCA0395
:105090005466F1C86647BD9A661BEB367DB0FE17B5
:1050A00092B31998135019164456ADA64875FC02D0
:1050B00066FB981001610FBD9830049120FD956644
:1050C000F898B1DDA3FF754D069ED8B20156C3E036
:1050D00029EB988015E58F64C2AFC02A11192E5CA8
:1050E000567FDACCBB3950F80C12F598408CFA9800
:1050F00010C95F8B11F0F19ABBF293FB0427DB9888
:105100000C047F589801A7ED7F513F7F042969F374
:1051100005715993EE9871FA08CAF3987ED8B103D5
:1051200043E398F30DA288D8F3987FD87E0863E410
:1051300098157AF32003CD669D0A3BFD10861E98D4
:105140007F5E0DF31A46CAFD95D0A6ED499039BA97
:1051500041B002B3D9983480F564FF52F0FD657E0A
:105160004204C2DE5930308DEBE8FFA2F120DBCCE7
:10517000B173D63C6067A5983CF895EB98202FFB5F
:105180007F2404087D98407919E8FC3410A0193E6A
:1051900098B590E530049BFB7F9315591A413D1754
:1051A000E3800901D9205C30DA38FE7DC5A31903FC
:1051B00004612FAD98043D980C8B880264FA9830F6
:1051C000D7A1FEB5EBFE0B3C98DBAD64BFE3FE6AF6
:1051D000197ADA2EC2EF1798AA1BB2EE96FED19674
:1051E000487BF9810263B9C8FAA001300416D3AF35
:1051F0005FCB07B4C72BFB52B8FA2FCC6D7FC59994
:10520000B3DF38B618FCDB10B2F3BC98D76DE37D82
:10521000980463B9C85F4E0207D1191070CAB2A3CF
:10522000BD98385CCA79B9848566EBA5805F8443F4
:10523000E6668920CAE630CAFCD141886996C8FD75
:105240006EB10B54B490D7BB06DADAE9AF7DBFD9A3
:105250002E6ECA6819B670FB3C1DCCC82005E5A5AA
:10526000FBCA045CECC88007AE6F3080FE0225C22A
:10527000CE377DF97FF3B2047D9881B4FD587684F2
:105280004DE74BADDE185D1938224095CD30B8FFA3
:10529000FE330DFF6F363A083BC33019047E9AAFD8
:1052A000FE07A4CAF49880DAF3FAF1DA852BFF023C
:1052B000CFCED55708BF9F98EB06FE43AA3F2CC818
:1052C000581945C14619CB57A027D0980CF128F89A
:1052D0001E98B0429320C86F480404986EDE0859A7
:1052E00074827E98DA52FF72CA08D3CD98D6CB8BDF
:1052F0002FD1B1AF165E662066D902461CB5EF30DD
:1053000011C8E9FEF76828D80F02EF0F30BD3C88BE
:105310000729C4D93872F11C5BF3F0309BE69CFF7F
:105320000AF2C88F89E37D60664C9F1B98E6F14CBA
:10533000ECC8E04426F24B32B305190C93E398E62F
:1053400070B4FAF92AAD616F9E98BEC7048077DB0E
:1053500052FDE386DE9846A8FBBCB5816DE718F8E0
:1053600016414086233FEC988108A016CA45FDAF40
:10537000ECE9029E5F301092C866C8E3361C5756AF
:105380001099983BFF8005CACEC8C9FAC533C82317
:1053900062FF7FDA0A467517ED1F0110959DC899C7
:1053A000FFA7ED76407C98C7F830B83DFF6E98783F
:1053B000105783A008BAD36D9649F99DFEB040BB43
:1053C000D69860BF7B653666ABF98B76080BBD98C7
:1053D0006069F748F902B2B3F8D119D0B2047D98E8
:1053E000106FFB0C04102F19B27F3D9824DE84202F
:1053F000F36CB380FAD419C2E3FFC81DACCAF3FC46
:105400005F33987D71C0633C3001A79B98ADEC1E63
:10541000DBF6B0FD4F0598016E992C196570406957
:10542000A680DE98EC22100496A9F8FBCBFB7F4FF8
:10543000DB25827230B0C47F7F098820FFB97FD519
:1054400030D208245911DF76C6FD99C86BE798ADB4
:10545000FAF0F9303CB1201F1698B4FE989B1CF36B
:1054600002251930D9F804FC30B7C0F5E5308EF9C3
:10547000982CE0018219D3FC45E5248F9BB3FA9860
:1054800046237F1A980C403719F5E4701FB3A64CD9
:105490004FE9A1103908B40AF38B3D19348880DF35
:1054A000CB98CF8CCDC80121F4A0C3B0DB88FB180A
:1054B000DA4AFF2D66798F2047589B88BB4C10B87D
:1054C000FC73D92523066E166780196BF7D9AF16C2
:1054D0000C43F0C07AE63C1578AA6648CF5AC80A51
:1054E00099F87E85D108442A2EC604F398CE185A1E
:1054F0001992FEB298BCE5F3E92BFE7F28181093B1
:1055000068808CECDD3A016E66479BAD6901B8237B
:1055100077FF210139908120386667E6C8F0071EC1
:10552000C003ED78400FC89BD6D5AB28722602D7B2
:10553000DB98E081F8234B83F1C10C5B9069FC940C
:10554000664A860338E3E8D5B350B5022F193C0B01
:105550005A5AC3F17095ADAF58FEE2F9A3CF6DB3BF
:10556000080CCD66C911C0B02D5AB930A06CB3B6C5
:1055700012ED47FC8C75299CB367F9BC9D9DA4F87E
:10558000F97110FED028173FCE31F31E323B00E0F8
:10559000B398D3F8FD0C121DFF98FF2C8546663892
:1055A00039C4C1FA6141869FF6CC6FF6AFD9FADAF9
:1055B000DC47A019D5394E651966BDF1B34036698F
:1055C000F2665F19FEE6FE4E5B0CF5408871CBAFCC
:1055D0001BD48BB191CDF3D84C6AF98C123FCC9887
:1055E0006996C8E6031DACFFB8133CE5C141B32082
:1055F000B0404251B3D8199396811EAC66FE392F44
:10560000C38E32CA76F158FB12BEA479E31A0F1882
:10561000F760A87E592EABED081BF5DB8097E605F9
:1056200077F79740F89AC580E837B50CEE1748C56C
:10563000FA66FEDCFD50C64D32A1059666DD28FFF8
:10564000DBBA10359CB862FE42B42168F96804CA1E
:1056500076C320055FFAF0A0FD1033AABE3958D8F2
:1056600066FFEC48FA124BE5B2B28B7DCC968E8881
:1056700009CB6C3D98F83AF5E58099FB57380EBB9D
:10568000B12067794B828F6C179010DBB310FE0747
:10569000FE587D408AF30496B3FB5FECB401A5DEAF
:1056A0000185CD9CE8FA85866D39CB30FF055FB06A
:1056B000CCFF7BE388FF133032D3DB4AB8FB0B0B04
:1056C00083F66B0C42F260060401CA30A4B4B3CE78
:1056D000FD1B0195BDB8ECFA83BF984B3FACB310EE
:1056E0002DE32A7DD8D1FEBAE002C2F76618FD028A
:1056F0006DF669179971F99FD9F0FCD9B665ACA41C
:10570000086FB65A416FB63E28F8E6971F8DFF190D
:10571000FFA976B11987FD64617FEC920451E9B865
:10572000B1F97DB02FC1B388CBFB421DD7C8489BD0
:1057300012ED8DEBEC200A54538066D9FA02C6763E
:105740003C083BE6400850D086F301C8E74D08F01E
:10575000FAD04080EC43EC9806C085A0EEAFE82379
:1057600012FB58F3A7859FB50269BFA480CE3047CE
:10577000B9A06625B2BFCC0CDE08012326B68F087F
:1057800076FF820423B3F1E3847A6210717B4803CD
:105790007724812EEB627DA3012404F0F88C704BFA
:1057A00040D875DB17106DE8C8100239C44868EAA4
:1057B000FF97D92B91F420E78A1761C7D3D8E0FF70
:1057C00071A9BB20B4667FAA64F961AAB608C4B8FF
:1057D000E0F1195B686061EF76AC10FE56AC240A0C
:1057E0003C5AB3B02C1960313319F85D6D21F97E44
:1057F000B3C3DEBF1CBBF1E8FE0ED627405A98DCCF
:10580000C14B566240723C08C32DD896FB9718CC0A
:105810006DA6150A4B19023FEC056C7BD5CB10B376
:10582000043796F92BC9CCDFF14FFE62DFCBED9147
:1058300020125F932005028040B501FF90200804EC
:105840005AAF65E64204C33F81D4014CF34130EFC7
:10585000AAF960334F131306FD5862BE399B0CFD45
:10586000C097E5188DBC8202E6B3996ED9F8FEBBED
:10587000ED6E1762AD5B04207113AA6689CA1E59CA
:10588000D010C0FE1505B821DA8910FE69086C4DEC
:105890001157B2330866FEA432CD51DEFD16877073
:1058A000B3FCF30AB8FFC0017B80656E0FAAF81E37
:1058B0006CFD3857F3D73CD31472F8786414E0C900
:1058C00088768B09E9C3F30C36F7F8C7B69B66797F
:1058D000357D628AFA3930D5F86077D78CDFA2F748
:1058E00095FD7F6E48FAE6B34404CD31B38E2D6B3F
:1058F0005B46C128B311B3E1C68849611160DCB0D1
:10590000FE10AF20B0AC9B7795919AC46ABD04D3CA
:10591000CE987EEFA0410421D8F8C68CC7F50006CA
:1059200094EB2CB5AF2498FC70B2B3BC98C774C18B
:105930005BC0F99825D340F3BF9F98AD10F0FCCB26
:105940000B200A141A04D411A2D32047F7657B98C0
:10595000217186F8C958BA0C41CC763009B466700A
:10596000F64C84313741262EC6107BB3212001A985
:10597000FE7FDFCC9878B5FF5A9812BAD3E0013C8D
:10598000F30E5F4F98607608E0FD1199F6983E6639
:105990006FF97B0CA96CF36A6FDA22FD79C484E39A
:1059A000B3D416B2C41BB30816972B428619EE1057
:1059B00060FB59F7C05CABBD46F548B114EF0198E8
:1059C000215EE32DCEB83004361D70FF9F9BEA06A2
:1059D000D6594014E6C503D7FBFFA8FD3BD89880F5
:1059E000070C64B3CAF39896F305A7C6F89808F8AD
:1059F0000CEF5A98062CB30A638330B66FD33092FB
:105A000007C6016BCB46FB2BD4522CFC6BEDB96067
:105A1000248AFF320124B6C2F49891BCC80D53A168
:105A20002F0930D906B89E98B70858F378B7BB98B5
:105A300088011023D998A003D26BBCD3413C15F642
:105A40003229E29840C6B830DFCDE50F0E406F3105
:105A5000B1B06F6C9820445BDB9820C220B33586D0
:105A6000AFD7533C23B01020F86981F7B340B8306A
:105A7000B2F9C579BE34ED8010C0129829C3058AE9
:105A80009191C8E034E524FDA089B6CB01402A19E4
:105A90006FE09859EFE678FA8081641BF0A572C038
:105AA000918B7DCB7149AF1B1CF130E415B9DAA89D
:105AB000F8691584FC304D2F1228A7ACE524B2EA12
:105AC000F6F773FB8D19FB922C6EE4D82361AF2699
:105AD00025807CC1D1F688F782313041F61703E783
