:100000000C943E380C945E380C945E380C945E3838
:100010000C945E380C94463C0C94AA3C0C940E3D17
:100020000C94213D0C945E380C94783B0C945E3813
:100030000C945E380C945E380C945E380C945E38E8
:100040000C945E380C945E380C945E380C945E38D8
:100050000C945E380C945E380C945E380C945E38C8
:100060000C945E380C945E380C945E380C945E38B8
:100070000C945E380C945E380C945E380C945E38A8
:100080000C945E380C945E380C945E387F7F7F7FD2
:100090007F7F7F7F7F7F7F7F7F7F7F7F7F7F7F7F70
:1000A0007F7F7F7F7F7F070007047F7F7F7F7F7F4A
:1000B000077F7F7F7F7F057F047F7F7F7F7F7F7FBD
:1000C0000F7F0E7F067F0D7F0C7F7F7F7F7F1F7FDF
:1000D000177F167F157F1C7F147F7F7F7F7F007FB8
:1000E000277F1E7F257F1D7F247F7F7F7F7F187F57
:1000F000207F217F267F227F237F7F7F7F7F7F7FDF
:10010000107F197F1A7F1B7F137F7F7F7F7F0818E7
:10011000117F127F0A7F037F0B7F7F7F7F7F081015
:10012000081F097F080F027F08197F7F7F7F7F7F6D
:1001300008027F7F081308117F7F7F7F070C087FED
:10014000017F080B7F7F08077F7F7F7F7F7F080706
:100150007F7F7F7F7F7F7F7F07037F7F7F7F047F1E
:100160007F7F1C7F1B7F7F7F7F7F7F7F037F0810C8
:100170000C7F247F237F137F7A7F7F7F7F7F08110F
:10018000147F081908200B7F7F7F7F7F7F7F7F7F11
:100190007F7F7F7F7F7F7F7F7F7F7F7F7F7F081550
:1001A0007F7F072408057F7F7F7F7F7F080D070BF8
:1001B00007237F7F0713071B7A7F7F7F7F7F7F7FE8
:1001C000071C7F7F7F7F07147F7F7F7FFF1F627FFA
:1001D000C23C006088FFFFA0089001324006C8C6FC
:1001E0000019FF03050A4414012341CF068AF320B6
:1001F0000365FBC00C94290034FF7FED813250066B
:10020000CA54CC1928E0A0D3F3A9C688009E98D37D
:1002100064800C7FB9D8FB0015E002FC5C800B7099
:10022000012E3C04683F2AA002F433F350F3C0CC03
:1002300005A8E6A03672B3127CE054800AD03D2AAD
:1002400040A2E054E4D374F3D3B80017B96084F843
:10025000C121FF98B1FF74E5200E048001CF40EA70
:100260008081100281C0080601F5E01094E4DEE808
:10027000FECAB882DDD9D181804060F3507628046F
:1002800005201902A0071482023F190A4001280024
:1002900023164814C33140E450A334A3C880F9BCEA
:1002A0009304B612142667C097276BACC0086EEF94
:1002B000B74049F810C6FF930C7DB384878004785B
:1002C0007C93D39CD380D978FA44BD2AA784EA10C2
:1002D000400478F7B34ECF6719EDBF40AFB9202E79
:1002E00022E7401128F303004C0B08346DE0F99C21
:1002F000D29610B3EBF43017FDAF03887CB3ECC794
:10030000D8FFF2DD4D8E06FB70EB13081635B3FFF8
:100310009E9001B0EE2006C025D6861099EAE581B0
:1003200040DD117FED5E680C0863F3154074059F96
:1003300001D0D0041A42A193B308F6320158FD53FC
:10034000DD2C027BC042183BFB6021146E1930117A
:10035000F7AF08236145D8FE7526C48068D383B300
:100360001F443004D940FAAD440C10368A1C088D65
:10037000193C109EB3B93CFB1E332618E5E09C8166
:100380007007F0D7F3D0F4E20FE0E6D948FE7EEF35
:1003900069F2F6930966B1404366C7EDE0834077A2
:1003A0008A6FFCF9CFF3CC0302C682ECE620C0BF13
:1003B000D77F8CEBF322EE0122B3A8FBAC1673B30C
:1003C000032024B309AFA0818298D0441379FBA6FF
:1003D000300138FC37D198043D46C20242FF7FF617
:1003E000A091042125F4839E5E484E88093482EE54
:1003F000CAD308D305F304075CFD678CD5938096B8
:10040000D4666F5EEFFF2D2AD7EE6275F21C463F71
:1004100079D336A9E0FF7F97C35E9BAB2539E0B760
:100420008098657900DD9880039EC4011C8005F5E5
:10043000D67827B0418FD0F8B3081B198090973930
:1004400009ACF41057C598CD76BE447EF8490488AF
:1004500026085ECE66AFA06CCD73F8BF3998AF109A
:10046000DC0242E00936CB210A2FD9FE62775C5FBD
:10047000DA0A06177DFD725130125997D9640F9828
:10048000D20C201906606C1825390C89A4B8309458
:1004900065F52FE898081B0704CED3410C3CEC709F
:1004A000FD04FFAE98A24C66F9CCA90D8917B35A8A
:1004B0007480E00D046678BEC1F330D96BFCBF4B8D
:1004C0009F1004020480087FEC73855794CA22FCB5
:1004D000CC6104C0450D81067109A27F4177D358D4
:1004E000FE2DF706FE7F743C8A24B845F7BCCB8509
:1004F00024362BF7CEFC18F3AC041140D6428120F1
:1005000048BB829023016CFBCF14C1B3B99480E740
:10051000D07939899AB5ED6BBE9ADEFB6B1080B24B
:10052000F8B8969A773C80EB44F83096B12C29C6FF
:1005300081DC036EB0471674FC7DFA04C696481938
:10054000DA6AC1F230206C94085BBDB123612437B4
:10055000F781A001B65E4E682AD9F80403947604A8
:10056000496206A36BCB301014FE7FC0449FCE04BB
:10057000228C8491003B1684CED303CC11F7101249
:1005800030FA9A53AB180FDD57900722AF3B30403B
:10059000803C13FDCCF030B00378300E60171F3074
:1005A000FA8F38F698412C0788FF08677B98060178
:1005B000B640E6303108C5BD9803F960200C804193
:1005C00085BC06095E1612BFA880CA590129B34628
:1005D00048B518ECB130362CB3E40B6401B353C802
:1005E0000643DAC33069B92F581966FF7F802401AA
:1005F0007230A056B3ACCF045753AF01BE0940DCF4
:100600006E3427C6F748820130F3043684FD7765DF
:100610008708B4FC3077879846412FE649FE986FEB
:10062000CB03884E32CAFC98BE38B6268CD05F47C2
:1006300019B8036064AB0903E2D0AFDEDC4866653D
:10064000FA9814967111ABCB4115F49840A4C08D63
:100650009007EE295164A6041523F7CBB2FABE7FAA
:10066000B4AFBD98C0AF48226B1958CA0A9FEF7F3C
:1006700004EA45F9AC82A006F83F1360808C82FB47
:1006800051B000B9FD2BBB9B0F02BD98E20306C819
:10069000DD0371EB981C135D19E0F94D78483216B3
:1006A0003DD3ED65128338C6733008F8B4FBF3A56B
:1006B0002BD698C19EB809C6122FC23049DC7C8364
:1006C00089BDF33B7A1946CBF54BC07C07A0B3E359
:1006D0003BB020125CB3D0FB8061FF672B4004AAC3
:1006E00060909C20D381415E09B8FCE6192201C8C4
:1006F000C9C8A614CC8B053C843F2144040A623C43
:10070000807FF77F0A687AECB11AE53082DEE382F7
:100710000DB7AE707A6604CBCBC87E375D31391524
:10072000AD60AF9C6BAC6DEB87E8FFCC0565E5C8B1
:10073000FC308118035FF962DE9859C808EFFB01AD
:100740003C5CDD10C6D6C2019D51D017F61401568F
:100750006DC8C09DCA8910128B73300A01AE02DBCE
:10076000B130E7B68DA04CC4C2FF464F2D304C329D
:10077000C8FE7330408C040242671FB7FB5F22BF84
:1007800012027B8306047B28218CE08149B0EC387F
:10079000FBBE1D30DE0C1065C8DC305EC58081C438
:1007A000BFD207B9F21919BB2056AA109C30BF1846
:1007B000DD9820B0F9FF836FE7989F5BC93020F385
:1007C000004B08133F66CE783CA8B65CADC62779CF
:1007D0000C99FB7FD9FA3E98373C02F130735009EF
:1007E00090018B25B39396FEFBB806B4B64964C658
:1007F00050B3667E7DC809469204DFF0A3845B1582
:10080000D2FC7244124801E0B91040BB11F89A08BA
:10081000020EE630DCFFCEE2302F93B5F358F32022
:1008200099B31121BEB1FB262841CE82B7CFC02C8F
:1008300019AF1A626D3CF39842DEF5B8388C7A989D
:1008400078ED3FBCBA6E04C0F51E0E7CDCBF7EF6B0
:100850003216FF7F2573896E47098E64D8692C5B39
:10086000DA98A24010AD1DDE7F3B35080DBFBE9B60
:1008700065FA980CE6E410C25DB1F5329BF582147E
:10088000DD4904DF32A18469D39E46D31810137466
:10089000EF2C02BBD901FF9E985EC539194006BBFB
:1008A000A570390189E9161243197957F8BF7808FC
:1008B00007F0201E80210CE10F606B0C104C15AF6F
:1008C0003F98B263C4378D660C9C59FF0378E0BB38
:1008D000732501F37D4DCD662BFC95EB984CD10C27
:1008E000C0B74008ACB30555B6443AFD8360DCE3BD
:1008F000294904B3161A8BA65C2F2010126BF92B12
:10090000E9CC7684773C300240034824EA623F7F9A
:10091000BC848587E075A201F3B08010D06C485F7D
:1009200052F341222030E7F868BA66F3300803A397
:10093000209F3FCC4B823AE27D3B192C9B8FEDB53B
:10094000107034AF3B2B97302098D3A9FFB76EE8D7
:10095000702FDD23788BF96D024EF340FB04CCE859
:10096000B1179126E311D612FDB1CA7DD79648730F
:10097000642834D4D12EF549F02DF9F3ECC8FA04EB
:10098000AD2F62F76C0110C234D741024FB1311F55
:1009900097312673301360FC844C8805804088D3DF
:1009A000717D03622B8CBD650AB8F8FC5D6D94C83F
:1009B000B035B2E090C820182F59980CDE4B7FAEAE
:1009C00028F0EC14790C0E600D0980DB1CB5D0F614
:1009D0009800B0B649966602E7D6F998FAE077EC47
:1009E0009F105BB56303CD108041FC70EE10048056
:1009F000262CF3E0F9CEE6301220ECAFC8BFC9AC2C
:100A0000D143E533D4FD48EE60020C7AC942C124DB
:100A1000444DF808F3042E50FE5ADE267DF2FC30D9
:100A2000EF0240D4FAACFEC10904C4FA689FD74271
:100A300020688201103A34CFC8224248E410698409
:100A4000F3C6E6224666FF7F6B9AF5C034CD3118B7
:100A50006F36E259E5309E7FBFF0B6B1074677C8E2
:100A60003C8069DCAF1830A1B4F9A8A5208E407E87
:100A7000F6E0E7EE2110037AB1F8CEDA495ED62827
:100A8000353DD045301293E609F9432B46E0CC6F53
:100A900014404CEAD0C208BDF88942BF0384CA069C
:100AA00027AF9F2C6B62C4042DC83830E35437B491
:100AB00090116DE798080BA84084FC09300146C4EA
:100AC00020077F934C849B317A39FAB1D1D5186BCA
:100AD000CD303040F9C815D9F5B5045B66022E66F5
:100AE0000CD7E61EC080AF787AE2403C1007450C78
:100AF000C4D679204EC8E6E8FADC8D5A73FB98C25A
:100B000020769F15E1985AADB350CBB3EB8C863D60
:100B10004E60E251FBECF98E627BC6104BB2FD5B7E
:100B2000B3420C5FB5E076B3513041A6B3E311B3E5
:100B30000443ADE021FE41220C84043108BF9290B1
:100B4000EB200A4033C888DCD02CB36CFFDCB3C682
:100B500016E010EDE3B8F87A9280E3EFFEB8CE33FA
:100B6000F38FC400E0C93FE0ED2E98F3F0FE0C2DAA
:100B700031FF8F1D34A7FF288546663839D990FF8D
:100B80006B8C01F8F8B490FCC05F30627DFC59D6E4
:100B90006BF213E0FE5A9E62B7E898F81BAD0BA00B
:100BA000863876C44C66B3F02FF764B06D96BA31D0
:100BB00008C93F374CF25BEDCCC12438D31356F350
:100BC000E8FBE3C23C668FB5311D6FA33288CFF0DE
:100BD000372CFE3248FEC5CC8324F27F3C87ADF52E
:100BE00027FF8D98CD91188BE4B40C98FC061D99C5
:100BF000FF7EC2D8D8FB5A70B210CCF3C6B0E8F86A
:100C0000CD5AD340FD2D8F2E6E08FB3B53F57566F4
:100C1000FC8DACCE04556280A3406F96B41453E8AB
:100C20008CFA62EBB60115339FBE099E8F1210023B
:100C300008E519FD96D997821EFA2E84D57D0862A3
:100C4000089D04C5BEBFCFA7E021400431F020EECF
:100C5000016C0C48F9B3B3BA0AFDBBA6C3669BF39B
:100C6000201050B3B071748F9440D4D0F30216802A
:100C700086F31BE96003043608B3FC7F16305FF986
:100C8000C04823916097AB024C4A67907912086B79
:100C9000FCA2C0019A1DB90A0F562406FDC63DE903
:100CA0000863DC2CBB40AC419FD9A2889F7F6FBBFF
:100CB0007B80093C046E9041FB0DFA13270878F9FC
:100CC00061AF8806C1CD406E385AC7BA64C7CC6BD5
:100CD000FEECAA18FB3BE9666A6577B140FAB310EF
:100CE000CCDF786DC5DBD454FB0F397D08642CA1B3
:100CF00081CE167DC51E36FF98FD2B9B5090FEFBC6
:100D0000C2C6B350F8C63B174062EBE60214DD19C9
:100D100008887998871ED4B1109F3098A7569540BF
:100D2000861919F94BBF197E9F90B2B0CCB32EF53E
:100D30008D40BAA901E6F2C8F9CCDBA35CB56EC957
:100D400023FA62A69DD910B288FF0C116141198F58
:100D5000263D0CFDFBC38CB3D8FD5EF8B3FF0CE45D
:100D600032FB2575CB3886CB198011FE20B0FDC330
:100D70008F33E5F3EBB8B3FCBFEF0879F7848B62F0
:100D800044333BA388FB18CB831F396362026FE8AF
:100D9000E6501BD8FC0D0C1A4F9BACD8FB11F3CBC3
:100DA0000D96A2881976B120DBCFB75BF70474D11A
:100DB0000D68FC8805D747BBFEF241C590B70936E0
:100DC000804023EE36D1FB08C77EEFCF37B2F35C0D
:100DD000FA37323FD5E575F36A15408FE0EE2C0205
:100DE00040D82598F2012111080BEC17DAF8E4F14C
:100DF000048A6241BE592E6BEE3B08B1FBD92853E1
:100E00002DF399388008A88B1A41B1092F7291A04F
:100E100010019B85638573CA0D850E3165F690C1FF
:100E20000871C17B38FD4F42A8486DCEA804C4802C
:100E300091F60E50F4D8DB5282B20CB38744316B7A
:100E400008CEC028047E420A98382B4041F427EB94
:100E5000C6E8FF61766CC910C210375CED54881982
:100E6000664FC501100802B541D565088AF17C1DA1
:100E7000E5F6CCDB97AF08BB79E7EFC678FE119EAD
:100E8000857994CB9C241CCB36C8BED923663EF40E
:100E9000FFC53629C7F922826EF6A31258DDD308A2
:100EA000F8FE87BD6F79ECAFF6EED0FF1FF61F049A
:100EB000C9ED170899F344FB06BBC0F4A360F4D84E
:100EC0000320BEF69A0640FB93BB0AEF9F6CFD28F9
:100ED000F947EDA4FF204562E765FE2C42DB96034F
:100EE00060BD1762E9191086632215BBDC4AFDDC80
:100EF000DF01A0C250FB61A67B2D0880023D03B03C
:100F0000615ED896EE76E9B8FD2FF64C3EB6B80194
:100F100060CA6C41ACF8353368FC1D9BA1D8F91B45
:100F2000ED180884E70FFBE5FC20DB0484B55821AD
:100F300020BDEE4002FC160883B48462C7C1EF2FC7
:100F4000245069F98748B75F234CCB98FF46579BDD
:100F5000FE17C21E539E0D8AAC7710F33CD6D3F811
:100F600056A0C90C5E8150AF06AFF25898819F9C85
:100F700001E0BBD0B7E06091E0D31EB97FE658FD39
:100F800080F611DFDBC390046F135502FC052CFEC5
:100F9000511A18787FB54301570901A6BDAFFE80ED
:100FA00031A0BBDB8C80BD45961835E260FDC611D3
:100FB000A0892EB616FCAC13323903447B98D6B305
:100FC00060BF9E093120B8FE602DEAFBE60FCCE23F
:100FD00001EA07D2D81EB04017E0411C623D162935
:100FE000E090C8A503D3E0FEE73CD3C4807803D3E8
:100FF00001873C40C2FF80B22073F84168665D44BF
:1010000077D86189B4A9E036B30C80A30C17607758
:10101000E0B5307EE8FEC005B208DFFB7F811165D8
:10102000B370315C213098AAB305F5B391ABB30826
:101030006278B3FD7FFE2050042195F35671C0BB4A
:1010400004E974A940B1847E3FCBCB98EF52F49869
:1010500010D3F501CC12B8D9FA80FECBDBC440F630
:10106000DC10D84DC8326A56E84059A420CCFA5951
:10107000411FE6BD0EE6F078D78AD0DCB359589B05
:101080005D0610FF37EDF598120AEDDCE4CA883BE7
:101090001075190DFC69BCC09AE3FD166DFF1A01AD
:1010A000927126BBBA88BACFE7B131FB80891101B2
:1010B0006FEB9804D79648ED767AC5A00317D2FB5C
:1010C0006FD38801658F1802D3DB15F3302019FF29
:1010D000CA3C647998FEB8A332FAFD9881625E98A2
:1010E0007A2608E6D3604186D3BB1E6B3679C4D519
:1010F000B91FA0F88401B2313CE5C8FB9BFCC5C513
:101100009B17180485D3E0BF976B099B660F90FB74
:1011100033AD01D6B31042B322EF31C551B2C07A1C
:10112000B329BBA40149F3A1B32938B3F0F6F910F0
:101130000805FF7FEB812831ED3837234262DE98C6
:10114000B720E33051F3B7B968F1343619FD5F2C9D
:10115000638022D562042CE880BCD13061677F7F38
:1011600070FD011BA29F199665C2B943C57830BDB9
:1011700098021DDD6E6CD3B540F619F82C6CC821B1
:101180008E4B3081D32BD659222DE498C62DFC9658
:1011900036A09B97F109FAFB84363004CEDB4C80F5
:1011A00009BC78DFF67F4529C730766D91EE2603BE
:1011B000FB0602E58764C85FB01FF0FDE0413C011B
:1011C00091C73079C5FF7F7F185DC71B30F003AE34
:1011D000F8DCCE38193DD348F98C71C49DC630FE79
:1011E000981D8B723001DFCF98FB7FBE5775B949D0
:1011F000F8EBB20A2396300158B3B14656B304A1B6
:10120000CA65B311303339EB08D0FC0EDB0142FB69
:10121000BD28046FD02053FE25066319C8AF0235E0
:1012200098E230FE52210420DB0A1C332F2ED522F7
:10123000048D7999BAE740CEF13758E578FE40A899
:10124000939BA18027C598A68B7764069002196DA1
:10125000D340C809CDE722F8FA2064A57601F495B9
:10126000EE98053012C57D9841BF13CF98F5D8028E
:1012700034D44240F3FD2173FE8091B0B17F7EAC47
:1012800089DFCB98F50849F6A72BCF3063600C2C8B
:101290000B05012B3FA11740138522848B0511D626
:1012A00081FA990F3E9801BF8A981858E608A1B3B1
:1012B00066C878DBCB982EC8D705E0810C355EFA7E
:1012C000E6E557476464F9E579C58A12FFC360D73C
:1012D000C8E566BE73D39B036BF92DB3802C709762
:1012E000B321B040628EB35844A3D5B3467F3C23AC
:1012F00064204881F3B94070F9CC04B702F7C10407
:101300001082DA80062CB4206B3BC8410A6E2F3461
:1013100077FF08606826F33419FECEF7B110060493
:10132000018F79977C887657AD70603930D8B2F9E3
:1013300092360CF329DC4BDBC05F31696F52981099
:101340003303D73A8106C03DD657D8D7FA285BA4D5
:10135000F23030EF3546F398CC175B9730132DDA27
:1013600090BD6B209C12F605112CDAFDB2FA394AB9
:101370002CF7820131111719EB5210EC5F6334C85E
:101380008239DF0208CF3058040B624C5F50B0AE98
:101390001259300C19C85EA5948041190E794AFB88
:1013A000E6E33016F398B2C85F1BE298D3B830EE8C
:1013B0000F03FB8484B222DF8B30CFD8FD32038E43
:1013C00067C810834666BC03BC18D37DF3300801A0
:1013D000FE95C54AC330B32311BBB3301162FE4B37
:1013E0007E5B4E35B33010F0CC380128FE2B2BC875
:1013F000ED6379303136EA40FC30D81024B70A303A
:101400004C5D8E24A70C70303F09140104C19084F8
:10141000D938F9F9C82DD6CCF26B803034FB142BB7
:101420009AF530F9F31475C102E6F64F1830B7EFAC
:101430007FD051D34087B72E3044E5E3FF2DC8A1BC
:10144000D8428011A6A404C8E530028B7998E73F02
:101450009A367130CF8921FAFE803BCD11466F2F2D
:1014600098975FB3ABBE607DD95130098B7A980BEA
:10147000B29B034F4A9818B1CD5381733080FA590B
:10148000C869C63DD9F57816974D9571168B7A982F
:101490008392D36263D79630199C30D768FDADFF35
:1014A00008BE4BFF58C50443CB3004FDE58177DA15
:1014B000CFF23082BD6BE9B7FFF0584DB3F5026350
:1014C000FC30B3983C98B930444EB94008FA957F47
:1014D00042E798B4C92120BD6AA69120EE98C7A51D
:1014E00098104065C8AFBF980801022104304B0B2B
:1014F000FB7E36CE37FBE0300C5785318692E7799C
:1015000039AF357CA0FB96C8F91879461EB48D9684
:1015100003E625E799AED3905AB9609AF3E46CF4E8
:101520007748FF24C26E62738E12026FCD30304155
:101530008B65C8FDAD6FE91F09B4A721B968FB84AD
:10154000F3113001169F98B9086682DA0901BF19B4
:1015500060228C8409B0627EE85EC10223BC6B5AB3
:10156000D36BAF04229F64C382053020FD38FEE0B8
:10157000813C90DED26BC330D70369E498F3B1416C
:101580001CACC8BFD59730011DE0959BC430D3A0DB
:1015900003B93888F9CFF1E5A07FD1D18CBEAB1566
:1015A0000CEC124C66DBC598E0B7A6E561FD849DA6
:1015B000D3A0FB8092B3D70C01E1CB13B72FB3318B
:1015C0009836B35840CB4DB320D344CDB950FDDE4F
:1015D00098070218B440E63004803B5D4DB842974E
:1015E000018A7A9802BF8340D708219D98D537E5B4
:1015F00098E58DB1517B1210F92FC998A6102DD600
:1016000045F3938EF1309EEAAFFE3CDF16D58C0D8C
:101610006DF7E9E9FC891BCBF89806FE98B41166D2
:1016200072B0FA2A04C923D8F47E20309CCCC37649
:10163000CDEA7D982236E444AB0A1082E94005C227
:10164000B3FCFE09300616C10418E7264C0289EBEC
:10165000301020915D096960B8909630D6E699ED1A
:10166000FF1602FE98F6228C82919C30F8110860D9
:10167000414C9348B92169CD30F040AF8298B83CD5
:101680004699F37810B036F308A64ADA8EB708F513
:10169000981965C8E7F37A987AF2C6FBCCFFCFC0F9
:1016A0006BE0E57481301642F3B6FD5ADE80ADB3CF
:1016B000508DB3FD984041D31AFEA283E2D36CB99A
:1016C000B3FAB3B3C6F3C71AD5B3B0B54037B33521
:1016D0001160B341030AC9E43060E75D8450C6700D
:1016E000F8639F066518B3FAFFF8EFAF3215A3D27F
:1016F000E2DD55D4F31363F338D1D8D30B8CE0E09B
:10170000C638B8FB0C2C31FFA756B8FD28622B66F3
:1017100002173166B6D390FFC40F9F2317370BDB38
:101720005190FE65F6408818C2996697F661EBF312
:1017300001DBE2FB047F828AC9162444C6DE229EB6
:101740006E246EF369BC3A30FD46091FCCD798FF72
:101750009B68967D5BD30247797B8DF17EBAC90287
:10176000D7FB9F70FB30CC589F72FFDDD8F9F68510
:1017700008ADFF98FB8746C2FF397744CBE20848A3
:10178000FDB0ABCD19F61CC4FFB270B3F9D7ED0AAA
:10179000FD85864D5A38FB97F6CDDBF4634B290265
:1017A0003C9483ED39E6A8B3FF3D3640B2203F01BB
:1017B00080626AB32011E6E5DCBD6A7F5E0935F41C
:1017C00008ADAA98F829CC85ED036A66B605585F7E
:1017D000409F96D9A94EA1994A01DEA4B4457369E8
:1017E000546109C1089B80C6308D663289D5C35AC1
:1017F000778B3AFCF29FC4971A049B4A979633D48E
:101800004246D70A30E764F660FD4FD85DD7D9D09D
:10181000FDA7624BECFC0BBDA910718999E9D901B8
:10182000661054A1B3F116B3801DF6B190E51930DE
:1018300094856CF7618F7699B8FA36E1B004B3B647
:1018400017FF36E1B0108F4FA6FCE2A0CBD3B01942
:101850000C96FF401372CA01C2FE36CBC89636FA08
:10186000BFE611BF869363BF7FB18206588008D15F
:1018700066FD01823FFB802090F90F7E7F8DFF7B0C
:101880000B10362CFD1475CB8FFEA689F5B302889C
:1018900098275F932B5F58B3FD4D82D6A528171666
:1018A000B3EC96FF11356704621E98666DA385EA56
:1018B00065100866C11F34C8FEFB608EB3B3FFFE1F
:1018C00010971410AC1D202EDE9280FFC38E861759
:1018D000C7797D01613F9EACB266FB6250FA6176CA
:1018E000D9B0F9A85E69B50A52B3FEF3083B1430CB
:1018F00081CB56FC445798A869EBD6014509FB8972
:10190000F2E240D5DD08613FD772D926BCCAB302E6
:10191000BB110463A4C1DF4BF38057F0B0FB40441C
:10192000EEF76EDCBD104C80419818C26704C9E523
:101930003808A7E7A321FD8CF823B80B02705C39A7
:1019400001DC41E9007AD4018CA458678FC0088774
:101950008EE02CCE8819E7EAD8F96037F3B5246613
:10196000509A2E01A0404054AC828B114326FBE6D6
:101970000CC5B420B5D61031B405C8D826C150184E
:101980005340FE80F2A020D0F86094E3C07B0205B3
:10199000E0A2EF1C02F84011ECFB0510511848F4CE
:1019A00011024240AF49C68466C91842AAD0A601B6
:1019B0005CA8FAF2960A4BC47EA0C50CB35F93599B
:1019C000E86641627E60A320EB1856C0446E3C017D
:1019D000FD3B8271EAB7CE96B3FA10C63B82042C67
:1019E0005C2CDD91FBC69723CBACA01C58C802979A
:1019F0007BFD18FE201AE34F0B77E3FD657DB917D9
:101A000006D815E1BD8D2C84F9FFDA940418E7623D
:101A100065CB50FDC33004C7D61908ABE5103DCBEC
:101A200010BCFA75C2ADC791017BAD100279F9E423
:101A3000F3A75DA4EC0830F95F36D9021768B00D42
:101A4000B0FF8BED698F9BB6833A6ACECBB8FDF5BC
:101A500063C93F4C8F63D74C829BE6727D40D503B0
:101A600090B3FA16300208797BB71030419356F9DB
:101A7000847F8EB3FFB1FED3B678429FFEDC200494
:101A8000239728FD98F38EFFE38030A140C082BBEE
:101A9000425D7C09A211AFF63803088DD7C0FE98CD
:101AA000D446BA39D92230FDBCC246C95AD703FF41
:101AB0007148FA70BDB27B99D0E0209C49F90C8145
:101AC000B33C90B5602638FBF00518CDB20E809D72
:101AD0009D9FF0FBC6F3CE958C0450E54602E58C45
:101AE000CB4D343C6799ED02C4DEC6012303890463
:101AF000B94425485F30B420FDBEB8FE4BED16C199
:101B0000087F33486BCA82A37B66803130013BFC7F
:101B1000CD110122CA9784274B734C2993ED24FDE4
:101B2000136BFDA358FFCDDD07F0A3180F607E52A5
:101B30001A9003BF7FE01A3CCEF929EDF00880032C
:101B400021251EE028D3E8958B0CF6EC398BD83094
:101B5000FDE506BCC0F376730280A266B5EFD9B589
:101B600030C21BEDD734F483D3BB88CE576DC68308
:101B700040B830CA4BB38C015F805B89D3B34262FB
:101B80002AB32205CA0B30FB2C2E11FDCC28DE63B4
:101B9000B421FDCCFCFEEFDF0442C2FFEAFD36E7D4
:101BA000F59809897BE511205FA577FBEA412409B7
:101BB00037BBC764F93086CB5BF3411BF6E6720690
:101BC0005BB30AC68333903B09B8BCFE43CBDD93BD
:101BD000A0AF8B98D43F956404E498EABD109FC0F1
:101BE0008E01CCE8743AFC0852B8020240DD655020
:101BF0007F92988829C45B19348064C228B3195B2A
:101C0000945BFCD442C145B80BF6DBD798837D7F4B
:101C100089F7A8220637C5988788DB110276E72462
:101C2000F6F9A9FAD3D298402681C0B33C98C535BD
:101C3000FE075E1B2FFAF39865EB70A3F9C8FC77DB
:101C40008443BFC4A851FFCBF3981222B339CB927F
:101C50006F36D834666FF923FAED01C0A9B399EB5A
:101C600098901252B480B358E7D92C82856CECBCA2
:101C700068FA5AE9F61724EF5A9821FD1D8CF030C6
:101C80000F30A11408BF82DD98292208664C04E4B5
:101C9000A6485D8C807F3CD8F9637B136226B37EB7
:101CA0005EEC0CE90C8481B3FC7903719111610342
:101CB00095E99862FD6797B4B69807249EA8EF0E41
:101CC000840157B01CFD7F200EC0013412FD04B307
:101CD0004466FD285119C8F0989220792B11F59887
:101CE0001405B570191B21FF5C1A5EAFF4020DA03C
:101CF00001ACBBF8FAE826C164FA1360BDB506FD75
:101D00003293FD1746A07BFF1226DFC088EA984C6D
:101D1000F99AC69002CC4C2F8437FDA1EC190730FC
:101D200055EB9878B8503B27DB98413C11F198D39C
:101D300081E416B610F59807FA643AC60240775B5C
:101D400060F908F17D37F503601824E71A30F25086
:101D50001851CB46E6C657AD98E036E3084D40B380
:101D6000333930046249B3C1B3BB01DB988051738E
:101D7000B34EC716F87FB67810184FAB9880CE9840
:101D80006C19A0054BDD98912001720B1372FD892F
:101D900022D078CFC042585E0B09120D4D869F8C21
:101DA000A16697EB98408F59E230335FCBB3EEDCFE
:101DB000FBEC65F0C46B08034071392FE4FC3FED88
:101DC000D69818FE9869B5EFF67220B39938862434
:101DD000FDA780B30EC0817F25F21CF329C9C2B3D1
:101DE000986BDBFE0433CF9876EC241180259CC8D9
:101DF0004410D38948B3093019207ED0641A406654
:101E0000BBC3DB986BFC7EF317236101E3216DF408
:101E100032665E8BB1021F7B9810C0881895D94C32
:101E2000C530E898482EFD534CFC3069B84931ABB9
:101E3000D2A5788D5226F1B084A240C2FE60D80CA3
:101E40001097A098E2431E2DE27C98B8F260F379D7
:101E50006903443A6871B3DA0266F998FF7F46CEA7
:101E600024FFB5C1ED24882DE10677020C723C5B9E
:101E7000D1B3C4B2447D988078B3A3D3A912E5B29C
:101E8000167A4B04FF5B9885FA9801F5D7E811B3F1
:101E900058EF6E09144C2872ECD0D1F12DD82441A2
:101EA0009F1D309C2C2013C36A0DA7056DC40258DA
:101EB000C6080B2E3CED2A286DE3BE9903DC8DB1DC
:101EC000014E3630F59802CEDFC0801850F31C1A50
:101ED000815FE4F89ADF2025EA710EEB16F0C6194F
:101EE000F302C495B33CF28C70BC9859601E98A361
:101EF00070C18BD34EAFDBE8D2662446FFA47213C9
:101F000088F6FD81805024665D845E7573662211BB
:101F10006DE898683A8CA453B33AB33008C316C23C
:101F2000773D300C409001CBB308C766FA098011A9
:101F300088BDB126C048180B2837BD9846C1044853
:101F4000AE106930200281E8A2FB46CDC820703077
:101F5000E80302E046123FF3BD61E0800C88F230F6
:101F6000A0EE3F30D698E24FA5980FCE35B3FD08CE
:101F7000FBAC064F3F98684366DB2C9163883016B4
:101F8000FEB724E330D88999FC0DCDB372686DB3E8
:101F9000227D4B285D82622819C11758AC93888F27
:101FA0006898122C076EE9FD1BCA0642BC986D901A
:101FB000243C98C6B3C891EF14C082E130E0C20956
:101FC000307F3A30084801E9F158AE8436CA5BA048
:101FD000201866EE60C8C436E6303110FE2D303D64
:101FE000FE0CD069BBE330FC98D7A5AEF6B7AC6B5E
:101FF0000C4FD598E0FB8C039BD881384F3698CD99
:10200000C8F0FC7DDE461166B621FB7FC5F8DC8991
:10201000B51980A4E5A5C430D0DA053478983D48D8
:1020200004F9C8DEA3FEB973460B60EF224C10FB27
:10203000404F7D982C90053012897C7FF4C4182184
:102040002049C38811E11246047A80102361CAC86E
:10205000F598C9FAAFB503F6980F60F58340A796D7
:102060009858C89FAB98248E30CDC8E06D2AFE9852
:10207000BB032EC84AC7FAFC3531E5300CA7DF7F19
:10208000F776F5379DB6E3BF52BC18F7B46F8CF303
:102090009CDFDB0BFDCC21C1EDED220C65F528B3F7
:1020A00004F3D7ECC948B365BD58DE30E090059B1A
:1020B0001AB33A8B78FA206DCC26047DA72472F8E7
:1020C000105EF8F1D822088FC87F2BD7D4962B71D9
:1020D000A845307806C002E605696EA0285EC7FAFA
:1020E0009362437E9C40B3103A17CEF378FAC4F55E
:1020F0004210A2E7FC8610962289F6EE038E80DF5E
:102100006F49F3E7125BB3070C83D838DCFBE0F8C8
:10211000BF204639F4FBE335B85DD0C623F2CF6863
:10212000FC90DC4545623E98F89244082218B223A0
:102130002793DB347FD10318493EF6140180919D2B
:10214000C7FA84411D66DC2423601E4C9009E552C9
:1021500088A7E37F02312CFEC80226C0041821950F
:10216000932CFCA6122609888E3EA6108C0844915A
:1021700066F896748507F2BDF78378100FF2303059
:102180008DB77DD510621DB1FD880734401EC01685
:102190009371C808804E7A1E84BD980E2BB95733B0
:1021A000FAE902B78B98E37FB39FFAB3DFEE8CD5E1
:1021B0001503FE986BE78BAEC641EB179BED16C17E
:1021C00065B321DFCC1DE819485D908040883EB39F
:1021D00009060128182DA32ED910EA34F18BA60A7E
:1021E000086BC6119729FA76F006E728080120C384
:1021F0004C2477DB18733048041188FA981660E095
:10220000522C9AC8E0213BC68480885D8020CB5543
:10221000FF2BD0980C19A67527EA98C1389019D8C9
:10222000C6DFFDECD8FF40C6CEBE98BC0EB3889B7F
:1022300019838ED82892B40272DF1C88E0D72FD57C
:102240005A44707F0988F97EDA63FA980DF0F78EA8
:102250003B4EA0D16D340556BF10EF5630124001F1
:102260000A9223F930099532F3A0087B234982FDB5
:10227000989A84F80730200659D55E98E3014010FB
:10228000B233C82CC08045B60AF39723E7C3DBC13D
:1022900022771730211011E00A26FF2840049060B1
:1022A000848CA008CB1EF9E0813C77B0F220FB982B
:1022B0000260BB802FC8E330B3E83C6DE2E1E6D8B2
:1022C00066BD98306FC7300DC6F3C0FE985EE5CB93
:1022D000A8FBF07CB3C87B3704ED01318856B350BE
:1022E000C6B3BE9801FD6420E07506C120E68BBE32
:1022F0005ED121FEB3BF8E98E00402DF53AF2070A1
:1023000030B50132B33BA8B0FD0814C2481801A78C
:102310002730B0DDC0025E8B826069B345CEF81114
:102320008D99FF46B33EFFDDF8FBE04B1FE385448C
:10233000016719F3C7D119EDE6D3F94EC098FF61D3
:1023400039FF8BF54DB78D15B3248546663839DBDB
:10235000D8FB9FCFF6603C69BF01E533F8AFD106EB
:10236000F3FCCBAF02A5395FFD9BF49E937AF30893
:10237000C756AA087818EB6AB8FD8FD335BE23512B
:10238000F772B102E6C58017B3C917C7FC6500EF45
:1023900063FFCC46FC2C953BD3F0FC62DB3CBBD806
:1023A000CC3141C5178099E9CCC8B36090FF5E98E5
:1023B0002CA02C59CD10460D5F32AB30FF27C3E364
:1023C0006F76A8DCFBC2D3C81AF6C729FECB30F162
:1023D000D059DBFBD638FF3BEC5C285BA704761FAB
:1023E00080D518E8B2FBF76A82B4403FAE50FC8457
:1023F0002C10D33175D6041BC06C3AB68B5E8AF0B4
:1024000019B614F462280B09506CA6D92C6CCC2098
:102410004DB3207F8828E2A9F1248380506DE540E8
:10242000942EFABB90A04425E1021ED4F681420C02
:10243000D80801976DB144BDE2087A7F20CADE1743
:10244000B0FED81DF3211CEB211EFD5438FDFE68A3
:10245000581193E9408182CB04885619E0CD8C470E
:10246000D698FAA69A084DFFB8FF8CF4C9D86740F1
:1024700056B3D9C8FEBE82614F6C6008FEB41730F7
:10248000B3F356AA04BFD6D8F8FDD7EC5D40586721
:10249000C51BE9E8FACC4F4F563A2028B879D289C3
:1024A000EB86C0F966187549BB9E205D33347F9674
:1024B000A0B7F930F2FCFF584A599B2E407FB1A5D6
:1024C0002515F8A7D83222366190FFE68E7F4D2978
:1024D000EE0485BDFEB1FD7FB18EF3B63FDB4B5000
:1024E000FB2C75C7FCB2FCB65B3784C94EFA7B295E
:1024F00060FD63668416727A30C656B3203DD6AD51
:1025000073D5B8F9619EAC76024D92B0B0FD43F33D
:10251000520DB9CA806469359CB20987486640ED9E
:10252000D7F6103606A8F867985949CB360214E555
:10253000F69892B32CDF3D60FFD8FB30C756AE1043
:102540002838D9B8FC9E5D78E036CBA0203FAFFBA1
:10255000E3395585229DED2398FD9E8D63FFCB6D5C
:10256000982D200E04A902ECAB40BF9D362E4AAB3D
:10257000A31030D043D8639D14BC20D896A908FE80
:10258000D8F450FA2040E80D1CB2A41191F313EFD7
:102590008122FD311FD1D102D47150E01483B28267
:1025A0005FE4B4FF60030181269013041B0E2251E7
:1025B000D746DB1D488E093F0328300C2062091BDB
:1025C000888EAE0279D7C8204101ABE5A0C034EEB9
:1025D0000D86F544DA62A6F99906C0EF527F80BFF6
:1025E0001446EA47F324F10CF674AA678722EB102D
:1025F0004012F362C0D6813EF3220680105CA55CD7
:102600007A28F9C30DD94A403FCA65E95F6962FF7C
:10261000FD6ADA78F747FCC3D70C48D8569F849DEB
:102620004AC5203F6272E680C1D9AE70B1F84F5AF8
:10263000F2017D5589ADE50496E9046B3144FEB5A0
:102640000258C38045B2F0C0D38032B53236F82587
:102650007632FC042DB6A33EA867F734E9F862A6EB
:10266000B618E5646E490AC9FDF2088FF071A28EB2
:1026700031356A3523D3605FEC3C38FE93A00A7392
:10268000CB086ADDB5103D31A3B0B0F8BD2C0465B0
:10269000FEF041E36B567968FFC479D302638B6D1A
:1026A00020378E8534165EF7FFC22C5229DDDD08F7
:1026B0001E637D677FA918FA61869929E637DBE3F7
:1026C000B038E74C62FF5FB4DCDB178113F2F3E351
:1026D0007516311745E9289619B840C21D02ABA5F9
:1026E000A009D80422A3CA1A400268DBC68DFF03E2
:1026F000D367D3C4A0FE635E27633DECB1602CD9E1
:10270000C8FB9FB565F35D403062CAB5C0F97AB0C9
:10271000446870BC06A6E62C50FFCEEBBE7E7BABB9
:102720008C0410A015CE6818518FC03FBF8B295F55
:102730000A0C802130046676FE8CEFDA0B16A56554
:1027400020198AF46008581C130421E889050280C6
:1027500041A62FA6FC5441165A660FE56607B3F34F
:10276000E201B13C5CF9B81EC80318FAADE08AFB7F
:102770008BF3E722D3E081963CF85AB30CE5FB06D5
:10278000B1F3C6D62A19DD0803BB448143F346D30F
:10279000413006F8FAC5DEB34C028930C57FCC98CB
:1027A0005EF1A2016F23D319BF7F2CFD8209300A8D
:1027B000B8FD8A7A982045DB368385FDBC67FA52DE
:1027C00068D1F9266BE598E199FB0A10FC1BE594AA
:1027D00008924D794A9FEB98022756E31029EB980F
:1027E00080868F1C30CEEAC03346115301DFED984E
:1027F000100221D30845FE625E98B440F6E4A010B2
:10280000C73AFEBC28D07E22E9B1C2B2BAFBB12CD5
:1028100072A616E5F68B7F7F82892CD461B3216D79
:10282000BC155804AFF3E5329190F388F998346001
:10283000C003F3ECE0013C63F6AF788D660104AFB2
:10284000BF98E8012C2018FBB1043F58E503D79E40
:102850009866B710F38B5F1C6BEF11FA0632B3D991
:10286000B020BF87B2020DB31B964604FC98E7D395
:10287000301158B3FCFC98DFE772BD3422625E98D9
:10288000A302D7CCA09E5D300DFBBDD02866CA5EEA
:102890007902D562FEE52CBF47FB1780FD3BCF9840
:1028A000FDD6C0E65824CF46E0FF7F7FDFECEB98F3
:1028B00020F31D0882FCC5BD988C9B28FC2116DEE8
:1028C000032062DCB3F17AC9A521EBF9E6B3FBF092
:1028D0006DEA980B76E5888980DF7F656AF4468823
:1028E0007B738FA82ED315BDF3F492D5D828FE871D
:1028F000AE9802F5980197EB981255F809AF2110A0
:10290000C035F6980602DB943001F2D8FB08BFB65A
:10291000E582017E99FC0BE0608C4BBE2C30D87BAD
:10292000FBBFBE988C80012011D5E70A6AF8B80574
:1029300073FFDBCC64F92EFE98E98884055FFF679E
:10294000F998BF3DC4040834028CF15FB66EC81A12
:102950007F198124480402D8FA6304D1D56C342C41
:10296000ABFCB30C3AB1F6EE88FFC5FD98035E9858
:10297000B1087E5230782380FDBF49AF575986C8D1
:102980005FCC66E9261869BF5B15E5C8B2D4029B27
:10299000B08AF83BEB7F2DC8B930112C55FFB77FBB
:1029A0004DB32274091C666D779398A60198B2FC0A
:1029B000FD98047F9BB87330413CB690F3323F578B
:1029C000FC7864C8777C7FAF6CE0FA07E87B1D2059
:1029D00060FC1AE57D3091A6D07A1920CBCEC804D0
:1029E0008407102049B1FFA6B320122B6FB365CD29
:1029F000B372C8135C9EC8D33102A0CCFB7F2F5E9C
:102A00005C20443406D46EDF6DDBB9F7932DB7BC80
:102A1000989CD1281101CBA6040819CDC80891FBB8
:102A20003444735F153D5681486E196E862DEB4B0D
:102A30008E60295A08ADE8024EA03BE085F7DBFE28
:102A4000987A1910475C441655B2FABFA54C6FD757
:102A5000A8A69621C305D7ADF4CFB3F105E0B823FE
:102A6000C923D7DA8026F60CD430598E62B3E8C970
:102A7000E4300C96CA676F9CED6F69FDB861801BEE
:102A80005C7D7F7D2636F3424067AD9802B3C883F4
:102A900077B298813CCECD37FFF278F198E06DF9AE
:102AA0007F38D3E0C4013D6C90F96386303330C881
:102AB000D31C3F8930A9816FD6879E6BB2D1F5AF09
:102AC0004CB3023D98A0B5C06CB34002DD6FF790E7
:102AD0006037F756198CF6B608F85F2C7D81B43054
:102AE000087D34428AFACA406CB7219F1D9887013D
:102AF00020368944FE5FACA602CCB2C8B837C753B3
:102B0000FF02DD80B2E8DB660C08378C3061C35809
:102B1000B410F59804C1195DF4EC2765FA4B48CA66
:102B2000CBC8963922C60D77761750084701302852
:102B30002E66B99F3AB3FBF252FF5DB843C830919D
:102B40001B210216EE95400C6DD205FB1712E724EF
:102B50008050F972F96765C8BF1F3091C85AFD8F60
:102B600098B559C8B238BD9878070B68A301512CA5
:102B700066033F9630082BFE7F804010C9F49860B2
:102B8000B915A92B65FE328CCDF298CBC8156CFF18
:102B90002320CE74304C8441EA67F13069E4DD32A1
:102BA00095012598C8212C9EB24B96F5139E98024C
:102BB00024D7D7988177D3A0FC66799898346FCBC7
:102BC000D2403419DD080264F0B1D85FF867E398A9
:102BD000E05A7F9798DA2FF998DF5CECB8FD04AFE4
:102BE0003398B3C809628470E46BE7987199DE98F2
:102BF000FF289011301080FC04677A9846FFA79F49
:102C000059820580B620CB0634F883079AD2115F2B
:102C1000D802F07F8CF2841E2118FBCFF3987E2C13
:102C200030B1C8111E8F657A9805D3DD98100FE476
:102C30007B6B68FDB108BF319873FFFC98DBEB7FBD
:102C4000937088D320B228DB662C023B2CC85FD659
:102C500098249E9805AFA6988C5C326CAFFC5BCB39
:102C600098F1A708AC125F9B302810FD982604EE5F
:102C7000634003E730488010D858F8CF1B5CFC80D5
:102C8000B3D374A78C8D9DDA3003B6F4D0FC765B99
:102C9000C8F9987D5E8C7FCC0338B620483418F391
:102CA000AFF14812B3FFF2C8DC0C76D1A0406FAD93
:102CB000ED08DBB328014EAE10E3890803261804A3
:102CC000066C52FEA5B340BA3593EE4B3009AF5EA9
:102CD000ECD21801C211ECE111D3B691CEC0849AA6
:102CE00018BB60F048FA3011F39810CBC87E7630EC
:102CF0003D10078DE7900396665E789258FBE0BF23
:102D0000ECF40302C007791039D3403C8DB1F88C44
:102D100095C8D6E66B8DE7D8029A66367210FFA288
:102D20005EE55DD1C08030B1A0BF76983005046704
:102D30002DB104D6B4449F55DF46C4E298C64C89F1
:102D4000B310B1B3A3FF2F2C2E7DFFBCDDFF20B746
:102D50008D79857EEF01CE02F3CDFD322818EDBBD3
:102D6000D3808880FEC2E5FF048BB6E689FA34661C
:102D70006798C8E3D3BAFD018218FFCEB111B11232
:102D8000FECA16A086BFEC46E2262E6EE07F5EB637
:102D9000F36D9AAB80F3D9334DAFCFBE58B101C7B5
:102DA000D1CC849EB1034BF86089F7CCACA89811C4
:102DB0007ECCF63538FF030485FF988C2DB308F8D8
:102DC000B62B5FD99020BB916730CE70F818247A6B
:102DD0004AD8C6971901F4B6B55D3357BB5980463A
:102DE000FC5F6C9090BF51E514FC93E7BB9BDF2C1C
:102DF0000B8020594DF08B66282186406362C8A560
:102E0000CACB1356F3E0FECE3125AFA39EE1C9C372
:102E10004A2047017A9B81E6002110D0AACC52B308
:102E200044D2156EF9502D930CD4CFF44B300926B3
:102E30006A41AE744961BA5E4BE0144052EB600ADD
:102E40003E2D750405C8CD5166218A1F6DEB7C01AE
:102E5000F607CF1AE0FF885EFC4828A0086FFB52F7
:102E600005DF2FA05020FE0A61D7AC5904BFECE566
:102E7000B0F8C23937E7FD32829EC4364D205E5F1E
:102E80002EFAD5083CAEF358B3F76D64408CC3DF1F
:102E9000B333F8FE9B7B50FB37ACBD3A57FF10981D
:102EA0009877DBAF0225F798B0FB64E1CA946172B2
:102EB000B3B8C656B3401619B5CB192033EC5ED65D
:102EC0005E0180C9354A59E304595CECE0FF0C20EF
:102ED0006D27808116F8C027F408B66A9AD8A0FD3D
:102EE000B7511AF28AF11A857F7F6FDBFD020A7EE5
:102EF000CAF36309BDE50162EBEF04237649FE34B2
:102F0000BEA320CC0A7F17B8B1F8BF58A6404B9695
:102F1000CE9F2FB318F462C39ED8541822E57B7D50
:102F2000C7824F6E6401DD7EFF89AFE980F9F490BE
:102F30006163AF08F961E7ECCD02BD5892FD6DF613
:102F4000DD7FAC80506BF6CC08FD266F96904AE290
:102F500024C45B3BB8FB1BD5FF089479B1026059D0
:102F6000E95F204DD938FA8CF591854507DE3808A0
:102F7000F0FFC6FBB1106137DE2F3DB1308EA3FEEE
:102F8000470A175A01181191B38D87542D2F487590
:102F9000952BD3F380EA081DDD39D950FF1F520469
:102FA000B7DE2F9AA1AFDBDC6728B381BBF3F85EF5
:102FB00023F9F3C5FCAA2FD0F437B3F2F43CEDE3C8
:102FC000BEB2F018ACE667800D3501E8B912532A9D
:102FD000F919D28015F3907C6D210208C00E0520EE
:102FE000FEDBEE752771B3100804E90B1822ED0122
:102FF000006B4455BDC0ABAC6010722E061C310F87
:1030000040034548FDBA0B618086887B820203FF3E
:1030100050480828216000D04666BEDA685325B4BF
:10302000F2B157B26880D5F740A410E42052C18EA7
:10303000CE59D380BE7FD868FB8F6D9120CCDCEE5B
:10304000BFFEFCF44080108AE4773D01410CF2FCA5
:1030500002F47410044096C0E8FC639D7C637DDF3D
:103060002C91B6C2ACFCC6DBD130100979C0047912
:10307000DB9FE698E293E4C2BED2A781CFFFC68968
:1030800025F52868AC9B029D241AD53A10DED1B1F3
:1030900058C3191CE5CB0295A03E5D962E1366829F
:1030A00040C959EF10E2966376A6807434B3B040FD
:1030B000B36B2EAC64741DC26494408B6790611630
:1030C000AD1510CC349FDA20409B0C92EFFCF8C574
:1030D000BC71F3FF09DE960A0481106CB3FECFB118
:1030E00092FF23B4C21831A8ACB77B31DB5FD9D0D3
:1030F00003ADEB78FC9EA11DCBBA08165C5C04A660
:10310000AE4A577102511D8B760C509AEE0D206C11
:103110008018FB32CE7C08106CB320BEDC9A0CFB0E
:10312000D970FEC7D8AC19C067A9C6FF1E432D1BB6
:10313000604DF6063126FB83FD0FE6E9B0FDCE5863
:10314000398049DBA26855A8106556E466F2B3E8F9
:103150009D19300246CBF99317E56B0A2BFB14E758
:10316000CCC082094F66C0248008B903B3055DB0A6
:10317000B3F95ED33C9007019619032CB3B51CFC40
:103180002170EB26E041F2CAF0B0EFEE260EE0FD32
:10319000FDFA9C862CE3CFB30ACDE0CC66A5E90C02
:1031A000DA4BD8E0FD5CB37E9AF720B384A7D388CE
:1031B0001011B903B3285F6B796679A5BFEDA00143
:1031C00056F32125DD620820FE51B44235EBF59817
:1031D00043FF1A4B4D6C3BA564DE889B71AD2D06F9
:1031E0008CDA4B7D3280E8FC9BDB6D205F5804104D
:1031F0009F2042645A38FDCC7AA568E5A2F12DD50E
:10320000835BBC11FE349EB24BC6F57134B6116EB1
:10321000E38D20ED5CD01EC2F15FCCBD6A66166402
:10322000FE9F06D1F360627D63F680013002CE66B8
:103230008C8041EF439804DC0203E65E8BDC9AFB52
:10324000F75EA56FF6E2ABF37813E796E0810C71B9
:1032500079EEE403E201EF0A98FF1A9883415F597F
:10326000FAF6A857DE05F35F0562AB662066660CCA
:1032700088FEF73A20100493E6F3BBF866A0B3B8D3
:1032800031A4B38AB7B3FCAF2CBCC0195E67195B1D
:10329000C7D9A8F9DE989408F34FB3A03C98DD9203
:1032A000202D79BD9889B502F5984071237898EC66
:1032B000CE58FF5356C30129A027192BDA0C7F2EB5
:1032C000FA3D23F9E8B3FDBC98F1F39167FD80B9AD
:1032D00003BFEDCC64F9307870BCF697A0FA0467B0
:1032E000A39890B4EDB30A89E6C002C96F5F8C2041
:1032F000DB1B8EFB4E9C28DC38FBE5D82695D717C8
:10330000BBF363600C3B6FA0409509B70AF6988445
:1033100045FFDF7F98BF8C804530121AFDCEF798AD
:10332000A0070476EC4978B56612ABF8E901B60D52
:10333000FACDE330FD9820D71E481723A01B3CF799
:10334000E8FA081806872C7D615BD69810FFCC65DB
:10335000FDB500E6D9B0FBDE4BDC1106CB2C46B345
:10336000BB6FF6BE8501B0FFCC840ED38130DE0288
:1033700019CB51304F3B88303DEF1B984020135FF5
:103380006621FB1342B5AF09A6A2F526D0DB90302B
:103390000406B328F2C8C4FC98D99381A30193D53D
:1033A0008E60A7382CDBC295DAC09DE99808DD7ADB
:1033B000C212C4FD4BE4DA0138F664706EEC02FB15
:1033C00045BDC803771774B798E8F9184387B6AEB8
:1033D000110827BE9686013433C9A4192470C6ADDE
:1033E000BCDC3850199B84C65AF93046B3047E7F42
:1033F00007136104626E01843001DB57624825DEE9
:10340000063C7D7FED813012FB492C539CDFC88048
:1034100097C87130924CB59040F8626DC33019076F
:10342000D72040A1EF1034E430E0293C4F80FDC5A7
:103430003D98606BF686600215C610CD660884FC68
:103440007D47A587893BC601FC146DB30B6416F15B
:1034500009BEED642DB302B2C8FE15303CE6979B61
:10346000499B30F4FB2C7F85D14BEBD1012FD698B3
:1034700022FECEDB04027A980DE0DE8EC9C8D34866
:10348000F3819D2170FC8A7030B1FF2C96E6C7B99C
:10349000A809D92E6E7928FCF39B59B8FA8CCDAEC9
:1034A0003C30F3B6BECBFCD452065FDFBDE99803D7
:1034B000D647C6FCCCDDF70FCE3050F904CD3F66C1
:1034C000D65240DE59B5055B5E02ADE00ABC988E6F
:1034D000874D4624FC220C66D606B39FF930067A47
:1034E000F38BB2C8C4797D092DBFF93080733C4697
:1034F000C040871D9FDE21B01038B3FEF2C8FE59D0
:10350000300399C8B3403AF491E41837032221C636
:1035100011E906C8C20EAEE0763048FC082595C811
:10352000E69827B7501B1DF23002F2C63CA6660291
:10353000E530FD8A64C8B2B3FDA0406EB3B780ED3C
:10354000084CA657C8DEB0B35A14D9E0FC458791A1
:10355000EAAD223D9809B2424C1AE40E423903B05A
:103560005E768830EF3598F1FAC5D8ACF8AFAC98F4
:1035700020C521019ADAB503FAEC5BDF183BE28043
:1035800090FF2BD69802FE982C7F55670869ED981E
:103590000310CAC93CF198D5BFC8A917E65988FCE1
:1035A000CCDEA01009F134ABB11446B33421F5AE32
:1035B00003CEC9443480E387DC88A004061B52F59F
:1035C000FC166AD6A38C4647F3136204657A53400F
:1035D000DD19B07FD6327C88028084015E0816C077
:1035E000977D233ED641B0109AFFCAF6980F04B2D9
:1035F000C8FE6D300318001836D31D7E3F10E6CD8F
:10360000BD722603205AD37A98838EEDF698D0F8AF
:10361000FDB6D0F36E278C304F4E623CE066D7ADDE
:10362000174FD31991E6231966ADB31116E07067F1
:1036300091F08DA95CCB9B08D7B388F898DEE4089D
:10364000B3CE4530E9FE20D323C836F30F5F42C71F
:10365000095E8B67F8ED0B20D2EE52DABC98DB9452
:103660003041F8F0892030A46C485724C8DA762914
:10367000F47F934266FBC9F5B208C17AC8E7FDA0A2
:10368000FD4093FAA10336E6F298F3683CFF5A2313
:10369000FA98C0E1D3191DFC3015CAC9046E5BD07D
:1036A000F9D3013F2BC8CC98534F1534E051AE21CC
:1036B000F97A9882254404B33FE7320168F884AE72
:1036C00011356AECC72CEEFBB02003F393EC6022BB
:1036D0000C93B166F58389D7F9324360C96BD31770
:1036E000AC1348FC0250A03DE8FFE081FE98BF0605
:1036F000CD98B2C8BC9859F3E76AF9B2FE4B5C109A
:1037000036E024BC3024F37C0E60803C1EA0FAFF1F
:10371000AE1F591308BE982CF3F3B5FCB2D7AE64B4
:10372000E33027C49839FBE60878FB8045B3589D01
:10373000EB4B811953B310C0240C6A19E44804936D
:10374000F8FE5A28300210F820CCE230FB1EDBF3E2
:10375000012115FB7FCBE2CE98CFC83480403419CD
:10376000822C5E8BCC80A46FF90638FF67F22908A3
:10377000D8F6F53902B1E9CE7AD8F960C53D981886
:1037800066793D9BBAC5C05EE00E0C99C1FDD0FDC7
:103790007864C052FE627E9862BB804B690A64EC1A
:1037A0000DD0DA30D7BC20D3EF7B986AF880514F28
:1037B0000498FF1D98461206A66CC804A52018AAF6
:1037C000440CF3B3FF5F122BBA8130D7C029FB0B37
:1037D000C680F8902001E0F9C236E3307F3298735A
:1037E000C80768E7DB90031F66F41CE08079B2C865
:1037F000BE2FEF529883C66475C60818E6E56719B0
:103800007D9A15B4056DE7D8029BDF200853667FCB
:10381000AF6D3FD8322030F4C68DB3FEBDBAD2D9D9
:10382000F18001B9B30BC6B68819B31C882FB00854
:1038300058FD62FEF167E52E8FB9FFF8FB20CFBB84
:103840008070EE40171910C6F377EC32286DD380E4
:1038500080FEC121FF98D8FF24D1939CD1638C397D
:10386000FAF946192C7C10DF562840CE20B190FC86
:10387000DB48BAA0FEBCC9F3D479C4889773C53AB3
:1038800048B912FDDB0801FC4CB6B13CBEA4C48FA4
:103890006DD36D3017F0D34E56B9799815217ECC83
:1038A0008186F319FF8CDDCD3448E4CA1456187CA8
:1038B000B6B0194BF3E50856DB40C61B3AD8D8B86A
:1038C000F95DE6EB3466B6FEFB371E58C2884097BA
:1038D000D890FEF1DFBF99A0FD0FB3017EFA0DC8AD
:1038E00085BF7FB5805038404E4668EB0D5CFE8D3D
:1038F00099CBE6E9887104E5B11C07B2914153DB2D
:1039000067D718FC66AFD16031876E773FA0801112
:10391000A113187A092A40697DA6A0542002506E8E
:10392000DA181231B30F16E5E34FD9FAEBE3A166CB
:103930009B40A4FEC2F024F4501102935AAC0887B5
:1039400026F867997DE6EF3FE2795EC33FAC7FB230
:10395000DC7CB5BF7A025A9E0CBCB4B10650FDC7E0
:10396000D689023DE602FEDCD8D8F84E6AB101F5F0
:10397000DE88FF7F617FD9DACEA4011240D3ECCC80
:10398000123A635966FB2561C3FFC8FF60DBCB3089
:10399000025EECA30110911A3EB304F90F186117EF
:1039A000ED32C0BA95C77D2350608C19AF205839CD
:1039B0001022E9FCED0BD8FF944EB70437F3D5186D
:1039C000028A1E0DDC676BE670FB677EFE10C4F892
:1039D000261317F5CC2090CFD8E8FB5A3167E9D4ED
:1039E00093FB2A58065F3098FCB3CFDB030AF9AC8F
:1039F0000861CA6620CEF64398FDC5757A10662C1C
:103A0000D60122F69628F8CDF5B61418C76C55D80D
:103A10009CFC97D80547C27689CB26437DB0FEC76C
:103A2000BCB1C213207ED817FB59A4629962FF7201
:103A300061476C1702CFDB3D82F43F479C9DB53652
:103A400066FE3BB92801B9613B0328FDBC08CDCA1D
:103A5000F5C801BAC604C63FDF1046CCE68FAD9B61
:103A6000D8F937E8200219C5803858A7DBCC1C5D8F
:103A70001E8E402986E18120085C827D4CB94CFD78
:103A80000E0314A083F502D51328B90128602DA3D5
:103A9000C59EA7BB72A04068ED855018CC0A2BE9E3
:103AA00005C5A314F002D00A12734089A620D1B82C
:103AB000F891AA26C013CF831B40E24113D5F20A26
:103AC000AFFFF542100A044333FF010ED4811C10EE
:103AD000AB4227629C83225D6464FDD98DF5C59F4E
:103AE000E2343EDFE0C6B5CDC8FE9BD647E6F339EB
:103AF000BADD8145A8883AF88280FCCC41C0F30247
:103B00005FECEC68FF1053EB51ECCC25F50540E77A
:103B1000F536571CFE7699048BF11014F59E049D22
:103B2000EB32089B34B0FF13E55B409218DA40207B
:103B300087A863DDDDB1884EAE17B3D6FCE9C207B6
:103B4000FFA0FE0A639FE96F97B3ACA9804F8C6515
:103B500035E3CA7505049DE7B4369AD8FA16ACB9B0
:103B600004F5F510BF6C97502423B384D6CE2032D1
:103B70009F8108B86791B3D09FF6E3ABBC08CCF443
:103B8000639B6FB0F93CB4C385FFB882BE582EFF6B
:103B9000522049C0CFFBB6761204808D19F90F214F
:103BA00065A7BE2CFD3404610FF4270240AAB94575
:103BB000ADE8B1F876D40C02C2EF5BCE30AC198020
:103BC000EED7CE0398BDD6ADBE03F273BD9C0F7287
:103BD000F660DC19B863C5F60DC738240521B7D9DE
:103BE000320E19436004CC58B608E76D210CD8F8A2
:103BF0002301178A36D678FDFB21EC037810EE58A6
:103C0000AC3CD26E0FD58412A5C00F09CDF670FB67
:103C100091FBFC603DD030611066A6DCB30A08E57C
:103C200019FC8C16B36C0502215CB30819B324B8D7
:103C30007DCDF598218FED42B7A69822B341E6E6F7
:103C400064FFC6BE59CF587A06D7BBDB8078FE1713
:103C5000F2983319CCA84BB7EE142EB30B76F6516D
:103C6000FA0447989861E69BFFCC7BBACAF80591A5
:103C7000F67F33B61F37F877930D3D98F2B7F9F614
:103C8000988378CDFDF6088F19B9BE9859C8B20847
:103C90000C66323F68D698019E9896EB662CB3D896
:103CA0008804A7D91FECEC8013069E98D930FE3902
:103CB0004738FE8001EDD2DB41B359FEBEED4AE24A
:103CC000023CFDF5DD194047F0FA9810C8EC178169
:103CD000A3FDB31CF28D5AA220EC870641E4B27E0C
:103CE00028C868198210D9C20F3CF7B9CAE4B014C9
:103CF0009B56B30BD6A0FB475CC1D8657A9804C528
:103D000077AD1079AB92A1A311E9CC9F86662362AF
:103D1000E3F02D1830B52200F7DCB5DF56A02447BC
:103D2000AD98137D98D8B7FEF0980B96304067ADEC
:103D3000983CFE9BDFD1F90C4B9D96F618EDD816FA
:103D4000C07DCCFE98D8E0FDDF1930C9EF01ED470A
:103D5000892C8D609FDA7F82F330C0FB6FFDDD031D
:103D60006299DD6F2408B8B3B5D440F805C034417A
:103D7000B9D0C7682D0ED45221D366672E4088CDA6
:103D80000842B48593F97F02DD67EDE39FE798FD74
:103D9000BDAF363084F8423D20CFF4981076E6BEB1
:103DA000EB5E20C819F8C43534E8B2FA3C9882DCDE
:103DB000B2B4CFC4FBB9386AB98470C935BAE5303A
:103DC0005991ACFC112062D8CDDD1C419FBA9604FC
:103DD000FDCC14CBA1042F6F1F6CF2FAF89FD932DF
:103DE000017E98CB8C08A410EDA2B02CFC44BFAC93
:103DF00032B18E0E013019B240D4190E6FB310B427
:103E0000AFC47C98037E4B30D0B316DA965B252086
:103E1000233302B7F598101C8966641BD7E6C85394
:103E2000C8FECC0B72CCF6980C0496BB0977695887
:103E3000B47F024B026820D6DF3BC8F0F87E194BF6
:103E40005514CBB34133C8416E216E11215CDC4265
:103E5000EE4347C5066CEA7FB69878FF41739DEB49
:103E600098083F480AB68CDA4FCF375BCFFB0D037B
:103E7000AC40BF5B17F9ABB2A3C4DCA0334F812FBA
:103E80005872FB2CD7EB45EDDC3A17DF26C88C02C5
:103E9000CEE5303488F130B7ED2442BEF55BC63D47
:103EA0004590FB8411ABD9A360B322F930826A95A7
:103EB000B552503709C9DD7628FB320296E00A9FD9
:103EC00045BF02C7984AF9E0B681F4D218067736A2
:103ED0003038A0E649FF1C6C19B7105B19807B983D
:103EE00010FBD88801AF1730B19C302019BD167F68
:103EF0002E30203D66F30865FB98A0FEB28016B315
:103F0000085FA89880D3DBD6A040E5B3CD30C002CF
:103F1000CBB311FAA4D9B3247E6C96FE9DC0B9210F
:103F2000BD2051426FDB410A1CE530B0A29612D78A
:103F3000DB988CFD378C6CA118A4B380BECCCCCAA6
:103F4000C8EBA4CC66FC9AC8C818F5D60193C5097D
:103F5000F7CC997B7BA8A538DB40B72D3008D61964
:103F60000B8BB3082D835177DB6BAC5BA0FFAE7F6F
:103F70001B30E0086E35305AE253B6F623FFED40B1
:103F8000136029BF11CAC046B2AB89913D1930B543
:103F900011E5CA42C6F399FDB593E63001FAC8E6C9
:103FA0006A7A10D119F064E6C801CEFDB50C2DBDBA
:103FB00040B9303C66733058FBB204B2C8FE5BCAED
:103FC000C091C62EB12295E79817A519035F7F7F90
:103FD000AC987BCC977B191BB3F664B0C43F7FB41D
:103FE0008120D072F868E6EE3402F5D713AFB698A8
:103FF00008F84796F697149B98FEDE4146B3623D5B
:1040000017B606F3987602400A8ED3EE50F8FAC53A
:104010007C98DF2D770CD0BEB20033C81068496A97
:10402000E2DBA8FBFC7FB5E6F598309396DB7AFFE0
:104030002CCAF59838A1B36E390BF5D1FE91E798EB
:104040002CF6459F1B15F0343B69969421657998B1
:10405000A24711D5DF4A5E98647517AFAD98229BD1
:10406000333042374B15B2EB01E0E4B360B7AB57E6
:10407000E013B3989005E748B7FE60198378333CA6
:10408000986CC63C45190864FA980CD0C6BFCC0998
:1040900073C6B0FE667A9881DFC5E5371986E4B449
:1040A000ED64E6C830D3B53982C530B2E91159663E
:1040B0006BB30971B319467C7F097D82EA8AD0EC23
:1040C000B9C8B8B46F9AEB24D9E9CE6571307A9843
:1040D00004C8E530417EDD11C47C98CACDC880E5B6
:1040E0008AFDAE4908C6976F0B30AE24C8C472C8AB
:1040F000CE5AA4069ECBDFDB98FCF960AFD84D9F6B
:10410000D9D61D5DB22CB2C86DCB0757B30BEE49A3
:10411000FDCCF5989097E0982C12DF25E5ED2195E0
:1041200096C8E7E2AC66188EEF64436035EEF3980C
:104130003128186A02AF0C977FE037D86014973C9B
:1041400012828D04D39B3070F92399307810DD2CC6
:104150004EAE6F300C2025394F03A966EB1920674E
:10416000193CA00471C6B6F649E8F85F8098B280A1
:104170007930045AAFB4056DF5D8024B662DD57C65
:1041800098E375552183AE76C860F967AC981085C1
:10419000B3841BF16BFC08026FDBB102FEF94BC765
:1041A0003D7ED663239EB48D80FBC6CCFFFF51ECD1
:1041B000209D91C67963D354F99520CFE2EAD2EFDE
:1041C000D93201C0F359BF32BC28B58DE03C1C1375
:1041D00030D309666090FFEC98FF286866CE31D135
:1041E000C639A3FCC53C158FFF3235CCE359D562E7
:1041F0006AF8C031FE79A0BEADDB057EEC94D5280F
:10420000766307669AF37DB2B3F3E8FF11B082B22A
:10421000DEF48C59DEA6B47FD932A5B19B26FA2CE8
:10422000060B30861308FECC0B6FC7CCF867F1CABB
:104230009EBB63FE796ECAB0FA4BF3E50856DB40CD
:1042400012B64DB8F9363A633EEEB14006E590FF3E
:10425000CBDB7529F3106872B55058F228403EB197
:1042600030B566808A2CE901594FFE62873A985A28
:104270009F859A67FCF474EBA1029D19B3F88CD169
:10428000C3A53D6B216DE55A92E8F279F5824002B3
:10429000FF8020B6B8B65DDB90CA501B6DB4BA8EF5
:1042A00084CF2D79ED29051057B3500FB3FD14803D
:1042B000069958F360B0597AB6F05E664079B70156
:1042C0002D62EC9114244118216CF72D6FBF58809A
:1042D000CD0203FE08CDC6A8FD8BF9A88F99FFED8E
:1042E000D198FB8AFE5820C4FF3340B320FEB2961B
:1042F0000901BAF3D8C1FB227902E9FFF8B361A141
:104300002C9E9D7F58B16BFBD2801158CA9043D62A
:10431000172A74B310DBE488FD1C30C5B3967DFD0D
:104320002E427ED86D560ED8D0FEFFD7926C5C011F
:10433000246C66C8F8215ADBC0FFDB204162E78DA0
:10434000AC9060951908859F75B302FD11202CB3C0
:104350001216FF89FFCC5CFD61378B937A14FE65E2
:10436000E8FCC6F60F8DC73E541308BD3098B1FE69
:104370007EBFD22CA26BCC83F6CC78F9C2DFD8E812
:1043800004CBE49CFB60AD9B7B080F5BB318FF0480
:10439000B3660AF882C73B52DCB3FE7EA0C3A566B3
:1043A000D89219DA0810016067FAE510D54308635E
:1043B0009F1ED870FAD65E0ABA6146F68310FF2EA9
:1043C00019B120BFD8B7108BCAA8F8613F2C0220C2
:1043D0007FFB5C50F928CDCF591420FC956799DB01
:1043E0002EDE28FD12C5F913022C414DB980B340D1
:1043F00012AD08FE8FCBD0FC4D576A089BD87DFCD0
:104400008EED56BEEDF10478AE040222F81EF920BE
:10441000D7F6B150FCEF0DCF484301580566F9E6D9
:104420001FF1BD3F2140ECEB2904C9F8A0BEACE66A
:10443000485018A6C895A3A0FBCC446494B0D19D65
:104440002069E96190E4EC162028F41804739410B4
:1044500068A603814834A282F6F106434008E903C6
:104460005788B1FB8F58AA02F21781D0DC206D8CDF
:10447000D3FD91E351191E7AB120ACDBF90877D94D
:104480008110E9400428F430B2F85671013FD6FF9C
:1044900039CD504CFA8E723204C4560D102C00D90E
:1044A000D0F87E4B118D74FDB0F9A776962062D1BD
:1044B00004857CEFAB504004610B15E0F862FDD73A
:1044C000A308A13C1651A0FD8A8047B048BB4D62AD
:1044D000CDB53C13CC4019FC63FF4E62661E25ED42
:1044E000CB30F9826E98AFFF6D3110F82DC5166D87
:1044F00002C6663CB36FD61B4F9804AFC0CDD8B090
:10450000F85A35D20410B301D5A304667B8180FE2E
:104510002CE65BACB1D374751D80AE9956ED0DA041
:10452000F81CE351AE42ED47140D54441AF3679E54
:10453000D5D1B201550AA2CC5214110F0248100174
:1045400044D459A570B330DBF2E6180403F90CF239
:10455000D731F37D59A5012A3A80595D065EBAAE7E
:10456000584A300CDD52EA085F0FD8D01B96B06075
:104570002E0F7B1603C09841CE04686DE3F39AB00A
:1045800048F804F3F4E123D96D0DDF4F67AC6611F1
:10459000A2E06EC814C151F702576F5868FD76F358
:1045A0002B16025D048D0B207FE9A5C6CC08C88BB5
:1045B00060E1564520B3B24111928C27013022C1EF
:1045C0000A8064730122C2BE30BDA819073CFB0EED
:1045D000C0038A268894F34E5DF378100DE09FF6B1
:1045E00022C7EDEBA70F24F9013C8003F0AF78F36D
:1045F000F7FD3C2058EEE3061A3B024DED49F3A9C6
:104600006077D8C2C7F27F03027C686630895FC6D4
:10461000D9FE04668E08EED0FE09C0A35504081624
:10462000B351AB1A03872FC005028DC8991208E356
:10463000B29619FFBE389B02E06853CE19F298FA81
:104640008CCF9E285A0401AEEEB3064DC612BE8929
:10465000CBBB8C5E3CCA73CB32C9CBB5CD7F174A7E
:10466000401C69D3714AB79B98363E98F9C7D9F96F
:10467000D5B2A688E5FA609DC627AE3BF080183318
:10468000D6E041DFBF6ADFD288FEE009FCB2B65453
:10469000B3987FB1112319F302103D93480B041B0B
:1046A00067329D2102F4EFEBC96BFAEE794E59584F
:1046B000A3042103210C04B1222F817F51774D5F88
:1046C00093087858D11101A73BD30213014515492E
:1046D000DE98B92019C46E347FAB9818D6AB4179F7
:1046E000B4E806901B1EC0FFA901419011F32F2CC6
:1046F000075AE2FC97BD6C176192CA31E0356640FB
:10470000ED6618101EE0667F1725EE7204FDB2CB31
:10471000DAAFBC0ADABE32C91619EB26B3BD10D522
:104720000CDD4103F7CC92F0F1136EFB4C57E3F82C
:104730006F17341B26EC686CAF1A2698F38CA0C454
:104740007C4BF6AF28520B6DD2E510B241DB9AEBF1
:1047500028FAF345372B67E8EF596C818848B3F1A5
:10476000EC1901B7AB98C4C8D00CF6A260FED4AA6D
:10477000BB5160B510EB32B93370020FF3093498B6
:10478000E5BCA093ED9807C0A7855E7BC7FF0837FF
:1047900066221119E3BB1918099B90190D12CE85D9
:1047A0000401FEA3FED5FC982F40C1843BF70B010A
:1047B000444FE2B566F6980493DC765786D7A74057
:1047C00038621F33B501F298F3A54F7D98C00219E6
:1047D00005137569FA15AEFC237710BCD2DBEEC564
:1047E000E2A76CB003644466E5B390C6D3BE98DC20
:1047F00007F1F337290F77FE68FE5DFE6BE6F223C3
:1048000096312A665E6B6CF3BFC1AD0A39F6D9A545
:10481000F862209DCBCA185F31FC4F2FE5DFCC41F9
:10482000E62B9F48AD1934C26DB3C8FFB26EDF8569
:1048300030BC8B7130B3E028022DE151191009F41E
:10484000A66A3CDDE0FD96C8FDBE63E2FFCACBCBA5
:10485000C8CE603F0C7B93F8F96E3706F2986C6E09
:1048600018846FFECC80069003EE3FCACD057378A6
:1048700002724DFDECB5C8E3ED8DEF39504043FABF
:104880008C0967AD68A03C985E26F3A508DA119202
:10489000E2B8EA19D39B3883606F5D1924F95F127F
:1048A000B3B1896F1B984D2357F344C828D198049E
:1048B0003EFFD6D7E8FA9E98D8647A98F0FCBBC839
:1048C0002CDB5BD99806C8C047367230F0FE342323
:1048D000F698D0FB8D66B2F5CBED1720DC7D631E1C
:1048E00098B2027C9897A60C723039E3B38BF7AD7F
:1048F0009ECD19B3C84962DE9818541944BCF447D8
:10490000D32F1C2CF661FE10D76556E595ED982344
:104910004869AF19E5EBFF04FD9840594C7BF4164C
:1049200010EE02034053A8049758F96ED9B281FCE7
:10493000B1F00C4C47D69810625804DFC75E83E094
:10494000FB6CE6A3902653EB8B19EC035386CAB39A
:10495000A068E8C894FFD75F0768AE088B22F051C3
:104960001BF0FA6CEB534180ED8C5E195808132054
:1049700081B6312F1798C7E52AA7E7E480A2885AA5
:1049800077666448E9B0063AF9D3E782C080026FDF
:10499000F97F22669443ADB3625DFE9604AE9CD768
:1049A0007FBE2B268144980494F32C550B38FA6A69
:1049B00081EC064802EF589860972F300CF398DA94
:1049C000196040F4C230BFF3C898197633FE18A2BC
:1049D000D866CDD2AF31951566307DCC9797A88B30
:1049E0000F50B7E929B7F9FD0C0195ED981364E66E
:1049F000DB7F8A986925C1878BC8F3052769010485
:104A000030F3201003F0B305A0FB0BF25EFB0A6845
:104A10002249045F579843D8839F9F98DDB1285857
:104A200091E298C73E48106EF72D01F2F92D9F785C
:104A30003005408FED491A6669621A99E5C8E67536
:104A4000BC30D670F95F92FF7F84026020BC08669C
:104A500072A41EC4D0BE9FC5B56280B51CF298D4A6
:104A6000AF20B5701DB0F768FBAE7F721A018140B0
:104A700002446BEB98424D8849C5B9301A6FED98E6
:104A80000610A040A7C4F862FD808C05FD2FAF8200
:104A9000B85F62FA7F20F59860C69B2DA362FF2362
:104AA0007FDF32CE03080512EF2CF4E53490FF537C
:104AB000F945F01E4802382D0F7D98165E98B120FA
:104AC0002F2E982D3D1D32D3C882B7A998F1D381DE
:104AD0007FA6D50CA7FF8FA010666A4BF02F857DAF
:104AE000488BE5C8A7AF988177D3081002F030E86B
:104AF000B919FBB3E423589DC5B38C04A2B3108C41
:104B0000B3635063803B98029396F811AB8608F923
:104B10003030E60228F8C734B8A983AF2376F851BD
:104B2000387E1A400A480F01A081621DB178DFA2C9
:104B3000D5C0508390A8EF69434826E7E6C8FC92A9
:104B4000AD08E295A081F7FCF08AB810F3EFB19FB1
:104B50003CB27DBC7DD74D187DEEB0A1F8B3CA4DF7
:104B6000EA88021ED9BD26999B8372CB0CE056C5FC
:104B70004FB3C8C8AD56AB14D93EF30878FB0CB39D
:104B8000097F7E508108114C02DBD431213A8A82A0
:104B9000C5F32D417F6EFF2877A58882021EEA2B80
:104BA000AEFFEF1101C6E0307042758231D4911929
:104BB000FD038B60042C807998896AFBC073871190
:104BC00013F78C8580023E3B81441005851D796B6F
:104BD0006828FD3BF63CA0B783C4C20218BF0FB5DE
:104BE000DE309FF50338400FB3E4CBB4F5F90DE7A1
:104BF00078703DA3C3E0F9300E79F3DE98CAE0FB8C
:104C0000BDE320FC9888F02697F320FB980C846283
:104C10003C7DBF41EBCC2BC8C5A5B6C592D764F986
:104C20004E35B9A0FFEA7B205DB340F410E040B3FD
:104C3000CF5C0513220A8CCEF34BF93DA077A3F885
:104C400040B8C05219B60196DA438EB32250F98E9D
:104C5000DE7B9298441302CFC3F7B8450A6059C867
:104C6000678D6788456EADD06BE048FAB10DA04EF8
:104C70001920680261BDFC21AF2068FDF0FDAD0286
:104C8000396A26406FE5CBE69821C61FFD2469A747
:104C900049A33902B5E2A4FA7FE23052EA90EA1E53
:104CA0005AB3F971ED6E8370C6F628B39DF044C017
:104CB00002AAF30497640893B32E38FC6BE8C51A74
:104CC0001E2309140CD7614974092168F7641B6617
:104CD0003C9888090111C11944DA08408EB3420298
:104CE00088D360999BB948BBFE21BB46C6C06F42C2
:104CF000D0CE7B8980088B94C0488F65ED3F7724A8
:104D0000A11041C83702A37D8C7F1122C1CA24188B
:104D100065EA2C05F3B84FB33C8007045EC50979FA
:104D200098EC66F020DDF303B7491A9D9A66BAAB9A
:104D3000E8011C2F8326A5F00F6403FD98167E67FB
:104D4000C862A3104880FBFF3C980ADF8530477D8E
:104D500005FA2C6AB3DA5002AE1901D24DFBD9FC28
:104D6000A5D76B6944FCF3A3FB7A97190888B35362
:104D70001B4C1041B3E7BF034D358D66DA118044FB
:104D8000700FC004089C1973E414410318019522A4
:104D9000F8D384D4F896F9C034FF6EB366ACE80259
:104DA00049D38CD7FD20DD21E558A26F8ACE33F39D
:104DB0008DD180E0B136D398FB030487FF98FF2C98
:104DC0006151668E3139E3F818243B66C9FA082B25
:104DD000C01EB30C7344978873FF8D73CFE034F318
:104DE000CCD1FC679B5E8151651844B69F15F67D5A
:104DF000E4D3ED68B1C44BFB608FF5CCF67F47ACD4
:104E0000C528ECB141AFB1B126E450FBC4F2E4C314
:104E10005F58E5FE60CCB320FEB9DB965FFD192C30
:104E20007D40C5F402B266FDC12FACFE93410B8DEF
:104E3000C3FA12C6D6660231FD7B01089DF3D4EF9A
:104E4000806AF3D16CFBF6C1E03004805B8BC0F369
:104E5000FD7040623FD2A320C53D67217BF308204F
:104E6000D2F92220A098F3100AF140DC9F4CF306FF
:104E700050D7F72AA178A1310CDB7A187B9D420923
:104E8000800537A080029904690BC17775FD28FF62
:104E9000A1B69E9CB8125EDF770D482CE2804818C0
:104EA0008DE174EDB73D2473284602DC010430DA4D
:104EB000F8FD18DF68FF795CB64EC9A458FA9697DA
:104EC00008AB8D107166DAA040F38C5BDB4A0804F6
:104ED0002FD69D41ADE85CFA825F989862272C65D9
:104EE00053D667B8099AFC616F2CD24457D402207C
:104EF000EFD9E8F96BB30C253310613909B30B30E6
:104F0000F862ABDA800C561910C519E6F32E11635E
:104F10008B9008237696FA4A5408C2CFB72C5A824F
:104F200001FFBD18F8608E1B4BB3FF04BF32E5BA1A
:104F30009E1B12FB09098745C350FD61622640C6CE
:104F4000B9E840B3FAFE87C71662103255B1386D22
:104F50002C15B15EE35A3D7A90B0F941FD8701937B
:104F6000967B1F65C67D3DB7D83297ECF102345C65
:104F70009EA866617F5A61E9FD926BB901F670B82F
:104F8000FECADD76206CD6D804014D966D4BD8084C
:104F9000F9199001614F2C25014937C8B2FBCC416A
:104FA000263172469188FFC58C8531FE2788FBC368
:104FB000EE23D5B265C7D8865CCA9602FE517DBB8A
:104FC0007A98FDA312020AFFCF0165AD238017F482
:104FD000043AFD18FE02CB40BE290580A0AB34E4A4
:104FE000AF0431E6CD9488E0B87E5C2EF770AB3329
:104FF000CFB081FA03DC0436689790FDA99220B106
:1050000002A450B529D8F46087EFE010036650B9C8
:10501000F8D66139BEA09585C80A03CE00F50920EF
:10502000F0CD3021847C77D29D12BF8269F622F3C5
:1050300008E7044240FC20A0D92226FCD829FF77AB
:1050400022F413686001B2EE3004844E3011CC0CAF
:10505000409621B067ED7F4257CD041854DF2F2FC3
:105060004035D8000CD1D3C0A5F8E108A1ED95ECEE
:1050700079811074CF2C7957D8A70880CE7BF72080
:10508000040241CFAE1B042EFA0EB937046597F621
:10509000AF98021652006F48DFECC5EC88F57F9C94
:1050A000BA6DCAEF026E67E8FD3212FC7BC2A36ED6
:1050B000FC9AD9EB80B610DA49F3E70FF78DB8CB3D
:1050C000FF0A303890F3191C58BD0496B6A170F948
:1050D0002DA68A305762EBE358B8CAC5BDAA8061D5
:1050E00066F62E8058596619AAE6F12646B690F360
:1050F000658D79FCFBBAFEC3C5FF209259B63858BE
:10510000B31061AB20803945E0B3F80CBC7C1A5B6E
:10511000201B1FE937BFB2A708F8E8C936C931F329
:10512000FF228CB9E3733583E85D17E6A4802490F1
:10513000922C10E7E48924DA8020CC9244B3625F99
:1051400024800420624951919347D3305E20889790
:105150002E43284A6D24C403F0F940FBAD0657D610
:105160000C9D8BFBAF0319586B04965EAB30A6FF0A
:10517000B3100488E09BB8A6E0197440B39B11CB30
:105180006016FBB565B3012C83329FDCB24066A686
:1051900001668840E56684212622A6D12308C5B38E
:1051A000C612CC2208B309D2F824AC02DB92A74184
:1051B000D2959B38DAFE30D962A8CE0523E54C841F
:1051C000436FE746C018FB0B60F6044C888127E963
:1051D000F026D8D01811ABFEF505302040C202FDF4
:1051E000C15E803AB90120D7FC3C80033AF51EC06D
:1051F000FFD907E04149DDF1F73EF379100FE0C434
:105200009A640CA04DD81EFD786A914171C601E0E8
:105210005DE1522903B920D0F8FF52A05E935703F5
:105220007DCC377306417E7F606CC980511706972D
:1052300004D8E847CDD330F3C0FDF928BD1F69F984
:10524000F9B322802369B301B386B99019405FC1D5
:10525000B1A367B3200426764A9BB3D55A092FC061
:10526000C474EB014410B3CED0F8FA14A093A79203
:10527000A201E1248122AFE9EB9044E102B1244F85
:10528000D17E04290B80B3FC98F2F35EA311D4DF26
:105290006CFAE9C5016679D6EBE2C011FBD6631D55
:1052A00052FC581910834B90F9471304E82DB99517
:1052B000E182F6F1675907DB734BF9705EB75F3B2C
:1052C000DA537FF88BB0022274ED9842F2D744048F
:1052D000BA4516C014EB6417F29839CABE68019536
:1052E000EB9808D89EABFA876609449508B3F83F57
:1052F000013A10056EDDC404F698828CC539B00100
:10530000CD1004D320FFEDB749E6EE242C9E1F01FB
:1053100061FD08EF1F98F50EC88378E6100760D48A
:10532000801E7040BD987A120FC4DDB40C9001DE6F
:10533000985EB5049183B05E8E9A18D304F79850A6
:10534000FE1826AD9A0147702B66E90DD6068E80B1
:10535000D3CC984CB3FFDA9F1875F399F3CCB91BF3
:10536000ADFED24508534CE0C01A808940B361635A
:105370004AB3025FC01AFDDA8045B7FD25400A2016
:105380000834B398FC02AE814030825E988D890962
:105390007FD737363048022DE598FDCC0205FC302A
:1053A000120191F3280DF568A70130AFFA858E043C
:1053B00041961FC27DBE97B6200B665214316623FC
:1053C000EB4E2E53357DE330C56EAEB7FBF903418E
:1053D000401AD59F08EB4181D4A304F668ECD3882A
:1053E000FAE802145C30A460F2489E4DBD164044B9
:1053F000B930608E01C576E4FF3CAB19D343F32787
:105400006612800472E7FFEF66DF4602AE217DC0C0
:105410000C8C81890DDCAE017B98020C628AB30191
:10542000507950C0BFC4F0EDC06E19F0DB0BF17FB6
:10543000422BFA9A778807F798C083780B0FE04DD4
:10544000110771AF2C300257C698E80667C078FD87
:10545000E0405EE2BFE497234070300BB8BAFEFD37
:105460000047BCF22580FE987FACE520546651BB16
:1054700039A71C301A376618A9F302B9F0A6F81933
:1054800041023A274CB38488115FCCAD0176428348
:1054900020042AB343D4C0057AB39177FC26C1B760
:1054A000B3140CFE18FFFC9EC8DF926062270889C7
:1054B000245C3047DA723008C67930429B50D4847D
:1054C000F93040A30286BCFAFD391566207842AD5A
:1054D00009B2A34CBE6BCCE6D107A870B43D70FDF9
:1054E000DD9177706408035AF28820CEE33030C52E
:1054F00082DD3CDAF1D323796CED9E38FADEE59853
:1055000022FB90180B0A5A4C8860D5461431AE3BEA
:1055100030C456D90792329012F78B0184084BABF6
:10552000E1B3C8219D12C75808D9D5E68405026A9F
:10553000C013BC4B6CA6084FB1B106EB024582D339
:105540002ED741DE1C08189A58428807E621BBF97D
:1055500035C807C75D78A507705D3AF02EDD3123A9
:105560005E3D30D3D0ED037A403930E401DC2315C1
:1055700066863C05B016669C020EAE83BFAFD69819
:10558000C435C47DE04AC304E3F74566C41FB6F4DE
:10559000BFB9D31AFC05122623B50B139D60D89012
:1055A0004966C8C0C6D7B31017B3966BEB4911EB69
:1055B000CDCE4BF5B782D9C8FC68F8B001042111F3
:1055C0004DA5507A98210AE030979867C84A02B1F1
:1055D000894ECC18908620A36A3BB930844AF68065
:1055E000E0DF52891996F6FAF948A503D6827D3C88
:1055F000A64EA6390C04C54C19BF2397DBB83BE077
:105600003940D0FEA4AFBE17D2B379C2FD64A0402A
:10561000B08196072819A304D386C5DD01E3BD4EEA
:105620002230D3565FFEAF5B85E268F6984484B9BA
:1056300030229782E17C55B1E745FF26FC3D787624
:1056400014AF29F3F641B984AB2A88F87EF5112608
:10565000C4021856B377C890897D3277EF1360D8AB
:10566000114C91B67FAD16C129D3F7114AFD30E038
:10567000CB34185C5C035934FAF0FC68801CF0A54C
:105680006BCBC5CB988D30BC981B15E330C4D32DA4
:10569000AEB05A303CE6BB385DC69EC840FB184BE6
:1056A0009473BE1FECD6C882F65306429C3062FF4C
:1056B0007F47D3EA8A80BCF2881BF35FD3CC7D613D
:1056C000FD28105722B2E093600FFF474B404EB3C6
:1056D000200484C48BB6F7478684B3AE011B30C068
:1056E00022F26E6EA746F09833FDF704BB8AEB7F7B
:1056F00026D57528DBCB988C3057DA988114CBC827
:10570000BCE3FE3F308DBF39EAA40368FD6ED9408B
:10571000261FCB30C043F01558191099EE0119011E
:10572000D9C86BC94403212DF934FCF38E17F398C3
:10573000234D57FC498B63FBFF60F897CD1638F17A
:105740000B6201F7807B98C8887F1830AF8B98DF99
:10575000639BF8302D42C777FF7F012997FBE478E0
:10576000342A98F798122C80AE89CA17C194F8721F
:10577000768C2BEA9844FD8C03FAAFA15139675E11
:105780009878B31E01C9FD77EA0DA0735DC8038543
:10579000790FBBE4DA987040CAC8E33015F298E399
:1057A00045B2D5D79B3031204E1830513CBEC0FA9F
:1057B0008441BD98016BEDA580812F938231F36FF9
:1057C000A37FD34FB534E53040DE985FE95EE5F066
:1057D00092FC8009AE08F8CC6ECBD5FC98421E71C5
:1057E000B389F9986EE826D3E4856080C6EFBF5888
:1057F000C98B15B0E10858FB7644A480DE98E28995
:10580000240970804010A500F3734F8409B1012E64
:10581000643040087D5E102902EE2030D33652FEFF
:1058200098DAC8F9E5C8E219BF85EAA2A70B238672
:1058300017C9BC73466CA7A378BDB839EF3E20FEEC
:105840005EF7B47F969845666AF39D11FDE0018B83
:105850006C494AC02FC0B87F2E51F3B3A77597800B
:10586000F9F0C69DAA4211F7984880089A06E342CB
:10587000516523468AA76612E5980233C041C28467
:105880007EA9B698A9120204BD9818E1FD801134D2
:105890002CCBF8F54C8089B01214AE7CEF8B608273
:1058A0000CB1182F0198269A018608F16BF4A745D0
:1058B000B3C044509E04B3228010BB31F8FAFFC03D
:1058C000011D90E372BD98105E98F03CA00174D762
:1058D00097982C30424FCE98F46B0ED7E07A1D305B
:1058E000FBA9F1FC8BBE9CBD98E8D7F984DA29E4CA
:1058F000F5EB548081611F80C733C8045FD947E04E
:105900009647880FC60F4ED330A2F9807515421600
:10591000B2C626B93D88AC05C06E08490C61E0628C
:10592000BC305E6BA54C932271301DAF94BB19AF98
:1059300020F0850940FD5175DCC8880134240D280C
:1059400011256802F0798BF9C8B1200F519886D3E0
:10595000FC3065FA984DBC9852EF6610FF358CEB21
:10596000C3F4928C195F2FC8E3902B8F79F59804BC
:1059700078DD7C98FCB8CAEC68FBC816B9300D59C4
:105980002272B341B2C8C51716011F60A7F9AFF65E
:1059900080F5980CDFFFC4D0FA30AE116502E2C288
:1059A000AC499A8D221456F62358C88ECEA1C880D1
:1059B000A096F9489FC1BF80AF64F5980CDE9806A9
:1059C000FC99EB42149781500B5C3D8F8030E50AC7
:1059D00016C0CD29F314B3305E326A716EA8CE09B9
:1059E00026881021FF2E01AE17D38390B3222C5EA0
:1059F00098F50938FB609FC801340006D7D0833F73
:105A00003DE8013C8005F1157A9879ECCBC83C3A29
:105A10006DB6AC2C66C0C831920EF6D3B2C80B92EC
:105A2000C61EDCBC6B0A03D3FF5BC470CDAF131A78
:105A3000C5D641F5E5C12FCA83CEC83080D5B35055
:105A40006EB37E51C80AAF8098769A08FB981068AA
:105A500098FAE6805CA6C044BDEDB31125B319DF0A
:105A6000CC7E4BC8F36FB6492F111150B30BE9D55B
:105A7000B391F180F7285877B14C0126D3DCFA585E
:105A8000E6C9FF96B363EDFFE8FBB7AE4B40E31DFD
:105A900038F3CE35D13FE0EC05F1D3F480FDC303FC
:105AA000FFCCB145E9C8D8FA2C5466638C39F2F9B9
:105AB00048312D4D44748BC8E6393120C4FEB9FD00
:105AC00035CD2EA45BCB10BB9768FB08538073E2E7
:105AD0001AFA913280FAA9F3885266F6DEFF18DFCF
