:100000000C9417460C9436460C9436460C9436469F
:100010000C9436460C943D4A0C94A14A0C94054B22
:100020000C94184B0C9436460C946F490C9436463D
:100030000C9436460C9436460C9436460C94364650
:100040000C9436460C9436460C9436460C94364640
:100050000C9436460C9436460C9436460C94364630
:100060000C9436460C9436460C9436460C94364620
:100070000C9436460C9436460C9436460C94364610
:100080000C9436460C9436460C9436467F7F7F7F20
:100090007F7F7F7F7F7F7F7F7F7F7F7F7F7F7F7F70
:1000A0007F7F7F7F7F7F070007047F7F7F7F7F7F4A
:1000B000077F7F7F7F7F057F047F7F7F7F7F7F7FBD
:1000C0000F7F0E7F067F0D7F0C7F7F7F7F7F1F7FDF
:1000D000177F167F157F1C7F147F7F7F7F7F007FB8
:1000E000277F1E7F257F1D7F247F7F7F7F7F187F57
:1000F000207F217F267F227F237F7F7F7F7F7F7FDF
:10010000107F197F1A7F1B7F137F7F7F7F7F0818E7
:10011000117F127F0A7F037F0B7F7F7F7F7F081015
:10012000081F097F080F027F08197F7F7F7F7F7F6D
:1001300008027F7F081308117F7F7F7F070C087FED
:10014000017F080B7F7F08077F7F7F7F7F7F080706
:100150007F7F7F7F7F7F7F7F07037F7F7F7F047F1E
:100160007F7F1C7F1B7F7F7F7F7F7F7F037F0810C8
:100170000C7F247F237F137F7A7F7F7F7F7F08110F
:10018000147F081908200B7F7F7F7F7F7F7F7F7F11
:100190007F7F7F7F7F7F7F7F7F7F7F7F7F7F7F7F6F
:1001A0007F7F7F7F7F7F7F7F7F7F7F7F7F7F7F7F5F
:1001B0007F7F7F7F7F7F7F7F7F7F7F7F7F7F7F7F4F
:1001C0007F7F7F7F7F7F7F7F7F7F7F7F7F7F7F7F3F
:1001D0007F7F7F7F7F7F7F7F7F7F7F7F7F7F7F7F2F
:1001E0007F7F7F7F7F7F7F7F7F7F7F7F7F7F7F7F1F
:1001F0007F7F7F7F7F7F7F7F7F7F7F7F7F7F7F7F0F
:100200007F7F7F7F7F7F7F7F7F7F7F7F7F7F7F7FFE
:100210007F7F7F7F7F7F7F7F7F7F7F7F7F7F7F7FEE
:1002200008277F7F7F7F7F7F7F7F7F7F7F7F7F7FAD
:100230007F7F7F7F7F7F7F7F7F7F7F7F7F7F7F7FCE
:10024000017F7F7F7F7F7F7F7F7F7F7F7F7F7F7F3C
:100250007F7F7F7F7F7F7F7F7F7F7F7F7F7F08158F
:100260007F7F072408057F7F7F7F7F7F080D070B37
:1002700007237F7F0713071B7A7F7F7F7F7F7F7F27
:10028000071C7F7F7F7F07147F7F7F7FFF1F627F39
:10029000C23C006088FFFFA0089001324006C8C63B
:1002A0000019FF03050A4414812241CF068AF32076
:1002B0000365FBC00C94290034FF7FED81325006AA
:1002C000CA54F919280366A0F3A7A9C68800983C68
:1002D000D364800CFFB9F0F80015E0025CF8800BE5
:1002E00070012E7804687E2AA002F467F350F3C0F0
:1002F0000598A8E6A06CE4B312F8E054800AD07B1D
:100300002A4045E054C9D374D3E6B80017B9605801
:10031000B3B2FF10060240333DEA40020806012056
:10032000360480D1E0086530E4D8F9182433FF980A
:10033000FFFC2001E698C87A80E5FC308B20287B02
:1003400005A0153DCFA002144F16190A400148E040
:10035000B0D71428CA41514EF0B9E8FC68F288B30E
:1003600096C128ADD12024DF972734A184040D90B5
:10037000216CE201248AA8F98BF041338810DB0359
:1003800077DCEE07F0A08098FD5C74CF5028D20394
:100390006008A4215B2281E50137DD6136C63401A6
:1003A00073680194FE9006C00203090B5CAED30D86
:1003B000377A1A40879B379BC0FD7FE21EB301E26C
:1003C0006CCA37F3202CDE10D5B3800BA2B380E0CB
:1003D00023D335E308D170FEE002B249E07823333D
:1003E0009B30F7C008EDFD03184CDEF7B32006F094
:1003F00025C9E07FF68401B930C31E0DC074D7F063
:10040000E688FCA885F5F49362CCDB22D42182E84F
:1004100082F33D4440678EB39316C869F920B388D0
:100420000B81B02941190244AEF13BFD68FFD41B9A
:10043000014D9F90FA488005A0BC08B3134105A365
:10044000670C35C7404C044104DDA648DC402697C4
:10045000D981B8B3903006DDFBE00111909D0326F1
:10046000F307E4011DE97047F3FCA9B34690B460BB
:10047000392C9007E1C006D020CA19C63CFB4D19A3
:100480005002E3E6F378BDFDDBC279D679DD78EF83
:100490008485C67D67302FB6FB5F5FBD80F3026A3F
:1004A000E6F570FA8021EDD8C04839BC60440C4EA6
:1004B000AF30BD82E42172FB11C41BB308A68BE3ED
:1004C000DFE58C8811310A4BB3984F4F7284B368C3
:1004D000FBA09D11190650EC290C45BB3EE9726644
:1004E0000B7FB69804127F7C4F04A202C1698BD89F
:1004F000AE088CE0FF68980A43F3BFBD34075CF98F
:10050000DC80815346B5EB4FC06F379837FFFEC391
:100510000680D4E0FFAF40B278FFFFF0DAFEC07A89
:100520001A1E68DD18A1E5F5E017D09C8BE06AD8AB
:100530006ECBA164EDCC71F07B1EE801BF10C15BF6
:10054000E90260CB01AE30E017A811B9931B05C7D3
:100550007FAF71D03F66B6C210711979786DB8FF60
:1005600052FB0C8029200481B4680160D597B33B0D
:10057000F07D8C432F049360C1012047AD97601C30
:100580004BB367F6FE316BC040C9A1F50173DE4085
:10059000165FC92BB8C1704345E406A9FD6073B46A
:1005A000B029192640EF0BE28125235619CD5B1C9B
:1005B000089AB3FCC0011C80052259064E9318D33B
:1005C000C62D5E983DBC400218C8190C7C68F884A2
:1005D00006DD447146FFBF6E1967971A8B78D351B9
:1005E00010D346FBBE98B8107C1E53FD0E09029D29
:1005F000B322180436C04C90CEB3236244E5E00425
:100600009EB3EBB04046AECD7B492C0249A0D7A6A5
:1006100008B2CB40B052B930354349EF40772FF79D
:10062000215D7088E7987AF294CF63651080D74295
:100630001D30EF9881A80134F84080D04200DA02E2
:1006400068D0E9F0B4F6E8F8FEFF44B3BF641819C7
:10065000A7167CEC95C19E14BDFBF74766BE19C872
:10066000F980413857535D64CD5D0E40AF8D4BFD31
:100670007889A9B4606E06B5E2F7E582013C8BA0EB
:10068000F05E37D70270D3BF6C58FDE9041134F027
:10069000147B660D207A8E84E3D3D693407AB1041E
:1006A000B8CDBA64F6A984B0B986229E0266680401
:1006B0000C4EF7D310FC0409D1DF06C01140B9FE7F
:1006C0002EBB04EF3859F620C81A911642BAA2E39D
:1006D000240804D731B3E822181160181F04081049
:1006E00022E0D0FFE0255D70C526ACB9E04106DC14
:1006F000307FC14F67F898EFD30521F098D507C830
:10070000232070F43E1CD0027810BF9C3D1B28F9BA
:100710009788B5F03DBFB6EFAC37880019C476496D
:10072000FF3DF20F405BD932FC187AD7C098DBF955
:10073000EA8FA3D8B3865CD261FF59980AECB33430
:1007400009BD2EC441EE0C9005F9DF3C0974171168
:10075000100C2EFEA0810C80FFB3420A418360087A
:100760008C4575F525ED2D236CFF92B342FD981451
:10077000FF894008020141090CD711850343766BBC
:100780004210735D4D9E14ED0684FE5873180417D5
:1007900060F9982E5940F598108A7898BC269AEE00
:1007A0005907823910490820BCEBF9C001D1C52294
:1007B000660EE018FF6D9880073830FFB3F9BA175E
:1007C000B4C964D332FDA493ABE0B8C6761BB7F6C8
:1007D0000F7726EA701949645E16C66C012167F925
:1007E00098FEB84266EA9693022065DF0824DFDEB1
:1007F00044212CA459DF716ACBFA899AD61BFAF4EA
:100800004509E69648186601378084055FE920F3BC
:1008100009086BB6F673B50910FC2114C0485808D6
:10082000CF8680C790B010BB065F8A23600C24027D
:1008300026E4F7F868533DB04E70111840BC98EFAD
:10084000BB4FF222790E8C4643DE982D8003E2EEF8
:10085000430358D20B680C07B88D6EF37979190CE5
:100860000868F8B6B23134B3D79E30180803205068
:100870000E5B2621C23005EF92DC3AC3DBCB8BCF77
:100880004EFF6E08ABFF01E9ED42B49621FEE0B3E6
:10089000BB23420214F44B206D16C83FE0134024E2
:1008A0004C82055DB1778B1CB3FD3A01F1C8FEA007
:1008B00005D777E1021A77738CB073B350223DDF0E
:1008C00063600CC6B321CF30B0802008F5024340EE
:1008D00089A8DBA0CBD3FA107A054D2A0D212F630E
:1008E000D0F398FBBD816FC6302FD7B1F23004E34F
:1008F000AC435971E99F72FB28D3D498C1E5AF830B
:10090000860FEEB5173F162C84FF4C9838FB32BF8C
:100910002B65B6C6FA8545B8EA988279F3C0FAA87D
:100920009195AF266F274910FB055EED64020938EB
:1009300043C4393041770455FC0B010A2CB05110E7
:10094000D1D3751179983959046AFCF7DDB0089D47
:100950000A8802CB1344FE2882403FD650017FBE56
:1009600098024210C082002EE410905AA05CB84257
:100970004FCF2404FF100A40BBFECB988B3D4902A9
:1009800019E828DDA3FEDF5440961E23C1306BE436
:10099000D3A582E00FF760011D007A5E08B61C70D7
:1009A000F3402C7AD0FF8422F06DE3BB5F9677CEC4
:1009B000E66C7E5FC7ABBCC4F582204B3F1052E0B3
:1009C000F0980BB5CA499AC8324A96100609C184F4
:1009D0007F1FBDD6829DB667B2B3B410E09AE32004
:1009E00062FD6288DF12E9224010B3480E0471BF35
:1009F00068FE17061F8BD09804F2ED08012059B746
:100A00004C1859C8B962C414B1021CE7C802D2AC70
:100A10004411876805B92870D07FBD98040DA001E6
:100A2000722EFE8FDEF9DCE86DEBA5C0F9CA2079E5
:100A3000C48965C8FFF9B3610F9C66FA68FB460973
:100A40006219F0C01ECD82184640DECABCE0A3C5C4
:100A5000F2C876E34006DFBF35FDE0B5E8AF700EC3
:100A6000E4013C59C802117C6046C4281AADF85D07
:100A70007222E2A546ED31CD7CA2C8C2F8F9075D2D
:100A80008889843068D302C7790C8DA0452CC8E3CF
:100A9000FC04570A76518460EA2487510E1268F4E8
:100AA00048485EF32B67FB980142F94004885808D8
:100AB0009AAC01C1A102EE26C022CF6E012C829E0B
:100AC00045D351FCE01C3CC3F9F05E985DEBEDE0D2
:100AD000010C7EC95D5696C827EA9830E53002DCE5
:100AE00003452694C876DC7810C63B4EFB806F33F6
:100AF0009874DC0312D2FC34B6EC4783178398B7A2
:100B000006F97FB8E508D3F8E07898844D4A485054
:100B10000C895FE8FDCD0121C0B3988663C810E65B
:100B20000422B3039C7F9051B095C619F3BCC48CCA
:100B3000CF82050BA8F9A08F0480EB42C14029B5F4
:100B400029242FC01C99D368110FA00194086219A1
:100B5000C8F50820C102989D6C207422003470CE24
:100B6000240AA768227EF204301190FA57DF57104A
:100B70009FF5C630FBF0DC0361796299C8B6C0E529
:100B80001040C60CBD7BA682F3E0FD79F809800316
:100B90009BE71E8482F60F4044B0D37E56C851E8CE
:100BA0005B9F9EC88801F0040872644B366ABC984B
:100BB000E7E970100E05731698FECE84091924100B
:100BC00085502864C8A55BB628DDFE4D0A20308814
:100BD0009A65396612601095AF89DC9FD0539348AF
:100BE000C6FC344EB30410B093BE4858024CD684B1
:100BF00011A3D94A5F584C908F7E171021160244DA
:100C00006B99628B8DDE981046C22283B364012CEF
:100C1000F5F9F208FD604146BB0728C8B3B2C884A5
:100C2000193947E4C8EC362C08473BC80720B29B6B
:100C3000572B0E30D307F0D7DC9860800C3E90FF26
:100C400088BCC58B24CC98AD34DCCDC830889A667E
:100C500078A501DFA9DF08F370D84469A480D1FB2F
:100C60003B45F2C85AAF06B35C502DE073C831B1B2
:100C7000081CBBC8B8841003D214B3EF2E98CD5211
:100C800008F001FEAFFED0FBA004058A060F10029B
:100C9000405E7859F55D0ABF18997D0C05F51A423A
:100CA000C432C87FFD01020B212068FD0C41A2481F
:100CB000340A2E8482FE9E81287B680654F980DDEA
:100CC000BF8D3D56D006DE98627B9579292D9162C5
:100CD000B803DF533C31FDF8730607F069FFF60CEB
:100CE000E04130ED8801C07930085E3E6219C8BB32
:100CF00090B461C8F649BC3D09A2F05245F30CCF4F
:100D0000403898F980058A828F66DF5F8C221072E6
:100D10009384E29F1B7BE2022F68B6EA4ABDE9CAD0
:100D2000E9FF151148842FA9F8F929B328E0240810
:100D300034E8DBFAD7BEAA4376BB6383059CF14057
:100D40000267F23080B800F3B22727BF860142CF96
:100D500016C2B4200B611080DC73EF2668EC083FEC
:100D6000B321880409020359FBEB60810CBEDE80CD
:100D70001EC403EE8FB13C46469C3049F01CA26A6B
:100D8000666AABAEC86B3007E0F39C032B0BFD60CB
:100D9000013C200790FE980C0AC0F7D5E0F880AF20
:100DA0004117D251F0AAA2C43636226D2C10A0569B
:100DB000B350A5B3E96B20B64AA3031044194AB651
:100DC000260A66100419B9065BBECC6634262D19B6
:100DD0004CB3CF8C0A51FE05C202FE25301330B051
:100DE000660B027CA2C869EC9003FEE648802120D5
:100DF00009068E12FC684CAEE6C015FB6346FF7117
:100E0000B3184ACBD3F8F9BB20EB5FAEF1D51A018A
:100E10009CF36711D1B59ED309BBD3F8FF0187C6F8
:100E2000FFFE745C7DB028A866C71639906A6630EC
:100E3000C7547909FC656612248D08D6C6F02619B8
:100E4000BF02CC584FAD64965308E1D59BF3A57013
:100E5000FCB304CE513B95AEFA04F3C58017B8D36A
:100E6000CDFE7050FFCB02B5C77ECC03CC9593E08E
:100E70007FBB32DEBAB0FE4006DCD78DBAB54488FF
:100E80002EF33369F3C8406CF7B3413A4BF6C2A86E
:100E9000F9C33F6FF1408033FA59EA18FFED637DE3
:100EA000FF67FA4B44CCFB59B409D9EF8836B360DD
:100EB00049C4EB2944CCD6577496081E5BE76DF104
:100EC000EC0364B6A588FE2BE72D9EA93362DEC431
:100ED0006E52D108044EE8CCF92CE3011FEB2E7FB3
:100EE000DE858288B72059CF78DE4BAD082547DDF7
:100EF000810B0C9F14069EDC8297F61128F80A37A6
:100F00009BFDA0F8D24A01F58321AC8AC45E8E39DC
:100F1000BD21D00462BD29A30493652D08FE3E27A0
:100F200085A684FF7AEA04F6EF400172E70C909000
:100F30004CDFFB0BD9EE62E214C539D6C614200390
:100F40005081A312E3907E33348A42619803F50DF9
:100F5000A0CAFAF03BAD6367D105A3DB7235A418D4
:100F6000BF8A08F40901620E1922805647323FF702
:100F70006888088022E78402D01E6809D0040161D5
:100F8000FBE5280660F938D1DC34DC1DC5BF6402FE
:100F90006BD105DB348B90FDE47FDBCCB7ED822099
:100FA00096F359FEE766FDDD1FFCD620675702F772
:100FB0004908547D7FE6B05A7680D7EC2573A3AC00
:100FC000B37F6490B0FAABAC6D610201736ED8F878
:100FD0006E767F98D44CADB10827F298FF106E94CE
:100FE000618A5C80CBEFA5A4FF026FC06B9156B203
:100FF000E140F350145931101D817F5B0EE7FB5027
:10100000FA6A68B002BD1F0467F73AA1FC7892B78C
:10101000AAD3E26F319572A1F3CE7DD953247B80A0
:10102000D188F9C2896D648BFAE480C63F7750B2EB
:10103000FBB36A0163BEF96C4A79D49CA55C2AB003
:10104000FDE3CC99F6FFD8FFC8D3660B56A9227FE3
:10105000D67FDB49984D53F530D581B6BF7F1E143E
:1010600066B002BF4C15F50C082CED1828FBCC3CE3
:1010700078CA6EF306405819FDA29601C326A1D87E
:10108000FECE3040E5FF98B1FBAFD80C2058B3D965
:10109000F8FD3FBC618023B7CDEA1A0B2CFC616AD6
:1010A000C190C6BF6DFE66FD660B9F5F1BD3B21677
:1010B000FC9D18C6E5FE6DCB35800EBE37F5FF29C9
:1010C0008B2F1980317ACDD17B01779658B0FDBF37
:1010D000D70402FC5556DB9B64EFA49CFA6671A60C
:1010E000BFEC2D1055B542796DB8CBB2AB5DD3C80E
:1010F000FB08B9E8B6E22E013173B2CF7B6FD31093
:10110000402F5EB2F037DFE8B9FEE702A011E76DCD
:101110004F525E60017847A3ADA8808D67F363806E
:10112000783436BE9C9A10BE825CEA69B381A034E2
:1011300037FAD328B408D81847CC520A7EAD5705E1
:1011400045BCF4ABAAA04038D41520F382C51A0BD5
:101150004281D2400CECE09ECD0A40012899A9883A
:10116000FACD0F06AC412BB36888EA284F163490AD
:1011700020980A8127108901870D0A66799DEFA9B9
:1011800053C4489133B4407321C7680483039C352A
:10119000EE76F96AC0F9A355B311F63604088CB39C
:1011A0005B254747BFE55E01F395EDB5E8FB3BE9FD
:1011B0000802018806E0F3D356F7044258759EC42E
:1011C000EA2BE5EF98DBF04C96E7868D9468FF1EDE
:1011D000EAC5B080BF367A207398ACF96775798F0D
:1011E000F22404CE5EE312A6427366DCC5C9588BB6
:1011F00001CF1F32E69A8DAA200899BDF6E8FA932E
:10120000DD271002FFA7BB21ECC830E90EC3CBA03D
:10121000FD95CCF636D5AE40B7D322BE88FC627FB2
:10122000E66305A0F715A82718E00D1099BD5A3000
:10123000FA85A634C6F8C6B8FB4972F9FCF392FCED
:10124000E8D7C8C9892B55441888FF8010016AABBC
:10125000B30872E076BC50F935F20081C54CE2FF6C
:101260005CBE2019B5B858B3114A19B320FC405BD5
:1012700041FB3A38FD25AD4D859E49BB08CE5D3317
:10128000639BC7D8FC4F5BB082FCB7471AF3F6A448
:10129000C0C4FD482437BB9017D31B2AF10AEDD7F1
:1012A000C8F87DFE1EF57AB612E6CB5A40BD472C33
:1012B0009B30E609391A08E7164110E98A609C0359
:1012C000F40D010711D3C629F38C6E06CBF0FAA1F9
:1012D0003D4F4029B1EE0C62DF7F9602E0BB917179
:1012E00043E4EDD34EFFB0FE600D30A776C703197F
:1012F000C4B4D84EB30F8041CF6E1A8001D01F5CAA
:10130000081083DFF80EFAAEF025B0F30FCAB0E88C
:101310004B19309E3378F74410F41339CB8011EC1D
:1013200039B39142754836012376F44D22CB830BB5
:101330005766A0FE809B897A46D6EB61FE81C688FF
:1013400010705FB3F9FF1790FF801006C8240811D2
:10135000234D8D82012F5860C954B34F6C09F0FBA7
:10136000E0F1010C8807135303786A2A3D0916C07F
:10137000022509E8E69DF9CB60EDDC8007E07019F5
:10138000B8C6A2948403F330FD3CA4586696ED934E
:1013900086D6FF7F9708B6985E8F0A2DD24AD31063
:1013A000E5F5FB841AB3F9BBE566927BB35EF0B357
:1013B000B6432EB36FF2058BFD92A09EB43FD3408F
:1013C00006C08490A4109388B5E0F52893AAB3389A
:1013D000BD4B146A7FB708D5634ACDF9050219F5EC
:1013E000BCD3EE2104B6F6711A4497F40D72DF06F1
:1013F000CAFAF7DA49D36243D3612B832CB1D56F94
:101400000CA8F8BF3D77551099ECED4988F87DC6DA
:101410009DBD5F401EA112E6545B4B84805E6B3B1A
:10142000AF18C4CED959A2B15EC7D6FE08991AAC7E
:10143000CD041267988696A347A0A5E950AF1189FD
:10144000B395CAF411DC96280D26089419369E48E7
:10145000BD44D93040FCCEE21242061DFA1063347E
:10146000678405DBB2605BE399FEB9B0070195B212
:10147000A836F6190B02BEFFCEF198ED27D39D1EBC
:10148000C0AF03C627E016801D9292E2E9D0FD04AA
:10149000660666F20608F5190219A9FD63A210D3C3
:1014A000DDF0031FE0E0E5D92DE3D2FD7D64ABB3B1
:1014B00040016DD764AE5C8C335CD3192019C0ED4C
:1014C0002418019BB316412948FA5C612CB1B79EE0
:1014D000500442AF484CD32CF634267F3B300409ED
:1014E00010B83DFF4E9804CA2611FEBC17FF6E1DB2
:1014F000FF3F914C939E3450F4A404D8661096EDAF
:101500003702CD0C7F10826C49A1F9AF5046EA57E3
:10151000234D08BF865DB320CFE130A115DBF0720B
:101520001942E5A7B0DC306DFC7FFA0CB31BB34069
:10153000447AF10DBCABCFFF801122A201ABB34CBA
:101540002072D5418D529BC4E2F95FDB3218A96548
:10155000464103BD122E10B1091E5D3046CB6023FB
:10156000BE7FD7CD98F5202069E398251E6E83CEE7
:101570000732A3C0819083082D2C96EB0AAEF87039
:10158000012C74E0D240266BED980594DC306DFDA3
:1015900032FE0CA966BA8306ED31FB7CE5B3010887
:1015A000E0AF99A11E986AD3D1F1FC339CB35D538F
:1015B000B40BFD14089A66070920B501F31EFC98C8
:1015C0006CC4489EEF2CC8FFCEC84084959E68A688
:1015D000029E98831A23BB01B617B47368B104ED59
:1015E0001402C0BC98FF3F2CF6A368BCDFBDF8A670
:1015F0004246FB4ECD495903AF9998AD661080FC29
:101600003067F44DBFB037C8FB73CA01F04461B313
:10161000840ED7CB73AF37F398103BC6D49820DD38
:101620006BED9801B0CBF4704F5D7048D664B92C67
:101630009660E5A751E40EA33938356680E8292085
:1016400089E088CCB3F5AC40E6198B7B6BD8660695
:10165000A0575807D56C18A004D76C47B8171110BD
:10166000FD0406C0DEADB402FE7F26629DF31301C9
:1016700021EDE2F9FAFE9885911E2BA3EFD65629AB
:10168000308B7F5BFC982B3FD2982DD3BA248BB044
:10169000D59841EB6B90F28ED1E2E06C66B2187493
:1016A000DC5E6C49769995DDB1D941109E98A10612
:1016B000F7896BDB3D534E5A30402EB38D32C3BA9F
:1016C0000BCFEC6405BD0619236BE498C640B3DA72
:1016D00037D7B0F8F998698979E3AFD67FAB17416E
:1016E000B03D816D84B2C8DDF8A8F711048002F026
:1016F0003D20EB0DCDDA3D980378C6ECDB28FCEEFF
:101700003C3019CEE53824B2AB41CB3CE9838D6641
:10171000760F15FAFE98A3A0617F99CC4B04E0BB2D
:1017200018CCB8FF5C9981C141196F803F19C998E5
:10173000B3608A10E072CB35C810E4D26447F190F0
:10174000B308D0F343F2A0912C0CBD6BE109499B87
:101750005D0424FD784CC6020147C61EB3E13B7E02
:101760000AFEF2C86E66985A598CA7C49819640488
:10177000F4488091B01165FD6D376F42207E7F92F5
:10178000E43945DDFBC6D97C883476BB350878FF63
:101790002BD7980F9FCE9FE8782007E2D9013CC84D
:1017A00066E01D0D80057D7FA640C86BE09821385E
:1017B000CD0EF93C76B104DFC498AAB613EE1780BB
:1017C000607B728801303FD5E581EBE5018F263FD4
:1017D00059CF985DC70CDDD141FA91EC98600116A4
:1017E000A52BD3F4B32C9680B369666BFC3042B959
:1017F00016198177F47F0901C67F2FCA414BB3B810
:1018000019F3C88473CA120D6DE098240BD862EBEB
:10181000CFF4DD207C048043EB4277F91949043092
:10182000A3BF068F23D9F6D306FDD3CC98B1CD192B
:10183000B504DB293466F2953783CBCD7E5F300C5F
:10184000AB92FDF2C8FF1B98230E5F654C1C84B35E
:1018500089F99839062006C1D6A5C4B30A0D1E1908
:10186000B1DFBFAF72A545D3E07DCCE756AD7D0DAE
:101870001B7F4402FCB8C47C987904220204E07FF8
:10188000573717592E7D405703689D5EE7980066CD
:10189000AF46CD32095322AB4540587F7DE08401ED
:1018A00032419C65A5053CC079433B932A84118F46
:1018B0001EFDD9210EB34C50FCDBC698F878DBC670
:1018C00098F3C44C7DF3E0493C3E6620B4E26B1DC6
:1018D00090355F16C21078EE033092776DA4783D94
:1018E00098F8B7FAE230349B1613DD992105BF8BC7
:1018F00098845511827EEC02D8ECDF22C835F69828
:1019000031FEC9F098162DBE985B3C5FCCA382B324
:101910006FB62AF798213004CE26C4CE1183D5B3F2
:10192000062962BF40BD0AB3E8B5F8F598802DB32B
:101930001249CDA6239E02B3A40134CEFFCDA0410F
:10194000344E2A040A50BFD80D7A4792DF27C8A721
:1019500098FA64713075BEAF97F49F98C69DFEB338
:101960006E2428BFC33B43194FB25372C80DFAAF60
:101970009698D726DAB9B7CC1C8065C87ECC08CD3E
:10198000E5CA84AF273DC0C7100E6D95C8A798EC77
:10199000F3D1EAFF1BB0A00B2955CC1AF9C846B306
:1019A000C608F926BF4539D59842D3DB020D64C875
:1019B0001319447BE2E8FCB504E330968348FEB19A
:1019C0007E60C89033FBFE880322469C6050032350
:1019D000F3F8448005EF16BF64F72E216BB10818A9
:1019E000B2F93D9818DA200F9A1966C868B24BCC44
:1019F0002EB44C300CD3B15E16C083BFECE2765EE1
:101A0000C80C7E60C83CE308FD3273C8046AB3B6F4
:101A10001833C38DB37422B85DB30A846FA815223E
:101A20004FF614C0FACACBC86EDCC2580C72E00282
:101A3000CE4AB385D2DFF0190803ED600188F37B4D
:101A4000232FA752B3E8B324B4ADD38D30B3C8026B
:101A500072968C58E28739300414112A7BE0210DEC
:101A6000EEA15034F1CCF3F78328140D78C1991905
:101A7000921016BC42D5D7C898D5DF4C08F3FF8525
:101A800090E0DE7844D49179CFA0D3EDB8F860FD32
:101A900098187F8B98F3F6E311F3DB8041F130B1B6
:101AA000F76C847F012080081E830214D3B3A478CE
:101AB000CEB9F3B068B2FBB930296A5F32DC13FAF1
:101AC000B47859F7BE98F508042280F7F9BCA14D07
:101AD00080113157F7FBA360DC220DCAF57BFA8039
:101AE00091EA98A1FA8CD5AF48FEE8C708805B64FC
:101AF0004C9F88B016DF214783BF0508122216C00D
:101B000004834020E9614124AF12BD0695021D0FF8
:101B100019D3F1F9E0D701289FD2CB3040BC9856B9
:101B2000F39D3291E87EE8013C2007D1BB906BCA5F
:101B3000C268D74C0731202EE0EE846241BD8B0491
:101B40005F2F3476101939D3B8FE0E6FC6309E98C9
:101B50007A9380D3C5E516A3BBD8026A662F4C3DA5
:101B6000E0D3848041D5F361BF10997D4BF9B3A3D5
:101B700020A3CFB324E7F344DC470BAFCB0932CE2D
:101B80003367E3F1201032698419B35B881211D5F1
:101B9000B320DE6004B3D908FE3F0967E97299C635
:101BA0007D3EFFDDF0FBA27C76BCA3E3B528F351BC
:101BB0004EB59AB4B2218CE0F6D398FD030487FFAA
:101BC00098FF286366937758B1DBD390FF79439EE3
:101BD000FF7F2C0B01647A59E02995019A73F388F1
:101BE000F96591C2A09BD622796695F7BDADD30267
:101BF000B853B562046C5109195127DEFD70891183
:101C0000AFD3E4B12468F36FFC4338FA461B7DCCB4
:101C1000B8F316CBD3C827D69810C04099BFC411CB
:101C2000E7B99FF7C7C599F6FC665E0AB1FB333684
:101C300014FDCE80B99F8A17FFD83256FFB1013507
:101C4000A120AAB3FCC6166D08112CA2029E6C102E
:101C500028F94CDDDF2C362B5849D05819B5800EA9
:101C600094C4806159302BB31056E68020D9DD1022
:101C700067F9E59443B50110B841D7135CEFF8FA62
:101C80006CDEB240922A08EBC4BE4BB20398E5402A
:101C9000108BC19F3DE00228EDF48EB66B5188FD9C
:101CA0002F6576594406108E9415A0620D14CDE26E
:101CB00024289FFA7D60F262CD9A527A556051E0F5
:101CC000090638E0485103E24305FB0C2008FAC43A
:101CD0006FEB672F7038FFB95B489181829037A70F
:101CE000949955E41766C450424A69014ACE1CF3E0
:101CF0003CC6F346E6623F7FB3417EDFC67FC71036
:101D000065FFA98CFB716E1EA5E57877AC46B1E145
:101D10007F22E5C3F8D9F680BD8411EAA54026BC30
:101D2000FE88F8C12F6C9669E220625AB4B1087E31
:101D3000D9E2184BB3402524017AFB20C6BAB7CEAE
:101D4000E8003B68FE1B584740CF6C1B04FFEC6C5F
:101D5000E8FE43ADD4B6B1DC85DF822F3165B140FA
:101D6000EDC1D0FB8A7DEC9E346117760638FB2FDF
:101D7000F189989756AFD84EC7EFF3F8CB7B11D3C4
:101D80006E1632E9F41ECD5AB3D87DCC9BFB4508C4
:101D900018339F56DC8053ED31FC629C48B308CC6D
:101DA0003B7BEF0AD2FC33C9C8488FC2A5FF08AA03
:101DB0000488FE36CAFBDE19D3D23FEC5A47B6F888
:101DC0005817766410F5BB408A2CE4FA2D58B302FC
:101DD000CBE4B8FF62B9E0619F2CCAFE5D80086366
:101DE0002163589FF659B8FD15AC844043EC363852
:101DF000CAC859C320FF1E6EF1B038B8B35624D7F5
:101E00001B98B39736BCB0F939E6FB7AB524E5B830
:101E1000508A364B50FDE6D93FC6973FDDA350FBB5
:101E2000A1AB8DF5BC8FF41126AB34FF557610892C
:101E30007A6E18CCF58A80E6C731EE7030F8C0CEE5
:101E4000FB6C75D9408CAC1A044BBBEF48F8D6E656
:101E5000207FE58620B289A60810D24094FB425F1D
:101E600001EB8D202174E0A1FCB4A06AC001B2E9AD
:101E7000048CD54BF92E8040197A258150E0D96A1F
:101E80001008C652F3D48294E7A9B3C11490BF706E
:101E9000FBF2100144B4A0C6DF60C84A02C5362078
:101EA0007F2287A9FC01A40204C00F134080613C7B
:101EB0008CA001100802C1CC0AE628580C7A38F828
:101EC00046910417021403A04047EC234660E38DBB
:101ED0000298F908C2EF8006FCE910079DE8CA865F
:101EE00031264174434164F88CDFF3FB944010F2D7
:101EF00049A4487604ECB1A8FEEDA5F41F208D702E
:101F000098BF71E378323A132B2F48150A8BDDED19
:101F1000FEC5CF8B2C7622479BC641085FA5AC58E7
:101F200080DF72012DCA807EA00CF946718A9C5513
:101F3000B302FDAC02B1224DEC3354FC7376E610D3
:101F40007F2896089ACD5ADA01AD8918FECCBE0BCF
:101F5000C77664D81FC57B59085B96631B1F627BDD
:101F600092D89040C7763978FC78D0B1D6CCB7E01B
:101F7000FBA03FBB63C8FE1FE38A0A1B9310FB1440
:101F8000DDFA4084BA5E477CF5C4A7D87F8E58C876
:101F9000CA5460D3F68A062998EFF9EC5376B00854
:101FA000307362FF3137F0FB987B4F984401ECA30C
:101FB000C337FB0A80FC0B7464C634F76CEB907378
:101FC0004B156DC956BD10C6B533FB66F09666213C
:101FD0004AEF348BC8B21960FCC51B020480D97A61
:101FE0001168FBADA0DF7442BE2228028CE61768A0
:101FF000FDCD5BD330F5C68DEB518260647D0D6500
:102000006AE748B6193C2062B3B065FDC0658AFF37
:10201000E63C80800797E003120B4306F1B0D384BF
:102020000FE3C496190163B3408472F70AC4F89AA7
:1020300088E0C0D04B2485E0FC44020C80CEDF2C2D
:10204000EA7AFF3276D0D22129A0FA93711AB7D951
:10205000B48BE0C69DFA110242E9F222B5C8180914
:1020600089235D089A2EF83246BD5E0C47052B3950
:10207000584C464BF64A0C8A190260CCE08139F381
:102080001E5CD109C00934F8FB4666903066BBE39C
:102090006C7248B3777A0604E98ABFA82618EC5D0B
:1020A0009CED1D88FA18198F651B03D3B3B3083054
:1020B000B52BF51915FFD3BD46BB6169FDF91604B3
:1020C000CEB360412CFFD632FD6CC8419EEF8A141E
:1020D00042F098B629FE98FB40462AFF319EC091F7
:1020E000951018C9EFBF450210DD01A2F1A50DB38F
:1020F00044E8BDFCECEE366C5B32407B984EEEEE75
:102100002AFE0D7BF77715EE0672D83290B8A4F54B
:10211000F2E02CB330AFDA823CFB9878406DEF9858
:102120001E66BBFFBD09B3DDB62E5DC580EEA5E022
:102130000108D7DD9878200CFF93CDF908B30592FC
:10214000B30209EF0A988D85BD9812EE666FDEFF27
:10215000C2C27635B2727FA922F580820104C254D0
:1021600001BECC200E4ADE3B6636E857DC4C5A995D
:102170007F32235077C77F7B66677894FFF752DB07
:1021800057BC8C1A97620F448849B0A540C5182FD8
:102190004941F518996EE32CDCDDBBEB246BE89824
:1021A000490DBD989CEF07E81E6D728474FDD4C084
:1021B0005FDC9F0BE03C8005022893B06EF304F4D3
:1021C00098FE2657AD6E029766039A66FF6D690109
:1021D00069DBA0B471D7E05FD432E0301C23FDE5A9
:1021E000107BBA43FC4B4D122519106BE7987D0C00
:1021F000B277320344DE390B096FE7CC0B6264849B
:1022000029AF343D8BB301DF4C08D6FE6FAD980487
:102210003C9803CFFCDF46FE6732BF445D84223921
:10222000EEB6F3DF4081C3859EA2FC2240048B847E
:10223000D7980DF8E1B3B34CFFFDFD1FBCEE32673C
:102240001429F852B30A6CE5A102C5A866E709D0C3
:10225000F95E98B21075BC2C6BDBA1587F7B98BEE1
:10226000EE36DD9E0F42663DBBE6660720BF7F83EC
:102270005E98FB82013C90074F05980C7FF31DFA96
:1022800004B30164AF1910F29837E7F79896FEA2ED
:10229000DDDD09FFB96E71BB04765ECB8424A4E159
:1022A0006A3022B57E3F1966496604C9F6980C105B
:1022B000DBE0325B50F330B6FFEE1675017749561E
:1022C0002DEFE67E0297C1117A9804FDD39698B857
:1022D000414C7ED9409E9801AF8D98FF48BFBE9873
:1022E000860A131624E7B307290EB912193015FC14
:1022F00030FE0B60810CA00701FF3898C68BCFAD74
:10230000B1FA238C06B366C9B337126BF8AF290F45
:102310005F66C4D593E7989A597998FFCCDCB8FFEB
:10232000C36EB36FE098195E98B740D359BF324679
:10233000BFD08B30DE9889340526D3DB98042CF689
:1023400049CBCDC84595E698DCB1FBAEBAC13B059B
:10235000BBF6630EEBD7ABB4F772082DEE317D9868
:1023600008DC2485E7B2CCF32E08B1041F7B98B4B7
:10237000BB41A398C554667BEE0463E5CD18459236
:1023800033AFA92038663C6575649FE398F6BABD03
:10239000536E41EF7618FE57EFE0D6FEE029026D4E
:1023A00001397D986021C639B3F964ECD2B1B62FFA
:1023B0007B98BABF4CAF9FF80D7606FE017A76483F
:1023C000B33D04AD24DD9434E7E5256C0AEDD9E096
:1023D000769B62F7F00401623F32F7B8FA57AB3BE5
:1023E0003613461ACD193BB4605A73AF41DF320140
:1023F000AD620444CDE6A9FE1819B7AF9841EF824B
:102400009A1A45B90B0E42EF07020F3BDACB98F54B
:102410002803CB30A0B3C8045FEC7BE6A8FE656759
:10242000C80402670A66EF4BC944FCC6F5FE05FF07
:10243000A4329D03D6EF0CCB76665CBDC84DE3801D
:10244000F8C9ED644C9FEA980420F1A72FE47328A3
:10245000BFC288E3ECBF7F2DE38811046F0608F547
:102460009822FE980595CD30210DBF9098FC86B03E
:10247000F7196C2650D37651F8441AEF2823100030
:102480004B72B38908666EE0B053E0829A404D7E8D
:10249000A862FDFBCAEBFE7E3772CEC81AA66EB3E9
:1024A0001176495928BBBA18790175B0C440334830
:1024B0004308EFE37D7CA5C8500CB72E3080F09820
:1024C000684E9F28AEA75466807366113ABDBB1252
:1024D000F032BDC0191F0E8481E93C8007C9042F6A
:1024E00020C9C8C7AFF85938415D646B95C8E798F3
:1024F000FD913DB3A61A670BDD94DC1106B36C6940
:102500001E019B6D8A06FF5540BF01FBCC0AFB7E76
:102510001D30A0082C9790C86585633FC8AA961403
:102520009741014E6610DA7B2B4D3F0C94302051C1
:10253000E6421602AD216FF522FE3278FEDF8B30C7
:102540007B830F026CDDC883E6988FE98EDE14383A
:1025500001C019654A2BE0329FCF300368410C72ED
:10256000190E8DC673C8FC7160A966194379C871CC
:1025700032CB0414D226042B032BA718B64030CD3F
:102580001006EA08FE9873B3D9FF775BF32CB3808B
:10259000CCC8C809BD0EED9C54AF6DA62A05D8BBAA
:1025A000FC30F70D9001B467C898023BC641889B88
:1025B000E7C8FB2780303232C823239E30A8EFD4EF
:1025C000FED0B43DBB95C9300CDBDEB1805739314C
:1025D0001085AE5D68B1F94CAFCA3C987B9F4BA2A9
:1025E0006E54EF404FD450572ADF0999C6304F9CA4
:1025F00098F7D2E8FBAF20DBD69802FE9864F33060
:102600007AE62FB3FFFA042A996FC73079987030B1
:1026100006FC3028FB0FE3193736C850BE9815A7C3
:10262000BDAD3EEFE1EECFE60B1036D969B4A6752D
:1026300012023C017E080488FE1130F1DFBB5C937E
:10264000BBFE096BFD7F8220BFAE9883FD3211FF78
:102650002FE3BAEEF4395B53E0213ABDB23830BD16
:102660009805597694042F89BF229A30C1F83719FA
:10267000F59803BFAF9803E330D2C8AA30321EE208
:10268000E30AB00BCBE630E841B87AFE2F303D5E6E
:102690004DFC47E3F928E60667AF98015F6608E658
:1026A0007FBE527FE83240E0EF519881C695CD3031
:1026B000FBFEB9DC2CCC8CCF5A9801648BAF522333
:1026C000A65B5C8373D09C08DD0B610F4D881134D1
:1026D000DA018066C841FEEC64F0F9ACBFC8C59869
:1026E000197A9C60FF3F98DFE5CEFFA7FA014F11F2
:1026F00043AC1322779BD2FA9820657980FCF9C805
:10270000BF419BD4F8FA33CFA1F37A333EC888BED9
:1027100025FEBA177BC03712BB10F0986833F3B0B0
:10272000B2EBFF3798E57D60AF8D988350A7939803
:102730006EC6BADCB6EEE3F723331B7B3B9107E0B2
:1027400040F3C80E59D70E068DACF7A928D1F9046D
:102750009A9FC430E76F9FC816AB2CEEA70DF84BBD
:102760006636BFE6F9BC1002DD8150419181C6BBDF
:102770001240084C80C8E5BC48DBE3B702CE7B8240
:1027800089D7F7328B7D32A6FBE3E8AA17FB6443B7
:10279000E8870B2E86B8E8D7CE98D001F2022397AF
:1027A000F822F3CA90FA4B19087CF4C8E001241906
:1027B0006FE6989B96EF3A143EF6982A0A8BBAED8C
:1027C0001CBD9868020C8B90CB98EF2FF67E08FB0F
:1027D00032FB4B7119D66FE6984FADE5967D080B2D
:1027E00068DAB9C2E00233D384A92005F92E2FFF9D
:1027F0005D66D89BC81164B38CD1E010BB99E39897
:10280000C91768E2B44467B310D0BE40133E194DF7
:102810008021B41C1617B7B3410CF253F9ECB3C8BE
:1028200038300588334E49015E5069EE343B94FAE6
:10283000E7A905D10ABFFFF144501DE098FF0CA0A5
:1028400088148A1004CE0F05D2244D508DC8B1666D
:1028500045FF20BFBD9856AA97EECFD585DD0BFF6B
:102860007FD76D915674DE9D11999D8E88FDDE1780
:10287000667230F0BE9FB830F2C87AEE78BBB5EE23
:102880002558B35A28663CE0EE033040FD0F88011E
:102890003C0806B75E2A19BBFBAC17CE23308DF976
:1028A0003080BD81EB68F79BDBDE10B66647FF9F8B
:1028B000529C22E00844AEE02D7B9A217C11F698D0
:1028C0004C01EFA366667CE6C8014CE528D797EA81
:1028D00051F1D0C954EE66DCEF1066C0CD1A44B396
:1028E00096A084E569B504E3102102948CAA07241C
:1028F000087E592E39C8AE20516A2439DE98BB585B
:102900008DF4376C1BE9860C10AB05E208030F96BB
:1029100019BD91AF5A6E98812CF49816CBDC580CE7
:10292000F9B1FF79B8B906EB66205F1298B383E27C
:10293000633FD22BC8C6A46620D3815D94F41B43A9
:10294000ED19046DCD3009FB2C5B1195B310D951F5
:1029500079D36D49E16640422AEDFEBF7CAB8483AA
:10296000224F23974D8189F220104602B3B84F4A77
:102970001AFB43CFFC6364FFB3F784DF83DC73305F
:1029800022AADB4177F059BFF02C36C6D3D0F88F9E
:102990005D3B5056040171F3FEC2EEDF81DC614401
:1029A000C2AAE5FF28ED96B5660BD3B31B3D67B30E
:1029B000DDDFD7FCFE076B295FC71DD628FE248FFD
:1029C000BB66DDB1DF9EB346C71475C7023944FF4D
:1029D00063CF6698DFF7DD7B668FB9B177C6D670B7
:1029E000FCC80006C9FBA17D9F1AFF9C7FB01D7328
:1029F000F8220ADD5807F68EE473E06FA732FBE297
:102A0000F8FEB708FB6C435153B1F4CBD7F62FB2A5
:102A1000BC75B41934CB3C91D3DDB10879668E7D99
:102A2000329C37638DD398FF1976CBCD0230F2D923
:102A3000AD106E3E474D994CAC9260FA0614ACFF57
:102A40000871E118B1FFF3BE7557018FFA6EFCC231
:102A5000256E80B11F9858669F1AC9CA14EC61BAD6
:102A6000FF80CA599B54FFCC7F98E4F8FF8ED9CCE5
:102A7000ED1804E6662CD2B11063BACFBC2DFBB2C0
:102A80004BDC0650FF4076C69F99CD46E0BA8701E1
:102A900018908FF22E0212E7206DFACB84F7F648D9
:102AA00004A9CF309BFBFB0563D991906075C010E2
:102AB000E275F3F07E6CE4B5030FB0143480CE50B1
:102AC00054DE400461D00921DEA849A901F35BDC92
:102AD000A3FFC9218A01C604202861B225428BF9CF
:102AE000AC6616C0BD5F445E4427B2D66A117362FD
:102AF00088017736EDFE0A28CF63FF7F6DFB8940A2
:102B000023FB9FC8FF2BE59506FFAC70D7462DF63B
:102B10007FE7C1928F6202D4C676FF29F93C7DB669
:102B20000133FACF45E07B8C9EECD9F0FE2FF358B1
:102B30007E1B3CB808FA15DD2480B1FFAD31654F2E
:102B40008CB2CEE3A67E96B1190905FFC630779800
:102B5000B24DDBED083FFBA7A0FF3031F542428FBD
:102B60007D6CEACD12DD9708A19E6D97EBB3F83C22
:102B700093C7F921106EF6B3081B49A8FD2FF6B6CE
:102B8000815A5901C4B83959715E48B280960140E2
:102B900077187D4FF4BD9546D65A75A8C32F339844
:102BA000F62DD75B38B8F92FF6D60829D46018610E
:102BB000133F78FF61A6B665020123CDF330FC8494
:102BC0005D65B1028E32729BF2B1FD0974C7CF6CA4
:102BD000641001FFD8C488C1B3861F19D8B8FDF9A5
:102BE0006EEBFB40089B9390FB1AFB081958721080
:102BF0008AE5A8CBFB7F18CB72195B6406B6F6F8A2
:102C0000FF28C6B7805B6B10FD82BAB0018DBE365F
:102C1000DD3B8D42DBD5F0F91DF3207CB2ABFE77B6
:102C20005B9399E23A22D888FB266DE3BA4248C208
:102C300095C808897E9618C79666802BF280BECA12
:102C40006E081805F63DD8FCC6F28FC7D19B01DE91
:102C5000F3BF10FB77A0FE16F516408EE9EEAAE052
:102C600021FFA357F3F97D80B520FDFA021AF7651D
:102C70002EEA8E100437C57FD31029DCD7800D1BB8
:102C8000DEE4BAA4076620BFEFD48950D88A286E44
:102C9000ED200D8B608D020167EC48BC4DCD878C1B
:102CA000275261C98121E013B9221F09BD20B360F9
:102CB0002B19256AD2ECD5513E1830795A0EB20A3A
:102CC00040EF0EC18CC3FE408D283CE818100289ED
:102CD0009401C1408BCE0480270C0045F3958835C4
:102CE000EBE5FD628D1750DC2C9F017F8F2136CEE6
:102CF000F33ABEF1D5F4C8B2F9BCCB8B5DE568D729
:102D00001EEFDFB12003B3DBE904428234B9DB817B
:102D10004451F6BB046085ECFE1024CD38089DF6C6
:102D20007822E8D8D4FAB798B8E99B1B607AEE10FD
:102D3000D88C5866A2B504C67EC9C5F96E58B2FED5
:102D40008CBD21DD5A048CF30250F9B1089E9635F2
:102D50007B2E7A46E079AB1B6699D37E0EB1480F85
:102D60005950104B4E028DD181ACB46EC6A0FF31CC
:102D7000E3E3FF1EDB25FA18B9CAFA61DED9F19F39
:102D80000DD888FEA7EC8F01312DB43062842BEE74
:102D900032B156C4402DBDFD60FC8F724640D44D0B
:102DA0001B3877F3A03119FC6399D2B708E153B20D
:102DB0006618B98FB6AD34FBAB0342D9E3A0013E30
:102DC000EF0610084DD20DFD3089EE7CD0B9F00B26
:102DD0008A61242419B4D3734409084CC65004D919
:102DE000E7FCBC5059A00DBA7C30C4FB5FC04D5409
:102DF0000360A147FBA8B582FD4D18FC30467D66F7
:102E00009C93599B0C603C3FB74C4100B348B37A4C
:102E10001C0F8441A3C9B3C8A6794436B5FD6C190B
:102E200080029FDA3D80FE8634CF5CB309B34C4606
:102E300013680F4D800530BC0AB32564FB495A1551
:102E40006846DB2880F6BA16062840DBB6B7227F34
:102E5000E96F02AE8430FC122B226BD76E24607CAB
:102E60001101AE429830DE88FFDC97F050FD7FCD37
:102E7000500731E3F339042C16E6B4E001F1D383B3
:102E8000CF031823E0812C2E2369760278C601F641
:102E90003D0810FF86664FB7AA0602F9AE881BB63A
:102EA00004517E971D9BDE6CBFA2F37CFC88F876F4
:102EB000ADB31005AF9B0EB6190C0123BBCB11941B
:102EC000FB020030E34C0B22C7CBAA622243AE2F99
:102ED00048B2FCBB9B45CC2040D5860D441A8B776D
:102EE00061A00941B5EB185A88600CCE341401F684
:102EF000529168ED7B52140470F92DD382629C9C30
:102F00006E0DAD863473FD3F610B6F26FE97B2C820
:102F1000E184A3D958FB7E9859B437D3F2F4D4B1E5
:102F2000DD1DEDA984017AF9057A1E9F2F6FE398C4
:102F3000F3D0D9FF0829190CED4CF4D048B1D45680
:102F4000198045BFD11872AF6866F4087C05D07D42
:102F50001441FBF205210AF24619C024D3FA548227
:102F600049F1BDB18480C5BF32099B01DBC48055E6
:102F700063220481B047F6F998742D84C6236F3D0F
:102F800098FF0B5EB82D9DFC98C40EB40BE0F015B5
:102F90007E02184CD3F12CBFD8DA9818207DE62C8D
:102FA0001078FD04E6F0A719E5A979308B2E66802C
:102FB000594CC2DFB4970134EFD181FE657A4B4C96
:102FC0000D042114C08B0862CB19058FE0F9D9F8E4
:102FD000A301B95F0C98E4EE09369E9897D0EF7F75
:102FE000438CA025019D71662C8C214F53F9307DB7
:102FF00040CC0208E5204A442F3F64E5D042AAC0F5
:10300000D381FBA0411442A82D660C2DD976FDC7B3
:10301000F5000279A519C63C30B6083DB3020F771A
:103020001B502C6E0357B4650698324160866FD3EF
:103030003801B303AF61A665E5B0FAD3F54C28F5C6
:10304000F2B8568045E575DACBEE22121419B8E2D3
:10305000A218ABEFAF8C8401BB348643F51231CBA1
:103060005D59EF0AA0FB35B3F88C60A66616021313
:10307000D60D8C25D417ECBB04D7986317B19F707D
:10308000C72368F105B9F6F8197A0340C8DE80074E
:1030900030E43318840CC4BC98392B778398FE38FD
:1030A000100FE0810C08FE6E230238E130F3C510EA
:1030B000FA677EEB065F4DD89E0C0C5166027EAD22
:1030C000FC208FCF0402FF5B98D8F6B109DB8F7428
:1030D000235CCC166FB346C4753C448C82D6A49B4B
:1030E0003CCC6204F8890E05C8FDFE5A8C107F1591
:1030F0008C302BF334F54494B10A3E9E17D70280EE
:1031000012B6DFB3C8028C8DFE2E527E23A1680456
:103110000D208876F3A8FF6718494CFF366620E536
:10312000D3C6309FECDE50F8BDA3309FFD98018BD5
:103130000C07A2F109F5B8028AF8980DC2202FB346
:103140007134C9F6D38370F0C61BF0F842423FB326
:10315000C99824165C304BFF4216F79806C0047ECF
:103160006BC82C8830C6FE6023120DCE28EAAAFE5A
:1031700097A00865A8A7829835F306B2CCD3185655
:103180002C2BF37F620409D9C8B448E58082DC3077
:1031900099212F48C6157ECC3CB830DB3A18803CCC
:1031A000F398B3E878EC100F0253DB9805F18FE049
:1031B000F6780C108FC6CFC80E60013BB9B8FB6E15
:1031C000DB510470E9B866A95844B79FE5E0781B65
:1031D0002FCFC0DDFF40FFBFDA61F91BB3FDEB0B62
:1031E000B30CFAF4C59BB316C14CDDC8489753B570
:1031F000C60242F98288C6DA98F9723088F72C0C38
:1032000021108D144269C6302D90C82E40E81778E1
:1032100028111504E26BB19EF32028020D667F345D
:103220006AFBC8F80D0EE2AA589801C736348081AF
:1032300020ED5C306BDD84C8FFAAEE04FF56984099
:10324000EFBC0758A5189F8A98933F16E6D9DB0E66
:103250004FCDBD0641805C30473B6678F8FE2F308D
:103260003DE5C50DCEA0909920018CED5B37C805DA
:103270002BD322F0A461284DF5BF72085C30946016
:103280004F32CB0A6AB3D8DB1058CE66128431F6BF
:103290000588E096052C8AE7C846041C3592C8824A
:1032A00012F15E5AA142C9F1DC208262BDFADC70E3
:1032B0000A1EFF5798E077B104307ECC786C0C087A
:1032C0005337C80778A51283B629D7DA6B02582E70
:1032D000C6622338FDBC66BE5DD8245C66B362BEA0
:1032E000E51DB72E5D62F2976FB602203FF3D7CB94
:1032F00059EC96D1C504B3EC1102126686EE2F9AF2
:10330000C806E10390DF6011E95846B243AFF3808D
:103310004D190590AE77C80482FBE5A005AD01B458
:1033200024F3E516CCC8129ED3DC036021BD9D3486
:1033300041294F2A816820FD0DA004140AD4E566B6
:10334000E4884B40B3DCBEB181DE6F23C24025462A
:103350003830C3FBB10273394120DD80F8E798FCB7
:103360007077F998C636FC0C62BC30B9C44672025C
:103370000357F3C6552B0980302CFB8E301079FD96
:103380005D3DFCD90DFB20110280225ED8FE80BF7E
:103390001F30C43DFC34B3011445FFB7497FE872C8
:1033A000FC68B39788C5FA9850E566288BB0B3805F
:1033B000091FA5BCEC98228C0C911025EFE8190987
:1033C0001161AF212DAE38B8B3FE5A3008E5C87987
:1033D00098AED819B72830F283ECF7A8E2013C6622
:1033E000C81EBC98EE76302D0840BA156C86B240E7
:1033F0007ECCC5B93041B540E6EA0130D0A90540E0
:1034000013F30F9BFA68B3DA48802B7804ED8896A3
:10341000190228B3B926E720B901B3B005E8B30211
:10342000F9240DAEEE210A603766CAC8CB65BF4EDF
:1034300044B90A0C0D62BF7FEB40081825C8DEDCDA
:103440003039C7D220320F0842F04DB00984B6A8F7
:10345000FD41D6D9606FE45286B104921037E0FE88
:103460005D088203FC986D2EFF0B8EED0F9BDB0534
:10347000E0FEBCC5B6496DFD203F550FAE44FFF0E0
:1034800001C02006800361CC100CCE3CAEAA347D76
:10349000371970D022D1481DEDFE4C0188AFB351D1
:1034A0002CD3F48860214DAB97888970306F014C24
:1034B0002149832418B4F9DEE342980513C2C3B846
:1034C0004C66D2400923F3B1241FAE7F99C53CC29C
:1034D0006D0289951C81EF4D26420419C7034033C4
:1034E000EA84C604BF284FFCF5D2031AF8FB9806FD
:1034F000C848F30B2C678B302BD593033DF3B07783
:10350000BD9838400B60674B88FC5F4769E7D20184
:10351000B37F979892CCF304C57E7FFFA3A26B4F35
:103520004B8B40C6FF1B804CFA10F906E6B3DE98C1
:1035300086C05248F34CC4F4AFD5B39238764C826F
:10354000B530F98222C6E0126181FD84892001A094
:1035500017192161145D8A9ED581A80966F344FE7E
:1035600002BA44EF599834EFB210028040E20408E6
:10357000016B1309D49830C627C2EF88085CDD4B75
:10358000F3487F5F9804E7C5E5C8AECB96EE0845E3
:10359000FF3A7D6BAFB4B8B0FF6E5EC56BE4A5E6D5
:1035A0000705F0210C2D3B9D6C694B9B300620FDDF
:1035B000E540DE0E64C64D090361DE7EAF08AE7FD6
:1035C000A3EB424EFB7628221106BC9822381966DE
:1035D0005B451A221FF9DB4A849DF323600165C80D
:1035E000E7C666C824E19B7F29B38026F8C018404F
:1035F00008133F22288204300DDE98191FD7E19866
:103600001BF5C2BF363024C0DE98FF91300626C2BB
:10361000029908315020F88248B05AE0FCD7029055
:1036200007F472531A1807433C80D005309BE91603
:10363000200BE608B504356657ABE8363003F2FEDA
:103640009859C85E5E7AF36063F310AF519830B654
:10365000FD913D72844030AE5AC87A9890D5B350EF
:103660006AB3D2880153C2D556820DEBC6185E4CA0
:10367000B230D2FF16AAB309D5424C09F3BBF320EE
:103680000C3FC59846A8B3B2BE7830E786A2601456
:10369000DB8C803FB32262048002883BF378FE37E4
:1036A000EC50C3C32CB3C7D9FFBCFD5E2EA9E2CA40
:1036B000F1EA436CF305A9F39CD16264D3F368E6A5
:1036C000965066090DFF89FE8A18935A665AFE4B7A
:1036D000D3AAFAB1CF16CBDE31B252BEF3E075F306
:1036E00010BEAB82EAEDCCF807CD58B5209F5874D8
:1036F000CB9550FF79CB97F78AE9D8A7D8AAA1CB69
:103700009CE028179B9BC65BFA044FDCCC21D3D9E5
:10371000B8FD9A47B120DF59AD407B7EB38012F8E7
:1037200020B3C121FF98B1FF75E5088CE68040CA3F
:10373000DA84346D6C65B0F8B5E60884467FEBCF6B
:103740008235E8F8B1FB7EB165C54D288897E7184A
:10375000CA5CFFB1023307F85FC4BF7F1062EB0998
:1037600020CCFBC312CBA067BAE9A0FA7AF241F3EE
:10377000BCB40B96E621BEAE5B621189FED180F32C
:10378000734F371A2DDC8CFCD392CA14F7FC91C806
:10379000DD8ED6944253DFF345295BD567B3B40180
:1037A000067F816813AD48BC6CF681A6F00405ADB8
:1037B0003AC0F8805DEE2CA561BD9E080320F3BCE5
:1037C000421397A8F5988396562B5EEB38F41202B5
:1037D0004048F97ADA0867D12B7E10FA598C66FCDA
:1037E00057B181C1FF906BFBEB8011F2E5EBA1C2F9
:1037F000DF2CA464F38201D8E7AC8B4044ED57A7DB
:10380000765EA0FE8644588BB08CAFCDD4FB25E00D
:10381000B3FDF851C7CD19C5D5D698AED898FA22C0
:10382000761C02FEB01765E3CA1FFBD83FFB6D880C
:10383000FB2FEDD1FE75BAE2C27FB7C2FE4838F960
:10384000CDED7A108D9ACAE9E11B68019764BBCB74
:10385000D0FF082848C28E0631C479C2E0B0FCEF20
:10386000EF8DEB0D21F2FF66F15B9E90614EED84D2
:10387000D84CB36C14C26D16D9661D996E7D82E06A
:103880002098FB32B6C3C3A268FB2B042EEEFE01C8
:1038900010FBC97FD8CC102276B1FECDFB6D0CD6C3
:1038A000A4808D0E58FA95E1EC18462B65A58F8003
:1038B000F7BFF68A18FE59D884BBF8627F2D3BB15A
:1038C00078F81630468FD6541062F1FEC532825811
:1038D000F5E2BA01CC31F1FE5830105C4D597B63F2
:1038E0005FE2B1802DD16004E5B69A138BD8F5DB89
:1038F00085E0FF3578285F676EF3B1044FB1806FC4
:10390000DF0428E6E57BC38009610EEFA3426CAFBC
:10391000400C86EBFB0AC53FDD01635FCEDA04880D
:103920002CD008C6C9B8F988E50EC806E75AB81EF3
:10393000F85966A932809B021720087BAE28409672
:1039400020F3DD1076702E60F83730047FDB5018DE
:10395000AC0A941BFD400B80504C664A19B3E6F943
:10396000E320C680014AE00670662C0128E6ADF32C
:103970002153B0E90A4427F89C50FC6A44C74868C0
:1039800003A6204FC606E0C0109342E1FD0C871449
:1039900034B1043FCF7F208D82100CE684087992E9
:1039A00016913D02CFD42101055A15B6F9FBCD3B46
:1039B000CF7D313E7DDC5B80A80E04CCFEA548F9AE
:1039C000CEF172BFDA81107DC52C7D044B21DFBDA5
:1039D0005E105FD9BD088E0472F341E4E7FA061960
:1039E000E96A89EB8064FB61D6D9F2D93F667564D8
:1039F0009E91624719A83401F3FEB7F9DAADDD49AB
:103A0000F986E67879FF2C660460CDC7CDAB52C449
:103A100080F4F5F0989FABAF807DB071BFEB6D2C5B
:103A20007BFCB0B18F2B69CCE9A31FDBB140FD0952
:103A3000B6EACFE0FD0DC8A888BA4D7677D8F886EB
:103A4000F014AC2F1049F20569B649187A5204C532
:103A5000BF52506CB3B3047F7D202C46680F96C1D3
:103A60000251D017F02CDAF9AF0C6ED5AA0862FF1C
:103A70007EB520DD10420694656EE22096AB3CDAFE
:103A8000AF931AE7E309C7020406C05FB0FEBC4D5E
:103A9000B020C48BB4CBCCD50903F57FC1061FFA87
:103AA0008F8921FC7A19B5FB6C7B1008801D6C2274
:103AB000FA27E3D273E0562FF0FAE2C35E9F18BEF6
:103AC0009344E1F33068E1D80C04876BF9E0936824
:103AD00007E01E7AE7640530B8E7A656F328FBD561
:103AE0007610B849C07646A088C9912C92B305FEDD
:103AF0003382B323F98BCD5BFE30425331F39B10FD
:103B0000BFB8F9CC26017BD1110BE06B1D4116AF7C
:103B1000C0CF8613FD8C1084B330FDFA445FC8EB30
:103B2000C20840E9E7AA116BFA5C6052790266F0BC
:103B3000BAFE8446FCC8BD03F01CE2012DC9F3F1B6
:103B40008DF333A10FDC3C672EB4607BD3F02006ED
:103B5000C89226E4D3F53BC02EFC0FFDCAB0EA663E
:103B600006F8B1F403A0D18201F3C4E3F34B6A3049
:103B700012DA0125C3E402E60CE7FFE67678D9B352
:103B80009873C02C8059EC6AB35ED5B390CFB3FC68
:103B9000ECC194B9E011B588CABF22D6B36D86C016
:103BA000FBBC98E68C0D248EDCEB4DBDB821ECA05F
:103BB0002034EF5CDDA873F2D0245A4837E6D614DF
:103BC00001D852FF5B983C7A98188DFA4597871F69
:103BD000EFEB21302C3A97FF86E5C800D31D9BBA46
:103BE000BD046DE8A8FFBC98644610CCDAF60879ED
:103BF00098DFBFBC60B3CB5CCB84BCA6F0D3826043
:103C000045D2898020657B980889B5F8F798981087
:103C1000A33DCE888451AFB2292201F3270431128B
:103C200067F9983BFB9020585FD9D4207C1B137216
:103C3000FA7FE97F049308E7624184DB3204D226ED
:103C4000C1DC2164072878B3A897B3057FE0041886
:103C50001B2101A612A6220ADB776B8C7B9892FFB0
:103C60006BEF981EC803780B0BE0D7013C8BB8F2C2
:103C7000BC480562887B98E0817319201EA2C0832E
:103C8000ECA42C165FB79838FF9A66FA6E043A3F98
:103C9000A0D4E501E35F7F627BE39440B64EA520AC
:103CA0006611A21103D7F65E238519FE7F098B608A
:103CB000BD98456AB3BB0BDBC590B03BB71604EBB0
:103CC000C6148C2F27FC1120368BB3024F5A98D084
:103CD000EFE3281A77E94D81E3126DCE308DA00114
:103CE000DF8D74BF9681DC8804A0DC5A48F33BE08A
:103CF00004092FDB9828FE7E163025571130667A8E
:103D0000F810CDF3E5F2B2FF36B8379C384C6EFFB1
:103D10002FE52EA57A306010044217C9F39DB4E652
:103D20008B7F2630C2E308E5B304C6DFFE78B58397
:103D3000F09837F81FADC330E304AD4CBC76835226
:103D400049B3905B391BBB7B902140BB30968A58AE
:103D5000AB502240460F1D8321F8FECFCF46C1480D
:103D600008F011130281C6D709309198197FA52454
:103D7000081CB3C6B8316E660AF11EC145E6BBF138
:103D8000416F5D984CEB98E04E0230B830BC9875AE
:103D9000F8013DE698BEC5ED60803CBEEBD8AB5F58
:103DA0009CE585E798FAB53CCCF698F8FB5F9BC09C
:103DB0003D5109DF8C779BE5F5239FDB644933B6E2
:103DC0002011BF696DC8F6FC0D1FB35810036014B5
:103DD0005D1A79B3E8190CA5B39DCB7D81FE4985A9
:103DE000D354EBAC125FB52BF598FCAFA9980A0140
:103DF000405C308234FE2D30FD602DA00134219DC9
:103E0000AA21883FE037C808A5BC91F307C95BF633
:103E10004DB301C0E4B398798EC1DE1B65C82C0C8C
:103E200020AF3CBAD8E1534E679EFF19DB1098785B
:103E300098DDF583CD304130A7293083E0E05EABDB
:103E400066FECC44ECC0C8C0941ED36D9660DD52B3
:103E5000A7380670FEDB8030244688EF73B040FA46
:103E6000DFF5FF4C1BF32DD71454F8AA2E9306ADA3
:103E7000CF0B684F683C09A3F30ACAB4FDFA7F0B65
:103E800085645C30FA04120146C156EE927BC8018B
:103E90000810392E409401996005FE38453CABA2CC
:103EA00048FEC3FDEF1CA0FBF798E14016B5C4E740
:103EB000309007F059C801A7AC9810DD6BFC2A01BF
:103EC000B39B3283C8BB839D30413C88FE6B41135A
:103ED0009CDCDAB8FBFAE5186BAD609D3D40102024
:103EE000A717309FE5F648DB696E66682D7F1B30AB
:103EF000F96BAEAD15B99EB398200B607D26800599
:103F00003002BE66C810E041CED26246B840C1421F
:103F100080EC8B600185B322ABDFD8F96DFC0B41DF
:103F2000230F2485B011258EE1AE63C82045046AB5
:103F3000766FCE278814117350285AFC6930DC2420
:103F4000B51488B5A9E66BBAAFDAE8FD12B52D80D5
:103F5000F33855C503C6C747DA871BABAD0D10F460
:103F600097E3B37EEDD968FAB3C80459C848F60997
:103F70006DF3C862DB81307A9F40DFDF98388007BD
:103F80004020F008D08310F802C0016F349BFA8201
:103F900076D558FA04883B90399308EDDA8111F30D
:103FA0003023013EE38005200ACDEF64A040B4D663
:103FB0001006B8F6010B68A242A0473289E227A595
:103FC00076EF49FBE130FD9E50666141803973EF29
:103FD0001146C11E71E58209202B5FDA3242A01919
:103FE0005169802060084EF1220C025AF4768F212C
:103FF000F266F31E4F1D98E30EC0DE98BFE224C8A0
:10400000DED7F3013623811C76CD48C22CDE98C260
:1040100016C887180F5A32AD88AF735C980216F72E
:104020003C08B8FDF1300D0E45607564B653C8B359
:1040300004882C398EB71EF39882D039240C46A4FC
:104040005193717DB6667B98486176960281ABB3D9
:1040500023B5AF05C13184667A5380BEE37CB54891
:10406000100923D66D0C9AFC009A6BED4BA0FDAAAB
:10407000D11AEED62381A58A12E0A7B5988D24D651
:10408000EE76ABFB893ED550021A401C68FBDCA4DF
:1040900001148AFC98510319363B6CF8AB3A182589
:1040A000CE8064650EB06606E7668BF2E02BD6988C
:1040B00002ADE3F8FEB78398772B6040CDEFFC9814
:1040C000B3E8A06DF0CC195FCC7F0E5A108081BA96
:1040D00037DBCF985AF8FBEFA6184838B31128ED14
:1040E00090CA030DE0307D1299D5B1E69880EEE0DC
:1040F00008AE13F5B4660268B27AE9FAFEDC64260B
:10410000FB9F139588820930F71106C0248266F65A
:104110008811301069B3FC302487C5CD681273480C
:10412000A8E1BDF96609DA22FFFB981EC86F98C89E
:10413000F10FF5980F71509DC87D600EFA49E2307D
:104140007EAF0FE2012C8807EF37983F16B4FE06CA
:10415000924573B679566BC880CC98FDB596D2253A
:10416000EB8B9BE008062BD898F3FB0D5CB309039F
:1041700060DBE08117B35164F3AE59E87CCE418334
:104180004B2EDF93492001460469D7643B4F0A78E0
:10419000FA5EE4374A08E6780D3890040FE53043BC
:1041A00067F5A8012D56BE3AD511208E30E4D39A7A
:1041B000F7FC29140D65C8B797C8655B04EBB65EBC
:1041C000C8D5B20CBE91578699F8BDB15C6029B5CF
:1041D00039089603BE47AD2F03561948DE9849BEED
:1041E00018C05EBEB208BC985990C9FF3CFD5ACFBA
:1041F0001780503D86E2013DB8E9A7D3FB58FD0486
:104200006BEA985060FB8C2457A0DAA576174C6CAB
:10421000E6B0E7B504443477336F10487A014B6455
:10422000346350DD450A78FDFF3227E6E5136289E5
:10423000418482091F16C00447B366C820592CDB8D
:1042400062BC48874FE14D224402B480E2842FB61D
:10425000CDEC41F2E8A70B3026B2C8BDA5019B2DDD
:10426000F3F4F830B850592CC566DB8E08F95A03C0
:1042700083190B49F390D96BE398C60CF72038F9F2
:1042800008EA1540B4FC95E388FB8C067F237B0F7E
:10429000132FFFDAA68365AC91E7987F52B8F969CE
:1042A0009EC80818019AB32C80EBD84CA6F5E410F0
:1042B00090C43D98506BF8DB0B190420DE858246D4
:1042C000B6021019CFAB508F7DDD0F1A71F169DC8A
:1042D0006D79FC309BA1F9453FEB35C8C31CEEE876
:1042E000D74803D2FF529850B21351FDC62D15FC8A
:1042F000F83088E253C9EE298840C4941810197F19
:1043000017039B7CF94DEE191070FDF41030AFB31C
:104310003CC2ED8DF3C5C7819BAB15684FF97F1C7F
:10432000100360865F8C1207EFD77F83C39F49F32A
:1043300040666BEB9811D66C81A5C6DFB12C0840A6
:10434000046725B3081D007E861ABB84808F08068B
:104350001064F2A0401995A2FBDFD2F5FC16EBC168
:104360000419C998D5801F2016D7C028DFE39D40C7
:104370003002AF6FCD1827017F50B0083776022981
:10438000F1147DB128D81CF1E75037D3D0B66607B9
:10439000E09C30151A4672308270FC0B62373C206C
:1043A0001D399B10037119FBC8F080D3ABD3476450
:1043B000E088D10131D300A9AC60DCC890B36B9523
:1043C000D5E698BC306DAEAF318005D1BBD86A5E02
:1043D000EF8C4130EB64B830947B30BA64F71781CE
:1043E000FF68B37F0F30D4844930BD12B3A34EB3FE
:1043F000020830D74DEDF9DE84E005300A38D3EFFE
:104400004A9808E0FA345E3C8B8698304DF80C6888
:10441000FFCBCB2E1F6BFFF8FB882A4C6ED240F3EC
:104420004A34F3CFFD32288DB0D380FE18243BFFF1
:1044300098FF241A33938CD16C39B2C8D1CF18604D
:104440008466DAC0FBAC80029CB5E230938CBF8DF1
:1044500066FB89B8A2FDF7345104BED044DF4C2876
:10446000FE33C88D24CF776DF391FE0CC210FFCCC4
:1044700098B5FE37DB366023F2D93CB4CF3358779A
:10448000C6FD621B6C611AFF20C4BD4BF96DFBB702
:1044900004C10696DB56596A9DFEB110D69FB0F94D
:1044A000DDF5827FD97F6B432055BF80BFDB4F187E
:1044B000A4935D084046B376D9A7C7C9ACD02143C1
:1044C000CCEBF6CDB8FEC64FB6336BD6930A2C5C58
:1044D0000330FF6DFA8A8022D4FDD2ABFB1519FAA6
:1044E0003FFB0C15E0A29A60FB3CBAF68FAE32EAB5
:1044F0003C26C4CEB4DB58DBB12008FD9F8022D718
:1045000095D5E8B940C1EEE0FF62DFA060CD02EDD5
:1045100018DEA69E6CE622140C0D50DDB1B305D951
:104520005D2080CDEFA0869560854109E611288B3E
:1045300080847BA96908D2CA30DCB31C1EB62C0467
:1045400094C3EEDD3CE3182113BCF604B2A8CFF40B
:10455000A16009C4B03CFF030840F2F401A053F489
:1045600050553CC6B4155A0480FBFF97BAF69C44DC
:104570004A79BE849E0466F98375B1BF83096E8152
:104580002FA231A72F1907C482C0BC08E51B6EA05B
:104590008EA60E6C7030F930E54910B79ADAADADE1
:1045A000409B5650FF1F59C440DEADB1046FECF87C
:1045B000A8FCFD3774202ECC8C2B6D4DE8FBFC73D2
:1045C000CF59E408A6643EA5DA78F87DF9057A6C3F
:1045D000A9633FD2639C6DD888FD4241B180DE5B08
:1045E0000E012C80FA6CBCDD15046E80A584F948A0
:1045F0008A7A8A60C63F32026728F701A02560A741
:10460000C0B276D91ACA09C8FB3215E5FA01861973
:104610002EB1FA8DB007C1B3FB6182CC80CDFBF91E
:104620005CCB7920B37FBF32ECFEADECE810022EFC
:10463000589A78C9668C28B30478C48C192BEB1768
:104640001DEDF6B8841D176E0663F91FD950FB8661
:104650002661CD85BFFDD9B8FBFF54613F5969ED97
:1046600052C0FF8F2C8580F0ABAC5B9B0F70FF09B5
:1046700036A4CF58AB018B6180FA66FE9704CA3826
:104680008DF31B2C7DCF592220D92E7AEB90E52477
:104690004098824BA111558B08842D3F58FB969E64
:1046A000B3083C69C28D00E0D74CAF3140FF30BF4A
:1046B00006F65C6067F6C4B8F919F8ADB10A27E7E9
:1046C00038FF08765FBEFB51209748108244448E25
:1046D0008CD81108B74DB5E3089E143657FC61ED30
:1046E00070C4D8A620D7A7DA80B740025B9A0C46E0
:1046F000DE8E09FAFC0CDDF350EEE516032165FBB6
:10470000437838468009A01030DFB86802F0B06CFA
:1047100010A372D2C40CE370B6029037C2606D462B
:10472000FC39A2D00F25F9A3FF0CF8F385FBC104D7
:10473000212510FD669C0A128998A74207495267F5
:104740007F42201089044A033A0280E27C8B2101D7
:104750002023F8CE4C114082C9CF31EF200ED06615
:104760001902018A0851E5B3BF989DB71FDAF2AC70
:10477000762311F6DF042082B3333DD0022CAA6BDE
:1047800088352668FC908A5A669FA6EC23224085CD
:1047900071F87FD9E93A40624BBD010933734CB0DF
:1047A000FEC74CAF5F966BFFA8E808ED7318404654
:1047B00017FFFA797F99C6F735AB15FC2FF6030181
:1047C000523E10CBF3E9195A5902BBBC48FF0A16F6
:1047D000FDF80485FA48DBB0FF183FD699286442FB
:1047E000F7B1104DEC17C0FA906BCE3217D66F149C
:1047F00027F6242C44D9D8FF861E528B20C930F1CD
:104800008B60E45B1C727D44C53EA2C2B6FFD0FF44
:10481000DC68BD50236DFDA5800BEB734031371074
:1048200063DBCCB0FA874C6478E3EE3DC4B3FC663E
:10483000F5848C98C9FFF6F918FC2AC5B1085EFA10
:104840001814061002D43A03DAF40D8B9DF3577A4C
:1048500008B0FB63E61A2645B10325E4A88B76175A
:10486000608C2A4528418B3C01463042EEF074F3BF
:104870000483F8E1E0010C6CB8FA58B3C4FACD76C1
:10488000B624085681845B4CBF98EEB2599C78865A
:10489000B33FF87588180246C5736D1AB7E58244B0
:1048A000A6C00CBD053001788B667B78C4C9EA339D
:1048B000908007D3F08C039A67701E4068E6F63D3F
:1048C0001028F81617666C6706EF977F07A0193156
:1048D000EC38F95BECCC539042090649B318B34667
:1048E000F49FAAC128587A1911465C2CB365FF348D
:1048F00067784FEF7B1442F398B60EE3F0F4ACDD2B
:10490000D1FD637D936CF7B50C4BF8060218DFC23E
:1049100080C8F8611AB308DCC0D3C0982FC0820EDB
:104920002BF3C998EA836AE2EC31FA046CB3CF6DD9
:10493000FF2488BF610DB902E0D064B49512FFB3C3
:10494000615EFB130216015FA57FBC21799891FB84
:10495000253A1BCDC80C8875AC91EA980F23F34318
:104960002B527BF8A0C2D5FF06BFD97FDE70D8835B
:10497000FC5CB46FE698DC876E193607FB9B4261DE
:10498000270087A328C36F5A980DF9981BF32DB3FE
:10499000FA340EC74DB3FE50C6DBDAA8F9438609D8
:1049A0008D1B7D9808B40335F3E3307CB02E8F5611
:1049B0008802DFCF03308069D1118D7F04FE9864B7
:1049C000EFD650FA6AD2612019F68A300246DE9894
:1049D00005DE98D7C0201B301EE3662C9D25761877
:1049E00061803C572E300C5B191EFE7FB8C6F4AFB9
:1049F000CFEE2C84016C2606BD6D01C040C649F483
:104A0000FED7EC0C24CF78882930B3123930C0A3FC
:104A100008F36FDACCF898D348FFFBA001048006B6
:104A20005219251C6BD0AF49B1E6F3D8F4FC5619E6
:104A30005CD766F6B1C0C9E530F0AF18304BED4B2E
:104A4000C4011FFBC0301FC630F96E7E6CC8692BD5
:104A5000CA2EF5A4317DEE262720AA8D8F593DEB75
:104A600018A09D51FC9AFFAF180CE2BB22D5F8119B
:104A7000D1103014FF7F45A7E698E3664331035A0F
:104A8000FE69E6983C196BEF2BE4810C8801B79F17
:104A900098FD7C10201F67AC323C1046BD17B1203A
:104AA000CEDBB842E5CABF1130B6FE9864EF1CDB1E
:104AB000FD68B3629DB16FC8550A2DF97C086DED94
:104AC000980C040BA3C664DB90EBB3A8FFC9DF9E70
:104AD00004637EEE0680D5F82378F5D9A4517C30A6
:104AE0007348A0094AF2FBE2AD333256190868193F
:104AF000B67D31A275FF412817F9B376FDA02027B6
:104B0000BD193088AAF748D95E417BE308046FCA13
:104B100030C0F48B02A18DBCB8EF58F9845819024B
:104B2000A66CC801D65F81058E2F481520EEB71000
:104B3000F8FB1B585F1ECAFD68FB049B454680338B
:104B4000DB9818098CFA909B1601AB018843662705
:104B50008530F8793F27F250FCE8FC826076F70751
:104B600072626E1EDB6C5CD256EBCBD6BC0EFC3098
:104B70002799D3C00179E61F3799C806DE66186603
:104B800087581EA7DB60FD627DCCC6669F8FB12271
:104B900036B33090D5BB406A19D980912219E42DE3
:104BA00010DF7F01EAB311E57CFA85BC300288E5AD
:104BB000A44893EB981A5D2E245A30FD98D9E74B00
:104BC000FE3B1B5ADA01AC95FC2BCFC8C0013D441B
:104BD00019FD64FA981C2B6EEF5488FDFEB3D028A3
:104BE000C25E2F3025A5780279D47DB8FE98ED44B9
:104BF00082489BE2F3F81CEB173BCB4A29C8669826
:104C0000657898DADC23E6D1E1C6F2C8DFB61F404A
:104C1000DE98EE813C90F5784495ED98C883AB0C16
:104C2000E0F9B1049FB3CBFA178D89FCC5DCC95AF2
:104C3000A9B6E673FA86EA3A19B780E630B010CA28
:104C4000CAC8E23036F85AB3E0FECC04C232B3F63A
:104C5000982482C9F4983416FE983EE6300858FD30
:104C6000C73649CFE9B1CD6571AAB98D7876EDF334
:104C7000D0FE3EA7C27F59980D5E98BF30D698D01F
:104C8000DCEAB568F39809737B258F0409BB10D75C
:104C900098508A70B36D6D824098592AF90C2BECAC
:104CA000FD100B0ABF7F0165FA980BF4E6806DD802
:104CB000F88479C801BFB6982C8029EA9860FF6F04
:104CC00028F8046129B89FE6987F00F2D851FB5874
:104CD000B4D928307E980191EA9888DCE3F9B1F3E1
:104CE0004F5F988496367F6E173476D14008224FF6
:104CF000AE9840F879F801363BE0FE08FF7F126F6E
:104D0000EBAF3055F7029BFA9588F798B0FF6072C9
:104D1000F5F0CF58B3108ECC14FF90BFCDCF985A7A
:104D20001D04FA98C89A190FE06CE638FC57CF9822
:104D30005BE9049BA532805130F546B77F9A0C3A67
:104D4000662202416EB30CA07066FD80095893196B
:104D50006024723902F332BCA7D777B288BB669859
:104D60008421F40C2D40FE98BB03E7BAF511D897C7
:104D7000FF601919EB6678FBDE10B5073521FF02DD
:104D8000E8013C5F4A59D5B3027D9803A760F3C0A0
:104D9000FB84629AD42EE36D6680051BF2D8025321
:104DA00066515772656EAC03DB96A4FA9A87B1140C
:104DB00043B36FDACA08BDB384113208FE98AC0A57
:104DC0008ACBBEF9FF5A9823E7A770FC6EC163FC3B
:104DD0007D63EEFFBCFF2069CF80060292408143D5
:104DE000CD33F3FF3228636CD380FE06090DFF98A4
:104DF000FF8D9993C6D13839B1A36FDECC40C46121
:104E00006366A9F869F69B6193EBB50163B516EA91
:104E10009659E0807B77F058FE040111BE9AD1626A
:104E2000E7839C31246EB16CF34CE643F84608FFEF
:104E3000CC5F7F61BFEC4404C23D581FD855B69685
:104E400035F754F58B856A662016C67D31EB98F8E8
:104E5000080FC0FD4B088BEE6F02C8D593FD8EADD9
:104E6000B34256BD2177D9CFE31B8EE080FAC29FB3
:104E7000114AEC8BCC63E210D67C18F9C2DFD792D2
:104E8000109EF9996796196D2CFDFC165992C6640F
:104E90002BD3FDC208DE0481F8B810DB5AF3BBB097
:104EA0000890F97F3365F57420467C7B03A815CC08
:104EB000A006C3505A3239D0C690D796068A481EEB
:104EC000E76235F0FA62FD31B1112FFE423301067F
:104ED000840498BE68839714E1B2B4A0091701381E
:104EE000B2F8F94C3AF3507390DB3B88FF0AF9971C
:104EF000805D78297CCF817797E1DB721FB7DD0F6A
:104F0000A5FB85FD6E7F03DC0188FE4C30C77BB1BD
:104F1000086ACFA3043F1332E2BF5B9876D896EAC3
:104F2000B010CFF9122D627DB1B0A8A3B617016100
:104F30006EE6566AACFDF3E316EBAD1B33A2DBC89D
:104F400058FB13F35137ACBD256CA450F8240084F2
:104F5000D7B6272221FB792876F6F0FFC2AF339926
:104F6000D65004568096D898F925E52E8108B3B31B
:104F7000087B96013607FE17ADBB018CF8F6AB5DDA
:104F8000FAC08AFDCC40BEE0BC106CC8FD0B7FDBD4
:104F90003220795D842BB3A81D3319FB5502B12053
:104FA0008DEC7910FD35F5A501999721B2FC58FAE1
:104FB000E9C77E526FD88016626B51C089F652F8ED
:104FC000C11BE9828AD860E1DB641075FA05B7D8A5
:104FD0009397EC204C2CED6480A82D0627FD13F050
:104FE000FBE09FD8E798E599529FA560962EA68E84
:104FF00031A9A802776AE2DA20408EBCF58140BE72
:105000002FB22EF5E481A64514B4DCE5CA3125FCA7
:1050100006E789F8A7DAFCC0FBF2201037DDA420F0
:10502000F50A9DFD2A052EED2074A3C401024284D9
:10503000051E70F976F06804EB4C8063F827C9B858
:10504000822068B39960CD30CDC48280E7122C40B5
:105050004F08098F200439E41032FC9202DBB33789
:105060002C50FD63FFE223973D9C012DCE4809A7FC
:10507000C4BFC510D2E0FFFB04C28D5F7040F2E2F6
:10508000AA1A43AF025FCC2D8002F32FE2BF68FA69
:10509000309B6C56FFCB5910EF31D9CCB1FBC5B961
:1050A00004AA9402597EDD6CB3027AB16C4FE81801
:1050B00034FC8C80750280624BEB581DEBB175ABF4
:1050C000088CF1D0B2D6D0C83166F0D2162072EE7C
:1050D00020CD5819FDB96E9E7163FB23D830FC7E3C
:1050E0001A7AE301FFB0B7A3967D023EDED8B8FF7F
:1050F000FEAC372058F2CFD7F1F8FC4061B7B6AA22
:10510000010867D161F6863E4B62FFB9FA90FF2035
:1051100080245FE918C598CD4E349120D982B1FF23
:105120005AD308BC1ED0100A420B684601F0F9DDC4
:10513000DF8273FB413072D510C3465458FC85039F
:10514000C4CDBD03027F23813016012B087DA0034F
:10515000A318FB99C9C080CB70566724F1FB544259
:10516000BAFDB874FB6BB605F625503EB280A3F2CB
:10517000B3D82DBA80603DC9193083F88806125320
:10518000EDB01101486610DE2006C1020B083D118A
:105190006044CE6C43B3C923256FF533C250F9A8E0
:1051A0001C5FC59A40EA037CE2E0810C8007D8F3DB
:1051B00016F066DDD37AFCA83C0883C606F3C883E4
:1051C0001820C6011CDA69FA1C061E71666E82067A
:1051D0008CF320FD7E6093D40D794766F617855ECB
:1051E00006B3B90BED05D22001B340C4BB6004D9AE
:1051F00008150DEC9368FFCCAD101CEE0D03602775
:10520000B3B328FA5E24A411E84A04CC3AEF900420
:105210006FF3085A16C0EEBB04794367E015CDDA88
:1052200018047ABA40BD01414EF78A421200D902F1
:1052300023F7BB0DFB7F9CFA758680BFB62A40180A
:1052400076AEB00CEF1767D5FFA306F4D65383A94B
:10525000D30439AF1817ABDF369A78FDAD890888CB
:1052600035FB0CC0F41CF0B3183765117BC8077709
:10527000EF5DEF4426F0E00160B41582E925A384D8
:10528000C7C635E6C0FE9B0A0ABD424072EDA85E65
:10529000E456BD21CC886AB3B469F75877B7EF47B5
:1052A0003380671E022B8F683948104C73F173F9F5
:1052B0005EDD69FD6A0B04259B85E47A8B48CCE5AD
:1052C000A351EFFA8E477CCFDE8009F5C74808343A
:1052D000B3802C0B400442D4F32624889979C1FF73
:1052E00050B90D3B16D7D003FA2FE0010CF5C5805D
:1052F000A7A59860A795CF9B4A84F40DDEE041F501
:10530000951E90F3D6943CEB900130CE98F3F5992E
:10531000E6D0FDAD7FDB7FFAD2105966DAB701AF78
:10532000288D34E0D4F5F132666FEBC50498E61BA6
:10533000F95D453004CAEE117AB3288205210119BE
:1053400090B308798F127EE049195A8938B35820F2
:10535000221B1140B9E0A07896D0BF8C19FEF3F85B
:10536000201005802674F69A049FFA4D2208140630
:105370005E961ACD96A09A53660E23DA1966FF7FC1
:105380000A42FA03688245026170C6D05C03E1BC40
:105390000DE6FE513006661746ADB1413F05106679
:1053A000A96614FA5C3BB377916F3839BEF3C65FD8
:1053B000DCEC0C34CAB0FABBFABC5CC0C4EDD780DC
:1053C00081A298C0B51BB3E620432ADCFA4D771BB7
:1053D00066A9B51EB3B860089DC6C2401871DDA7A6
:1053E000B84BF0F808E6ED46D58F8C5E7C772DAA99
:1053F000507CB1D7971660F7FE416FCB51FFCDD9E6
:10540000EE1A2066BB44FB7F0A26FAFEBC98E4E94C
:10541000CACA6648CB77770801A372CB042A1673F1
:10542000A0DD9FB2225E6641E70BFFD7EB3A6B63CC
:10543000EE57EE3340C85CDD41B92499E895F88910
:10544000CB3D024F72980FE8817CC9F5983CB7DFDD
:10545000CCFF7607090F7278F0C0D3C4957863CD7E
:1054600030A00571306C46BBC69A6DC8FA4AD82088
:10547000B42571E304DC3067E83AB5B3E5F409908C
:10548000EDDB83201EE4F7456FFCDF71FCC1558224
:10549000A044B229B388D3840552C0226BADFC81ED
:1054A000B0AFDF2ACB74028230B462BE0403D341B2
:1054B00051B008C221C85B155FCCCE8401E0D0FAA0
:1054C0006FD634FEAC4003FFA4D957504B5A4DAFB2
:1054D00018350D53B305FB12AB8DE00269E9869ACE
:1054E0002B1B0421A6109112D0BD8B23F16C080157
:1054F000A0BD341058FE113B8AAF5CB1D45BC3979A
:1055000010F8ACF330ACFA42427760BB353FECBFE9
:10551000604796F7D2D8C660E11984E468FB60CD95
:1055200014DE7FF41F0240C077AE98086D9F804163
:105530003E7FD5AC29F777A9FB451EF7D3B970F8A4
:10554000383CDB422008E2F362109819307AE8F91F
:10555000F54780CAE00917B3A28BB3F382801670B7
:10556000A0191E4EF85D77A6FF210D7B6443BB6832
:105570003708347CE801A40B0C34663544F8CC5D64
:1055800010C604C0AF60424B905DF237E298213CF8
:105590002C84BEABF366FF8859FB672BCF88494448
:1055A0006611BF333EA3091044485267D9402967AA
:1055B0003F8BF8C0013D80AE07BBDEBDB10FE041BF
:1055C000FE98861EE2F3FDF6A0AFDDCCDFED448D44
:1055D000A20DDAE201F33003183726047ED6B01CA0
:1055E00016CAF378F3F06B7A90FCF3DFFA64DBD53C
:1055F000D220F76EFCCCA3A984C865F9F4BB2205C0
:10560000C7979B66FC67BB25D45E2011CC41105820
:10561000F8C0C0304DB35804A1B3D90EDE0459A66A
:1056200047D5FD43163CD2679A285AE232B3980216
:10563000256EE210EFB9800281071344F820408400
:1056400011289FE0FF300034A791941A408877F228
:105650007F4434BE6FDB0AEE80A089469F68B37733
:105660008FC135A823041DA6FB3E404108DE98816A
:1056700046D22042E3E768000DD31442DA70FCFE04
:105680000618D02E59591AB57979E4B31F4D321343
:10569000A8B7919826AF9B32F130171F0C7DF731D8
:1056A0002806A5FAF9B5D1828101B2E0825AE672E4
:1056B000C070FE7DD34913AA3342A1E51169D3C658
:1056C000F889B362767684C2F1FA0C0430AF26DA38
:1056D0007424C06605D6B3105E89F3B5B03DC4FA34
:1056E0005FDF038DD721E9CF2E392CF78124C40247
:1056F000AE01C3FE0841A13FA2F904883008F020A2
:10570000C44240E909308809DC300807F4651370A9
:10571000817B04B001A762224B438AC748916AB2D9
:10572000EE090111EF914246419522F3F37844814D
:105730003C7260FB680E3C8007EE6B6A0301C29806
:105740004A0DE65FF310EE98013C88D76EF479A21B
:10575000420F8A04E06BB50698C80F09C605B93038
:10576000F37934636436CAF8FC53DD16C1DC994A18
:10577000D782E3307FD17F821F1FF7DAA60216ECB3
:105780008547C06CB461D2FCF104A9BC83CE9EBE37
:10579000FA908528BC3BBF4E0B5FF92996C7C0BF66
:1057A000247D632C4020AEB4FC4022D44BA42A7745
:1057B000B3A00260DD448CE9F815E7F598200B6092
:1057C000CCC408027F68FAA005D234113A1AE26DFF
:1057D000F64C1422B9308229F4F3A128F7BBF3B3B5
:1057E000DD24626ABBE7F073A21109DD0401BF6624
:1057F0004250085A17206A5E6B5F8DC0D8FFD141B6
:1058000030EA69ABE6719C306C342DF50DB33B602A
:1058100037B52AD3AF6DB88922380BADA4738ED0BB
:105820009BFB7231F93084788EB7FCF298E2E9E3A1
:10583000F6CFB9EF5C2733AADBFF6071307A700CCA
:10584000BFCC0823CE880F8360209403B98B85FFDB
:1058500011A13091662FB8E230FC9AC0DE2A0968A7
:10586000C421307FEFDC687B5E0F7330FF6644023B
:1058700012B4FCBECC07108104C218214D1008459B
:10588000749AFAB3053220C6FA48DAE3E43005AE7A
:10589000AA1730B3F030DE5322B3699F6C55277AD4
:1058A000BFDA8049F4A0AEFE3FEDD3CC826562033F
:1058B000148006109DA4FAE001789805FB2F83233D
:1058C000903006DAF898BC21C4FEFB6D0502300B5F
:1058D0006F7398C40258260459C8D701B18398AE93
:1058E00078CCFB81E990AD66D14306667544FC3007
:1058F0004766F9CA11F382B9770BB3867F3FE54D4E
:1059000044F72F01DA60407642FE1789280148B338
:1059100098AD4BB322C8C2916BD4640E7FD145D5EC
:105920002BE0136D164BB66B4957FCB0EFC8040B58
:105930009A6211846ECCC8F8E430268CD15CD7DC36
:1059400036C222DC300221BEA8D3EF287B1943DD0A
:1059500053677F7D980364122510DEAED6584460ED
:105960008E29CC0D57B43A90E27DEBA151CD496818
:105970008659C86517FF53CCE3475FB2133C980BB9
:10598000BCDBDF5408403940B95EB3BC02ED9C611A
:10599000808110759BC808CDBD4BE62D341E575530
:1059A0001B7760DDC07869A749328390032FE7D366
:1059B00010D8FBC20C4483040159FA40245CFE5AFF
:1059C000FC9790E4AD26B039366A7BAC0955ED17EB
:1059D000E7057D9808CA0B61CE57DF85FD9F19400A
:1059E000234413D3A638FF8F04B07B370821AF01BF
:1059F000579888093013496994C8DC686629F619F4
:105A0000D5D60B7F5A9B0C5A1184A2408FFB92FE75
:105A1000707FA031302240F968023DB43FEE06307D
:105A2000EE3F30DB981608FC98053CC6F8DA10FD0E
:105A3000131D0B07E041B66FC810FF028807B0F9CD
:105A40002006C8035AF3AFE47A6BB8FD0880E33050
:105A5000F8723AF1E58E43C08C106B96BB50B3D907
:105A6000C30B1E986CF82E7CF52E21DC8F3CCCF8F5
:105A7000FA9027F981FC30B40CE230EBC0D6B329A0
:105A80009A5501B1C0BEFBE3181152BE0C8511B38B
:105A900073C00A60D38280220598A3FB6994D19ACF
:105AA000E4D70C8D5D2EBB941A9FCE4D2288140135
:105AB00064BD6620010BEFC53DCA1002DDF4206F06
:105AC0001F3480CF06D0E2420309F5010DA030E675
:105AD0008BDCF79410117347C99E866644C08364BB
