:020000020000FC
:100000000C9448000C9448000C9448000C94480050
:100010000C9448000C9448000C9448000C94480040
:100020000C9448000C9448000C9448000C94480030
:100030000C9448000C9448000C9448000C94480020
:100040000C9448000C9448000C9448000C94480010
:100050000C9448000C9448000C9448000C94480000
:100060000C9448000C9448000C9448000C944800F0
:100070000C9448000C9448000C9448000C944800E0
:100080000C9448000C9448000C94480000000000B8
:10009000F894FF2411E0E12E1FEFD12E1FE111BDD6
:1000A000F1BC1FEF1DBF10E11EBF1FEF10936500D5
:1000B00010E01093640018E0109362001093610048
:1000C0001FEF1093230010E0109322001FEF1093F6
:1000D000320010E0109331001FED1093350010E056
:1000E0001093340019E71093380017E81093370085
:1000F0001FEF10933B0010E010933A0011E01EB97F
:1001000010E71DB99D9904C0C79A9D9BFECFC79863
:100110001091610011601093610013E91A95F1F7D5
:10012000109161001E7F1093610000912000027009
:10013000E1F3E4E8F5E0C0E0D1E010E805900992D1
:100140000FB81EB017FEFDCFD150DF70DF5F52E059
:100150004FEF110F11F41591111F441FD0F75A954D
:1001600049F402E0459580F00395439551F053E042
:100170004FE3EFCF5A95B1F4469500F35395E9CF8D
:10018000040F54E04FEFE5CF4395D1F453954795D5
:1001900060F1551F110F11F41591111FC0F7050FD4
:1001A00056E0D7CF5A9511F401E00BC05A9529F4C7
:1001B000439531F455E04FE1CCCF5A9509F7542FD0
:1001C00045915A95A42FB52FAC0FBD1FB150BF70EC
:1001D000BF5F0D9009920FB81EB017FEFDCFD15032
:1001E000DF70DF5F0A9591F7B2CF10E51DB9169A5F
:1001F000C79AA0E0B0E083D1E8E4F5E08CD178D0F4
:100200000A2F93D100E29AD10B2F8FD1EEE4F5E0C3
:1002100082D1FDD0E8E5F5E07ED1E8E3F5E3FBBE71
:10022000A0E0B1E06CD1C0E0D0E070D0A0E0B2E0DE
:1002300066D1C1E0D0E06AD0A0E0B3E060D1C2E016
:10024000D0E064D0A0E0B4E05AD1C3E0D0E05ED00A
:10025000A0E0B5E054D1C4E0D0E058D0A0E0B6E0D2
:100260004ED1C5E0D0E052D0A0E0B7E048D1C6E022
:10027000D0E04CD0A0E0B8E042D1C7E0D0E046D01A
:10028000A0E0B9E03CD1C8E0D0E040D0A0E0BAE0C6
:1002900036D1C9E0D0E03AD0A0E0BBE030D1CAE02E
:1002A000D0E034D0A0E0BCE02AD1CBE0D0E02ED02A
:1002B000A0E0BDE024D1CCE0D0E028D0A0E0BEE0BA
:1002C0001ED1CDE0D0E022D0A0E0BFE018D1CEE03A
:1002D000D0E01CD0A0E0B0E112D1CFE0D0E016D049
:1002E000ACD0A0E0B7E10BD1E2E6F5E014D1FFCF4E
:1002F000A4D000E9A8D014EF03E0F4D0C0E0D0E02F
:10030000D0D0A02FC1E0CDD0B02F97C00D2F0DD1F0
:100310000C2F0BD100E212D100EA95D00691CDD07E
:1003200014EF03E0DFD013EFDDD00F93FED000E237
:1003300005D10F911691012707FF67C013EFD2D0A7
:100340000F93F3D000E2FAD00F911691012707FF27
:100350005CC013EFC7D00F93E8D000E2EFD00F914D
:100360001691012707FF51C013EFBCD00F93DDD0CA
:1003700000E2E4D00F911691012707FF46C013EF6A
:10038000B1D00F93D2D000E2D9D00F9116910127AE
:1003900007FF3BC013EFA6D00F93C7D000E2CED02B
:1003A0000F911691012707FF30C013EF9BD00F93D9
:1003B000BCD000E2C3D00F911691012707FF25C0E2
:1003C00013EF90D00F93B1D000E2B8D00F911691F7
:1003D000012707FF1AC013EF85D00F93A6D000E2C4
:1003E000ADD00F911691012707FF0FC010E40DE16A
:1003F00079D011E400E076D013EF74D00F9395D04C
:100400000F911691012707FDF1CF1791089500E88C
:100410001AD000E118D014EF03E064D0C79A10E4BA
:1004200001E160D011E400E05DD013EF5BD00F93E9
:100430007CD00F91C79807FFF1CF00EF04D013E1F4
:100440001A95F1F708950F9314EF01E04BD010EFD8
:1004500005E548D011EF05E545D013EF0AEA42D093
:1004600014EF05E03FD001E042D010EF0AEA3AD0A5
:1004700011EF0AE237D013EF05E534D014EF05E0B1
:1004800031D001E034D010EF05E52CD011EF05E5B7
:1004900029D013EF0F9126D014EF05E023D001E00F
:1004A00026C010EF0C2F1ED011EF0D2F1BD012EF16
:1004B00000E018D013EF0FEF15C00F9314EF01E019
:1004C00011D010EF0C2F0ED011EF0D2F0BD012EF1B
:1004D00000E008D013EF0F9105D014EF05E002D033
:1004E00001E005C00F93C09A1FB903D00F91C098C7
:1004F0000FB90EB007FEFDCF0FB1C09A089510E2FC
:10050000B19FBB27A00DB11D119710E40A2FEADFA0
:1005100011E40B2FE7CFC09A14E41FB9EADF05916D
:10052000002311F0E4DFFBCF08950F93029501D073
:100530000F910F700A3008F0095F005D1F93C09A99
:1005400014E4D0DF1F91089549443A200000202090
:100550002045726173652000202020577269746500
:1005600020003D3D3D3D3D3D3D3D3D3D3D20436FFA
:100570006D706C657465203D3D3D3D3D3D3D3D3DAF
:100580003D3D0000FF1F627FC23C006088FFFF808E
:1005900008900122400488C60011850302E244103D
:1005A000015C41F39320F5E6101A00CD6EFF0C10AC
:1005B00046D3086CE033F306D398E9200364F301D3
:1005C000FFD8FD0015E0025480F00A50012AF30420
:1005D00068FBA0DE02B4F3E64005A8E6A01B39B331
:1005E00012B9A0D3D00DB0E0CEF30BD374C005B8D0
:1005F00038F30270F84C121BFF98FF0229B38048B1
:10060000FC40ED1DF458FF06848BCB400856A82112
:10061000099FCC607718B31FADB30810A3F8040886
:1006200063CDD6C8FE8FA0B30474554030F8E10204
:10063000800E5818E2B3FBC20642CE66050CCCF819
:10064000070F0639DDD128F98FBCB40CEEC40D4775
:100650000866B3CC71B3E0B1F8FFFDF614EE7C7020
:100660000A04F8F6060E080536D6D891FAFB661885
:100670008FDC5E34B390E86658E2B309C207199480
:10068000080D7FFB304A840E1D763A68FD0410FA8F
:10069000BF10D4F8C756B36A3E667FED3E023DDB1D
:1006A00018638DD678FE841F32EE463860786D165A
:1006B000020518AC73ECA220EFFEBE467CD3600DA1
:1006C000F84E02D80B08E2B3C0C207669A4EDCD3DC
:1006D000E501F85F06D80B4FE7F69FB8FE3FFF7FB6
:1006E00092DE7E60BB05F907060A12638B66FC1F6B
:1006F0007DB382CE3C6521DF7B2366D809E718ED08
:1007000041E04B300E181E8ED7070118BFD3FF7083
:10071000FA2C4525F597028FFB9820FE6117B698B5
:10072000100AABF4021CCBA4083D4B2CEF565F70B3
:1007300060620307B1C61944FCC20CF757EE66109D
:1007400033BBD0066011636BD6F808332E12EEEE81
:10075000E617F49869D8B307EEEC49FF20F24B3B5B
:100760006672E389B3C777969B6107FD7FB2CEC6F9
:1007700074C9F80BB363B81BD839FAE7D7D0BD9F5B
:10078000A01E1F10CC195007D81A09EED84947EB04
:10079000998ABCE9C7D6D91B3A19706D0E22108010
:1007A000F7F3110801636DD330FD8E13B3710406A6
:1007B000DC7650BAFB14021348041C301983DF4B5B
:1007C000902654504248F85C960A3A66D8A0FEFF3C
:1007D000FF7F9A26DC7310024E66010A8FC73B63C7
:1007E0005863B9C84F7516065460A751F505010640
:1007F00063BF7BD8C2F8F60897B3F95441AB4066A3
:10080000F6068639FDCC50FD8E1319750C0EB41CFE
:100810000FA802B1C0C586B8B6D896EED86F477D8E
:100820006081FE8F851976ECE40222CD7B28843628
:10083000C6EF84765058F88AF6ACAF4477F57F035C
:10084000EFC20E32D081AF01D8A105F6369430FE4A
:100850001073300632B9D5F860EC040E0F75B3F999
:100860006107BEE5863AF0400202E3CE1E6C663BAD
:10087000F97E7E4CB20E3A75E7F451010EB18ADE74
:100880005830FEFBB30204F51A104001FCC1880F7A
:100890006638B3D8E8FBFF05CA7798E5479DC81BC3
:1008A000FC8FAF660623FA661F968C88FDC7FF7F14
:1008B00086EE1AF740FE7F430C1B1E58B2FBFEFE6D
:1008C000968A0EF6C080E6F51349C756B47010FC40
:1008D000CCDCB3CEABF62113090F3B3DE7F8048F18
:1008E000FA4B0A5C66F8D84906F31AF8FA63C5B3FE
:1008F000DD6DF7E4CEF8410701C7755FE0B0FA821D
:10090000FBFA1A9E4FE5320A44658EEDE38FDD60F7
:10091000BF98E5FA8948C20D366263240140D820A9
:10092000E2D6A8C2196FDD02F64B2144181D58B358
:100930008C4066EF042A6EFF3286054F63ABD620EB
:10094000081E66148AEFDBD1B30BB107D8D85CFA66
:10095000414F118B6FC0107AB34AC77B163BB0FF73
:10096000831D941BEF495DAC36B30E0638B3B10955
:10097000D5B307A7B4E39003ABD80A4BEA6608C720
:10098000797D0570632028D05E8CF575B3FB610E10
:1009900063C88096BB9BDB018E7784D0FB6103B379
:1009A000FC5FBDE0B31AEC0B400477B416208576EB
:1009B000694D403C01671FF3EF75CFEEE0107630D4
:1009C0001C020BAC2870D3C7FCE59BB34EF9EFCFEC
:1009D00003D80B0FEC76A9F9283E66EEEECEE06563
:1009E000F84607B48D983945DF649CCF4FF17B669C
:1009F000170FB10ADDD849F9FFFDCC0C5C8C80FEE5
:100A0000408F0A40638BD3401F8BA943AE08E9F89F
:100A1000B8B1FFA3933C97C718D398FF0C11CCFF34
:100A20000EB3B303F5B380616AB318C6D666011678
:100A3000AC66FE0CDFB07F3F56B310090DB3CCFBA4
:100A400083991981FAB3607E98B37DBBD8101E5884
:100A5000B301538DE0B8F88197F67F07EAB389C1F7
:100A60009B4C150FD5B3028B6277A8C1B7EC7FFE04
:100A7000D81802B77608F8F93EB351F7BD30F8033D
:100A80000218C739C3186108B3DAC210FEDB08C701
:100A90002F4B18B0FDACB3C76DC6FC6398E123E2E1
:100AA0005F401134D0F4363D2B66FA083DF820B48F
:100AB00080DB491F9D4DF881718B94408CFC25583B
:100AC000B3D8486679B18FDF36C8FB61065BF22C7C
:100AD000B2017D19FA63B9836091475EAFB220F32A
:100AE0004F08BFC4A063AB190423B62C083E66B1FF
:100AF00078FEDE64416D7810463A65B140D2195AED
:100B00006C0CAC19047D66E0B0F93EB4AFC3F3B32E
:100B100003F5B30CB510D35B1FEEFDA8FAC2358CFC
:100B200030B75835DBDAB0FC610AB5015A62F2BE63
:100B300006C73BFEFD610E772E010E3DB30280C05D
:100B4000068E3BB3C0FB08085BB3100AC1B3EC08C8
:100B5000056DD6396102661068B314B348B6B32C7C
:100B600071B3A16110B3B5FDE030AC7BD6E5043EB6
:100B7000196AB3B102F5B30A8438946401B3B109B8
:100B8000CF6CE5FE10225EB304B3B101E9B0778308
:100B9000D64B14A9B308B363B327D878FC44B3DEAB
:100BA0001E081DECC10204735B36FC0C08BE7F8E70
:100BB0006E311BD617A2FEC22FDA32167FA7810232
:100BC000B108CC4094F9613790E568B1F7C5B3FA44
:100BD0008462196EC225FF198554F863DD64B0483C
:100BE0008B8D30F885C75B5F5CFD08D6B30AA6B372
:100BF00038B2B0988DB30E69FD81C00BE6F21CD1FE
:100C0000F8BFE83E0966C737E3CBB0FA8BDBE50CEB
:100C100012DB66400A1C58D66147E0982C1223FE6E
:100C20007F48F8C7B4B45EB3AE6117ACE56B77B676
:100C300017099FC9B5843166CED8845845E54BD68F
:100C4000FE9D1E8288C73C2CC74FB337C2EDB188CA
:100C50008E723038C74D191BBA1E43DBBAC0891CCF
:100C600047B3F8B0088A94F950FC810504B180C5F7
:100C7000B3928E9A1937C20C03FF2A8480639EE4D4
:100C8000B128C3B3657581FEE163D450CBF0F8DDC4
:100C9000088CFF236CDA89FA224BBB101108BBFECB
:100CA00068B0FB866A782C5823CD2EE08ECEC40324
:100CB0008CFC27C5E118845713031EC07BB3808AC0
:100CC00063B679B1FDC219F8CCAE251969098FACAC
:100CD000665223E57D14FDA636A50A3B6B06FF0888
:100CE000B97D10B880F5C7DB6640FA1EEBFED1B3C4
:100CF00001D845EBE5691C5B19807A0701E3A81E62
:100D000076FFE8FB103DFACF065FB340E0DA98F7D4
:100D10002009FD3088B35169B38FB66620FD3E19B6
:100D20004BB31E5566078E36B3C0FF3F8447B37A78
:100D3000F80BC7DD6688FD048424B3DC7A6622C71D
:100D40005019FF184C662CB3793BC8B1FDE3DE7D2A
:100D5000D8EC02FFEB32788CCA26C3921F58B3D866
:100D6000FE12946E90D7B6A6083D2B43FC080DB337
:100D7000FB594863ADD660F9842BB3805BEC608887
:100D80000D7776E3FB11AF6610CDC8488EB6170B12
:100D9000FB3EB64E660C1001F566048E2CB39175C1
:100DA000B3076866D29003B308C79B6638FF1CED93
:100DB0006405A7765ED002115F128BFC63FCCA7CCF
:100DC000DC2E1163F974D850FB42B3BD80B3062CFE
:100DD000FA75B310D6FB201D239B4D40A4AFCE3532
:100DE000F323B0ED45B3288DACD32821AA92E3308C
:100DF0004EEC0F880C76FB33FD2808806635316693
:100E0000C63938FBC2256614AA6608C77BB1FFB095
:100E10002048626630FB309B9630063E3CB170B392
:100E2000663897C7586698FF0C11CCFF0E66B389D9
:100E3000FEC0E12F1958E5FBD6D8E55AB1B118B379
:100E400066364CA17A56FF10057FD87F1FBE98608A
:100E50007E98B31FA6B307EAB301C209B177E2B324
:100E6000A3B509F7D98060A7C6CA07EAB380D5FC45
:100E700040755845F498901CDAFC6071DFFADCFF8D
:100E8000B008B8CBC63DDCB0622D6680018A450F44
:100E9000B97D8B5EFAE0C6A490DE976530A0F803BA
:100EA0005E18B462F73DD890FF4429B610E3721D76
:100EB000BD13FC85E6B3E6117B0C58F92CD7724EB6
:100EC00022B3EE5A3115E66654F9C77B18086883D9
:100ED000D8400143DD16E0F8816FDBFE402A4CDF8D
:100EE00075D4F8B0F997CF0FFB4A0F57B3809EB275
:100EF0005FB0088119F9604C7E7F08C3C3BF0ABB8D
:100F000064105FD17F6BB780E2C45840E3D3F0F840
:100F100063BF35BB84EB86C3013087F63068775EEC
:100F200017CDA542FC81893CD1A04134A2CBFA4423
:100F3000FD55FB2233F842088D81B945C6B0B1FAA0
:100F40005DB07DB9FF087719CAD243BD2CE6100207
:100F500018C53B3581813C06A332F744E00CCDFD3A
:100F600030D3C0A0F3ECE670FE43EC8E67DD60206A
:100F700004849EE4DA400420FB34D998DF7F7A9B16
:100F80005076AD600228009D8066C08230F76024F4
:100F9000D069C0D8C0FC080223602080CBD1B05DEE
:100FA0003BCEE501DC16587BB1205419900BF0F0D4
:100FB0005BD02653F3A303795AE0023859F4C6B341
:100FC000CBBC6015ED55101B73A0E0303DF3036AF8
:100FD000D3B33096B3108232D3C5711720EC02061A
:100FE000D0D5B30810B3CE6E09A8F8DFF6B8034722
:100FF000AEEB58FB5629BC286AF8EFB40904B84F89
:101000004BF75C217CAAC1A4184CC724814C8814DE
:101010001B987F16E5534FD97ABF4D6EA6D88641EF
:10102000C60DE32B4889FA981C8CB04DB3E65F3FA0
:101030009106C850190699035E9843D3B4603BB437
:1010400008303B8FCA59DC1ACB880A57F8A589307B
:10105000B601D983146FE798E83AECA983FCDFDE88
:101060003818E0AF2031B824B305E8CC4106DB8264
:10107000B2BDD046D3C024A56001E08082916D0945
:1010800049FF32C069975592BCD078C4FFE660DD55
:10109000803CFA7F1E74B01003026FDE07F2D33C6F
:1010A000F3E0012C012DFB4E533143EF3798ED2E29
:1010B00018EBD7028D89BC8BAFC520D963F8AB196B
:1010C000101C7BB3853001064F81AC4801AAB308E0
:1010D0009ED3408401203670FAD9C240B4A0EBB14F
:1010E0007CD8D30D972B3049D798D0F8989F83FDA3
:1010F0003402161022D39B5C44BCE33EF8FDC4FBD3
:10110000FE087F98F1FD97F899D85CF0B2E83515A4
:10111000836FE2989BC5B7D3E226C026F1FF1498EF
:1011200071B3F48007C02016BC18796D95FCD67F8A
:1011300022E266D8C5AD39A1CD89B02AD012D6B386
:101140000193B342B608B602E10008B7FD5A7A111E
:101150007998BF6CB140F303F67DFF2698B7144C25
:10116000840ABF9CE5F31360A0F9F376A8EE19C0DA
:101170000301DD191E7F5A5499995B85AF641E984F
:1011800070401E04938B0FFB0CE6A001F2D3C8B88D
:1011900030EFAF9C0898C47F7F1863B7E669A6FF5D
:1011A000DE8B6FCD30D8FB9B7BC32021B301621F48
:1011B0007FF106853009351008E2981999B32802A5
:1011C0002FA544B368A27828C8F5E50B90C1B5589F
:1011D000CBC83C195729969842D9764C66B6344507
:1011E000FE368A04100D81DFBB8002C8EAFEFDCC0A
:1011F0000C97C6303BE498DCB730D3D7FF3350B7F9
:10120000F92DD8D1E30FF889F23008DC11BD58343C
:101210002F124BE002F3B830023F623DBE0878FA6D
:101220009BB0491B71308AD20DB05E7EF1A208F8E6
:1012300036A6E5300CDB3ED9C3FD0A5901378EAE28
:101240004F6021C4CE66F498C02A98F54B14170D50
:10125000F372C2849E235C305486DB0A811F66AA27
:101260004C0931FC3E5A3014B5F82A40E898F07A1F
:101270001E0821E036F3AC07AFC845981077B65E7C
:1012800098FC717F8E65C85D56DFDC6FAB15067C00
:10129000ACC8DBAEDB9E193A63CEB3840130ECD52B
:1012A000C81AC374A520264209B31EB35FC74BF00A
:1012B000B8238930560164FE7F22CAF54790BEFEEE
:1012C000BF348122D118E3E083C02C6BB7884AF881
:1012D0006F24410B1647B841666D2C97864224B3A4
:1012E000A511320494E05C30647397D8F90192C779
:1012F000B80BF9D74CCFC50702B7E2CC3CF703F1E6
:101300002080E37F1A30FB98040802382DF091DA30
:10131000172131C5656680B7F55E4404DBC2026201
:10132000E0FA7FDBED5E7B500402A2F87FD18B42B6
:101330004B917B40602E801AB56F668101A24DDA19
:1013400009F1F5E455C684C0270323619420F6AB68
:10135000D8A0F9B7AC9820B0210DBF7F3CF790071B
:10136000F040AB8B0FD50890C5307B6078EE606D98
:1013700048FED6198023EB988010A2E7D3712B0D7D
:1013800080FC989B0C69FB2BCC4EFF1698426FC0DB
:10139000C45760DE9044F4BD0D56D02DA4EF608894
:1013A000B1FC2E5B309AF23001CDB2A8B22BC8D579
:1013B0001309C14159C88714C0BFD077D60C64BB8C
:1013C0000D5CFF95C630FE9862F4F867AF9FC0349D
:1013D0000B6C19C8FFAE5B300B11B3FD9BC6D1AAD5
:1013E000DB81F4A5C127E6D502F509C0E7D0F40AF0
:1013F0000B902F8D30926F98D7CCFD3A40B3720886
:1014000030C6C0202FEB9BAFD909C088DC79522DA4
:1014100019ABC5B3E759EEB9665D608AF3CA4110EE
:101420000068985F1360400C0249BC26982AFBFABA
:10143000608C02F69869FDC4BC98B3E87862945E4B
:10144000771A3DE5D5FE98CD07327E085D6001F341
:1014500036FEFD25CB3010AEDACBB5950290DC8F91
:1014600002207E6FD50CF321FC8AD5F323B1FF2E29
:10147000593014DE4B6EF85ABFED44C008DEB3108D
:1014800006A002BA84F0F32623FFDF9630234F1D17
:101490003066595F59B11C30C784125D39473BF340
:1014A000E720D4AD48EBDC0122C998B3FE627E98F8
:1014B0004B6620138BE7554110B138F45E6F36A6AA
:1014C00027C430B3B278FDE5506A97F982813C08B1
:1014D00006277C9270B430BC98F9179076D304FF3D
:1014E0000C6F76AD4F2530056689E47BDF6D841582
:1014F000B0A4A89735C022D7FEF170FE8BDBC8FCE4
:10150000F6C612BE64C958C421921991B93022138B
:1015100008405FF95D645EA5E526C042F35E600C9D
:10152000B8301DD8919BC8802FCC98FBB7AAE73064
:10153000053040B606CBC8E8F8DBC18BE238F8329C
:101540003EA2C4E2B1CFE130D97D5A521BA366C896
:101550000CF3F27F16985A47F6CC541028B67F3A0F
:101560003010C2885C1968D254EBCB4088F86F5BAE
:101570008B40FC32B2EA7D9811464A2819A8349C67
:101580005FD609106E14200864F811A47A8B9A2E85
:10159000FAB86C72E8FE48CCCF5B67127DF6BAE40D
:1015A00040C45BC9F8FB27ECCDFE3330DCFF88017B
:1015B0003C0B065C519E0223BDDF60ABECA82166AC
:1015C0005264F998E6F7255C45480456B46BD91483
:1015D000015C0C7AC54ADFE57F00BDD1603CB5DA1D
:1015E0006017C75B82276680C3C0848798233FD17A
:1015F0002C80913010A9263A90E160ABEC53042086
:10160000895990011E98B716E53007AE2D940362F4
:1016100007FC81C81EE1C40319F60FE201FE98BF62
:10162000106A498CAB47A0CA5B10727D05D1EFD020
:10163000B6022CDFDFC8C1DA7440FBCF26E460DFDE
:10164000D9F34905B3E672DFD5A350192F961E08CA
:10165000AAB384F59816A740274AB33415B3AAE471
:10166000984D4DB388FE8B796089DDFABF0B23BDA1
:101670009639206C6EDBFFC9A86A587376998FC6BD
:10168000F37200248EE05F9D40E73ECD760AD3CE14
:101690002FD360E5B0F8304876FF98FF2C346667AA
:1016A00018D1E339D0FB118239674D2AB0A016BF9B
:1016B000AE47F3F94A899B66CD07A9CEBFDE5CF33E
:1016C000DB78FAF1E2B9B118D6A75B37919EB6E4A0
:1016D000F3B66966B68AF328FB32045FCBCC0CF410
:1016E0002B2C7B602BF3521F2BFFB0134AF3E51F0B
:1016F00037DDF0020C777BBA10A81430B3ABD6D02C
:1017000020EDAAD9F98E9FBF66E0F68446F65E59B1
:10171000AD9D61B8D0B3CCDB2A184B3328B31B5F27
:101720005CF0F67F14A815018AD78C4EF7D7E8F83D
:10173000026ED96B761834B0BF80CDACBAD496AAFD
:1017400002DCC07E6C65F8D61A0428C8DBD411F61A
:101750004BAD0174E0A422E5C348212BBD5EEE1120
:101760001450086EFE10DE7C058C59B378E16EBF14
:101770002EE03381D3B2A0DB84A9102A8C09680241
:10178000AC0C8D8744F15140A008B9004182E6D8E5
:10179000D8FEBFD88AF6D47FD916D65BB3F98FDCD2
:1017A000FBCC6EB339ECC1EFB4D9FBCC7CDB2608A3
:1017B000FABD59E319159B3F0BDB4C10FE1BF5EAF4
:1017C00080AAF5405886429AD830FD5BD633FBEEAE
:1017D000B20185F30AF5DF6169B3FC3BB110560B2A
:1017E00010F9C64C80F3FF3FAB856CE396D380FBCA
:1017F000C4A5B84063B96A0D98A9D10110B7FF7F9D
:1018000060D3B6E37F166ECB0C7633ECCB3533B3B7
:10181000FD6E0869A618D9C8D8FD0824361990FFAE
:101820002DFB9A80145F192866B85FAAD240AD9646
:1018300016B3FE2BDBB1102A2C91DDB7F2C9581973
:1018400036E201D79D54E4B1F95D0CDBC5BB8040A5
:10185000650B41692886AC79C3E3FF210C88B0FF92
:101860006EF3980FD6B340278B91406FAD74B71DC0
:101870003720BDEE2895A6FC12E43F662DCBF5B0CF
:101880000E8F196D572120FDC8C86387B3848174FA
:101890009876A76CA940B53230867EE5B5089D05DF
:1018A00028FAAF6E59DBA0FB984D55C6C429DD7CE4
:1018B00098FD8B9EDE8EB70130F287FD5828FE0220
:1018C0008E2F868035F0584801E67662B0FA3B6686
:1018D000353FF7C396D713D4F490FBB20A960902AA
:1018E0004AB801CF9B96F4BFEA96A6C4F4F346F338
:1018F000EBD9802C665AC08838D3760AE0B31A90A8
:101900001BBEE0F014257785A202630A440133EE82
:1019100090FDC084027AD6304205FE22B8FBCA167A
:10192000B3E94319A008B1012BABAC40C28AE30A6A
:101930006840955DD3F4CF1A0390443493A02C9B58
:101940003095F815B5D3208F60924675D6EDECD75B
:10195000F947EC3963E5CC7C2EBC41F9E1E647E17F
:10196000DD3C913CDCC8FC46127910E6F73BED24E7
:10197000CCFF85BE09B7803226CF195899706DCB40
:10198000CA20338F310C99C349BCC4BFCDDDE410EC
:1019900069FC8EACD31083F81FCE51B0FCC2EEC0F0
:1019A000B1C0BC5076D24F3BBB547ED8FEFF443012
:1019B00009BCC0C5633D1762B243B10839B777E3CC
:1019C000C5175B4BF9EDD79F96A3186247FAC1275D
:1019D0003BC8DCFB09FCF9CFFB6D3F16133847EC25
:1019E000CC03CC311DE5A101AD1BD994F3EC63F818
:1019F00065CB88626DED26088B366538FB16597EFF
:101A00008DFE6A18C66B92E0B301D4C560B0B20710
:101A1000BBB406B0019716E12022EDB450F30C14CC
:101A2000A6CE78FDC2C519059AC0B206FECCC696F0
:101A3000194120EDA58119018B7F7F30FE61259B27
:101A40009E9829D66F2DF8EBFE09E673F931F275F1
:101A500019D08C5FFA0DA0DB0134E1BAAAF814FDAD
:101A600037B5F38B3519E0630F660C8001306EF4E7
:101A70006C77637CFED840FBFF995EE6B3FE8B6714
:101A80007B98F8FBB00888B3DB0B6FCAE68D6CBCA3
:101A90008BCEF674E2F9C67D4C88626BB380759389
:101AA000459A55B1D88F60E503646C04106950E025
:101AB00053C9665F13F804632B19310B3B0A796332
:101AC00035DFAF84B13216FF1401DCB3CD6C1908D9
:101AD000F85F5D9324A0409E4ADDA031C6302DEB17
:101AE0009850186C6604882EE530108C7B4B0FE004
:101AF0002C19EBEE478240E33016F798E8FE0C63B2
:101B00000B97403F9B2D811125262071DC99569221
:101B10002FFD320A40B966BBCC085064F3308049CF
:101B200066FE7F80C63BB109EC200104EE6EC06406
:101B300001E33016F79848FD0C6326663996B77FA7
:101B4000F67270FC31F23289CFFE7F0684EFB1D598
:101B50006F589810C2B3203D409E192CB79F6998CA
:101B6000A001F3026566ABFDC67697C2FCB1BB8DE2
:101B70007D150B600130109AA8BB84EC7FA5B007DF
:101B8000849F325434B340F7AB8141B3D946C15F2F
:101B9000E55B6219845E98B620599F3059C8B3300E
:101BA0007F7F40B0F98FD69814ABF86A8D26F696F1
:101BB000CEFCC9F0B019AFCF98CBC816F6E509FD39
:101BC000C73D9808667D7F6C85B16F7FF632C8FF90
:101BD00010117A9880DBD4A580E864798B9DEB980E
:101BE000FB1BF59880AAB190C23F6C85C0FA6FCC00
:101BF0009846854D2394F6B207F194F9B10CAF08DD
:101C000098D5BB826CACD910013E99AC4432D4BF9C
:101C1000C8AAB1F8BE5B30802D21024B9FB0174699
:101C2000D92266DFC24EBF64D69805ABC80226CC67
:101C3000799F1636F365185E5BCB300119C547599D
:101C40008EF998B9BC9546DE2C19D8F0FDD73B30FB
:101C50001422043B2CC8DD09AF02655211F8C739C4
:101C6000300161566CC8886F9B3010207EB6B8E397
:101C70008D2CA6CD6CA398FC6F963081DD20B5012C
:101C800059C0097D0A66EB62ABF8635CCA9610AE78
:101C900023F6B4572CCA16A6E639FFC6BD981C67B2
:101CA0005759604046BD5F99984D1850FC8DAD6600
:101CB000808D2FCE72C3A116AE45B3F8C6BC98DC9A
:101CC000B30327F61E462F9DC830F88CF23041DF53
:101CD0008DD2D4AB89F56519196DB318FF847244A0
:101CE000B6048B2D737313AD34FC8D7998BF761FBA
:101CF0004801D854635E3ED888FCD71930F4AB58FD
:101D0000EE6F44F8586718B3DF1830809F76551E81
:101D1000F8A6612637E1096018D7DF9998DDB1B1DF
:101D2000FEBE3030B1FF48633D6462BBFAB210289A
:101D3000F8CD9636B0F9C5FD9828D8208887AE84AE
:101D400084CBC816E530208CDEFA08C43D980963C0
:101D50008B18FE18F19838641B251D26DB2404150A
:101D6000E230CB7B18F49810B3CAEA45CBC9C8F56A
:101D70001999E6983346F84E4B36BC55B3049BFB95
:101D80007F462DCDFB633DB1B740CE019003D1F826
:101D900068A3801917E730A0F80C6322662CD73BA4
:101DA0007BD0026E237EC317E63090F8C6756309B8
:101DB0005FC766E2E110C6A9F8E86299C867F8EC67
:101DC000B0B385FFBCDFFF20B3ADD240713C9AF3C6
:101DD00067D2AB24C6D8D350FB0C1216FF983866D6
:101DE0006718D1E3D3ABFC609266D889FEB193FF4C
:101DF00081625F6E6ED36590F3C6B1F48EA364DE2C
:101E00003CECF3BE1426F3FF63F8C123EBCCEC7F6C
:101E10006E4CFBAE31C7F91BCDDFFE04BF31E5F3DD
:101E2000DD73131ED2EDE37D06D0661680EB69806C
:101E30001C31D8DFD9CC025B98B128D38B3FCC982A
:101E400022315776B3FF08C62F60406219F9AD21E1
:101E50002D2332F916AB4056D8E3BF17CAB67840E7
:101E6000A57FB84B2801A01B2480262C47A59038BD
:101E70008CC75C0831D92420E3B2FD84649759AC47
:101E8000C9129958DDFC25FAE50AC2BFAFCC5BDD6B
:101E900002E915F4F809937BDCFE1CFB13381ACB1E
:101EA00033F3B5E7B863CB19080A75AE30B0FD4B14
:101EB000FBCC02D1B340616776A6D0FB08DD667D1E
:101EC000185E1EFF7F67F9488BF1A89AE4B180F392
:101ED000B37EECBD10027B5DAB98FD02861F4261B4
:101EE000FF51B1308FF65A90C0BBEB647958AB10FC
:101EF000F1B3832B19108062BEA262FF15B1088472
:101F0000B308764FEC3B0422F5D5588257F67FDCB8
:101F1000FB0E5EE5B00885DC90632BB382BEDE3B32
:101F2000FC0BD76F8CC09A6D97A88099E6732A61D5
:101F30007933FF73627527ECD8FB04592804D982E2
:101F400040E92380BE1F02816BF02F1D569556B6C7
:101F5000D61CFC2FACB36929DF2E25E48FBC78A1F9
:101F6000C9ECA0B3FDB5174BB32CF332FBAA78FF35
:101F700018B8FAF520363A7DC098BE858D697FBDC8
:101F80008478F8BD98E6B86083EBE5800875620454
:101F9000B1022FCCCC206B04A3E526CD6EAFED4073
:101FA0007B66E8F9B010A97B40637BE3D88CF9F736
:101FB00099FCF1A6630D82A8FE817F9B7B100871BE
:101FC00035C85DFE63BF8CB0089D66D063AB66010B
:101FD0005F8084C219F6288020FC36E146C04AF8AA
:101FE00040C78C3B28EBFE1F2EB330CAEAEC20F929
:101FF000B177AF584B0C58ABB358662AC7F270C6CE
:1020000096E3B01C667B01CB393C9A4060873677FB
:10201000BCA0B078E3B6B10CDE11E0C00378740F59
:102020008041F760858C9403600B41960BC81C2D92
:102030006680FF458BFA600820820158EEF97070C7
:10204000019419BA204C90109B1983605CD82EFA29
:1020500041FC97300177FF018840B3053E3CC8FF43
:10206000CC2180884BDC18081FB38C4622013073CA
:10207000F71761D935182BE8857E9B4D9304FD3207
:10208000DC6107B398DEA8D30C7277703E3506C5C5
:1020900071344069C630103DB31A80B8EDCFB30F2C
:1020A000716C77B10642DD3B4FDB98A0FD0840B371
:1020B00069100AF8EBF670313D05579BE5EF5C0BB4
:1020C0000969BB2873083DE53EEE6061547BB30EA1
:1020D00050203F2DB3106E10CA6114F2FD7FC984E9
:1020E00017ADF79C071694EBD1030BB14D4F6D98CC
:1020F000027839B1E06102190C060114D796310D4E
:10210000296BB3035F58987B4019AB025FBC12CDBB
:102110008D400E8A6E3BA35EB319D848FEFE3D94F7
:10212000EAB96EA2CFF846205E1E65E1989FC030E6
:10213000184019F75A3032427FE01F26EC74BE0275
:10214000B3193B9630701027191AB3CB114FF88D85
:102150002064FFB204BF7F026FDB17184E76305841
:10216000FA0C3CB3F7B236324377634969D975B894
:102170004BE84D20A97469411065B160FC01E1167E
:10218000F7717283137B654054D99B097F1A64727F
:102190003010FE623098FE31F7661207837D78AB0F
:1021A000914E0A2CB3193B9B30C8F81F5E190638B4
:1021B0007D36A60A047966BF183049B34971808814
:1021C0001AD75625055659BD3C3001FC30B0F88170
:1021D0001986EEFAB3DA76F85035395FB66C8104B9
:1021E000F78B9D68598011C6193EB3F70E51819A3D
:1021F0003EBA9860242008C539316144F246B0489F
:10220000839E306670E9FFE71D2560A0B1275EAEB2
:10221000645213E0DD88C20FFBCC96579E9ABF93A1
:10222000C9ECF1BB205373E342FD41CE2450FB7A4D
:10223000FEC2071930A15E73661342D8A416A77BAD
:1022400017220240FD98E0B0F883F87F1293CEF792
:10225000BA4C01890A09CAF3987C29E16C7E0F60A7
:1022600021ED64010066EF801281F0980C58DBD7F5
:102270009B7DF1FC1F56B344ED5F847D8D02629F10
:102280007FB462C5D4B88ECDC423C22EF4BAF00890
:10229000ABFB927A394A04168D3F0C69AF18B3FD37
:1022A000BE329EC88830459FF84811312A0162BC71
:1022B000302EB3F698F0FDC7E3702EE0D9C87BA7A7
:1022C0005E1110B5D81F08A62B4760AFAEADDF0C6E
:1022D0008F3E660AE89C2850E6C310B935088ADEAE
:1022E000F0803D283BF830F9041EFFCCAAC8A8298D
:1022F000D62093EC11B30653D3988B692CD6821158
:10230000582EFD0F1166CA8A88A740F8061485B2B8
:1023100042D67008EA1908EDB14172B8FBC73930EE
:102320000845BBC6A0AB0B4213B02C3483F35E98B8
:1023300036AAFF3F6A9504F64B0102F5F20A977040
:1023400095195C30A584B370841DB1F782AB98F207
:102350003DF854BDA46A94E8B60D5619402E2821C4
:1023600058F72441CC7D2201B9663B10EC42A03ADB
:10237000B3193ED6B9B8386673BB42C0BE88D0A187
:1023800035F6A4BF679B7D9AFFEBFCB8FEB108B29F
:10239000B37DCE164C9112403D875D04A0BC97FBE7
:1023A000CC02235BF208809BF303FD081D19A1E01A
:1023B00097F62DEC10B07EBF37986D65106139AF80
:1023C0003963A7195FFD0A86B912D455EC8F030C47
:1023D00052EB60CFBFF78B50FE04610D2074125E8C
:1023E00001C363B99CD8B3FAFDF4630E40B37A76A7
:1023F000C0CB6D870810C5DB19F961B1D0CBB960CE
:1024000021CAEE37BBF2FC7F611DE944B56EA20123
:10241000F59802AAB541FF2598B8488FF56437248E
:102420008832385E0524D2CD85B3C6920C7A710409
:102430009BD550FC1F7B19CE18E97E9E766A24C07E
:102440000FD5EA1E79C1B9A66BFC04684BF6381F9C
:10245000B960C6EF239EA0AE1231D9C9A2BBD35238
:1024600055B29078988863EFD8BAF8FFFB324E8067
:10247000A9ED4F3CECC8E012AEDAC32491C6B7FA1E
:1024800062611C71A98A1A9FEF6D512DC7426D7749
:102490009A9B56665BC8B3B103D1E241B38F5D60CE
:1024A000F9C801AFACE502FEB764D3A8F97DFC61C1
:1024B0000D2FF80105D040B280D6B348AEF25808CF
:1024C000806E19405819C8415F92B47DBAE873F81C
:1024D000C2D6DBED72F668137BC40D20114FDFF915
:1024E000087AB010306683BE1752D01148FF81D7EA
:1024F000B0B3227B67016E438A0496F360107F7F3E
:10250000787BDCF4DACAF68DD1E02759B39590C810
:102510002064308E3EA978401252872F83D0A1B21A
:102520006030A1B0392AC3CBFC4B7BA6114020B749
:102530001FF863FDFEFA78A0B0FE107BC907C8E261
:102540003676B32301B031D7F530099EC820800517
:10255000AE60C77F32075F7FF44F5A129029E18641
:102560000785B232D5ED5A6C80518BD9C816E4BDBF
:10257000982863BA15489012118469D05E0176D903
:10258000FA3CFF6CF3ED18048375D27963AB6604F3
:10259000DDFD110802F4AB646ABB1385F2BFA1B381
:1025A0001A5C7B4BA0FAB110E7B39423B0B9D1B356
:1025B000E2ECB1386073BC3728FA209BCF9E10E460
:1025C000CD5943C7F3F637803471A7ED66287020E4
:1025D000158DB6D380FB3FEFE5981AFF5F7FBBFCFC
:1025E00065353F1C76D638FD2C3C66F7187710D33E
:1025F000F7354370B1F4C5397A8FF030F7B380B056
:10260000733DF84A8822AE8E36D660FD3FFFCC94EB
:102610002B1A927319E215DA454682E07C5B6C1B3B
:10262000D3FF54E8FE63FC30AC14B5C8EDF346B6F6
:1026300098BD8C531090E9FE63666671A78E2CD30B
:10264000985FACFE7AC5AFA792F0BF21369D883166
:1026500036773F92AF68CA3BF370CDFA18240BFF70
:10266000190395B30261F9BCBCB678F4F93EDB6797
:10267000FC3AB1FF1F39816C286342B3C6C696EDA0
:1026800028ECF60A096597584D2A9F36A779C88421
:10269000190CA940D711216C17F810FE85D37D5174
:1026A00088FF088BAC6608255FB640D44D37D8DC70
:1026B000FC7FD2B18BDBB6B1481CF5B119468B2A31
:1026C000500377A8B10F2B0E16B38029E6DF0697CB
:1026D000ECCC08F8D8A9B0124B1902D6B3FD1C7582
:1026E000239E11D808FF488BB08089A130B1FDD35B
:1026F000B62CF4C7FECC585A23ACFF900E4CECC855
:10270000DCFB7B6D6C7E350311DB277BB519F5D8BF
:1027100060871B9653386BEB900358EC4A30FE0DE4
:10272000EFDE7F080F619E1847AACCB8C2C566408D
:1027300089ADB5807B0BE0B0FFB8B5DD2B0465E259
:102740006B80EF3098ABD6E520C766B6644101EDEB
:102750009C0130F584B0E8839E301806C030E7F85D
:102760000C0340B5185C6E32B21241D7912840F884
:10277000C00A187E016800B8C7EEFAAF3880BD10F5
:102780006F0163D835B1F0F1B38657817FF7D70178
:102790002081B346A886A2DFBFEF802010A654A8F0
:1027A000FD031D2F1BA4EDD808D8CD20B26780DB18
:1027B000FBC384F91FB9C5BC6BF6532B24B39BB480
:1027C000486CF6D0FC0BBEDE64403346FC3CB3B133
:1027D000F9EEB13E8B317A0ED8E6FE417BC410553E
:1027E000D0018FFA21FBC37FD9DE20E6F33F8BE1D6
:1027F0008019EBE639DCD8B0F99B964001103B1705
:10280000A8FC081EF34A5382175B5A40FF8048FB1E
:1028100063A11B9FD384AD402C2955B3046E8DB0AA
:10282000E04CD36203B8B3C0FD7BB30830810A9B90
:10283000F806981E76D6E8FE103FCE32CEA20AEDFC
:102840007014826311AC186DD60C63FD643CDD20FE
:1028500090CA44F8CD0F94A8068DACD65820D41554
:102860001E0D996FCFB3ED015C366388B3F8F60C9B
:102870003CB3811601BB1AF3CB09F808B105B7D6F2
:1028800073FA0463CCB31C607DDE0ACE19B0306AE3
:10289000C71BB341FA083F0F07DC161AF8F6DE0330
:1028A0000B083BFB08FE1F00198F19DDDE808F63CC
:1028B00094EBFA610EF699800CBC4DD84809E618E5
:1028C0004741982EAC1BCC2CBFA7740F2E78638B7E
:1028D000D678083BFE1C9B88660590AB40EC88725E
:1028E000B6FFA0103D193E80A0CDCE211D421003A1
:1028F00019FB05092DC696DF0292BC1DC9112B8854
:102900001CD561C0841AFCFA3654C105137BF81B30
:10291000A820E91CFD3168840EB3860284FCFD907A
:1029200049110A48108E7D7F8F9DB3A11D5C6E2CCE
:10293000AF7BD69838107E320EB1450A6B96E539DA
:10294000DBB128081E6684BA33D0E7F8445519B1C4
:1029500060C5D694841EE5FB340108301088AB5E58
:10296000C7161888103DB34820E057C01D7810B432
:10297000A72C3E7DB3920316B10D3DF8DD830F10F9
:102980008E6EE353C20FFBCC2864A855FA0F6C136C
:102990002671D6A96106FC49BA12139157CF87094F
:1029A000C0638DD6B0FD8FD5E07BA011015D6BB10A
:1029B00007FF6CE5E3FB22BE151484FA9BD8A5043F
:1029C0001C9B9A1D27B369242632D3D408AB72F31B
:1029D000C119E8638B19F91F406692DD2234DC646B
:1029E000F9883BD81CE630D0F8C7FFCC2E03AA5795
:1029F000A751BA538084B1EDC7B360FD0C63D547CE
:102A0000FAA2307204507BF8D1902AC01C7619E0EB
:102A1000FC043DFFCC22800625731151C0D810D490
:102A2000E2D3B8C20A475E0AE9088540B3550A05F1
:102A3000C77D9830B1FFC31949DE8F055B63EB8911
:102A4000781D2066B6A6AF15D5B60861D9B3F43B9C
:102A5000F4CA18F541F8F662DD04D838D6B07483AC
:102A6000BE1732604415E7F833A808198E2CD6F04B
:102A7000768911196AEEE04CFDFF8623CA0CB15D20
:102A8000C7B3D0FB0863CFB33E6C5518AF40ECCC56
:102A90006B0C7BF6CC8B106BAF2AC0DC249DF8F658
:102AA00031FAB04A38D6B01183BF64BA4A021880EE
:102AB0007736308D033A66D8A0F8FF52FEFD18E550
:102AC000AB038FFBE553F863F1AB9706FADE6903BE
:102AD000A278C77F32F863FE4BF78AF633C97F7F4F
:102AE000459BD85960E919841DFEF40AB081091488
:102AF0005C7563CB65A8083BFEC4EEA8604F7BF80D
:102B0000630452AF1C76D6D8FF083F4EF8A29681D8
:102B1000E7F82B9929B140DDD81CFF419EC8202140
:102B200025E7F807C05263B398B01082BEDFAA3A17
:102B30008A85E7F84D0D05B140D519F98FD25E06AB
:102B4000D790300318E8B40D89FD8434F8BD81B303
:102B500001B180E5B3A0840F19C46D3AC573F8C202
:102B600036D81D70E9B3841F7FF71480C525FECCCD
:102B7000C6C7966658103D661A2320BFCFF8CC13FF
:102B800010C563B1A95C3063D15CF7508224105B3F
:102B9000790A63B180C6D398FCC7F1948EFAA0205D
:102BA0008D100142B352D85608774A5E077ABB0FA0
:102BB000CA0190E780C6076563BC7CEC80FF046DAA
:102BC000E1057B6381D042FB631D408E36B3D0FEAE
:102BD0001065C8DFC869B0DB18E7AC1E5020E77D80
:102BE000842330B9C0B3C2EC11186071B3208CFBE0
:102BF00060CF8050103D96813669F3EFC48CB045AC
:102C000020B910D5C036E62834D36114FD2A08282F
:102C10002A1DCFF8240D158F63BDFEB1F9B393DDE6
:102C2000B365018CD768F6E4BA22403839D841F848
:102C3000411EA9B0203DE7B32C4110B118C6D68182
:102C4000FCC7FFCC9CEE0B0A8C7BF8CA1505C01C98
:102C50005DD34066C63FFB2F8C092F6052B1F9A3AC
:102C6000933C97C718D398FF0C11CCFF0C53B303B8
:102C7000F5B38001AE362D29FE3B76623FE62D5638
:102C8000AC62FB7E4C457CB3DD6678B0FA263F7FB4
:102C9000106090B3B4DD30193F7C4BC0FD30B33FC2
:102CA0004CB30BEED8178045CB23101E2566BD0410
:102CB00084CD66DCFE8297D8CC1FABB38055FC4038
:102CC000843760B0782BCC190FD3B31BAD89B88A89
:102CD00018B3699B19881933B3D6F2083A66B02045
:102CE00087B017062F3040F8038018C6E58C18B05F
:102CF000FF87EDDC5665013B13AAB3FC6178B31680
:102D000030B3B1FDCFA494E240B5FBA3151E6C66B1
:102D10001CF87A574580B6BD400110F71660FC607C
:102D20005DF4FEB41EA8B08C79B3F92CFC26A3F692
:102D30000FB415F5B202E763FD788F98662436FF6D
:102D4000DCFB0D7F7FB50251FC01148EACD5D87B26
:102D5000C84BBB8DFC745AC756B2103D4AAB82FDBE
:102D60008780066C610E368D50F906D698AF1FA687
:102D7000B307EAB30CDB2CBD6DDA70B0FD88B4DFAD
:102D800096340439DDB1FB0C824319E3F8B00448F2
:102D90006CB3C9FA12FE7FC12C19C094F798301198
:102DA000B8B0FD4801B3A860918894381D20FC0894
:102DB0008232B3340582824FACE522127FCC0C0301
:102DC00010FBB00447FF7F20F9FB6091FD3201B892
:102DD0008247E53234B3824763FE10D88824EF96E9
:102DE00008186090B38180B26091EEE5200928C197
:102DF00021B33C2CB1127E7F0699FFC1211922EC30
:102E000098FF10123930A8604CF2300CC1239D306D
:102E1000C2FE0482473630F8F9097C30B00848FE1B
:102E20007FB1FDC11FD8E5B020D6FE072E40C86097
:102E300091EB988A02632CC812751510B0B948FC42
:102E4000CCB00DA0FC823FB14B0408D8242019203F
:102E5000304DF34B048AF6DF12F0FA08FC30819013
:102E6000C0B0FA48F6980890C1278C3012BDE53002
:102E7000EC0A18FC0FAE3330F06BDAEC306F9630A2
:102E8000B03BAB150255F801845C3063D679B504CC
:102E9000586602F966733068FE6396A56AB3B0504F
:102EA00085B3300318FD63A66669118D3DB30488B0
:102EB000F8108230B3F3FFE8FB20CF805F52D202DC
:102EC000403C01CE33F38CD16CD3A2F6C12E36A98F
:102ED0002C08E566110F18243666C9FA08FFCC469F
:102EE00019091C303DB183FE308247D8CC254D2ACC
:102EF000827798E512797B7A6602C120B358661210
:102F0000BF7FD804D86CB3B14015ECD886D7ADB12B
:102F1000081D0E8AC31A58AB80BEAC3CFF1F7DE56E
:102F20001062FEE5B0FC64F3E503F4B3C0FD40B30A
:102F300010D888FE19461907E9B381FAB360FF98E3
:102F40002E141BA8F80487670818FF60F2B3607E90
:102F5000FD32F26FEDA8FD0AB0BEC10636A7FDF73F
:102F6000DC61EDD663F649C8FA13E1AE8FC684087A
:102F70003B3ECC793858560475F6327B89D8FF62CF
:102F8000A631195BFCC4FB6070F4FEF61990FF0AD1
:102F9000090B66B002068C5E0FD5B3088242B3906F
:102FA000C0B6FBCC03F4B3C0FD58B310242CB3CC93
:102FB00024D5FC0CAAF806C6DBDA70FD092E85DBE9
:102FC0002CE56DDA50D8FB0C243B19E3F804048699
:102FD000B3C9FAC096E630A3FCC127D6E5880677C8
:102FE00058B11FBAAF6093DBFED807FB30C63F5B1A
:102FF000B389FE0623B307F519BA826558921CBB44
:10300000E360939DC8F2F9831718CA3FEF4981FE28
:10301000607EE5C883FFD87F31F13083FE76C8FA41
:10302000F9061798E51FB760607EDD6081FAB36D21
:10303000A6D739EB6B801DE57D02AAF801C2258D6C
:10304000A88EDEFA04D56602611366E0FA6386474D
:10305000ABB35008DBB328FE08C56611844E19F8DF
:10306000FB10C121B3E8CDFB20CF807F5202404B43
:103070003C0138F3CE31D1B3D304EF58982C2398C8
:103080006626DD60824FD8CC2762E130C11C66C065
:10309000E8BB6003F5B340618F59FEEBB3200E1B14
:1030A00066FCF91600B3C31519FDAF1809212C5F92
:1030B000B85BECCC32EF4D18FF12608FF533A615DC
:1030C0000757984B1FA6B307E9B381FAB3B010476F
:1030D00030B43F322EC7CCFF0FD5B3028242B3B813
:1030E000C098D362026B377B0349A84A1606C3F621
:1030F000B360FBC3D5BF80958647045FAC4B10AE71
:1031000030304ADEE3CCFBC0B9EB1703F7AC170F46
:10311000D3B303F4B3C0FD30B33F4CB31C75FC0C08
:1031200079FA8F665770C24DDAE308ACF8046DDAAD
:1031300050D8FB0C243B19E3F8040486B3C9FAC148
:103140002FF63208090DB3A3FC83FCF6C41803263E
:10315000E9D830FE66B362A6E819ACB31C55E8FAAC
:103160006197EC7F1A57D625FC192C6640517E5882
:10317000619DEC600657DB98F904048FD87F4067A7
:10318000DDFE58108A18B36619B09A4AFD7F088A86
:103190007E7F90C2DEB1FEBE5828D867DB17401490
:1031A0006CE9F2F932586790A266C0C33ED8B11EEE
:1031B000A9E8867B9662BFE5D841FA673BCF111636
:1031C000CBC80F3930106052F2300CC1239D306AE9
:1031D000FA04879C30D9C0023DFEB0FDF79B30F069
:1031E00080263B0FF9080CBE7FC9326656E9591A92
:1031F0007AE501C830B3FBACB10FDCECC819FD12A5
:1032000073C849B0FA2032C8C53DB062B0F97CFB42
:103210003203F7CC980FDBB160FA31754519888617
:103220007F32D802059BE9C8FD619E582EAD185E1D
:1032300038FA4B10CDC54E098A18DAE9B3B66CEAF4
:1032400001B5EA488996D49815476D9010029666A4
:10325000B1064F58B0A0E76DFE8056CA50C6B337CE
:10326000FDCCB0FF8E9966A611ABB30514E57DFACF
:103270008646B32D6C7AFB20D7CF80F45202403CB7
:10328000B3018CF3E3D11B2BD330C64B8D0F2482BB
:103290004366C9FA11824066B0B3CBE0CC315FEC33
:1032A000CCFD08123B17A2B0FC257E32C1E8B3C7A3
:1032B000F6E3C12C66C0CF58B3408F2C9E98DCB08B
:1032C0002EEDA5D861B26610CF1DB3EDC8FF8240C8
:1032D000670219589D23BBFF88FF120FCDBCF598DC
:1032E00028B0FD7FF5E5208A2CE9B833586602AA9C
:1032F00066FDC0CDEBB103F5B3126090B3B0A83A50
:10330000FCE5C0FD30B33F4CB352D644D80966B398
:10331000066FECCC08535D5630FD0282226A01FE36
:103320005E7D40A16086AFDED8FDB861BE2C8FA067
:10333000AFEC2070FC39F5E601982D8E08C562A926
:10334000C3339D0EBD982062189460937E60CCFBC1
:1033500002C112A9E2FF80D870F973E64B7DAC1868
:10336000FF12CC19114CB70FDDB0493F4CB30FD34E
:10337000B303F4B3C0FD5AB30CACF8066DDA70B009
:10338000FDAF760B0436DAEC50FB04121B19C9FAB8
:1033900004B3B304BFD87F08242CB3B20FC93CDDFB
:1033A000FFC0FD30B33F56B3DC0725F613ABFC0975
:1033B0002DB389FE819A19607EF5B1824EB615FA59
:1033C000F9092DB3D8FB812D9BC88107FEB0FE3FC4
:1033D00056B3BA07262C47890FDF30987FED179038
:1033E00081C9BB49D8059BB0FA3F6F60106AF8638A
:1033F0009E6BB1B3DE5A3002ACF80122588DB9EDA4
:10340000EDFA04566602112C66E072564380ABB3A7
:103410005008DBB31BFD08C56611844D19F8FB820B
:103420004BB3BCFF9A20CF80FE520240963C017104
:10343000F39CD16366D309DE98B024486C66EBF840
:103440001279CAC9B0FA48FBCC04CDEC49A3FC09F7
:103450005FB032ECB3C0FD30B33F4CB30FD3B30316
:10346000F5B3106090B3B1CCEBB0AD3F7E7FC0FD43
:1034700030B33F4CB30FD3B303F5B380B0103CFE71
:10348000CCC0FDFB7F1F8B89D6FFB81E19B3948972
:10349000B0D83AF0E1C0FD30B33F4CB30FD5B3061E
:1034A000876FC01004024002080544DCC0D880E9E0
:1034B000B75C64DDD80120E9B50FE0BD120A021C3B
:1034C00083D4013BF5B0F80267FF7F15A002B480FA
:1034D000FE0A50012A4005A881F3DE54F381C0B8EA
:1034E000F60017E00271D012D3E0D01B41D3E0FF09
:1034F0005C800BF0032EC00F93A8D3E6D8F8FC80B5
:103500000810013F410488001183204441F3B72291
:1035100040BFF30364800C9001669CB4D340E08606
:1035200068D33FE0324006C804F319201344D31493
:10353000F10118F9FFD804000055AA33CC9966F0C0
:083540000F5AA53CC39669FF78
:00000001FF
